{
	"data": {
		"bytecode": {
			"linkReferences": {},
			"object": "61014060405260036101009081526218171960e91b61012052600790620000279082620001f0565b506008805460ff191660011790553480156200004257600080fd5b5060405162004de438038062004de48339810160408190526200006591620002bc565b6001608052600060a081905260c052806001600160a01b0381166200009d576040516341bc07ff60e11b815260040160405180910390fd5b6001600160a01b031660e052620000b433620000fb565b50600580546001810182556000919091527f036b6384b5eca791c62761152d0c79bb0604c104a5fb6f4eb0703f3154bb3db00180546001600160a01b0319169055620002ee565b600080546001600160a01b038381166001600160a01b0319831681178455604051919092169283917f8be0079c531659141344cd1fd0a4f28419497f9722a3daafe3b4186f6b6457e09190a35050565b634e487b7160e01b600052604160045260246000fd5b600181811c908216806200017657607f821691505b6020821081036200019757634e487b7160e01b600052602260045260246000fd5b50919050565b601f821115620001eb57600081815260208120601f850160051c81016020861015620001c65750805b601f850160051c820191505b81811015620001e757828155600101620001d2565b5050505b505050565b81516001600160401b038111156200020c576200020c6200014b565b62000224816200021d845462000161565b846200019d565b602080601f8311600181146200025c5760008415620002435750858301515b600019600386901b1c1916600185901b178555620001e7565b600085815260208120601f198616915b828110156200028d578886015182559484019460019091019084016200026c565b5085821015620002ac5787850151600019600388901b60f8161c191681555b5050505050600190811b01905550565b600060208284031215620002cf57600080fd5b81516001600160a01b0381168114620002e757600080fd5b9392505050565b60805160a05160c05160e051614abc620003286000396000612032015260006106340152600061060b015260006105e20152614abc6000f3fe6080604052600436106101e75760003560e01c8063b0089d8311610102578063c480fe4811610095578063e26f790011610064578063e26f79001461055f578063e49617e114610581578063e60c350514610594578063f2fde38b146105a757600080fd5b8063c480fe48146104f4578063ce46e04614610516578063d627d25e1461052a578063dd5260541461054a57600080fd5b8063b8b23c17116100d1578063b8b23c1714610481578063bd7e2aa4146104a1578063be2761d0146104c1578063c3a7e3e2146104e157600080fd5b8063b0089d8314610401578063b4e137cd14610421578063b5af090f14610441578063b759dc721461046157600080fd5b80638456cb591161017a5780639128b0d8116101495780639128b0d8146103a357806391db0b7e146103b9578063a0a8e460146103cc578063abe1d7f3146103e157600080fd5b80638456cb591461031c57806385b924131461033157806388e5b2d91461035e5780638da5cb5b1461037157600080fd5b8063715018a6116101b6578063715018a61461029657806374987060146102ab5780637a35aaa9146102cf57806380a43d70146102ef57600080fd5b80633f4ba83a1461020c57806354fd4d50146102215780635c975abb1461024c5780636247f6f21461027657600080fd5b3661020757604051631574f9f360e01b815260040160405180910390fd5b005b600080fd5b34801561021857600080fd5b506102056105c7565b34801561022d57600080fd5b506102366105db565b60405161024391906138e3565b60405180910390f35b34801561025857600080fd5b506008546102669060ff1681565b6040519015158152602001610243565b34801561028257600080fd5b50610205610291366004613914565b61067e565b3480156102a257600080fd5b50610205610733565b3480156102b757600080fd5b506102c160045481565b604051908152602001610243565b3480156102db57600080fd5b506102056102ea366004613914565b610747565b3480156102fb57600080fd5b5061030f61030a3660046139e4565b610771565b6040516102439190613adb565b34801561032857600080fd5b50610205610a3b565b34801561033d57600080fd5b5061035161034c3660046139e4565b610a75565b6040516102439190613ca3565b61026661036c366004613e2c565b610f82565b34801561037d57600080fd5b506000546001600160a01b03165b6040516001600160a01b039091168152602001610243565b3480156103af57600080fd5b506102c160035481565b6102666103c7366004613e2c565b611031565b3480156103d857600080fd5b506102366110d0565b3480156103ed57600080fd5b506102056103fc366004613e97565b61115e565b34801561040d57600080fd5b5061020561041c36600461401f565b61116b565b34801561042d57600080fd5b5061030f61043c3660046139e4565b6111a9565b34801561044d57600080fd5b5061026661045c366004613914565b611499565b34801561046d57600080fd5b5061020561047c36600461417c565b611502565b34801561048d57600080fd5b5061020561049c366004613e97565b611899565b3480156104ad57600080fd5b5060015461038b906001600160a01b031681565b3480156104cd57600080fd5b506102056104dc3660046139e4565b6118a6565b6102056104ef366004614296565b611a97565b34801561050057600080fd5b50610509611ad6565b60405161024391906143a6565b34801561052257600080fd5b506000610266565b34801561053657600080fd5b50610205610545366004613914565b611baf565b34801561055657600080fd5b50610509611d10565b34801561056b57600080fd5b50610574611de0565b6040516102439190614408565b61026661058f36600461441b565b611e42565b6102666105a236600461441b565b611e5e565b3480156105b357600080fd5b506102056105c2366004613914565b611e72565b6105cf611eeb565b6008805460ff19169055565b60606106067f0000000000000000000000000000000000000000000000000000000000000000611f45565b61062f7f0000000000000000000000000000000000000000000000000000000000000000611f45565b6106587f0000000000000000000000000000000000000000000000000000000000000000611f45565b60405160200161066a93929190614456565b604051602081830303815290604052905090565b610686611eeb565b61068f81611499565b156106e15760405162461bcd60e51b815260206004820152601960248201527f546f6b656e20616c72656164792077686974656c69737465640000000000000060448201526064015b60405180910390fd5b600580546001810182556000919091527f036b6384b5eca791c62761152d0c79bb0604c104a5fb6f4eb0703f3154bb3db00180546001600160a01b0319166001600160a01b0392909216919091179055565b61073b611eeb565b6107456000611fd7565b565b61074f611eeb565b600180546001600160a01b0319166001600160a01b0392909216919091179055565b61079560405180606001604052806060815260200160608152602001606081525090565b6009826040516107a591906144b0565b9081526040805191829003602090810183208054608092810285018301909352606084018381529092849284919060009085015b828210156108855783829060005260206000200180546107f8906144cc565b80601f0160208091040260200160405190810160405280929190818152602001828054610824906144cc565b80156108715780601f1061084657610100808354040283529160200191610871565b820191906000526020600020905b81548152906001019060200180831161085457829003601f168201915b5050505050815260200190600101906107d9565b5050505081526020016001820180548060200260200160405190810160405280929190818152602001828054801561090c57602002820191906000526020600020906000905b82829054906101000a900460ff1660028111156108ea576108ea613a70565b8152602060019283018181049485019490930390920291018084116108cb5790505b5050505050815260200160028201805480602002602001604051908101604052809291908181526020016000905b82821015610a2d57838290600052602060002001805480602002602001604051908101604052809291908181526020016000905b82821015610a1a57838290600052602060002001805461098d906144cc565b80601f01602080910402602001604051908101604052809291908181526020018280546109b9906144cc565b8015610a065780601f106109db57610100808354040283529160200191610a06565b820191906000526020600020905b8154815290600101906020018083116109e957829003601f168201915b50505050508152602001906001019061096e565b505050508152602001906001019061093a565b505050915250909392505050565b610a43611eeb565b60085460ff1615610a665760405162461bcd60e51b81526004016106d890614506565b6008805460ff19166001179055565b610aed60405180610180016040528060006001600160a01b0316815260200160608152602001606081526020016060815260200160608152602001600081526020016060815260200160001515815260200160006001600160a01b031681526020016000815260200160608152602001606081525090565b600282604051610afd91906144b0565b9081526040805191829003602090810183206101808401835280546001600160a01b03168452600181018054845181850281018501909552808552919385840193909290830182828015610b7a57602002820191906000526020600020905b81546001600160a01b03168152600190910190602001808311610b5c575b5050505050815260200160028201805480602002602001604051908101604052809291908181526020018280548015610bd257602002820191906000526020600020905b815481526020019060010190808311610bbe575b5050505050815260200160038201805480602002602001604051908101604052809291908181526020016000905b82821015610cac578382906000526020600020018054610c1f906144cc565b80601f0160208091040260200160405190810160405280929190818152602001828054610c4b906144cc565b8015610c985780601f10610c6d57610100808354040283529160200191610c98565b820191906000526020600020905b815481529060010190602001808311610c7b57829003601f168201915b505050505081526020019060010190610c00565b505050508152602001600482018054610cc4906144cc565b80601f0160208091040260200160405190810160405280929190818152602001828054610cf0906144cc565b8015610d3d5780601f10610d1257610100808354040283529160200191610d3d565b820191906000526020600020905b815481529060010190602001808311610d2057829003601f168201915b505050505081526020016005820154815260200160068201805480602002602001604051908101604052809291908181526020016000905b82821015610e1e576000848152602090819020604080516080810182526004860290920180546001600160a01b0316835260018101548385015260028101548383015260038101805483518187028101870190945280845293949193606086019392830182828015610e0657602002820191906000526020600020905b815481526020019060010190808311610df2575b50505050508152505081526020019060010190610d75565b50505090825250600782015460ff81161515602083015261010090046001600160a01b0316604082015260088201546060820152600982018054608090920191610e67906144cc565b80601f0160208091040260200160405190810160405280929190818152602001828054610e93906144cc565b8015610ee05780601f10610eb557610100808354040283529160200191610ee0565b820191906000526020600020905b815481529060010190602001808311610ec357829003601f168201915b50505050508152602001600a82018054610ef9906144cc565b80601f0160208091040260200160405190810160405280929190818152602001828054610f25906144cc565b8015610f725780601f10610f4757610100808354040283529160200191610f72565b820191906000526020600020905b815481529060010190602001808311610f5557829003601f168201915b5050505050815250509050919050565b6000610f8c612027565b833460005b82811015611021576000868683818110610fad57610fad614532565b90506020020135905082811115610fd75760405163044044a560e21b815260040160405180910390fd5b611004898984818110610fec57610fec614532565b9050602002810190610ffe9190614548565b82612070565b611015576000945050505050611029565b90910390600101610f91565b506001925050505b949350505050565b600061103b612027565b833460005b8281101561102157600086868381811061105c5761105c614532565b905060200201359050828111156110865760405163044044a560e21b815260040160405180910390fd5b6110b389898481811061109b5761109b614532565b90506020028101906110ad9190614548565b82612079565b6110c4576000945050505050611029565b90910390600101611040565b600780546110dd906144cc565b80601f0160208091040260200160405190810160405280929190818152602001828054611109906144cc565b80156111565780601f1061112b57610100808354040283529160200191611156565b820191906000526020600020905b81548152906001019060200180831161113957829003601f168201915b505050505081565b611166611eeb565b600455565b60085460ff161561118e5760405162461bcd60e51b81526004016106d890614506565b6111a186868686866000876000806120da565b505050505050565b6111cd60405180606001604052806060815260200160608152602001606081525090565b60006002836040516111df91906144b0565b90815260200160405180910390209050600981600901604051611202919061455f565b9081526040805191829003602090810183208054608092810285018301909352606084018381529092849284919060009085015b828210156112e2578382906000526020600020018054611255906144cc565b80601f0160208091040260200160405190810160405280929190818152602001828054611281906144cc565b80156112ce5780601f106112a3576101008083540402835291602001916112ce565b820191906000526020600020905b8154815290600101906020018083116112b157829003601f168201915b505050505081526020019060010190611236565b5050505081526020016001820180548060200260200160405190810160405280929190818152602001828054801561136957602002820191906000526020600020906000905b82829054906101000a900460ff16600281111561134757611347613a70565b8152602060019283018181049485019490930390920291018084116113285790505b5050505050815260200160028201805480602002602001604051908101604052809291908181526020016000905b8282101561148a57838290600052602060002001805480602002602001604051908101604052809291908181526020016000905b828210156114775783829060005260206000200180546113ea906144cc565b80601f0160208091040260200160405190810160405280929190818152602001828054611416906144cc565b80156114635780601f1061143857610100808354040283529160200191611463565b820191906000526020600020905b81548152906001019060200180831161144657829003601f168201915b5050505050815260200190600101906113cb565b5050505081526020019060010190611397565b50505091525090949350505050565b6000805b6005548110156114f957826001600160a01b0316600582815481106114c4576114c4614532565b6000918252602090912001546001600160a01b0316036114e75750600192915050565b806114f1816145eb565b91505061149d565b50600092915050565b60085460ff16156115255760405162461bcd60e51b81526004016106d890614506565b60008451116115825760405162461bcd60e51b8152602060048201526024808201527f4465726573793a204e616d652063616e6e6f74206265206e756c6c206f7220656044820152636d70747960e01b60648201526084016106d8565b60098460405161159291906144b0565b90815260405190819003602001902054156115fd5760405162461bcd60e51b815260206004820152602560248201527f4465726573793a20526576696577466f726d4e616d6520616c72656164792065604482015264786973747360d81b60648201526084016106d8565b600083511161164e5760405162461bcd60e51b815260206004820152601f60248201527f4465726573793a205175657374696f6e732063616e2774206265206e756c6c0060448201526064016106d8565b60008151116116ab5760405162461bcd60e51b8152602060048201526024808201527f4465726573793a205175657374696f6e2054797065732063616e2774206265206044820152631b9d5b1b60e21b60648201526084016106d8565b825181511461171a5760405162461bcd60e51b815260206004820152603560248201527f4465726573793a205175657374696f6e7320616e64207479706573206d757374604482015274040d0c2ecca40e8d0ca40e6c2daca40d8cadccee8d605b1b60648201526084016106d8565b81518351146117915760405162461bcd60e51b815260206004820152603760248201527f4465726573793a205175657374696f6e7320616e642063686f69636573206d7560448201527f73742068617665207468652073616d65206c656e67746800000000000000000060648201526084016106d8565b6040518060600160405280848152602001828152602001838152506009856040516117bc91906144b0565b908152602001604051809103902060008201518160000190805190602001906117e69291906135fd565b5060208281015180516117ff9260018501920190613653565b506040820151805161181b916002840191602090910190613703565b5050600a80546001810182556000919091527fc65a7bb8d6351c1cf70c95a316cc6a92839c986682d98bc35f958f4883f9d2a801905061185b858261464f565b507fcb1290a8b5a51fbd31ad1afbab070c3ca5be2b36c9b3e3eaad9f1187d5d6e6278460405161188b91906138e3565b60405180910390a150505050565b6118a1611eeb565b600355565b6002816040516118b691906144b0565b90815260405190819003602001902054336001600160a01b039091161461191f5760405162461bcd60e51b815260206004820152601d60248201527f4465726573793a204974206973206e6f74207468652073706f6e736f7200000060448201526064016106d8565b60028160405161192f91906144b0565b9081526040519081900360200190206007015460ff161561198b5760405162461bcd60e51b815260206004820152601660248201527511195c995cde4e881c995c5d595cdd0818db1bdcd95960521b60448201526064016106d8565b60028160405161199b91906144b0565b908152604051908190036020018120546001600160a01b0316906108fc906002906119c79085906144b0565b90815260405190819003602001812060080154801590920291906000818181858888f19350505050158015611a00573d6000803e3d6000fd5b506001600282604051611a1391906144b0565b908152604051908190036020018120600701805492151560ff1990931692909217909155600090600290611a489084906144b0565b9081526020016040518091039020600801819055507fbc5c8cb2024ed254e024e37b09895ecaa07948dd0fd7a08e30b80f559888f2cf81604051611a8c91906138e3565b60405180910390a150565b60085460ff1615611aba5760405162461bcd60e51b81526004016106d890614506565b611acc888888888888878960016120da565b5050505050505050565b6060600a805480602002602001604051908101604052809291908181526020016000905b82821015611ba6578382906000526020600020018054611b19906144cc565b80601f0160208091040260200160405190810160405280929190818152602001828054611b45906144cc565b8015611b925780601f10611b6757610100808354040283529160200191611b92565b820191906000526020600020905b815481529060010190602001808311611b7557829003601f168201915b505050505081526020019060010190611afa565b50505050905090565b611bb7611eeb565b611bc081611499565b611c055760405162461bcd60e51b8152602060048201526016602482015275151bdad95b881b9bdd081a5b881dda1a5d195b1a5cdd60521b60448201526064016106d8565b60005b600554811015611d0c57816001600160a01b031660058281548110611c2f57611c2f614532565b6000918252602090912001546001600160a01b031603611cfa5760058054611c599060019061470e565b81548110611c6957611c69614532565b600091825260209091200154600580546001600160a01b039092169183908110611c9557611c95614532565b9060005260206000200160006101000a8154816001600160a01b0302191690836001600160a01b031602179055506005805480611cd457611cd4614721565b600082815260209020810160001990810180546001600160a01b03191690550190555050565b80611d04816145eb565b915050611c08565b5050565b60606006805480602002602001604051908101604052809291908181526020016000905b82821015611ba6578382906000526020600020018054611d53906144cc565b80601f0160208091040260200160405190810160405280929190818152602001828054611d7f906144cc565b8015611dcc5780601f10611da157610100808354040283529160200191611dcc565b820191906000526020600020905b815481529060010190602001808311611daf57829003601f168201915b505050505081526020019060010190611d34565b60606005805480602002602001604051908101604052809291908181526020018280548015611e3857602002820191906000526020600020905b81546001600160a01b03168152600190910190602001808311611e1a575b5050505050905090565b6000611e4c612027565b611e568234612070565b90505b919050565b6000611e68612027565b611e568234612079565b611e7a611eeb565b6001600160a01b038116611edf5760405162461bcd60e51b815260206004820152602660248201527f4f776e61626c653a206e6577206f776e657220697320746865207a65726f206160448201526564647265737360d01b60648201526084016106d8565b611ee881611fd7565b50565b6000546001600160a01b031633146107455760405162461bcd60e51b815260206004820181905260248201527f4f776e61626c653a2063616c6c6572206973206e6f7420746865206f776e657260448201526064016106d8565b60606000611f5283612983565b60010190506000816001600160401b03811115611f7157611f7161392f565b6040519080825280601f01601f191660200182016040528015611f9b576020820181803683370190505b5090508181016020015b600019016f181899199a1a9b1b9c1cb0b131b232b360811b600a86061a8153600a8504945084611fa557509392505050565b600080546001600160a01b038381166001600160a01b0319831681178455604051919092169283917f8be0079c531659141344cd1fd0a4f28419497f9722a3daafe3b4186f6b6457e09190a35050565b336001600160a01b037f0000000000000000000000000000000000000000000000000000000000000000161461074557604051634ca8886760e01b815260040160405180910390fd5b60015b92915050565b60085460009060ff161561209f5760405162461bcd60e51b81526004016106d890614506565b6003548360200135036120bc576120b583612a5b565b9050612073565b6004548360200135036120d2576120b583612ebe565b506000612073565b600089511161213f5760405162461bcd60e51b815260206004820152602b60248201527f4465726573793a20526571756573744e616d652063616e6e6f74206265206e7560448201526a6c6c206f7220656d70747960a81b60648201526084016106d8565b60008851116121905760405162461bcd60e51b815260206004820181905260248201527f4465726573793a205265766965776572732063616e6e6f74206265206e756c6c60448201526064016106d8565b60008751116121ed5760405162461bcd60e51b8152602060048201526024808201527f4465726573793a20487970657263657274204944732063616e6e6f74206265206044820152631b9d5b1b60e21b60648201526084016106d8565b60008651116122545760405162461bcd60e51b815260206004820152602d60248201527f4465726573793a2048797065726365727473204950465320686173686573206360448201526c185b9b9bdd081899481b9d5b1b609a1b60648201526084016106d8565b85518751146122e05760405162461bcd60e51b815260206004820152604c60248201527f4465726573793a2048797065726365727449447320616e64204879706572636560448201527f727449504653486173686573206172726179206d75737420686176652074686560648201526b040e6c2daca40d8cadccee8d60a31b608482015260a4016106d8565b60006009846040516122f291906144b0565b908152604051908190036020019020541161235d5760405162461bcd60e51b815260206004820152602560248201527f4465726573793a20526576696577466f726d4e616d6520646f6573206e6f7420604482015264195e1a5cdd60da1b60648201526084016106d8565b60006001600160a01b031660028a60405161237891906144b0565b908152604051908190036020019020546001600160a01b0316146123de5760405162461bcd60e51b815260206004820152601760248201527f4465726573793a204e616d65206475706c69636174656400000000000000000060448201526064016106d8565b6123e782611499565b6124335760405162461bcd60e51b815260206004820181905260248201527f4465726573793a20546f6b656e206973206e6f742077686974656c697374656460448201526064016106d8565b6000811561266e57600085116124bf5760405162461bcd60e51b815260206004820152604560248201527f4465726573793a20726577617264506572526576696577206d7573742062652060448201527f67726561746572207468616e207a65726f20666f722070617961626c652072656064820152641c5d595cdd60da1b608482015260a4016106d8565b6001600160a01b03831661253c578488518a516124dc9190614737565b6124e69190614737565b3410156125355760405162461bcd60e51b815260206004820152601960248201527f4465726573793a206d73672e76616c756520696e76616c69640000000000000060448201526064016106d8565b50346126e2565b341561258a5760405162461bcd60e51b815260206004820152601c60248201527f4465726573793a206d73672e76616c756520697320696e76616c69640000000060448201526064016106d8565b8488518a516125999190614737565b6125a39190614737565b6040516323b872dd60e01b8152336004820152306024820152604481018290529091506001600160a01b038416906323b872dd906064016020604051808303816000875af11580156125f9573d6000803e3d6000fd5b505050506040513d601f19601f8201168201806040525081019061261d919061475c565b6126695760405162461bcd60e51b815260206004820152601d60248201527f4465726573793a20546f6b656e207472616e73666572206661696c656400000060448201526064016106d8565b6126e2565b84156126e25760405162461bcd60e51b815260206004820152603c60248201527f4465726573793a20726577617264506572526576696577206d7573742062652060448201527f7a65726f20666f72206e6f6e2d70617961626c6520726571756573740000000060648201526084016106d8565b3360028b6040516126f391906144b0565b90815260405190819003602001812080546001600160a01b03939093166001600160a01b0319909316929092179091558990600290612733908d906144b0565b9081526020016040518091039020600101908051906020019061275792919061375c565b508760028b60405161276991906144b0565b9081526020016040518091039020600201908051906020019061278d9291906137b1565b508660028b60405161279f91906144b0565b908152602001604051809103902060030190805190602001906127c39291906135fd565b508560028b6040516127d591906144b0565b908152602001604051809103902060040190816127f2919061464f565b50816127ff576000612801565b845b60028b60405161281191906144b0565b908152602001604051809103902060050181905550600060028b60405161283891906144b0565b908152604051908190036020018120600701805492151560ff1990931692909217909155839060029061286c908d906144b0565b908152602001604051809103902060070160016101000a8154816001600160a01b0302191690836001600160a01b03160217905550816128ad5760006128af565b805b60028b6040516128bf91906144b0565b9081526020016040518091039020600801819055508360028b6040516128e591906144b0565b90815260200160405180910390206009019081612902919061464f565b50600680546001810182556000919091527ff652222313e28459528d920b65115c16c04f3efc82aaedc97be59f3f377c0d3f0161293f8b8261464f565b507f0448feabbf5bb385eb3ea2cb16d90b1cb3b4c8936e399cf7a10e7b8946eec6678a60405161296f91906138e3565b60405180910390a150505050505050505050565b60008072184f03e93ff9f4daa797ed6e38ed64bf6a1f0160401b83106129c25772184f03e93ff9f4daa797ed6e38ed64bf6a1f0160401b830492506040015b6d04ee2d6d415b85acef810000000083106129ee576d04ee2d6d415b85acef8100000000830492506020015b662386f26fc100008310612a0c57662386f26fc10000830492506010015b6305f5e1008310612a24576305f5e100830492506008015b6127108310612a3857612710830492506004015b60648310612a4a576064830492506002015b600a83106120735760010192915050565b6000808080612a6e610120860186614779565b810190612a7b91906147bf565b50509250925092506000600284604051612a9591906144b0565b908152602001604051809103902090506000600982600901604051612aba919061455f565b90815260405190819003602001902090506000612ade610100890160e08a01613914565b600784015490915088359060009060ff16158015612b535750612b5385600201805480602002602001604051908101604052809291908181526020018280548015612b4857602002820191906000526020600020905b815481526020019060010190808311612b34575b505050505088613129565b8015612b60575085518454145b8015612b715750612b71838961317c565b8015612b835750612b83838989613220565b8015612b945750612b94848761331a565b90508015612eb157846006016040518060800160405280856001600160a01b0316815260200189815260200184815260200160006001600160401b03811115612bdf57612bdf61392f565b604051908082528060200260200182016040528015612c08578160200160208202803683370190505b5090528154600180820184556000938452602093849020835160049093020180546001600160a01b0319166001600160a01b039093169290921782558284015190820155604082015160028201556060820151805192939192612c7192600385019201906137b1565b505050600585015415612db8578460050154856008016000828254612c96919061470e565b9091555050600785015461010090046001600160a01b0316612cf15760058501546040516001600160a01b0385169180156108fc02916000818181858888f19350505050158015612ceb573d6000803e3d6000fd5b50612db8565b6007850154600586015460405163a9059cbb60e01b81526001600160a01b0386811660048301526024820192909252610100909204169063a9059cbb906044016020604051808303816000875af1158015612d50573d6000803e3d6000fd5b505050506040513d601f19601f82011682018060405250810190612d74919061475c565b612db85760405162461bcd60e51b8152602060048201526015602482015274151bdad95b881d1c985b9cd9995c8819985a5b1959605a1b60448201526064016106d8565b6001546001600160a01b031615612e795760015460405163bb69ab3360e01b81526001600160a01b039091169063bb69ab3390612dfb908d908c90600401614905565b6020604051808303816000875af1158015612e1a573d6000803e3d6000fd5b505050506040513d601f19601f82011682018060405250810190612e3e919061475c565b507f253a8677adaec417dae20224e9f7eb1182aed5a01b1938114cb310cd5c5d954d8a89604051612e70929190614905565b60405180910390a15b7f4d6dd501df538f815f442947c933fc2f545525e75f909b918a6d0701acc7904c88604051612ea891906138e3565b60405180910390a15b9998505050505050505050565b6000808080612ed1610120860186614779565b810190612ede9190614a22565b50509250925092506000600284604051612ef891906144b0565b90815260405190819003602001902060068101549091501561311d5760005b600682015481101561311b578660a00135826006018281548110612f3d57612f3d614532565b906000526020600020906004020160020154148015612fa25750612f68610100880160e08901613914565b6001600160a01b0316826006018281548110612f8657612f86614532565b60009182526020909120600490910201546001600160a01b0316145b8015612faf575060008351115b8015612fe0575083826006018281548110612fcc57612fcc614532565b906000526020600020906004020160010154145b15613109576000805b836006018381548110612ffe57612ffe614532565b90600052602060002090600402016003018054905081101561308157886000013584600601848154811061303457613034614532565b9060005260206000209060040201600301828154811061305657613056614532565b90600052602060002001540361306f5760019150613081565b80613079816145eb565b915050612fe9565b50806131075782600601828154811061309c5761309c614532565b600091825260208083206004929092029091016003018054600181018255908352918190208a3592018290556040519182527fee28e94ac55844f79e4a8805659e8f6ded6bfe24b7ebe0570deb71c158ec9433910160405180910390a1506001979650505050505050565b505b80613113816145eb565b915050612f17565b505b50600095945050505050565b6000805b8351811015613172578284828151811061314957613149614532565b602002602001015103613160576001915050612073565b8061316a816145eb565b91505061312d565b5060009392505050565b600080805b60028460405161319191906144b0565b9081526040519081900360200190206001015481101561321857846001600160a01b03166002856040516131c591906144b0565b908152602001604051809103902060010182815481106131e7576131e7614532565b6000918252602090912001546001600160a01b03160361320657600191505b80613210816145eb565b915050613181565b509392505050565b60006001815b60028560405161323691906144b0565b90815260405190819003602001902060060154811015613311578360028660405161326191906144b0565b9081526020016040518091039020600601828154811061328357613283614532565b9060005260206000209060040201600101541480156132f55750856001600160a01b03166002866040516132b791906144b0565b908152602001604051809103902060060182815481106132d9576132d9614532565b60009182526020909120600490910201546001600160a01b0316145b156132ff57600091505b80613309816145eb565b915050613226565b50949350505050565b6000805b82518110156135f357600284600101828154811061333e5761333e614532565b90600052602060002090602091828204019190069054906101000a900460ff16600281111561336f5761336f613a70565b03613477576000805b85600201838154811061338d5761338d614532565b600091825260209091200154811015613460578483815181106133b2576133b2614532565b60200260200101516040516020016133ca91906144b0565b604051602081830303815290604052805190602001208660020184815481106133f5576133f5614532565b90600052602060002001828154811061341057613410614532565b9060005260206000200160405160200161342a919061455f565b604051602081830303815290604052805190602001200361344e5760019150613460565b80613458816145eb565b915050613378565b508061347157600092505050612073565b506135e1565b600184600101828154811061348e5761348e614532565b90600052602060002090602091828204019190069054906101000a900460ff1660028111156134bf576134bf613a70565b036135b5576040516259657360e81b6020820152602301604051602081830303815290604052805190602001208382815181106134fe576134fe614532565b602002602001015160405160200161351691906144b0565b60405160208183030381529060405280519060200120148061359c5750604051614e6f60f01b60208201526022016040516020818303038152906040528051906020012083828151811061356c5761356c614532565b602002602001015160405160200161358491906144b0565b60405160208183030381529060405280519060200120145b156135ab576001915050612073565b6000915050612073565b8281815181106135c7576135c7614532565b6020026020010151516000036135e1576000915050612073565b806135eb816145eb565b91505061331e565b5060019392505050565b828054828255906000526020600020908101928215613643579160200282015b828111156136435782518290613633908261464f565b509160200191906001019061361d565b5061364f9291506137ec565b5090565b82805482825590600052602060002090601f016020900481019282156136f75791602002820160005b838211156136c857835183826101000a81548160ff021916908360028111156136a7576136a7613a70565b0217905550926020019260010160208160000104928301926001030261367c565b80156136f55782816101000a81549060ff02191690556001016020816000010492830192600103026136c8565b505b5061364f929150613809565b828054828255906000526020600020908101928215613750579160200282015b8281111561375057825180516137409184916020909101906135fd565b5091602001919060010190613723565b5061364f92915061381e565b8280548282559060005260206000209081019282156136f7579160200282015b828111156136f757825182546001600160a01b0319166001600160a01b0390911617825560209092019160019091019061377c565b8280548282559060005260206000209081019282156136f7579160200282015b828111156136f75782518255916020019190600101906137d1565b8082111561364f576000613800828261383b565b506001016137ec565b5b8082111561364f576000815560010161380a565b8082111561364f5760006138328282613875565b5060010161381e565b508054613847906144cc565b6000825580601f10613857575050565b601f016020900490600052602060002090810190611ee89190613809565b5080546000825590600052602060002090810190611ee891906137ec565b60005b838110156138ae578181015183820152602001613896565b50506000910152565b600081518084526138cf816020860160208601613893565b601f01601f19169290920160200192915050565b6020815260006138f660208301846138b7565b9392505050565b80356001600160a01b0381168114611e5957600080fd5b60006020828403121561392657600080fd5b6138f6826138fd565b634e487b7160e01b600052604160045260246000fd5b604051601f8201601f191681016001600160401b038111828210171561396d5761396d61392f565b604052919050565b600082601f83011261398657600080fd5b81356001600160401b0381111561399f5761399f61392f565b6139b2601f8201601f1916602001613945565b8181528460208386010111156139c757600080fd5b816020850160208301376000918101602001919091529392505050565b6000602082840312156139f657600080fd5b81356001600160401b03811115613a0c57600080fd5b61102984828501613975565b600082825180855260208086019550808260051b84010181860160005b84811015613a6357601f19868403018952613a518383516138b7565b98840198925090830190600101613a35565b5090979650505050505050565b634e487b7160e01b600052602160045260246000fd5b600081518084526020808501808196508360051b8101915082860160005b85811015613ace578284038952613abc848351613a18565b98850198935090840190600101613aa4565b5091979650505050505050565b600060208083528351606082850152613af76080850182613a18565b82860151601f198683038101604088015281518084529185019350600092909190850190835b81811015613b5557855160038110613b4357634e487b7160e01b86526021600452602486fd5b83529486019491860191600101613b1d565b50506040880151945081878203016060880152613b728186613a86565b98975050505050505050565b600081518084526020808501945080840160005b83811015613bb75781516001600160a01b031687529582019590820190600101613b92565b509495945050505050565b600081518084526020808501945080840160005b83811015613bb757815187529582019590820190600101613bd6565b600081518084526020808501808196508360051b810191508286016000805b86811015613c95578385038a52825180516001600160a01b031686528681015187870152604080820151908701526060908101516080918701829052805191870182905287019060a087019084905b80821015613c805783518352928901929189019160019190910190613c60565b50509a87019a95505091850191600101613c11565b509298975050505050505050565b60208152613cbd6020820183516001600160a01b03169052565b60006020830151610180806040850152613cdb6101a0850183613b7e565b91506040850151601f1980868503016060870152613cf98483613bc2565b93506060870151915080868503016080870152613d168483613a18565b935060808701519150808685030160a0870152613d3384836138b7565b935060a087015160c087015260c08701519150808685030160e0870152613d5a8483613bf2565b935060e08701519150610100613d738188018415159052565b8701519150610120613d8f878201846001600160a01b03169052565b80880151925050610140828188015280880151925050610160818786030181880152613dbb85846138b7565b908801518782039092018488015293509050613dd783826138b7565b9695505050505050565b60008083601f840112613df357600080fd5b5081356001600160401b03811115613e0a57600080fd5b6020830191508360208260051b8501011115613e2557600080fd5b9250929050565b60008060008060408587031215613e4257600080fd5b84356001600160401b0380821115613e5957600080fd5b613e6588838901613de1565b90965094506020870135915080821115613e7e57600080fd5b50613e8b87828801613de1565b95989497509550505050565b600060208284031215613ea957600080fd5b5035919050565b60006001600160401b03821115613ec957613ec961392f565b5060051b60200190565b600082601f830112613ee457600080fd5b81356020613ef9613ef483613eb0565b613945565b82815260059290921b84018101918181019086841115613f1857600080fd5b8286015b84811015613f3a57613f2d816138fd565b8352918301918301613f1c565b509695505050505050565b600082601f830112613f5657600080fd5b81356020613f66613ef483613eb0565b82815260059290921b84018101918181019086841115613f8557600080fd5b8286015b84811015613f3a5780358352918301918301613f89565b600082601f830112613fb157600080fd5b81356020613fc1613ef483613eb0565b82815260059290921b84018101918181019086841115613fe057600080fd5b8286015b84811015613f3a5780356001600160401b038111156140035760008081fd5b6140118986838b0101613975565b845250918301918301613fe4565b60008060008060008060c0878903121561403857600080fd5b86356001600160401b038082111561404f57600080fd5b61405b8a838b01613975565b9750602089013591508082111561407157600080fd5b61407d8a838b01613ed3565b9650604089013591508082111561409357600080fd5b61409f8a838b01613f45565b955060608901359150808211156140b557600080fd5b6140c18a838b01613fa0565b945060808901359150808211156140d757600080fd5b6140e38a838b01613975565b935060a08901359150808211156140f957600080fd5b5061410689828a01613975565b9150509295509295509295565b600082601f83011261412457600080fd5b81356020614134613ef483613eb0565b82815260059290921b8401810191818101908684111561415357600080fd5b8286015b84811015613f3a5780356003811061416f5760008081fd5b8352918301918301614157565b6000806000806080858703121561419257600080fd5b84356001600160401b03808211156141a957600080fd5b6141b588838901613975565b95506020915081870135818111156141cc57600080fd5b6141d889828a01613fa0565b9550506040870135818111156141ed57600080fd5b8701601f810189136141fe57600080fd5b803561420c613ef482613eb0565b81815260059190911b8201840190848101908b83111561422b57600080fd5b8584015b83811015614263578035868111156142475760008081fd5b6142558e8983890101613fa0565b84525091860191860161422f565b509650505050606087013591508082111561427d57600080fd5b5061428a87828801614113565b91505092959194509250565b600080600080600080600080610100898b0312156142b357600080fd5b88356001600160401b03808211156142ca57600080fd5b6142d68c838d01613975565b995060208b01359150808211156142ec57600080fd5b6142f88c838d01613ed3565b985060408b013591508082111561430e57600080fd5b61431a8c838d01613f45565b975060608b013591508082111561433057600080fd5b61433c8c838d01613fa0565b965060808b013591508082111561435257600080fd5b61435e8c838d01613975565b955060a08b0135945061437360c08c016138fd565b935060e08b013591508082111561438957600080fd5b506143968b828c01613975565b9150509295985092959890939650565b6000602080830181845280855180835260408601915060408160051b870101925083870160005b828110156143fb57603f198886030184526143e98583516138b7565b945092850192908501906001016143cd565b5092979650505050505050565b6020815260006138f66020830184613b7e565b60006020828403121561442d57600080fd5b81356001600160401b0381111561444357600080fd5b820161014081850312156138f657600080fd5b60008451614468818460208901613893565b8083019050601760f91b8082528551614488816001850160208a01613893565b600192019182015283516144a3816002840160208801613893565b0160020195945050505050565b600082516144c2818460208701613893565b9190910192915050565b600181811c908216806144e057607f821691505b60208210810361450057634e487b7160e01b600052602260045260246000fd5b50919050565b60208082526012908201527110dbdb9d1c9858dd081a5cc81c185d5cd95960721b604082015260600190565b634e487b7160e01b600052603260045260246000fd5b6000823561013e198336030181126144c257600080fd5b600080835461456d816144cc565b60018281168015614585576001811461459a576145c9565b60ff19841687528215158302870194506145c9565b8760005260208060002060005b858110156145c05781548a8201529084019082016145a7565b50505082870194505b50929695505050505050565b634e487b7160e01b600052601160045260246000fd5b6000600182016145fd576145fd6145d5565b5060010190565b601f82111561464a57600081815260208120601f850160051c8101602086101561462b5750805b601f850160051c820191505b818110156111a157828155600101614637565b505050565b81516001600160401b038111156146685761466861392f565b61467c8161467684546144cc565b84614604565b602080601f8311600181146146b157600084156146995750858301515b600019600386901b1c1916600185901b1785556111a1565b600085815260208120601f198616915b828110156146e0578886015182559484019460019091019084016146c1565b50858210156146fe5787850151600019600388901b60f8161c191681555b5050505050600190811b01905550565b81810381811115612073576120736145d5565b634e487b7160e01b600052603160045260246000fd5b8082028115828204841417612073576120736145d5565b8015158114611ee857600080fd5b60006020828403121561476e57600080fd5b81516138f68161474e565b6000808335601e1984360301811261479057600080fd5b8301803591506001600160401b038211156147aa57600080fd5b602001915036819003821315613e2557600080fd5b600080600080600060a086880312156147d757600080fd5b85356001600160401b03808211156147ee57600080fd5b6147fa89838a01613975565b965060208801359550604088013591508082111561481757600080fd5b61482389838a01613fa0565b9450606088013591508082111561483957600080fd5b61484589838a01613975565b9350608088013591508082111561485b57600080fd5b5061486888828901613fa0565b9150509295509295909350565b80356001600160401b0381168114611e5957600080fd5b8035611e598161474e565b6000808335601e198436030181126148ae57600080fd5b83016020810192503590506001600160401b038111156148cd57600080fd5b803603821315613e2557600080fd5b81835281816020850137506000828201602090810191909152601f909101601f19169091010190565b604081528235604082015260208301356060820152600061492860408501614875565b6001600160401b0316608083015261494260608501614875565b6001600160401b031660a083015261495c60808501614875565b6001600160401b03811660c08401525060a084013560e083015261498260c085016138fd565b610100614999818501836001600160a01b03169052565b6149a560e087016138fd565b91506101206149be818601846001600160a01b03169052565b6149c982880161488c565b925061014091506149dd8286018415159052565b6149e981880188614897565b9350905081610160860152614a03610180860184836148dc565b925050508281036020840152614a1981856138b7565b95945050505050565b600080600080600060a08688031215614a3a57600080fd5b85356001600160401b0380821115614a5157600080fd5b614a5d89838a01613975565b9650602088013595506040880135915080821115614a7a57600080fd5b61482389838a0161397556fea26469706673582212200fd96906f5f2d7f9b4530d682f8cedd847a4c5018215eab61f020db4c34bc3bb64736f6c63430008130033",
			"opcodes": "PUSH2 0x140 PUSH1 0x40 MSTORE PUSH1 0x3 PUSH2 0x100 SWAP1 DUP2 MSTORE PUSH3 0x181719 PUSH1 0xE9 SHL PUSH2 0x120 MSTORE PUSH1 0x7 SWAP1 PUSH3 0x27 SWAP1 DUP3 PUSH3 0x1F0 JUMP JUMPDEST POP PUSH1 0x8 DUP1 SLOAD PUSH1 0xFF NOT AND PUSH1 0x1 OR SWAP1 SSTORE CALLVALUE DUP1 ISZERO PUSH3 0x42 JUMPI PUSH1 0x0 DUP1 REVERT JUMPDEST POP PUSH1 0x40 MLOAD PUSH3 0x4DE4 CODESIZE SUB DUP1 PUSH3 0x4DE4 DUP4 CODECOPY DUP2 ADD PUSH1 0x40 DUP2 SWAP1 MSTORE PUSH3 0x65 SWAP2 PUSH3 0x2BC JUMP JUMPDEST PUSH1 0x1 PUSH1 0x80 MSTORE PUSH1 0x0 PUSH1 0xA0 DUP2 SWAP1 MSTORE PUSH1 0xC0 MSTORE DUP1 PUSH1 0x1 PUSH1 0x1 PUSH1 0xA0 SHL SUB DUP2 AND PUSH3 0x9D JUMPI PUSH1 0x40 MLOAD PUSH4 0x41BC07FF PUSH1 0xE1 SHL DUP2 MSTORE PUSH1 0x4 ADD PUSH1 0x40 MLOAD DUP1 SWAP2 SUB SWAP1 REVERT JUMPDEST PUSH1 0x1 PUSH1 0x1 PUSH1 0xA0 SHL SUB AND PUSH1 0xE0 MSTORE PUSH3 0xB4 CALLER PUSH3 0xFB JUMP JUMPDEST POP PUSH1 0x5 DUP1 SLOAD PUSH1 0x1 DUP2 ADD DUP3 SSTORE PUSH1 0x0 SWAP2 SWAP1 SWAP2 MSTORE PUSH32 0x36B6384B5ECA791C62761152D0C79BB0604C104A5FB6F4EB0703F3154BB3DB0 ADD DUP1 SLOAD PUSH1 0x1 PUSH1 0x1 PUSH1 0xA0 SHL SUB NOT AND SWAP1 SSTORE PUSH3 0x2EE JUMP JUMPDEST PUSH1 0x0 DUP1 SLOAD PUSH1 0x1 PUSH1 0x1 PUSH1 0xA0 SHL SUB DUP4 DUP2 AND PUSH1 0x1 PUSH1 0x1 PUSH1 0xA0 SHL SUB NOT DUP4 AND DUP2 OR DUP5 SSTORE PUSH1 0x40 MLOAD SWAP2 SWAP1 SWAP3 AND SWAP3 DUP4 SWAP2 PUSH32 0x8BE0079C531659141344CD1FD0A4F28419497F9722A3DAAFE3B4186F6B6457E0 SWAP2 SWAP1 LOG3 POP POP JUMP JUMPDEST PUSH4 0x4E487B71 PUSH1 0xE0 SHL PUSH1 0x0 MSTORE PUSH1 0x41 PUSH1 0x4 MSTORE PUSH1 0x24 PUSH1 0x0 REVERT JUMPDEST PUSH1 0x1 DUP2 DUP2 SHR SWAP1 DUP3 AND DUP1 PUSH3 0x176 JUMPI PUSH1 0x7F DUP3 AND SWAP2 POP JUMPDEST PUSH1 0x20 DUP3 LT DUP2 SUB PUSH3 0x197 JUMPI PUSH4 0x4E487B71 PUSH1 0xE0 SHL PUSH1 0x0 MSTORE PUSH1 0x22 PUSH1 0x4 MSTORE PUSH1 0x24 PUSH1 0x0 REVERT JUMPDEST POP SWAP2 SWAP1 POP JUMP JUMPDEST PUSH1 0x1F DUP3 GT ISZERO PUSH3 0x1EB JUMPI PUSH1 0x0 DUP2 DUP2 MSTORE PUSH1 0x20 DUP2 KECCAK256 PUSH1 0x1F DUP6 ADD PUSH1 0x5 SHR DUP2 ADD PUSH1 0x20 DUP7 LT ISZERO PUSH3 0x1C6 JUMPI POP DUP1 JUMPDEST PUSH1 0x1F DUP6 ADD PUSH1 0x5 SHR DUP3 ADD SWAP2 POP JUMPDEST DUP2 DUP2 LT ISZERO PUSH3 0x1E7 JUMPI DUP3 DUP2 SSTORE PUSH1 0x1 ADD PUSH3 0x1D2 JUMP JUMPDEST POP POP POP JUMPDEST POP POP POP JUMP JUMPDEST DUP2 MLOAD PUSH1 0x1 PUSH1 0x1 PUSH1 0x40 SHL SUB DUP2 GT ISZERO PUSH3 0x20C JUMPI PUSH3 0x20C PUSH3 0x14B JUMP JUMPDEST PUSH3 0x224 DUP2 PUSH3 0x21D DUP5 SLOAD PUSH3 0x161 JUMP JUMPDEST DUP5 PUSH3 0x19D JUMP JUMPDEST PUSH1 0x20 DUP1 PUSH1 0x1F DUP4 GT PUSH1 0x1 DUP2 EQ PUSH3 0x25C JUMPI PUSH1 0x0 DUP5 ISZERO PUSH3 0x243 JUMPI POP DUP6 DUP4 ADD MLOAD JUMPDEST PUSH1 0x0 NOT PUSH1 0x3 DUP7 SWAP1 SHL SHR NOT AND PUSH1 0x1 DUP6 SWAP1 SHL OR DUP6 SSTORE PUSH3 0x1E7 JUMP JUMPDEST PUSH1 0x0 DUP6 DUP2 MSTORE PUSH1 0x20 DUP2 KECCAK256 PUSH1 0x1F NOT DUP7 AND SWAP2 JUMPDEST DUP3 DUP2 LT ISZERO PUSH3 0x28D JUMPI DUP9 DUP7 ADD MLOAD DUP3 SSTORE SWAP5 DUP5 ADD SWAP5 PUSH1 0x1 SWAP1 SWAP2 ADD SWAP1 DUP5 ADD PUSH3 0x26C JUMP JUMPDEST POP DUP6 DUP3 LT ISZERO PUSH3 0x2AC JUMPI DUP8 DUP6 ADD MLOAD PUSH1 0x0 NOT PUSH1 0x3 DUP9 SWAP1 SHL PUSH1 0xF8 AND SHR NOT AND DUP2 SSTORE JUMPDEST POP POP POP POP POP PUSH1 0x1 SWAP1 DUP2 SHL ADD SWAP1 SSTORE POP JUMP JUMPDEST PUSH1 0x0 PUSH1 0x20 DUP3 DUP5 SUB SLT ISZERO PUSH3 0x2CF JUMPI PUSH1 0x0 DUP1 REVERT JUMPDEST DUP2 MLOAD PUSH1 0x1 PUSH1 0x1 PUSH1 0xA0 SHL SUB DUP2 AND DUP2 EQ PUSH3 0x2E7 JUMPI PUSH1 0x0 DUP1 REVERT JUMPDEST SWAP4 SWAP3 POP POP POP JUMP JUMPDEST PUSH1 0x80 MLOAD PUSH1 0xA0 MLOAD PUSH1 0xC0 MLOAD PUSH1 0xE0 MLOAD PUSH2 0x4ABC PUSH3 0x328 PUSH1 0x0 CODECOPY PUSH1 0x0 PUSH2 0x2032 ADD MSTORE PUSH1 0x0 PUSH2 0x634 ADD MSTORE PUSH1 0x0 PUSH2 0x60B ADD MSTORE PUSH1 0x0 PUSH2 0x5E2 ADD MSTORE PUSH2 0x4ABC PUSH1 0x0 RETURN INVALID PUSH1 0x80 PUSH1 0x40 MSTORE PUSH1 0x4 CALLDATASIZE LT PUSH2 0x1E7 JUMPI PUSH1 0x0 CALLDATALOAD PUSH1 0xE0 SHR DUP1 PUSH4 0xB0089D83 GT PUSH2 0x102 JUMPI DUP1 PUSH4 0xC480FE48 GT PUSH2 0x95 JUMPI DUP1 PUSH4 0xE26F7900 GT PUSH2 0x64 JUMPI DUP1 PUSH4 0xE26F7900 EQ PUSH2 0x55F JUMPI DUP1 PUSH4 0xE49617E1 EQ PUSH2 0x581 JUMPI DUP1 PUSH4 0xE60C3505 EQ PUSH2 0x594 JUMPI DUP1 PUSH4 0xF2FDE38B EQ PUSH2 0x5A7 JUMPI PUSH1 0x0 DUP1 REVERT JUMPDEST DUP1 PUSH4 0xC480FE48 EQ PUSH2 0x4F4 JUMPI DUP1 PUSH4 0xCE46E046 EQ PUSH2 0x516 JUMPI DUP1 PUSH4 0xD627D25E EQ PUSH2 0x52A JUMPI DUP1 PUSH4 0xDD526054 EQ PUSH2 0x54A JUMPI PUSH1 0x0 DUP1 REVERT JUMPDEST DUP1 PUSH4 0xB8B23C17 GT PUSH2 0xD1 JUMPI DUP1 PUSH4 0xB8B23C17 EQ PUSH2 0x481 JUMPI DUP1 PUSH4 0xBD7E2AA4 EQ PUSH2 0x4A1 JUMPI DUP1 PUSH4 0xBE2761D0 EQ PUSH2 0x4C1 JUMPI DUP1 PUSH4 0xC3A7E3E2 EQ PUSH2 0x4E1 JUMPI PUSH1 0x0 DUP1 REVERT JUMPDEST DUP1 PUSH4 0xB0089D83 EQ PUSH2 0x401 JUMPI DUP1 PUSH4 0xB4E137CD EQ PUSH2 0x421 JUMPI DUP1 PUSH4 0xB5AF090F EQ PUSH2 0x441 JUMPI DUP1 PUSH4 0xB759DC72 EQ PUSH2 0x461 JUMPI PUSH1 0x0 DUP1 REVERT JUMPDEST DUP1 PUSH4 0x8456CB59 GT PUSH2 0x17A JUMPI DUP1 PUSH4 0x9128B0D8 GT PUSH2 0x149 JUMPI DUP1 PUSH4 0x9128B0D8 EQ PUSH2 0x3A3 JUMPI DUP1 PUSH4 0x91DB0B7E EQ PUSH2 0x3B9 JUMPI DUP1 PUSH4 0xA0A8E460 EQ PUSH2 0x3CC JUMPI DUP1 PUSH4 0xABE1D7F3 EQ PUSH2 0x3E1 JUMPI PUSH1 0x0 DUP1 REVERT JUMPDEST DUP1 PUSH4 0x8456CB59 EQ PUSH2 0x31C JUMPI DUP1 PUSH4 0x85B92413 EQ PUSH2 0x331 JUMPI DUP1 PUSH4 0x88E5B2D9 EQ PUSH2 0x35E JUMPI DUP1 PUSH4 0x8DA5CB5B EQ PUSH2 0x371 JUMPI PUSH1 0x0 DUP1 REVERT JUMPDEST DUP1 PUSH4 0x715018A6 GT PUSH2 0x1B6 JUMPI DUP1 PUSH4 0x715018A6 EQ PUSH2 0x296 JUMPI DUP1 PUSH4 0x74987060 EQ PUSH2 0x2AB JUMPI DUP1 PUSH4 0x7A35AAA9 EQ PUSH2 0x2CF JUMPI DUP1 PUSH4 0x80A43D70 EQ PUSH2 0x2EF JUMPI PUSH1 0x0 DUP1 REVERT JUMPDEST DUP1 PUSH4 0x3F4BA83A EQ PUSH2 0x20C JUMPI DUP1 PUSH4 0x54FD4D50 EQ PUSH2 0x221 JUMPI DUP1 PUSH4 0x5C975ABB EQ PUSH2 0x24C JUMPI DUP1 PUSH4 0x6247F6F2 EQ PUSH2 0x276 JUMPI PUSH1 0x0 DUP1 REVERT JUMPDEST CALLDATASIZE PUSH2 0x207 JUMPI PUSH1 0x40 MLOAD PUSH4 0x1574F9F3 PUSH1 0xE0 SHL DUP2 MSTORE PUSH1 0x4 ADD PUSH1 0x40 MLOAD DUP1 SWAP2 SUB SWAP1 REVERT JUMPDEST STOP JUMPDEST PUSH1 0x0 DUP1 REVERT JUMPDEST CALLVALUE DUP1 ISZERO PUSH2 0x218 JUMPI PUSH1 0x0 DUP1 REVERT JUMPDEST POP PUSH2 0x205 PUSH2 0x5C7 JUMP JUMPDEST CALLVALUE DUP1 ISZERO PUSH2 0x22D JUMPI PUSH1 0x0 DUP1 REVERT JUMPDEST POP PUSH2 0x236 PUSH2 0x5DB JUMP JUMPDEST PUSH1 0x40 MLOAD PUSH2 0x243 SWAP2 SWAP1 PUSH2 0x38E3 JUMP JUMPDEST PUSH1 0x40 MLOAD DUP1 SWAP2 SUB SWAP1 RETURN JUMPDEST CALLVALUE DUP1 ISZERO PUSH2 0x258 JUMPI PUSH1 0x0 DUP1 REVERT JUMPDEST POP PUSH1 0x8 SLOAD PUSH2 0x266 SWAP1 PUSH1 0xFF AND DUP2 JUMP JUMPDEST PUSH1 0x40 MLOAD SWAP1 ISZERO ISZERO DUP2 MSTORE PUSH1 0x20 ADD PUSH2 0x243 JUMP JUMPDEST CALLVALUE DUP1 ISZERO PUSH2 0x282 JUMPI PUSH1 0x0 DUP1 REVERT JUMPDEST POP PUSH2 0x205 PUSH2 0x291 CALLDATASIZE PUSH1 0x4 PUSH2 0x3914 JUMP JUMPDEST PUSH2 0x67E JUMP JUMPDEST CALLVALUE DUP1 ISZERO PUSH2 0x2A2 JUMPI PUSH1 0x0 DUP1 REVERT JUMPDEST POP PUSH2 0x205 PUSH2 0x733 JUMP JUMPDEST CALLVALUE DUP1 ISZERO PUSH2 0x2B7 JUMPI PUSH1 0x0 DUP1 REVERT JUMPDEST POP PUSH2 0x2C1 PUSH1 0x4 SLOAD DUP2 JUMP JUMPDEST PUSH1 0x40 MLOAD SWAP1 DUP2 MSTORE PUSH1 0x20 ADD PUSH2 0x243 JUMP JUMPDEST CALLVALUE DUP1 ISZERO PUSH2 0x2DB JUMPI PUSH1 0x0 DUP1 REVERT JUMPDEST POP PUSH2 0x205 PUSH2 0x2EA CALLDATASIZE PUSH1 0x4 PUSH2 0x3914 JUMP JUMPDEST PUSH2 0x747 JUMP JUMPDEST CALLVALUE DUP1 ISZERO PUSH2 0x2FB JUMPI PUSH1 0x0 DUP1 REVERT JUMPDEST POP PUSH2 0x30F PUSH2 0x30A CALLDATASIZE PUSH1 0x4 PUSH2 0x39E4 JUMP JUMPDEST PUSH2 0x771 JUMP JUMPDEST PUSH1 0x40 MLOAD PUSH2 0x243 SWAP2 SWAP1 PUSH2 0x3ADB JUMP JUMPDEST CALLVALUE DUP1 ISZERO PUSH2 0x328 JUMPI PUSH1 0x0 DUP1 REVERT JUMPDEST POP PUSH2 0x205 PUSH2 0xA3B JUMP JUMPDEST CALLVALUE DUP1 ISZERO PUSH2 0x33D JUMPI PUSH1 0x0 DUP1 REVERT JUMPDEST POP PUSH2 0x351 PUSH2 0x34C CALLDATASIZE PUSH1 0x4 PUSH2 0x39E4 JUMP JUMPDEST PUSH2 0xA75 JUMP JUMPDEST PUSH1 0x40 MLOAD PUSH2 0x243 SWAP2 SWAP1 PUSH2 0x3CA3 JUMP JUMPDEST PUSH2 0x266 PUSH2 0x36C CALLDATASIZE PUSH1 0x4 PUSH2 0x3E2C JUMP JUMPDEST PUSH2 0xF82 JUMP JUMPDEST CALLVALUE DUP1 ISZERO PUSH2 0x37D JUMPI PUSH1 0x0 DUP1 REVERT JUMPDEST POP PUSH1 0x0 SLOAD PUSH1 0x1 PUSH1 0x1 PUSH1 0xA0 SHL SUB AND JUMPDEST PUSH1 0x40 MLOAD PUSH1 0x1 PUSH1 0x1 PUSH1 0xA0 SHL SUB SWAP1 SWAP2 AND DUP2 MSTORE PUSH1 0x20 ADD PUSH2 0x243 JUMP JUMPDEST CALLVALUE DUP1 ISZERO PUSH2 0x3AF JUMPI PUSH1 0x0 DUP1 REVERT JUMPDEST POP PUSH2 0x2C1 PUSH1 0x3 SLOAD DUP2 JUMP JUMPDEST PUSH2 0x266 PUSH2 0x3C7 CALLDATASIZE PUSH1 0x4 PUSH2 0x3E2C JUMP JUMPDEST PUSH2 0x1031 JUMP JUMPDEST CALLVALUE DUP1 ISZERO PUSH2 0x3D8 JUMPI PUSH1 0x0 DUP1 REVERT JUMPDEST POP PUSH2 0x236 PUSH2 0x10D0 JUMP JUMPDEST CALLVALUE DUP1 ISZERO PUSH2 0x3ED JUMPI PUSH1 0x0 DUP1 REVERT JUMPDEST POP PUSH2 0x205 PUSH2 0x3FC CALLDATASIZE PUSH1 0x4 PUSH2 0x3E97 JUMP JUMPDEST PUSH2 0x115E JUMP JUMPDEST CALLVALUE DUP1 ISZERO PUSH2 0x40D JUMPI PUSH1 0x0 DUP1 REVERT JUMPDEST POP PUSH2 0x205 PUSH2 0x41C CALLDATASIZE PUSH1 0x4 PUSH2 0x401F JUMP JUMPDEST PUSH2 0x116B JUMP JUMPDEST CALLVALUE DUP1 ISZERO PUSH2 0x42D JUMPI PUSH1 0x0 DUP1 REVERT JUMPDEST POP PUSH2 0x30F PUSH2 0x43C CALLDATASIZE PUSH1 0x4 PUSH2 0x39E4 JUMP JUMPDEST PUSH2 0x11A9 JUMP JUMPDEST CALLVALUE DUP1 ISZERO PUSH2 0x44D JUMPI PUSH1 0x0 DUP1 REVERT JUMPDEST POP PUSH2 0x266 PUSH2 0x45C CALLDATASIZE PUSH1 0x4 PUSH2 0x3914 JUMP JUMPDEST PUSH2 0x1499 JUMP JUMPDEST CALLVALUE DUP1 ISZERO PUSH2 0x46D JUMPI PUSH1 0x0 DUP1 REVERT JUMPDEST POP PUSH2 0x205 PUSH2 0x47C CALLDATASIZE PUSH1 0x4 PUSH2 0x417C JUMP JUMPDEST PUSH2 0x1502 JUMP JUMPDEST CALLVALUE DUP1 ISZERO PUSH2 0x48D JUMPI PUSH1 0x0 DUP1 REVERT JUMPDEST POP PUSH2 0x205 PUSH2 0x49C CALLDATASIZE PUSH1 0x4 PUSH2 0x3E97 JUMP JUMPDEST PUSH2 0x1899 JUMP JUMPDEST CALLVALUE DUP1 ISZERO PUSH2 0x4AD JUMPI PUSH1 0x0 DUP1 REVERT JUMPDEST POP PUSH1 0x1 SLOAD PUSH2 0x38B SWAP1 PUSH1 0x1 PUSH1 0x1 PUSH1 0xA0 SHL SUB AND DUP2 JUMP JUMPDEST CALLVALUE DUP1 ISZERO PUSH2 0x4CD JUMPI PUSH1 0x0 DUP1 REVERT JUMPDEST POP PUSH2 0x205 PUSH2 0x4DC CALLDATASIZE PUSH1 0x4 PUSH2 0x39E4 JUMP JUMPDEST PUSH2 0x18A6 JUMP JUMPDEST PUSH2 0x205 PUSH2 0x4EF CALLDATASIZE PUSH1 0x4 PUSH2 0x4296 JUMP JUMPDEST PUSH2 0x1A97 JUMP JUMPDEST CALLVALUE DUP1 ISZERO PUSH2 0x500 JUMPI PUSH1 0x0 DUP1 REVERT JUMPDEST POP PUSH2 0x509 PUSH2 0x1AD6 JUMP JUMPDEST PUSH1 0x40 MLOAD PUSH2 0x243 SWAP2 SWAP1 PUSH2 0x43A6 JUMP JUMPDEST CALLVALUE DUP1 ISZERO PUSH2 0x522 JUMPI PUSH1 0x0 DUP1 REVERT JUMPDEST POP PUSH1 0x0 PUSH2 0x266 JUMP JUMPDEST CALLVALUE DUP1 ISZERO PUSH2 0x536 JUMPI PUSH1 0x0 DUP1 REVERT JUMPDEST POP PUSH2 0x205 PUSH2 0x545 CALLDATASIZE PUSH1 0x4 PUSH2 0x3914 JUMP JUMPDEST PUSH2 0x1BAF JUMP JUMPDEST CALLVALUE DUP1 ISZERO PUSH2 0x556 JUMPI PUSH1 0x0 DUP1 REVERT JUMPDEST POP PUSH2 0x509 PUSH2 0x1D10 JUMP JUMPDEST CALLVALUE DUP1 ISZERO PUSH2 0x56B JUMPI PUSH1 0x0 DUP1 REVERT JUMPDEST POP PUSH2 0x574 PUSH2 0x1DE0 JUMP JUMPDEST PUSH1 0x40 MLOAD PUSH2 0x243 SWAP2 SWAP1 PUSH2 0x4408 JUMP JUMPDEST PUSH2 0x266 PUSH2 0x58F CALLDATASIZE PUSH1 0x4 PUSH2 0x441B JUMP JUMPDEST PUSH2 0x1E42 JUMP JUMPDEST PUSH2 0x266 PUSH2 0x5A2 CALLDATASIZE PUSH1 0x4 PUSH2 0x441B JUMP JUMPDEST PUSH2 0x1E5E JUMP JUMPDEST CALLVALUE DUP1 ISZERO PUSH2 0x5B3 JUMPI PUSH1 0x0 DUP1 REVERT JUMPDEST POP PUSH2 0x205 PUSH2 0x5C2 CALLDATASIZE PUSH1 0x4 PUSH2 0x3914 JUMP JUMPDEST PUSH2 0x1E72 JUMP JUMPDEST PUSH2 0x5CF PUSH2 0x1EEB JUMP JUMPDEST PUSH1 0x8 DUP1 SLOAD PUSH1 0xFF NOT AND SWAP1 SSTORE JUMP JUMPDEST PUSH1 0x60 PUSH2 0x606 PUSH32 0x0 PUSH2 0x1F45 JUMP JUMPDEST PUSH2 0x62F PUSH32 0x0 PUSH2 0x1F45 JUMP JUMPDEST PUSH2 0x658 PUSH32 0x0 PUSH2 0x1F45 JUMP JUMPDEST PUSH1 0x40 MLOAD PUSH1 0x20 ADD PUSH2 0x66A SWAP4 SWAP3 SWAP2 SWAP1 PUSH2 0x4456 JUMP JUMPDEST PUSH1 0x40 MLOAD PUSH1 0x20 DUP2 DUP4 SUB SUB DUP2 MSTORE SWAP1 PUSH1 0x40 MSTORE SWAP1 POP SWAP1 JUMP JUMPDEST PUSH2 0x686 PUSH2 0x1EEB JUMP JUMPDEST PUSH2 0x68F DUP2 PUSH2 0x1499 JUMP JUMPDEST ISZERO PUSH2 0x6E1 JUMPI PUSH1 0x40 MLOAD PUSH3 0x461BCD PUSH1 0xE5 SHL DUP2 MSTORE PUSH1 0x20 PUSH1 0x4 DUP3 ADD MSTORE PUSH1 0x19 PUSH1 0x24 DUP3 ADD MSTORE PUSH32 0x546F6B656E20616C72656164792077686974656C697374656400000000000000 PUSH1 0x44 DUP3 ADD MSTORE PUSH1 0x64 ADD JUMPDEST PUSH1 0x40 MLOAD DUP1 SWAP2 SUB SWAP1 REVERT JUMPDEST PUSH1 0x5 DUP1 SLOAD PUSH1 0x1 DUP2 ADD DUP3 SSTORE PUSH1 0x0 SWAP2 SWAP1 SWAP2 MSTORE PUSH32 0x36B6384B5ECA791C62761152D0C79BB0604C104A5FB6F4EB0703F3154BB3DB0 ADD DUP1 SLOAD PUSH1 0x1 PUSH1 0x1 PUSH1 0xA0 SHL SUB NOT AND PUSH1 0x1 PUSH1 0x1 PUSH1 0xA0 SHL SUB SWAP3 SWAP1 SWAP3 AND SWAP2 SWAP1 SWAP2 OR SWAP1 SSTORE JUMP JUMPDEST PUSH2 0x73B PUSH2 0x1EEB JUMP JUMPDEST PUSH2 0x745 PUSH1 0x0 PUSH2 0x1FD7 JUMP JUMPDEST JUMP JUMPDEST PUSH2 0x74F PUSH2 0x1EEB JUMP JUMPDEST PUSH1 0x1 DUP1 SLOAD PUSH1 0x1 PUSH1 0x1 PUSH1 0xA0 SHL SUB NOT AND PUSH1 0x1 PUSH1 0x1 PUSH1 0xA0 SHL SUB SWAP3 SWAP1 SWAP3 AND SWAP2 SWAP1 SWAP2 OR SWAP1 SSTORE JUMP JUMPDEST PUSH2 0x795 PUSH1 0x40 MLOAD DUP1 PUSH1 0x60 ADD PUSH1 0x40 MSTORE DUP1 PUSH1 0x60 DUP2 MSTORE PUSH1 0x20 ADD PUSH1 0x60 DUP2 MSTORE PUSH1 0x20 ADD PUSH1 0x60 DUP2 MSTORE POP SWAP1 JUMP JUMPDEST PUSH1 0x9 DUP3 PUSH1 0x40 MLOAD PUSH2 0x7A5 SWAP2 SWAP1 PUSH2 0x44B0 JUMP JUMPDEST SWAP1 DUP2 MSTORE PUSH1 0x40 DUP1 MLOAD SWAP2 DUP3 SWAP1 SUB PUSH1 0x20 SWAP1 DUP2 ADD DUP4 KECCAK256 DUP1 SLOAD PUSH1 0x80 SWAP3 DUP2 MUL DUP6 ADD DUP4 ADD SWAP1 SWAP4 MSTORE PUSH1 0x60 DUP5 ADD DUP4 DUP2 MSTORE SWAP1 SWAP3 DUP5 SWAP3 DUP5 SWAP2 SWAP1 PUSH1 0x0 SWAP1 DUP6 ADD JUMPDEST DUP3 DUP3 LT ISZERO PUSH2 0x885 JUMPI DUP4 DUP3 SWAP1 PUSH1 0x0 MSTORE PUSH1 0x20 PUSH1 0x0 KECCAK256 ADD DUP1 SLOAD PUSH2 0x7F8 SWAP1 PUSH2 0x44CC JUMP JUMPDEST DUP1 PUSH1 0x1F ADD PUSH1 0x20 DUP1 SWAP2 DIV MUL PUSH1 0x20 ADD PUSH1 0x40 MLOAD SWAP1 DUP2 ADD PUSH1 0x40 MSTORE DUP1 SWAP3 SWAP2 SWAP1 DUP2 DUP2 MSTORE PUSH1 0x20 ADD DUP3 DUP1 SLOAD PUSH2 0x824 SWAP1 PUSH2 0x44CC JUMP JUMPDEST DUP1 ISZERO PUSH2 0x871 JUMPI DUP1 PUSH1 0x1F LT PUSH2 0x846 JUMPI PUSH2 0x100 DUP1 DUP4 SLOAD DIV MUL DUP4 MSTORE SWAP2 PUSH1 0x20 ADD SWAP2 PUSH2 0x871 JUMP JUMPDEST DUP3 ADD SWAP2 SWAP1 PUSH1 0x0 MSTORE PUSH1 0x20 PUSH1 0x0 KECCAK256 SWAP1 JUMPDEST DUP2 SLOAD DUP2 MSTORE SWAP1 PUSH1 0x1 ADD SWAP1 PUSH1 0x20 ADD DUP1 DUP4 GT PUSH2 0x854 JUMPI DUP3 SWAP1 SUB PUSH1 0x1F AND DUP3 ADD SWAP2 JUMPDEST POP POP POP POP POP DUP2 MSTORE PUSH1 0x20 ADD SWAP1 PUSH1 0x1 ADD SWAP1 PUSH2 0x7D9 JUMP JUMPDEST POP POP POP POP DUP2 MSTORE PUSH1 0x20 ADD PUSH1 0x1 DUP3 ADD DUP1 SLOAD DUP1 PUSH1 0x20 MUL PUSH1 0x20 ADD PUSH1 0x40 MLOAD SWAP1 DUP2 ADD PUSH1 0x40 MSTORE DUP1 SWAP3 SWAP2 SWAP1 DUP2 DUP2 MSTORE PUSH1 0x20 ADD DUP3 DUP1 SLOAD DUP1 ISZERO PUSH2 0x90C JUMPI PUSH1 0x20 MUL DUP3 ADD SWAP2 SWAP1 PUSH1 0x0 MSTORE PUSH1 0x20 PUSH1 0x0 KECCAK256 SWAP1 PUSH1 0x0 SWAP1 JUMPDEST DUP3 DUP3 SWAP1 SLOAD SWAP1 PUSH2 0x100 EXP SWAP1 DIV PUSH1 0xFF AND PUSH1 0x2 DUP2 GT ISZERO PUSH2 0x8EA JUMPI PUSH2 0x8EA PUSH2 0x3A70 JUMP JUMPDEST DUP2 MSTORE PUSH1 0x20 PUSH1 0x1 SWAP3 DUP4 ADD DUP2 DUP2 DIV SWAP5 DUP6 ADD SWAP5 SWAP1 SWAP4 SUB SWAP1 SWAP3 MUL SWAP2 ADD DUP1 DUP5 GT PUSH2 0x8CB JUMPI SWAP1 POP JUMPDEST POP POP POP POP POP DUP2 MSTORE PUSH1 0x20 ADD PUSH1 0x2 DUP3 ADD DUP1 SLOAD DUP1 PUSH1 0x20 MUL PUSH1 0x20 ADD PUSH1 0x40 MLOAD SWAP1 DUP2 ADD PUSH1 0x40 MSTORE DUP1 SWAP3 SWAP2 SWAP1 DUP2 DUP2 MSTORE PUSH1 0x20 ADD PUSH1 0x0 SWAP1 JUMPDEST DUP3 DUP3 LT ISZERO PUSH2 0xA2D JUMPI DUP4 DUP3 SWAP1 PUSH1 0x0 MSTORE PUSH1 0x20 PUSH1 0x0 KECCAK256 ADD DUP1 SLOAD DUP1 PUSH1 0x20 MUL PUSH1 0x20 ADD PUSH1 0x40 MLOAD SWAP1 DUP2 ADD PUSH1 0x40 MSTORE DUP1 SWAP3 SWAP2 SWAP1 DUP2 DUP2 MSTORE PUSH1 0x20 ADD PUSH1 0x0 SWAP1 JUMPDEST DUP3 DUP3 LT ISZERO PUSH2 0xA1A JUMPI DUP4 DUP3 SWAP1 PUSH1 0x0 MSTORE PUSH1 0x20 PUSH1 0x0 KECCAK256 ADD DUP1 SLOAD PUSH2 0x98D SWAP1 PUSH2 0x44CC JUMP JUMPDEST DUP1 PUSH1 0x1F ADD PUSH1 0x20 DUP1 SWAP2 DIV MUL PUSH1 0x20 ADD PUSH1 0x40 MLOAD SWAP1 DUP2 ADD PUSH1 0x40 MSTORE DUP1 SWAP3 SWAP2 SWAP1 DUP2 DUP2 MSTORE PUSH1 0x20 ADD DUP3 DUP1 SLOAD PUSH2 0x9B9 SWAP1 PUSH2 0x44CC JUMP JUMPDEST DUP1 ISZERO PUSH2 0xA06 JUMPI DUP1 PUSH1 0x1F LT PUSH2 0x9DB JUMPI PUSH2 0x100 DUP1 DUP4 SLOAD DIV MUL DUP4 MSTORE SWAP2 PUSH1 0x20 ADD SWAP2 PUSH2 0xA06 JUMP JUMPDEST DUP3 ADD SWAP2 SWAP1 PUSH1 0x0 MSTORE PUSH1 0x20 PUSH1 0x0 KECCAK256 SWAP1 JUMPDEST DUP2 SLOAD DUP2 MSTORE SWAP1 PUSH1 0x1 ADD SWAP1 PUSH1 0x20 ADD DUP1 DUP4 GT PUSH2 0x9E9 JUMPI DUP3 SWAP1 SUB PUSH1 0x1F AND DUP3 ADD SWAP2 JUMPDEST POP POP POP POP POP DUP2 MSTORE PUSH1 0x20 ADD SWAP1 PUSH1 0x1 ADD SWAP1 PUSH2 0x96E JUMP JUMPDEST POP POP POP POP DUP2 MSTORE PUSH1 0x20 ADD SWAP1 PUSH1 0x1 ADD SWAP1 PUSH2 0x93A JUMP JUMPDEST POP POP POP SWAP2 MSTORE POP SWAP1 SWAP4 SWAP3 POP POP POP JUMP JUMPDEST PUSH2 0xA43 PUSH2 0x1EEB JUMP JUMPDEST PUSH1 0x8 SLOAD PUSH1 0xFF AND ISZERO PUSH2 0xA66 JUMPI PUSH1 0x40 MLOAD PUSH3 0x461BCD PUSH1 0xE5 SHL DUP2 MSTORE PUSH1 0x4 ADD PUSH2 0x6D8 SWAP1 PUSH2 0x4506 JUMP JUMPDEST PUSH1 0x8 DUP1 SLOAD PUSH1 0xFF NOT AND PUSH1 0x1 OR SWAP1 SSTORE JUMP JUMPDEST PUSH2 0xAED PUSH1 0x40 MLOAD DUP1 PUSH2 0x180 ADD PUSH1 0x40 MSTORE DUP1 PUSH1 0x0 PUSH1 0x1 PUSH1 0x1 PUSH1 0xA0 SHL SUB AND DUP2 MSTORE PUSH1 0x20 ADD PUSH1 0x60 DUP2 MSTORE PUSH1 0x20 ADD PUSH1 0x60 DUP2 MSTORE PUSH1 0x20 ADD PUSH1 0x60 DUP2 MSTORE PUSH1 0x20 ADD PUSH1 0x60 DUP2 MSTORE PUSH1 0x20 ADD PUSH1 0x0 DUP2 MSTORE PUSH1 0x20 ADD PUSH1 0x60 DUP2 MSTORE PUSH1 0x20 ADD PUSH1 0x0 ISZERO ISZERO DUP2 MSTORE PUSH1 0x20 ADD PUSH1 0x0 PUSH1 0x1 PUSH1 0x1 PUSH1 0xA0 SHL SUB AND DUP2 MSTORE PUSH1 0x20 ADD PUSH1 0x0 DUP2 MSTORE PUSH1 0x20 ADD PUSH1 0x60 DUP2 MSTORE PUSH1 0x20 ADD PUSH1 0x60 DUP2 MSTORE POP SWAP1 JUMP JUMPDEST PUSH1 0x2 DUP3 PUSH1 0x40 MLOAD PUSH2 0xAFD SWAP2 SWAP1 PUSH2 0x44B0 JUMP JUMPDEST SWAP1 DUP2 MSTORE PUSH1 0x40 DUP1 MLOAD SWAP2 DUP3 SWAP1 SUB PUSH1 0x20 SWAP1 DUP2 ADD DUP4 KECCAK256 PUSH2 0x180 DUP5 ADD DUP4 MSTORE DUP1 SLOAD PUSH1 0x1 PUSH1 0x1 PUSH1 0xA0 SHL SUB AND DUP5 MSTORE PUSH1 0x1 DUP2 ADD DUP1 SLOAD DUP5 MLOAD DUP2 DUP6 MUL DUP2 ADD DUP6 ADD SWAP1 SWAP6 MSTORE DUP1 DUP6 MSTORE SWAP2 SWAP4 DUP6 DUP5 ADD SWAP4 SWAP1 SWAP3 SWAP1 DUP4 ADD DUP3 DUP3 DUP1 ISZERO PUSH2 0xB7A JUMPI PUSH1 0x20 MUL DUP3 ADD SWAP2 SWAP1 PUSH1 0x0 MSTORE PUSH1 0x20 PUSH1 0x0 KECCAK256 SWAP1 JUMPDEST DUP2 SLOAD PUSH1 0x1 PUSH1 0x1 PUSH1 0xA0 SHL SUB AND DUP2 MSTORE PUSH1 0x1 SWAP1 SWAP2 ADD SWAP1 PUSH1 0x20 ADD DUP1 DUP4 GT PUSH2 0xB5C JUMPI JUMPDEST POP POP POP POP POP DUP2 MSTORE PUSH1 0x20 ADD PUSH1 0x2 DUP3 ADD DUP1 SLOAD DUP1 PUSH1 0x20 MUL PUSH1 0x20 ADD PUSH1 0x40 MLOAD SWAP1 DUP2 ADD PUSH1 0x40 MSTORE DUP1 SWAP3 SWAP2 SWAP1 DUP2 DUP2 MSTORE PUSH1 0x20 ADD DUP3 DUP1 SLOAD DUP1 ISZERO PUSH2 0xBD2 JUMPI PUSH1 0x20 MUL DUP3 ADD SWAP2 SWAP1 PUSH1 0x0 MSTORE PUSH1 0x20 PUSH1 0x0 KECCAK256 SWAP1 JUMPDEST DUP2 SLOAD DUP2 MSTORE PUSH1 0x20 ADD SWAP1 PUSH1 0x1 ADD SWAP1 DUP1 DUP4 GT PUSH2 0xBBE JUMPI JUMPDEST POP POP POP POP POP DUP2 MSTORE PUSH1 0x20 ADD PUSH1 0x3 DUP3 ADD DUP1 SLOAD DUP1 PUSH1 0x20 MUL PUSH1 0x20 ADD PUSH1 0x40 MLOAD SWAP1 DUP2 ADD PUSH1 0x40 MSTORE DUP1 SWAP3 SWAP2 SWAP1 DUP2 DUP2 MSTORE PUSH1 0x20 ADD PUSH1 0x0 SWAP1 JUMPDEST DUP3 DUP3 LT ISZERO PUSH2 0xCAC JUMPI DUP4 DUP3 SWAP1 PUSH1 0x0 MSTORE PUSH1 0x20 PUSH1 0x0 KECCAK256 ADD DUP1 SLOAD PUSH2 0xC1F SWAP1 PUSH2 0x44CC JUMP JUMPDEST DUP1 PUSH1 0x1F ADD PUSH1 0x20 DUP1 SWAP2 DIV MUL PUSH1 0x20 ADD PUSH1 0x40 MLOAD SWAP1 DUP2 ADD PUSH1 0x40 MSTORE DUP1 SWAP3 SWAP2 SWAP1 DUP2 DUP2 MSTORE PUSH1 0x20 ADD DUP3 DUP1 SLOAD PUSH2 0xC4B SWAP1 PUSH2 0x44CC JUMP JUMPDEST DUP1 ISZERO PUSH2 0xC98 JUMPI DUP1 PUSH1 0x1F LT PUSH2 0xC6D JUMPI PUSH2 0x100 DUP1 DUP4 SLOAD DIV MUL DUP4 MSTORE SWAP2 PUSH1 0x20 ADD SWAP2 PUSH2 0xC98 JUMP JUMPDEST DUP3 ADD SWAP2 SWAP1 PUSH1 0x0 MSTORE PUSH1 0x20 PUSH1 0x0 KECCAK256 SWAP1 JUMPDEST DUP2 SLOAD DUP2 MSTORE SWAP1 PUSH1 0x1 ADD SWAP1 PUSH1 0x20 ADD DUP1 DUP4 GT PUSH2 0xC7B JUMPI DUP3 SWAP1 SUB PUSH1 0x1F AND DUP3 ADD SWAP2 JUMPDEST POP POP POP POP POP DUP2 MSTORE PUSH1 0x20 ADD SWAP1 PUSH1 0x1 ADD SWAP1 PUSH2 0xC00 JUMP JUMPDEST POP POP POP POP DUP2 MSTORE PUSH1 0x20 ADD PUSH1 0x4 DUP3 ADD DUP1 SLOAD PUSH2 0xCC4 SWAP1 PUSH2 0x44CC JUMP JUMPDEST DUP1 PUSH1 0x1F ADD PUSH1 0x20 DUP1 SWAP2 DIV MUL PUSH1 0x20 ADD PUSH1 0x40 MLOAD SWAP1 DUP2 ADD PUSH1 0x40 MSTORE DUP1 SWAP3 SWAP2 SWAP1 DUP2 DUP2 MSTORE PUSH1 0x20 ADD DUP3 DUP1 SLOAD PUSH2 0xCF0 SWAP1 PUSH2 0x44CC JUMP JUMPDEST DUP1 ISZERO PUSH2 0xD3D JUMPI DUP1 PUSH1 0x1F LT PUSH2 0xD12 JUMPI PUSH2 0x100 DUP1 DUP4 SLOAD DIV MUL DUP4 MSTORE SWAP2 PUSH1 0x20 ADD SWAP2 PUSH2 0xD3D JUMP JUMPDEST DUP3 ADD SWAP2 SWAP1 PUSH1 0x0 MSTORE PUSH1 0x20 PUSH1 0x0 KECCAK256 SWAP1 JUMPDEST DUP2 SLOAD DUP2 MSTORE SWAP1 PUSH1 0x1 ADD SWAP1 PUSH1 0x20 ADD DUP1 DUP4 GT PUSH2 0xD20 JUMPI DUP3 SWAP1 SUB PUSH1 0x1F AND DUP3 ADD SWAP2 JUMPDEST POP POP POP POP POP DUP2 MSTORE PUSH1 0x20 ADD PUSH1 0x5 DUP3 ADD SLOAD DUP2 MSTORE PUSH1 0x20 ADD PUSH1 0x6 DUP3 ADD DUP1 SLOAD DUP1 PUSH1 0x20 MUL PUSH1 0x20 ADD PUSH1 0x40 MLOAD SWAP1 DUP2 ADD PUSH1 0x40 MSTORE DUP1 SWAP3 SWAP2 SWAP1 DUP2 DUP2 MSTORE PUSH1 0x20 ADD PUSH1 0x0 SWAP1 JUMPDEST DUP3 DUP3 LT ISZERO PUSH2 0xE1E JUMPI PUSH1 0x0 DUP5 DUP2 MSTORE PUSH1 0x20 SWAP1 DUP2 SWAP1 KECCAK256 PUSH1 0x40 DUP1 MLOAD PUSH1 0x80 DUP2 ADD DUP3 MSTORE PUSH1 0x4 DUP7 MUL SWAP1 SWAP3 ADD DUP1 SLOAD PUSH1 0x1 PUSH1 0x1 PUSH1 0xA0 SHL SUB AND DUP4 MSTORE PUSH1 0x1 DUP2 ADD SLOAD DUP4 DUP6 ADD MSTORE PUSH1 0x2 DUP2 ADD SLOAD DUP4 DUP4 ADD MSTORE PUSH1 0x3 DUP2 ADD DUP1 SLOAD DUP4 MLOAD DUP2 DUP8 MUL DUP2 ADD DUP8 ADD SWAP1 SWAP5 MSTORE DUP1 DUP5 MSTORE SWAP4 SWAP5 SWAP2 SWAP4 PUSH1 0x60 DUP7 ADD SWAP4 SWAP3 DUP4 ADD DUP3 DUP3 DUP1 ISZERO PUSH2 0xE06 JUMPI PUSH1 0x20 MUL DUP3 ADD SWAP2 SWAP1 PUSH1 0x0 MSTORE PUSH1 0x20 PUSH1 0x0 KECCAK256 SWAP1 JUMPDEST DUP2 SLOAD DUP2 MSTORE PUSH1 0x20 ADD SWAP1 PUSH1 0x1 ADD SWAP1 DUP1 DUP4 GT PUSH2 0xDF2 JUMPI JUMPDEST POP POP POP POP POP DUP2 MSTORE POP POP DUP2 MSTORE PUSH1 0x20 ADD SWAP1 PUSH1 0x1 ADD SWAP1 PUSH2 0xD75 JUMP JUMPDEST POP POP POP SWAP1 DUP3 MSTORE POP PUSH1 0x7 DUP3 ADD SLOAD PUSH1 0xFF DUP2 AND ISZERO ISZERO PUSH1 0x20 DUP4 ADD MSTORE PUSH2 0x100 SWAP1 DIV PUSH1 0x1 PUSH1 0x1 PUSH1 0xA0 SHL SUB AND PUSH1 0x40 DUP3 ADD MSTORE PUSH1 0x8 DUP3 ADD SLOAD PUSH1 0x60 DUP3 ADD MSTORE PUSH1 0x9 DUP3 ADD DUP1 SLOAD PUSH1 0x80 SWAP1 SWAP3 ADD SWAP2 PUSH2 0xE67 SWAP1 PUSH2 0x44CC JUMP JUMPDEST DUP1 PUSH1 0x1F ADD PUSH1 0x20 DUP1 SWAP2 DIV MUL PUSH1 0x20 ADD PUSH1 0x40 MLOAD SWAP1 DUP2 ADD PUSH1 0x40 MSTORE DUP1 SWAP3 SWAP2 SWAP1 DUP2 DUP2 MSTORE PUSH1 0x20 ADD DUP3 DUP1 SLOAD PUSH2 0xE93 SWAP1 PUSH2 0x44CC JUMP JUMPDEST DUP1 ISZERO PUSH2 0xEE0 JUMPI DUP1 PUSH1 0x1F LT PUSH2 0xEB5 JUMPI PUSH2 0x100 DUP1 DUP4 SLOAD DIV MUL DUP4 MSTORE SWAP2 PUSH1 0x20 ADD SWAP2 PUSH2 0xEE0 JUMP JUMPDEST DUP3 ADD SWAP2 SWAP1 PUSH1 0x0 MSTORE PUSH1 0x20 PUSH1 0x0 KECCAK256 SWAP1 JUMPDEST DUP2 SLOAD DUP2 MSTORE SWAP1 PUSH1 0x1 ADD SWAP1 PUSH1 0x20 ADD DUP1 DUP4 GT PUSH2 0xEC3 JUMPI DUP3 SWAP1 SUB PUSH1 0x1F AND DUP3 ADD SWAP2 JUMPDEST POP POP POP POP POP DUP2 MSTORE PUSH1 0x20 ADD PUSH1 0xA DUP3 ADD DUP1 SLOAD PUSH2 0xEF9 SWAP1 PUSH2 0x44CC JUMP JUMPDEST DUP1 PUSH1 0x1F ADD PUSH1 0x20 DUP1 SWAP2 DIV MUL PUSH1 0x20 ADD PUSH1 0x40 MLOAD SWAP1 DUP2 ADD PUSH1 0x40 MSTORE DUP1 SWAP3 SWAP2 SWAP1 DUP2 DUP2 MSTORE PUSH1 0x20 ADD DUP3 DUP1 SLOAD PUSH2 0xF25 SWAP1 PUSH2 0x44CC JUMP JUMPDEST DUP1 ISZERO PUSH2 0xF72 JUMPI DUP1 PUSH1 0x1F LT PUSH2 0xF47 JUMPI PUSH2 0x100 DUP1 DUP4 SLOAD DIV MUL DUP4 MSTORE SWAP2 PUSH1 0x20 ADD SWAP2 PUSH2 0xF72 JUMP JUMPDEST DUP3 ADD SWAP2 SWAP1 PUSH1 0x0 MSTORE PUSH1 0x20 PUSH1 0x0 KECCAK256 SWAP1 JUMPDEST DUP2 SLOAD DUP2 MSTORE SWAP1 PUSH1 0x1 ADD SWAP1 PUSH1 0x20 ADD DUP1 DUP4 GT PUSH2 0xF55 JUMPI DUP3 SWAP1 SUB PUSH1 0x1F AND DUP3 ADD SWAP2 JUMPDEST POP POP POP POP POP DUP2 MSTORE POP POP SWAP1 POP SWAP2 SWAP1 POP JUMP JUMPDEST PUSH1 0x0 PUSH2 0xF8C PUSH2 0x2027 JUMP JUMPDEST DUP4 CALLVALUE PUSH1 0x0 JUMPDEST DUP3 DUP2 LT ISZERO PUSH2 0x1021 JUMPI PUSH1 0x0 DUP7 DUP7 DUP4 DUP2 DUP2 LT PUSH2 0xFAD JUMPI PUSH2 0xFAD PUSH2 0x4532 JUMP JUMPDEST SWAP1 POP PUSH1 0x20 MUL ADD CALLDATALOAD SWAP1 POP DUP3 DUP2 GT ISZERO PUSH2 0xFD7 JUMPI PUSH1 0x40 MLOAD PUSH4 0x44044A5 PUSH1 0xE2 SHL DUP2 MSTORE PUSH1 0x4 ADD PUSH1 0x40 MLOAD DUP1 SWAP2 SUB SWAP1 REVERT JUMPDEST PUSH2 0x1004 DUP10 DUP10 DUP5 DUP2 DUP2 LT PUSH2 0xFEC JUMPI PUSH2 0xFEC PUSH2 0x4532 JUMP JUMPDEST SWAP1 POP PUSH1 0x20 MUL DUP2 ADD SWAP1 PUSH2 0xFFE SWAP2 SWAP1 PUSH2 0x4548 JUMP JUMPDEST DUP3 PUSH2 0x2070 JUMP JUMPDEST PUSH2 0x1015 JUMPI PUSH1 0x0 SWAP5 POP POP POP POP POP PUSH2 0x1029 JUMP JUMPDEST SWAP1 SWAP2 SUB SWAP1 PUSH1 0x1 ADD PUSH2 0xF91 JUMP JUMPDEST POP PUSH1 0x1 SWAP3 POP POP POP JUMPDEST SWAP5 SWAP4 POP POP POP POP JUMP JUMPDEST PUSH1 0x0 PUSH2 0x103B PUSH2 0x2027 JUMP JUMPDEST DUP4 CALLVALUE PUSH1 0x0 JUMPDEST DUP3 DUP2 LT ISZERO PUSH2 0x1021 JUMPI PUSH1 0x0 DUP7 DUP7 DUP4 DUP2 DUP2 LT PUSH2 0x105C JUMPI PUSH2 0x105C PUSH2 0x4532 JUMP JUMPDEST SWAP1 POP PUSH1 0x20 MUL ADD CALLDATALOAD SWAP1 POP DUP3 DUP2 GT ISZERO PUSH2 0x1086 JUMPI PUSH1 0x40 MLOAD PUSH4 0x44044A5 PUSH1 0xE2 SHL DUP2 MSTORE PUSH1 0x4 ADD PUSH1 0x40 MLOAD DUP1 SWAP2 SUB SWAP1 REVERT JUMPDEST PUSH2 0x10B3 DUP10 DUP10 DUP5 DUP2 DUP2 LT PUSH2 0x109B JUMPI PUSH2 0x109B PUSH2 0x4532 JUMP JUMPDEST SWAP1 POP PUSH1 0x20 MUL DUP2 ADD SWAP1 PUSH2 0x10AD SWAP2 SWAP1 PUSH2 0x4548 JUMP JUMPDEST DUP3 PUSH2 0x2079 JUMP JUMPDEST PUSH2 0x10C4 JUMPI PUSH1 0x0 SWAP5 POP POP POP POP POP PUSH2 0x1029 JUMP JUMPDEST SWAP1 SWAP2 SUB SWAP1 PUSH1 0x1 ADD PUSH2 0x1040 JUMP JUMPDEST PUSH1 0x7 DUP1 SLOAD PUSH2 0x10DD SWAP1 PUSH2 0x44CC JUMP JUMPDEST DUP1 PUSH1 0x1F ADD PUSH1 0x20 DUP1 SWAP2 DIV MUL PUSH1 0x20 ADD PUSH1 0x40 MLOAD SWAP1 DUP2 ADD PUSH1 0x40 MSTORE DUP1 SWAP3 SWAP2 SWAP1 DUP2 DUP2 MSTORE PUSH1 0x20 ADD DUP3 DUP1 SLOAD PUSH2 0x1109 SWAP1 PUSH2 0x44CC JUMP JUMPDEST DUP1 ISZERO PUSH2 0x1156 JUMPI DUP1 PUSH1 0x1F LT PUSH2 0x112B JUMPI PUSH2 0x100 DUP1 DUP4 SLOAD DIV MUL DUP4 MSTORE SWAP2 PUSH1 0x20 ADD SWAP2 PUSH2 0x1156 JUMP JUMPDEST DUP3 ADD SWAP2 SWAP1 PUSH1 0x0 MSTORE PUSH1 0x20 PUSH1 0x0 KECCAK256 SWAP1 JUMPDEST DUP2 SLOAD DUP2 MSTORE SWAP1 PUSH1 0x1 ADD SWAP1 PUSH1 0x20 ADD DUP1 DUP4 GT PUSH2 0x1139 JUMPI DUP3 SWAP1 SUB PUSH1 0x1F AND DUP3 ADD SWAP2 JUMPDEST POP POP POP POP POP DUP2 JUMP JUMPDEST PUSH2 0x1166 PUSH2 0x1EEB JUMP JUMPDEST PUSH1 0x4 SSTORE JUMP JUMPDEST PUSH1 0x8 SLOAD PUSH1 0xFF AND ISZERO PUSH2 0x118E JUMPI PUSH1 0x40 MLOAD PUSH3 0x461BCD PUSH1 0xE5 SHL DUP2 MSTORE PUSH1 0x4 ADD PUSH2 0x6D8 SWAP1 PUSH2 0x4506 JUMP JUMPDEST PUSH2 0x11A1 DUP7 DUP7 DUP7 DUP7 DUP7 PUSH1 0x0 DUP8 PUSH1 0x0 DUP1 PUSH2 0x20DA JUMP JUMPDEST POP POP POP POP POP POP JUMP JUMPDEST PUSH2 0x11CD PUSH1 0x40 MLOAD DUP1 PUSH1 0x60 ADD PUSH1 0x40 MSTORE DUP1 PUSH1 0x60 DUP2 MSTORE PUSH1 0x20 ADD PUSH1 0x60 DUP2 MSTORE PUSH1 0x20 ADD PUSH1 0x60 DUP2 MSTORE POP SWAP1 JUMP JUMPDEST PUSH1 0x0 PUSH1 0x2 DUP4 PUSH1 0x40 MLOAD PUSH2 0x11DF SWAP2 SWAP1 PUSH2 0x44B0 JUMP JUMPDEST SWAP1 DUP2 MSTORE PUSH1 0x20 ADD PUSH1 0x40 MLOAD DUP1 SWAP2 SUB SWAP1 KECCAK256 SWAP1 POP PUSH1 0x9 DUP2 PUSH1 0x9 ADD PUSH1 0x40 MLOAD PUSH2 0x1202 SWAP2 SWAP1 PUSH2 0x455F JUMP JUMPDEST SWAP1 DUP2 MSTORE PUSH1 0x40 DUP1 MLOAD SWAP2 DUP3 SWAP1 SUB PUSH1 0x20 SWAP1 DUP2 ADD DUP4 KECCAK256 DUP1 SLOAD PUSH1 0x80 SWAP3 DUP2 MUL DUP6 ADD DUP4 ADD SWAP1 SWAP4 MSTORE PUSH1 0x60 DUP5 ADD DUP4 DUP2 MSTORE SWAP1 SWAP3 DUP5 SWAP3 DUP5 SWAP2 SWAP1 PUSH1 0x0 SWAP1 DUP6 ADD JUMPDEST DUP3 DUP3 LT ISZERO PUSH2 0x12E2 JUMPI DUP4 DUP3 SWAP1 PUSH1 0x0 MSTORE PUSH1 0x20 PUSH1 0x0 KECCAK256 ADD DUP1 SLOAD PUSH2 0x1255 SWAP1 PUSH2 0x44CC JUMP JUMPDEST DUP1 PUSH1 0x1F ADD PUSH1 0x20 DUP1 SWAP2 DIV MUL PUSH1 0x20 ADD PUSH1 0x40 MLOAD SWAP1 DUP2 ADD PUSH1 0x40 MSTORE DUP1 SWAP3 SWAP2 SWAP1 DUP2 DUP2 MSTORE PUSH1 0x20 ADD DUP3 DUP1 SLOAD PUSH2 0x1281 SWAP1 PUSH2 0x44CC JUMP JUMPDEST DUP1 ISZERO PUSH2 0x12CE JUMPI DUP1 PUSH1 0x1F LT PUSH2 0x12A3 JUMPI PUSH2 0x100 DUP1 DUP4 SLOAD DIV MUL DUP4 MSTORE SWAP2 PUSH1 0x20 ADD SWAP2 PUSH2 0x12CE JUMP JUMPDEST DUP3 ADD SWAP2 SWAP1 PUSH1 0x0 MSTORE PUSH1 0x20 PUSH1 0x0 KECCAK256 SWAP1 JUMPDEST DUP2 SLOAD DUP2 MSTORE SWAP1 PUSH1 0x1 ADD SWAP1 PUSH1 0x20 ADD DUP1 DUP4 GT PUSH2 0x12B1 JUMPI DUP3 SWAP1 SUB PUSH1 0x1F AND DUP3 ADD SWAP2 JUMPDEST POP POP POP POP POP DUP2 MSTORE PUSH1 0x20 ADD SWAP1 PUSH1 0x1 ADD SWAP1 PUSH2 0x1236 JUMP JUMPDEST POP POP POP POP DUP2 MSTORE PUSH1 0x20 ADD PUSH1 0x1 DUP3 ADD DUP1 SLOAD DUP1 PUSH1 0x20 MUL PUSH1 0x20 ADD PUSH1 0x40 MLOAD SWAP1 DUP2 ADD PUSH1 0x40 MSTORE DUP1 SWAP3 SWAP2 SWAP1 DUP2 DUP2 MSTORE PUSH1 0x20 ADD DUP3 DUP1 SLOAD DUP1 ISZERO PUSH2 0x1369 JUMPI PUSH1 0x20 MUL DUP3 ADD SWAP2 SWAP1 PUSH1 0x0 MSTORE PUSH1 0x20 PUSH1 0x0 KECCAK256 SWAP1 PUSH1 0x0 SWAP1 JUMPDEST DUP3 DUP3 SWAP1 SLOAD SWAP1 PUSH2 0x100 EXP SWAP1 DIV PUSH1 0xFF AND PUSH1 0x2 DUP2 GT ISZERO PUSH2 0x1347 JUMPI PUSH2 0x1347 PUSH2 0x3A70 JUMP JUMPDEST DUP2 MSTORE PUSH1 0x20 PUSH1 0x1 SWAP3 DUP4 ADD DUP2 DUP2 DIV SWAP5 DUP6 ADD SWAP5 SWAP1 SWAP4 SUB SWAP1 SWAP3 MUL SWAP2 ADD DUP1 DUP5 GT PUSH2 0x1328 JUMPI SWAP1 POP JUMPDEST POP POP POP POP POP DUP2 MSTORE PUSH1 0x20 ADD PUSH1 0x2 DUP3 ADD DUP1 SLOAD DUP1 PUSH1 0x20 MUL PUSH1 0x20 ADD PUSH1 0x40 MLOAD SWAP1 DUP2 ADD PUSH1 0x40 MSTORE DUP1 SWAP3 SWAP2 SWAP1 DUP2 DUP2 MSTORE PUSH1 0x20 ADD PUSH1 0x0 SWAP1 JUMPDEST DUP3 DUP3 LT ISZERO PUSH2 0x148A JUMPI DUP4 DUP3 SWAP1 PUSH1 0x0 MSTORE PUSH1 0x20 PUSH1 0x0 KECCAK256 ADD DUP1 SLOAD DUP1 PUSH1 0x20 MUL PUSH1 0x20 ADD PUSH1 0x40 MLOAD SWAP1 DUP2 ADD PUSH1 0x40 MSTORE DUP1 SWAP3 SWAP2 SWAP1 DUP2 DUP2 MSTORE PUSH1 0x20 ADD PUSH1 0x0 SWAP1 JUMPDEST DUP3 DUP3 LT ISZERO PUSH2 0x1477 JUMPI DUP4 DUP3 SWAP1 PUSH1 0x0 MSTORE PUSH1 0x20 PUSH1 0x0 KECCAK256 ADD DUP1 SLOAD PUSH2 0x13EA SWAP1 PUSH2 0x44CC JUMP JUMPDEST DUP1 PUSH1 0x1F ADD PUSH1 0x20 DUP1 SWAP2 DIV MUL PUSH1 0x20 ADD PUSH1 0x40 MLOAD SWAP1 DUP2 ADD PUSH1 0x40 MSTORE DUP1 SWAP3 SWAP2 SWAP1 DUP2 DUP2 MSTORE PUSH1 0x20 ADD DUP3 DUP1 SLOAD PUSH2 0x1416 SWAP1 PUSH2 0x44CC JUMP JUMPDEST DUP1 ISZERO PUSH2 0x1463 JUMPI DUP1 PUSH1 0x1F LT PUSH2 0x1438 JUMPI PUSH2 0x100 DUP1 DUP4 SLOAD DIV MUL DUP4 MSTORE SWAP2 PUSH1 0x20 ADD SWAP2 PUSH2 0x1463 JUMP JUMPDEST DUP3 ADD SWAP2 SWAP1 PUSH1 0x0 MSTORE PUSH1 0x20 PUSH1 0x0 KECCAK256 SWAP1 JUMPDEST DUP2 SLOAD DUP2 MSTORE SWAP1 PUSH1 0x1 ADD SWAP1 PUSH1 0x20 ADD DUP1 DUP4 GT PUSH2 0x1446 JUMPI DUP3 SWAP1 SUB PUSH1 0x1F AND DUP3 ADD SWAP2 JUMPDEST POP POP POP POP POP DUP2 MSTORE PUSH1 0x20 ADD SWAP1 PUSH1 0x1 ADD SWAP1 PUSH2 0x13CB JUMP JUMPDEST POP POP POP POP DUP2 MSTORE PUSH1 0x20 ADD SWAP1 PUSH1 0x1 ADD SWAP1 PUSH2 0x1397 JUMP JUMPDEST POP POP POP SWAP2 MSTORE POP SWAP1 SWAP5 SWAP4 POP POP POP POP JUMP JUMPDEST PUSH1 0x0 DUP1 JUMPDEST PUSH1 0x5 SLOAD DUP2 LT ISZERO PUSH2 0x14F9 JUMPI DUP3 PUSH1 0x1 PUSH1 0x1 PUSH1 0xA0 SHL SUB AND PUSH1 0x5 DUP3 DUP2 SLOAD DUP2 LT PUSH2 0x14C4 JUMPI PUSH2 0x14C4 PUSH2 0x4532 JUMP JUMPDEST PUSH1 0x0 SWAP2 DUP3 MSTORE PUSH1 0x20 SWAP1 SWAP2 KECCAK256 ADD SLOAD PUSH1 0x1 PUSH1 0x1 PUSH1 0xA0 SHL SUB AND SUB PUSH2 0x14E7 JUMPI POP PUSH1 0x1 SWAP3 SWAP2 POP POP JUMP JUMPDEST DUP1 PUSH2 0x14F1 DUP2 PUSH2 0x45EB JUMP JUMPDEST SWAP2 POP POP PUSH2 0x149D JUMP JUMPDEST POP PUSH1 0x0 SWAP3 SWAP2 POP POP JUMP JUMPDEST PUSH1 0x8 SLOAD PUSH1 0xFF AND ISZERO PUSH2 0x1525 JUMPI PUSH1 0x40 MLOAD PUSH3 0x461BCD PUSH1 0xE5 SHL DUP2 MSTORE PUSH1 0x4 ADD PUSH2 0x6D8 SWAP1 PUSH2 0x4506 JUMP JUMPDEST PUSH1 0x0 DUP5 MLOAD GT PUSH2 0x1582 JUMPI PUSH1 0x40 MLOAD PUSH3 0x461BCD PUSH1 0xE5 SHL DUP2 MSTORE PUSH1 0x20 PUSH1 0x4 DUP3 ADD MSTORE PUSH1 0x24 DUP1 DUP3 ADD MSTORE PUSH32 0x4465726573793A204E616D652063616E6E6F74206265206E756C6C206F722065 PUSH1 0x44 DUP3 ADD MSTORE PUSH4 0x6D707479 PUSH1 0xE0 SHL PUSH1 0x64 DUP3 ADD MSTORE PUSH1 0x84 ADD PUSH2 0x6D8 JUMP JUMPDEST PUSH1 0x9 DUP5 PUSH1 0x40 MLOAD PUSH2 0x1592 SWAP2 SWAP1 PUSH2 0x44B0 JUMP JUMPDEST SWAP1 DUP2 MSTORE PUSH1 0x40 MLOAD SWAP1 DUP2 SWAP1 SUB PUSH1 0x20 ADD SWAP1 KECCAK256 SLOAD ISZERO PUSH2 0x15FD JUMPI PUSH1 0x40 MLOAD PUSH3 0x461BCD PUSH1 0xE5 SHL DUP2 MSTORE PUSH1 0x20 PUSH1 0x4 DUP3 ADD MSTORE PUSH1 0x25 PUSH1 0x24 DUP3 ADD MSTORE PUSH32 0x4465726573793A20526576696577466F726D4E616D6520616C72656164792065 PUSH1 0x44 DUP3 ADD MSTORE PUSH5 0x7869737473 PUSH1 0xD8 SHL PUSH1 0x64 DUP3 ADD MSTORE PUSH1 0x84 ADD PUSH2 0x6D8 JUMP JUMPDEST PUSH1 0x0 DUP4 MLOAD GT PUSH2 0x164E JUMPI PUSH1 0x40 MLOAD PUSH3 0x461BCD PUSH1 0xE5 SHL DUP2 MSTORE PUSH1 0x20 PUSH1 0x4 DUP3 ADD MSTORE PUSH1 0x1F PUSH1 0x24 DUP3 ADD MSTORE PUSH32 0x4465726573793A205175657374696F6E732063616E2774206265206E756C6C00 PUSH1 0x44 DUP3 ADD MSTORE PUSH1 0x64 ADD PUSH2 0x6D8 JUMP JUMPDEST PUSH1 0x0 DUP2 MLOAD GT PUSH2 0x16AB JUMPI PUSH1 0x40 MLOAD PUSH3 0x461BCD PUSH1 0xE5 SHL DUP2 MSTORE PUSH1 0x20 PUSH1 0x4 DUP3 ADD MSTORE PUSH1 0x24 DUP1 DUP3 ADD MSTORE PUSH32 0x4465726573793A205175657374696F6E2054797065732063616E277420626520 PUSH1 0x44 DUP3 ADD MSTORE PUSH4 0x1B9D5B1B PUSH1 0xE2 SHL PUSH1 0x64 DUP3 ADD MSTORE PUSH1 0x84 ADD PUSH2 0x6D8 JUMP JUMPDEST DUP3 MLOAD DUP2 MLOAD EQ PUSH2 0x171A JUMPI PUSH1 0x40 MLOAD PUSH3 0x461BCD PUSH1 0xE5 SHL DUP2 MSTORE PUSH1 0x20 PUSH1 0x4 DUP3 ADD MSTORE PUSH1 0x35 PUSH1 0x24 DUP3 ADD MSTORE PUSH32 0x4465726573793A205175657374696F6E7320616E64207479706573206D757374 PUSH1 0x44 DUP3 ADD MSTORE PUSH21 0x40D0C2ECCA40E8D0CA40E6C2DACA40D8CADCCEE8D PUSH1 0x5B SHL PUSH1 0x64 DUP3 ADD MSTORE PUSH1 0x84 ADD PUSH2 0x6D8 JUMP JUMPDEST DUP2 MLOAD DUP4 MLOAD EQ PUSH2 0x1791 JUMPI PUSH1 0x40 MLOAD PUSH3 0x461BCD PUSH1 0xE5 SHL DUP2 MSTORE PUSH1 0x20 PUSH1 0x4 DUP3 ADD MSTORE PUSH1 0x37 PUSH1 0x24 DUP3 ADD MSTORE PUSH32 0x4465726573793A205175657374696F6E7320616E642063686F69636573206D75 PUSH1 0x44 DUP3 ADD MSTORE PUSH32 0x73742068617665207468652073616D65206C656E677468000000000000000000 PUSH1 0x64 DUP3 ADD MSTORE PUSH1 0x84 ADD PUSH2 0x6D8 JUMP JUMPDEST PUSH1 0x40 MLOAD DUP1 PUSH1 0x60 ADD PUSH1 0x40 MSTORE DUP1 DUP5 DUP2 MSTORE PUSH1 0x20 ADD DUP3 DUP2 MSTORE PUSH1 0x20 ADD DUP4 DUP2 MSTORE POP PUSH1 0x9 DUP6 PUSH1 0x40 MLOAD PUSH2 0x17BC SWAP2 SWAP1 PUSH2 0x44B0 JUMP JUMPDEST SWAP1 DUP2 MSTORE PUSH1 0x20 ADD PUSH1 0x40 MLOAD DUP1 SWAP2 SUB SWAP1 KECCAK256 PUSH1 0x0 DUP3 ADD MLOAD DUP2 PUSH1 0x0 ADD SWAP1 DUP1 MLOAD SWAP1 PUSH1 0x20 ADD SWAP1 PUSH2 0x17E6 SWAP3 SWAP2 SWAP1 PUSH2 0x35FD JUMP JUMPDEST POP PUSH1 0x20 DUP3 DUP2 ADD MLOAD DUP1 MLOAD PUSH2 0x17FF SWAP3 PUSH1 0x1 DUP6 ADD SWAP3 ADD SWAP1 PUSH2 0x3653 JUMP JUMPDEST POP PUSH1 0x40 DUP3 ADD MLOAD DUP1 MLOAD PUSH2 0x181B SWAP2 PUSH1 0x2 DUP5 ADD SWAP2 PUSH1 0x20 SWAP1 SWAP2 ADD SWAP1 PUSH2 0x3703 JUMP JUMPDEST POP POP PUSH1 0xA DUP1 SLOAD PUSH1 0x1 DUP2 ADD DUP3 SSTORE PUSH1 0x0 SWAP2 SWAP1 SWAP2 MSTORE PUSH32 0xC65A7BB8D6351C1CF70C95A316CC6A92839C986682D98BC35F958F4883F9D2A8 ADD SWAP1 POP PUSH2 0x185B DUP6 DUP3 PUSH2 0x464F JUMP JUMPDEST POP PUSH32 0xCB1290A8B5A51FBD31AD1AFBAB070C3CA5BE2B36C9B3E3EAAD9F1187D5D6E627 DUP5 PUSH1 0x40 MLOAD PUSH2 0x188B SWAP2 SWAP1 PUSH2 0x38E3 JUMP JUMPDEST PUSH1 0x40 MLOAD DUP1 SWAP2 SUB SWAP1 LOG1 POP POP POP POP JUMP JUMPDEST PUSH2 0x18A1 PUSH2 0x1EEB JUMP JUMPDEST PUSH1 0x3 SSTORE JUMP JUMPDEST PUSH1 0x2 DUP2 PUSH1 0x40 MLOAD PUSH2 0x18B6 SWAP2 SWAP1 PUSH2 0x44B0 JUMP JUMPDEST SWAP1 DUP2 MSTORE PUSH1 0x40 MLOAD SWAP1 DUP2 SWAP1 SUB PUSH1 0x20 ADD SWAP1 KECCAK256 SLOAD CALLER PUSH1 0x1 PUSH1 0x1 PUSH1 0xA0 SHL SUB SWAP1 SWAP2 AND EQ PUSH2 0x191F JUMPI PUSH1 0x40 MLOAD PUSH3 0x461BCD PUSH1 0xE5 SHL DUP2 MSTORE PUSH1 0x20 PUSH1 0x4 DUP3 ADD MSTORE PUSH1 0x1D PUSH1 0x24 DUP3 ADD MSTORE PUSH32 0x4465726573793A204974206973206E6F74207468652073706F6E736F72000000 PUSH1 0x44 DUP3 ADD MSTORE PUSH1 0x64 ADD PUSH2 0x6D8 JUMP JUMPDEST PUSH1 0x2 DUP2 PUSH1 0x40 MLOAD PUSH2 0x192F SWAP2 SWAP1 PUSH2 0x44B0 JUMP JUMPDEST SWAP1 DUP2 MSTORE PUSH1 0x40 MLOAD SWAP1 DUP2 SWAP1 SUB PUSH1 0x20 ADD SWAP1 KECCAK256 PUSH1 0x7 ADD SLOAD PUSH1 0xFF AND ISZERO PUSH2 0x198B JUMPI PUSH1 0x40 MLOAD PUSH3 0x461BCD PUSH1 0xE5 SHL DUP2 MSTORE PUSH1 0x20 PUSH1 0x4 DUP3 ADD MSTORE PUSH1 0x16 PUSH1 0x24 DUP3 ADD MSTORE PUSH22 0x11195C995CDE4E881C995C5D595CDD0818DB1BDCD959 PUSH1 0x52 SHL PUSH1 0x44 DUP3 ADD MSTORE PUSH1 0x64 ADD PUSH2 0x6D8 JUMP JUMPDEST PUSH1 0x2 DUP2 PUSH1 0x40 MLOAD PUSH2 0x199B SWAP2 SWAP1 PUSH2 0x44B0 JUMP JUMPDEST SWAP1 DUP2 MSTORE PUSH1 0x40 MLOAD SWAP1 DUP2 SWAP1 SUB PUSH1 0x20 ADD DUP2 KECCAK256 SLOAD PUSH1 0x1 PUSH1 0x1 PUSH1 0xA0 SHL SUB AND SWAP1 PUSH2 0x8FC SWAP1 PUSH1 0x2 SWAP1 PUSH2 0x19C7 SWAP1 DUP6 SWAP1 PUSH2 0x44B0 JUMP JUMPDEST SWAP1 DUP2 MSTORE PUSH1 0x40 MLOAD SWAP1 DUP2 SWAP1 SUB PUSH1 0x20 ADD DUP2 KECCAK256 PUSH1 0x8 ADD SLOAD DUP1 ISZERO SWAP1 SWAP3 MUL SWAP2 SWAP1 PUSH1 0x0 DUP2 DUP2 DUP2 DUP6 DUP9 DUP9 CALL SWAP4 POP POP POP POP ISZERO DUP1 ISZERO PUSH2 0x1A00 JUMPI RETURNDATASIZE PUSH1 0x0 DUP1 RETURNDATACOPY RETURNDATASIZE PUSH1 0x0 REVERT JUMPDEST POP PUSH1 0x1 PUSH1 0x2 DUP3 PUSH1 0x40 MLOAD PUSH2 0x1A13 SWAP2 SWAP1 PUSH2 0x44B0 JUMP JUMPDEST SWAP1 DUP2 MSTORE PUSH1 0x40 MLOAD SWAP1 DUP2 SWAP1 SUB PUSH1 0x20 ADD DUP2 KECCAK256 PUSH1 0x7 ADD DUP1 SLOAD SWAP3 ISZERO ISZERO PUSH1 0xFF NOT SWAP1 SWAP4 AND SWAP3 SWAP1 SWAP3 OR SWAP1 SWAP2 SSTORE PUSH1 0x0 SWAP1 PUSH1 0x2 SWAP1 PUSH2 0x1A48 SWAP1 DUP5 SWAP1 PUSH2 0x44B0 JUMP JUMPDEST SWAP1 DUP2 MSTORE PUSH1 0x20 ADD PUSH1 0x40 MLOAD DUP1 SWAP2 SUB SWAP1 KECCAK256 PUSH1 0x8 ADD DUP2 SWAP1 SSTORE POP PUSH32 0xBC5C8CB2024ED254E024E37B09895ECAA07948DD0FD7A08E30B80F559888F2CF DUP2 PUSH1 0x40 MLOAD PUSH2 0x1A8C SWAP2 SWAP1 PUSH2 0x38E3 JUMP JUMPDEST PUSH1 0x40 MLOAD DUP1 SWAP2 SUB SWAP1 LOG1 POP JUMP JUMPDEST PUSH1 0x8 SLOAD PUSH1 0xFF AND ISZERO PUSH2 0x1ABA JUMPI PUSH1 0x40 MLOAD PUSH3 0x461BCD PUSH1 0xE5 SHL DUP2 MSTORE PUSH1 0x4 ADD PUSH2 0x6D8 SWAP1 PUSH2 0x4506 JUMP JUMPDEST PUSH2 0x1ACC DUP9 DUP9 DUP9 DUP9 DUP9 DUP9 DUP8 DUP10 PUSH1 0x1 PUSH2 0x20DA JUMP JUMPDEST POP POP POP POP POP POP POP POP JUMP JUMPDEST PUSH1 0x60 PUSH1 0xA DUP1 SLOAD DUP1 PUSH1 0x20 MUL PUSH1 0x20 ADD PUSH1 0x40 MLOAD SWAP1 DUP2 ADD PUSH1 0x40 MSTORE DUP1 SWAP3 SWAP2 SWAP1 DUP2 DUP2 MSTORE PUSH1 0x20 ADD PUSH1 0x0 SWAP1 JUMPDEST DUP3 DUP3 LT ISZERO PUSH2 0x1BA6 JUMPI DUP4 DUP3 SWAP1 PUSH1 0x0 MSTORE PUSH1 0x20 PUSH1 0x0 KECCAK256 ADD DUP1 SLOAD PUSH2 0x1B19 SWAP1 PUSH2 0x44CC JUMP JUMPDEST DUP1 PUSH1 0x1F ADD PUSH1 0x20 DUP1 SWAP2 DIV MUL PUSH1 0x20 ADD PUSH1 0x40 MLOAD SWAP1 DUP2 ADD PUSH1 0x40 MSTORE DUP1 SWAP3 SWAP2 SWAP1 DUP2 DUP2 MSTORE PUSH1 0x20 ADD DUP3 DUP1 SLOAD PUSH2 0x1B45 SWAP1 PUSH2 0x44CC JUMP JUMPDEST DUP1 ISZERO PUSH2 0x1B92 JUMPI DUP1 PUSH1 0x1F LT PUSH2 0x1B67 JUMPI PUSH2 0x100 DUP1 DUP4 SLOAD DIV MUL DUP4 MSTORE SWAP2 PUSH1 0x20 ADD SWAP2 PUSH2 0x1B92 JUMP JUMPDEST DUP3 ADD SWAP2 SWAP1 PUSH1 0x0 MSTORE PUSH1 0x20 PUSH1 0x0 KECCAK256 SWAP1 JUMPDEST DUP2 SLOAD DUP2 MSTORE SWAP1 PUSH1 0x1 ADD SWAP1 PUSH1 0x20 ADD DUP1 DUP4 GT PUSH2 0x1B75 JUMPI DUP3 SWAP1 SUB PUSH1 0x1F AND DUP3 ADD SWAP2 JUMPDEST POP POP POP POP POP DUP2 MSTORE PUSH1 0x20 ADD SWAP1 PUSH1 0x1 ADD SWAP1 PUSH2 0x1AFA JUMP JUMPDEST POP POP POP POP SWAP1 POP SWAP1 JUMP JUMPDEST PUSH2 0x1BB7 PUSH2 0x1EEB JUMP JUMPDEST PUSH2 0x1BC0 DUP2 PUSH2 0x1499 JUMP JUMPDEST PUSH2 0x1C05 JUMPI PUSH1 0x40 MLOAD PUSH3 0x461BCD PUSH1 0xE5 SHL DUP2 MSTORE PUSH1 0x20 PUSH1 0x4 DUP3 ADD MSTORE PUSH1 0x16 PUSH1 0x24 DUP3 ADD MSTORE PUSH22 0x151BDAD95B881B9BDD081A5B881DDA1A5D195B1A5CDD PUSH1 0x52 SHL PUSH1 0x44 DUP3 ADD MSTORE PUSH1 0x64 ADD PUSH2 0x6D8 JUMP JUMPDEST PUSH1 0x0 JUMPDEST PUSH1 0x5 SLOAD DUP2 LT ISZERO PUSH2 0x1D0C JUMPI DUP2 PUSH1 0x1 PUSH1 0x1 PUSH1 0xA0 SHL SUB AND PUSH1 0x5 DUP3 DUP2 SLOAD DUP2 LT PUSH2 0x1C2F JUMPI PUSH2 0x1C2F PUSH2 0x4532 JUMP JUMPDEST PUSH1 0x0 SWAP2 DUP3 MSTORE PUSH1 0x20 SWAP1 SWAP2 KECCAK256 ADD SLOAD PUSH1 0x1 PUSH1 0x1 PUSH1 0xA0 SHL SUB AND SUB PUSH2 0x1CFA JUMPI PUSH1 0x5 DUP1 SLOAD PUSH2 0x1C59 SWAP1 PUSH1 0x1 SWAP1 PUSH2 0x470E JUMP JUMPDEST DUP2 SLOAD DUP2 LT PUSH2 0x1C69 JUMPI PUSH2 0x1C69 PUSH2 0x4532 JUMP JUMPDEST PUSH1 0x0 SWAP2 DUP3 MSTORE PUSH1 0x20 SWAP1 SWAP2 KECCAK256 ADD SLOAD PUSH1 0x5 DUP1 SLOAD PUSH1 0x1 PUSH1 0x1 PUSH1 0xA0 SHL SUB SWAP1 SWAP3 AND SWAP2 DUP4 SWAP1 DUP2 LT PUSH2 0x1C95 JUMPI PUSH2 0x1C95 PUSH2 0x4532 JUMP JUMPDEST SWAP1 PUSH1 0x0 MSTORE PUSH1 0x20 PUSH1 0x0 KECCAK256 ADD PUSH1 0x0 PUSH2 0x100 EXP DUP2 SLOAD DUP2 PUSH1 0x1 PUSH1 0x1 PUSH1 0xA0 SHL SUB MUL NOT AND SWAP1 DUP4 PUSH1 0x1 PUSH1 0x1 PUSH1 0xA0 SHL SUB AND MUL OR SWAP1 SSTORE POP PUSH1 0x5 DUP1 SLOAD DUP1 PUSH2 0x1CD4 JUMPI PUSH2 0x1CD4 PUSH2 0x4721 JUMP JUMPDEST PUSH1 0x0 DUP3 DUP2 MSTORE PUSH1 0x20 SWAP1 KECCAK256 DUP2 ADD PUSH1 0x0 NOT SWAP1 DUP2 ADD DUP1 SLOAD PUSH1 0x1 PUSH1 0x1 PUSH1 0xA0 SHL SUB NOT AND SWAP1 SSTORE ADD SWAP1 SSTORE POP POP JUMP JUMPDEST DUP1 PUSH2 0x1D04 DUP2 PUSH2 0x45EB JUMP JUMPDEST SWAP2 POP POP PUSH2 0x1C08 JUMP JUMPDEST POP POP JUMP JUMPDEST PUSH1 0x60 PUSH1 0x6 DUP1 SLOAD DUP1 PUSH1 0x20 MUL PUSH1 0x20 ADD PUSH1 0x40 MLOAD SWAP1 DUP2 ADD PUSH1 0x40 MSTORE DUP1 SWAP3 SWAP2 SWAP1 DUP2 DUP2 MSTORE PUSH1 0x20 ADD PUSH1 0x0 SWAP1 JUMPDEST DUP3 DUP3 LT ISZERO PUSH2 0x1BA6 JUMPI DUP4 DUP3 SWAP1 PUSH1 0x0 MSTORE PUSH1 0x20 PUSH1 0x0 KECCAK256 ADD DUP1 SLOAD PUSH2 0x1D53 SWAP1 PUSH2 0x44CC JUMP JUMPDEST DUP1 PUSH1 0x1F ADD PUSH1 0x20 DUP1 SWAP2 DIV MUL PUSH1 0x20 ADD PUSH1 0x40 MLOAD SWAP1 DUP2 ADD PUSH1 0x40 MSTORE DUP1 SWAP3 SWAP2 SWAP1 DUP2 DUP2 MSTORE PUSH1 0x20 ADD DUP3 DUP1 SLOAD PUSH2 0x1D7F SWAP1 PUSH2 0x44CC JUMP JUMPDEST DUP1 ISZERO PUSH2 0x1DCC JUMPI DUP1 PUSH1 0x1F LT PUSH2 0x1DA1 JUMPI PUSH2 0x100 DUP1 DUP4 SLOAD DIV MUL DUP4 MSTORE SWAP2 PUSH1 0x20 ADD SWAP2 PUSH2 0x1DCC JUMP JUMPDEST DUP3 ADD SWAP2 SWAP1 PUSH1 0x0 MSTORE PUSH1 0x20 PUSH1 0x0 KECCAK256 SWAP1 JUMPDEST DUP2 SLOAD DUP2 MSTORE SWAP1 PUSH1 0x1 ADD SWAP1 PUSH1 0x20 ADD DUP1 DUP4 GT PUSH2 0x1DAF JUMPI DUP3 SWAP1 SUB PUSH1 0x1F AND DUP3 ADD SWAP2 JUMPDEST POP POP POP POP POP DUP2 MSTORE PUSH1 0x20 ADD SWAP1 PUSH1 0x1 ADD SWAP1 PUSH2 0x1D34 JUMP JUMPDEST PUSH1 0x60 PUSH1 0x5 DUP1 SLOAD DUP1 PUSH1 0x20 MUL PUSH1 0x20 ADD PUSH1 0x40 MLOAD SWAP1 DUP2 ADD PUSH1 0x40 MSTORE DUP1 SWAP3 SWAP2 SWAP1 DUP2 DUP2 MSTORE PUSH1 0x20 ADD DUP3 DUP1 SLOAD DUP1 ISZERO PUSH2 0x1E38 JUMPI PUSH1 0x20 MUL DUP3 ADD SWAP2 SWAP1 PUSH1 0x0 MSTORE PUSH1 0x20 PUSH1 0x0 KECCAK256 SWAP1 JUMPDEST DUP2 SLOAD PUSH1 0x1 PUSH1 0x1 PUSH1 0xA0 SHL SUB AND DUP2 MSTORE PUSH1 0x1 SWAP1 SWAP2 ADD SWAP1 PUSH1 0x20 ADD DUP1 DUP4 GT PUSH2 0x1E1A JUMPI JUMPDEST POP POP POP POP POP SWAP1 POP SWAP1 JUMP JUMPDEST PUSH1 0x0 PUSH2 0x1E4C PUSH2 0x2027 JUMP JUMPDEST PUSH2 0x1E56 DUP3 CALLVALUE PUSH2 0x2070 JUMP JUMPDEST SWAP1 POP JUMPDEST SWAP2 SWAP1 POP JUMP JUMPDEST PUSH1 0x0 PUSH2 0x1E68 PUSH2 0x2027 JUMP JUMPDEST PUSH2 0x1E56 DUP3 CALLVALUE PUSH2 0x2079 JUMP JUMPDEST PUSH2 0x1E7A PUSH2 0x1EEB JUMP JUMPDEST PUSH1 0x1 PUSH1 0x1 PUSH1 0xA0 SHL SUB DUP2 AND PUSH2 0x1EDF JUMPI PUSH1 0x40 MLOAD PUSH3 0x461BCD PUSH1 0xE5 SHL DUP2 MSTORE PUSH1 0x20 PUSH1 0x4 DUP3 ADD MSTORE PUSH1 0x26 PUSH1 0x24 DUP3 ADD MSTORE PUSH32 0x4F776E61626C653A206E6577206F776E657220697320746865207A65726F2061 PUSH1 0x44 DUP3 ADD MSTORE PUSH6 0x646472657373 PUSH1 0xD0 SHL PUSH1 0x64 DUP3 ADD MSTORE PUSH1 0x84 ADD PUSH2 0x6D8 JUMP JUMPDEST PUSH2 0x1EE8 DUP2 PUSH2 0x1FD7 JUMP JUMPDEST POP JUMP JUMPDEST PUSH1 0x0 SLOAD PUSH1 0x1 PUSH1 0x1 PUSH1 0xA0 SHL SUB AND CALLER EQ PUSH2 0x745 JUMPI PUSH1 0x40 MLOAD PUSH3 0x461BCD PUSH1 0xE5 SHL DUP2 MSTORE PUSH1 0x20 PUSH1 0x4 DUP3 ADD DUP2 SWAP1 MSTORE PUSH1 0x24 DUP3 ADD MSTORE PUSH32 0x4F776E61626C653A2063616C6C6572206973206E6F7420746865206F776E6572 PUSH1 0x44 DUP3 ADD MSTORE PUSH1 0x64 ADD PUSH2 0x6D8 JUMP JUMPDEST PUSH1 0x60 PUSH1 0x0 PUSH2 0x1F52 DUP4 PUSH2 0x2983 JUMP JUMPDEST PUSH1 0x1 ADD SWAP1 POP PUSH1 0x0 DUP2 PUSH1 0x1 PUSH1 0x1 PUSH1 0x40 SHL SUB DUP2 GT ISZERO PUSH2 0x1F71 JUMPI PUSH2 0x1F71 PUSH2 0x392F JUMP JUMPDEST PUSH1 0x40 MLOAD SWAP1 DUP1 DUP3 MSTORE DUP1 PUSH1 0x1F ADD PUSH1 0x1F NOT AND PUSH1 0x20 ADD DUP3 ADD PUSH1 0x40 MSTORE DUP1 ISZERO PUSH2 0x1F9B JUMPI PUSH1 0x20 DUP3 ADD DUP2 DUP1 CALLDATASIZE DUP4 CALLDATACOPY ADD SWAP1 POP JUMPDEST POP SWAP1 POP DUP2 DUP2 ADD PUSH1 0x20 ADD JUMPDEST PUSH1 0x0 NOT ADD PUSH16 0x181899199A1A9B1B9C1CB0B131B232B3 PUSH1 0x81 SHL PUSH1 0xA DUP7 MOD BYTE DUP2 MSTORE8 PUSH1 0xA DUP6 DIV SWAP5 POP DUP5 PUSH2 0x1FA5 JUMPI POP SWAP4 SWAP3 POP POP POP JUMP JUMPDEST PUSH1 0x0 DUP1 SLOAD PUSH1 0x1 PUSH1 0x1 PUSH1 0xA0 SHL SUB DUP4 DUP2 AND PUSH1 0x1 PUSH1 0x1 PUSH1 0xA0 SHL SUB NOT DUP4 AND DUP2 OR DUP5 SSTORE PUSH1 0x40 MLOAD SWAP2 SWAP1 SWAP3 AND SWAP3 DUP4 SWAP2 PUSH32 0x8BE0079C531659141344CD1FD0A4F28419497F9722A3DAAFE3B4186F6B6457E0 SWAP2 SWAP1 LOG3 POP POP JUMP JUMPDEST CALLER PUSH1 0x1 PUSH1 0x1 PUSH1 0xA0 SHL SUB PUSH32 0x0 AND EQ PUSH2 0x745 JUMPI PUSH1 0x40 MLOAD PUSH4 0x4CA88867 PUSH1 0xE0 SHL DUP2 MSTORE PUSH1 0x4 ADD PUSH1 0x40 MLOAD DUP1 SWAP2 SUB SWAP1 REVERT JUMPDEST PUSH1 0x1 JUMPDEST SWAP3 SWAP2 POP POP JUMP JUMPDEST PUSH1 0x8 SLOAD PUSH1 0x0 SWAP1 PUSH1 0xFF AND ISZERO PUSH2 0x209F JUMPI PUSH1 0x40 MLOAD PUSH3 0x461BCD PUSH1 0xE5 SHL DUP2 MSTORE PUSH1 0x4 ADD PUSH2 0x6D8 SWAP1 PUSH2 0x4506 JUMP JUMPDEST PUSH1 0x3 SLOAD DUP4 PUSH1 0x20 ADD CALLDATALOAD SUB PUSH2 0x20BC JUMPI PUSH2 0x20B5 DUP4 PUSH2 0x2A5B JUMP JUMPDEST SWAP1 POP PUSH2 0x2073 JUMP JUMPDEST PUSH1 0x4 SLOAD DUP4 PUSH1 0x20 ADD CALLDATALOAD SUB PUSH2 0x20D2 JUMPI PUSH2 0x20B5 DUP4 PUSH2 0x2EBE JUMP JUMPDEST POP PUSH1 0x0 PUSH2 0x2073 JUMP JUMPDEST PUSH1 0x0 DUP10 MLOAD GT PUSH2 0x213F JUMPI PUSH1 0x40 MLOAD PUSH3 0x461BCD PUSH1 0xE5 SHL DUP2 MSTORE PUSH1 0x20 PUSH1 0x4 DUP3 ADD MSTORE PUSH1 0x2B PUSH1 0x24 DUP3 ADD MSTORE PUSH32 0x4465726573793A20526571756573744E616D652063616E6E6F74206265206E75 PUSH1 0x44 DUP3 ADD MSTORE PUSH11 0x6C6C206F7220656D707479 PUSH1 0xA8 SHL PUSH1 0x64 DUP3 ADD MSTORE PUSH1 0x84 ADD PUSH2 0x6D8 JUMP JUMPDEST PUSH1 0x0 DUP9 MLOAD GT PUSH2 0x2190 JUMPI PUSH1 0x40 MLOAD PUSH3 0x461BCD PUSH1 0xE5 SHL DUP2 MSTORE PUSH1 0x20 PUSH1 0x4 DUP3 ADD DUP2 SWAP1 MSTORE PUSH1 0x24 DUP3 ADD MSTORE PUSH32 0x4465726573793A205265766965776572732063616E6E6F74206265206E756C6C PUSH1 0x44 DUP3 ADD MSTORE PUSH1 0x64 ADD PUSH2 0x6D8 JUMP JUMPDEST PUSH1 0x0 DUP8 MLOAD GT PUSH2 0x21ED JUMPI PUSH1 0x40 MLOAD PUSH3 0x461BCD PUSH1 0xE5 SHL DUP2 MSTORE PUSH1 0x20 PUSH1 0x4 DUP3 ADD MSTORE PUSH1 0x24 DUP1 DUP3 ADD MSTORE PUSH32 0x4465726573793A20487970657263657274204944732063616E6E6F7420626520 PUSH1 0x44 DUP3 ADD MSTORE PUSH4 0x1B9D5B1B PUSH1 0xE2 SHL PUSH1 0x64 DUP3 ADD MSTORE PUSH1 0x84 ADD PUSH2 0x6D8 JUMP JUMPDEST PUSH1 0x0 DUP7 MLOAD GT PUSH2 0x2254 JUMPI PUSH1 0x40 MLOAD PUSH3 0x461BCD PUSH1 0xE5 SHL DUP2 MSTORE PUSH1 0x20 PUSH1 0x4 DUP3 ADD MSTORE PUSH1 0x2D PUSH1 0x24 DUP3 ADD MSTORE PUSH32 0x4465726573793A20487970657263657274732049504653206861736865732063 PUSH1 0x44 DUP3 ADD MSTORE PUSH13 0x185B9B9BDD081899481B9D5B1B PUSH1 0x9A SHL PUSH1 0x64 DUP3 ADD MSTORE PUSH1 0x84 ADD PUSH2 0x6D8 JUMP JUMPDEST DUP6 MLOAD DUP8 MLOAD EQ PUSH2 0x22E0 JUMPI PUSH1 0x40 MLOAD PUSH3 0x461BCD PUSH1 0xE5 SHL DUP2 MSTORE PUSH1 0x20 PUSH1 0x4 DUP3 ADD MSTORE PUSH1 0x4C PUSH1 0x24 DUP3 ADD MSTORE PUSH32 0x4465726573793A2048797065726365727449447320616E642048797065726365 PUSH1 0x44 DUP3 ADD MSTORE PUSH32 0x727449504653486173686573206172726179206D757374206861766520746865 PUSH1 0x64 DUP3 ADD MSTORE PUSH12 0x40E6C2DACA40D8CADCCEE8D PUSH1 0xA3 SHL PUSH1 0x84 DUP3 ADD MSTORE PUSH1 0xA4 ADD PUSH2 0x6D8 JUMP JUMPDEST PUSH1 0x0 PUSH1 0x9 DUP5 PUSH1 0x40 MLOAD PUSH2 0x22F2 SWAP2 SWAP1 PUSH2 0x44B0 JUMP JUMPDEST SWAP1 DUP2 MSTORE PUSH1 0x40 MLOAD SWAP1 DUP2 SWAP1 SUB PUSH1 0x20 ADD SWAP1 KECCAK256 SLOAD GT PUSH2 0x235D JUMPI PUSH1 0x40 MLOAD PUSH3 0x461BCD PUSH1 0xE5 SHL DUP2 MSTORE PUSH1 0x20 PUSH1 0x4 DUP3 ADD MSTORE PUSH1 0x25 PUSH1 0x24 DUP3 ADD MSTORE PUSH32 0x4465726573793A20526576696577466F726D4E616D6520646F6573206E6F7420 PUSH1 0x44 DUP3 ADD MSTORE PUSH5 0x195E1A5CDD PUSH1 0xDA SHL PUSH1 0x64 DUP3 ADD MSTORE PUSH1 0x84 ADD PUSH2 0x6D8 JUMP JUMPDEST PUSH1 0x0 PUSH1 0x1 PUSH1 0x1 PUSH1 0xA0 SHL SUB AND PUSH1 0x2 DUP11 PUSH1 0x40 MLOAD PUSH2 0x2378 SWAP2 SWAP1 PUSH2 0x44B0 JUMP JUMPDEST SWAP1 DUP2 MSTORE PUSH1 0x40 MLOAD SWAP1 DUP2 SWAP1 SUB PUSH1 0x20 ADD SWAP1 KECCAK256 SLOAD PUSH1 0x1 PUSH1 0x1 PUSH1 0xA0 SHL SUB AND EQ PUSH2 0x23DE JUMPI PUSH1 0x40 MLOAD PUSH3 0x461BCD PUSH1 0xE5 SHL DUP2 MSTORE PUSH1 0x20 PUSH1 0x4 DUP3 ADD MSTORE PUSH1 0x17 PUSH1 0x24 DUP3 ADD MSTORE PUSH32 0x4465726573793A204E616D65206475706C696361746564000000000000000000 PUSH1 0x44 DUP3 ADD MSTORE PUSH1 0x64 ADD PUSH2 0x6D8 JUMP JUMPDEST PUSH2 0x23E7 DUP3 PUSH2 0x1499 JUMP JUMPDEST PUSH2 0x2433 JUMPI PUSH1 0x40 MLOAD PUSH3 0x461BCD PUSH1 0xE5 SHL DUP2 MSTORE PUSH1 0x20 PUSH1 0x4 DUP3 ADD DUP2 SWAP1 MSTORE PUSH1 0x24 DUP3 ADD MSTORE PUSH32 0x4465726573793A20546F6B656E206973206E6F742077686974656C6973746564 PUSH1 0x44 DUP3 ADD MSTORE PUSH1 0x64 ADD PUSH2 0x6D8 JUMP JUMPDEST PUSH1 0x0 DUP2 ISZERO PUSH2 0x266E JUMPI PUSH1 0x0 DUP6 GT PUSH2 0x24BF JUMPI PUSH1 0x40 MLOAD PUSH3 0x461BCD PUSH1 0xE5 SHL DUP2 MSTORE PUSH1 0x20 PUSH1 0x4 DUP3 ADD MSTORE PUSH1 0x45 PUSH1 0x24 DUP3 ADD MSTORE PUSH32 0x4465726573793A20726577617264506572526576696577206D75737420626520 PUSH1 0x44 DUP3 ADD MSTORE PUSH32 0x67726561746572207468616E207A65726F20666F722070617961626C65207265 PUSH1 0x64 DUP3 ADD MSTORE PUSH5 0x1C5D595CDD PUSH1 0xDA SHL PUSH1 0x84 DUP3 ADD MSTORE PUSH1 0xA4 ADD PUSH2 0x6D8 JUMP JUMPDEST PUSH1 0x1 PUSH1 0x1 PUSH1 0xA0 SHL SUB DUP4 AND PUSH2 0x253C JUMPI DUP5 DUP9 MLOAD DUP11 MLOAD PUSH2 0x24DC SWAP2 SWAP1 PUSH2 0x4737 JUMP JUMPDEST PUSH2 0x24E6 SWAP2 SWAP1 PUSH2 0x4737 JUMP JUMPDEST CALLVALUE LT ISZERO PUSH2 0x2535 JUMPI PUSH1 0x40 MLOAD PUSH3 0x461BCD PUSH1 0xE5 SHL DUP2 MSTORE PUSH1 0x20 PUSH1 0x4 DUP3 ADD MSTORE PUSH1 0x19 PUSH1 0x24 DUP3 ADD MSTORE PUSH32 0x4465726573793A206D73672E76616C756520696E76616C696400000000000000 PUSH1 0x44 DUP3 ADD MSTORE PUSH1 0x64 ADD PUSH2 0x6D8 JUMP JUMPDEST POP CALLVALUE PUSH2 0x26E2 JUMP JUMPDEST CALLVALUE ISZERO PUSH2 0x258A JUMPI PUSH1 0x40 MLOAD PUSH3 0x461BCD PUSH1 0xE5 SHL DUP2 MSTORE PUSH1 0x20 PUSH1 0x4 DUP3 ADD MSTORE PUSH1 0x1C PUSH1 0x24 DUP3 ADD MSTORE PUSH32 0x4465726573793A206D73672E76616C756520697320696E76616C696400000000 PUSH1 0x44 DUP3 ADD MSTORE PUSH1 0x64 ADD PUSH2 0x6D8 JUMP JUMPDEST DUP5 DUP9 MLOAD DUP11 MLOAD PUSH2 0x2599 SWAP2 SWAP1 PUSH2 0x4737 JUMP JUMPDEST PUSH2 0x25A3 SWAP2 SWAP1 PUSH2 0x4737 JUMP JUMPDEST PUSH1 0x40 MLOAD PUSH4 0x23B872DD PUSH1 0xE0 SHL DUP2 MSTORE CALLER PUSH1 0x4 DUP3 ADD MSTORE ADDRESS PUSH1 0x24 DUP3 ADD MSTORE PUSH1 0x44 DUP2 ADD DUP3 SWAP1 MSTORE SWAP1 SWAP2 POP PUSH1 0x1 PUSH1 0x1 PUSH1 0xA0 SHL SUB DUP5 AND SWAP1 PUSH4 0x23B872DD SWAP1 PUSH1 0x64 ADD PUSH1 0x20 PUSH1 0x40 MLOAD DUP1 DUP4 SUB DUP2 PUSH1 0x0 DUP8 GAS CALL ISZERO DUP1 ISZERO PUSH2 0x25F9 JUMPI RETURNDATASIZE PUSH1 0x0 DUP1 RETURNDATACOPY RETURNDATASIZE PUSH1 0x0 REVERT JUMPDEST POP POP POP POP PUSH1 0x40 MLOAD RETURNDATASIZE PUSH1 0x1F NOT PUSH1 0x1F DUP3 ADD AND DUP3 ADD DUP1 PUSH1 0x40 MSTORE POP DUP2 ADD SWAP1 PUSH2 0x261D SWAP2 SWAP1 PUSH2 0x475C JUMP JUMPDEST PUSH2 0x2669 JUMPI PUSH1 0x40 MLOAD PUSH3 0x461BCD PUSH1 0xE5 SHL DUP2 MSTORE PUSH1 0x20 PUSH1 0x4 DUP3 ADD MSTORE PUSH1 0x1D PUSH1 0x24 DUP3 ADD MSTORE PUSH32 0x4465726573793A20546F6B656E207472616E73666572206661696C6564000000 PUSH1 0x44 DUP3 ADD MSTORE PUSH1 0x64 ADD PUSH2 0x6D8 JUMP JUMPDEST PUSH2 0x26E2 JUMP JUMPDEST DUP5 ISZERO PUSH2 0x26E2 JUMPI PUSH1 0x40 MLOAD PUSH3 0x461BCD PUSH1 0xE5 SHL DUP2 MSTORE PUSH1 0x20 PUSH1 0x4 DUP3 ADD MSTORE PUSH1 0x3C PUSH1 0x24 DUP3 ADD MSTORE PUSH32 0x4465726573793A20726577617264506572526576696577206D75737420626520 PUSH1 0x44 DUP3 ADD MSTORE PUSH32 0x7A65726F20666F72206E6F6E2D70617961626C65207265717565737400000000 PUSH1 0x64 DUP3 ADD MSTORE PUSH1 0x84 ADD PUSH2 0x6D8 JUMP JUMPDEST CALLER PUSH1 0x2 DUP12 PUSH1 0x40 MLOAD PUSH2 0x26F3 SWAP2 SWAP1 PUSH2 0x44B0 JUMP JUMPDEST SWAP1 DUP2 MSTORE PUSH1 0x40 MLOAD SWAP1 DUP2 SWAP1 SUB PUSH1 0x20 ADD DUP2 KECCAK256 DUP1 SLOAD PUSH1 0x1 PUSH1 0x1 PUSH1 0xA0 SHL SUB SWAP4 SWAP1 SWAP4 AND PUSH1 0x1 PUSH1 0x1 PUSH1 0xA0 SHL SUB NOT SWAP1 SWAP4 AND SWAP3 SWAP1 SWAP3 OR SWAP1 SWAP2 SSTORE DUP10 SWAP1 PUSH1 0x2 SWAP1 PUSH2 0x2733 SWAP1 DUP14 SWAP1 PUSH2 0x44B0 JUMP JUMPDEST SWAP1 DUP2 MSTORE PUSH1 0x20 ADD PUSH1 0x40 MLOAD DUP1 SWAP2 SUB SWAP1 KECCAK256 PUSH1 0x1 ADD SWAP1 DUP1 MLOAD SWAP1 PUSH1 0x20 ADD SWAP1 PUSH2 0x2757 SWAP3 SWAP2 SWAP1 PUSH2 0x375C JUMP JUMPDEST POP DUP8 PUSH1 0x2 DUP12 PUSH1 0x40 MLOAD PUSH2 0x2769 SWAP2 SWAP1 PUSH2 0x44B0 JUMP JUMPDEST SWAP1 DUP2 MSTORE PUSH1 0x20 ADD PUSH1 0x40 MLOAD DUP1 SWAP2 SUB SWAP1 KECCAK256 PUSH1 0x2 ADD SWAP1 DUP1 MLOAD SWAP1 PUSH1 0x20 ADD SWAP1 PUSH2 0x278D SWAP3 SWAP2 SWAP1 PUSH2 0x37B1 JUMP JUMPDEST POP DUP7 PUSH1 0x2 DUP12 PUSH1 0x40 MLOAD PUSH2 0x279F SWAP2 SWAP1 PUSH2 0x44B0 JUMP JUMPDEST SWAP1 DUP2 MSTORE PUSH1 0x20 ADD PUSH1 0x40 MLOAD DUP1 SWAP2 SUB SWAP1 KECCAK256 PUSH1 0x3 ADD SWAP1 DUP1 MLOAD SWAP1 PUSH1 0x20 ADD SWAP1 PUSH2 0x27C3 SWAP3 SWAP2 SWAP1 PUSH2 0x35FD JUMP JUMPDEST POP DUP6 PUSH1 0x2 DUP12 PUSH1 0x40 MLOAD PUSH2 0x27D5 SWAP2 SWAP1 PUSH2 0x44B0 JUMP JUMPDEST SWAP1 DUP2 MSTORE PUSH1 0x20 ADD PUSH1 0x40 MLOAD DUP1 SWAP2 SUB SWAP1 KECCAK256 PUSH1 0x4 ADD SWAP1 DUP2 PUSH2 0x27F2 SWAP2 SWAP1 PUSH2 0x464F JUMP JUMPDEST POP DUP2 PUSH2 0x27FF JUMPI PUSH1 0x0 PUSH2 0x2801 JUMP JUMPDEST DUP5 JUMPDEST PUSH1 0x2 DUP12 PUSH1 0x40 MLOAD PUSH2 0x2811 SWAP2 SWAP1 PUSH2 0x44B0 JUMP JUMPDEST SWAP1 DUP2 MSTORE PUSH1 0x20 ADD PUSH1 0x40 MLOAD DUP1 SWAP2 SUB SWAP1 KECCAK256 PUSH1 0x5 ADD DUP2 SWAP1 SSTORE POP PUSH1 0x0 PUSH1 0x2 DUP12 PUSH1 0x40 MLOAD PUSH2 0x2838 SWAP2 SWAP1 PUSH2 0x44B0 JUMP JUMPDEST SWAP1 DUP2 MSTORE PUSH1 0x40 MLOAD SWAP1 DUP2 SWAP1 SUB PUSH1 0x20 ADD DUP2 KECCAK256 PUSH1 0x7 ADD DUP1 SLOAD SWAP3 ISZERO ISZERO PUSH1 0xFF NOT SWAP1 SWAP4 AND SWAP3 SWAP1 SWAP3 OR SWAP1 SWAP2 SSTORE DUP4 SWAP1 PUSH1 0x2 SWAP1 PUSH2 0x286C SWAP1 DUP14 SWAP1 PUSH2 0x44B0 JUMP JUMPDEST SWAP1 DUP2 MSTORE PUSH1 0x20 ADD PUSH1 0x40 MLOAD DUP1 SWAP2 SUB SWAP1 KECCAK256 PUSH1 0x7 ADD PUSH1 0x1 PUSH2 0x100 EXP DUP2 SLOAD DUP2 PUSH1 0x1 PUSH1 0x1 PUSH1 0xA0 SHL SUB MUL NOT AND SWAP1 DUP4 PUSH1 0x1 PUSH1 0x1 PUSH1 0xA0 SHL SUB AND MUL OR SWAP1 SSTORE POP DUP2 PUSH2 0x28AD JUMPI PUSH1 0x0 PUSH2 0x28AF JUMP JUMPDEST DUP1 JUMPDEST PUSH1 0x2 DUP12 PUSH1 0x40 MLOAD PUSH2 0x28BF SWAP2 SWAP1 PUSH2 0x44B0 JUMP JUMPDEST SWAP1 DUP2 MSTORE PUSH1 0x20 ADD PUSH1 0x40 MLOAD DUP1 SWAP2 SUB SWAP1 KECCAK256 PUSH1 0x8 ADD DUP2 SWAP1 SSTORE POP DUP4 PUSH1 0x2 DUP12 PUSH1 0x40 MLOAD PUSH2 0x28E5 SWAP2 SWAP1 PUSH2 0x44B0 JUMP JUMPDEST SWAP1 DUP2 MSTORE PUSH1 0x20 ADD PUSH1 0x40 MLOAD DUP1 SWAP2 SUB SWAP1 KECCAK256 PUSH1 0x9 ADD SWAP1 DUP2 PUSH2 0x2902 SWAP2 SWAP1 PUSH2 0x464F JUMP JUMPDEST POP PUSH1 0x6 DUP1 SLOAD PUSH1 0x1 DUP2 ADD DUP3 SSTORE PUSH1 0x0 SWAP2 SWAP1 SWAP2 MSTORE PUSH32 0xF652222313E28459528D920B65115C16C04F3EFC82AAEDC97BE59F3F377C0D3F ADD PUSH2 0x293F DUP12 DUP3 PUSH2 0x464F JUMP JUMPDEST POP PUSH32 0x448FEABBF5BB385EB3EA2CB16D90B1CB3B4C8936E399CF7A10E7B8946EEC667 DUP11 PUSH1 0x40 MLOAD PUSH2 0x296F SWAP2 SWAP1 PUSH2 0x38E3 JUMP JUMPDEST PUSH1 0x40 MLOAD DUP1 SWAP2 SUB SWAP1 LOG1 POP POP POP POP POP POP POP POP POP POP JUMP JUMPDEST PUSH1 0x0 DUP1 PUSH19 0x184F03E93FF9F4DAA797ED6E38ED64BF6A1F01 PUSH1 0x40 SHL DUP4 LT PUSH2 0x29C2 JUMPI PUSH19 0x184F03E93FF9F4DAA797ED6E38ED64BF6A1F01 PUSH1 0x40 SHL DUP4 DIV SWAP3 POP PUSH1 0x40 ADD JUMPDEST PUSH14 0x4EE2D6D415B85ACEF8100000000 DUP4 LT PUSH2 0x29EE JUMPI PUSH14 0x4EE2D6D415B85ACEF8100000000 DUP4 DIV SWAP3 POP PUSH1 0x20 ADD JUMPDEST PUSH7 0x2386F26FC10000 DUP4 LT PUSH2 0x2A0C JUMPI PUSH7 0x2386F26FC10000 DUP4 DIV SWAP3 POP PUSH1 0x10 ADD JUMPDEST PUSH4 0x5F5E100 DUP4 LT PUSH2 0x2A24 JUMPI PUSH4 0x5F5E100 DUP4 DIV SWAP3 POP PUSH1 0x8 ADD JUMPDEST PUSH2 0x2710 DUP4 LT PUSH2 0x2A38 JUMPI PUSH2 0x2710 DUP4 DIV SWAP3 POP PUSH1 0x4 ADD JUMPDEST PUSH1 0x64 DUP4 LT PUSH2 0x2A4A JUMPI PUSH1 0x64 DUP4 DIV SWAP3 POP PUSH1 0x2 ADD JUMPDEST PUSH1 0xA DUP4 LT PUSH2 0x2073 JUMPI PUSH1 0x1 ADD SWAP3 SWAP2 POP POP JUMP JUMPDEST PUSH1 0x0 DUP1 DUP1 DUP1 PUSH2 0x2A6E PUSH2 0x120 DUP7 ADD DUP7 PUSH2 0x4779 JUMP JUMPDEST DUP2 ADD SWAP1 PUSH2 0x2A7B SWAP2 SWAP1 PUSH2 0x47BF JUMP JUMPDEST POP POP SWAP3 POP SWAP3 POP SWAP3 POP PUSH1 0x0 PUSH1 0x2 DUP5 PUSH1 0x40 MLOAD PUSH2 0x2A95 SWAP2 SWAP1 PUSH2 0x44B0 JUMP JUMPDEST SWAP1 DUP2 MSTORE PUSH1 0x20 ADD PUSH1 0x40 MLOAD DUP1 SWAP2 SUB SWAP1 KECCAK256 SWAP1 POP PUSH1 0x0 PUSH1 0x9 DUP3 PUSH1 0x9 ADD PUSH1 0x40 MLOAD PUSH2 0x2ABA SWAP2 SWAP1 PUSH2 0x455F JUMP JUMPDEST SWAP1 DUP2 MSTORE PUSH1 0x40 MLOAD SWAP1 DUP2 SWAP1 SUB PUSH1 0x20 ADD SWAP1 KECCAK256 SWAP1 POP PUSH1 0x0 PUSH2 0x2ADE PUSH2 0x100 DUP10 ADD PUSH1 0xE0 DUP11 ADD PUSH2 0x3914 JUMP JUMPDEST PUSH1 0x7 DUP5 ADD SLOAD SWAP1 SWAP2 POP DUP9 CALLDATALOAD SWAP1 PUSH1 0x0 SWAP1 PUSH1 0xFF AND ISZERO DUP1 ISZERO PUSH2 0x2B53 JUMPI POP PUSH2 0x2B53 DUP6 PUSH1 0x2 ADD DUP1 SLOAD DUP1 PUSH1 0x20 MUL PUSH1 0x20 ADD PUSH1 0x40 MLOAD SWAP1 DUP2 ADD PUSH1 0x40 MSTORE DUP1 SWAP3 SWAP2 SWAP1 DUP2 DUP2 MSTORE PUSH1 0x20 ADD DUP3 DUP1 SLOAD DUP1 ISZERO PUSH2 0x2B48 JUMPI PUSH1 0x20 MUL DUP3 ADD SWAP2 SWAP1 PUSH1 0x0 MSTORE PUSH1 0x20 PUSH1 0x0 KECCAK256 SWAP1 JUMPDEST DUP2 SLOAD DUP2 MSTORE PUSH1 0x20 ADD SWAP1 PUSH1 0x1 ADD SWAP1 DUP1 DUP4 GT PUSH2 0x2B34 JUMPI JUMPDEST POP POP POP POP POP DUP9 PUSH2 0x3129 JUMP JUMPDEST DUP1 ISZERO PUSH2 0x2B60 JUMPI POP DUP6 MLOAD DUP5 SLOAD EQ JUMPDEST DUP1 ISZERO PUSH2 0x2B71 JUMPI POP PUSH2 0x2B71 DUP4 DUP10 PUSH2 0x317C JUMP JUMPDEST DUP1 ISZERO PUSH2 0x2B83 JUMPI POP PUSH2 0x2B83 DUP4 DUP10 DUP10 PUSH2 0x3220 JUMP JUMPDEST DUP1 ISZERO PUSH2 0x2B94 JUMPI POP PUSH2 0x2B94 DUP5 DUP8 PUSH2 0x331A JUMP JUMPDEST SWAP1 POP DUP1 ISZERO PUSH2 0x2EB1 JUMPI DUP5 PUSH1 0x6 ADD PUSH1 0x40 MLOAD DUP1 PUSH1 0x80 ADD PUSH1 0x40 MSTORE DUP1 DUP6 PUSH1 0x1 PUSH1 0x1 PUSH1 0xA0 SHL SUB AND DUP2 MSTORE PUSH1 0x20 ADD DUP10 DUP2 MSTORE PUSH1 0x20 ADD DUP5 DUP2 MSTORE PUSH1 0x20 ADD PUSH1 0x0 PUSH1 0x1 PUSH1 0x1 PUSH1 0x40 SHL SUB DUP2 GT ISZERO PUSH2 0x2BDF JUMPI PUSH2 0x2BDF PUSH2 0x392F JUMP JUMPDEST PUSH1 0x40 MLOAD SWAP1 DUP1 DUP3 MSTORE DUP1 PUSH1 0x20 MUL PUSH1 0x20 ADD DUP3 ADD PUSH1 0x40 MSTORE DUP1 ISZERO PUSH2 0x2C08 JUMPI DUP2 PUSH1 0x20 ADD PUSH1 0x20 DUP3 MUL DUP1 CALLDATASIZE DUP4 CALLDATACOPY ADD SWAP1 POP JUMPDEST POP SWAP1 MSTORE DUP2 SLOAD PUSH1 0x1 DUP1 DUP3 ADD DUP5 SSTORE PUSH1 0x0 SWAP4 DUP5 MSTORE PUSH1 0x20 SWAP4 DUP5 SWAP1 KECCAK256 DUP4 MLOAD PUSH1 0x4 SWAP1 SWAP4 MUL ADD DUP1 SLOAD PUSH1 0x1 PUSH1 0x1 PUSH1 0xA0 SHL SUB NOT AND PUSH1 0x1 PUSH1 0x1 PUSH1 0xA0 SHL SUB SWAP1 SWAP4 AND SWAP3 SWAP1 SWAP3 OR DUP3 SSTORE DUP3 DUP5 ADD MLOAD SWAP1 DUP3 ADD SSTORE PUSH1 0x40 DUP3 ADD MLOAD PUSH1 0x2 DUP3 ADD SSTORE PUSH1 0x60 DUP3 ADD MLOAD DUP1 MLOAD SWAP3 SWAP4 SWAP2 SWAP3 PUSH2 0x2C71 SWAP3 PUSH1 0x3 DUP6 ADD SWAP3 ADD SWAP1 PUSH2 0x37B1 JUMP JUMPDEST POP POP POP PUSH1 0x5 DUP6 ADD SLOAD ISZERO PUSH2 0x2DB8 JUMPI DUP5 PUSH1 0x5 ADD SLOAD DUP6 PUSH1 0x8 ADD PUSH1 0x0 DUP3 DUP3 SLOAD PUSH2 0x2C96 SWAP2 SWAP1 PUSH2 0x470E JUMP JUMPDEST SWAP1 SWAP2 SSTORE POP POP PUSH1 0x7 DUP6 ADD SLOAD PUSH2 0x100 SWAP1 DIV PUSH1 0x1 PUSH1 0x1 PUSH1 0xA0 SHL SUB AND PUSH2 0x2CF1 JUMPI PUSH1 0x5 DUP6 ADD SLOAD PUSH1 0x40 MLOAD PUSH1 0x1 PUSH1 0x1 PUSH1 0xA0 SHL SUB DUP6 AND SWAP2 DUP1 ISZERO PUSH2 0x8FC MUL SWAP2 PUSH1 0x0 DUP2 DUP2 DUP2 DUP6 DUP9 DUP9 CALL SWAP4 POP POP POP POP ISZERO DUP1 ISZERO PUSH2 0x2CEB JUMPI RETURNDATASIZE PUSH1 0x0 DUP1 RETURNDATACOPY RETURNDATASIZE PUSH1 0x0 REVERT JUMPDEST POP PUSH2 0x2DB8 JUMP JUMPDEST PUSH1 0x7 DUP6 ADD SLOAD PUSH1 0x5 DUP7 ADD SLOAD PUSH1 0x40 MLOAD PUSH4 0xA9059CBB PUSH1 0xE0 SHL DUP2 MSTORE PUSH1 0x1 PUSH1 0x1 PUSH1 0xA0 SHL SUB DUP7 DUP2 AND PUSH1 0x4 DUP4 ADD MSTORE PUSH1 0x24 DUP3 ADD SWAP3 SWAP1 SWAP3 MSTORE PUSH2 0x100 SWAP1 SWAP3 DIV AND SWAP1 PUSH4 0xA9059CBB SWAP1 PUSH1 0x44 ADD PUSH1 0x20 PUSH1 0x40 MLOAD DUP1 DUP4 SUB DUP2 PUSH1 0x0 DUP8 GAS CALL ISZERO DUP1 ISZERO PUSH2 0x2D50 JUMPI RETURNDATASIZE PUSH1 0x0 DUP1 RETURNDATACOPY RETURNDATASIZE PUSH1 0x0 REVERT JUMPDEST POP POP POP POP PUSH1 0x40 MLOAD RETURNDATASIZE PUSH1 0x1F NOT PUSH1 0x1F DUP3 ADD AND DUP3 ADD DUP1 PUSH1 0x40 MSTORE POP DUP2 ADD SWAP1 PUSH2 0x2D74 SWAP2 SWAP1 PUSH2 0x475C JUMP JUMPDEST PUSH2 0x2DB8 JUMPI PUSH1 0x40 MLOAD PUSH3 0x461BCD PUSH1 0xE5 SHL DUP2 MSTORE PUSH1 0x20 PUSH1 0x4 DUP3 ADD MSTORE PUSH1 0x15 PUSH1 0x24 DUP3 ADD MSTORE PUSH21 0x151BDAD95B881D1C985B9CD9995C8819985A5B1959 PUSH1 0x5A SHL PUSH1 0x44 DUP3 ADD MSTORE PUSH1 0x64 ADD PUSH2 0x6D8 JUMP JUMPDEST PUSH1 0x1 SLOAD PUSH1 0x1 PUSH1 0x1 PUSH1 0xA0 SHL SUB AND ISZERO PUSH2 0x2E79 JUMPI PUSH1 0x1 SLOAD PUSH1 0x40 MLOAD PUSH4 0xBB69AB33 PUSH1 0xE0 SHL DUP2 MSTORE PUSH1 0x1 PUSH1 0x1 PUSH1 0xA0 SHL SUB SWAP1 SWAP2 AND SWAP1 PUSH4 0xBB69AB33 SWAP1 PUSH2 0x2DFB SWAP1 DUP14 SWAP1 DUP13 SWAP1 PUSH1 0x4 ADD PUSH2 0x4905 JUMP JUMPDEST PUSH1 0x20 PUSH1 0x40 MLOAD DUP1 DUP4 SUB DUP2 PUSH1 0x0 DUP8 GAS CALL ISZERO DUP1 ISZERO PUSH2 0x2E1A JUMPI RETURNDATASIZE PUSH1 0x0 DUP1 RETURNDATACOPY RETURNDATASIZE PUSH1 0x0 REVERT JUMPDEST POP POP POP POP PUSH1 0x40 MLOAD RETURNDATASIZE PUSH1 0x1F NOT PUSH1 0x1F DUP3 ADD AND DUP3 ADD DUP1 PUSH1 0x40 MSTORE POP DUP2 ADD SWAP1 PUSH2 0x2E3E SWAP2 SWAP1 PUSH2 0x475C JUMP JUMPDEST POP PUSH32 0x253A8677ADAEC417DAE20224E9F7EB1182AED5A01B1938114CB310CD5C5D954D DUP11 DUP10 PUSH1 0x40 MLOAD PUSH2 0x2E70 SWAP3 SWAP2 SWAP1 PUSH2 0x4905 JUMP JUMPDEST PUSH1 0x40 MLOAD DUP1 SWAP2 SUB SWAP1 LOG1 JUMPDEST PUSH32 0x4D6DD501DF538F815F442947C933FC2F545525E75F909B918A6D0701ACC7904C DUP9 PUSH1 0x40 MLOAD PUSH2 0x2EA8 SWAP2 SWAP1 PUSH2 0x38E3 JUMP JUMPDEST PUSH1 0x40 MLOAD DUP1 SWAP2 SUB SWAP1 LOG1 JUMPDEST SWAP10 SWAP9 POP POP POP POP POP POP POP POP POP JUMP JUMPDEST PUSH1 0x0 DUP1 DUP1 DUP1 PUSH2 0x2ED1 PUSH2 0x120 DUP7 ADD DUP7 PUSH2 0x4779 JUMP JUMPDEST DUP2 ADD SWAP1 PUSH2 0x2EDE SWAP2 SWAP1 PUSH2 0x4A22 JUMP JUMPDEST POP POP SWAP3 POP SWAP3 POP SWAP3 POP PUSH1 0x0 PUSH1 0x2 DUP5 PUSH1 0x40 MLOAD PUSH2 0x2EF8 SWAP2 SWAP1 PUSH2 0x44B0 JUMP JUMPDEST SWAP1 DUP2 MSTORE PUSH1 0x40 MLOAD SWAP1 DUP2 SWAP1 SUB PUSH1 0x20 ADD SWAP1 KECCAK256 PUSH1 0x6 DUP2 ADD SLOAD SWAP1 SWAP2 POP ISZERO PUSH2 0x311D JUMPI PUSH1 0x0 JUMPDEST PUSH1 0x6 DUP3 ADD SLOAD DUP2 LT ISZERO PUSH2 0x311B JUMPI DUP7 PUSH1 0xA0 ADD CALLDATALOAD DUP3 PUSH1 0x6 ADD DUP3 DUP2 SLOAD DUP2 LT PUSH2 0x2F3D JUMPI PUSH2 0x2F3D PUSH2 0x4532 JUMP JUMPDEST SWAP1 PUSH1 0x0 MSTORE PUSH1 0x20 PUSH1 0x0 KECCAK256 SWAP1 PUSH1 0x4 MUL ADD PUSH1 0x2 ADD SLOAD EQ DUP1 ISZERO PUSH2 0x2FA2 JUMPI POP PUSH2 0x2F68 PUSH2 0x100 DUP9 ADD PUSH1 0xE0 DUP10 ADD PUSH2 0x3914 JUMP JUMPDEST PUSH1 0x1 PUSH1 0x1 PUSH1 0xA0 SHL SUB AND DUP3 PUSH1 0x6 ADD DUP3 DUP2 SLOAD DUP2 LT PUSH2 0x2F86 JUMPI PUSH2 0x2F86 PUSH2 0x4532 JUMP JUMPDEST PUSH1 0x0 SWAP2 DUP3 MSTORE PUSH1 0x20 SWAP1 SWAP2 KECCAK256 PUSH1 0x4 SWAP1 SWAP2 MUL ADD SLOAD PUSH1 0x1 PUSH1 0x1 PUSH1 0xA0 SHL SUB AND EQ JUMPDEST DUP1 ISZERO PUSH2 0x2FAF JUMPI POP PUSH1 0x0 DUP4 MLOAD GT JUMPDEST DUP1 ISZERO PUSH2 0x2FE0 JUMPI POP DUP4 DUP3 PUSH1 0x6 ADD DUP3 DUP2 SLOAD DUP2 LT PUSH2 0x2FCC JUMPI PUSH2 0x2FCC PUSH2 0x4532 JUMP JUMPDEST SWAP1 PUSH1 0x0 MSTORE PUSH1 0x20 PUSH1 0x0 KECCAK256 SWAP1 PUSH1 0x4 MUL ADD PUSH1 0x1 ADD SLOAD EQ JUMPDEST ISZERO PUSH2 0x3109 JUMPI PUSH1 0x0 DUP1 JUMPDEST DUP4 PUSH1 0x6 ADD DUP4 DUP2 SLOAD DUP2 LT PUSH2 0x2FFE JUMPI PUSH2 0x2FFE PUSH2 0x4532 JUMP JUMPDEST SWAP1 PUSH1 0x0 MSTORE PUSH1 0x20 PUSH1 0x0 KECCAK256 SWAP1 PUSH1 0x4 MUL ADD PUSH1 0x3 ADD DUP1 SLOAD SWAP1 POP DUP2 LT ISZERO PUSH2 0x3081 JUMPI DUP9 PUSH1 0x0 ADD CALLDATALOAD DUP5 PUSH1 0x6 ADD DUP5 DUP2 SLOAD DUP2 LT PUSH2 0x3034 JUMPI PUSH2 0x3034 PUSH2 0x4532 JUMP JUMPDEST SWAP1 PUSH1 0x0 MSTORE PUSH1 0x20 PUSH1 0x0 KECCAK256 SWAP1 PUSH1 0x4 MUL ADD PUSH1 0x3 ADD DUP3 DUP2 SLOAD DUP2 LT PUSH2 0x3056 JUMPI PUSH2 0x3056 PUSH2 0x4532 JUMP JUMPDEST SWAP1 PUSH1 0x0 MSTORE PUSH1 0x20 PUSH1 0x0 KECCAK256 ADD SLOAD SUB PUSH2 0x306F JUMPI PUSH1 0x1 SWAP2 POP PUSH2 0x3081 JUMP JUMPDEST DUP1 PUSH2 0x3079 DUP2 PUSH2 0x45EB JUMP JUMPDEST SWAP2 POP POP PUSH2 0x2FE9 JUMP JUMPDEST POP DUP1 PUSH2 0x3107 JUMPI DUP3 PUSH1 0x6 ADD DUP3 DUP2 SLOAD DUP2 LT PUSH2 0x309C JUMPI PUSH2 0x309C PUSH2 0x4532 JUMP JUMPDEST PUSH1 0x0 SWAP2 DUP3 MSTORE PUSH1 0x20 DUP1 DUP4 KECCAK256 PUSH1 0x4 SWAP3 SWAP1 SWAP3 MUL SWAP1 SWAP2 ADD PUSH1 0x3 ADD DUP1 SLOAD PUSH1 0x1 DUP2 ADD DUP3 SSTORE SWAP1 DUP4 MSTORE SWAP2 DUP2 SWAP1 KECCAK256 DUP11 CALLDATALOAD SWAP3 ADD DUP3 SWAP1 SSTORE PUSH1 0x40 MLOAD SWAP2 DUP3 MSTORE PUSH32 0xEE28E94AC55844F79E4A8805659E8F6DED6BFE24B7EBE0570DEB71C158EC9433 SWAP2 ADD PUSH1 0x40 MLOAD DUP1 SWAP2 SUB SWAP1 LOG1 POP PUSH1 0x1 SWAP8 SWAP7 POP POP POP POP POP POP POP JUMP JUMPDEST POP JUMPDEST DUP1 PUSH2 0x3113 DUP2 PUSH2 0x45EB JUMP JUMPDEST SWAP2 POP POP PUSH2 0x2F17 JUMP JUMPDEST POP JUMPDEST POP PUSH1 0x0 SWAP6 SWAP5 POP POP POP POP POP JUMP JUMPDEST PUSH1 0x0 DUP1 JUMPDEST DUP4 MLOAD DUP2 LT ISZERO PUSH2 0x3172 JUMPI DUP3 DUP5 DUP3 DUP2 MLOAD DUP2 LT PUSH2 0x3149 JUMPI PUSH2 0x3149 PUSH2 0x4532 JUMP JUMPDEST PUSH1 0x20 MUL PUSH1 0x20 ADD ADD MLOAD SUB PUSH2 0x3160 JUMPI PUSH1 0x1 SWAP2 POP POP PUSH2 0x2073 JUMP JUMPDEST DUP1 PUSH2 0x316A DUP2 PUSH2 0x45EB JUMP JUMPDEST SWAP2 POP POP PUSH2 0x312D JUMP JUMPDEST POP PUSH1 0x0 SWAP4 SWAP3 POP POP POP JUMP JUMPDEST PUSH1 0x0 DUP1 DUP1 JUMPDEST PUSH1 0x2 DUP5 PUSH1 0x40 MLOAD PUSH2 0x3191 SWAP2 SWAP1 PUSH2 0x44B0 JUMP JUMPDEST SWAP1 DUP2 MSTORE PUSH1 0x40 MLOAD SWAP1 DUP2 SWAP1 SUB PUSH1 0x20 ADD SWAP1 KECCAK256 PUSH1 0x1 ADD SLOAD DUP2 LT ISZERO PUSH2 0x3218 JUMPI DUP5 PUSH1 0x1 PUSH1 0x1 PUSH1 0xA0 SHL SUB AND PUSH1 0x2 DUP6 PUSH1 0x40 MLOAD PUSH2 0x31C5 SWAP2 SWAP1 PUSH2 0x44B0 JUMP JUMPDEST SWAP1 DUP2 MSTORE PUSH1 0x20 ADD PUSH1 0x40 MLOAD DUP1 SWAP2 SUB SWAP1 KECCAK256 PUSH1 0x1 ADD DUP3 DUP2 SLOAD DUP2 LT PUSH2 0x31E7 JUMPI PUSH2 0x31E7 PUSH2 0x4532 JUMP JUMPDEST PUSH1 0x0 SWAP2 DUP3 MSTORE PUSH1 0x20 SWAP1 SWAP2 KECCAK256 ADD SLOAD PUSH1 0x1 PUSH1 0x1 PUSH1 0xA0 SHL SUB AND SUB PUSH2 0x3206 JUMPI PUSH1 0x1 SWAP2 POP JUMPDEST DUP1 PUSH2 0x3210 DUP2 PUSH2 0x45EB JUMP JUMPDEST SWAP2 POP POP PUSH2 0x3181 JUMP JUMPDEST POP SWAP4 SWAP3 POP POP POP JUMP JUMPDEST PUSH1 0x0 PUSH1 0x1 DUP2 JUMPDEST PUSH1 0x2 DUP6 PUSH1 0x40 MLOAD PUSH2 0x3236 SWAP2 SWAP1 PUSH2 0x44B0 JUMP JUMPDEST SWAP1 DUP2 MSTORE PUSH1 0x40 MLOAD SWAP1 DUP2 SWAP1 SUB PUSH1 0x20 ADD SWAP1 KECCAK256 PUSH1 0x6 ADD SLOAD DUP2 LT ISZERO PUSH2 0x3311 JUMPI DUP4 PUSH1 0x2 DUP7 PUSH1 0x40 MLOAD PUSH2 0x3261 SWAP2 SWAP1 PUSH2 0x44B0 JUMP JUMPDEST SWAP1 DUP2 MSTORE PUSH1 0x20 ADD PUSH1 0x40 MLOAD DUP1 SWAP2 SUB SWAP1 KECCAK256 PUSH1 0x6 ADD DUP3 DUP2 SLOAD DUP2 LT PUSH2 0x3283 JUMPI PUSH2 0x3283 PUSH2 0x4532 JUMP JUMPDEST SWAP1 PUSH1 0x0 MSTORE PUSH1 0x20 PUSH1 0x0 KECCAK256 SWAP1 PUSH1 0x4 MUL ADD PUSH1 0x1 ADD SLOAD EQ DUP1 ISZERO PUSH2 0x32F5 JUMPI POP DUP6 PUSH1 0x1 PUSH1 0x1 PUSH1 0xA0 SHL SUB AND PUSH1 0x2 DUP7 PUSH1 0x40 MLOAD PUSH2 0x32B7 SWAP2 SWAP1 PUSH2 0x44B0 JUMP JUMPDEST SWAP1 DUP2 MSTORE PUSH1 0x20 ADD PUSH1 0x40 MLOAD DUP1 SWAP2 SUB SWAP1 KECCAK256 PUSH1 0x6 ADD DUP3 DUP2 SLOAD DUP2 LT PUSH2 0x32D9 JUMPI PUSH2 0x32D9 PUSH2 0x4532 JUMP JUMPDEST PUSH1 0x0 SWAP2 DUP3 MSTORE PUSH1 0x20 SWAP1 SWAP2 KECCAK256 PUSH1 0x4 SWAP1 SWAP2 MUL ADD SLOAD PUSH1 0x1 PUSH1 0x1 PUSH1 0xA0 SHL SUB AND EQ JUMPDEST ISZERO PUSH2 0x32FF JUMPI PUSH1 0x0 SWAP2 POP JUMPDEST DUP1 PUSH2 0x3309 DUP2 PUSH2 0x45EB JUMP JUMPDEST SWAP2 POP POP PUSH2 0x3226 JUMP JUMPDEST POP SWAP5 SWAP4 POP POP POP POP JUMP JUMPDEST PUSH1 0x0 DUP1 JUMPDEST DUP3 MLOAD DUP2 LT ISZERO PUSH2 0x35F3 JUMPI PUSH1 0x2 DUP5 PUSH1 0x1 ADD DUP3 DUP2 SLOAD DUP2 LT PUSH2 0x333E JUMPI PUSH2 0x333E PUSH2 0x4532 JUMP JUMPDEST SWAP1 PUSH1 0x0 MSTORE PUSH1 0x20 PUSH1 0x0 KECCAK256 SWAP1 PUSH1 0x20 SWAP2 DUP3 DUP3 DIV ADD SWAP2 SWAP1 MOD SWAP1 SLOAD SWAP1 PUSH2 0x100 EXP SWAP1 DIV PUSH1 0xFF AND PUSH1 0x2 DUP2 GT ISZERO PUSH2 0x336F JUMPI PUSH2 0x336F PUSH2 0x3A70 JUMP JUMPDEST SUB PUSH2 0x3477 JUMPI PUSH1 0x0 DUP1 JUMPDEST DUP6 PUSH1 0x2 ADD DUP4 DUP2 SLOAD DUP2 LT PUSH2 0x338D JUMPI PUSH2 0x338D PUSH2 0x4532 JUMP JUMPDEST PUSH1 0x0 SWAP2 DUP3 MSTORE PUSH1 0x20 SWAP1 SWAP2 KECCAK256 ADD SLOAD DUP2 LT ISZERO PUSH2 0x3460 JUMPI DUP5 DUP4 DUP2 MLOAD DUP2 LT PUSH2 0x33B2 JUMPI PUSH2 0x33B2 PUSH2 0x4532 JUMP JUMPDEST PUSH1 0x20 MUL PUSH1 0x20 ADD ADD MLOAD PUSH1 0x40 MLOAD PUSH1 0x20 ADD PUSH2 0x33CA SWAP2 SWAP1 PUSH2 0x44B0 JUMP JUMPDEST PUSH1 0x40 MLOAD PUSH1 0x20 DUP2 DUP4 SUB SUB DUP2 MSTORE SWAP1 PUSH1 0x40 MSTORE DUP1 MLOAD SWAP1 PUSH1 0x20 ADD KECCAK256 DUP7 PUSH1 0x2 ADD DUP5 DUP2 SLOAD DUP2 LT PUSH2 0x33F5 JUMPI PUSH2 0x33F5 PUSH2 0x4532 JUMP JUMPDEST SWAP1 PUSH1 0x0 MSTORE PUSH1 0x20 PUSH1 0x0 KECCAK256 ADD DUP3 DUP2 SLOAD DUP2 LT PUSH2 0x3410 JUMPI PUSH2 0x3410 PUSH2 0x4532 JUMP JUMPDEST SWAP1 PUSH1 0x0 MSTORE PUSH1 0x20 PUSH1 0x0 KECCAK256 ADD PUSH1 0x40 MLOAD PUSH1 0x20 ADD PUSH2 0x342A SWAP2 SWAP1 PUSH2 0x455F JUMP JUMPDEST PUSH1 0x40 MLOAD PUSH1 0x20 DUP2 DUP4 SUB SUB DUP2 MSTORE SWAP1 PUSH1 0x40 MSTORE DUP1 MLOAD SWAP1 PUSH1 0x20 ADD KECCAK256 SUB PUSH2 0x344E JUMPI PUSH1 0x1 SWAP2 POP PUSH2 0x3460 JUMP JUMPDEST DUP1 PUSH2 0x3458 DUP2 PUSH2 0x45EB JUMP JUMPDEST SWAP2 POP POP PUSH2 0x3378 JUMP JUMPDEST POP DUP1 PUSH2 0x3471 JUMPI PUSH1 0x0 SWAP3 POP POP POP PUSH2 0x2073 JUMP JUMPDEST POP PUSH2 0x35E1 JUMP JUMPDEST PUSH1 0x1 DUP5 PUSH1 0x1 ADD DUP3 DUP2 SLOAD DUP2 LT PUSH2 0x348E JUMPI PUSH2 0x348E PUSH2 0x4532 JUMP JUMPDEST SWAP1 PUSH1 0x0 MSTORE PUSH1 0x20 PUSH1 0x0 KECCAK256 SWAP1 PUSH1 0x20 SWAP2 DUP3 DUP3 DIV ADD SWAP2 SWAP1 MOD SWAP1 SLOAD SWAP1 PUSH2 0x100 EXP SWAP1 DIV PUSH1 0xFF AND PUSH1 0x2 DUP2 GT ISZERO PUSH2 0x34BF JUMPI PUSH2 0x34BF PUSH2 0x3A70 JUMP JUMPDEST SUB PUSH2 0x35B5 JUMPI PUSH1 0x40 MLOAD PUSH3 0x596573 PUSH1 0xE8 SHL PUSH1 0x20 DUP3 ADD MSTORE PUSH1 0x23 ADD PUSH1 0x40 MLOAD PUSH1 0x20 DUP2 DUP4 SUB SUB DUP2 MSTORE SWAP1 PUSH1 0x40 MSTORE DUP1 MLOAD SWAP1 PUSH1 0x20 ADD KECCAK256 DUP4 DUP3 DUP2 MLOAD DUP2 LT PUSH2 0x34FE JUMPI PUSH2 0x34FE PUSH2 0x4532 JUMP JUMPDEST PUSH1 0x20 MUL PUSH1 0x20 ADD ADD MLOAD PUSH1 0x40 MLOAD PUSH1 0x20 ADD PUSH2 0x3516 SWAP2 SWAP1 PUSH2 0x44B0 JUMP JUMPDEST PUSH1 0x40 MLOAD PUSH1 0x20 DUP2 DUP4 SUB SUB DUP2 MSTORE SWAP1 PUSH1 0x40 MSTORE DUP1 MLOAD SWAP1 PUSH1 0x20 ADD KECCAK256 EQ DUP1 PUSH2 0x359C JUMPI POP PUSH1 0x40 MLOAD PUSH2 0x4E6F PUSH1 0xF0 SHL PUSH1 0x20 DUP3 ADD MSTORE PUSH1 0x22 ADD PUSH1 0x40 MLOAD PUSH1 0x20 DUP2 DUP4 SUB SUB DUP2 MSTORE SWAP1 PUSH1 0x40 MSTORE DUP1 MLOAD SWAP1 PUSH1 0x20 ADD KECCAK256 DUP4 DUP3 DUP2 MLOAD DUP2 LT PUSH2 0x356C JUMPI PUSH2 0x356C PUSH2 0x4532 JUMP JUMPDEST PUSH1 0x20 MUL PUSH1 0x20 ADD ADD MLOAD PUSH1 0x40 MLOAD PUSH1 0x20 ADD PUSH2 0x3584 SWAP2 SWAP1 PUSH2 0x44B0 JUMP JUMPDEST PUSH1 0x40 MLOAD PUSH1 0x20 DUP2 DUP4 SUB SUB DUP2 MSTORE SWAP1 PUSH1 0x40 MSTORE DUP1 MLOAD SWAP1 PUSH1 0x20 ADD KECCAK256 EQ JUMPDEST ISZERO PUSH2 0x35AB JUMPI PUSH1 0x1 SWAP2 POP POP PUSH2 0x2073 JUMP JUMPDEST PUSH1 0x0 SWAP2 POP POP PUSH2 0x2073 JUMP JUMPDEST DUP3 DUP2 DUP2 MLOAD DUP2 LT PUSH2 0x35C7 JUMPI PUSH2 0x35C7 PUSH2 0x4532 JUMP JUMPDEST PUSH1 0x20 MUL PUSH1 0x20 ADD ADD MLOAD MLOAD PUSH1 0x0 SUB PUSH2 0x35E1 JUMPI PUSH1 0x0 SWAP2 POP POP PUSH2 0x2073 JUMP JUMPDEST DUP1 PUSH2 0x35EB DUP2 PUSH2 0x45EB JUMP JUMPDEST SWAP2 POP POP PUSH2 0x331E JUMP JUMPDEST POP PUSH1 0x1 SWAP4 SWAP3 POP POP POP JUMP JUMPDEST DUP3 DUP1 SLOAD DUP3 DUP3 SSTORE SWAP1 PUSH1 0x0 MSTORE PUSH1 0x20 PUSH1 0x0 KECCAK256 SWAP1 DUP2 ADD SWAP3 DUP3 ISZERO PUSH2 0x3643 JUMPI SWAP2 PUSH1 0x20 MUL DUP3 ADD JUMPDEST DUP3 DUP2 GT ISZERO PUSH2 0x3643 JUMPI DUP3 MLOAD DUP3 SWAP1 PUSH2 0x3633 SWAP1 DUP3 PUSH2 0x464F JUMP JUMPDEST POP SWAP2 PUSH1 0x20 ADD SWAP2 SWAP1 PUSH1 0x1 ADD SWAP1 PUSH2 0x361D JUMP JUMPDEST POP PUSH2 0x364F SWAP3 SWAP2 POP PUSH2 0x37EC JUMP JUMPDEST POP SWAP1 JUMP JUMPDEST DUP3 DUP1 SLOAD DUP3 DUP3 SSTORE SWAP1 PUSH1 0x0 MSTORE PUSH1 0x20 PUSH1 0x0 KECCAK256 SWAP1 PUSH1 0x1F ADD PUSH1 0x20 SWAP1 DIV DUP2 ADD SWAP3 DUP3 ISZERO PUSH2 0x36F7 JUMPI SWAP2 PUSH1 0x20 MUL DUP3 ADD PUSH1 0x0 JUMPDEST DUP4 DUP3 GT ISZERO PUSH2 0x36C8 JUMPI DUP4 MLOAD DUP4 DUP3 PUSH2 0x100 EXP DUP2 SLOAD DUP2 PUSH1 0xFF MUL NOT AND SWAP1 DUP4 PUSH1 0x2 DUP2 GT ISZERO PUSH2 0x36A7 JUMPI PUSH2 0x36A7 PUSH2 0x3A70 JUMP JUMPDEST MUL OR SWAP1 SSTORE POP SWAP3 PUSH1 0x20 ADD SWAP3 PUSH1 0x1 ADD PUSH1 0x20 DUP2 PUSH1 0x0 ADD DIV SWAP3 DUP4 ADD SWAP3 PUSH1 0x1 SUB MUL PUSH2 0x367C JUMP JUMPDEST DUP1 ISZERO PUSH2 0x36F5 JUMPI DUP3 DUP2 PUSH2 0x100 EXP DUP2 SLOAD SWAP1 PUSH1 0xFF MUL NOT AND SWAP1 SSTORE PUSH1 0x1 ADD PUSH1 0x20 DUP2 PUSH1 0x0 ADD DIV SWAP3 DUP4 ADD SWAP3 PUSH1 0x1 SUB MUL PUSH2 0x36C8 JUMP JUMPDEST POP JUMPDEST POP PUSH2 0x364F SWAP3 SWAP2 POP PUSH2 0x3809 JUMP JUMPDEST DUP3 DUP1 SLOAD DUP3 DUP3 SSTORE SWAP1 PUSH1 0x0 MSTORE PUSH1 0x20 PUSH1 0x0 KECCAK256 SWAP1 DUP2 ADD SWAP3 DUP3 ISZERO PUSH2 0x3750 JUMPI SWAP2 PUSH1 0x20 MUL DUP3 ADD JUMPDEST DUP3 DUP2 GT ISZERO PUSH2 0x3750 JUMPI DUP3 MLOAD DUP1 MLOAD PUSH2 0x3740 SWAP2 DUP5 SWAP2 PUSH1 0x20 SWAP1 SWAP2 ADD SWAP1 PUSH2 0x35FD JUMP JUMPDEST POP SWAP2 PUSH1 0x20 ADD SWAP2 SWAP1 PUSH1 0x1 ADD SWAP1 PUSH2 0x3723 JUMP JUMPDEST POP PUSH2 0x364F SWAP3 SWAP2 POP PUSH2 0x381E JUMP JUMPDEST DUP3 DUP1 SLOAD DUP3 DUP3 SSTORE SWAP1 PUSH1 0x0 MSTORE PUSH1 0x20 PUSH1 0x0 KECCAK256 SWAP1 DUP2 ADD SWAP3 DUP3 ISZERO PUSH2 0x36F7 JUMPI SWAP2 PUSH1 0x20 MUL DUP3 ADD JUMPDEST DUP3 DUP2 GT ISZERO PUSH2 0x36F7 JUMPI DUP3 MLOAD DUP3 SLOAD PUSH1 0x1 PUSH1 0x1 PUSH1 0xA0 SHL SUB NOT AND PUSH1 0x1 PUSH1 0x1 PUSH1 0xA0 SHL SUB SWAP1 SWAP2 AND OR DUP3 SSTORE PUSH1 0x20 SWAP1 SWAP3 ADD SWAP2 PUSH1 0x1 SWAP1 SWAP2 ADD SWAP1 PUSH2 0x377C JUMP JUMPDEST DUP3 DUP1 SLOAD DUP3 DUP3 SSTORE SWAP1 PUSH1 0x0 MSTORE PUSH1 0x20 PUSH1 0x0 KECCAK256 SWAP1 DUP2 ADD SWAP3 DUP3 ISZERO PUSH2 0x36F7 JUMPI SWAP2 PUSH1 0x20 MUL DUP3 ADD JUMPDEST DUP3 DUP2 GT ISZERO PUSH2 0x36F7 JUMPI DUP3 MLOAD DUP3 SSTORE SWAP2 PUSH1 0x20 ADD SWAP2 SWAP1 PUSH1 0x1 ADD SWAP1 PUSH2 0x37D1 JUMP JUMPDEST DUP1 DUP3 GT ISZERO PUSH2 0x364F JUMPI PUSH1 0x0 PUSH2 0x3800 DUP3 DUP3 PUSH2 0x383B JUMP JUMPDEST POP PUSH1 0x1 ADD PUSH2 0x37EC JUMP JUMPDEST JUMPDEST DUP1 DUP3 GT ISZERO PUSH2 0x364F JUMPI PUSH1 0x0 DUP2 SSTORE PUSH1 0x1 ADD PUSH2 0x380A JUMP JUMPDEST DUP1 DUP3 GT ISZERO PUSH2 0x364F JUMPI PUSH1 0x0 PUSH2 0x3832 DUP3 DUP3 PUSH2 0x3875 JUMP JUMPDEST POP PUSH1 0x1 ADD PUSH2 0x381E JUMP JUMPDEST POP DUP1 SLOAD PUSH2 0x3847 SWAP1 PUSH2 0x44CC JUMP JUMPDEST PUSH1 0x0 DUP3 SSTORE DUP1 PUSH1 0x1F LT PUSH2 0x3857 JUMPI POP POP JUMP JUMPDEST PUSH1 0x1F ADD PUSH1 0x20 SWAP1 DIV SWAP1 PUSH1 0x0 MSTORE PUSH1 0x20 PUSH1 0x0 KECCAK256 SWAP1 DUP2 ADD SWAP1 PUSH2 0x1EE8 SWAP2 SWAP1 PUSH2 0x3809 JUMP JUMPDEST POP DUP1 SLOAD PUSH1 0x0 DUP3 SSTORE SWAP1 PUSH1 0x0 MSTORE PUSH1 0x20 PUSH1 0x0 KECCAK256 SWAP1 DUP2 ADD SWAP1 PUSH2 0x1EE8 SWAP2 SWAP1 PUSH2 0x37EC JUMP JUMPDEST PUSH1 0x0 JUMPDEST DUP4 DUP2 LT ISZERO PUSH2 0x38AE JUMPI DUP2 DUP2 ADD MLOAD DUP4 DUP3 ADD MSTORE PUSH1 0x20 ADD PUSH2 0x3896 JUMP JUMPDEST POP POP PUSH1 0x0 SWAP2 ADD MSTORE JUMP JUMPDEST PUSH1 0x0 DUP2 MLOAD DUP1 DUP5 MSTORE PUSH2 0x38CF DUP2 PUSH1 0x20 DUP7 ADD PUSH1 0x20 DUP7 ADD PUSH2 0x3893 JUMP JUMPDEST PUSH1 0x1F ADD PUSH1 0x1F NOT AND SWAP3 SWAP1 SWAP3 ADD PUSH1 0x20 ADD SWAP3 SWAP2 POP POP JUMP JUMPDEST PUSH1 0x20 DUP2 MSTORE PUSH1 0x0 PUSH2 0x38F6 PUSH1 0x20 DUP4 ADD DUP5 PUSH2 0x38B7 JUMP JUMPDEST SWAP4 SWAP3 POP POP POP JUMP JUMPDEST DUP1 CALLDATALOAD PUSH1 0x1 PUSH1 0x1 PUSH1 0xA0 SHL SUB DUP2 AND DUP2 EQ PUSH2 0x1E59 JUMPI PUSH1 0x0 DUP1 REVERT JUMPDEST PUSH1 0x0 PUSH1 0x20 DUP3 DUP5 SUB SLT ISZERO PUSH2 0x3926 JUMPI PUSH1 0x0 DUP1 REVERT JUMPDEST PUSH2 0x38F6 DUP3 PUSH2 0x38FD JUMP JUMPDEST PUSH4 0x4E487B71 PUSH1 0xE0 SHL PUSH1 0x0 MSTORE PUSH1 0x41 PUSH1 0x4 MSTORE PUSH1 0x24 PUSH1 0x0 REVERT JUMPDEST PUSH1 0x40 MLOAD PUSH1 0x1F DUP3 ADD PUSH1 0x1F NOT AND DUP2 ADD PUSH1 0x1 PUSH1 0x1 PUSH1 0x40 SHL SUB DUP2 GT DUP3 DUP3 LT OR ISZERO PUSH2 0x396D JUMPI PUSH2 0x396D PUSH2 0x392F JUMP JUMPDEST PUSH1 0x40 MSTORE SWAP2 SWAP1 POP JUMP JUMPDEST PUSH1 0x0 DUP3 PUSH1 0x1F DUP4 ADD SLT PUSH2 0x3986 JUMPI PUSH1 0x0 DUP1 REVERT JUMPDEST DUP2 CALLDATALOAD PUSH1 0x1 PUSH1 0x1 PUSH1 0x40 SHL SUB DUP2 GT ISZERO PUSH2 0x399F JUMPI PUSH2 0x399F PUSH2 0x392F JUMP JUMPDEST PUSH2 0x39B2 PUSH1 0x1F DUP3 ADD PUSH1 0x1F NOT AND PUSH1 0x20 ADD PUSH2 0x3945 JUMP JUMPDEST DUP2 DUP2 MSTORE DUP5 PUSH1 0x20 DUP4 DUP7 ADD ADD GT ISZERO PUSH2 0x39C7 JUMPI PUSH1 0x0 DUP1 REVERT JUMPDEST DUP2 PUSH1 0x20 DUP6 ADD PUSH1 0x20 DUP4 ADD CALLDATACOPY PUSH1 0x0 SWAP2 DUP2 ADD PUSH1 0x20 ADD SWAP2 SWAP1 SWAP2 MSTORE SWAP4 SWAP3 POP POP POP JUMP JUMPDEST PUSH1 0x0 PUSH1 0x20 DUP3 DUP5 SUB SLT ISZERO PUSH2 0x39F6 JUMPI PUSH1 0x0 DUP1 REVERT JUMPDEST DUP2 CALLDATALOAD PUSH1 0x1 PUSH1 0x1 PUSH1 0x40 SHL SUB DUP2 GT ISZERO PUSH2 0x3A0C JUMPI PUSH1 0x0 DUP1 REVERT JUMPDEST PUSH2 0x1029 DUP5 DUP3 DUP6 ADD PUSH2 0x3975 JUMP JUMPDEST PUSH1 0x0 DUP3 DUP3 MLOAD DUP1 DUP6 MSTORE PUSH1 0x20 DUP1 DUP7 ADD SWAP6 POP DUP1 DUP3 PUSH1 0x5 SHL DUP5 ADD ADD DUP2 DUP7 ADD PUSH1 0x0 JUMPDEST DUP5 DUP2 LT ISZERO PUSH2 0x3A63 JUMPI PUSH1 0x1F NOT DUP7 DUP5 SUB ADD DUP10 MSTORE PUSH2 0x3A51 DUP4 DUP4 MLOAD PUSH2 0x38B7 JUMP JUMPDEST SWAP9 DUP5 ADD SWAP9 SWAP3 POP SWAP1 DUP4 ADD SWAP1 PUSH1 0x1 ADD PUSH2 0x3A35 JUMP JUMPDEST POP SWAP1 SWAP8 SWAP7 POP POP POP POP POP POP POP JUMP JUMPDEST PUSH4 0x4E487B71 PUSH1 0xE0 SHL PUSH1 0x0 MSTORE PUSH1 0x21 PUSH1 0x4 MSTORE PUSH1 0x24 PUSH1 0x0 REVERT JUMPDEST PUSH1 0x0 DUP2 MLOAD DUP1 DUP5 MSTORE PUSH1 0x20 DUP1 DUP6 ADD DUP1 DUP2 SWAP7 POP DUP4 PUSH1 0x5 SHL DUP2 ADD SWAP2 POP DUP3 DUP7 ADD PUSH1 0x0 JUMPDEST DUP6 DUP2 LT ISZERO PUSH2 0x3ACE JUMPI DUP3 DUP5 SUB DUP10 MSTORE PUSH2 0x3ABC DUP5 DUP4 MLOAD PUSH2 0x3A18 JUMP JUMPDEST SWAP9 DUP6 ADD SWAP9 SWAP4 POP SWAP1 DUP5 ADD SWAP1 PUSH1 0x1 ADD PUSH2 0x3AA4 JUMP JUMPDEST POP SWAP2 SWAP8 SWAP7 POP POP POP POP POP POP POP JUMP JUMPDEST PUSH1 0x0 PUSH1 0x20 DUP1 DUP4 MSTORE DUP4 MLOAD PUSH1 0x60 DUP3 DUP6 ADD MSTORE PUSH2 0x3AF7 PUSH1 0x80 DUP6 ADD DUP3 PUSH2 0x3A18 JUMP JUMPDEST DUP3 DUP7 ADD MLOAD PUSH1 0x1F NOT DUP7 DUP4 SUB DUP2 ADD PUSH1 0x40 DUP9 ADD MSTORE DUP2 MLOAD DUP1 DUP5 MSTORE SWAP2 DUP6 ADD SWAP4 POP PUSH1 0x0 SWAP3 SWAP1 SWAP2 SWAP1 DUP6 ADD SWAP1 DUP4 JUMPDEST DUP2 DUP2 LT ISZERO PUSH2 0x3B55 JUMPI DUP6 MLOAD PUSH1 0x3 DUP2 LT PUSH2 0x3B43 JUMPI PUSH4 0x4E487B71 PUSH1 0xE0 SHL DUP7 MSTORE PUSH1 0x21 PUSH1 0x4 MSTORE PUSH1 0x24 DUP7 REVERT JUMPDEST DUP4 MSTORE SWAP5 DUP7 ADD SWAP5 SWAP2 DUP7 ADD SWAP2 PUSH1 0x1 ADD PUSH2 0x3B1D JUMP JUMPDEST POP POP PUSH1 0x40 DUP9 ADD MLOAD SWAP5 POP DUP2 DUP8 DUP3 SUB ADD PUSH1 0x60 DUP9 ADD MSTORE PUSH2 0x3B72 DUP2 DUP7 PUSH2 0x3A86 JUMP JUMPDEST SWAP9 SWAP8 POP POP POP POP POP POP POP POP JUMP JUMPDEST PUSH1 0x0 DUP2 MLOAD DUP1 DUP5 MSTORE PUSH1 0x20 DUP1 DUP6 ADD SWAP5 POP DUP1 DUP5 ADD PUSH1 0x0 JUMPDEST DUP4 DUP2 LT ISZERO PUSH2 0x3BB7 JUMPI DUP2 MLOAD PUSH1 0x1 PUSH1 0x1 PUSH1 0xA0 SHL SUB AND DUP8 MSTORE SWAP6 DUP3 ADD SWAP6 SWAP1 DUP3 ADD SWAP1 PUSH1 0x1 ADD PUSH2 0x3B92 JUMP JUMPDEST POP SWAP5 SWAP6 SWAP5 POP POP POP POP POP JUMP JUMPDEST PUSH1 0x0 DUP2 MLOAD DUP1 DUP5 MSTORE PUSH1 0x20 DUP1 DUP6 ADD SWAP5 POP DUP1 DUP5 ADD PUSH1 0x0 JUMPDEST DUP4 DUP2 LT ISZERO PUSH2 0x3BB7 JUMPI DUP2 MLOAD DUP8 MSTORE SWAP6 DUP3 ADD SWAP6 SWAP1 DUP3 ADD SWAP1 PUSH1 0x1 ADD PUSH2 0x3BD6 JUMP JUMPDEST PUSH1 0x0 DUP2 MLOAD DUP1 DUP5 MSTORE PUSH1 0x20 DUP1 DUP6 ADD DUP1 DUP2 SWAP7 POP DUP4 PUSH1 0x5 SHL DUP2 ADD SWAP2 POP DUP3 DUP7 ADD PUSH1 0x0 DUP1 JUMPDEST DUP7 DUP2 LT ISZERO PUSH2 0x3C95 JUMPI DUP4 DUP6 SUB DUP11 MSTORE DUP3 MLOAD DUP1 MLOAD PUSH1 0x1 PUSH1 0x1 PUSH1 0xA0 SHL SUB AND DUP7 MSTORE DUP7 DUP2 ADD MLOAD DUP8 DUP8 ADD MSTORE PUSH1 0x40 DUP1 DUP3 ADD MLOAD SWAP1 DUP8 ADD MSTORE PUSH1 0x60 SWAP1 DUP2 ADD MLOAD PUSH1 0x80 SWAP2 DUP8 ADD DUP3 SWAP1 MSTORE DUP1 MLOAD SWAP2 DUP8 ADD DUP3 SWAP1 MSTORE DUP8 ADD SWAP1 PUSH1 0xA0 DUP8 ADD SWAP1 DUP5 SWAP1 JUMPDEST DUP1 DUP3 LT ISZERO PUSH2 0x3C80 JUMPI DUP4 MLOAD DUP4 MSTORE SWAP3 DUP10 ADD SWAP3 SWAP2 DUP10 ADD SWAP2 PUSH1 0x1 SWAP2 SWAP1 SWAP2 ADD SWAP1 PUSH2 0x3C60 JUMP JUMPDEST POP POP SWAP11 DUP8 ADD SWAP11 SWAP6 POP POP SWAP2 DUP6 ADD SWAP2 PUSH1 0x1 ADD PUSH2 0x3C11 JUMP JUMPDEST POP SWAP3 SWAP9 SWAP8 POP POP POP POP POP POP POP POP JUMP JUMPDEST PUSH1 0x20 DUP2 MSTORE PUSH2 0x3CBD PUSH1 0x20 DUP3 ADD DUP4 MLOAD PUSH1 0x1 PUSH1 0x1 PUSH1 0xA0 SHL SUB AND SWAP1 MSTORE JUMP JUMPDEST PUSH1 0x0 PUSH1 0x20 DUP4 ADD MLOAD PUSH2 0x180 DUP1 PUSH1 0x40 DUP6 ADD MSTORE PUSH2 0x3CDB PUSH2 0x1A0 DUP6 ADD DUP4 PUSH2 0x3B7E JUMP JUMPDEST SWAP2 POP PUSH1 0x40 DUP6 ADD MLOAD PUSH1 0x1F NOT DUP1 DUP7 DUP6 SUB ADD PUSH1 0x60 DUP8 ADD MSTORE PUSH2 0x3CF9 DUP5 DUP4 PUSH2 0x3BC2 JUMP JUMPDEST SWAP4 POP PUSH1 0x60 DUP8 ADD MLOAD SWAP2 POP DUP1 DUP7 DUP6 SUB ADD PUSH1 0x80 DUP8 ADD MSTORE PUSH2 0x3D16 DUP5 DUP4 PUSH2 0x3A18 JUMP JUMPDEST SWAP4 POP PUSH1 0x80 DUP8 ADD MLOAD SWAP2 POP DUP1 DUP7 DUP6 SUB ADD PUSH1 0xA0 DUP8 ADD MSTORE PUSH2 0x3D33 DUP5 DUP4 PUSH2 0x38B7 JUMP JUMPDEST SWAP4 POP PUSH1 0xA0 DUP8 ADD MLOAD PUSH1 0xC0 DUP8 ADD MSTORE PUSH1 0xC0 DUP8 ADD MLOAD SWAP2 POP DUP1 DUP7 DUP6 SUB ADD PUSH1 0xE0 DUP8 ADD MSTORE PUSH2 0x3D5A DUP5 DUP4 PUSH2 0x3BF2 JUMP JUMPDEST SWAP4 POP PUSH1 0xE0 DUP8 ADD MLOAD SWAP2 POP PUSH2 0x100 PUSH2 0x3D73 DUP2 DUP9 ADD DUP5 ISZERO ISZERO SWAP1 MSTORE JUMP JUMPDEST DUP8 ADD MLOAD SWAP2 POP PUSH2 0x120 PUSH2 0x3D8F DUP8 DUP3 ADD DUP5 PUSH1 0x1 PUSH1 0x1 PUSH1 0xA0 SHL SUB AND SWAP1 MSTORE JUMP JUMPDEST DUP1 DUP9 ADD MLOAD SWAP3 POP POP PUSH2 0x140 DUP3 DUP2 DUP9 ADD MSTORE DUP1 DUP9 ADD MLOAD SWAP3 POP POP PUSH2 0x160 DUP2 DUP8 DUP7 SUB ADD DUP2 DUP9 ADD MSTORE PUSH2 0x3DBB DUP6 DUP5 PUSH2 0x38B7 JUMP JUMPDEST SWAP1 DUP9 ADD MLOAD DUP8 DUP3 SUB SWAP1 SWAP3 ADD DUP5 DUP9 ADD MSTORE SWAP4 POP SWAP1 POP PUSH2 0x3DD7 DUP4 DUP3 PUSH2 0x38B7 JUMP JUMPDEST SWAP7 SWAP6 POP POP POP POP POP POP JUMP JUMPDEST PUSH1 0x0 DUP1 DUP4 PUSH1 0x1F DUP5 ADD SLT PUSH2 0x3DF3 JUMPI PUSH1 0x0 DUP1 REVERT JUMPDEST POP DUP2 CALLDATALOAD PUSH1 0x1 PUSH1 0x1 PUSH1 0x40 SHL SUB DUP2 GT ISZERO PUSH2 0x3E0A JUMPI PUSH1 0x0 DUP1 REVERT JUMPDEST PUSH1 0x20 DUP4 ADD SWAP2 POP DUP4 PUSH1 0x20 DUP3 PUSH1 0x5 SHL DUP6 ADD ADD GT ISZERO PUSH2 0x3E25 JUMPI PUSH1 0x0 DUP1 REVERT JUMPDEST SWAP3 POP SWAP3 SWAP1 POP JUMP JUMPDEST PUSH1 0x0 DUP1 PUSH1 0x0 DUP1 PUSH1 0x40 DUP6 DUP8 SUB SLT ISZERO PUSH2 0x3E42 JUMPI PUSH1 0x0 DUP1 REVERT JUMPDEST DUP5 CALLDATALOAD PUSH1 0x1 PUSH1 0x1 PUSH1 0x40 SHL SUB DUP1 DUP3 GT ISZERO PUSH2 0x3E59 JUMPI PUSH1 0x0 DUP1 REVERT JUMPDEST PUSH2 0x3E65 DUP9 DUP4 DUP10 ADD PUSH2 0x3DE1 JUMP JUMPDEST SWAP1 SWAP7 POP SWAP5 POP PUSH1 0x20 DUP8 ADD CALLDATALOAD SWAP2 POP DUP1 DUP3 GT ISZERO PUSH2 0x3E7E JUMPI PUSH1 0x0 DUP1 REVERT JUMPDEST POP PUSH2 0x3E8B DUP8 DUP3 DUP9 ADD PUSH2 0x3DE1 JUMP JUMPDEST SWAP6 SWAP9 SWAP5 SWAP8 POP SWAP6 POP POP POP POP JUMP JUMPDEST PUSH1 0x0 PUSH1 0x20 DUP3 DUP5 SUB SLT ISZERO PUSH2 0x3EA9 JUMPI PUSH1 0x0 DUP1 REVERT JUMPDEST POP CALLDATALOAD SWAP2 SWAP1 POP JUMP JUMPDEST PUSH1 0x0 PUSH1 0x1 PUSH1 0x1 PUSH1 0x40 SHL SUB DUP3 GT ISZERO PUSH2 0x3EC9 JUMPI PUSH2 0x3EC9 PUSH2 0x392F JUMP JUMPDEST POP PUSH1 0x5 SHL PUSH1 0x20 ADD SWAP1 JUMP JUMPDEST PUSH1 0x0 DUP3 PUSH1 0x1F DUP4 ADD SLT PUSH2 0x3EE4 JUMPI PUSH1 0x0 DUP1 REVERT JUMPDEST DUP2 CALLDATALOAD PUSH1 0x20 PUSH2 0x3EF9 PUSH2 0x3EF4 DUP4 PUSH2 0x3EB0 JUMP JUMPDEST PUSH2 0x3945 JUMP JUMPDEST DUP3 DUP2 MSTORE PUSH1 0x5 SWAP3 SWAP1 SWAP3 SHL DUP5 ADD DUP2 ADD SWAP2 DUP2 DUP2 ADD SWAP1 DUP7 DUP5 GT ISZERO PUSH2 0x3F18 JUMPI PUSH1 0x0 DUP1 REVERT JUMPDEST DUP3 DUP7 ADD JUMPDEST DUP5 DUP2 LT ISZERO PUSH2 0x3F3A JUMPI PUSH2 0x3F2D DUP2 PUSH2 0x38FD JUMP JUMPDEST DUP4 MSTORE SWAP2 DUP4 ADD SWAP2 DUP4 ADD PUSH2 0x3F1C JUMP JUMPDEST POP SWAP7 SWAP6 POP POP POP POP POP POP JUMP JUMPDEST PUSH1 0x0 DUP3 PUSH1 0x1F DUP4 ADD SLT PUSH2 0x3F56 JUMPI PUSH1 0x0 DUP1 REVERT JUMPDEST DUP2 CALLDATALOAD PUSH1 0x20 PUSH2 0x3F66 PUSH2 0x3EF4 DUP4 PUSH2 0x3EB0 JUMP JUMPDEST DUP3 DUP2 MSTORE PUSH1 0x5 SWAP3 SWAP1 SWAP3 SHL DUP5 ADD DUP2 ADD SWAP2 DUP2 DUP2 ADD SWAP1 DUP7 DUP5 GT ISZERO PUSH2 0x3F85 JUMPI PUSH1 0x0 DUP1 REVERT JUMPDEST DUP3 DUP7 ADD JUMPDEST DUP5 DUP2 LT ISZERO PUSH2 0x3F3A JUMPI DUP1 CALLDATALOAD DUP4 MSTORE SWAP2 DUP4 ADD SWAP2 DUP4 ADD PUSH2 0x3F89 JUMP JUMPDEST PUSH1 0x0 DUP3 PUSH1 0x1F DUP4 ADD SLT PUSH2 0x3FB1 JUMPI PUSH1 0x0 DUP1 REVERT JUMPDEST DUP2 CALLDATALOAD PUSH1 0x20 PUSH2 0x3FC1 PUSH2 0x3EF4 DUP4 PUSH2 0x3EB0 JUMP JUMPDEST DUP3 DUP2 MSTORE PUSH1 0x5 SWAP3 SWAP1 SWAP3 SHL DUP5 ADD DUP2 ADD SWAP2 DUP2 DUP2 ADD SWAP1 DUP7 DUP5 GT ISZERO PUSH2 0x3FE0 JUMPI PUSH1 0x0 DUP1 REVERT JUMPDEST DUP3 DUP7 ADD JUMPDEST DUP5 DUP2 LT ISZERO PUSH2 0x3F3A JUMPI DUP1 CALLDATALOAD PUSH1 0x1 PUSH1 0x1 PUSH1 0x40 SHL SUB DUP2 GT ISZERO PUSH2 0x4003 JUMPI PUSH1 0x0 DUP1 DUP2 REVERT JUMPDEST PUSH2 0x4011 DUP10 DUP7 DUP4 DUP12 ADD ADD PUSH2 0x3975 JUMP JUMPDEST DUP5 MSTORE POP SWAP2 DUP4 ADD SWAP2 DUP4 ADD PUSH2 0x3FE4 JUMP JUMPDEST PUSH1 0x0 DUP1 PUSH1 0x0 DUP1 PUSH1 0x0 DUP1 PUSH1 0xC0 DUP8 DUP10 SUB SLT ISZERO PUSH2 0x4038 JUMPI PUSH1 0x0 DUP1 REVERT JUMPDEST DUP7 CALLDATALOAD PUSH1 0x1 PUSH1 0x1 PUSH1 0x40 SHL SUB DUP1 DUP3 GT ISZERO PUSH2 0x404F JUMPI PUSH1 0x0 DUP1 REVERT JUMPDEST PUSH2 0x405B DUP11 DUP4 DUP12 ADD PUSH2 0x3975 JUMP JUMPDEST SWAP8 POP PUSH1 0x20 DUP10 ADD CALLDATALOAD SWAP2 POP DUP1 DUP3 GT ISZERO PUSH2 0x4071 JUMPI PUSH1 0x0 DUP1 REVERT JUMPDEST PUSH2 0x407D DUP11 DUP4 DUP12 ADD PUSH2 0x3ED3 JUMP JUMPDEST SWAP7 POP PUSH1 0x40 DUP10 ADD CALLDATALOAD SWAP2 POP DUP1 DUP3 GT ISZERO PUSH2 0x4093 JUMPI PUSH1 0x0 DUP1 REVERT JUMPDEST PUSH2 0x409F DUP11 DUP4 DUP12 ADD PUSH2 0x3F45 JUMP JUMPDEST SWAP6 POP PUSH1 0x60 DUP10 ADD CALLDATALOAD SWAP2 POP DUP1 DUP3 GT ISZERO PUSH2 0x40B5 JUMPI PUSH1 0x0 DUP1 REVERT JUMPDEST PUSH2 0x40C1 DUP11 DUP4 DUP12 ADD PUSH2 0x3FA0 JUMP JUMPDEST SWAP5 POP PUSH1 0x80 DUP10 ADD CALLDATALOAD SWAP2 POP DUP1 DUP3 GT ISZERO PUSH2 0x40D7 JUMPI PUSH1 0x0 DUP1 REVERT JUMPDEST PUSH2 0x40E3 DUP11 DUP4 DUP12 ADD PUSH2 0x3975 JUMP JUMPDEST SWAP4 POP PUSH1 0xA0 DUP10 ADD CALLDATALOAD SWAP2 POP DUP1 DUP3 GT ISZERO PUSH2 0x40F9 JUMPI PUSH1 0x0 DUP1 REVERT JUMPDEST POP PUSH2 0x4106 DUP10 DUP3 DUP11 ADD PUSH2 0x3975 JUMP JUMPDEST SWAP2 POP POP SWAP3 SWAP6 POP SWAP3 SWAP6 POP SWAP3 SWAP6 JUMP JUMPDEST PUSH1 0x0 DUP3 PUSH1 0x1F DUP4 ADD SLT PUSH2 0x4124 JUMPI PUSH1 0x0 DUP1 REVERT JUMPDEST DUP2 CALLDATALOAD PUSH1 0x20 PUSH2 0x4134 PUSH2 0x3EF4 DUP4 PUSH2 0x3EB0 JUMP JUMPDEST DUP3 DUP2 MSTORE PUSH1 0x5 SWAP3 SWAP1 SWAP3 SHL DUP5 ADD DUP2 ADD SWAP2 DUP2 DUP2 ADD SWAP1 DUP7 DUP5 GT ISZERO PUSH2 0x4153 JUMPI PUSH1 0x0 DUP1 REVERT JUMPDEST DUP3 DUP7 ADD JUMPDEST DUP5 DUP2 LT ISZERO PUSH2 0x3F3A JUMPI DUP1 CALLDATALOAD PUSH1 0x3 DUP2 LT PUSH2 0x416F JUMPI PUSH1 0x0 DUP1 DUP2 REVERT JUMPDEST DUP4 MSTORE SWAP2 DUP4 ADD SWAP2 DUP4 ADD PUSH2 0x4157 JUMP JUMPDEST PUSH1 0x0 DUP1 PUSH1 0x0 DUP1 PUSH1 0x80 DUP6 DUP8 SUB SLT ISZERO PUSH2 0x4192 JUMPI PUSH1 0x0 DUP1 REVERT JUMPDEST DUP5 CALLDATALOAD PUSH1 0x1 PUSH1 0x1 PUSH1 0x40 SHL SUB DUP1 DUP3 GT ISZERO PUSH2 0x41A9 JUMPI PUSH1 0x0 DUP1 REVERT JUMPDEST PUSH2 0x41B5 DUP9 DUP4 DUP10 ADD PUSH2 0x3975 JUMP JUMPDEST SWAP6 POP PUSH1 0x20 SWAP2 POP DUP2 DUP8 ADD CALLDATALOAD DUP2 DUP2 GT ISZERO PUSH2 0x41CC JUMPI PUSH1 0x0 DUP1 REVERT JUMPDEST PUSH2 0x41D8 DUP10 DUP3 DUP11 ADD PUSH2 0x3FA0 JUMP JUMPDEST SWAP6 POP POP PUSH1 0x40 DUP8 ADD CALLDATALOAD DUP2 DUP2 GT ISZERO PUSH2 0x41ED JUMPI PUSH1 0x0 DUP1 REVERT JUMPDEST DUP8 ADD PUSH1 0x1F DUP2 ADD DUP10 SGT PUSH2 0x41FE JUMPI PUSH1 0x0 DUP1 REVERT JUMPDEST DUP1 CALLDATALOAD PUSH2 0x420C PUSH2 0x3EF4 DUP3 PUSH2 0x3EB0 JUMP JUMPDEST DUP2 DUP2 MSTORE PUSH1 0x5 SWAP2 SWAP1 SWAP2 SHL DUP3 ADD DUP5 ADD SWAP1 DUP5 DUP2 ADD SWAP1 DUP12 DUP4 GT ISZERO PUSH2 0x422B JUMPI PUSH1 0x0 DUP1 REVERT JUMPDEST DUP6 DUP5 ADD JUMPDEST DUP4 DUP2 LT ISZERO PUSH2 0x4263 JUMPI DUP1 CALLDATALOAD DUP7 DUP2 GT ISZERO PUSH2 0x4247 JUMPI PUSH1 0x0 DUP1 DUP2 REVERT JUMPDEST PUSH2 0x4255 DUP15 DUP10 DUP4 DUP10 ADD ADD PUSH2 0x3FA0 JUMP JUMPDEST DUP5 MSTORE POP SWAP2 DUP7 ADD SWAP2 DUP7 ADD PUSH2 0x422F JUMP JUMPDEST POP SWAP7 POP POP POP POP PUSH1 0x60 DUP8 ADD CALLDATALOAD SWAP2 POP DUP1 DUP3 GT ISZERO PUSH2 0x427D JUMPI PUSH1 0x0 DUP1 REVERT JUMPDEST POP PUSH2 0x428A DUP8 DUP3 DUP9 ADD PUSH2 0x4113 JUMP JUMPDEST SWAP2 POP POP SWAP3 SWAP6 SWAP2 SWAP5 POP SWAP3 POP JUMP JUMPDEST PUSH1 0x0 DUP1 PUSH1 0x0 DUP1 PUSH1 0x0 DUP1 PUSH1 0x0 DUP1 PUSH2 0x100 DUP10 DUP12 SUB SLT ISZERO PUSH2 0x42B3 JUMPI PUSH1 0x0 DUP1 REVERT JUMPDEST DUP9 CALLDATALOAD PUSH1 0x1 PUSH1 0x1 PUSH1 0x40 SHL SUB DUP1 DUP3 GT ISZERO PUSH2 0x42CA JUMPI PUSH1 0x0 DUP1 REVERT JUMPDEST PUSH2 0x42D6 DUP13 DUP4 DUP14 ADD PUSH2 0x3975 JUMP JUMPDEST SWAP10 POP PUSH1 0x20 DUP12 ADD CALLDATALOAD SWAP2 POP DUP1 DUP3 GT ISZERO PUSH2 0x42EC JUMPI PUSH1 0x0 DUP1 REVERT JUMPDEST PUSH2 0x42F8 DUP13 DUP4 DUP14 ADD PUSH2 0x3ED3 JUMP JUMPDEST SWAP9 POP PUSH1 0x40 DUP12 ADD CALLDATALOAD SWAP2 POP DUP1 DUP3 GT ISZERO PUSH2 0x430E JUMPI PUSH1 0x0 DUP1 REVERT JUMPDEST PUSH2 0x431A DUP13 DUP4 DUP14 ADD PUSH2 0x3F45 JUMP JUMPDEST SWAP8 POP PUSH1 0x60 DUP12 ADD CALLDATALOAD SWAP2 POP DUP1 DUP3 GT ISZERO PUSH2 0x4330 JUMPI PUSH1 0x0 DUP1 REVERT JUMPDEST PUSH2 0x433C DUP13 DUP4 DUP14 ADD PUSH2 0x3FA0 JUMP JUMPDEST SWAP7 POP PUSH1 0x80 DUP12 ADD CALLDATALOAD SWAP2 POP DUP1 DUP3 GT ISZERO PUSH2 0x4352 JUMPI PUSH1 0x0 DUP1 REVERT JUMPDEST PUSH2 0x435E DUP13 DUP4 DUP14 ADD PUSH2 0x3975 JUMP JUMPDEST SWAP6 POP PUSH1 0xA0 DUP12 ADD CALLDATALOAD SWAP5 POP PUSH2 0x4373 PUSH1 0xC0 DUP13 ADD PUSH2 0x38FD JUMP JUMPDEST SWAP4 POP PUSH1 0xE0 DUP12 ADD CALLDATALOAD SWAP2 POP DUP1 DUP3 GT ISZERO PUSH2 0x4389 JUMPI PUSH1 0x0 DUP1 REVERT JUMPDEST POP PUSH2 0x4396 DUP12 DUP3 DUP13 ADD PUSH2 0x3975 JUMP JUMPDEST SWAP2 POP POP SWAP3 SWAP6 SWAP9 POP SWAP3 SWAP6 SWAP9 SWAP1 SWAP4 SWAP7 POP JUMP JUMPDEST PUSH1 0x0 PUSH1 0x20 DUP1 DUP4 ADD DUP2 DUP5 MSTORE DUP1 DUP6 MLOAD DUP1 DUP4 MSTORE PUSH1 0x40 DUP7 ADD SWAP2 POP PUSH1 0x40 DUP2 PUSH1 0x5 SHL DUP8 ADD ADD SWAP3 POP DUP4 DUP8 ADD PUSH1 0x0 JUMPDEST DUP3 DUP2 LT ISZERO PUSH2 0x43FB JUMPI PUSH1 0x3F NOT DUP9 DUP7 SUB ADD DUP5 MSTORE PUSH2 0x43E9 DUP6 DUP4 MLOAD PUSH2 0x38B7 JUMP JUMPDEST SWAP5 POP SWAP3 DUP6 ADD SWAP3 SWAP1 DUP6 ADD SWAP1 PUSH1 0x1 ADD PUSH2 0x43CD JUMP JUMPDEST POP SWAP3 SWAP8 SWAP7 POP POP POP POP POP POP POP JUMP JUMPDEST PUSH1 0x20 DUP2 MSTORE PUSH1 0x0 PUSH2 0x38F6 PUSH1 0x20 DUP4 ADD DUP5 PUSH2 0x3B7E JUMP JUMPDEST PUSH1 0x0 PUSH1 0x20 DUP3 DUP5 SUB SLT ISZERO PUSH2 0x442D JUMPI PUSH1 0x0 DUP1 REVERT JUMPDEST DUP2 CALLDATALOAD PUSH1 0x1 PUSH1 0x1 PUSH1 0x40 SHL SUB DUP2 GT ISZERO PUSH2 0x4443 JUMPI PUSH1 0x0 DUP1 REVERT JUMPDEST DUP3 ADD PUSH2 0x140 DUP2 DUP6 SUB SLT ISZERO PUSH2 0x38F6 JUMPI PUSH1 0x0 DUP1 REVERT JUMPDEST PUSH1 0x0 DUP5 MLOAD PUSH2 0x4468 DUP2 DUP5 PUSH1 0x20 DUP10 ADD PUSH2 0x3893 JUMP JUMPDEST DUP1 DUP4 ADD SWAP1 POP PUSH1 0x17 PUSH1 0xF9 SHL DUP1 DUP3 MSTORE DUP6 MLOAD PUSH2 0x4488 DUP2 PUSH1 0x1 DUP6 ADD PUSH1 0x20 DUP11 ADD PUSH2 0x3893 JUMP JUMPDEST PUSH1 0x1 SWAP3 ADD SWAP2 DUP3 ADD MSTORE DUP4 MLOAD PUSH2 0x44A3 DUP2 PUSH1 0x2 DUP5 ADD PUSH1 0x20 DUP9 ADD PUSH2 0x3893 JUMP JUMPDEST ADD PUSH1 0x2 ADD SWAP6 SWAP5 POP POP POP POP POP JUMP JUMPDEST PUSH1 0x0 DUP3 MLOAD PUSH2 0x44C2 DUP2 DUP5 PUSH1 0x20 DUP8 ADD PUSH2 0x3893 JUMP JUMPDEST SWAP2 SWAP1 SWAP2 ADD SWAP3 SWAP2 POP POP JUMP JUMPDEST PUSH1 0x1 DUP2 DUP2 SHR SWAP1 DUP3 AND DUP1 PUSH2 0x44E0 JUMPI PUSH1 0x7F DUP3 AND SWAP2 POP JUMPDEST PUSH1 0x20 DUP3 LT DUP2 SUB PUSH2 0x4500 JUMPI PUSH4 0x4E487B71 PUSH1 0xE0 SHL PUSH1 0x0 MSTORE PUSH1 0x22 PUSH1 0x4 MSTORE PUSH1 0x24 PUSH1 0x0 REVERT JUMPDEST POP SWAP2 SWAP1 POP JUMP JUMPDEST PUSH1 0x20 DUP1 DUP3 MSTORE PUSH1 0x12 SWAP1 DUP3 ADD MSTORE PUSH18 0x10DBDB9D1C9858DD081A5CC81C185D5CD959 PUSH1 0x72 SHL PUSH1 0x40 DUP3 ADD MSTORE PUSH1 0x60 ADD SWAP1 JUMP JUMPDEST PUSH4 0x4E487B71 PUSH1 0xE0 SHL PUSH1 0x0 MSTORE PUSH1 0x32 PUSH1 0x4 MSTORE PUSH1 0x24 PUSH1 0x0 REVERT JUMPDEST PUSH1 0x0 DUP3 CALLDATALOAD PUSH2 0x13E NOT DUP4 CALLDATASIZE SUB ADD DUP2 SLT PUSH2 0x44C2 JUMPI PUSH1 0x0 DUP1 REVERT JUMPDEST PUSH1 0x0 DUP1 DUP4 SLOAD PUSH2 0x456D DUP2 PUSH2 0x44CC JUMP JUMPDEST PUSH1 0x1 DUP3 DUP2 AND DUP1 ISZERO PUSH2 0x4585 JUMPI PUSH1 0x1 DUP2 EQ PUSH2 0x459A JUMPI PUSH2 0x45C9 JUMP JUMPDEST PUSH1 0xFF NOT DUP5 AND DUP8 MSTORE DUP3 ISZERO ISZERO DUP4 MUL DUP8 ADD SWAP5 POP PUSH2 0x45C9 JUMP JUMPDEST DUP8 PUSH1 0x0 MSTORE PUSH1 0x20 DUP1 PUSH1 0x0 KECCAK256 PUSH1 0x0 JUMPDEST DUP6 DUP2 LT ISZERO PUSH2 0x45C0 JUMPI DUP2 SLOAD DUP11 DUP3 ADD MSTORE SWAP1 DUP5 ADD SWAP1 DUP3 ADD PUSH2 0x45A7 JUMP JUMPDEST POP POP POP DUP3 DUP8 ADD SWAP5 POP JUMPDEST POP SWAP3 SWAP7 SWAP6 POP POP POP POP POP POP JUMP JUMPDEST PUSH4 0x4E487B71 PUSH1 0xE0 SHL PUSH1 0x0 MSTORE PUSH1 0x11 PUSH1 0x4 MSTORE PUSH1 0x24 PUSH1 0x0 REVERT JUMPDEST PUSH1 0x0 PUSH1 0x1 DUP3 ADD PUSH2 0x45FD JUMPI PUSH2 0x45FD PUSH2 0x45D5 JUMP JUMPDEST POP PUSH1 0x1 ADD SWAP1 JUMP JUMPDEST PUSH1 0x1F DUP3 GT ISZERO PUSH2 0x464A JUMPI PUSH1 0x0 DUP2 DUP2 MSTORE PUSH1 0x20 DUP2 KECCAK256 PUSH1 0x1F DUP6 ADD PUSH1 0x5 SHR DUP2 ADD PUSH1 0x20 DUP7 LT ISZERO PUSH2 0x462B JUMPI POP DUP1 JUMPDEST PUSH1 0x1F DUP6 ADD PUSH1 0x5 SHR DUP3 ADD SWAP2 POP JUMPDEST DUP2 DUP2 LT ISZERO PUSH2 0x11A1 JUMPI DUP3 DUP2 SSTORE PUSH1 0x1 ADD PUSH2 0x4637 JUMP JUMPDEST POP POP POP JUMP JUMPDEST DUP2 MLOAD PUSH1 0x1 PUSH1 0x1 PUSH1 0x40 SHL SUB DUP2 GT ISZERO PUSH2 0x4668 JUMPI PUSH2 0x4668 PUSH2 0x392F JUMP JUMPDEST PUSH2 0x467C DUP2 PUSH2 0x4676 DUP5 SLOAD PUSH2 0x44CC JUMP JUMPDEST DUP5 PUSH2 0x4604 JUMP JUMPDEST PUSH1 0x20 DUP1 PUSH1 0x1F DUP4 GT PUSH1 0x1 DUP2 EQ PUSH2 0x46B1 JUMPI PUSH1 0x0 DUP5 ISZERO PUSH2 0x4699 JUMPI POP DUP6 DUP4 ADD MLOAD JUMPDEST PUSH1 0x0 NOT PUSH1 0x3 DUP7 SWAP1 SHL SHR NOT AND PUSH1 0x1 DUP6 SWAP1 SHL OR DUP6 SSTORE PUSH2 0x11A1 JUMP JUMPDEST PUSH1 0x0 DUP6 DUP2 MSTORE PUSH1 0x20 DUP2 KECCAK256 PUSH1 0x1F NOT DUP7 AND SWAP2 JUMPDEST DUP3 DUP2 LT ISZERO PUSH2 0x46E0 JUMPI DUP9 DUP7 ADD MLOAD DUP3 SSTORE SWAP5 DUP5 ADD SWAP5 PUSH1 0x1 SWAP1 SWAP2 ADD SWAP1 DUP5 ADD PUSH2 0x46C1 JUMP JUMPDEST POP DUP6 DUP3 LT ISZERO PUSH2 0x46FE JUMPI DUP8 DUP6 ADD MLOAD PUSH1 0x0 NOT PUSH1 0x3 DUP9 SWAP1 SHL PUSH1 0xF8 AND SHR NOT AND DUP2 SSTORE JUMPDEST POP POP POP POP POP PUSH1 0x1 SWAP1 DUP2 SHL ADD SWAP1 SSTORE POP JUMP JUMPDEST DUP2 DUP2 SUB DUP2 DUP2 GT ISZERO PUSH2 0x2073 JUMPI PUSH2 0x2073 PUSH2 0x45D5 JUMP JUMPDEST PUSH4 0x4E487B71 PUSH1 0xE0 SHL PUSH1 0x0 MSTORE PUSH1 0x31 PUSH1 0x4 MSTORE PUSH1 0x24 PUSH1 0x0 REVERT JUMPDEST DUP1 DUP3 MUL DUP2 ISZERO DUP3 DUP3 DIV DUP5 EQ OR PUSH2 0x2073 JUMPI PUSH2 0x2073 PUSH2 0x45D5 JUMP JUMPDEST DUP1 ISZERO ISZERO DUP2 EQ PUSH2 0x1EE8 JUMPI PUSH1 0x0 DUP1 REVERT JUMPDEST PUSH1 0x0 PUSH1 0x20 DUP3 DUP5 SUB SLT ISZERO PUSH2 0x476E JUMPI PUSH1 0x0 DUP1 REVERT JUMPDEST DUP2 MLOAD PUSH2 0x38F6 DUP2 PUSH2 0x474E JUMP JUMPDEST PUSH1 0x0 DUP1 DUP4 CALLDATALOAD PUSH1 0x1E NOT DUP5 CALLDATASIZE SUB ADD DUP2 SLT PUSH2 0x4790 JUMPI PUSH1 0x0 DUP1 REVERT JUMPDEST DUP4 ADD DUP1 CALLDATALOAD SWAP2 POP PUSH1 0x1 PUSH1 0x1 PUSH1 0x40 SHL SUB DUP3 GT ISZERO PUSH2 0x47AA JUMPI PUSH1 0x0 DUP1 REVERT JUMPDEST PUSH1 0x20 ADD SWAP2 POP CALLDATASIZE DUP2 SWAP1 SUB DUP3 SGT ISZERO PUSH2 0x3E25 JUMPI PUSH1 0x0 DUP1 REVERT JUMPDEST PUSH1 0x0 DUP1 PUSH1 0x0 DUP1 PUSH1 0x0 PUSH1 0xA0 DUP7 DUP9 SUB SLT ISZERO PUSH2 0x47D7 JUMPI PUSH1 0x0 DUP1 REVERT JUMPDEST DUP6 CALLDATALOAD PUSH1 0x1 PUSH1 0x1 PUSH1 0x40 SHL SUB DUP1 DUP3 GT ISZERO PUSH2 0x47EE JUMPI PUSH1 0x0 DUP1 REVERT JUMPDEST PUSH2 0x47FA DUP10 DUP4 DUP11 ADD PUSH2 0x3975 JUMP JUMPDEST SWAP7 POP PUSH1 0x20 DUP9 ADD CALLDATALOAD SWAP6 POP PUSH1 0x40 DUP9 ADD CALLDATALOAD SWAP2 POP DUP1 DUP3 GT ISZERO PUSH2 0x4817 JUMPI PUSH1 0x0 DUP1 REVERT JUMPDEST PUSH2 0x4823 DUP10 DUP4 DUP11 ADD PUSH2 0x3FA0 JUMP JUMPDEST SWAP5 POP PUSH1 0x60 DUP9 ADD CALLDATALOAD SWAP2 POP DUP1 DUP3 GT ISZERO PUSH2 0x4839 JUMPI PUSH1 0x0 DUP1 REVERT JUMPDEST PUSH2 0x4845 DUP10 DUP4 DUP11 ADD PUSH2 0x3975 JUMP JUMPDEST SWAP4 POP PUSH1 0x80 DUP9 ADD CALLDATALOAD SWAP2 POP DUP1 DUP3 GT ISZERO PUSH2 0x485B JUMPI PUSH1 0x0 DUP1 REVERT JUMPDEST POP PUSH2 0x4868 DUP9 DUP3 DUP10 ADD PUSH2 0x3FA0 JUMP JUMPDEST SWAP2 POP POP SWAP3 SWAP6 POP SWAP3 SWAP6 SWAP1 SWAP4 POP JUMP JUMPDEST DUP1 CALLDATALOAD PUSH1 0x1 PUSH1 0x1 PUSH1 0x40 SHL SUB DUP2 AND DUP2 EQ PUSH2 0x1E59 JUMPI PUSH1 0x0 DUP1 REVERT JUMPDEST DUP1 CALLDATALOAD PUSH2 0x1E59 DUP2 PUSH2 0x474E JUMP JUMPDEST PUSH1 0x0 DUP1 DUP4 CALLDATALOAD PUSH1 0x1E NOT DUP5 CALLDATASIZE SUB ADD DUP2 SLT PUSH2 0x48AE JUMPI PUSH1 0x0 DUP1 REVERT JUMPDEST DUP4 ADD PUSH1 0x20 DUP2 ADD SWAP3 POP CALLDATALOAD SWAP1 POP PUSH1 0x1 PUSH1 0x1 PUSH1 0x40 SHL SUB DUP2 GT ISZERO PUSH2 0x48CD JUMPI PUSH1 0x0 DUP1 REVERT JUMPDEST DUP1 CALLDATASIZE SUB DUP3 SGT ISZERO PUSH2 0x3E25 JUMPI PUSH1 0x0 DUP1 REVERT JUMPDEST DUP2 DUP4 MSTORE DUP2 DUP2 PUSH1 0x20 DUP6 ADD CALLDATACOPY POP PUSH1 0x0 DUP3 DUP3 ADD PUSH1 0x20 SWAP1 DUP2 ADD SWAP2 SWAP1 SWAP2 MSTORE PUSH1 0x1F SWAP1 SWAP2 ADD PUSH1 0x1F NOT AND SWAP1 SWAP2 ADD ADD SWAP1 JUMP JUMPDEST PUSH1 0x40 DUP2 MSTORE DUP3 CALLDATALOAD PUSH1 0x40 DUP3 ADD MSTORE PUSH1 0x20 DUP4 ADD CALLDATALOAD PUSH1 0x60 DUP3 ADD MSTORE PUSH1 0x0 PUSH2 0x4928 PUSH1 0x40 DUP6 ADD PUSH2 0x4875 JUMP JUMPDEST PUSH1 0x1 PUSH1 0x1 PUSH1 0x40 SHL SUB AND PUSH1 0x80 DUP4 ADD MSTORE PUSH2 0x4942 PUSH1 0x60 DUP6 ADD PUSH2 0x4875 JUMP JUMPDEST PUSH1 0x1 PUSH1 0x1 PUSH1 0x40 SHL SUB AND PUSH1 0xA0 DUP4 ADD MSTORE PUSH2 0x495C PUSH1 0x80 DUP6 ADD PUSH2 0x4875 JUMP JUMPDEST PUSH1 0x1 PUSH1 0x1 PUSH1 0x40 SHL SUB DUP2 AND PUSH1 0xC0 DUP5 ADD MSTORE POP PUSH1 0xA0 DUP5 ADD CALLDATALOAD PUSH1 0xE0 DUP4 ADD MSTORE PUSH2 0x4982 PUSH1 0xC0 DUP6 ADD PUSH2 0x38FD JUMP JUMPDEST PUSH2 0x100 PUSH2 0x4999 DUP2 DUP6 ADD DUP4 PUSH1 0x1 PUSH1 0x1 PUSH1 0xA0 SHL SUB AND SWAP1 MSTORE JUMP JUMPDEST PUSH2 0x49A5 PUSH1 0xE0 DUP8 ADD PUSH2 0x38FD JUMP JUMPDEST SWAP2 POP PUSH2 0x120 PUSH2 0x49BE DUP2 DUP7 ADD DUP5 PUSH1 0x1 PUSH1 0x1 PUSH1 0xA0 SHL SUB AND SWAP1 MSTORE JUMP JUMPDEST PUSH2 0x49C9 DUP3 DUP9 ADD PUSH2 0x488C JUMP JUMPDEST SWAP3 POP PUSH2 0x140 SWAP2 POP PUSH2 0x49DD DUP3 DUP7 ADD DUP5 ISZERO ISZERO SWAP1 MSTORE JUMP JUMPDEST PUSH2 0x49E9 DUP2 DUP9 ADD DUP9 PUSH2 0x4897 JUMP JUMPDEST SWAP4 POP SWAP1 POP DUP2 PUSH2 0x160 DUP7 ADD MSTORE PUSH2 0x4A03 PUSH2 0x180 DUP7 ADD DUP5 DUP4 PUSH2 0x48DC JUMP JUMPDEST SWAP3 POP POP POP DUP3 DUP2 SUB PUSH1 0x20 DUP5 ADD MSTORE PUSH2 0x4A19 DUP2 DUP6 PUSH2 0x38B7 JUMP JUMPDEST SWAP6 SWAP5 POP POP POP POP POP JUMP JUMPDEST PUSH1 0x0 DUP1 PUSH1 0x0 DUP1 PUSH1 0x0 PUSH1 0xA0 DUP7 DUP9 SUB SLT ISZERO PUSH2 0x4A3A JUMPI PUSH1 0x0 DUP1 REVERT JUMPDEST DUP6 CALLDATALOAD PUSH1 0x1 PUSH1 0x1 PUSH1 0x40 SHL SUB DUP1 DUP3 GT ISZERO PUSH2 0x4A51 JUMPI PUSH1 0x0 DUP1 REVERT JUMPDEST PUSH2 0x4A5D DUP10 DUP4 DUP11 ADD PUSH2 0x3975 JUMP JUMPDEST SWAP7 POP PUSH1 0x20 DUP9 ADD CALLDATALOAD SWAP6 POP PUSH1 0x40 DUP9 ADD CALLDATALOAD SWAP2 POP DUP1 DUP3 GT ISZERO PUSH2 0x4A7A JUMPI PUSH1 0x0 DUP1 REVERT JUMPDEST PUSH2 0x4823 DUP10 DUP4 DUP11 ADD PUSH2 0x3975 JUMP INVALID LOG2 PUSH5 0x6970667358 0x22 SLT KECCAK256 0xF 0xD9 PUSH10 0x6F5F2D7F9B4530D682F DUP13 0xED 0xD8 SELFBALANCE LOG4 0xC5 ADD DUP3 ISZERO 0xEA 0xB6 0x1F MUL 0xD 0xB4 0xC3 0x4B 0xC3 0xBB PUSH5 0x736F6C6343 STOP ADDMOD SGT STOP CALLER "
		},
		"gasEstimates": {
			"creation": {
				"codeDepositCost": "3826400",
				"executionCost": "infinite",
				"totalCost": "infinite"
			},
			"external": {
				"amendmentsSchemaID()": "2363",
				"attest((bytes32,bytes32,uint64,uint64,uint64,bytes32,address,address,bool,bytes))": "infinite",
				"callbackContract()": "2404",
				"closeReviewRequest(string)": "infinite",
				"contractVersion()": "infinite",
				"createNonPayableRequest(string,address[],uint256[],string[],string,string)": "infinite",
				"createRequest(string,address[],uint256[],string[],string,uint256,address,string)": "infinite",
				"createReviewForm(string,string[],string[][],uint8[])": "infinite",
				"getRequest(string)": "infinite",
				"getRequestReviewForm(string)": "infinite",
				"getReviewForm(string)": "infinite",
				"getReviewFormsNames()": "infinite",
				"getReviewRequestsNames()": "infinite",
				"getWhitelistedTokens()": "infinite",
				"isPayable()": "265",
				"isTokenWhitelisted(address)": "infinite",
				"multiAttest((bytes32,bytes32,uint64,uint64,uint64,bytes32,address,address,bool,bytes)[],uint256[])": "infinite",
				"multiRevoke((bytes32,bytes32,uint64,uint64,uint64,bytes32,address,address,bool,bytes)[],uint256[])": "infinite",
				"owner()": "2432",
				"pause()": "28704",
				"paused()": "2401",
				"renounceOwnership()": "infinite",
				"reviewsSchemaID()": "2340",
				"revoke((bytes32,bytes32,uint64,uint64,uint64,bytes32,address,address,bool,bytes))": "infinite",
				"setAmendmentsSchemaID(bytes32)": "24599",
				"setCallbackContract(address)": "26825",
				"setReviewsSchemaID(bytes32)": "24533",
				"transferOwnership(address)": "28443",
				"unpause()": "26573",
				"unwhitelistToken(address)": "infinite",
				"version()": "infinite",
				"whitelistToken(address)": "infinite"
			},
			"internal": {
				"createReviewRequestCommon(string memory,address[] memory,uint256[] memory,string memory[] memory,string memory,uint256,string memory,address,bool)": "infinite",
				"hasSubmittedReview(address,string memory,uint256)": "infinite",
				"isReviewer(address,string memory)": "infinite",
				"onAttest(struct Attestation calldata,uint256)": "infinite",
				"onRevoke(struct Attestation calldata,uint256)": "23",
				"processAmendment(struct Attestation calldata)": "infinite",
				"processReview(struct Attestation calldata)": "infinite",
				"validateAnswers(struct DeresyResolver.ReviewForm storage pointer,string memory[] memory)": "infinite",
				"validateHypercertID(uint256[] memory,uint256)": "infinite"
			}
		},
		"methodIdentifiers": {
			"amendmentsSchemaID()": "74987060",
			"attest((bytes32,bytes32,uint64,uint64,uint64,bytes32,address,address,bool,bytes))": "e60c3505",
			"callbackContract()": "bd7e2aa4",
			"closeReviewRequest(string)": "be2761d0",
			"contractVersion()": "a0a8e460",
			"createNonPayableRequest(string,address[],uint256[],string[],string,string)": "b0089d83",
			"createRequest(string,address[],uint256[],string[],string,uint256,address,string)": "c3a7e3e2",
			"createReviewForm(string,string[],string[][],uint8[])": "b759dc72",
			"getRequest(string)": "85b92413",
			"getRequestReviewForm(string)": "b4e137cd",
			"getReviewForm(string)": "80a43d70",
			"getReviewFormsNames()": "c480fe48",
			"getReviewRequestsNames()": "dd526054",
			"getWhitelistedTokens()": "e26f7900",
			"isPayable()": "ce46e046",
			"isTokenWhitelisted(address)": "b5af090f",
			"multiAttest((bytes32,bytes32,uint64,uint64,uint64,bytes32,address,address,bool,bytes)[],uint256[])": "91db0b7e",
			"multiRevoke((bytes32,bytes32,uint64,uint64,uint64,bytes32,address,address,bool,bytes)[],uint256[])": "88e5b2d9",
			"owner()": "8da5cb5b",
			"pause()": "8456cb59",
			"paused()": "5c975abb",
			"renounceOwnership()": "715018a6",
			"reviewsSchemaID()": "9128b0d8",
			"revoke((bytes32,bytes32,uint64,uint64,uint64,bytes32,address,address,bool,bytes))": "e49617e1",
			"setAmendmentsSchemaID(bytes32)": "abe1d7f3",
			"setCallbackContract(address)": "7a35aaa9",
			"setReviewsSchemaID(bytes32)": "b8b23c17",
			"transferOwnership(address)": "f2fde38b",
			"unpause()": "3f4ba83a",
			"unwhitelistToken(address)": "d627d25e",
			"version()": "54fd4d50",
			"whitelistToken(address)": "6247f6f2"
		}
	},
	"abi": [
		{
			"inputs": [
				{
					"internalType": "contract IEAS",
					"name": "eas",
					"type": "address"
				}
			],
			"stateMutability": "nonpayable",
			"type": "constructor"
		},
		{
			"inputs": [],
			"name": "AccessDenied",
			"type": "error"
		},
		{
			"inputs": [],
			"name": "InsufficientValue",
			"type": "error"
		},
		{
			"inputs": [],
			"name": "InvalidEAS",
			"type": "error"
		},
		{
			"inputs": [],
			"name": "NotPayable",
			"type": "error"
		},
		{
			"anonymous": false,
			"inputs": [
				{
					"indexed": false,
					"internalType": "string",
					"name": "_requestName",
					"type": "string"
				}
			],
			"name": "ClosedReviewRequest",
			"type": "event"
		},
		{
			"anonymous": false,
			"inputs": [
				{
					"indexed": false,
					"internalType": "string",
					"name": "_formName",
					"type": "string"
				}
			],
			"name": "CreatedReviewForm",
			"type": "event"
		},
		{
			"anonymous": false,
			"inputs": [
				{
					"indexed": false,
					"internalType": "string",
					"name": "_requestName",
					"type": "string"
				}
			],
			"name": "CreatedReviewRequest",
			"type": "event"
		},
		{
			"anonymous": false,
			"inputs": [
				{
					"components": [
						{
							"internalType": "bytes32",
							"name": "uid",
							"type": "bytes32"
						},
						{
							"internalType": "bytes32",
							"name": "schema",
							"type": "bytes32"
						},
						{
							"internalType": "uint64",
							"name": "time",
							"type": "uint64"
						},
						{
							"internalType": "uint64",
							"name": "expirationTime",
							"type": "uint64"
						},
						{
							"internalType": "uint64",
							"name": "revocationTime",
							"type": "uint64"
						},
						{
							"internalType": "bytes32",
							"name": "refUID",
							"type": "bytes32"
						},
						{
							"internalType": "address",
							"name": "recipient",
							"type": "address"
						},
						{
							"internalType": "address",
							"name": "attester",
							"type": "address"
						},
						{
							"internalType": "bool",
							"name": "revocable",
							"type": "bool"
						},
						{
							"internalType": "bytes",
							"name": "data",
							"type": "bytes"
						}
					],
					"indexed": false,
					"internalType": "struct Attestation",
					"name": "_attestation",
					"type": "tuple"
				},
				{
					"indexed": false,
					"internalType": "string",
					"name": "_requestName",
					"type": "string"
				}
			],
			"name": "OnReviewCallback",
			"type": "event"
		},
		{
			"anonymous": false,
			"inputs": [
				{
					"indexed": true,
					"internalType": "address",
					"name": "previousOwner",
					"type": "address"
				},
				{
					"indexed": true,
					"internalType": "address",
					"name": "newOwner",
					"type": "address"
				}
			],
			"name": "OwnershipTransferred",
			"type": "event"
		},
		{
			"anonymous": false,
			"inputs": [
				{
					"indexed": false,
					"internalType": "bytes32",
					"name": "_uid",
					"type": "bytes32"
				}
			],
			"name": "SubmittedAmendment",
			"type": "event"
		},
		{
			"anonymous": false,
			"inputs": [
				{
					"indexed": false,
					"internalType": "string",
					"name": "_requestName",
					"type": "string"
				}
			],
			"name": "SubmittedReview",
			"type": "event"
		},
		{
			"inputs": [],
			"name": "amendmentsSchemaID",
			"outputs": [
				{
					"internalType": "bytes32",
					"name": "",
					"type": "bytes32"
				}
			],
			"stateMutability": "view",
			"type": "function"
		},
		{
			"inputs": [
				{
					"components": [
						{
							"internalType": "bytes32",
							"name": "uid",
							"type": "bytes32"
						},
						{
							"internalType": "bytes32",
							"name": "schema",
							"type": "bytes32"
						},
						{
							"internalType": "uint64",
							"name": "time",
							"type": "uint64"
						},
						{
							"internalType": "uint64",
							"name": "expirationTime",
							"type": "uint64"
						},
						{
							"internalType": "uint64",
							"name": "revocationTime",
							"type": "uint64"
						},
						{
							"internalType": "bytes32",
							"name": "refUID",
							"type": "bytes32"
						},
						{
							"internalType": "address",
							"name": "recipient",
							"type": "address"
						},
						{
							"internalType": "address",
							"name": "attester",
							"type": "address"
						},
						{
							"internalType": "bool",
							"name": "revocable",
							"type": "bool"
						},
						{
							"internalType": "bytes",
							"name": "data",
							"type": "bytes"
						}
					],
					"internalType": "struct Attestation",
					"name": "attestation",
					"type": "tuple"
				}
			],
			"name": "attest",
			"outputs": [
				{
					"internalType": "bool",
					"name": "",
					"type": "bool"
				}
			],
			"stateMutability": "payable",
			"type": "function"
		},
		{
			"inputs": [],
			"name": "callbackContract",
			"outputs": [
				{
					"internalType": "contract IOnReviewable",
					"name": "",
					"type": "address"
				}
			],
			"stateMutability": "view",
			"type": "function"
		},
		{
			"inputs": [
				{
					"internalType": "string",
					"name": "_name",
					"type": "string"
				}
			],
			"name": "closeReviewRequest",
			"outputs": [],
			"stateMutability": "nonpayable",
			"type": "function"
		},
		{
			"inputs": [],
			"name": "contractVersion",
			"outputs": [
				{
					"internalType": "string",
					"name": "",
					"type": "string"
				}
			],
			"stateMutability": "view",
			"type": "function"
		},
		{
			"inputs": [
				{
					"internalType": "string",
					"name": "_name",
					"type": "string"
				},
				{
					"internalType": "address[]",
					"name": "reviewers",
					"type": "address[]"
				},
				{
					"internalType": "uint256[]",
					"name": "hypercertIDs",
					"type": "uint256[]"
				},
				{
					"internalType": "string[]",
					"name": "hypercertIPFSHashes",
					"type": "string[]"
				},
				{
					"internalType": "string",
					"name": "formIpfsHash",
					"type": "string"
				},
				{
					"internalType": "string",
					"name": "reviewFormName",
					"type": "string"
				}
			],
			"name": "createNonPayableRequest",
			"outputs": [],
			"stateMutability": "nonpayable",
			"type": "function"
		},
		{
			"inputs": [
				{
					"internalType": "string",
					"name": "_name",
					"type": "string"
				},
				{
					"internalType": "address[]",
					"name": "reviewers",
					"type": "address[]"
				},
				{
					"internalType": "uint256[]",
					"name": "hypercertIDs",
					"type": "uint256[]"
				},
				{
					"internalType": "string[]",
					"name": "hypercertIPFSHashes",
					"type": "string[]"
				},
				{
					"internalType": "string",
					"name": "formIpfsHash",
					"type": "string"
				},
				{
					"internalType": "uint256",
					"name": "rewardPerReview",
					"type": "uint256"
				},
				{
					"internalType": "address",
					"name": "paymentTokenAddress",
					"type": "address"
				},
				{
					"internalType": "string",
					"name": "reviewFormName",
					"type": "string"
				}
			],
			"name": "createRequest",
			"outputs": [],
			"stateMutability": "payable",
			"type": "function"
		},
		{
			"inputs": [
				{
					"internalType": "string",
					"name": "_name",
					"type": "string"
				},
				{
					"internalType": "string[]",
					"name": "questions",
					"type": "string[]"
				},
				{
					"internalType": "string[][]",
					"name": "choices",
					"type": "string[][]"
				},
				{
					"internalType": "enum DeresyResolver.QuestionType[]",
					"name": "questionTypes",
					"type": "uint8[]"
				}
			],
			"name": "createReviewForm",
			"outputs": [],
			"stateMutability": "nonpayable",
			"type": "function"
		},
		{
			"inputs": [
				{
					"internalType": "string",
					"name": "_name",
					"type": "string"
				}
			],
			"name": "getRequest",
			"outputs": [
				{
					"components": [
						{
							"internalType": "address",
							"name": "sponsor",
							"type": "address"
						},
						{
							"internalType": "address[]",
							"name": "reviewers",
							"type": "address[]"
						},
						{
							"internalType": "uint256[]",
							"name": "hypercertIDs",
							"type": "uint256[]"
						},
						{
							"internalType": "string[]",
							"name": "hypercertIPFSHashes",
							"type": "string[]"
						},
						{
							"internalType": "string",
							"name": "formIpfsHash",
							"type": "string"
						},
						{
							"internalType": "uint256",
							"name": "rewardPerReview",
							"type": "uint256"
						},
						{
							"components": [
								{
									"internalType": "address",
									"name": "reviewer",
									"type": "address"
								},
								{
									"internalType": "uint256",
									"name": "hypercertID",
									"type": "uint256"
								},
								{
									"internalType": "bytes32",
									"name": "attestationID",
									"type": "bytes32"
								},
								{
									"internalType": "bytes32[]",
									"name": "amendmentsUIDs",
									"type": "bytes32[]"
								}
							],
							"internalType": "struct DeresyResolver.Review[]",
							"name": "reviews",
							"type": "tuple[]"
						},
						{
							"internalType": "bool",
							"name": "isClosed",
							"type": "bool"
						},
						{
							"internalType": "address",
							"name": "paymentTokenAddress",
							"type": "address"
						},
						{
							"internalType": "uint256",
							"name": "fundsLeft",
							"type": "uint256"
						},
						{
							"internalType": "string",
							"name": "reviewFormName",
							"type": "string"
						},
						{
							"internalType": "string",
							"name": "name",
							"type": "string"
						}
					],
					"internalType": "struct DeresyResolver.ReviewRequest",
					"name": "reviewRequest",
					"type": "tuple"
				}
			],
			"stateMutability": "view",
			"type": "function"
		},
		{
			"inputs": [
				{
					"internalType": "string",
					"name": "_name",
					"type": "string"
				}
			],
			"name": "getRequestReviewForm",
			"outputs": [
				{
					"components": [
						{
							"internalType": "string[]",
							"name": "questions",
							"type": "string[]"
						},
						{
							"internalType": "enum DeresyResolver.QuestionType[]",
							"name": "questionTypes",
							"type": "uint8[]"
						},
						{
							"internalType": "string[][]",
							"name": "choices",
							"type": "string[][]"
						}
					],
					"internalType": "struct DeresyResolver.ReviewForm",
					"name": "requestReviewForm",
					"type": "tuple"
				}
			],
			"stateMutability": "view",
			"type": "function"
		},
		{
			"inputs": [
				{
					"internalType": "string",
					"name": "_reviewFormName",
					"type": "string"
				}
			],
			"name": "getReviewForm",
			"outputs": [
				{
					"components": [
						{
							"internalType": "string[]",
							"name": "questions",
							"type": "string[]"
						},
						{
							"internalType": "enum DeresyResolver.QuestionType[]",
							"name": "questionTypes",
							"type": "uint8[]"
						},
						{
							"internalType": "string[][]",
							"name": "choices",
							"type": "string[][]"
						}
					],
					"internalType": "struct DeresyResolver.ReviewForm",
					"name": "reviewForm",
					"type": "tuple"
				}
			],
			"stateMutability": "view",
			"type": "function"
		},
		{
			"inputs": [],
			"name": "getReviewFormsNames",
			"outputs": [
				{
					"internalType": "string[]",
					"name": "",
					"type": "string[]"
				}
			],
			"stateMutability": "view",
			"type": "function"
		},
		{
			"inputs": [],
			"name": "getReviewRequestsNames",
			"outputs": [
				{
					"internalType": "string[]",
					"name": "",
					"type": "string[]"
				}
			],
			"stateMutability": "view",
			"type": "function"
		},
		{
			"inputs": [],
			"name": "getWhitelistedTokens",
			"outputs": [
				{
					"internalType": "address[]",
					"name": "",
					"type": "address[]"
				}
			],
			"stateMutability": "view",
			"type": "function"
		},
		{
			"inputs": [],
			"name": "isPayable",
			"outputs": [
				{
					"internalType": "bool",
					"name": "",
					"type": "bool"
				}
			],
			"stateMutability": "pure",
			"type": "function"
		},
		{
			"inputs": [
				{
					"internalType": "address",
					"name": "tokenAddress",
					"type": "address"
				}
			],
			"name": "isTokenWhitelisted",
			"outputs": [
				{
					"internalType": "bool",
					"name": "",
					"type": "bool"
				}
			],
			"stateMutability": "view",
			"type": "function"
		},
		{
			"inputs": [
				{
					"components": [
						{
							"internalType": "bytes32",
							"name": "uid",
							"type": "bytes32"
						},
						{
							"internalType": "bytes32",
							"name": "schema",
							"type": "bytes32"
						},
						{
							"internalType": "uint64",
							"name": "time",
							"type": "uint64"
						},
						{
							"internalType": "uint64",
							"name": "expirationTime",
							"type": "uint64"
						},
						{
							"internalType": "uint64",
							"name": "revocationTime",
							"type": "uint64"
						},
						{
							"internalType": "bytes32",
							"name": "refUID",
							"type": "bytes32"
						},
						{
							"internalType": "address",
							"name": "recipient",
							"type": "address"
						},
						{
							"internalType": "address",
							"name": "attester",
							"type": "address"
						},
						{
							"internalType": "bool",
							"name": "revocable",
							"type": "bool"
						},
						{
							"internalType": "bytes",
							"name": "data",
							"type": "bytes"
						}
					],
					"internalType": "struct Attestation[]",
					"name": "attestations",
					"type": "tuple[]"
				},
				{
					"internalType": "uint256[]",
					"name": "values",
					"type": "uint256[]"
				}
			],
			"name": "multiAttest",
			"outputs": [
				{
					"internalType": "bool",
					"name": "",
					"type": "bool"
				}
			],
			"stateMutability": "payable",
			"type": "function"
		},
		{
			"inputs": [
				{
					"components": [
						{
							"internalType": "bytes32",
							"name": "uid",
							"type": "bytes32"
						},
						{
							"internalType": "bytes32",
							"name": "schema",
							"type": "bytes32"
						},
						{
							"internalType": "uint64",
							"name": "time",
							"type": "uint64"
						},
						{
							"internalType": "uint64",
							"name": "expirationTime",
							"type": "uint64"
						},
						{
							"internalType": "uint64",
							"name": "revocationTime",
							"type": "uint64"
						},
						{
							"internalType": "bytes32",
							"name": "refUID",
							"type": "bytes32"
						},
						{
							"internalType": "address",
							"name": "recipient",
							"type": "address"
						},
						{
							"internalType": "address",
							"name": "attester",
							"type": "address"
						},
						{
							"internalType": "bool",
							"name": "revocable",
							"type": "bool"
						},
						{
							"internalType": "bytes",
							"name": "data",
							"type": "bytes"
						}
					],
					"internalType": "struct Attestation[]",
					"name": "attestations",
					"type": "tuple[]"
				},
				{
					"internalType": "uint256[]",
					"name": "values",
					"type": "uint256[]"
				}
			],
			"name": "multiRevoke",
			"outputs": [
				{
					"internalType": "bool",
					"name": "",
					"type": "bool"
				}
			],
			"stateMutability": "payable",
			"type": "function"
		},
		{
			"inputs": [],
			"name": "owner",
			"outputs": [
				{
					"internalType": "address",
					"name": "",
					"type": "address"
				}
			],
			"stateMutability": "view",
			"type": "function"
		},
		{
			"inputs": [],
			"name": "pause",
			"outputs": [],
			"stateMutability": "nonpayable",
			"type": "function"
		},
		{
			"inputs": [],
			"name": "paused",
			"outputs": [
				{
					"internalType": "bool",
					"name": "",
					"type": "bool"
				}
			],
			"stateMutability": "view",
			"type": "function"
		},
		{
			"inputs": [],
			"name": "renounceOwnership",
			"outputs": [],
			"stateMutability": "nonpayable",
			"type": "function"
		},
		{
			"inputs": [],
			"name": "reviewsSchemaID",
			"outputs": [
				{
					"internalType": "bytes32",
					"name": "",
					"type": "bytes32"
				}
			],
			"stateMutability": "view",
			"type": "function"
		},
		{
			"inputs": [
				{
					"components": [
						{
							"internalType": "bytes32",
							"name": "uid",
							"type": "bytes32"
						},
						{
							"internalType": "bytes32",
							"name": "schema",
							"type": "bytes32"
						},
						{
							"internalType": "uint64",
							"name": "time",
							"type": "uint64"
						},
						{
							"internalType": "uint64",
							"name": "expirationTime",
							"type": "uint64"
						},
						{
							"internalType": "uint64",
							"name": "revocationTime",
							"type": "uint64"
						},
						{
							"internalType": "bytes32",
							"name": "refUID",
							"type": "bytes32"
						},
						{
							"internalType": "address",
							"name": "recipient",
							"type": "address"
						},
						{
							"internalType": "address",
							"name": "attester",
							"type": "address"
						},
						{
							"internalType": "bool",
							"name": "revocable",
							"type": "bool"
						},
						{
							"internalType": "bytes",
							"name": "data",
							"type": "bytes"
						}
					],
					"internalType": "struct Attestation",
					"name": "attestation",
					"type": "tuple"
				}
			],
			"name": "revoke",
			"outputs": [
				{
					"internalType": "bool",
					"name": "",
					"type": "bool"
				}
			],
			"stateMutability": "payable",
			"type": "function"
		},
		{
			"inputs": [
				{
					"internalType": "bytes32",
					"name": "_amendmentsSchemaID",
					"type": "bytes32"
				}
			],
			"name": "setAmendmentsSchemaID",
			"outputs": [],
			"stateMutability": "nonpayable",
			"type": "function"
		},
		{
			"inputs": [
				{
					"internalType": "address",
					"name": "_callbackContractAddress",
					"type": "address"
				}
			],
			"name": "setCallbackContract",
			"outputs": [],
			"stateMutability": "nonpayable",
			"type": "function"
		},
		{
			"inputs": [
				{
					"internalType": "bytes32",
					"name": "_reviewsSchemaID",
					"type": "bytes32"
				}
			],
			"name": "setReviewsSchemaID",
			"outputs": [],
			"stateMutability": "nonpayable",
			"type": "function"
		},
		{
			"inputs": [
				{
					"internalType": "address",
					"name": "newOwner",
					"type": "address"
				}
			],
			"name": "transferOwnership",
			"outputs": [],
			"stateMutability": "nonpayable",
			"type": "function"
		},
		{
			"inputs": [],
			"name": "unpause",
			"outputs": [],
			"stateMutability": "nonpayable",
			"type": "function"
		},
		{
			"inputs": [
				{
					"internalType": "address",
					"name": "tokenAddress",
					"type": "address"
				}
			],
			"name": "unwhitelistToken",
			"outputs": [],
			"stateMutability": "nonpayable",
			"type": "function"
		},
		{
			"inputs": [],
			"name": "version",
			"outputs": [
				{
					"internalType": "string",
					"name": "",
					"type": "string"
				}
			],
			"stateMutability": "view",
			"type": "function"
		},
		{
			"inputs": [
				{
					"internalType": "address",
					"name": "tokenAddress",
					"type": "address"
				}
			],
			"name": "whitelistToken",
			"outputs": [],
			"stateMutability": "nonpayable",
			"type": "function"
		},
		{
			"stateMutability": "payable",
			"type": "receive"
		}
	]
}