{
	"data": {
		"bytecode": {
			"linkReferences": {},
			"object": "61014060405260036101009081526218171960e91b61012052600890620000279082620001f0565b506009805460ff191660011790553480156200004257600080fd5b5060405162004a7238038062004a728339810160408190526200006591620002bc565b6001608052600060a081905260c052806001600160a01b0381166200009d576040516341bc07ff60e11b815260040160405180910390fd5b6001600160a01b031660e052620000b433620000fb565b50600580546001810182556000919091527f036b6384b5eca791c62761152d0c79bb0604c104a5fb6f4eb0703f3154bb3db00180546001600160a01b0319169055620002ee565b600080546001600160a01b038381166001600160a01b0319831681178455604051919092169283917f8be0079c531659141344cd1fd0a4f28419497f9722a3daafe3b4186f6b6457e09190a35050565b634e487b7160e01b600052604160045260246000fd5b600181811c908216806200017657607f821691505b6020821081036200019757634e487b7160e01b600052602260045260246000fd5b50919050565b601f821115620001eb57600081815260208120601f850160051c81016020861015620001c65750805b601f850160051c820191505b81811015620001e757828155600101620001d2565b5050505b505050565b81516001600160401b038111156200020c576200020c6200014b565b62000224816200021d845462000161565b846200019d565b602080601f8311600181146200025c5760008415620002435750858301515b600019600386901b1c1916600185901b178555620001e7565b600085815260208120601f198616915b828110156200028d578886015182559484019460019091019084016200026c565b5085821015620002ac5787850151600019600388901b60f8161c191681555b5050505050600190811b01905550565b600060208284031215620002cf57600080fd5b81516001600160a01b0381168114620002e757600080fd5b9392505050565b60805160a05160c05160e05161474a6200032860003960006126e3015260006109e0015260006109b70152600061098e015261474a6000f3fe6080604052600436106101e75760003560e01c8063a0a8e46011610102578063be2761d011610095578063e26f790011610064578063e26f790014610567578063e49617e114610589578063e60c35051461059c578063f2fde38b146105af57600080fd5b8063be2761d0146104f1578063ce46e04614610511578063d627d25e14610525578063dd5260541461054557600080fd5b8063b5af090f116100d1578063b5af090f14610471578063b6fc76af14610491578063b8b23c17146104b1578063bd7e2aa4146104d157600080fd5b8063a0a8e460146103ec578063a940b87414610401578063abe1d7f314610421578063b4e137cd1461044157600080fd5b80637a35aaa91161017a57806388e5b2d91161014957806388e5b2d91461037e5780638da5cb5b146103915780639128b0d8146103c357806391db0b7e146103d957600080fd5b80637a35aaa9146102fe5780638456cb591461031e57806385b924131461033357806386be6d511461036857600080fd5b80635c975abb116101b65780635c975abb146102895780636247f6f2146102b3578063715018a6146102d357806374987060146102e857600080fd5b806320de04621461020c578063309405231461021f5780633f4ba83a1461025257806354fd4d501461026757600080fd5b3661020757604051631574f9f360e01b815260040160405180910390fd5b005b600080fd5b61020561021a3660046138d8565b6105cf565b34801561022b57600080fd5b5061023f61023a366004613a36565b610617565b6040519081526020015b60405180910390f35b34801561025e57600080fd5b50610205610973565b34801561027357600080fd5b5061027c610987565b6040516102499190613b89565b34801561029557600080fd5b506009546102a39060ff1681565b6040519015158152602001610249565b3480156102bf57600080fd5b506102056102ce366004613ba3565b610a2a565b3480156102df57600080fd5b50610205610ada565b3480156102f457600080fd5b5061023f60045481565b34801561030a57600080fd5b50610205610319366004613ba3565b610aee565b34801561032a57600080fd5b50610205610b18565b34801561033f57600080fd5b5061035361034e366004613bbe565b610b52565b60405161024999989796959493929190613d3c565b34801561037457600080fd5b5061023f60075481565b6102a361038c366004613e4e565b610fb9565b34801561039d57600080fd5b506000546001600160a01b03165b6040516001600160a01b039091168152602001610249565b3480156103cf57600080fd5b5061023f60035481565b6102a36103e7366004613e4e565b611066565b3480156103f857600080fd5b5061027c611105565b34801561040d57600080fd5b5061020561041c366004613eb9565b611193565b34801561042d57600080fd5b5061020561043c366004613f92565b6111d1565b34801561044d57600080fd5b5061046161045c366004613bbe565b6111de565b6040516102499493929190614009565b34801561047d57600080fd5b506102a361048c366004613ba3565b6114c0565b34801561049d57600080fd5b506104616104ac366004613f92565b611529565b3480156104bd57600080fd5b506102056104cc366004613f92565b61183f565b3480156104dd57600080fd5b506001546103ab906001600160a01b031681565b3480156104fd57600080fd5b5061020561050c366004613bbe565b61184c565b34801561051d57600080fd5b5060006102a3565b34801561053157600080fd5b50610205610540366004613ba3565b611a3d565b34801561055157600080fd5b5061055a611b9e565b6040516102499190614099565b34801561057357600080fd5b5061057c611c77565b60405161024991906140ac565b6102a36105973660046140bf565b611cd9565b6102a36105aa3660046140bf565b611cf5565b3480156105bb57600080fd5b506102056105ca366004613ba3565b611d09565b60095460ff16156105fb5760405162461bcd60e51b81526004016105f2906140fa565b60405180910390fd5b61060d88888888888887896001611d82565b5050505050505050565b60095460009060ff161561063d5760405162461bcd60e51b81526004016105f2906140fa565b846106965760405162461bcd60e51b815260206004820152602360248201527f4465726573793a2045415320536368656d612049442063616e2774206265206e6044820152621d5b1b60ea1b60648201526084016105f2565b60008451116106e75760405162461bcd60e51b815260206004820152601f60248201527f4465726573793a205175657374696f6e732063616e2774206265206e756c6c0060448201526064016105f2565b60008251116107445760405162461bcd60e51b8152602060048201526024808201527f4465726573793a205175657374696f6e2054797065732063616e2774206265206044820152631b9d5b1b60e21b60648201526084016105f2565b83518251146107b35760405162461bcd60e51b815260206004820152603560248201527f4465726573793a205175657374696f6e7320616e64207479706573206d757374604482015274040d0c2ecca40e8d0ca40e6c2daca40d8cadccee8d605b1b60648201526084016105f2565b825184511461082a5760405162461bcd60e51b815260206004820152603760248201527f4465726573793a205175657374696f6e7320616e642063686f69636573206d7560448201527f73742068617665207468652073616d65206c656e67746800000000000000000060648201526084016105f2565b60408051608081018252868152602080820187815292820185905260608201869052600a8054600181018255600091909152825160049091027fc65a7bb8d6351c1cf70c95a316cc6a92839c986682d98bc35f958f4883f9d2a8810191825593518051939491936108c4937fc65a7bb8d6351c1cf70c95a316cc6a92839c986682d98bc35f958f4883f9d2a9909301929190910190613407565b50604082015180516108e091600284019160209091019061345d565b50606082015180516108fc91600384019160209091019061350d565b505050600160076000828254610912919061413c565b9091555050600a547f2ca1c706b776fc626b1e93b556d8968577908c5fee79ca88376ade10b781019c906109489060019061414f565b60405190815260200160405180910390a1600a546109689060019061414f565b90505b949350505050565b61097b61259c565b6009805460ff19169055565b60606109b27f00000000000000000000000000000000000000000000000000000000000000006125f6565b6109db7f00000000000000000000000000000000000000000000000000000000000000006125f6565b610a047f00000000000000000000000000000000000000000000000000000000000000006125f6565b604051602001610a1693929190614162565b604051602081830303815290604052905090565b610a3261259c565b610a3b816114c0565b15610a885760405162461bcd60e51b815260206004820152601960248201527f546f6b656e20616c72656164792077686974656c69737465640000000000000060448201526064016105f2565b600580546001810182556000919091527f036b6384b5eca791c62761152d0c79bb0604c104a5fb6f4eb0703f3154bb3db00180546001600160a01b0319166001600160a01b0392909216919091179055565b610ae261259c565b610aec6000612688565b565b610af661259c565b600180546001600160a01b0319166001600160a01b0392909216919091179055565b610b2061259c565b60095460ff1615610b435760405162461bcd60e51b81526004016105f2906140fa565b6009805460ff19166001179055565b6060806060806000606060008060008060028b604051610b7291906141bc565b9081526040805191829003602090810183206101808401835280546001600160a01b03168452600181018054845181850281018501909552808552919385840193909290830182828015610bef57602002820191906000526020600020905b81546001600160a01b03168152600190910190602001808311610bd1575b5050505050815260200160028201805480602002602001604051908101604052809291908181526020018280548015610c4757602002820191906000526020600020905b815481526020019060010190808311610c33575b5050505050815260200160038201805480602002602001604051908101604052809291908181526020016000905b82821015610d21578382906000526020600020018054610c94906141d8565b80601f0160208091040260200160405190810160405280929190818152602001828054610cc0906141d8565b8015610d0d5780601f10610ce257610100808354040283529160200191610d0d565b820191906000526020600020905b815481529060010190602001808311610cf057829003601f168201915b505050505081526020019060010190610c75565b505050508152602001600482018054610d39906141d8565b80601f0160208091040260200160405190810160405280929190818152602001828054610d65906141d8565b8015610db25780601f10610d8757610100808354040283529160200191610db2565b820191906000526020600020905b815481529060010190602001808311610d9557829003601f168201915b505050505081526020016005820154815260200160068201805480602002602001604051908101604052809291908181526020016000905b82821015610e93576000848152602090819020604080516080810182526004860290920180546001600160a01b0316835260018101548385015260028101548383015260038101805483518187028101870190945280845293949193606086019392830182828015610e7b57602002820191906000526020600020905b815481526020019060010190808311610e67575b50505050508152505081526020019060010190610dea565b50505090825250600782015460ff81161515602083015261010090046001600160a01b031660408201526008820154606082015260098201546080820152600a8201805460a090920191610ee6906141d8565b80601f0160208091040260200160405190810160405280929190818152602001828054610f12906141d8565b8015610f5f5780601f10610f3457610100808354040283529160200191610f5f565b820191906000526020600020905b815481529060010190602001808311610f4257829003601f168201915b505050505081525050905080602001518160400151826060015183608001518460a001518560c001518661014001518760e00151886101000151995099509950995099509950995099509950509193959799909294969850565b6000610fc36126d8565b833460005b82811015611058576000868683818110610fe457610fe4614212565b9050602002013590508281111561100e5760405163044044a560e21b815260040160405180910390fd5b61103b89898481811061102357611023614212565b90506020028101906110359190614228565b82612721565b61104c57600094505050505061096b565b90910390600101610fc8565b506001979650505050505050565b60006110706126d8565b833460005b8281101561105857600086868381811061109157611091614212565b905060200201359050828111156110bb5760405163044044a560e21b815260040160405180910390fd5b6110e88989848181106110d0576110d0614212565b90506020028101906110e29190614228565b8261272a565b6110f957600094505050505061096b565b90910390600101611075565b60088054611112906141d8565b80601f016020809104026020016040519081016040528092919081815260200182805461113e906141d8565b801561118b5780601f106111605761010080835404028352916020019161118b565b820191906000526020600020905b81548152906001019060200180831161116e57829003601f168201915b505050505081565b60095460ff16156111b65760405162461bcd60e51b81526004016105f2906140fa565b6111c98686868686600087600080611d82565b505050505050565b6111d961259c565b600455565b60608060606000806002866040516111f691906141bc565b908152602001604051809103902090506000600a82600901548154811061121f5761121f614212565b90600052602060002090600402019050806001018160020182600301836000015483805480602002602001604051908101604052809291908181526020016000905b8282101561130d578382906000526020600020018054611280906141d8565b80601f01602080910402602001604051908101604052809291908181526020018280546112ac906141d8565b80156112f95780601f106112ce576101008083540402835291602001916112f9565b820191906000526020600020905b8154815290600101906020018083116112dc57829003601f168201915b505050505081526020019060010190611261565b5050505093508280548060200260200160405190810160405280929190818152602001828054801561138e57602002820191906000526020600020906000905b82829054906101000a900460ff16600281111561136c5761136c613fab565b81526020600192830181810494850194909303909202910180841161134d5790505b5050505050925081805480602002602001604051908101604052809291908181526020016000905b828210156114a957838290600052602060002001805480602002602001604051908101604052809291908181526020016000905b82821015611496578382906000526020600020018054611409906141d8565b80601f0160208091040260200160405190810160405280929190818152602001828054611435906141d8565b80156114825780601f1061145757610100808354040283529160200191611482565b820191906000526020600020905b81548152906001019060200180831161146557829003601f168201915b5050505050815260200190600101906113ea565b50505050815260200190600101906113b6565b505050509150955095509550955050509193509193565b6000805b60055481101561152057826001600160a01b0316600582815481106114eb576114eb614212565b6000918252602090912001546001600160a01b03160361150e5750600192915050565b806115188161423f565b9150506114c4565b50600092915050565b60608060606000600a858154811061154357611543614212565b9060005260206000209060040201600101600a868154811061156757611567614212565b9060005260206000209060040201600201600a878154811061158b5761158b614212565b9060005260206000209060040201600301600a88815481106115af576115af614212565b90600052602060002090600402016000015483805480602002602001604051908101604052809291908181526020016000905b8282101561168e578382906000526020600020018054611601906141d8565b80601f016020809104026020016040519081016040528092919081815260200182805461162d906141d8565b801561167a5780601f1061164f5761010080835404028352916020019161167a565b820191906000526020600020905b81548152906001019060200180831161165d57829003601f168201915b5050505050815260200190600101906115e2565b5050505093508280548060200260200160405190810160405280929190818152602001828054801561170f57602002820191906000526020600020906000905b82829054906101000a900460ff1660028111156116ed576116ed613fab565b8152602060019283018181049485019490930390920291018084116116ce5790505b5050505050925081805480602002602001604051908101604052809291908181526020016000905b8282101561182a57838290600052602060002001805480602002602001604051908101604052809291908181526020016000905b8282101561181757838290600052602060002001805461178a906141d8565b80601f01602080910402602001604051908101604052809291908181526020018280546117b6906141d8565b80156118035780601f106117d857610100808354040283529160200191611803565b820191906000526020600020905b8154815290600101906020018083116117e657829003601f168201915b50505050508152602001906001019061176b565b5050505081526020019060010190611737565b50505050915093509350935093509193509193565b61184761259c565b600355565b60028160405161185c91906141bc565b90815260405190819003602001902054336001600160a01b03909116146118c55760405162461bcd60e51b815260206004820152601d60248201527f4465726573793a204974206973206e6f74207468652073706f6e736f7200000060448201526064016105f2565b6002816040516118d591906141bc565b9081526040519081900360200190206007015460ff16156119315760405162461bcd60e51b815260206004820152601660248201527511195c995cde4e881c995c5d595cdd0818db1bdcd95960521b60448201526064016105f2565b60028160405161194191906141bc565b908152604051908190036020018120546001600160a01b0316906108fc9060029061196d9085906141bc565b90815260405190819003602001812060080154801590920291906000818181858888f193505050501580156119a6573d6000803e3d6000fd5b5060016002826040516119b991906141bc565b908152604051908190036020018120600701805492151560ff19909316929092179091556000906002906119ee9084906141bc565b9081526020016040518091039020600801819055507fbc5c8cb2024ed254e024e37b09895ecaa07948dd0fd7a08e30b80f559888f2cf81604051611a329190613b89565b60405180910390a150565b611a4561259c565b611a4e816114c0565b611a935760405162461bcd60e51b8152602060048201526016602482015275151bdad95b881b9bdd081a5b881dda1a5d195b1a5cdd60521b60448201526064016105f2565b60005b600554811015611b9a57816001600160a01b031660058281548110611abd57611abd614212565b6000918252602090912001546001600160a01b031603611b885760058054611ae79060019061414f565b81548110611af757611af7614212565b600091825260209091200154600580546001600160a01b039092169183908110611b2357611b23614212565b9060005260206000200160006101000a8154816001600160a01b0302191690836001600160a01b031602179055506005805480611b6257611b62614258565b600082815260209020810160001990810180546001600160a01b03191690550190555050565b80611b928161423f565b915050611a96565b5050565b60606006805480602002602001604051908101604052809291908181526020016000905b82821015611c6e578382906000526020600020018054611be1906141d8565b80601f0160208091040260200160405190810160405280929190818152602001828054611c0d906141d8565b8015611c5a5780601f10611c2f57610100808354040283529160200191611c5a565b820191906000526020600020905b815481529060010190602001808311611c3d57829003601f168201915b505050505081526020019060010190611bc2565b50505050905090565b60606005805480602002602001604051908101604052809291908181526020018280548015611ccf57602002820191906000526020600020905b81546001600160a01b03168152600190910190602001808311611cb1575b5050505050905090565b6000611ce36126d8565b611ced8234612721565b90505b919050565b6000611cff6126d8565b611ced823461272a565b611d1161259c565b6001600160a01b038116611d765760405162461bcd60e51b815260206004820152602660248201527f4f776e61626c653a206e6577206f776e657220697320746865207a65726f206160448201526564647265737360d01b60648201526084016105f2565b611d7f81612688565b50565b6000885111611dd35760405162461bcd60e51b815260206004820181905260248201527f4465726573793a205265766965776572732063616e6e6f74206265206e756c6c60448201526064016105f2565b6000875111611e305760405162461bcd60e51b8152602060048201526024808201527f4465726573793a20487970657263657274204944732063616e6e6f74206265206044820152631b9d5b1b60e21b60648201526084016105f2565b6000865111611e975760405162461bcd60e51b815260206004820152602d60248201527f4465726573793a2048797065726365727473204950465320686173686573206360448201526c185b9b9bdd081899481b9d5b1b609a1b60648201526084016105f2565b8551875114611f235760405162461bcd60e51b815260206004820152604c60248201527f4465726573793a2048797065726365727449447320616e64204879706572636560448201527f727449504653486173686573206172726179206d75737420686176652074686560648201526b040e6c2daca40d8cadccee8d60a31b608482015260a4016105f2565b600a54611f329060019061414f565b831115611f815760405162461bcd60e51b815260206004820152601f60248201527f4465726573793a20526576696577466f726d496e64657820696e76616c69640060448201526064016105f2565b60006001600160a01b031660028a604051611f9c91906141bc565b908152604051908190036020019020546001600160a01b0316146120025760405162461bcd60e51b815260206004820152601760248201527f4465726573793a204e616d65206475706c69636174656400000000000000000060448201526064016105f2565b61200b826114c0565b6120575760405162461bcd60e51b815260206004820181905260248201527f4465726573793a20546f6b656e206973206e6f742077686974656c697374656460448201526064016105f2565b6000811561229257600085116120e35760405162461bcd60e51b815260206004820152604560248201527f4465726573793a20726577617264506572526576696577206d7573742062652060448201527f67726561746572207468616e207a65726f20666f722070617961626c652072656064820152641c5d595cdd60da1b608482015260a4016105f2565b6001600160a01b038316612160578488518a51612100919061426e565b61210a919061426e565b3410156121595760405162461bcd60e51b815260206004820152601960248201527f4465726573793a206d73672e76616c756520696e76616c69640000000000000060448201526064016105f2565b5034612306565b34156121ae5760405162461bcd60e51b815260206004820152601c60248201527f4465726573793a206d73672e76616c756520697320696e76616c69640000000060448201526064016105f2565b8488518a516121bd919061426e565b6121c7919061426e565b6040516323b872dd60e01b8152336004820152306024820152604481018290529091506001600160a01b038416906323b872dd906064016020604051808303816000875af115801561221d573d6000803e3d6000fd5b505050506040513d601f19601f820116820180604052508101906122419190614293565b61228d5760405162461bcd60e51b815260206004820152601d60248201527f4465726573793a20546f6b656e207472616e73666572206661696c656400000060448201526064016105f2565b612306565b84156123065760405162461bcd60e51b815260206004820152603c60248201527f4465726573793a20726577617264506572526576696577206d7573742062652060448201527f7a65726f20666f72206e6f6e2d70617961626c6520726571756573740000000060648201526084016105f2565b3360028b60405161231791906141bc565b90815260405190819003602001812080546001600160a01b03939093166001600160a01b0319909316929092179091558990600290612357908d906141bc565b9081526020016040518091039020600101908051906020019061237b929190613566565b508760028b60405161238d91906141bc565b908152602001604051809103902060020190805190602001906123b19291906135bb565b508660028b6040516123c391906141bc565b908152602001604051809103902060030190805190602001906123e7929190613407565b508560028b6040516123f991906141bc565b9081526020016040518091039020600401908161241691906142fb565b5081612423576000612425565b845b60028b60405161243591906141bc565b908152602001604051809103902060050181905550600060028b60405161245c91906141bc565b908152604051908190036020018120600701805492151560ff19909316929092179091558390600290612490908d906141bc565b908152602001604051809103902060070160016101000a8154816001600160a01b0302191690836001600160a01b03160217905550816124d15760006124d3565b805b60028b6040516124e391906141bc565b9081526020016040518091039020600801819055508360028b60405161250991906141bc565b90815260405190819003602001902060090155600680546001810182556000919091527ff652222313e28459528d920b65115c16c04f3efc82aaedc97be59f3f377c0d3f016125588b826142fb565b507f0448feabbf5bb385eb3ea2cb16d90b1cb3b4c8936e399cf7a10e7b8946eec6678a6040516125889190613b89565b60405180910390a150505050505050505050565b6000546001600160a01b03163314610aec5760405162461bcd60e51b815260206004820181905260248201527f4f776e61626c653a2063616c6c6572206973206e6f7420746865206f776e657260448201526064016105f2565b606060006126038361278b565b60010190506000816001600160401b038111156126225761262261369d565b6040519080825280601f01601f19166020018201604052801561264c576020820181803683370190505b5090508181016020015b600019016f181899199a1a9b1b9c1cb0b131b232b360811b600a86061a8153600a850494508461265657509392505050565b600080546001600160a01b038381166001600160a01b0319831681178455604051919092169283917f8be0079c531659141344cd1fd0a4f28419497f9722a3daafe3b4186f6b6457e09190a35050565b336001600160a01b037f00000000000000000000000000000000000000000000000000000000000000001614610aec57604051634ca8886760e01b815260040160405180910390fd5b60015b92915050565b60095460009060ff16156127505760405162461bcd60e51b81526004016105f2906140fa565b60035483602001350361276d5761276683612863565b9050612724565b6004548360200135036127835761276683612cca565b506000612724565b60008072184f03e93ff9f4daa797ed6e38ed64bf6a1f0160401b83106127ca5772184f03e93ff9f4daa797ed6e38ed64bf6a1f0160401b830492506040015b6d04ee2d6d415b85acef810000000083106127f6576d04ee2d6d415b85acef8100000000830492506020015b662386f26fc10000831061281457662386f26fc10000830492506010015b6305f5e100831061282c576305f5e100830492506008015b612710831061284057612710830492506004015b60648310612852576064830492506002015b600a83106127245760010192915050565b60008080806128766101208601866143ba565b8101906128839190614400565b50925092509250600060028460405161289c91906141bc565b908152602001604051809103902090506000600a8260090154815481106128c5576128c5614212565b60009182526020822060049091020191506128e7610100890160e08a01613ba3565b600784015490915088359060009060ff1615801561295c575061295c8560020180548060200260200160405190810160405280929190818152602001828054801561295157602002820191906000526020600020905b81548152602001906001019080831161293d575b505050505088612f33565b801561296c575085516001850154145b801561297d575061297d8389612f86565b801561298f575061298f83898961302a565b80156129a057506129a08487613124565b90508015612cbd57846006016040518060800160405280856001600160a01b0316815260200189815260200184815260200160006001600160401b038111156129eb576129eb61369d565b604051908082528060200260200182016040528015612a14578160200160208202803683370190505b5090528154600180820184556000938452602093849020835160049093020180546001600160a01b0319166001600160a01b039093169290921782558284015190820155604082015160028201556060820151805192939192612a7d92600385019201906135bb565b505050600585015415612bc4578460050154856008016000828254612aa2919061414f565b9091555050600785015461010090046001600160a01b0316612afd5760058501546040516001600160a01b0385169180156108fc02916000818181858888f19350505050158015612af7573d6000803e3d6000fd5b50612bc4565b6007850154600586015460405163a9059cbb60e01b81526001600160a01b0386811660048301526024820192909252610100909204169063a9059cbb906044016020604051808303816000875af1158015612b5c573d6000803e3d6000fd5b505050506040513d601f19601f82011682018060405250810190612b809190614293565b612bc45760405162461bcd60e51b8152602060048201526015602482015274151bdad95b881d1c985b9cd9995c8819985a5b1959605a1b60448201526064016105f2565b6001546001600160a01b031615612c855760015460405163bb69ab3360e01b81526001600160a01b039091169063bb69ab3390612c07908d908c90600401614515565b6020604051808303816000875af1158015612c26573d6000803e3d6000fd5b505050506040513d601f19601f82011682018060405250810190612c4a9190614293565b507f253a8677adaec417dae20224e9f7eb1182aed5a01b1938114cb310cd5c5d954d8a89604051612c7c929190614515565b60405180910390a15b7f4d6dd501df538f815f442947c933fc2f545525e75f909b918a6d0701acc7904c88604051612cb49190613b89565b60405180910390a15b9998505050505050505050565b6000808080612cdd6101208601866143ba565b810190612cea9190614632565b9250925092506000600284604051612d0291906141bc565b908152604051908190036020019020600681015490915015612f275760005b6006820154811015612f25578660a00135826006018281548110612d4757612d47614212565b906000526020600020906004020160020154148015612dac5750612d72610100880160e08901613ba3565b6001600160a01b0316826006018281548110612d9057612d90614212565b60009182526020909120600490910201546001600160a01b0316145b8015612db9575060008351115b8015612dea575083826006018281548110612dd657612dd6614212565b906000526020600020906004020160010154145b15612f13576000805b836006018381548110612e0857612e08614212565b906000526020600020906004020160030180549050811015612e8b578860000135846006018481548110612e3e57612e3e614212565b90600052602060002090600402016003018281548110612e6057612e60614212565b906000526020600020015403612e795760019150612e8b565b80612e838161423f565b915050612df3565b5080612f1157826006018281548110612ea657612ea6614212565b600091825260208083206004929092029091016003018054600181018255908352918190208a3592018290556040519182527fee28e94ac55844f79e4a8805659e8f6ded6bfe24b7ebe0570deb71c158ec9433910160405180910390a1506001979650505050505050565b505b80612f1d8161423f565b915050612d21565b505b50600095945050505050565b6000805b8351811015612f7c5782848281518110612f5357612f53614212565b602002602001015103612f6a576001915050612724565b80612f748161423f565b915050612f37565b5060009392505050565b600080805b600284604051612f9b91906141bc565b9081526040519081900360200190206001015481101561302257846001600160a01b0316600285604051612fcf91906141bc565b90815260200160405180910390206001018281548110612ff157612ff1614212565b6000918252602090912001546001600160a01b03160361301057600191505b8061301a8161423f565b915050612f8b565b509392505050565b60006001815b60028560405161304091906141bc565b9081526040519081900360200190206006015481101561311b578360028660405161306b91906141bc565b9081526020016040518091039020600601828154811061308d5761308d614212565b9060005260206000209060040201600101541480156130ff5750856001600160a01b03166002866040516130c191906141bc565b908152602001604051809103902060060182815481106130e3576130e3614212565b60009182526020909120600490910201546001600160a01b0316145b1561310957600091505b806131138161423f565b915050613030565b50949350505050565b6000805b82518110156133fd57600284600201828154811061314857613148614212565b90600052602060002090602091828204019190069054906101000a900460ff16600281111561317957613179613fab565b03613281576000805b85600301838154811061319757613197614212565b60009182526020909120015481101561326a578483815181106131bc576131bc614212565b60200260200101516040516020016131d491906141bc565b604051602081830303815290604052805190602001208660030184815481106131ff576131ff614212565b90600052602060002001828154811061321a5761321a614212565b90600052602060002001604051602001613234919061469e565b6040516020818303038152906040528051906020012003613258576001915061326a565b806132628161423f565b915050613182565b508061327b57600092505050612724565b506133eb565b600184600201828154811061329857613298614212565b90600052602060002090602091828204019190069054906101000a900460ff1660028111156132c9576132c9613fab565b036133bf576040516259657360e81b60208201526023016040516020818303038152906040528051906020012083828151811061330857613308614212565b602002602001015160405160200161332091906141bc565b6040516020818303038152906040528051906020012014806133a65750604051614e6f60f01b60208201526022016040516020818303038152906040528051906020012083828151811061337657613376614212565b602002602001015160405160200161338e91906141bc565b60405160208183030381529060405280519060200120145b156133b5576001915050612724565b6000915050612724565b8281815181106133d1576133d1614212565b6020026020010151516000036133eb576000915050612724565b806133f58161423f565b915050613128565b5060019392505050565b82805482825590600052602060002090810192821561344d579160200282015b8281111561344d578251829061343d90826142fb565b5091602001919060010190613427565b506134599291506135f6565b5090565b82805482825590600052602060002090601f016020900481019282156135015791602002820160005b838211156134d257835183826101000a81548160ff021916908360028111156134b1576134b1613fab565b02179055509260200192600101602081600001049283019260010302613486565b80156134ff5782816101000a81549060ff02191690556001016020816000010492830192600103026134d2565b505b50613459929150613613565b82805482825590600052602060002090810192821561355a579160200282015b8281111561355a578251805161354a918491602090910190613407565b509160200191906001019061352d565b50613459929150613628565b828054828255906000526020600020908101928215613501579160200282015b8281111561350157825182546001600160a01b0319166001600160a01b03909116178255602090920191600190910190613586565b828054828255906000526020600020908101928215613501579160200282015b828111156135015782518255916020019190600101906135db565b8082111561345957600061360a8282613645565b506001016135f6565b5b808211156134595760008155600101613614565b8082111561345957600061363c828261367f565b50600101613628565b508054613651906141d8565b6000825580601f10613661575050565b601f016020900490600052602060002090810190611d7f9190613613565b5080546000825590600052602060002090810190611d7f91906135f6565b634e487b7160e01b600052604160045260246000fd5b604051601f8201601f191681016001600160401b03811182821017156136db576136db61369d565b604052919050565b600082601f8301126136f457600080fd5b81356001600160401b0381111561370d5761370d61369d565b613720601f8201601f19166020016136b3565b81815284602083860101111561373557600080fd5b816020850160208301376000918101602001919091529392505050565b60006001600160401b0382111561376b5761376b61369d565b5060051b60200190565b80356001600160a01b0381168114611cf057600080fd5b600082601f83011261379d57600080fd5b813560206137b26137ad83613752565b6136b3565b82815260059290921b840181019181810190868411156137d157600080fd5b8286015b848110156137f3576137e681613775565b83529183019183016137d5565b509695505050505050565b600082601f83011261380f57600080fd5b8135602061381f6137ad83613752565b82815260059290921b8401810191818101908684111561383e57600080fd5b8286015b848110156137f35780358352918301918301613842565b600082601f83011261386a57600080fd5b8135602061387a6137ad83613752565b82815260059290921b8401810191818101908684111561389957600080fd5b8286015b848110156137f35780356001600160401b038111156138bc5760008081fd5b6138ca8986838b01016136e3565b84525091830191830161389d565b600080600080600080600080610100898b0312156138f557600080fd5b88356001600160401b038082111561390c57600080fd5b6139188c838d016136e3565b995060208b013591508082111561392e57600080fd5b61393a8c838d0161378c565b985060408b013591508082111561395057600080fd5b61395c8c838d016137fe565b975060608b013591508082111561397257600080fd5b61397e8c838d01613859565b965060808b013591508082111561399457600080fd5b506139a18b828c016136e3565b94505060a089013592506139b760c08a01613775565b915060e089013590509295985092959890939650565b600082601f8301126139de57600080fd5b813560206139ee6137ad83613752565b82815260059290921b84018101918181019086841115613a0d57600080fd5b8286015b848110156137f357803560038110613a295760008081fd5b8352918301918301613a11565b60008060008060808587031215613a4c57600080fd5b843593506020808601356001600160401b0380821115613a6b57600080fd5b613a7789838a01613859565b95506040880135915080821115613a8d57600080fd5b818801915088601f830112613aa157600080fd5b8135613aaf6137ad82613752565b81815260059190911b8301840190848101908b831115613ace57600080fd5b8585015b83811015613b0657803585811115613aea5760008081fd5b613af88e89838a0101613859565b845250918601918601613ad2565b50965050506060880135925080831115613b1f57600080fd5b5050613b2d878288016139cd565b91505092959194509250565b60005b83811015613b54578181015183820152602001613b3c565b50506000910152565b60008151808452613b75816020860160208601613b39565b601f01601f19169290920160200192915050565b602081526000613b9c6020830184613b5d565b9392505050565b600060208284031215613bb557600080fd5b613b9c82613775565b600060208284031215613bd057600080fd5b81356001600160401b03811115613be657600080fd5b61096b848285016136e3565b600081518084526020808501945080840160005b83811015613c2b5781516001600160a01b031687529582019590820190600101613c06565b509495945050505050565b600081518084526020808501808196508360051b8101915082860160005b85811015613c7e578284038952613c6c848351613b5d565b98850198935090840190600101613c54565b5091979650505050505050565b600081518084526020808501808196508360051b810191508286016000805b86811015613d2e578385038a52825180516001600160a01b031686528681015187870152604080820151908701526060908101516080918701829052805191870182905287019060a087019084905b80821015613d195783518352928901929189019160019190910190613cf9565b50509a87019a95505091850191600101613caa565b509298975050505050505050565b6000610120808352613d508184018d613bf2565b9050602083820381850152818c518084528284019150828e01935060005b81811015613d8a57845183529383019391830191600101613d6e565b50508481036040860152613d9e818d613c36565b925050508281036060840152613db4818a613b5d565b905087608084015282810360a0840152613dce8188613c8b565b9150508460c0830152613de560e083018515159052565b6001600160a01b0383166101008301529a9950505050505050505050565b60008083601f840112613e1557600080fd5b5081356001600160401b03811115613e2c57600080fd5b6020830191508360208260051b8501011115613e4757600080fd5b9250929050565b60008060008060408587031215613e6457600080fd5b84356001600160401b0380821115613e7b57600080fd5b613e8788838901613e03565b90965094506020870135915080821115613ea057600080fd5b50613ead87828801613e03565b95989497509550505050565b60008060008060008060c08789031215613ed257600080fd5b86356001600160401b0380821115613ee957600080fd5b613ef58a838b016136e3565b97506020890135915080821115613f0b57600080fd5b613f178a838b0161378c565b96506040890135915080821115613f2d57600080fd5b613f398a838b016137fe565b95506060890135915080821115613f4f57600080fd5b613f5b8a838b01613859565b94506080890135915080821115613f7157600080fd5b50613f7e89828a016136e3565b92505060a087013590509295509295509295565b600060208284031215613fa457600080fd5b5035919050565b634e487b7160e01b600052602160045260246000fd5b600081518084526020808501808196508360051b8101915082860160005b85811015613c7e578284038952613ff7848351613c36565b98850198935090840190600101613fdf565b60808152600061401c6080830187613c36565b8281036020848101919091528651808352878201928201906000805b828110156140705785516003811061405e57634e487b7160e01b83526021600452602483fd5b84529484019492840192600101614038565b50505084810360408601526140858188613fc1565b935050505082606083015295945050505050565b602081526000613b9c6020830184613c36565b602081526000613b9c6020830184613bf2565b6000602082840312156140d157600080fd5b81356001600160401b038111156140e757600080fd5b82016101408185031215613b9c57600080fd5b60208082526012908201527110dbdb9d1c9858dd081a5cc81c185d5cd95960721b604082015260600190565b634e487b7160e01b600052601160045260246000fd5b8082018082111561272457612724614126565b8181038181111561272457612724614126565b60008451614174818460208901613b39565b8083019050601760f91b8082528551614194816001850160208a01613b39565b600192019182015283516141af816002840160208801613b39565b0160020195945050505050565b600082516141ce818460208701613b39565b9190910192915050565b600181811c908216806141ec57607f821691505b60208210810361420c57634e487b7160e01b600052602260045260246000fd5b50919050565b634e487b7160e01b600052603260045260246000fd5b6000823561013e198336030181126141ce57600080fd5b60006001820161425157614251614126565b5060010190565b634e487b7160e01b600052603160045260246000fd5b808202811582820484141761272457612724614126565b8015158114611d7f57600080fd5b6000602082840312156142a557600080fd5b8151613b9c81614285565b601f8211156142f657600081815260208120601f850160051c810160208610156142d75750805b601f850160051c820191505b818110156111c9578281556001016142e3565b505050565b81516001600160401b038111156143145761431461369d565b6143288161432284546141d8565b846142b0565b602080601f83116001811461435d57600084156143455750858301515b600019600386901b1c1916600185901b1785556111c9565b600085815260208120601f198616915b8281101561438c5788860151825594840194600190910190840161436d565b50858210156143aa5787850151600019600388901b60f8161c191681555b5050505050600190811b01905550565b6000808335601e198436030181126143d157600080fd5b8301803591506001600160401b038211156143eb57600080fd5b602001915036819003821315613e4757600080fd5b6000806000806080858703121561441657600080fd5b84356001600160401b038082111561442d57600080fd5b614439888389016136e3565b955060208701359450604087013591508082111561445657600080fd5b61446288838901613859565b9350606087013591508082111561447857600080fd5b50613b2d878288016136e3565b80356001600160401b0381168114611cf057600080fd5b8035611cf081614285565b6000808335601e198436030181126144be57600080fd5b83016020810192503590506001600160401b038111156144dd57600080fd5b803603821315613e4757600080fd5b81835281816020850137506000828201602090810191909152601f909101601f19169091010190565b604081528235604082015260208301356060820152600061453860408501614485565b6001600160401b0316608083015261455260608501614485565b6001600160401b031660a083015261456c60808501614485565b6001600160401b03811660c08401525060a084013560e083015261459260c08501613775565b6101006145a9818501836001600160a01b03169052565b6145b560e08701613775565b91506101206145ce818601846001600160a01b03169052565b6145d982880161449c565b925061014091506145ed8286018415159052565b6145f9818801886144a7565b9350905081610160860152614613610180860184836144ec565b9250505082810360208401526146298185613b5d565b95945050505050565b60008060006060848603121561464757600080fd5b83356001600160401b038082111561465e57600080fd5b61466a878388016136e3565b945060208601359350604086013591508082111561468757600080fd5b50614694868287016136e3565b9150509250925092565b60008083546146ac816141d8565b600182811680156146c457600181146146d957614708565b60ff1984168752821515830287019450614708565b8760005260208060002060005b858110156146ff5781548a8201529084019082016146e6565b50505082870194505b5092969550505050505056fea2646970667358221220d74ba87e4eba208b8eedf20deae664722849985851991557cfd1d061770f03ac64736f6c63430008130033",
			"opcodes": "PUSH2 0x140 PUSH1 0x40 MSTORE PUSH1 0x3 PUSH2 0x100 SWAP1 DUP2 MSTORE PUSH3 0x181719 PUSH1 0xE9 SHL PUSH2 0x120 MSTORE PUSH1 0x8 SWAP1 PUSH3 0x27 SWAP1 DUP3 PUSH3 0x1F0 JUMP JUMPDEST POP PUSH1 0x9 DUP1 SLOAD PUSH1 0xFF NOT AND PUSH1 0x1 OR SWAP1 SSTORE CALLVALUE DUP1 ISZERO PUSH3 0x42 JUMPI PUSH1 0x0 DUP1 REVERT JUMPDEST POP PUSH1 0x40 MLOAD PUSH3 0x4A72 CODESIZE SUB DUP1 PUSH3 0x4A72 DUP4 CODECOPY DUP2 ADD PUSH1 0x40 DUP2 SWAP1 MSTORE PUSH3 0x65 SWAP2 PUSH3 0x2BC JUMP JUMPDEST PUSH1 0x1 PUSH1 0x80 MSTORE PUSH1 0x0 PUSH1 0xA0 DUP2 SWAP1 MSTORE PUSH1 0xC0 MSTORE DUP1 PUSH1 0x1 PUSH1 0x1 PUSH1 0xA0 SHL SUB DUP2 AND PUSH3 0x9D JUMPI PUSH1 0x40 MLOAD PUSH4 0x41BC07FF PUSH1 0xE1 SHL DUP2 MSTORE PUSH1 0x4 ADD PUSH1 0x40 MLOAD DUP1 SWAP2 SUB SWAP1 REVERT JUMPDEST PUSH1 0x1 PUSH1 0x1 PUSH1 0xA0 SHL SUB AND PUSH1 0xE0 MSTORE PUSH3 0xB4 CALLER PUSH3 0xFB JUMP JUMPDEST POP PUSH1 0x5 DUP1 SLOAD PUSH1 0x1 DUP2 ADD DUP3 SSTORE PUSH1 0x0 SWAP2 SWAP1 SWAP2 MSTORE PUSH32 0x36B6384B5ECA791C62761152D0C79BB0604C104A5FB6F4EB0703F3154BB3DB0 ADD DUP1 SLOAD PUSH1 0x1 PUSH1 0x1 PUSH1 0xA0 SHL SUB NOT AND SWAP1 SSTORE PUSH3 0x2EE JUMP JUMPDEST PUSH1 0x0 DUP1 SLOAD PUSH1 0x1 PUSH1 0x1 PUSH1 0xA0 SHL SUB DUP4 DUP2 AND PUSH1 0x1 PUSH1 0x1 PUSH1 0xA0 SHL SUB NOT DUP4 AND DUP2 OR DUP5 SSTORE PUSH1 0x40 MLOAD SWAP2 SWAP1 SWAP3 AND SWAP3 DUP4 SWAP2 PUSH32 0x8BE0079C531659141344CD1FD0A4F28419497F9722A3DAAFE3B4186F6B6457E0 SWAP2 SWAP1 LOG3 POP POP JUMP JUMPDEST PUSH4 0x4E487B71 PUSH1 0xE0 SHL PUSH1 0x0 MSTORE PUSH1 0x41 PUSH1 0x4 MSTORE PUSH1 0x24 PUSH1 0x0 REVERT JUMPDEST PUSH1 0x1 DUP2 DUP2 SHR SWAP1 DUP3 AND DUP1 PUSH3 0x176 JUMPI PUSH1 0x7F DUP3 AND SWAP2 POP JUMPDEST PUSH1 0x20 DUP3 LT DUP2 SUB PUSH3 0x197 JUMPI PUSH4 0x4E487B71 PUSH1 0xE0 SHL PUSH1 0x0 MSTORE PUSH1 0x22 PUSH1 0x4 MSTORE PUSH1 0x24 PUSH1 0x0 REVERT JUMPDEST POP SWAP2 SWAP1 POP JUMP JUMPDEST PUSH1 0x1F DUP3 GT ISZERO PUSH3 0x1EB JUMPI PUSH1 0x0 DUP2 DUP2 MSTORE PUSH1 0x20 DUP2 KECCAK256 PUSH1 0x1F DUP6 ADD PUSH1 0x5 SHR DUP2 ADD PUSH1 0x20 DUP7 LT ISZERO PUSH3 0x1C6 JUMPI POP DUP1 JUMPDEST PUSH1 0x1F DUP6 ADD PUSH1 0x5 SHR DUP3 ADD SWAP2 POP JUMPDEST DUP2 DUP2 LT ISZERO PUSH3 0x1E7 JUMPI DUP3 DUP2 SSTORE PUSH1 0x1 ADD PUSH3 0x1D2 JUMP JUMPDEST POP POP POP JUMPDEST POP POP POP JUMP JUMPDEST DUP2 MLOAD PUSH1 0x1 PUSH1 0x1 PUSH1 0x40 SHL SUB DUP2 GT ISZERO PUSH3 0x20C JUMPI PUSH3 0x20C PUSH3 0x14B JUMP JUMPDEST PUSH3 0x224 DUP2 PUSH3 0x21D DUP5 SLOAD PUSH3 0x161 JUMP JUMPDEST DUP5 PUSH3 0x19D JUMP JUMPDEST PUSH1 0x20 DUP1 PUSH1 0x1F DUP4 GT PUSH1 0x1 DUP2 EQ PUSH3 0x25C JUMPI PUSH1 0x0 DUP5 ISZERO PUSH3 0x243 JUMPI POP DUP6 DUP4 ADD MLOAD JUMPDEST PUSH1 0x0 NOT PUSH1 0x3 DUP7 SWAP1 SHL SHR NOT AND PUSH1 0x1 DUP6 SWAP1 SHL OR DUP6 SSTORE PUSH3 0x1E7 JUMP JUMPDEST PUSH1 0x0 DUP6 DUP2 MSTORE PUSH1 0x20 DUP2 KECCAK256 PUSH1 0x1F NOT DUP7 AND SWAP2 JUMPDEST DUP3 DUP2 LT ISZERO PUSH3 0x28D JUMPI DUP9 DUP7 ADD MLOAD DUP3 SSTORE SWAP5 DUP5 ADD SWAP5 PUSH1 0x1 SWAP1 SWAP2 ADD SWAP1 DUP5 ADD PUSH3 0x26C JUMP JUMPDEST POP DUP6 DUP3 LT ISZERO PUSH3 0x2AC JUMPI DUP8 DUP6 ADD MLOAD PUSH1 0x0 NOT PUSH1 0x3 DUP9 SWAP1 SHL PUSH1 0xF8 AND SHR NOT AND DUP2 SSTORE JUMPDEST POP POP POP POP POP PUSH1 0x1 SWAP1 DUP2 SHL ADD SWAP1 SSTORE POP JUMP JUMPDEST PUSH1 0x0 PUSH1 0x20 DUP3 DUP5 SUB SLT ISZERO PUSH3 0x2CF JUMPI PUSH1 0x0 DUP1 REVERT JUMPDEST DUP2 MLOAD PUSH1 0x1 PUSH1 0x1 PUSH1 0xA0 SHL SUB DUP2 AND DUP2 EQ PUSH3 0x2E7 JUMPI PUSH1 0x0 DUP1 REVERT JUMPDEST SWAP4 SWAP3 POP POP POP JUMP JUMPDEST PUSH1 0x80 MLOAD PUSH1 0xA0 MLOAD PUSH1 0xC0 MLOAD PUSH1 0xE0 MLOAD PUSH2 0x474A PUSH3 0x328 PUSH1 0x0 CODECOPY PUSH1 0x0 PUSH2 0x26E3 ADD MSTORE PUSH1 0x0 PUSH2 0x9E0 ADD MSTORE PUSH1 0x0 PUSH2 0x9B7 ADD MSTORE PUSH1 0x0 PUSH2 0x98E ADD MSTORE PUSH2 0x474A PUSH1 0x0 RETURN INVALID PUSH1 0x80 PUSH1 0x40 MSTORE PUSH1 0x4 CALLDATASIZE LT PUSH2 0x1E7 JUMPI PUSH1 0x0 CALLDATALOAD PUSH1 0xE0 SHR DUP1 PUSH4 0xA0A8E460 GT PUSH2 0x102 JUMPI DUP1 PUSH4 0xBE2761D0 GT PUSH2 0x95 JUMPI DUP1 PUSH4 0xE26F7900 GT PUSH2 0x64 JUMPI DUP1 PUSH4 0xE26F7900 EQ PUSH2 0x567 JUMPI DUP1 PUSH4 0xE49617E1 EQ PUSH2 0x589 JUMPI DUP1 PUSH4 0xE60C3505 EQ PUSH2 0x59C JUMPI DUP1 PUSH4 0xF2FDE38B EQ PUSH2 0x5AF JUMPI PUSH1 0x0 DUP1 REVERT JUMPDEST DUP1 PUSH4 0xBE2761D0 EQ PUSH2 0x4F1 JUMPI DUP1 PUSH4 0xCE46E046 EQ PUSH2 0x511 JUMPI DUP1 PUSH4 0xD627D25E EQ PUSH2 0x525 JUMPI DUP1 PUSH4 0xDD526054 EQ PUSH2 0x545 JUMPI PUSH1 0x0 DUP1 REVERT JUMPDEST DUP1 PUSH4 0xB5AF090F GT PUSH2 0xD1 JUMPI DUP1 PUSH4 0xB5AF090F EQ PUSH2 0x471 JUMPI DUP1 PUSH4 0xB6FC76AF EQ PUSH2 0x491 JUMPI DUP1 PUSH4 0xB8B23C17 EQ PUSH2 0x4B1 JUMPI DUP1 PUSH4 0xBD7E2AA4 EQ PUSH2 0x4D1 JUMPI PUSH1 0x0 DUP1 REVERT JUMPDEST DUP1 PUSH4 0xA0A8E460 EQ PUSH2 0x3EC JUMPI DUP1 PUSH4 0xA940B874 EQ PUSH2 0x401 JUMPI DUP1 PUSH4 0xABE1D7F3 EQ PUSH2 0x421 JUMPI DUP1 PUSH4 0xB4E137CD EQ PUSH2 0x441 JUMPI PUSH1 0x0 DUP1 REVERT JUMPDEST DUP1 PUSH4 0x7A35AAA9 GT PUSH2 0x17A JUMPI DUP1 PUSH4 0x88E5B2D9 GT PUSH2 0x149 JUMPI DUP1 PUSH4 0x88E5B2D9 EQ PUSH2 0x37E JUMPI DUP1 PUSH4 0x8DA5CB5B EQ PUSH2 0x391 JUMPI DUP1 PUSH4 0x9128B0D8 EQ PUSH2 0x3C3 JUMPI DUP1 PUSH4 0x91DB0B7E EQ PUSH2 0x3D9 JUMPI PUSH1 0x0 DUP1 REVERT JUMPDEST DUP1 PUSH4 0x7A35AAA9 EQ PUSH2 0x2FE JUMPI DUP1 PUSH4 0x8456CB59 EQ PUSH2 0x31E JUMPI DUP1 PUSH4 0x85B92413 EQ PUSH2 0x333 JUMPI DUP1 PUSH4 0x86BE6D51 EQ PUSH2 0x368 JUMPI PUSH1 0x0 DUP1 REVERT JUMPDEST DUP1 PUSH4 0x5C975ABB GT PUSH2 0x1B6 JUMPI DUP1 PUSH4 0x5C975ABB EQ PUSH2 0x289 JUMPI DUP1 PUSH4 0x6247F6F2 EQ PUSH2 0x2B3 JUMPI DUP1 PUSH4 0x715018A6 EQ PUSH2 0x2D3 JUMPI DUP1 PUSH4 0x74987060 EQ PUSH2 0x2E8 JUMPI PUSH1 0x0 DUP1 REVERT JUMPDEST DUP1 PUSH4 0x20DE0462 EQ PUSH2 0x20C JUMPI DUP1 PUSH4 0x30940523 EQ PUSH2 0x21F JUMPI DUP1 PUSH4 0x3F4BA83A EQ PUSH2 0x252 JUMPI DUP1 PUSH4 0x54FD4D50 EQ PUSH2 0x267 JUMPI PUSH1 0x0 DUP1 REVERT JUMPDEST CALLDATASIZE PUSH2 0x207 JUMPI PUSH1 0x40 MLOAD PUSH4 0x1574F9F3 PUSH1 0xE0 SHL DUP2 MSTORE PUSH1 0x4 ADD PUSH1 0x40 MLOAD DUP1 SWAP2 SUB SWAP1 REVERT JUMPDEST STOP JUMPDEST PUSH1 0x0 DUP1 REVERT JUMPDEST PUSH2 0x205 PUSH2 0x21A CALLDATASIZE PUSH1 0x4 PUSH2 0x38D8 JUMP JUMPDEST PUSH2 0x5CF JUMP JUMPDEST CALLVALUE DUP1 ISZERO PUSH2 0x22B JUMPI PUSH1 0x0 DUP1 REVERT JUMPDEST POP PUSH2 0x23F PUSH2 0x23A CALLDATASIZE PUSH1 0x4 PUSH2 0x3A36 JUMP JUMPDEST PUSH2 0x617 JUMP JUMPDEST PUSH1 0x40 MLOAD SWAP1 DUP2 MSTORE PUSH1 0x20 ADD JUMPDEST PUSH1 0x40 MLOAD DUP1 SWAP2 SUB SWAP1 RETURN JUMPDEST CALLVALUE DUP1 ISZERO PUSH2 0x25E JUMPI PUSH1 0x0 DUP1 REVERT JUMPDEST POP PUSH2 0x205 PUSH2 0x973 JUMP JUMPDEST CALLVALUE DUP1 ISZERO PUSH2 0x273 JUMPI PUSH1 0x0 DUP1 REVERT JUMPDEST POP PUSH2 0x27C PUSH2 0x987 JUMP JUMPDEST PUSH1 0x40 MLOAD PUSH2 0x249 SWAP2 SWAP1 PUSH2 0x3B89 JUMP JUMPDEST CALLVALUE DUP1 ISZERO PUSH2 0x295 JUMPI PUSH1 0x0 DUP1 REVERT JUMPDEST POP PUSH1 0x9 SLOAD PUSH2 0x2A3 SWAP1 PUSH1 0xFF AND DUP2 JUMP JUMPDEST PUSH1 0x40 MLOAD SWAP1 ISZERO ISZERO DUP2 MSTORE PUSH1 0x20 ADD PUSH2 0x249 JUMP JUMPDEST CALLVALUE DUP1 ISZERO PUSH2 0x2BF JUMPI PUSH1 0x0 DUP1 REVERT JUMPDEST POP PUSH2 0x205 PUSH2 0x2CE CALLDATASIZE PUSH1 0x4 PUSH2 0x3BA3 JUMP JUMPDEST PUSH2 0xA2A JUMP JUMPDEST CALLVALUE DUP1 ISZERO PUSH2 0x2DF JUMPI PUSH1 0x0 DUP1 REVERT JUMPDEST POP PUSH2 0x205 PUSH2 0xADA JUMP JUMPDEST CALLVALUE DUP1 ISZERO PUSH2 0x2F4 JUMPI PUSH1 0x0 DUP1 REVERT JUMPDEST POP PUSH2 0x23F PUSH1 0x4 SLOAD DUP2 JUMP JUMPDEST CALLVALUE DUP1 ISZERO PUSH2 0x30A JUMPI PUSH1 0x0 DUP1 REVERT JUMPDEST POP PUSH2 0x205 PUSH2 0x319 CALLDATASIZE PUSH1 0x4 PUSH2 0x3BA3 JUMP JUMPDEST PUSH2 0xAEE JUMP JUMPDEST CALLVALUE DUP1 ISZERO PUSH2 0x32A JUMPI PUSH1 0x0 DUP1 REVERT JUMPDEST POP PUSH2 0x205 PUSH2 0xB18 JUMP JUMPDEST CALLVALUE DUP1 ISZERO PUSH2 0x33F JUMPI PUSH1 0x0 DUP1 REVERT JUMPDEST POP PUSH2 0x353 PUSH2 0x34E CALLDATASIZE PUSH1 0x4 PUSH2 0x3BBE JUMP JUMPDEST PUSH2 0xB52 JUMP JUMPDEST PUSH1 0x40 MLOAD PUSH2 0x249 SWAP10 SWAP9 SWAP8 SWAP7 SWAP6 SWAP5 SWAP4 SWAP3 SWAP2 SWAP1 PUSH2 0x3D3C JUMP JUMPDEST CALLVALUE DUP1 ISZERO PUSH2 0x374 JUMPI PUSH1 0x0 DUP1 REVERT JUMPDEST POP PUSH2 0x23F PUSH1 0x7 SLOAD DUP2 JUMP JUMPDEST PUSH2 0x2A3 PUSH2 0x38C CALLDATASIZE PUSH1 0x4 PUSH2 0x3E4E JUMP JUMPDEST PUSH2 0xFB9 JUMP JUMPDEST CALLVALUE DUP1 ISZERO PUSH2 0x39D JUMPI PUSH1 0x0 DUP1 REVERT JUMPDEST POP PUSH1 0x0 SLOAD PUSH1 0x1 PUSH1 0x1 PUSH1 0xA0 SHL SUB AND JUMPDEST PUSH1 0x40 MLOAD PUSH1 0x1 PUSH1 0x1 PUSH1 0xA0 SHL SUB SWAP1 SWAP2 AND DUP2 MSTORE PUSH1 0x20 ADD PUSH2 0x249 JUMP JUMPDEST CALLVALUE DUP1 ISZERO PUSH2 0x3CF JUMPI PUSH1 0x0 DUP1 REVERT JUMPDEST POP PUSH2 0x23F PUSH1 0x3 SLOAD DUP2 JUMP JUMPDEST PUSH2 0x2A3 PUSH2 0x3E7 CALLDATASIZE PUSH1 0x4 PUSH2 0x3E4E JUMP JUMPDEST PUSH2 0x1066 JUMP JUMPDEST CALLVALUE DUP1 ISZERO PUSH2 0x3F8 JUMPI PUSH1 0x0 DUP1 REVERT JUMPDEST POP PUSH2 0x27C PUSH2 0x1105 JUMP JUMPDEST CALLVALUE DUP1 ISZERO PUSH2 0x40D JUMPI PUSH1 0x0 DUP1 REVERT JUMPDEST POP PUSH2 0x205 PUSH2 0x41C CALLDATASIZE PUSH1 0x4 PUSH2 0x3EB9 JUMP JUMPDEST PUSH2 0x1193 JUMP JUMPDEST CALLVALUE DUP1 ISZERO PUSH2 0x42D JUMPI PUSH1 0x0 DUP1 REVERT JUMPDEST POP PUSH2 0x205 PUSH2 0x43C CALLDATASIZE PUSH1 0x4 PUSH2 0x3F92 JUMP JUMPDEST PUSH2 0x11D1 JUMP JUMPDEST CALLVALUE DUP1 ISZERO PUSH2 0x44D JUMPI PUSH1 0x0 DUP1 REVERT JUMPDEST POP PUSH2 0x461 PUSH2 0x45C CALLDATASIZE PUSH1 0x4 PUSH2 0x3BBE JUMP JUMPDEST PUSH2 0x11DE JUMP JUMPDEST PUSH1 0x40 MLOAD PUSH2 0x249 SWAP5 SWAP4 SWAP3 SWAP2 SWAP1 PUSH2 0x4009 JUMP JUMPDEST CALLVALUE DUP1 ISZERO PUSH2 0x47D JUMPI PUSH1 0x0 DUP1 REVERT JUMPDEST POP PUSH2 0x2A3 PUSH2 0x48C CALLDATASIZE PUSH1 0x4 PUSH2 0x3BA3 JUMP JUMPDEST PUSH2 0x14C0 JUMP JUMPDEST CALLVALUE DUP1 ISZERO PUSH2 0x49D JUMPI PUSH1 0x0 DUP1 REVERT JUMPDEST POP PUSH2 0x461 PUSH2 0x4AC CALLDATASIZE PUSH1 0x4 PUSH2 0x3F92 JUMP JUMPDEST PUSH2 0x1529 JUMP JUMPDEST CALLVALUE DUP1 ISZERO PUSH2 0x4BD JUMPI PUSH1 0x0 DUP1 REVERT JUMPDEST POP PUSH2 0x205 PUSH2 0x4CC CALLDATASIZE PUSH1 0x4 PUSH2 0x3F92 JUMP JUMPDEST PUSH2 0x183F JUMP JUMPDEST CALLVALUE DUP1 ISZERO PUSH2 0x4DD JUMPI PUSH1 0x0 DUP1 REVERT JUMPDEST POP PUSH1 0x1 SLOAD PUSH2 0x3AB SWAP1 PUSH1 0x1 PUSH1 0x1 PUSH1 0xA0 SHL SUB AND DUP2 JUMP JUMPDEST CALLVALUE DUP1 ISZERO PUSH2 0x4FD JUMPI PUSH1 0x0 DUP1 REVERT JUMPDEST POP PUSH2 0x205 PUSH2 0x50C CALLDATASIZE PUSH1 0x4 PUSH2 0x3BBE JUMP JUMPDEST PUSH2 0x184C JUMP JUMPDEST CALLVALUE DUP1 ISZERO PUSH2 0x51D JUMPI PUSH1 0x0 DUP1 REVERT JUMPDEST POP PUSH1 0x0 PUSH2 0x2A3 JUMP JUMPDEST CALLVALUE DUP1 ISZERO PUSH2 0x531 JUMPI PUSH1 0x0 DUP1 REVERT JUMPDEST POP PUSH2 0x205 PUSH2 0x540 CALLDATASIZE PUSH1 0x4 PUSH2 0x3BA3 JUMP JUMPDEST PUSH2 0x1A3D JUMP JUMPDEST CALLVALUE DUP1 ISZERO PUSH2 0x551 JUMPI PUSH1 0x0 DUP1 REVERT JUMPDEST POP PUSH2 0x55A PUSH2 0x1B9E JUMP JUMPDEST PUSH1 0x40 MLOAD PUSH2 0x249 SWAP2 SWAP1 PUSH2 0x4099 JUMP JUMPDEST CALLVALUE DUP1 ISZERO PUSH2 0x573 JUMPI PUSH1 0x0 DUP1 REVERT JUMPDEST POP PUSH2 0x57C PUSH2 0x1C77 JUMP JUMPDEST PUSH1 0x40 MLOAD PUSH2 0x249 SWAP2 SWAP1 PUSH2 0x40AC JUMP JUMPDEST PUSH2 0x2A3 PUSH2 0x597 CALLDATASIZE PUSH1 0x4 PUSH2 0x40BF JUMP JUMPDEST PUSH2 0x1CD9 JUMP JUMPDEST PUSH2 0x2A3 PUSH2 0x5AA CALLDATASIZE PUSH1 0x4 PUSH2 0x40BF JUMP JUMPDEST PUSH2 0x1CF5 JUMP JUMPDEST CALLVALUE DUP1 ISZERO PUSH2 0x5BB JUMPI PUSH1 0x0 DUP1 REVERT JUMPDEST POP PUSH2 0x205 PUSH2 0x5CA CALLDATASIZE PUSH1 0x4 PUSH2 0x3BA3 JUMP JUMPDEST PUSH2 0x1D09 JUMP JUMPDEST PUSH1 0x9 SLOAD PUSH1 0xFF AND ISZERO PUSH2 0x5FB JUMPI PUSH1 0x40 MLOAD PUSH3 0x461BCD PUSH1 0xE5 SHL DUP2 MSTORE PUSH1 0x4 ADD PUSH2 0x5F2 SWAP1 PUSH2 0x40FA JUMP JUMPDEST PUSH1 0x40 MLOAD DUP1 SWAP2 SUB SWAP1 REVERT JUMPDEST PUSH2 0x60D DUP9 DUP9 DUP9 DUP9 DUP9 DUP9 DUP8 DUP10 PUSH1 0x1 PUSH2 0x1D82 JUMP JUMPDEST POP POP POP POP POP POP POP POP JUMP JUMPDEST PUSH1 0x9 SLOAD PUSH1 0x0 SWAP1 PUSH1 0xFF AND ISZERO PUSH2 0x63D JUMPI PUSH1 0x40 MLOAD PUSH3 0x461BCD PUSH1 0xE5 SHL DUP2 MSTORE PUSH1 0x4 ADD PUSH2 0x5F2 SWAP1 PUSH2 0x40FA JUMP JUMPDEST DUP5 PUSH2 0x696 JUMPI PUSH1 0x40 MLOAD PUSH3 0x461BCD PUSH1 0xE5 SHL DUP2 MSTORE PUSH1 0x20 PUSH1 0x4 DUP3 ADD MSTORE PUSH1 0x23 PUSH1 0x24 DUP3 ADD MSTORE PUSH32 0x4465726573793A2045415320536368656D612049442063616E2774206265206E PUSH1 0x44 DUP3 ADD MSTORE PUSH3 0x1D5B1B PUSH1 0xEA SHL PUSH1 0x64 DUP3 ADD MSTORE PUSH1 0x84 ADD PUSH2 0x5F2 JUMP JUMPDEST PUSH1 0x0 DUP5 MLOAD GT PUSH2 0x6E7 JUMPI PUSH1 0x40 MLOAD PUSH3 0x461BCD PUSH1 0xE5 SHL DUP2 MSTORE PUSH1 0x20 PUSH1 0x4 DUP3 ADD MSTORE PUSH1 0x1F PUSH1 0x24 DUP3 ADD MSTORE PUSH32 0x4465726573793A205175657374696F6E732063616E2774206265206E756C6C00 PUSH1 0x44 DUP3 ADD MSTORE PUSH1 0x64 ADD PUSH2 0x5F2 JUMP JUMPDEST PUSH1 0x0 DUP3 MLOAD GT PUSH2 0x744 JUMPI PUSH1 0x40 MLOAD PUSH3 0x461BCD PUSH1 0xE5 SHL DUP2 MSTORE PUSH1 0x20 PUSH1 0x4 DUP3 ADD MSTORE PUSH1 0x24 DUP1 DUP3 ADD MSTORE PUSH32 0x4465726573793A205175657374696F6E2054797065732063616E277420626520 PUSH1 0x44 DUP3 ADD MSTORE PUSH4 0x1B9D5B1B PUSH1 0xE2 SHL PUSH1 0x64 DUP3 ADD MSTORE PUSH1 0x84 ADD PUSH2 0x5F2 JUMP JUMPDEST DUP4 MLOAD DUP3 MLOAD EQ PUSH2 0x7B3 JUMPI PUSH1 0x40 MLOAD PUSH3 0x461BCD PUSH1 0xE5 SHL DUP2 MSTORE PUSH1 0x20 PUSH1 0x4 DUP3 ADD MSTORE PUSH1 0x35 PUSH1 0x24 DUP3 ADD MSTORE PUSH32 0x4465726573793A205175657374696F6E7320616E64207479706573206D757374 PUSH1 0x44 DUP3 ADD MSTORE PUSH21 0x40D0C2ECCA40E8D0CA40E6C2DACA40D8CADCCEE8D PUSH1 0x5B SHL PUSH1 0x64 DUP3 ADD MSTORE PUSH1 0x84 ADD PUSH2 0x5F2 JUMP JUMPDEST DUP3 MLOAD DUP5 MLOAD EQ PUSH2 0x82A JUMPI PUSH1 0x40 MLOAD PUSH3 0x461BCD PUSH1 0xE5 SHL DUP2 MSTORE PUSH1 0x20 PUSH1 0x4 DUP3 ADD MSTORE PUSH1 0x37 PUSH1 0x24 DUP3 ADD MSTORE PUSH32 0x4465726573793A205175657374696F6E7320616E642063686F69636573206D75 PUSH1 0x44 DUP3 ADD MSTORE PUSH32 0x73742068617665207468652073616D65206C656E677468000000000000000000 PUSH1 0x64 DUP3 ADD MSTORE PUSH1 0x84 ADD PUSH2 0x5F2 JUMP JUMPDEST PUSH1 0x40 DUP1 MLOAD PUSH1 0x80 DUP2 ADD DUP3 MSTORE DUP7 DUP2 MSTORE PUSH1 0x20 DUP1 DUP3 ADD DUP8 DUP2 MSTORE SWAP3 DUP3 ADD DUP6 SWAP1 MSTORE PUSH1 0x60 DUP3 ADD DUP7 SWAP1 MSTORE PUSH1 0xA DUP1 SLOAD PUSH1 0x1 DUP2 ADD DUP3 SSTORE PUSH1 0x0 SWAP2 SWAP1 SWAP2 MSTORE DUP3 MLOAD PUSH1 0x4 SWAP1 SWAP2 MUL PUSH32 0xC65A7BB8D6351C1CF70C95A316CC6A92839C986682D98BC35F958F4883F9D2A8 DUP2 ADD SWAP2 DUP3 SSTORE SWAP4 MLOAD DUP1 MLOAD SWAP4 SWAP5 SWAP2 SWAP4 PUSH2 0x8C4 SWAP4 PUSH32 0xC65A7BB8D6351C1CF70C95A316CC6A92839C986682D98BC35F958F4883F9D2A9 SWAP1 SWAP4 ADD SWAP3 SWAP2 SWAP1 SWAP2 ADD SWAP1 PUSH2 0x3407 JUMP JUMPDEST POP PUSH1 0x40 DUP3 ADD MLOAD DUP1 MLOAD PUSH2 0x8E0 SWAP2 PUSH1 0x2 DUP5 ADD SWAP2 PUSH1 0x20 SWAP1 SWAP2 ADD SWAP1 PUSH2 0x345D JUMP JUMPDEST POP PUSH1 0x60 DUP3 ADD MLOAD DUP1 MLOAD PUSH2 0x8FC SWAP2 PUSH1 0x3 DUP5 ADD SWAP2 PUSH1 0x20 SWAP1 SWAP2 ADD SWAP1 PUSH2 0x350D JUMP JUMPDEST POP POP POP PUSH1 0x1 PUSH1 0x7 PUSH1 0x0 DUP3 DUP3 SLOAD PUSH2 0x912 SWAP2 SWAP1 PUSH2 0x413C JUMP JUMPDEST SWAP1 SWAP2 SSTORE POP POP PUSH1 0xA SLOAD PUSH32 0x2CA1C706B776FC626B1E93B556D8968577908C5FEE79CA88376ADE10B781019C SWAP1 PUSH2 0x948 SWAP1 PUSH1 0x1 SWAP1 PUSH2 0x414F JUMP JUMPDEST PUSH1 0x40 MLOAD SWAP1 DUP2 MSTORE PUSH1 0x20 ADD PUSH1 0x40 MLOAD DUP1 SWAP2 SUB SWAP1 LOG1 PUSH1 0xA SLOAD PUSH2 0x968 SWAP1 PUSH1 0x1 SWAP1 PUSH2 0x414F JUMP JUMPDEST SWAP1 POP JUMPDEST SWAP5 SWAP4 POP POP POP POP JUMP JUMPDEST PUSH2 0x97B PUSH2 0x259C JUMP JUMPDEST PUSH1 0x9 DUP1 SLOAD PUSH1 0xFF NOT AND SWAP1 SSTORE JUMP JUMPDEST PUSH1 0x60 PUSH2 0x9B2 PUSH32 0x0 PUSH2 0x25F6 JUMP JUMPDEST PUSH2 0x9DB PUSH32 0x0 PUSH2 0x25F6 JUMP JUMPDEST PUSH2 0xA04 PUSH32 0x0 PUSH2 0x25F6 JUMP JUMPDEST PUSH1 0x40 MLOAD PUSH1 0x20 ADD PUSH2 0xA16 SWAP4 SWAP3 SWAP2 SWAP1 PUSH2 0x4162 JUMP JUMPDEST PUSH1 0x40 MLOAD PUSH1 0x20 DUP2 DUP4 SUB SUB DUP2 MSTORE SWAP1 PUSH1 0x40 MSTORE SWAP1 POP SWAP1 JUMP JUMPDEST PUSH2 0xA32 PUSH2 0x259C JUMP JUMPDEST PUSH2 0xA3B DUP2 PUSH2 0x14C0 JUMP JUMPDEST ISZERO PUSH2 0xA88 JUMPI PUSH1 0x40 MLOAD PUSH3 0x461BCD PUSH1 0xE5 SHL DUP2 MSTORE PUSH1 0x20 PUSH1 0x4 DUP3 ADD MSTORE PUSH1 0x19 PUSH1 0x24 DUP3 ADD MSTORE PUSH32 0x546F6B656E20616C72656164792077686974656C697374656400000000000000 PUSH1 0x44 DUP3 ADD MSTORE PUSH1 0x64 ADD PUSH2 0x5F2 JUMP JUMPDEST PUSH1 0x5 DUP1 SLOAD PUSH1 0x1 DUP2 ADD DUP3 SSTORE PUSH1 0x0 SWAP2 SWAP1 SWAP2 MSTORE PUSH32 0x36B6384B5ECA791C62761152D0C79BB0604C104A5FB6F4EB0703F3154BB3DB0 ADD DUP1 SLOAD PUSH1 0x1 PUSH1 0x1 PUSH1 0xA0 SHL SUB NOT AND PUSH1 0x1 PUSH1 0x1 PUSH1 0xA0 SHL SUB SWAP3 SWAP1 SWAP3 AND SWAP2 SWAP1 SWAP2 OR SWAP1 SSTORE JUMP JUMPDEST PUSH2 0xAE2 PUSH2 0x259C JUMP JUMPDEST PUSH2 0xAEC PUSH1 0x0 PUSH2 0x2688 JUMP JUMPDEST JUMP JUMPDEST PUSH2 0xAF6 PUSH2 0x259C JUMP JUMPDEST PUSH1 0x1 DUP1 SLOAD PUSH1 0x1 PUSH1 0x1 PUSH1 0xA0 SHL SUB NOT AND PUSH1 0x1 PUSH1 0x1 PUSH1 0xA0 SHL SUB SWAP3 SWAP1 SWAP3 AND SWAP2 SWAP1 SWAP2 OR SWAP1 SSTORE JUMP JUMPDEST PUSH2 0xB20 PUSH2 0x259C JUMP JUMPDEST PUSH1 0x9 SLOAD PUSH1 0xFF AND ISZERO PUSH2 0xB43 JUMPI PUSH1 0x40 MLOAD PUSH3 0x461BCD PUSH1 0xE5 SHL DUP2 MSTORE PUSH1 0x4 ADD PUSH2 0x5F2 SWAP1 PUSH2 0x40FA JUMP JUMPDEST PUSH1 0x9 DUP1 SLOAD PUSH1 0xFF NOT AND PUSH1 0x1 OR SWAP1 SSTORE JUMP JUMPDEST PUSH1 0x60 DUP1 PUSH1 0x60 DUP1 PUSH1 0x0 PUSH1 0x60 PUSH1 0x0 DUP1 PUSH1 0x0 DUP1 PUSH1 0x2 DUP12 PUSH1 0x40 MLOAD PUSH2 0xB72 SWAP2 SWAP1 PUSH2 0x41BC JUMP JUMPDEST SWAP1 DUP2 MSTORE PUSH1 0x40 DUP1 MLOAD SWAP2 DUP3 SWAP1 SUB PUSH1 0x20 SWAP1 DUP2 ADD DUP4 KECCAK256 PUSH2 0x180 DUP5 ADD DUP4 MSTORE DUP1 SLOAD PUSH1 0x1 PUSH1 0x1 PUSH1 0xA0 SHL SUB AND DUP5 MSTORE PUSH1 0x1 DUP2 ADD DUP1 SLOAD DUP5 MLOAD DUP2 DUP6 MUL DUP2 ADD DUP6 ADD SWAP1 SWAP6 MSTORE DUP1 DUP6 MSTORE SWAP2 SWAP4 DUP6 DUP5 ADD SWAP4 SWAP1 SWAP3 SWAP1 DUP4 ADD DUP3 DUP3 DUP1 ISZERO PUSH2 0xBEF JUMPI PUSH1 0x20 MUL DUP3 ADD SWAP2 SWAP1 PUSH1 0x0 MSTORE PUSH1 0x20 PUSH1 0x0 KECCAK256 SWAP1 JUMPDEST DUP2 SLOAD PUSH1 0x1 PUSH1 0x1 PUSH1 0xA0 SHL SUB AND DUP2 MSTORE PUSH1 0x1 SWAP1 SWAP2 ADD SWAP1 PUSH1 0x20 ADD DUP1 DUP4 GT PUSH2 0xBD1 JUMPI JUMPDEST POP POP POP POP POP DUP2 MSTORE PUSH1 0x20 ADD PUSH1 0x2 DUP3 ADD DUP1 SLOAD DUP1 PUSH1 0x20 MUL PUSH1 0x20 ADD PUSH1 0x40 MLOAD SWAP1 DUP2 ADD PUSH1 0x40 MSTORE DUP1 SWAP3 SWAP2 SWAP1 DUP2 DUP2 MSTORE PUSH1 0x20 ADD DUP3 DUP1 SLOAD DUP1 ISZERO PUSH2 0xC47 JUMPI PUSH1 0x20 MUL DUP3 ADD SWAP2 SWAP1 PUSH1 0x0 MSTORE PUSH1 0x20 PUSH1 0x0 KECCAK256 SWAP1 JUMPDEST DUP2 SLOAD DUP2 MSTORE PUSH1 0x20 ADD SWAP1 PUSH1 0x1 ADD SWAP1 DUP1 DUP4 GT PUSH2 0xC33 JUMPI JUMPDEST POP POP POP POP POP DUP2 MSTORE PUSH1 0x20 ADD PUSH1 0x3 DUP3 ADD DUP1 SLOAD DUP1 PUSH1 0x20 MUL PUSH1 0x20 ADD PUSH1 0x40 MLOAD SWAP1 DUP2 ADD PUSH1 0x40 MSTORE DUP1 SWAP3 SWAP2 SWAP1 DUP2 DUP2 MSTORE PUSH1 0x20 ADD PUSH1 0x0 SWAP1 JUMPDEST DUP3 DUP3 LT ISZERO PUSH2 0xD21 JUMPI DUP4 DUP3 SWAP1 PUSH1 0x0 MSTORE PUSH1 0x20 PUSH1 0x0 KECCAK256 ADD DUP1 SLOAD PUSH2 0xC94 SWAP1 PUSH2 0x41D8 JUMP JUMPDEST DUP1 PUSH1 0x1F ADD PUSH1 0x20 DUP1 SWAP2 DIV MUL PUSH1 0x20 ADD PUSH1 0x40 MLOAD SWAP1 DUP2 ADD PUSH1 0x40 MSTORE DUP1 SWAP3 SWAP2 SWAP1 DUP2 DUP2 MSTORE PUSH1 0x20 ADD DUP3 DUP1 SLOAD PUSH2 0xCC0 SWAP1 PUSH2 0x41D8 JUMP JUMPDEST DUP1 ISZERO PUSH2 0xD0D JUMPI DUP1 PUSH1 0x1F LT PUSH2 0xCE2 JUMPI PUSH2 0x100 DUP1 DUP4 SLOAD DIV MUL DUP4 MSTORE SWAP2 PUSH1 0x20 ADD SWAP2 PUSH2 0xD0D JUMP JUMPDEST DUP3 ADD SWAP2 SWAP1 PUSH1 0x0 MSTORE PUSH1 0x20 PUSH1 0x0 KECCAK256 SWAP1 JUMPDEST DUP2 SLOAD DUP2 MSTORE SWAP1 PUSH1 0x1 ADD SWAP1 PUSH1 0x20 ADD DUP1 DUP4 GT PUSH2 0xCF0 JUMPI DUP3 SWAP1 SUB PUSH1 0x1F AND DUP3 ADD SWAP2 JUMPDEST POP POP POP POP POP DUP2 MSTORE PUSH1 0x20 ADD SWAP1 PUSH1 0x1 ADD SWAP1 PUSH2 0xC75 JUMP JUMPDEST POP POP POP POP DUP2 MSTORE PUSH1 0x20 ADD PUSH1 0x4 DUP3 ADD DUP1 SLOAD PUSH2 0xD39 SWAP1 PUSH2 0x41D8 JUMP JUMPDEST DUP1 PUSH1 0x1F ADD PUSH1 0x20 DUP1 SWAP2 DIV MUL PUSH1 0x20 ADD PUSH1 0x40 MLOAD SWAP1 DUP2 ADD PUSH1 0x40 MSTORE DUP1 SWAP3 SWAP2 SWAP1 DUP2 DUP2 MSTORE PUSH1 0x20 ADD DUP3 DUP1 SLOAD PUSH2 0xD65 SWAP1 PUSH2 0x41D8 JUMP JUMPDEST DUP1 ISZERO PUSH2 0xDB2 JUMPI DUP1 PUSH1 0x1F LT PUSH2 0xD87 JUMPI PUSH2 0x100 DUP1 DUP4 SLOAD DIV MUL DUP4 MSTORE SWAP2 PUSH1 0x20 ADD SWAP2 PUSH2 0xDB2 JUMP JUMPDEST DUP3 ADD SWAP2 SWAP1 PUSH1 0x0 MSTORE PUSH1 0x20 PUSH1 0x0 KECCAK256 SWAP1 JUMPDEST DUP2 SLOAD DUP2 MSTORE SWAP1 PUSH1 0x1 ADD SWAP1 PUSH1 0x20 ADD DUP1 DUP4 GT PUSH2 0xD95 JUMPI DUP3 SWAP1 SUB PUSH1 0x1F AND DUP3 ADD SWAP2 JUMPDEST POP POP POP POP POP DUP2 MSTORE PUSH1 0x20 ADD PUSH1 0x5 DUP3 ADD SLOAD DUP2 MSTORE PUSH1 0x20 ADD PUSH1 0x6 DUP3 ADD DUP1 SLOAD DUP1 PUSH1 0x20 MUL PUSH1 0x20 ADD PUSH1 0x40 MLOAD SWAP1 DUP2 ADD PUSH1 0x40 MSTORE DUP1 SWAP3 SWAP2 SWAP1 DUP2 DUP2 MSTORE PUSH1 0x20 ADD PUSH1 0x0 SWAP1 JUMPDEST DUP3 DUP3 LT ISZERO PUSH2 0xE93 JUMPI PUSH1 0x0 DUP5 DUP2 MSTORE PUSH1 0x20 SWAP1 DUP2 SWAP1 KECCAK256 PUSH1 0x40 DUP1 MLOAD PUSH1 0x80 DUP2 ADD DUP3 MSTORE PUSH1 0x4 DUP7 MUL SWAP1 SWAP3 ADD DUP1 SLOAD PUSH1 0x1 PUSH1 0x1 PUSH1 0xA0 SHL SUB AND DUP4 MSTORE PUSH1 0x1 DUP2 ADD SLOAD DUP4 DUP6 ADD MSTORE PUSH1 0x2 DUP2 ADD SLOAD DUP4 DUP4 ADD MSTORE PUSH1 0x3 DUP2 ADD DUP1 SLOAD DUP4 MLOAD DUP2 DUP8 MUL DUP2 ADD DUP8 ADD SWAP1 SWAP5 MSTORE DUP1 DUP5 MSTORE SWAP4 SWAP5 SWAP2 SWAP4 PUSH1 0x60 DUP7 ADD SWAP4 SWAP3 DUP4 ADD DUP3 DUP3 DUP1 ISZERO PUSH2 0xE7B JUMPI PUSH1 0x20 MUL DUP3 ADD SWAP2 SWAP1 PUSH1 0x0 MSTORE PUSH1 0x20 PUSH1 0x0 KECCAK256 SWAP1 JUMPDEST DUP2 SLOAD DUP2 MSTORE PUSH1 0x20 ADD SWAP1 PUSH1 0x1 ADD SWAP1 DUP1 DUP4 GT PUSH2 0xE67 JUMPI JUMPDEST POP POP POP POP POP DUP2 MSTORE POP POP DUP2 MSTORE PUSH1 0x20 ADD SWAP1 PUSH1 0x1 ADD SWAP1 PUSH2 0xDEA JUMP JUMPDEST POP POP POP SWAP1 DUP3 MSTORE POP PUSH1 0x7 DUP3 ADD SLOAD PUSH1 0xFF DUP2 AND ISZERO ISZERO PUSH1 0x20 DUP4 ADD MSTORE PUSH2 0x100 SWAP1 DIV PUSH1 0x1 PUSH1 0x1 PUSH1 0xA0 SHL SUB AND PUSH1 0x40 DUP3 ADD MSTORE PUSH1 0x8 DUP3 ADD SLOAD PUSH1 0x60 DUP3 ADD MSTORE PUSH1 0x9 DUP3 ADD SLOAD PUSH1 0x80 DUP3 ADD MSTORE PUSH1 0xA DUP3 ADD DUP1 SLOAD PUSH1 0xA0 SWAP1 SWAP3 ADD SWAP2 PUSH2 0xEE6 SWAP1 PUSH2 0x41D8 JUMP JUMPDEST DUP1 PUSH1 0x1F ADD PUSH1 0x20 DUP1 SWAP2 DIV MUL PUSH1 0x20 ADD PUSH1 0x40 MLOAD SWAP1 DUP2 ADD PUSH1 0x40 MSTORE DUP1 SWAP3 SWAP2 SWAP1 DUP2 DUP2 MSTORE PUSH1 0x20 ADD DUP3 DUP1 SLOAD PUSH2 0xF12 SWAP1 PUSH2 0x41D8 JUMP JUMPDEST DUP1 ISZERO PUSH2 0xF5F JUMPI DUP1 PUSH1 0x1F LT PUSH2 0xF34 JUMPI PUSH2 0x100 DUP1 DUP4 SLOAD DIV MUL DUP4 MSTORE SWAP2 PUSH1 0x20 ADD SWAP2 PUSH2 0xF5F JUMP JUMPDEST DUP3 ADD SWAP2 SWAP1 PUSH1 0x0 MSTORE PUSH1 0x20 PUSH1 0x0 KECCAK256 SWAP1 JUMPDEST DUP2 SLOAD DUP2 MSTORE SWAP1 PUSH1 0x1 ADD SWAP1 PUSH1 0x20 ADD DUP1 DUP4 GT PUSH2 0xF42 JUMPI DUP3 SWAP1 SUB PUSH1 0x1F AND DUP3 ADD SWAP2 JUMPDEST POP POP POP POP POP DUP2 MSTORE POP POP SWAP1 POP DUP1 PUSH1 0x20 ADD MLOAD DUP2 PUSH1 0x40 ADD MLOAD DUP3 PUSH1 0x60 ADD MLOAD DUP4 PUSH1 0x80 ADD MLOAD DUP5 PUSH1 0xA0 ADD MLOAD DUP6 PUSH1 0xC0 ADD MLOAD DUP7 PUSH2 0x140 ADD MLOAD DUP8 PUSH1 0xE0 ADD MLOAD DUP9 PUSH2 0x100 ADD MLOAD SWAP10 POP SWAP10 POP SWAP10 POP SWAP10 POP SWAP10 POP SWAP10 POP SWAP10 POP SWAP10 POP SWAP10 POP POP SWAP2 SWAP4 SWAP6 SWAP8 SWAP10 SWAP1 SWAP3 SWAP5 SWAP7 SWAP9 POP JUMP JUMPDEST PUSH1 0x0 PUSH2 0xFC3 PUSH2 0x26D8 JUMP JUMPDEST DUP4 CALLVALUE PUSH1 0x0 JUMPDEST DUP3 DUP2 LT ISZERO PUSH2 0x1058 JUMPI PUSH1 0x0 DUP7 DUP7 DUP4 DUP2 DUP2 LT PUSH2 0xFE4 JUMPI PUSH2 0xFE4 PUSH2 0x4212 JUMP JUMPDEST SWAP1 POP PUSH1 0x20 MUL ADD CALLDATALOAD SWAP1 POP DUP3 DUP2 GT ISZERO PUSH2 0x100E JUMPI PUSH1 0x40 MLOAD PUSH4 0x44044A5 PUSH1 0xE2 SHL DUP2 MSTORE PUSH1 0x4 ADD PUSH1 0x40 MLOAD DUP1 SWAP2 SUB SWAP1 REVERT JUMPDEST PUSH2 0x103B DUP10 DUP10 DUP5 DUP2 DUP2 LT PUSH2 0x1023 JUMPI PUSH2 0x1023 PUSH2 0x4212 JUMP JUMPDEST SWAP1 POP PUSH1 0x20 MUL DUP2 ADD SWAP1 PUSH2 0x1035 SWAP2 SWAP1 PUSH2 0x4228 JUMP JUMPDEST DUP3 PUSH2 0x2721 JUMP JUMPDEST PUSH2 0x104C JUMPI PUSH1 0x0 SWAP5 POP POP POP POP POP PUSH2 0x96B JUMP JUMPDEST SWAP1 SWAP2 SUB SWAP1 PUSH1 0x1 ADD PUSH2 0xFC8 JUMP JUMPDEST POP PUSH1 0x1 SWAP8 SWAP7 POP POP POP POP POP POP POP JUMP JUMPDEST PUSH1 0x0 PUSH2 0x1070 PUSH2 0x26D8 JUMP JUMPDEST DUP4 CALLVALUE PUSH1 0x0 JUMPDEST DUP3 DUP2 LT ISZERO PUSH2 0x1058 JUMPI PUSH1 0x0 DUP7 DUP7 DUP4 DUP2 DUP2 LT PUSH2 0x1091 JUMPI PUSH2 0x1091 PUSH2 0x4212 JUMP JUMPDEST SWAP1 POP PUSH1 0x20 MUL ADD CALLDATALOAD SWAP1 POP DUP3 DUP2 GT ISZERO PUSH2 0x10BB JUMPI PUSH1 0x40 MLOAD PUSH4 0x44044A5 PUSH1 0xE2 SHL DUP2 MSTORE PUSH1 0x4 ADD PUSH1 0x40 MLOAD DUP1 SWAP2 SUB SWAP1 REVERT JUMPDEST PUSH2 0x10E8 DUP10 DUP10 DUP5 DUP2 DUP2 LT PUSH2 0x10D0 JUMPI PUSH2 0x10D0 PUSH2 0x4212 JUMP JUMPDEST SWAP1 POP PUSH1 0x20 MUL DUP2 ADD SWAP1 PUSH2 0x10E2 SWAP2 SWAP1 PUSH2 0x4228 JUMP JUMPDEST DUP3 PUSH2 0x272A JUMP JUMPDEST PUSH2 0x10F9 JUMPI PUSH1 0x0 SWAP5 POP POP POP POP POP PUSH2 0x96B JUMP JUMPDEST SWAP1 SWAP2 SUB SWAP1 PUSH1 0x1 ADD PUSH2 0x1075 JUMP JUMPDEST PUSH1 0x8 DUP1 SLOAD PUSH2 0x1112 SWAP1 PUSH2 0x41D8 JUMP JUMPDEST DUP1 PUSH1 0x1F ADD PUSH1 0x20 DUP1 SWAP2 DIV MUL PUSH1 0x20 ADD PUSH1 0x40 MLOAD SWAP1 DUP2 ADD PUSH1 0x40 MSTORE DUP1 SWAP3 SWAP2 SWAP1 DUP2 DUP2 MSTORE PUSH1 0x20 ADD DUP3 DUP1 SLOAD PUSH2 0x113E SWAP1 PUSH2 0x41D8 JUMP JUMPDEST DUP1 ISZERO PUSH2 0x118B JUMPI DUP1 PUSH1 0x1F LT PUSH2 0x1160 JUMPI PUSH2 0x100 DUP1 DUP4 SLOAD DIV MUL DUP4 MSTORE SWAP2 PUSH1 0x20 ADD SWAP2 PUSH2 0x118B JUMP JUMPDEST DUP3 ADD SWAP2 SWAP1 PUSH1 0x0 MSTORE PUSH1 0x20 PUSH1 0x0 KECCAK256 SWAP1 JUMPDEST DUP2 SLOAD DUP2 MSTORE SWAP1 PUSH1 0x1 ADD SWAP1 PUSH1 0x20 ADD DUP1 DUP4 GT PUSH2 0x116E JUMPI DUP3 SWAP1 SUB PUSH1 0x1F AND DUP3 ADD SWAP2 JUMPDEST POP POP POP POP POP DUP2 JUMP JUMPDEST PUSH1 0x9 SLOAD PUSH1 0xFF AND ISZERO PUSH2 0x11B6 JUMPI PUSH1 0x40 MLOAD PUSH3 0x461BCD PUSH1 0xE5 SHL DUP2 MSTORE PUSH1 0x4 ADD PUSH2 0x5F2 SWAP1 PUSH2 0x40FA JUMP JUMPDEST PUSH2 0x11C9 DUP7 DUP7 DUP7 DUP7 DUP7 PUSH1 0x0 DUP8 PUSH1 0x0 DUP1 PUSH2 0x1D82 JUMP JUMPDEST POP POP POP POP POP POP JUMP JUMPDEST PUSH2 0x11D9 PUSH2 0x259C JUMP JUMPDEST PUSH1 0x4 SSTORE JUMP JUMPDEST PUSH1 0x60 DUP1 PUSH1 0x60 PUSH1 0x0 DUP1 PUSH1 0x2 DUP7 PUSH1 0x40 MLOAD PUSH2 0x11F6 SWAP2 SWAP1 PUSH2 0x41BC JUMP JUMPDEST SWAP1 DUP2 MSTORE PUSH1 0x20 ADD PUSH1 0x40 MLOAD DUP1 SWAP2 SUB SWAP1 KECCAK256 SWAP1 POP PUSH1 0x0 PUSH1 0xA DUP3 PUSH1 0x9 ADD SLOAD DUP2 SLOAD DUP2 LT PUSH2 0x121F JUMPI PUSH2 0x121F PUSH2 0x4212 JUMP JUMPDEST SWAP1 PUSH1 0x0 MSTORE PUSH1 0x20 PUSH1 0x0 KECCAK256 SWAP1 PUSH1 0x4 MUL ADD SWAP1 POP DUP1 PUSH1 0x1 ADD DUP2 PUSH1 0x2 ADD DUP3 PUSH1 0x3 ADD DUP4 PUSH1 0x0 ADD SLOAD DUP4 DUP1 SLOAD DUP1 PUSH1 0x20 MUL PUSH1 0x20 ADD PUSH1 0x40 MLOAD SWAP1 DUP2 ADD PUSH1 0x40 MSTORE DUP1 SWAP3 SWAP2 SWAP1 DUP2 DUP2 MSTORE PUSH1 0x20 ADD PUSH1 0x0 SWAP1 JUMPDEST DUP3 DUP3 LT ISZERO PUSH2 0x130D JUMPI DUP4 DUP3 SWAP1 PUSH1 0x0 MSTORE PUSH1 0x20 PUSH1 0x0 KECCAK256 ADD DUP1 SLOAD PUSH2 0x1280 SWAP1 PUSH2 0x41D8 JUMP JUMPDEST DUP1 PUSH1 0x1F ADD PUSH1 0x20 DUP1 SWAP2 DIV MUL PUSH1 0x20 ADD PUSH1 0x40 MLOAD SWAP1 DUP2 ADD PUSH1 0x40 MSTORE DUP1 SWAP3 SWAP2 SWAP1 DUP2 DUP2 MSTORE PUSH1 0x20 ADD DUP3 DUP1 SLOAD PUSH2 0x12AC SWAP1 PUSH2 0x41D8 JUMP JUMPDEST DUP1 ISZERO PUSH2 0x12F9 JUMPI DUP1 PUSH1 0x1F LT PUSH2 0x12CE JUMPI PUSH2 0x100 DUP1 DUP4 SLOAD DIV MUL DUP4 MSTORE SWAP2 PUSH1 0x20 ADD SWAP2 PUSH2 0x12F9 JUMP JUMPDEST DUP3 ADD SWAP2 SWAP1 PUSH1 0x0 MSTORE PUSH1 0x20 PUSH1 0x0 KECCAK256 SWAP1 JUMPDEST DUP2 SLOAD DUP2 MSTORE SWAP1 PUSH1 0x1 ADD SWAP1 PUSH1 0x20 ADD DUP1 DUP4 GT PUSH2 0x12DC JUMPI DUP3 SWAP1 SUB PUSH1 0x1F AND DUP3 ADD SWAP2 JUMPDEST POP POP POP POP POP DUP2 MSTORE PUSH1 0x20 ADD SWAP1 PUSH1 0x1 ADD SWAP1 PUSH2 0x1261 JUMP JUMPDEST POP POP POP POP SWAP4 POP DUP3 DUP1 SLOAD DUP1 PUSH1 0x20 MUL PUSH1 0x20 ADD PUSH1 0x40 MLOAD SWAP1 DUP2 ADD PUSH1 0x40 MSTORE DUP1 SWAP3 SWAP2 SWAP1 DUP2 DUP2 MSTORE PUSH1 0x20 ADD DUP3 DUP1 SLOAD DUP1 ISZERO PUSH2 0x138E JUMPI PUSH1 0x20 MUL DUP3 ADD SWAP2 SWAP1 PUSH1 0x0 MSTORE PUSH1 0x20 PUSH1 0x0 KECCAK256 SWAP1 PUSH1 0x0 SWAP1 JUMPDEST DUP3 DUP3 SWAP1 SLOAD SWAP1 PUSH2 0x100 EXP SWAP1 DIV PUSH1 0xFF AND PUSH1 0x2 DUP2 GT ISZERO PUSH2 0x136C JUMPI PUSH2 0x136C PUSH2 0x3FAB JUMP JUMPDEST DUP2 MSTORE PUSH1 0x20 PUSH1 0x1 SWAP3 DUP4 ADD DUP2 DUP2 DIV SWAP5 DUP6 ADD SWAP5 SWAP1 SWAP4 SUB SWAP1 SWAP3 MUL SWAP2 ADD DUP1 DUP5 GT PUSH2 0x134D JUMPI SWAP1 POP JUMPDEST POP POP POP POP POP SWAP3 POP DUP2 DUP1 SLOAD DUP1 PUSH1 0x20 MUL PUSH1 0x20 ADD PUSH1 0x40 MLOAD SWAP1 DUP2 ADD PUSH1 0x40 MSTORE DUP1 SWAP3 SWAP2 SWAP1 DUP2 DUP2 MSTORE PUSH1 0x20 ADD PUSH1 0x0 SWAP1 JUMPDEST DUP3 DUP3 LT ISZERO PUSH2 0x14A9 JUMPI DUP4 DUP3 SWAP1 PUSH1 0x0 MSTORE PUSH1 0x20 PUSH1 0x0 KECCAK256 ADD DUP1 SLOAD DUP1 PUSH1 0x20 MUL PUSH1 0x20 ADD PUSH1 0x40 MLOAD SWAP1 DUP2 ADD PUSH1 0x40 MSTORE DUP1 SWAP3 SWAP2 SWAP1 DUP2 DUP2 MSTORE PUSH1 0x20 ADD PUSH1 0x0 SWAP1 JUMPDEST DUP3 DUP3 LT ISZERO PUSH2 0x1496 JUMPI DUP4 DUP3 SWAP1 PUSH1 0x0 MSTORE PUSH1 0x20 PUSH1 0x0 KECCAK256 ADD DUP1 SLOAD PUSH2 0x1409 SWAP1 PUSH2 0x41D8 JUMP JUMPDEST DUP1 PUSH1 0x1F ADD PUSH1 0x20 DUP1 SWAP2 DIV MUL PUSH1 0x20 ADD PUSH1 0x40 MLOAD SWAP1 DUP2 ADD PUSH1 0x40 MSTORE DUP1 SWAP3 SWAP2 SWAP1 DUP2 DUP2 MSTORE PUSH1 0x20 ADD DUP3 DUP1 SLOAD PUSH2 0x1435 SWAP1 PUSH2 0x41D8 JUMP JUMPDEST DUP1 ISZERO PUSH2 0x1482 JUMPI DUP1 PUSH1 0x1F LT PUSH2 0x1457 JUMPI PUSH2 0x100 DUP1 DUP4 SLOAD DIV MUL DUP4 MSTORE SWAP2 PUSH1 0x20 ADD SWAP2 PUSH2 0x1482 JUMP JUMPDEST DUP3 ADD SWAP2 SWAP1 PUSH1 0x0 MSTORE PUSH1 0x20 PUSH1 0x0 KECCAK256 SWAP1 JUMPDEST DUP2 SLOAD DUP2 MSTORE SWAP1 PUSH1 0x1 ADD SWAP1 PUSH1 0x20 ADD DUP1 DUP4 GT PUSH2 0x1465 JUMPI DUP3 SWAP1 SUB PUSH1 0x1F AND DUP3 ADD SWAP2 JUMPDEST POP POP POP POP POP DUP2 MSTORE PUSH1 0x20 ADD SWAP1 PUSH1 0x1 ADD SWAP1 PUSH2 0x13EA JUMP JUMPDEST POP POP POP POP DUP2 MSTORE PUSH1 0x20 ADD SWAP1 PUSH1 0x1 ADD SWAP1 PUSH2 0x13B6 JUMP JUMPDEST POP POP POP POP SWAP2 POP SWAP6 POP SWAP6 POP SWAP6 POP SWAP6 POP POP POP SWAP2 SWAP4 POP SWAP2 SWAP4 JUMP JUMPDEST PUSH1 0x0 DUP1 JUMPDEST PUSH1 0x5 SLOAD DUP2 LT ISZERO PUSH2 0x1520 JUMPI DUP3 PUSH1 0x1 PUSH1 0x1 PUSH1 0xA0 SHL SUB AND PUSH1 0x5 DUP3 DUP2 SLOAD DUP2 LT PUSH2 0x14EB JUMPI PUSH2 0x14EB PUSH2 0x4212 JUMP JUMPDEST PUSH1 0x0 SWAP2 DUP3 MSTORE PUSH1 0x20 SWAP1 SWAP2 KECCAK256 ADD SLOAD PUSH1 0x1 PUSH1 0x1 PUSH1 0xA0 SHL SUB AND SUB PUSH2 0x150E JUMPI POP PUSH1 0x1 SWAP3 SWAP2 POP POP JUMP JUMPDEST DUP1 PUSH2 0x1518 DUP2 PUSH2 0x423F JUMP JUMPDEST SWAP2 POP POP PUSH2 0x14C4 JUMP JUMPDEST POP PUSH1 0x0 SWAP3 SWAP2 POP POP JUMP JUMPDEST PUSH1 0x60 DUP1 PUSH1 0x60 PUSH1 0x0 PUSH1 0xA DUP6 DUP2 SLOAD DUP2 LT PUSH2 0x1543 JUMPI PUSH2 0x1543 PUSH2 0x4212 JUMP JUMPDEST SWAP1 PUSH1 0x0 MSTORE PUSH1 0x20 PUSH1 0x0 KECCAK256 SWAP1 PUSH1 0x4 MUL ADD PUSH1 0x1 ADD PUSH1 0xA DUP7 DUP2 SLOAD DUP2 LT PUSH2 0x1567 JUMPI PUSH2 0x1567 PUSH2 0x4212 JUMP JUMPDEST SWAP1 PUSH1 0x0 MSTORE PUSH1 0x20 PUSH1 0x0 KECCAK256 SWAP1 PUSH1 0x4 MUL ADD PUSH1 0x2 ADD PUSH1 0xA DUP8 DUP2 SLOAD DUP2 LT PUSH2 0x158B JUMPI PUSH2 0x158B PUSH2 0x4212 JUMP JUMPDEST SWAP1 PUSH1 0x0 MSTORE PUSH1 0x20 PUSH1 0x0 KECCAK256 SWAP1 PUSH1 0x4 MUL ADD PUSH1 0x3 ADD PUSH1 0xA DUP9 DUP2 SLOAD DUP2 LT PUSH2 0x15AF JUMPI PUSH2 0x15AF PUSH2 0x4212 JUMP JUMPDEST SWAP1 PUSH1 0x0 MSTORE PUSH1 0x20 PUSH1 0x0 KECCAK256 SWAP1 PUSH1 0x4 MUL ADD PUSH1 0x0 ADD SLOAD DUP4 DUP1 SLOAD DUP1 PUSH1 0x20 MUL PUSH1 0x20 ADD PUSH1 0x40 MLOAD SWAP1 DUP2 ADD PUSH1 0x40 MSTORE DUP1 SWAP3 SWAP2 SWAP1 DUP2 DUP2 MSTORE PUSH1 0x20 ADD PUSH1 0x0 SWAP1 JUMPDEST DUP3 DUP3 LT ISZERO PUSH2 0x168E JUMPI DUP4 DUP3 SWAP1 PUSH1 0x0 MSTORE PUSH1 0x20 PUSH1 0x0 KECCAK256 ADD DUP1 SLOAD PUSH2 0x1601 SWAP1 PUSH2 0x41D8 JUMP JUMPDEST DUP1 PUSH1 0x1F ADD PUSH1 0x20 DUP1 SWAP2 DIV MUL PUSH1 0x20 ADD PUSH1 0x40 MLOAD SWAP1 DUP2 ADD PUSH1 0x40 MSTORE DUP1 SWAP3 SWAP2 SWAP1 DUP2 DUP2 MSTORE PUSH1 0x20 ADD DUP3 DUP1 SLOAD PUSH2 0x162D SWAP1 PUSH2 0x41D8 JUMP JUMPDEST DUP1 ISZERO PUSH2 0x167A JUMPI DUP1 PUSH1 0x1F LT PUSH2 0x164F JUMPI PUSH2 0x100 DUP1 DUP4 SLOAD DIV MUL DUP4 MSTORE SWAP2 PUSH1 0x20 ADD SWAP2 PUSH2 0x167A JUMP JUMPDEST DUP3 ADD SWAP2 SWAP1 PUSH1 0x0 MSTORE PUSH1 0x20 PUSH1 0x0 KECCAK256 SWAP1 JUMPDEST DUP2 SLOAD DUP2 MSTORE SWAP1 PUSH1 0x1 ADD SWAP1 PUSH1 0x20 ADD DUP1 DUP4 GT PUSH2 0x165D JUMPI DUP3 SWAP1 SUB PUSH1 0x1F AND DUP3 ADD SWAP2 JUMPDEST POP POP POP POP POP DUP2 MSTORE PUSH1 0x20 ADD SWAP1 PUSH1 0x1 ADD SWAP1 PUSH2 0x15E2 JUMP JUMPDEST POP POP POP POP SWAP4 POP DUP3 DUP1 SLOAD DUP1 PUSH1 0x20 MUL PUSH1 0x20 ADD PUSH1 0x40 MLOAD SWAP1 DUP2 ADD PUSH1 0x40 MSTORE DUP1 SWAP3 SWAP2 SWAP1 DUP2 DUP2 MSTORE PUSH1 0x20 ADD DUP3 DUP1 SLOAD DUP1 ISZERO PUSH2 0x170F JUMPI PUSH1 0x20 MUL DUP3 ADD SWAP2 SWAP1 PUSH1 0x0 MSTORE PUSH1 0x20 PUSH1 0x0 KECCAK256 SWAP1 PUSH1 0x0 SWAP1 JUMPDEST DUP3 DUP3 SWAP1 SLOAD SWAP1 PUSH2 0x100 EXP SWAP1 DIV PUSH1 0xFF AND PUSH1 0x2 DUP2 GT ISZERO PUSH2 0x16ED JUMPI PUSH2 0x16ED PUSH2 0x3FAB JUMP JUMPDEST DUP2 MSTORE PUSH1 0x20 PUSH1 0x1 SWAP3 DUP4 ADD DUP2 DUP2 DIV SWAP5 DUP6 ADD SWAP5 SWAP1 SWAP4 SUB SWAP1 SWAP3 MUL SWAP2 ADD DUP1 DUP5 GT PUSH2 0x16CE JUMPI SWAP1 POP JUMPDEST POP POP POP POP POP SWAP3 POP DUP2 DUP1 SLOAD DUP1 PUSH1 0x20 MUL PUSH1 0x20 ADD PUSH1 0x40 MLOAD SWAP1 DUP2 ADD PUSH1 0x40 MSTORE DUP1 SWAP3 SWAP2 SWAP1 DUP2 DUP2 MSTORE PUSH1 0x20 ADD PUSH1 0x0 SWAP1 JUMPDEST DUP3 DUP3 LT ISZERO PUSH2 0x182A JUMPI DUP4 DUP3 SWAP1 PUSH1 0x0 MSTORE PUSH1 0x20 PUSH1 0x0 KECCAK256 ADD DUP1 SLOAD DUP1 PUSH1 0x20 MUL PUSH1 0x20 ADD PUSH1 0x40 MLOAD SWAP1 DUP2 ADD PUSH1 0x40 MSTORE DUP1 SWAP3 SWAP2 SWAP1 DUP2 DUP2 MSTORE PUSH1 0x20 ADD PUSH1 0x0 SWAP1 JUMPDEST DUP3 DUP3 LT ISZERO PUSH2 0x1817 JUMPI DUP4 DUP3 SWAP1 PUSH1 0x0 MSTORE PUSH1 0x20 PUSH1 0x0 KECCAK256 ADD DUP1 SLOAD PUSH2 0x178A SWAP1 PUSH2 0x41D8 JUMP JUMPDEST DUP1 PUSH1 0x1F ADD PUSH1 0x20 DUP1 SWAP2 DIV MUL PUSH1 0x20 ADD PUSH1 0x40 MLOAD SWAP1 DUP2 ADD PUSH1 0x40 MSTORE DUP1 SWAP3 SWAP2 SWAP1 DUP2 DUP2 MSTORE PUSH1 0x20 ADD DUP3 DUP1 SLOAD PUSH2 0x17B6 SWAP1 PUSH2 0x41D8 JUMP JUMPDEST DUP1 ISZERO PUSH2 0x1803 JUMPI DUP1 PUSH1 0x1F LT PUSH2 0x17D8 JUMPI PUSH2 0x100 DUP1 DUP4 SLOAD DIV MUL DUP4 MSTORE SWAP2 PUSH1 0x20 ADD SWAP2 PUSH2 0x1803 JUMP JUMPDEST DUP3 ADD SWAP2 SWAP1 PUSH1 0x0 MSTORE PUSH1 0x20 PUSH1 0x0 KECCAK256 SWAP1 JUMPDEST DUP2 SLOAD DUP2 MSTORE SWAP1 PUSH1 0x1 ADD SWAP1 PUSH1 0x20 ADD DUP1 DUP4 GT PUSH2 0x17E6 JUMPI DUP3 SWAP1 SUB PUSH1 0x1F AND DUP3 ADD SWAP2 JUMPDEST POP POP POP POP POP DUP2 MSTORE PUSH1 0x20 ADD SWAP1 PUSH1 0x1 ADD SWAP1 PUSH2 0x176B JUMP JUMPDEST POP POP POP POP DUP2 MSTORE PUSH1 0x20 ADD SWAP1 PUSH1 0x1 ADD SWAP1 PUSH2 0x1737 JUMP JUMPDEST POP POP POP POP SWAP2 POP SWAP4 POP SWAP4 POP SWAP4 POP SWAP4 POP SWAP2 SWAP4 POP SWAP2 SWAP4 JUMP JUMPDEST PUSH2 0x1847 PUSH2 0x259C JUMP JUMPDEST PUSH1 0x3 SSTORE JUMP JUMPDEST PUSH1 0x2 DUP2 PUSH1 0x40 MLOAD PUSH2 0x185C SWAP2 SWAP1 PUSH2 0x41BC JUMP JUMPDEST SWAP1 DUP2 MSTORE PUSH1 0x40 MLOAD SWAP1 DUP2 SWAP1 SUB PUSH1 0x20 ADD SWAP1 KECCAK256 SLOAD CALLER PUSH1 0x1 PUSH1 0x1 PUSH1 0xA0 SHL SUB SWAP1 SWAP2 AND EQ PUSH2 0x18C5 JUMPI PUSH1 0x40 MLOAD PUSH3 0x461BCD PUSH1 0xE5 SHL DUP2 MSTORE PUSH1 0x20 PUSH1 0x4 DUP3 ADD MSTORE PUSH1 0x1D PUSH1 0x24 DUP3 ADD MSTORE PUSH32 0x4465726573793A204974206973206E6F74207468652073706F6E736F72000000 PUSH1 0x44 DUP3 ADD MSTORE PUSH1 0x64 ADD PUSH2 0x5F2 JUMP JUMPDEST PUSH1 0x2 DUP2 PUSH1 0x40 MLOAD PUSH2 0x18D5 SWAP2 SWAP1 PUSH2 0x41BC JUMP JUMPDEST SWAP1 DUP2 MSTORE PUSH1 0x40 MLOAD SWAP1 DUP2 SWAP1 SUB PUSH1 0x20 ADD SWAP1 KECCAK256 PUSH1 0x7 ADD SLOAD PUSH1 0xFF AND ISZERO PUSH2 0x1931 JUMPI PUSH1 0x40 MLOAD PUSH3 0x461BCD PUSH1 0xE5 SHL DUP2 MSTORE PUSH1 0x20 PUSH1 0x4 DUP3 ADD MSTORE PUSH1 0x16 PUSH1 0x24 DUP3 ADD MSTORE PUSH22 0x11195C995CDE4E881C995C5D595CDD0818DB1BDCD959 PUSH1 0x52 SHL PUSH1 0x44 DUP3 ADD MSTORE PUSH1 0x64 ADD PUSH2 0x5F2 JUMP JUMPDEST PUSH1 0x2 DUP2 PUSH1 0x40 MLOAD PUSH2 0x1941 SWAP2 SWAP1 PUSH2 0x41BC JUMP JUMPDEST SWAP1 DUP2 MSTORE PUSH1 0x40 MLOAD SWAP1 DUP2 SWAP1 SUB PUSH1 0x20 ADD DUP2 KECCAK256 SLOAD PUSH1 0x1 PUSH1 0x1 PUSH1 0xA0 SHL SUB AND SWAP1 PUSH2 0x8FC SWAP1 PUSH1 0x2 SWAP1 PUSH2 0x196D SWAP1 DUP6 SWAP1 PUSH2 0x41BC JUMP JUMPDEST SWAP1 DUP2 MSTORE PUSH1 0x40 MLOAD SWAP1 DUP2 SWAP1 SUB PUSH1 0x20 ADD DUP2 KECCAK256 PUSH1 0x8 ADD SLOAD DUP1 ISZERO SWAP1 SWAP3 MUL SWAP2 SWAP1 PUSH1 0x0 DUP2 DUP2 DUP2 DUP6 DUP9 DUP9 CALL SWAP4 POP POP POP POP ISZERO DUP1 ISZERO PUSH2 0x19A6 JUMPI RETURNDATASIZE PUSH1 0x0 DUP1 RETURNDATACOPY RETURNDATASIZE PUSH1 0x0 REVERT JUMPDEST POP PUSH1 0x1 PUSH1 0x2 DUP3 PUSH1 0x40 MLOAD PUSH2 0x19B9 SWAP2 SWAP1 PUSH2 0x41BC JUMP JUMPDEST SWAP1 DUP2 MSTORE PUSH1 0x40 MLOAD SWAP1 DUP2 SWAP1 SUB PUSH1 0x20 ADD DUP2 KECCAK256 PUSH1 0x7 ADD DUP1 SLOAD SWAP3 ISZERO ISZERO PUSH1 0xFF NOT SWAP1 SWAP4 AND SWAP3 SWAP1 SWAP3 OR SWAP1 SWAP2 SSTORE PUSH1 0x0 SWAP1 PUSH1 0x2 SWAP1 PUSH2 0x19EE SWAP1 DUP5 SWAP1 PUSH2 0x41BC JUMP JUMPDEST SWAP1 DUP2 MSTORE PUSH1 0x20 ADD PUSH1 0x40 MLOAD DUP1 SWAP2 SUB SWAP1 KECCAK256 PUSH1 0x8 ADD DUP2 SWAP1 SSTORE POP PUSH32 0xBC5C8CB2024ED254E024E37B09895ECAA07948DD0FD7A08E30B80F559888F2CF DUP2 PUSH1 0x40 MLOAD PUSH2 0x1A32 SWAP2 SWAP1 PUSH2 0x3B89 JUMP JUMPDEST PUSH1 0x40 MLOAD DUP1 SWAP2 SUB SWAP1 LOG1 POP JUMP JUMPDEST PUSH2 0x1A45 PUSH2 0x259C JUMP JUMPDEST PUSH2 0x1A4E DUP2 PUSH2 0x14C0 JUMP JUMPDEST PUSH2 0x1A93 JUMPI PUSH1 0x40 MLOAD PUSH3 0x461BCD PUSH1 0xE5 SHL DUP2 MSTORE PUSH1 0x20 PUSH1 0x4 DUP3 ADD MSTORE PUSH1 0x16 PUSH1 0x24 DUP3 ADD MSTORE PUSH22 0x151BDAD95B881B9BDD081A5B881DDA1A5D195B1A5CDD PUSH1 0x52 SHL PUSH1 0x44 DUP3 ADD MSTORE PUSH1 0x64 ADD PUSH2 0x5F2 JUMP JUMPDEST PUSH1 0x0 JUMPDEST PUSH1 0x5 SLOAD DUP2 LT ISZERO PUSH2 0x1B9A JUMPI DUP2 PUSH1 0x1 PUSH1 0x1 PUSH1 0xA0 SHL SUB AND PUSH1 0x5 DUP3 DUP2 SLOAD DUP2 LT PUSH2 0x1ABD JUMPI PUSH2 0x1ABD PUSH2 0x4212 JUMP JUMPDEST PUSH1 0x0 SWAP2 DUP3 MSTORE PUSH1 0x20 SWAP1 SWAP2 KECCAK256 ADD SLOAD PUSH1 0x1 PUSH1 0x1 PUSH1 0xA0 SHL SUB AND SUB PUSH2 0x1B88 JUMPI PUSH1 0x5 DUP1 SLOAD PUSH2 0x1AE7 SWAP1 PUSH1 0x1 SWAP1 PUSH2 0x414F JUMP JUMPDEST DUP2 SLOAD DUP2 LT PUSH2 0x1AF7 JUMPI PUSH2 0x1AF7 PUSH2 0x4212 JUMP JUMPDEST PUSH1 0x0 SWAP2 DUP3 MSTORE PUSH1 0x20 SWAP1 SWAP2 KECCAK256 ADD SLOAD PUSH1 0x5 DUP1 SLOAD PUSH1 0x1 PUSH1 0x1 PUSH1 0xA0 SHL SUB SWAP1 SWAP3 AND SWAP2 DUP4 SWAP1 DUP2 LT PUSH2 0x1B23 JUMPI PUSH2 0x1B23 PUSH2 0x4212 JUMP JUMPDEST SWAP1 PUSH1 0x0 MSTORE PUSH1 0x20 PUSH1 0x0 KECCAK256 ADD PUSH1 0x0 PUSH2 0x100 EXP DUP2 SLOAD DUP2 PUSH1 0x1 PUSH1 0x1 PUSH1 0xA0 SHL SUB MUL NOT AND SWAP1 DUP4 PUSH1 0x1 PUSH1 0x1 PUSH1 0xA0 SHL SUB AND MUL OR SWAP1 SSTORE POP PUSH1 0x5 DUP1 SLOAD DUP1 PUSH2 0x1B62 JUMPI PUSH2 0x1B62 PUSH2 0x4258 JUMP JUMPDEST PUSH1 0x0 DUP3 DUP2 MSTORE PUSH1 0x20 SWAP1 KECCAK256 DUP2 ADD PUSH1 0x0 NOT SWAP1 DUP2 ADD DUP1 SLOAD PUSH1 0x1 PUSH1 0x1 PUSH1 0xA0 SHL SUB NOT AND SWAP1 SSTORE ADD SWAP1 SSTORE POP POP JUMP JUMPDEST DUP1 PUSH2 0x1B92 DUP2 PUSH2 0x423F JUMP JUMPDEST SWAP2 POP POP PUSH2 0x1A96 JUMP JUMPDEST POP POP JUMP JUMPDEST PUSH1 0x60 PUSH1 0x6 DUP1 SLOAD DUP1 PUSH1 0x20 MUL PUSH1 0x20 ADD PUSH1 0x40 MLOAD SWAP1 DUP2 ADD PUSH1 0x40 MSTORE DUP1 SWAP3 SWAP2 SWAP1 DUP2 DUP2 MSTORE PUSH1 0x20 ADD PUSH1 0x0 SWAP1 JUMPDEST DUP3 DUP3 LT ISZERO PUSH2 0x1C6E JUMPI DUP4 DUP3 SWAP1 PUSH1 0x0 MSTORE PUSH1 0x20 PUSH1 0x0 KECCAK256 ADD DUP1 SLOAD PUSH2 0x1BE1 SWAP1 PUSH2 0x41D8 JUMP JUMPDEST DUP1 PUSH1 0x1F ADD PUSH1 0x20 DUP1 SWAP2 DIV MUL PUSH1 0x20 ADD PUSH1 0x40 MLOAD SWAP1 DUP2 ADD PUSH1 0x40 MSTORE DUP1 SWAP3 SWAP2 SWAP1 DUP2 DUP2 MSTORE PUSH1 0x20 ADD DUP3 DUP1 SLOAD PUSH2 0x1C0D SWAP1 PUSH2 0x41D8 JUMP JUMPDEST DUP1 ISZERO PUSH2 0x1C5A JUMPI DUP1 PUSH1 0x1F LT PUSH2 0x1C2F JUMPI PUSH2 0x100 DUP1 DUP4 SLOAD DIV MUL DUP4 MSTORE SWAP2 PUSH1 0x20 ADD SWAP2 PUSH2 0x1C5A JUMP JUMPDEST DUP3 ADD SWAP2 SWAP1 PUSH1 0x0 MSTORE PUSH1 0x20 PUSH1 0x0 KECCAK256 SWAP1 JUMPDEST DUP2 SLOAD DUP2 MSTORE SWAP1 PUSH1 0x1 ADD SWAP1 PUSH1 0x20 ADD DUP1 DUP4 GT PUSH2 0x1C3D JUMPI DUP3 SWAP1 SUB PUSH1 0x1F AND DUP3 ADD SWAP2 JUMPDEST POP POP POP POP POP DUP2 MSTORE PUSH1 0x20 ADD SWAP1 PUSH1 0x1 ADD SWAP1 PUSH2 0x1BC2 JUMP JUMPDEST POP POP POP POP SWAP1 POP SWAP1 JUMP JUMPDEST PUSH1 0x60 PUSH1 0x5 DUP1 SLOAD DUP1 PUSH1 0x20 MUL PUSH1 0x20 ADD PUSH1 0x40 MLOAD SWAP1 DUP2 ADD PUSH1 0x40 MSTORE DUP1 SWAP3 SWAP2 SWAP1 DUP2 DUP2 MSTORE PUSH1 0x20 ADD DUP3 DUP1 SLOAD DUP1 ISZERO PUSH2 0x1CCF JUMPI PUSH1 0x20 MUL DUP3 ADD SWAP2 SWAP1 PUSH1 0x0 MSTORE PUSH1 0x20 PUSH1 0x0 KECCAK256 SWAP1 JUMPDEST DUP2 SLOAD PUSH1 0x1 PUSH1 0x1 PUSH1 0xA0 SHL SUB AND DUP2 MSTORE PUSH1 0x1 SWAP1 SWAP2 ADD SWAP1 PUSH1 0x20 ADD DUP1 DUP4 GT PUSH2 0x1CB1 JUMPI JUMPDEST POP POP POP POP POP SWAP1 POP SWAP1 JUMP JUMPDEST PUSH1 0x0 PUSH2 0x1CE3 PUSH2 0x26D8 JUMP JUMPDEST PUSH2 0x1CED DUP3 CALLVALUE PUSH2 0x2721 JUMP JUMPDEST SWAP1 POP JUMPDEST SWAP2 SWAP1 POP JUMP JUMPDEST PUSH1 0x0 PUSH2 0x1CFF PUSH2 0x26D8 JUMP JUMPDEST PUSH2 0x1CED DUP3 CALLVALUE PUSH2 0x272A JUMP JUMPDEST PUSH2 0x1D11 PUSH2 0x259C JUMP JUMPDEST PUSH1 0x1 PUSH1 0x1 PUSH1 0xA0 SHL SUB DUP2 AND PUSH2 0x1D76 JUMPI PUSH1 0x40 MLOAD PUSH3 0x461BCD PUSH1 0xE5 SHL DUP2 MSTORE PUSH1 0x20 PUSH1 0x4 DUP3 ADD MSTORE PUSH1 0x26 PUSH1 0x24 DUP3 ADD MSTORE PUSH32 0x4F776E61626C653A206E6577206F776E657220697320746865207A65726F2061 PUSH1 0x44 DUP3 ADD MSTORE PUSH6 0x646472657373 PUSH1 0xD0 SHL PUSH1 0x64 DUP3 ADD MSTORE PUSH1 0x84 ADD PUSH2 0x5F2 JUMP JUMPDEST PUSH2 0x1D7F DUP2 PUSH2 0x2688 JUMP JUMPDEST POP JUMP JUMPDEST PUSH1 0x0 DUP9 MLOAD GT PUSH2 0x1DD3 JUMPI PUSH1 0x40 MLOAD PUSH3 0x461BCD PUSH1 0xE5 SHL DUP2 MSTORE PUSH1 0x20 PUSH1 0x4 DUP3 ADD DUP2 SWAP1 MSTORE PUSH1 0x24 DUP3 ADD MSTORE PUSH32 0x4465726573793A205265766965776572732063616E6E6F74206265206E756C6C PUSH1 0x44 DUP3 ADD MSTORE PUSH1 0x64 ADD PUSH2 0x5F2 JUMP JUMPDEST PUSH1 0x0 DUP8 MLOAD GT PUSH2 0x1E30 JUMPI PUSH1 0x40 MLOAD PUSH3 0x461BCD PUSH1 0xE5 SHL DUP2 MSTORE PUSH1 0x20 PUSH1 0x4 DUP3 ADD MSTORE PUSH1 0x24 DUP1 DUP3 ADD MSTORE PUSH32 0x4465726573793A20487970657263657274204944732063616E6E6F7420626520 PUSH1 0x44 DUP3 ADD MSTORE PUSH4 0x1B9D5B1B PUSH1 0xE2 SHL PUSH1 0x64 DUP3 ADD MSTORE PUSH1 0x84 ADD PUSH2 0x5F2 JUMP JUMPDEST PUSH1 0x0 DUP7 MLOAD GT PUSH2 0x1E97 JUMPI PUSH1 0x40 MLOAD PUSH3 0x461BCD PUSH1 0xE5 SHL DUP2 MSTORE PUSH1 0x20 PUSH1 0x4 DUP3 ADD MSTORE PUSH1 0x2D PUSH1 0x24 DUP3 ADD MSTORE PUSH32 0x4465726573793A20487970657263657274732049504653206861736865732063 PUSH1 0x44 DUP3 ADD MSTORE PUSH13 0x185B9B9BDD081899481B9D5B1B PUSH1 0x9A SHL PUSH1 0x64 DUP3 ADD MSTORE PUSH1 0x84 ADD PUSH2 0x5F2 JUMP JUMPDEST DUP6 MLOAD DUP8 MLOAD EQ PUSH2 0x1F23 JUMPI PUSH1 0x40 MLOAD PUSH3 0x461BCD PUSH1 0xE5 SHL DUP2 MSTORE PUSH1 0x20 PUSH1 0x4 DUP3 ADD MSTORE PUSH1 0x4C PUSH1 0x24 DUP3 ADD MSTORE PUSH32 0x4465726573793A2048797065726365727449447320616E642048797065726365 PUSH1 0x44 DUP3 ADD MSTORE PUSH32 0x727449504653486173686573206172726179206D757374206861766520746865 PUSH1 0x64 DUP3 ADD MSTORE PUSH12 0x40E6C2DACA40D8CADCCEE8D PUSH1 0xA3 SHL PUSH1 0x84 DUP3 ADD MSTORE PUSH1 0xA4 ADD PUSH2 0x5F2 JUMP JUMPDEST PUSH1 0xA SLOAD PUSH2 0x1F32 SWAP1 PUSH1 0x1 SWAP1 PUSH2 0x414F JUMP JUMPDEST DUP4 GT ISZERO PUSH2 0x1F81 JUMPI PUSH1 0x40 MLOAD PUSH3 0x461BCD PUSH1 0xE5 SHL DUP2 MSTORE PUSH1 0x20 PUSH1 0x4 DUP3 ADD MSTORE PUSH1 0x1F PUSH1 0x24 DUP3 ADD MSTORE PUSH32 0x4465726573793A20526576696577466F726D496E64657820696E76616C696400 PUSH1 0x44 DUP3 ADD MSTORE PUSH1 0x64 ADD PUSH2 0x5F2 JUMP JUMPDEST PUSH1 0x0 PUSH1 0x1 PUSH1 0x1 PUSH1 0xA0 SHL SUB AND PUSH1 0x2 DUP11 PUSH1 0x40 MLOAD PUSH2 0x1F9C SWAP2 SWAP1 PUSH2 0x41BC JUMP JUMPDEST SWAP1 DUP2 MSTORE PUSH1 0x40 MLOAD SWAP1 DUP2 SWAP1 SUB PUSH1 0x20 ADD SWAP1 KECCAK256 SLOAD PUSH1 0x1 PUSH1 0x1 PUSH1 0xA0 SHL SUB AND EQ PUSH2 0x2002 JUMPI PUSH1 0x40 MLOAD PUSH3 0x461BCD PUSH1 0xE5 SHL DUP2 MSTORE PUSH1 0x20 PUSH1 0x4 DUP3 ADD MSTORE PUSH1 0x17 PUSH1 0x24 DUP3 ADD MSTORE PUSH32 0x4465726573793A204E616D65206475706C696361746564000000000000000000 PUSH1 0x44 DUP3 ADD MSTORE PUSH1 0x64 ADD PUSH2 0x5F2 JUMP JUMPDEST PUSH2 0x200B DUP3 PUSH2 0x14C0 JUMP JUMPDEST PUSH2 0x2057 JUMPI PUSH1 0x40 MLOAD PUSH3 0x461BCD PUSH1 0xE5 SHL DUP2 MSTORE PUSH1 0x20 PUSH1 0x4 DUP3 ADD DUP2 SWAP1 MSTORE PUSH1 0x24 DUP3 ADD MSTORE PUSH32 0x4465726573793A20546F6B656E206973206E6F742077686974656C6973746564 PUSH1 0x44 DUP3 ADD MSTORE PUSH1 0x64 ADD PUSH2 0x5F2 JUMP JUMPDEST PUSH1 0x0 DUP2 ISZERO PUSH2 0x2292 JUMPI PUSH1 0x0 DUP6 GT PUSH2 0x20E3 JUMPI PUSH1 0x40 MLOAD PUSH3 0x461BCD PUSH1 0xE5 SHL DUP2 MSTORE PUSH1 0x20 PUSH1 0x4 DUP3 ADD MSTORE PUSH1 0x45 PUSH1 0x24 DUP3 ADD MSTORE PUSH32 0x4465726573793A20726577617264506572526576696577206D75737420626520 PUSH1 0x44 DUP3 ADD MSTORE PUSH32 0x67726561746572207468616E207A65726F20666F722070617961626C65207265 PUSH1 0x64 DUP3 ADD MSTORE PUSH5 0x1C5D595CDD PUSH1 0xDA SHL PUSH1 0x84 DUP3 ADD MSTORE PUSH1 0xA4 ADD PUSH2 0x5F2 JUMP JUMPDEST PUSH1 0x1 PUSH1 0x1 PUSH1 0xA0 SHL SUB DUP4 AND PUSH2 0x2160 JUMPI DUP5 DUP9 MLOAD DUP11 MLOAD PUSH2 0x2100 SWAP2 SWAP1 PUSH2 0x426E JUMP JUMPDEST PUSH2 0x210A SWAP2 SWAP1 PUSH2 0x426E JUMP JUMPDEST CALLVALUE LT ISZERO PUSH2 0x2159 JUMPI PUSH1 0x40 MLOAD PUSH3 0x461BCD PUSH1 0xE5 SHL DUP2 MSTORE PUSH1 0x20 PUSH1 0x4 DUP3 ADD MSTORE PUSH1 0x19 PUSH1 0x24 DUP3 ADD MSTORE PUSH32 0x4465726573793A206D73672E76616C756520696E76616C696400000000000000 PUSH1 0x44 DUP3 ADD MSTORE PUSH1 0x64 ADD PUSH2 0x5F2 JUMP JUMPDEST POP CALLVALUE PUSH2 0x2306 JUMP JUMPDEST CALLVALUE ISZERO PUSH2 0x21AE JUMPI PUSH1 0x40 MLOAD PUSH3 0x461BCD PUSH1 0xE5 SHL DUP2 MSTORE PUSH1 0x20 PUSH1 0x4 DUP3 ADD MSTORE PUSH1 0x1C PUSH1 0x24 DUP3 ADD MSTORE PUSH32 0x4465726573793A206D73672E76616C756520697320696E76616C696400000000 PUSH1 0x44 DUP3 ADD MSTORE PUSH1 0x64 ADD PUSH2 0x5F2 JUMP JUMPDEST DUP5 DUP9 MLOAD DUP11 MLOAD PUSH2 0x21BD SWAP2 SWAP1 PUSH2 0x426E JUMP JUMPDEST PUSH2 0x21C7 SWAP2 SWAP1 PUSH2 0x426E JUMP JUMPDEST PUSH1 0x40 MLOAD PUSH4 0x23B872DD PUSH1 0xE0 SHL DUP2 MSTORE CALLER PUSH1 0x4 DUP3 ADD MSTORE ADDRESS PUSH1 0x24 DUP3 ADD MSTORE PUSH1 0x44 DUP2 ADD DUP3 SWAP1 MSTORE SWAP1 SWAP2 POP PUSH1 0x1 PUSH1 0x1 PUSH1 0xA0 SHL SUB DUP5 AND SWAP1 PUSH4 0x23B872DD SWAP1 PUSH1 0x64 ADD PUSH1 0x20 PUSH1 0x40 MLOAD DUP1 DUP4 SUB DUP2 PUSH1 0x0 DUP8 GAS CALL ISZERO DUP1 ISZERO PUSH2 0x221D JUMPI RETURNDATASIZE PUSH1 0x0 DUP1 RETURNDATACOPY RETURNDATASIZE PUSH1 0x0 REVERT JUMPDEST POP POP POP POP PUSH1 0x40 MLOAD RETURNDATASIZE PUSH1 0x1F NOT PUSH1 0x1F DUP3 ADD AND DUP3 ADD DUP1 PUSH1 0x40 MSTORE POP DUP2 ADD SWAP1 PUSH2 0x2241 SWAP2 SWAP1 PUSH2 0x4293 JUMP JUMPDEST PUSH2 0x228D JUMPI PUSH1 0x40 MLOAD PUSH3 0x461BCD PUSH1 0xE5 SHL DUP2 MSTORE PUSH1 0x20 PUSH1 0x4 DUP3 ADD MSTORE PUSH1 0x1D PUSH1 0x24 DUP3 ADD MSTORE PUSH32 0x4465726573793A20546F6B656E207472616E73666572206661696C6564000000 PUSH1 0x44 DUP3 ADD MSTORE PUSH1 0x64 ADD PUSH2 0x5F2 JUMP JUMPDEST PUSH2 0x2306 JUMP JUMPDEST DUP5 ISZERO PUSH2 0x2306 JUMPI PUSH1 0x40 MLOAD PUSH3 0x461BCD PUSH1 0xE5 SHL DUP2 MSTORE PUSH1 0x20 PUSH1 0x4 DUP3 ADD MSTORE PUSH1 0x3C PUSH1 0x24 DUP3 ADD MSTORE PUSH32 0x4465726573793A20726577617264506572526576696577206D75737420626520 PUSH1 0x44 DUP3 ADD MSTORE PUSH32 0x7A65726F20666F72206E6F6E2D70617961626C65207265717565737400000000 PUSH1 0x64 DUP3 ADD MSTORE PUSH1 0x84 ADD PUSH2 0x5F2 JUMP JUMPDEST CALLER PUSH1 0x2 DUP12 PUSH1 0x40 MLOAD PUSH2 0x2317 SWAP2 SWAP1 PUSH2 0x41BC JUMP JUMPDEST SWAP1 DUP2 MSTORE PUSH1 0x40 MLOAD SWAP1 DUP2 SWAP1 SUB PUSH1 0x20 ADD DUP2 KECCAK256 DUP1 SLOAD PUSH1 0x1 PUSH1 0x1 PUSH1 0xA0 SHL SUB SWAP4 SWAP1 SWAP4 AND PUSH1 0x1 PUSH1 0x1 PUSH1 0xA0 SHL SUB NOT SWAP1 SWAP4 AND SWAP3 SWAP1 SWAP3 OR SWAP1 SWAP2 SSTORE DUP10 SWAP1 PUSH1 0x2 SWAP1 PUSH2 0x2357 SWAP1 DUP14 SWAP1 PUSH2 0x41BC JUMP JUMPDEST SWAP1 DUP2 MSTORE PUSH1 0x20 ADD PUSH1 0x40 MLOAD DUP1 SWAP2 SUB SWAP1 KECCAK256 PUSH1 0x1 ADD SWAP1 DUP1 MLOAD SWAP1 PUSH1 0x20 ADD SWAP1 PUSH2 0x237B SWAP3 SWAP2 SWAP1 PUSH2 0x3566 JUMP JUMPDEST POP DUP8 PUSH1 0x2 DUP12 PUSH1 0x40 MLOAD PUSH2 0x238D SWAP2 SWAP1 PUSH2 0x41BC JUMP JUMPDEST SWAP1 DUP2 MSTORE PUSH1 0x20 ADD PUSH1 0x40 MLOAD DUP1 SWAP2 SUB SWAP1 KECCAK256 PUSH1 0x2 ADD SWAP1 DUP1 MLOAD SWAP1 PUSH1 0x20 ADD SWAP1 PUSH2 0x23B1 SWAP3 SWAP2 SWAP1 PUSH2 0x35BB JUMP JUMPDEST POP DUP7 PUSH1 0x2 DUP12 PUSH1 0x40 MLOAD PUSH2 0x23C3 SWAP2 SWAP1 PUSH2 0x41BC JUMP JUMPDEST SWAP1 DUP2 MSTORE PUSH1 0x20 ADD PUSH1 0x40 MLOAD DUP1 SWAP2 SUB SWAP1 KECCAK256 PUSH1 0x3 ADD SWAP1 DUP1 MLOAD SWAP1 PUSH1 0x20 ADD SWAP1 PUSH2 0x23E7 SWAP3 SWAP2 SWAP1 PUSH2 0x3407 JUMP JUMPDEST POP DUP6 PUSH1 0x2 DUP12 PUSH1 0x40 MLOAD PUSH2 0x23F9 SWAP2 SWAP1 PUSH2 0x41BC JUMP JUMPDEST SWAP1 DUP2 MSTORE PUSH1 0x20 ADD PUSH1 0x40 MLOAD DUP1 SWAP2 SUB SWAP1 KECCAK256 PUSH1 0x4 ADD SWAP1 DUP2 PUSH2 0x2416 SWAP2 SWAP1 PUSH2 0x42FB JUMP JUMPDEST POP DUP2 PUSH2 0x2423 JUMPI PUSH1 0x0 PUSH2 0x2425 JUMP JUMPDEST DUP5 JUMPDEST PUSH1 0x2 DUP12 PUSH1 0x40 MLOAD PUSH2 0x2435 SWAP2 SWAP1 PUSH2 0x41BC JUMP JUMPDEST SWAP1 DUP2 MSTORE PUSH1 0x20 ADD PUSH1 0x40 MLOAD DUP1 SWAP2 SUB SWAP1 KECCAK256 PUSH1 0x5 ADD DUP2 SWAP1 SSTORE POP PUSH1 0x0 PUSH1 0x2 DUP12 PUSH1 0x40 MLOAD PUSH2 0x245C SWAP2 SWAP1 PUSH2 0x41BC JUMP JUMPDEST SWAP1 DUP2 MSTORE PUSH1 0x40 MLOAD SWAP1 DUP2 SWAP1 SUB PUSH1 0x20 ADD DUP2 KECCAK256 PUSH1 0x7 ADD DUP1 SLOAD SWAP3 ISZERO ISZERO PUSH1 0xFF NOT SWAP1 SWAP4 AND SWAP3 SWAP1 SWAP3 OR SWAP1 SWAP2 SSTORE DUP4 SWAP1 PUSH1 0x2 SWAP1 PUSH2 0x2490 SWAP1 DUP14 SWAP1 PUSH2 0x41BC JUMP JUMPDEST SWAP1 DUP2 MSTORE PUSH1 0x20 ADD PUSH1 0x40 MLOAD DUP1 SWAP2 SUB SWAP1 KECCAK256 PUSH1 0x7 ADD PUSH1 0x1 PUSH2 0x100 EXP DUP2 SLOAD DUP2 PUSH1 0x1 PUSH1 0x1 PUSH1 0xA0 SHL SUB MUL NOT AND SWAP1 DUP4 PUSH1 0x1 PUSH1 0x1 PUSH1 0xA0 SHL SUB AND MUL OR SWAP1 SSTORE POP DUP2 PUSH2 0x24D1 JUMPI PUSH1 0x0 PUSH2 0x24D3 JUMP JUMPDEST DUP1 JUMPDEST PUSH1 0x2 DUP12 PUSH1 0x40 MLOAD PUSH2 0x24E3 SWAP2 SWAP1 PUSH2 0x41BC JUMP JUMPDEST SWAP1 DUP2 MSTORE PUSH1 0x20 ADD PUSH1 0x40 MLOAD DUP1 SWAP2 SUB SWAP1 KECCAK256 PUSH1 0x8 ADD DUP2 SWAP1 SSTORE POP DUP4 PUSH1 0x2 DUP12 PUSH1 0x40 MLOAD PUSH2 0x2509 SWAP2 SWAP1 PUSH2 0x41BC JUMP JUMPDEST SWAP1 DUP2 MSTORE PUSH1 0x40 MLOAD SWAP1 DUP2 SWAP1 SUB PUSH1 0x20 ADD SWAP1 KECCAK256 PUSH1 0x9 ADD SSTORE PUSH1 0x6 DUP1 SLOAD PUSH1 0x1 DUP2 ADD DUP3 SSTORE PUSH1 0x0 SWAP2 SWAP1 SWAP2 MSTORE PUSH32 0xF652222313E28459528D920B65115C16C04F3EFC82AAEDC97BE59F3F377C0D3F ADD PUSH2 0x2558 DUP12 DUP3 PUSH2 0x42FB JUMP JUMPDEST POP PUSH32 0x448FEABBF5BB385EB3EA2CB16D90B1CB3B4C8936E399CF7A10E7B8946EEC667 DUP11 PUSH1 0x40 MLOAD PUSH2 0x2588 SWAP2 SWAP1 PUSH2 0x3B89 JUMP JUMPDEST PUSH1 0x40 MLOAD DUP1 SWAP2 SUB SWAP1 LOG1 POP POP POP POP POP POP POP POP POP POP JUMP JUMPDEST PUSH1 0x0 SLOAD PUSH1 0x1 PUSH1 0x1 PUSH1 0xA0 SHL SUB AND CALLER EQ PUSH2 0xAEC JUMPI PUSH1 0x40 MLOAD PUSH3 0x461BCD PUSH1 0xE5 SHL DUP2 MSTORE PUSH1 0x20 PUSH1 0x4 DUP3 ADD DUP2 SWAP1 MSTORE PUSH1 0x24 DUP3 ADD MSTORE PUSH32 0x4F776E61626C653A2063616C6C6572206973206E6F7420746865206F776E6572 PUSH1 0x44 DUP3 ADD MSTORE PUSH1 0x64 ADD PUSH2 0x5F2 JUMP JUMPDEST PUSH1 0x60 PUSH1 0x0 PUSH2 0x2603 DUP4 PUSH2 0x278B JUMP JUMPDEST PUSH1 0x1 ADD SWAP1 POP PUSH1 0x0 DUP2 PUSH1 0x1 PUSH1 0x1 PUSH1 0x40 SHL SUB DUP2 GT ISZERO PUSH2 0x2622 JUMPI PUSH2 0x2622 PUSH2 0x369D JUMP JUMPDEST PUSH1 0x40 MLOAD SWAP1 DUP1 DUP3 MSTORE DUP1 PUSH1 0x1F ADD PUSH1 0x1F NOT AND PUSH1 0x20 ADD DUP3 ADD PUSH1 0x40 MSTORE DUP1 ISZERO PUSH2 0x264C JUMPI PUSH1 0x20 DUP3 ADD DUP2 DUP1 CALLDATASIZE DUP4 CALLDATACOPY ADD SWAP1 POP JUMPDEST POP SWAP1 POP DUP2 DUP2 ADD PUSH1 0x20 ADD JUMPDEST PUSH1 0x0 NOT ADD PUSH16 0x181899199A1A9B1B9C1CB0B131B232B3 PUSH1 0x81 SHL PUSH1 0xA DUP7 MOD BYTE DUP2 MSTORE8 PUSH1 0xA DUP6 DIV SWAP5 POP DUP5 PUSH2 0x2656 JUMPI POP SWAP4 SWAP3 POP POP POP JUMP JUMPDEST PUSH1 0x0 DUP1 SLOAD PUSH1 0x1 PUSH1 0x1 PUSH1 0xA0 SHL SUB DUP4 DUP2 AND PUSH1 0x1 PUSH1 0x1 PUSH1 0xA0 SHL SUB NOT DUP4 AND DUP2 OR DUP5 SSTORE PUSH1 0x40 MLOAD SWAP2 SWAP1 SWAP3 AND SWAP3 DUP4 SWAP2 PUSH32 0x8BE0079C531659141344CD1FD0A4F28419497F9722A3DAAFE3B4186F6B6457E0 SWAP2 SWAP1 LOG3 POP POP JUMP JUMPDEST CALLER PUSH1 0x1 PUSH1 0x1 PUSH1 0xA0 SHL SUB PUSH32 0x0 AND EQ PUSH2 0xAEC JUMPI PUSH1 0x40 MLOAD PUSH4 0x4CA88867 PUSH1 0xE0 SHL DUP2 MSTORE PUSH1 0x4 ADD PUSH1 0x40 MLOAD DUP1 SWAP2 SUB SWAP1 REVERT JUMPDEST PUSH1 0x1 JUMPDEST SWAP3 SWAP2 POP POP JUMP JUMPDEST PUSH1 0x9 SLOAD PUSH1 0x0 SWAP1 PUSH1 0xFF AND ISZERO PUSH2 0x2750 JUMPI PUSH1 0x40 MLOAD PUSH3 0x461BCD PUSH1 0xE5 SHL DUP2 MSTORE PUSH1 0x4 ADD PUSH2 0x5F2 SWAP1 PUSH2 0x40FA JUMP JUMPDEST PUSH1 0x3 SLOAD DUP4 PUSH1 0x20 ADD CALLDATALOAD SUB PUSH2 0x276D JUMPI PUSH2 0x2766 DUP4 PUSH2 0x2863 JUMP JUMPDEST SWAP1 POP PUSH2 0x2724 JUMP JUMPDEST PUSH1 0x4 SLOAD DUP4 PUSH1 0x20 ADD CALLDATALOAD SUB PUSH2 0x2783 JUMPI PUSH2 0x2766 DUP4 PUSH2 0x2CCA JUMP JUMPDEST POP PUSH1 0x0 PUSH2 0x2724 JUMP JUMPDEST PUSH1 0x0 DUP1 PUSH19 0x184F03E93FF9F4DAA797ED6E38ED64BF6A1F01 PUSH1 0x40 SHL DUP4 LT PUSH2 0x27CA JUMPI PUSH19 0x184F03E93FF9F4DAA797ED6E38ED64BF6A1F01 PUSH1 0x40 SHL DUP4 DIV SWAP3 POP PUSH1 0x40 ADD JUMPDEST PUSH14 0x4EE2D6D415B85ACEF8100000000 DUP4 LT PUSH2 0x27F6 JUMPI PUSH14 0x4EE2D6D415B85ACEF8100000000 DUP4 DIV SWAP3 POP PUSH1 0x20 ADD JUMPDEST PUSH7 0x2386F26FC10000 DUP4 LT PUSH2 0x2814 JUMPI PUSH7 0x2386F26FC10000 DUP4 DIV SWAP3 POP PUSH1 0x10 ADD JUMPDEST PUSH4 0x5F5E100 DUP4 LT PUSH2 0x282C JUMPI PUSH4 0x5F5E100 DUP4 DIV SWAP3 POP PUSH1 0x8 ADD JUMPDEST PUSH2 0x2710 DUP4 LT PUSH2 0x2840 JUMPI PUSH2 0x2710 DUP4 DIV SWAP3 POP PUSH1 0x4 ADD JUMPDEST PUSH1 0x64 DUP4 LT PUSH2 0x2852 JUMPI PUSH1 0x64 DUP4 DIV SWAP3 POP PUSH1 0x2 ADD JUMPDEST PUSH1 0xA DUP4 LT PUSH2 0x2724 JUMPI PUSH1 0x1 ADD SWAP3 SWAP2 POP POP JUMP JUMPDEST PUSH1 0x0 DUP1 DUP1 DUP1 PUSH2 0x2876 PUSH2 0x120 DUP7 ADD DUP7 PUSH2 0x43BA JUMP JUMPDEST DUP2 ADD SWAP1 PUSH2 0x2883 SWAP2 SWAP1 PUSH2 0x4400 JUMP JUMPDEST POP SWAP3 POP SWAP3 POP SWAP3 POP PUSH1 0x0 PUSH1 0x2 DUP5 PUSH1 0x40 MLOAD PUSH2 0x289C SWAP2 SWAP1 PUSH2 0x41BC JUMP JUMPDEST SWAP1 DUP2 MSTORE PUSH1 0x20 ADD PUSH1 0x40 MLOAD DUP1 SWAP2 SUB SWAP1 KECCAK256 SWAP1 POP PUSH1 0x0 PUSH1 0xA DUP3 PUSH1 0x9 ADD SLOAD DUP2 SLOAD DUP2 LT PUSH2 0x28C5 JUMPI PUSH2 0x28C5 PUSH2 0x4212 JUMP JUMPDEST PUSH1 0x0 SWAP2 DUP3 MSTORE PUSH1 0x20 DUP3 KECCAK256 PUSH1 0x4 SWAP1 SWAP2 MUL ADD SWAP2 POP PUSH2 0x28E7 PUSH2 0x100 DUP10 ADD PUSH1 0xE0 DUP11 ADD PUSH2 0x3BA3 JUMP JUMPDEST PUSH1 0x7 DUP5 ADD SLOAD SWAP1 SWAP2 POP DUP9 CALLDATALOAD SWAP1 PUSH1 0x0 SWAP1 PUSH1 0xFF AND ISZERO DUP1 ISZERO PUSH2 0x295C JUMPI POP PUSH2 0x295C DUP6 PUSH1 0x2 ADD DUP1 SLOAD DUP1 PUSH1 0x20 MUL PUSH1 0x20 ADD PUSH1 0x40 MLOAD SWAP1 DUP2 ADD PUSH1 0x40 MSTORE DUP1 SWAP3 SWAP2 SWAP1 DUP2 DUP2 MSTORE PUSH1 0x20 ADD DUP3 DUP1 SLOAD DUP1 ISZERO PUSH2 0x2951 JUMPI PUSH1 0x20 MUL DUP3 ADD SWAP2 SWAP1 PUSH1 0x0 MSTORE PUSH1 0x20 PUSH1 0x0 KECCAK256 SWAP1 JUMPDEST DUP2 SLOAD DUP2 MSTORE PUSH1 0x20 ADD SWAP1 PUSH1 0x1 ADD SWAP1 DUP1 DUP4 GT PUSH2 0x293D JUMPI JUMPDEST POP POP POP POP POP DUP9 PUSH2 0x2F33 JUMP JUMPDEST DUP1 ISZERO PUSH2 0x296C JUMPI POP DUP6 MLOAD PUSH1 0x1 DUP6 ADD SLOAD EQ JUMPDEST DUP1 ISZERO PUSH2 0x297D JUMPI POP PUSH2 0x297D DUP4 DUP10 PUSH2 0x2F86 JUMP JUMPDEST DUP1 ISZERO PUSH2 0x298F JUMPI POP PUSH2 0x298F DUP4 DUP10 DUP10 PUSH2 0x302A JUMP JUMPDEST DUP1 ISZERO PUSH2 0x29A0 JUMPI POP PUSH2 0x29A0 DUP5 DUP8 PUSH2 0x3124 JUMP JUMPDEST SWAP1 POP DUP1 ISZERO PUSH2 0x2CBD JUMPI DUP5 PUSH1 0x6 ADD PUSH1 0x40 MLOAD DUP1 PUSH1 0x80 ADD PUSH1 0x40 MSTORE DUP1 DUP6 PUSH1 0x1 PUSH1 0x1 PUSH1 0xA0 SHL SUB AND DUP2 MSTORE PUSH1 0x20 ADD DUP10 DUP2 MSTORE PUSH1 0x20 ADD DUP5 DUP2 MSTORE PUSH1 0x20 ADD PUSH1 0x0 PUSH1 0x1 PUSH1 0x1 PUSH1 0x40 SHL SUB DUP2 GT ISZERO PUSH2 0x29EB JUMPI PUSH2 0x29EB PUSH2 0x369D JUMP JUMPDEST PUSH1 0x40 MLOAD SWAP1 DUP1 DUP3 MSTORE DUP1 PUSH1 0x20 MUL PUSH1 0x20 ADD DUP3 ADD PUSH1 0x40 MSTORE DUP1 ISZERO PUSH2 0x2A14 JUMPI DUP2 PUSH1 0x20 ADD PUSH1 0x20 DUP3 MUL DUP1 CALLDATASIZE DUP4 CALLDATACOPY ADD SWAP1 POP JUMPDEST POP SWAP1 MSTORE DUP2 SLOAD PUSH1 0x1 DUP1 DUP3 ADD DUP5 SSTORE PUSH1 0x0 SWAP4 DUP5 MSTORE PUSH1 0x20 SWAP4 DUP5 SWAP1 KECCAK256 DUP4 MLOAD PUSH1 0x4 SWAP1 SWAP4 MUL ADD DUP1 SLOAD PUSH1 0x1 PUSH1 0x1 PUSH1 0xA0 SHL SUB NOT AND PUSH1 0x1 PUSH1 0x1 PUSH1 0xA0 SHL SUB SWAP1 SWAP4 AND SWAP3 SWAP1 SWAP3 OR DUP3 SSTORE DUP3 DUP5 ADD MLOAD SWAP1 DUP3 ADD SSTORE PUSH1 0x40 DUP3 ADD MLOAD PUSH1 0x2 DUP3 ADD SSTORE PUSH1 0x60 DUP3 ADD MLOAD DUP1 MLOAD SWAP3 SWAP4 SWAP2 SWAP3 PUSH2 0x2A7D SWAP3 PUSH1 0x3 DUP6 ADD SWAP3 ADD SWAP1 PUSH2 0x35BB JUMP JUMPDEST POP POP POP PUSH1 0x5 DUP6 ADD SLOAD ISZERO PUSH2 0x2BC4 JUMPI DUP5 PUSH1 0x5 ADD SLOAD DUP6 PUSH1 0x8 ADD PUSH1 0x0 DUP3 DUP3 SLOAD PUSH2 0x2AA2 SWAP2 SWAP1 PUSH2 0x414F JUMP JUMPDEST SWAP1 SWAP2 SSTORE POP POP PUSH1 0x7 DUP6 ADD SLOAD PUSH2 0x100 SWAP1 DIV PUSH1 0x1 PUSH1 0x1 PUSH1 0xA0 SHL SUB AND PUSH2 0x2AFD JUMPI PUSH1 0x5 DUP6 ADD SLOAD PUSH1 0x40 MLOAD PUSH1 0x1 PUSH1 0x1 PUSH1 0xA0 SHL SUB DUP6 AND SWAP2 DUP1 ISZERO PUSH2 0x8FC MUL SWAP2 PUSH1 0x0 DUP2 DUP2 DUP2 DUP6 DUP9 DUP9 CALL SWAP4 POP POP POP POP ISZERO DUP1 ISZERO PUSH2 0x2AF7 JUMPI RETURNDATASIZE PUSH1 0x0 DUP1 RETURNDATACOPY RETURNDATASIZE PUSH1 0x0 REVERT JUMPDEST POP PUSH2 0x2BC4 JUMP JUMPDEST PUSH1 0x7 DUP6 ADD SLOAD PUSH1 0x5 DUP7 ADD SLOAD PUSH1 0x40 MLOAD PUSH4 0xA9059CBB PUSH1 0xE0 SHL DUP2 MSTORE PUSH1 0x1 PUSH1 0x1 PUSH1 0xA0 SHL SUB DUP7 DUP2 AND PUSH1 0x4 DUP4 ADD MSTORE PUSH1 0x24 DUP3 ADD SWAP3 SWAP1 SWAP3 MSTORE PUSH2 0x100 SWAP1 SWAP3 DIV AND SWAP1 PUSH4 0xA9059CBB SWAP1 PUSH1 0x44 ADD PUSH1 0x20 PUSH1 0x40 MLOAD DUP1 DUP4 SUB DUP2 PUSH1 0x0 DUP8 GAS CALL ISZERO DUP1 ISZERO PUSH2 0x2B5C JUMPI RETURNDATASIZE PUSH1 0x0 DUP1 RETURNDATACOPY RETURNDATASIZE PUSH1 0x0 REVERT JUMPDEST POP POP POP POP PUSH1 0x40 MLOAD RETURNDATASIZE PUSH1 0x1F NOT PUSH1 0x1F DUP3 ADD AND DUP3 ADD DUP1 PUSH1 0x40 MSTORE POP DUP2 ADD SWAP1 PUSH2 0x2B80 SWAP2 SWAP1 PUSH2 0x4293 JUMP JUMPDEST PUSH2 0x2BC4 JUMPI PUSH1 0x40 MLOAD PUSH3 0x461BCD PUSH1 0xE5 SHL DUP2 MSTORE PUSH1 0x20 PUSH1 0x4 DUP3 ADD MSTORE PUSH1 0x15 PUSH1 0x24 DUP3 ADD MSTORE PUSH21 0x151BDAD95B881D1C985B9CD9995C8819985A5B1959 PUSH1 0x5A SHL PUSH1 0x44 DUP3 ADD MSTORE PUSH1 0x64 ADD PUSH2 0x5F2 JUMP JUMPDEST PUSH1 0x1 SLOAD PUSH1 0x1 PUSH1 0x1 PUSH1 0xA0 SHL SUB AND ISZERO PUSH2 0x2C85 JUMPI PUSH1 0x1 SLOAD PUSH1 0x40 MLOAD PUSH4 0xBB69AB33 PUSH1 0xE0 SHL DUP2 MSTORE PUSH1 0x1 PUSH1 0x1 PUSH1 0xA0 SHL SUB SWAP1 SWAP2 AND SWAP1 PUSH4 0xBB69AB33 SWAP1 PUSH2 0x2C07 SWAP1 DUP14 SWAP1 DUP13 SWAP1 PUSH1 0x4 ADD PUSH2 0x4515 JUMP JUMPDEST PUSH1 0x20 PUSH1 0x40 MLOAD DUP1 DUP4 SUB DUP2 PUSH1 0x0 DUP8 GAS CALL ISZERO DUP1 ISZERO PUSH2 0x2C26 JUMPI RETURNDATASIZE PUSH1 0x0 DUP1 RETURNDATACOPY RETURNDATASIZE PUSH1 0x0 REVERT JUMPDEST POP POP POP POP PUSH1 0x40 MLOAD RETURNDATASIZE PUSH1 0x1F NOT PUSH1 0x1F DUP3 ADD AND DUP3 ADD DUP1 PUSH1 0x40 MSTORE POP DUP2 ADD SWAP1 PUSH2 0x2C4A SWAP2 SWAP1 PUSH2 0x4293 JUMP JUMPDEST POP PUSH32 0x253A8677ADAEC417DAE20224E9F7EB1182AED5A01B1938114CB310CD5C5D954D DUP11 DUP10 PUSH1 0x40 MLOAD PUSH2 0x2C7C SWAP3 SWAP2 SWAP1 PUSH2 0x4515 JUMP JUMPDEST PUSH1 0x40 MLOAD DUP1 SWAP2 SUB SWAP1 LOG1 JUMPDEST PUSH32 0x4D6DD501DF538F815F442947C933FC2F545525E75F909B918A6D0701ACC7904C DUP9 PUSH1 0x40 MLOAD PUSH2 0x2CB4 SWAP2 SWAP1 PUSH2 0x3B89 JUMP JUMPDEST PUSH1 0x40 MLOAD DUP1 SWAP2 SUB SWAP1 LOG1 JUMPDEST SWAP10 SWAP9 POP POP POP POP POP POP POP POP POP JUMP JUMPDEST PUSH1 0x0 DUP1 DUP1 DUP1 PUSH2 0x2CDD PUSH2 0x120 DUP7 ADD DUP7 PUSH2 0x43BA JUMP JUMPDEST DUP2 ADD SWAP1 PUSH2 0x2CEA SWAP2 SWAP1 PUSH2 0x4632 JUMP JUMPDEST SWAP3 POP SWAP3 POP SWAP3 POP PUSH1 0x0 PUSH1 0x2 DUP5 PUSH1 0x40 MLOAD PUSH2 0x2D02 SWAP2 SWAP1 PUSH2 0x41BC JUMP JUMPDEST SWAP1 DUP2 MSTORE PUSH1 0x40 MLOAD SWAP1 DUP2 SWAP1 SUB PUSH1 0x20 ADD SWAP1 KECCAK256 PUSH1 0x6 DUP2 ADD SLOAD SWAP1 SWAP2 POP ISZERO PUSH2 0x2F27 JUMPI PUSH1 0x0 JUMPDEST PUSH1 0x6 DUP3 ADD SLOAD DUP2 LT ISZERO PUSH2 0x2F25 JUMPI DUP7 PUSH1 0xA0 ADD CALLDATALOAD DUP3 PUSH1 0x6 ADD DUP3 DUP2 SLOAD DUP2 LT PUSH2 0x2D47 JUMPI PUSH2 0x2D47 PUSH2 0x4212 JUMP JUMPDEST SWAP1 PUSH1 0x0 MSTORE PUSH1 0x20 PUSH1 0x0 KECCAK256 SWAP1 PUSH1 0x4 MUL ADD PUSH1 0x2 ADD SLOAD EQ DUP1 ISZERO PUSH2 0x2DAC JUMPI POP PUSH2 0x2D72 PUSH2 0x100 DUP9 ADD PUSH1 0xE0 DUP10 ADD PUSH2 0x3BA3 JUMP JUMPDEST PUSH1 0x1 PUSH1 0x1 PUSH1 0xA0 SHL SUB AND DUP3 PUSH1 0x6 ADD DUP3 DUP2 SLOAD DUP2 LT PUSH2 0x2D90 JUMPI PUSH2 0x2D90 PUSH2 0x4212 JUMP JUMPDEST PUSH1 0x0 SWAP2 DUP3 MSTORE PUSH1 0x20 SWAP1 SWAP2 KECCAK256 PUSH1 0x4 SWAP1 SWAP2 MUL ADD SLOAD PUSH1 0x1 PUSH1 0x1 PUSH1 0xA0 SHL SUB AND EQ JUMPDEST DUP1 ISZERO PUSH2 0x2DB9 JUMPI POP PUSH1 0x0 DUP4 MLOAD GT JUMPDEST DUP1 ISZERO PUSH2 0x2DEA JUMPI POP DUP4 DUP3 PUSH1 0x6 ADD DUP3 DUP2 SLOAD DUP2 LT PUSH2 0x2DD6 JUMPI PUSH2 0x2DD6 PUSH2 0x4212 JUMP JUMPDEST SWAP1 PUSH1 0x0 MSTORE PUSH1 0x20 PUSH1 0x0 KECCAK256 SWAP1 PUSH1 0x4 MUL ADD PUSH1 0x1 ADD SLOAD EQ JUMPDEST ISZERO PUSH2 0x2F13 JUMPI PUSH1 0x0 DUP1 JUMPDEST DUP4 PUSH1 0x6 ADD DUP4 DUP2 SLOAD DUP2 LT PUSH2 0x2E08 JUMPI PUSH2 0x2E08 PUSH2 0x4212 JUMP JUMPDEST SWAP1 PUSH1 0x0 MSTORE PUSH1 0x20 PUSH1 0x0 KECCAK256 SWAP1 PUSH1 0x4 MUL ADD PUSH1 0x3 ADD DUP1 SLOAD SWAP1 POP DUP2 LT ISZERO PUSH2 0x2E8B JUMPI DUP9 PUSH1 0x0 ADD CALLDATALOAD DUP5 PUSH1 0x6 ADD DUP5 DUP2 SLOAD DUP2 LT PUSH2 0x2E3E JUMPI PUSH2 0x2E3E PUSH2 0x4212 JUMP JUMPDEST SWAP1 PUSH1 0x0 MSTORE PUSH1 0x20 PUSH1 0x0 KECCAK256 SWAP1 PUSH1 0x4 MUL ADD PUSH1 0x3 ADD DUP3 DUP2 SLOAD DUP2 LT PUSH2 0x2E60 JUMPI PUSH2 0x2E60 PUSH2 0x4212 JUMP JUMPDEST SWAP1 PUSH1 0x0 MSTORE PUSH1 0x20 PUSH1 0x0 KECCAK256 ADD SLOAD SUB PUSH2 0x2E79 JUMPI PUSH1 0x1 SWAP2 POP PUSH2 0x2E8B JUMP JUMPDEST DUP1 PUSH2 0x2E83 DUP2 PUSH2 0x423F JUMP JUMPDEST SWAP2 POP POP PUSH2 0x2DF3 JUMP JUMPDEST POP DUP1 PUSH2 0x2F11 JUMPI DUP3 PUSH1 0x6 ADD DUP3 DUP2 SLOAD DUP2 LT PUSH2 0x2EA6 JUMPI PUSH2 0x2EA6 PUSH2 0x4212 JUMP JUMPDEST PUSH1 0x0 SWAP2 DUP3 MSTORE PUSH1 0x20 DUP1 DUP4 KECCAK256 PUSH1 0x4 SWAP3 SWAP1 SWAP3 MUL SWAP1 SWAP2 ADD PUSH1 0x3 ADD DUP1 SLOAD PUSH1 0x1 DUP2 ADD DUP3 SSTORE SWAP1 DUP4 MSTORE SWAP2 DUP2 SWAP1 KECCAK256 DUP11 CALLDATALOAD SWAP3 ADD DUP3 SWAP1 SSTORE PUSH1 0x40 MLOAD SWAP2 DUP3 MSTORE PUSH32 0xEE28E94AC55844F79E4A8805659E8F6DED6BFE24B7EBE0570DEB71C158EC9433 SWAP2 ADD PUSH1 0x40 MLOAD DUP1 SWAP2 SUB SWAP1 LOG1 POP PUSH1 0x1 SWAP8 SWAP7 POP POP POP POP POP POP POP JUMP JUMPDEST POP JUMPDEST DUP1 PUSH2 0x2F1D DUP2 PUSH2 0x423F JUMP JUMPDEST SWAP2 POP POP PUSH2 0x2D21 JUMP JUMPDEST POP JUMPDEST POP PUSH1 0x0 SWAP6 SWAP5 POP POP POP POP POP JUMP JUMPDEST PUSH1 0x0 DUP1 JUMPDEST DUP4 MLOAD DUP2 LT ISZERO PUSH2 0x2F7C JUMPI DUP3 DUP5 DUP3 DUP2 MLOAD DUP2 LT PUSH2 0x2F53 JUMPI PUSH2 0x2F53 PUSH2 0x4212 JUMP JUMPDEST PUSH1 0x20 MUL PUSH1 0x20 ADD ADD MLOAD SUB PUSH2 0x2F6A JUMPI PUSH1 0x1 SWAP2 POP POP PUSH2 0x2724 JUMP JUMPDEST DUP1 PUSH2 0x2F74 DUP2 PUSH2 0x423F JUMP JUMPDEST SWAP2 POP POP PUSH2 0x2F37 JUMP JUMPDEST POP PUSH1 0x0 SWAP4 SWAP3 POP POP POP JUMP JUMPDEST PUSH1 0x0 DUP1 DUP1 JUMPDEST PUSH1 0x2 DUP5 PUSH1 0x40 MLOAD PUSH2 0x2F9B SWAP2 SWAP1 PUSH2 0x41BC JUMP JUMPDEST SWAP1 DUP2 MSTORE PUSH1 0x40 MLOAD SWAP1 DUP2 SWAP1 SUB PUSH1 0x20 ADD SWAP1 KECCAK256 PUSH1 0x1 ADD SLOAD DUP2 LT ISZERO PUSH2 0x3022 JUMPI DUP5 PUSH1 0x1 PUSH1 0x1 PUSH1 0xA0 SHL SUB AND PUSH1 0x2 DUP6 PUSH1 0x40 MLOAD PUSH2 0x2FCF SWAP2 SWAP1 PUSH2 0x41BC JUMP JUMPDEST SWAP1 DUP2 MSTORE PUSH1 0x20 ADD PUSH1 0x40 MLOAD DUP1 SWAP2 SUB SWAP1 KECCAK256 PUSH1 0x1 ADD DUP3 DUP2 SLOAD DUP2 LT PUSH2 0x2FF1 JUMPI PUSH2 0x2FF1 PUSH2 0x4212 JUMP JUMPDEST PUSH1 0x0 SWAP2 DUP3 MSTORE PUSH1 0x20 SWAP1 SWAP2 KECCAK256 ADD SLOAD PUSH1 0x1 PUSH1 0x1 PUSH1 0xA0 SHL SUB AND SUB PUSH2 0x3010 JUMPI PUSH1 0x1 SWAP2 POP JUMPDEST DUP1 PUSH2 0x301A DUP2 PUSH2 0x423F JUMP JUMPDEST SWAP2 POP POP PUSH2 0x2F8B JUMP JUMPDEST POP SWAP4 SWAP3 POP POP POP JUMP JUMPDEST PUSH1 0x0 PUSH1 0x1 DUP2 JUMPDEST PUSH1 0x2 DUP6 PUSH1 0x40 MLOAD PUSH2 0x3040 SWAP2 SWAP1 PUSH2 0x41BC JUMP JUMPDEST SWAP1 DUP2 MSTORE PUSH1 0x40 MLOAD SWAP1 DUP2 SWAP1 SUB PUSH1 0x20 ADD SWAP1 KECCAK256 PUSH1 0x6 ADD SLOAD DUP2 LT ISZERO PUSH2 0x311B JUMPI DUP4 PUSH1 0x2 DUP7 PUSH1 0x40 MLOAD PUSH2 0x306B SWAP2 SWAP1 PUSH2 0x41BC JUMP JUMPDEST SWAP1 DUP2 MSTORE PUSH1 0x20 ADD PUSH1 0x40 MLOAD DUP1 SWAP2 SUB SWAP1 KECCAK256 PUSH1 0x6 ADD DUP3 DUP2 SLOAD DUP2 LT PUSH2 0x308D JUMPI PUSH2 0x308D PUSH2 0x4212 JUMP JUMPDEST SWAP1 PUSH1 0x0 MSTORE PUSH1 0x20 PUSH1 0x0 KECCAK256 SWAP1 PUSH1 0x4 MUL ADD PUSH1 0x1 ADD SLOAD EQ DUP1 ISZERO PUSH2 0x30FF JUMPI POP DUP6 PUSH1 0x1 PUSH1 0x1 PUSH1 0xA0 SHL SUB AND PUSH1 0x2 DUP7 PUSH1 0x40 MLOAD PUSH2 0x30C1 SWAP2 SWAP1 PUSH2 0x41BC JUMP JUMPDEST SWAP1 DUP2 MSTORE PUSH1 0x20 ADD PUSH1 0x40 MLOAD DUP1 SWAP2 SUB SWAP1 KECCAK256 PUSH1 0x6 ADD DUP3 DUP2 SLOAD DUP2 LT PUSH2 0x30E3 JUMPI PUSH2 0x30E3 PUSH2 0x4212 JUMP JUMPDEST PUSH1 0x0 SWAP2 DUP3 MSTORE PUSH1 0x20 SWAP1 SWAP2 KECCAK256 PUSH1 0x4 SWAP1 SWAP2 MUL ADD SLOAD PUSH1 0x1 PUSH1 0x1 PUSH1 0xA0 SHL SUB AND EQ JUMPDEST ISZERO PUSH2 0x3109 JUMPI PUSH1 0x0 SWAP2 POP JUMPDEST DUP1 PUSH2 0x3113 DUP2 PUSH2 0x423F JUMP JUMPDEST SWAP2 POP POP PUSH2 0x3030 JUMP JUMPDEST POP SWAP5 SWAP4 POP POP POP POP JUMP JUMPDEST PUSH1 0x0 DUP1 JUMPDEST DUP3 MLOAD DUP2 LT ISZERO PUSH2 0x33FD JUMPI PUSH1 0x2 DUP5 PUSH1 0x2 ADD DUP3 DUP2 SLOAD DUP2 LT PUSH2 0x3148 JUMPI PUSH2 0x3148 PUSH2 0x4212 JUMP JUMPDEST SWAP1 PUSH1 0x0 MSTORE PUSH1 0x20 PUSH1 0x0 KECCAK256 SWAP1 PUSH1 0x20 SWAP2 DUP3 DUP3 DIV ADD SWAP2 SWAP1 MOD SWAP1 SLOAD SWAP1 PUSH2 0x100 EXP SWAP1 DIV PUSH1 0xFF AND PUSH1 0x2 DUP2 GT ISZERO PUSH2 0x3179 JUMPI PUSH2 0x3179 PUSH2 0x3FAB JUMP JUMPDEST SUB PUSH2 0x3281 JUMPI PUSH1 0x0 DUP1 JUMPDEST DUP6 PUSH1 0x3 ADD DUP4 DUP2 SLOAD DUP2 LT PUSH2 0x3197 JUMPI PUSH2 0x3197 PUSH2 0x4212 JUMP JUMPDEST PUSH1 0x0 SWAP2 DUP3 MSTORE PUSH1 0x20 SWAP1 SWAP2 KECCAK256 ADD SLOAD DUP2 LT ISZERO PUSH2 0x326A JUMPI DUP5 DUP4 DUP2 MLOAD DUP2 LT PUSH2 0x31BC JUMPI PUSH2 0x31BC PUSH2 0x4212 JUMP JUMPDEST PUSH1 0x20 MUL PUSH1 0x20 ADD ADD MLOAD PUSH1 0x40 MLOAD PUSH1 0x20 ADD PUSH2 0x31D4 SWAP2 SWAP1 PUSH2 0x41BC JUMP JUMPDEST PUSH1 0x40 MLOAD PUSH1 0x20 DUP2 DUP4 SUB SUB DUP2 MSTORE SWAP1 PUSH1 0x40 MSTORE DUP1 MLOAD SWAP1 PUSH1 0x20 ADD KECCAK256 DUP7 PUSH1 0x3 ADD DUP5 DUP2 SLOAD DUP2 LT PUSH2 0x31FF JUMPI PUSH2 0x31FF PUSH2 0x4212 JUMP JUMPDEST SWAP1 PUSH1 0x0 MSTORE PUSH1 0x20 PUSH1 0x0 KECCAK256 ADD DUP3 DUP2 SLOAD DUP2 LT PUSH2 0x321A JUMPI PUSH2 0x321A PUSH2 0x4212 JUMP JUMPDEST SWAP1 PUSH1 0x0 MSTORE PUSH1 0x20 PUSH1 0x0 KECCAK256 ADD PUSH1 0x40 MLOAD PUSH1 0x20 ADD PUSH2 0x3234 SWAP2 SWAP1 PUSH2 0x469E JUMP JUMPDEST PUSH1 0x40 MLOAD PUSH1 0x20 DUP2 DUP4 SUB SUB DUP2 MSTORE SWAP1 PUSH1 0x40 MSTORE DUP1 MLOAD SWAP1 PUSH1 0x20 ADD KECCAK256 SUB PUSH2 0x3258 JUMPI PUSH1 0x1 SWAP2 POP PUSH2 0x326A JUMP JUMPDEST DUP1 PUSH2 0x3262 DUP2 PUSH2 0x423F JUMP JUMPDEST SWAP2 POP POP PUSH2 0x3182 JUMP JUMPDEST POP DUP1 PUSH2 0x327B JUMPI PUSH1 0x0 SWAP3 POP POP POP PUSH2 0x2724 JUMP JUMPDEST POP PUSH2 0x33EB JUMP JUMPDEST PUSH1 0x1 DUP5 PUSH1 0x2 ADD DUP3 DUP2 SLOAD DUP2 LT PUSH2 0x3298 JUMPI PUSH2 0x3298 PUSH2 0x4212 JUMP JUMPDEST SWAP1 PUSH1 0x0 MSTORE PUSH1 0x20 PUSH1 0x0 KECCAK256 SWAP1 PUSH1 0x20 SWAP2 DUP3 DUP3 DIV ADD SWAP2 SWAP1 MOD SWAP1 SLOAD SWAP1 PUSH2 0x100 EXP SWAP1 DIV PUSH1 0xFF AND PUSH1 0x2 DUP2 GT ISZERO PUSH2 0x32C9 JUMPI PUSH2 0x32C9 PUSH2 0x3FAB JUMP JUMPDEST SUB PUSH2 0x33BF JUMPI PUSH1 0x40 MLOAD PUSH3 0x596573 PUSH1 0xE8 SHL PUSH1 0x20 DUP3 ADD MSTORE PUSH1 0x23 ADD PUSH1 0x40 MLOAD PUSH1 0x20 DUP2 DUP4 SUB SUB DUP2 MSTORE SWAP1 PUSH1 0x40 MSTORE DUP1 MLOAD SWAP1 PUSH1 0x20 ADD KECCAK256 DUP4 DUP3 DUP2 MLOAD DUP2 LT PUSH2 0x3308 JUMPI PUSH2 0x3308 PUSH2 0x4212 JUMP JUMPDEST PUSH1 0x20 MUL PUSH1 0x20 ADD ADD MLOAD PUSH1 0x40 MLOAD PUSH1 0x20 ADD PUSH2 0x3320 SWAP2 SWAP1 PUSH2 0x41BC JUMP JUMPDEST PUSH1 0x40 MLOAD PUSH1 0x20 DUP2 DUP4 SUB SUB DUP2 MSTORE SWAP1 PUSH1 0x40 MSTORE DUP1 MLOAD SWAP1 PUSH1 0x20 ADD KECCAK256 EQ DUP1 PUSH2 0x33A6 JUMPI POP PUSH1 0x40 MLOAD PUSH2 0x4E6F PUSH1 0xF0 SHL PUSH1 0x20 DUP3 ADD MSTORE PUSH1 0x22 ADD PUSH1 0x40 MLOAD PUSH1 0x20 DUP2 DUP4 SUB SUB DUP2 MSTORE SWAP1 PUSH1 0x40 MSTORE DUP1 MLOAD SWAP1 PUSH1 0x20 ADD KECCAK256 DUP4 DUP3 DUP2 MLOAD DUP2 LT PUSH2 0x3376 JUMPI PUSH2 0x3376 PUSH2 0x4212 JUMP JUMPDEST PUSH1 0x20 MUL PUSH1 0x20 ADD ADD MLOAD PUSH1 0x40 MLOAD PUSH1 0x20 ADD PUSH2 0x338E SWAP2 SWAP1 PUSH2 0x41BC JUMP JUMPDEST PUSH1 0x40 MLOAD PUSH1 0x20 DUP2 DUP4 SUB SUB DUP2 MSTORE SWAP1 PUSH1 0x40 MSTORE DUP1 MLOAD SWAP1 PUSH1 0x20 ADD KECCAK256 EQ JUMPDEST ISZERO PUSH2 0x33B5 JUMPI PUSH1 0x1 SWAP2 POP POP PUSH2 0x2724 JUMP JUMPDEST PUSH1 0x0 SWAP2 POP POP PUSH2 0x2724 JUMP JUMPDEST DUP3 DUP2 DUP2 MLOAD DUP2 LT PUSH2 0x33D1 JUMPI PUSH2 0x33D1 PUSH2 0x4212 JUMP JUMPDEST PUSH1 0x20 MUL PUSH1 0x20 ADD ADD MLOAD MLOAD PUSH1 0x0 SUB PUSH2 0x33EB JUMPI PUSH1 0x0 SWAP2 POP POP PUSH2 0x2724 JUMP JUMPDEST DUP1 PUSH2 0x33F5 DUP2 PUSH2 0x423F JUMP JUMPDEST SWAP2 POP POP PUSH2 0x3128 JUMP JUMPDEST POP PUSH1 0x1 SWAP4 SWAP3 POP POP POP JUMP JUMPDEST DUP3 DUP1 SLOAD DUP3 DUP3 SSTORE SWAP1 PUSH1 0x0 MSTORE PUSH1 0x20 PUSH1 0x0 KECCAK256 SWAP1 DUP2 ADD SWAP3 DUP3 ISZERO PUSH2 0x344D JUMPI SWAP2 PUSH1 0x20 MUL DUP3 ADD JUMPDEST DUP3 DUP2 GT ISZERO PUSH2 0x344D JUMPI DUP3 MLOAD DUP3 SWAP1 PUSH2 0x343D SWAP1 DUP3 PUSH2 0x42FB JUMP JUMPDEST POP SWAP2 PUSH1 0x20 ADD SWAP2 SWAP1 PUSH1 0x1 ADD SWAP1 PUSH2 0x3427 JUMP JUMPDEST POP PUSH2 0x3459 SWAP3 SWAP2 POP PUSH2 0x35F6 JUMP JUMPDEST POP SWAP1 JUMP JUMPDEST DUP3 DUP1 SLOAD DUP3 DUP3 SSTORE SWAP1 PUSH1 0x0 MSTORE PUSH1 0x20 PUSH1 0x0 KECCAK256 SWAP1 PUSH1 0x1F ADD PUSH1 0x20 SWAP1 DIV DUP2 ADD SWAP3 DUP3 ISZERO PUSH2 0x3501 JUMPI SWAP2 PUSH1 0x20 MUL DUP3 ADD PUSH1 0x0 JUMPDEST DUP4 DUP3 GT ISZERO PUSH2 0x34D2 JUMPI DUP4 MLOAD DUP4 DUP3 PUSH2 0x100 EXP DUP2 SLOAD DUP2 PUSH1 0xFF MUL NOT AND SWAP1 DUP4 PUSH1 0x2 DUP2 GT ISZERO PUSH2 0x34B1 JUMPI PUSH2 0x34B1 PUSH2 0x3FAB JUMP JUMPDEST MUL OR SWAP1 SSTORE POP SWAP3 PUSH1 0x20 ADD SWAP3 PUSH1 0x1 ADD PUSH1 0x20 DUP2 PUSH1 0x0 ADD DIV SWAP3 DUP4 ADD SWAP3 PUSH1 0x1 SUB MUL PUSH2 0x3486 JUMP JUMPDEST DUP1 ISZERO PUSH2 0x34FF JUMPI DUP3 DUP2 PUSH2 0x100 EXP DUP2 SLOAD SWAP1 PUSH1 0xFF MUL NOT AND SWAP1 SSTORE PUSH1 0x1 ADD PUSH1 0x20 DUP2 PUSH1 0x0 ADD DIV SWAP3 DUP4 ADD SWAP3 PUSH1 0x1 SUB MUL PUSH2 0x34D2 JUMP JUMPDEST POP JUMPDEST POP PUSH2 0x3459 SWAP3 SWAP2 POP PUSH2 0x3613 JUMP JUMPDEST DUP3 DUP1 SLOAD DUP3 DUP3 SSTORE SWAP1 PUSH1 0x0 MSTORE PUSH1 0x20 PUSH1 0x0 KECCAK256 SWAP1 DUP2 ADD SWAP3 DUP3 ISZERO PUSH2 0x355A JUMPI SWAP2 PUSH1 0x20 MUL DUP3 ADD JUMPDEST DUP3 DUP2 GT ISZERO PUSH2 0x355A JUMPI DUP3 MLOAD DUP1 MLOAD PUSH2 0x354A SWAP2 DUP5 SWAP2 PUSH1 0x20 SWAP1 SWAP2 ADD SWAP1 PUSH2 0x3407 JUMP JUMPDEST POP SWAP2 PUSH1 0x20 ADD SWAP2 SWAP1 PUSH1 0x1 ADD SWAP1 PUSH2 0x352D JUMP JUMPDEST POP PUSH2 0x3459 SWAP3 SWAP2 POP PUSH2 0x3628 JUMP JUMPDEST DUP3 DUP1 SLOAD DUP3 DUP3 SSTORE SWAP1 PUSH1 0x0 MSTORE PUSH1 0x20 PUSH1 0x0 KECCAK256 SWAP1 DUP2 ADD SWAP3 DUP3 ISZERO PUSH2 0x3501 JUMPI SWAP2 PUSH1 0x20 MUL DUP3 ADD JUMPDEST DUP3 DUP2 GT ISZERO PUSH2 0x3501 JUMPI DUP3 MLOAD DUP3 SLOAD PUSH1 0x1 PUSH1 0x1 PUSH1 0xA0 SHL SUB NOT AND PUSH1 0x1 PUSH1 0x1 PUSH1 0xA0 SHL SUB SWAP1 SWAP2 AND OR DUP3 SSTORE PUSH1 0x20 SWAP1 SWAP3 ADD SWAP2 PUSH1 0x1 SWAP1 SWAP2 ADD SWAP1 PUSH2 0x3586 JUMP JUMPDEST DUP3 DUP1 SLOAD DUP3 DUP3 SSTORE SWAP1 PUSH1 0x0 MSTORE PUSH1 0x20 PUSH1 0x0 KECCAK256 SWAP1 DUP2 ADD SWAP3 DUP3 ISZERO PUSH2 0x3501 JUMPI SWAP2 PUSH1 0x20 MUL DUP3 ADD JUMPDEST DUP3 DUP2 GT ISZERO PUSH2 0x3501 JUMPI DUP3 MLOAD DUP3 SSTORE SWAP2 PUSH1 0x20 ADD SWAP2 SWAP1 PUSH1 0x1 ADD SWAP1 PUSH2 0x35DB JUMP JUMPDEST DUP1 DUP3 GT ISZERO PUSH2 0x3459 JUMPI PUSH1 0x0 PUSH2 0x360A DUP3 DUP3 PUSH2 0x3645 JUMP JUMPDEST POP PUSH1 0x1 ADD PUSH2 0x35F6 JUMP JUMPDEST JUMPDEST DUP1 DUP3 GT ISZERO PUSH2 0x3459 JUMPI PUSH1 0x0 DUP2 SSTORE PUSH1 0x1 ADD PUSH2 0x3614 JUMP JUMPDEST DUP1 DUP3 GT ISZERO PUSH2 0x3459 JUMPI PUSH1 0x0 PUSH2 0x363C DUP3 DUP3 PUSH2 0x367F JUMP JUMPDEST POP PUSH1 0x1 ADD PUSH2 0x3628 JUMP JUMPDEST POP DUP1 SLOAD PUSH2 0x3651 SWAP1 PUSH2 0x41D8 JUMP JUMPDEST PUSH1 0x0 DUP3 SSTORE DUP1 PUSH1 0x1F LT PUSH2 0x3661 JUMPI POP POP JUMP JUMPDEST PUSH1 0x1F ADD PUSH1 0x20 SWAP1 DIV SWAP1 PUSH1 0x0 MSTORE PUSH1 0x20 PUSH1 0x0 KECCAK256 SWAP1 DUP2 ADD SWAP1 PUSH2 0x1D7F SWAP2 SWAP1 PUSH2 0x3613 JUMP JUMPDEST POP DUP1 SLOAD PUSH1 0x0 DUP3 SSTORE SWAP1 PUSH1 0x0 MSTORE PUSH1 0x20 PUSH1 0x0 KECCAK256 SWAP1 DUP2 ADD SWAP1 PUSH2 0x1D7F SWAP2 SWAP1 PUSH2 0x35F6 JUMP JUMPDEST PUSH4 0x4E487B71 PUSH1 0xE0 SHL PUSH1 0x0 MSTORE PUSH1 0x41 PUSH1 0x4 MSTORE PUSH1 0x24 PUSH1 0x0 REVERT JUMPDEST PUSH1 0x40 MLOAD PUSH1 0x1F DUP3 ADD PUSH1 0x1F NOT AND DUP2 ADD PUSH1 0x1 PUSH1 0x1 PUSH1 0x40 SHL SUB DUP2 GT DUP3 DUP3 LT OR ISZERO PUSH2 0x36DB JUMPI PUSH2 0x36DB PUSH2 0x369D JUMP JUMPDEST PUSH1 0x40 MSTORE SWAP2 SWAP1 POP JUMP JUMPDEST PUSH1 0x0 DUP3 PUSH1 0x1F DUP4 ADD SLT PUSH2 0x36F4 JUMPI PUSH1 0x0 DUP1 REVERT JUMPDEST DUP2 CALLDATALOAD PUSH1 0x1 PUSH1 0x1 PUSH1 0x40 SHL SUB DUP2 GT ISZERO PUSH2 0x370D JUMPI PUSH2 0x370D PUSH2 0x369D JUMP JUMPDEST PUSH2 0x3720 PUSH1 0x1F DUP3 ADD PUSH1 0x1F NOT AND PUSH1 0x20 ADD PUSH2 0x36B3 JUMP JUMPDEST DUP2 DUP2 MSTORE DUP5 PUSH1 0x20 DUP4 DUP7 ADD ADD GT ISZERO PUSH2 0x3735 JUMPI PUSH1 0x0 DUP1 REVERT JUMPDEST DUP2 PUSH1 0x20 DUP6 ADD PUSH1 0x20 DUP4 ADD CALLDATACOPY PUSH1 0x0 SWAP2 DUP2 ADD PUSH1 0x20 ADD SWAP2 SWAP1 SWAP2 MSTORE SWAP4 SWAP3 POP POP POP JUMP JUMPDEST PUSH1 0x0 PUSH1 0x1 PUSH1 0x1 PUSH1 0x40 SHL SUB DUP3 GT ISZERO PUSH2 0x376B JUMPI PUSH2 0x376B PUSH2 0x369D JUMP JUMPDEST POP PUSH1 0x5 SHL PUSH1 0x20 ADD SWAP1 JUMP JUMPDEST DUP1 CALLDATALOAD PUSH1 0x1 PUSH1 0x1 PUSH1 0xA0 SHL SUB DUP2 AND DUP2 EQ PUSH2 0x1CF0 JUMPI PUSH1 0x0 DUP1 REVERT JUMPDEST PUSH1 0x0 DUP3 PUSH1 0x1F DUP4 ADD SLT PUSH2 0x379D JUMPI PUSH1 0x0 DUP1 REVERT JUMPDEST DUP2 CALLDATALOAD PUSH1 0x20 PUSH2 0x37B2 PUSH2 0x37AD DUP4 PUSH2 0x3752 JUMP JUMPDEST PUSH2 0x36B3 JUMP JUMPDEST DUP3 DUP2 MSTORE PUSH1 0x5 SWAP3 SWAP1 SWAP3 SHL DUP5 ADD DUP2 ADD SWAP2 DUP2 DUP2 ADD SWAP1 DUP7 DUP5 GT ISZERO PUSH2 0x37D1 JUMPI PUSH1 0x0 DUP1 REVERT JUMPDEST DUP3 DUP7 ADD JUMPDEST DUP5 DUP2 LT ISZERO PUSH2 0x37F3 JUMPI PUSH2 0x37E6 DUP2 PUSH2 0x3775 JUMP JUMPDEST DUP4 MSTORE SWAP2 DUP4 ADD SWAP2 DUP4 ADD PUSH2 0x37D5 JUMP JUMPDEST POP SWAP7 SWAP6 POP POP POP POP POP POP JUMP JUMPDEST PUSH1 0x0 DUP3 PUSH1 0x1F DUP4 ADD SLT PUSH2 0x380F JUMPI PUSH1 0x0 DUP1 REVERT JUMPDEST DUP2 CALLDATALOAD PUSH1 0x20 PUSH2 0x381F PUSH2 0x37AD DUP4 PUSH2 0x3752 JUMP JUMPDEST DUP3 DUP2 MSTORE PUSH1 0x5 SWAP3 SWAP1 SWAP3 SHL DUP5 ADD DUP2 ADD SWAP2 DUP2 DUP2 ADD SWAP1 DUP7 DUP5 GT ISZERO PUSH2 0x383E JUMPI PUSH1 0x0 DUP1 REVERT JUMPDEST DUP3 DUP7 ADD JUMPDEST DUP5 DUP2 LT ISZERO PUSH2 0x37F3 JUMPI DUP1 CALLDATALOAD DUP4 MSTORE SWAP2 DUP4 ADD SWAP2 DUP4 ADD PUSH2 0x3842 JUMP JUMPDEST PUSH1 0x0 DUP3 PUSH1 0x1F DUP4 ADD SLT PUSH2 0x386A JUMPI PUSH1 0x0 DUP1 REVERT JUMPDEST DUP2 CALLDATALOAD PUSH1 0x20 PUSH2 0x387A PUSH2 0x37AD DUP4 PUSH2 0x3752 JUMP JUMPDEST DUP3 DUP2 MSTORE PUSH1 0x5 SWAP3 SWAP1 SWAP3 SHL DUP5 ADD DUP2 ADD SWAP2 DUP2 DUP2 ADD SWAP1 DUP7 DUP5 GT ISZERO PUSH2 0x3899 JUMPI PUSH1 0x0 DUP1 REVERT JUMPDEST DUP3 DUP7 ADD JUMPDEST DUP5 DUP2 LT ISZERO PUSH2 0x37F3 JUMPI DUP1 CALLDATALOAD PUSH1 0x1 PUSH1 0x1 PUSH1 0x40 SHL SUB DUP2 GT ISZERO PUSH2 0x38BC JUMPI PUSH1 0x0 DUP1 DUP2 REVERT JUMPDEST PUSH2 0x38CA DUP10 DUP7 DUP4 DUP12 ADD ADD PUSH2 0x36E3 JUMP JUMPDEST DUP5 MSTORE POP SWAP2 DUP4 ADD SWAP2 DUP4 ADD PUSH2 0x389D JUMP JUMPDEST PUSH1 0x0 DUP1 PUSH1 0x0 DUP1 PUSH1 0x0 DUP1 PUSH1 0x0 DUP1 PUSH2 0x100 DUP10 DUP12 SUB SLT ISZERO PUSH2 0x38F5 JUMPI PUSH1 0x0 DUP1 REVERT JUMPDEST DUP9 CALLDATALOAD PUSH1 0x1 PUSH1 0x1 PUSH1 0x40 SHL SUB DUP1 DUP3 GT ISZERO PUSH2 0x390C JUMPI PUSH1 0x0 DUP1 REVERT JUMPDEST PUSH2 0x3918 DUP13 DUP4 DUP14 ADD PUSH2 0x36E3 JUMP JUMPDEST SWAP10 POP PUSH1 0x20 DUP12 ADD CALLDATALOAD SWAP2 POP DUP1 DUP3 GT ISZERO PUSH2 0x392E JUMPI PUSH1 0x0 DUP1 REVERT JUMPDEST PUSH2 0x393A DUP13 DUP4 DUP14 ADD PUSH2 0x378C JUMP JUMPDEST SWAP9 POP PUSH1 0x40 DUP12 ADD CALLDATALOAD SWAP2 POP DUP1 DUP3 GT ISZERO PUSH2 0x3950 JUMPI PUSH1 0x0 DUP1 REVERT JUMPDEST PUSH2 0x395C DUP13 DUP4 DUP14 ADD PUSH2 0x37FE JUMP JUMPDEST SWAP8 POP PUSH1 0x60 DUP12 ADD CALLDATALOAD SWAP2 POP DUP1 DUP3 GT ISZERO PUSH2 0x3972 JUMPI PUSH1 0x0 DUP1 REVERT JUMPDEST PUSH2 0x397E DUP13 DUP4 DUP14 ADD PUSH2 0x3859 JUMP JUMPDEST SWAP7 POP PUSH1 0x80 DUP12 ADD CALLDATALOAD SWAP2 POP DUP1 DUP3 GT ISZERO PUSH2 0x3994 JUMPI PUSH1 0x0 DUP1 REVERT JUMPDEST POP PUSH2 0x39A1 DUP12 DUP3 DUP13 ADD PUSH2 0x36E3 JUMP JUMPDEST SWAP5 POP POP PUSH1 0xA0 DUP10 ADD CALLDATALOAD SWAP3 POP PUSH2 0x39B7 PUSH1 0xC0 DUP11 ADD PUSH2 0x3775 JUMP JUMPDEST SWAP2 POP PUSH1 0xE0 DUP10 ADD CALLDATALOAD SWAP1 POP SWAP3 SWAP6 SWAP9 POP SWAP3 SWAP6 SWAP9 SWAP1 SWAP4 SWAP7 POP JUMP JUMPDEST PUSH1 0x0 DUP3 PUSH1 0x1F DUP4 ADD SLT PUSH2 0x39DE JUMPI PUSH1 0x0 DUP1 REVERT JUMPDEST DUP2 CALLDATALOAD PUSH1 0x20 PUSH2 0x39EE PUSH2 0x37AD DUP4 PUSH2 0x3752 JUMP JUMPDEST DUP3 DUP2 MSTORE PUSH1 0x5 SWAP3 SWAP1 SWAP3 SHL DUP5 ADD DUP2 ADD SWAP2 DUP2 DUP2 ADD SWAP1 DUP7 DUP5 GT ISZERO PUSH2 0x3A0D JUMPI PUSH1 0x0 DUP1 REVERT JUMPDEST DUP3 DUP7 ADD JUMPDEST DUP5 DUP2 LT ISZERO PUSH2 0x37F3 JUMPI DUP1 CALLDATALOAD PUSH1 0x3 DUP2 LT PUSH2 0x3A29 JUMPI PUSH1 0x0 DUP1 DUP2 REVERT JUMPDEST DUP4 MSTORE SWAP2 DUP4 ADD SWAP2 DUP4 ADD PUSH2 0x3A11 JUMP JUMPDEST PUSH1 0x0 DUP1 PUSH1 0x0 DUP1 PUSH1 0x80 DUP6 DUP8 SUB SLT ISZERO PUSH2 0x3A4C JUMPI PUSH1 0x0 DUP1 REVERT JUMPDEST DUP5 CALLDATALOAD SWAP4 POP PUSH1 0x20 DUP1 DUP7 ADD CALLDATALOAD PUSH1 0x1 PUSH1 0x1 PUSH1 0x40 SHL SUB DUP1 DUP3 GT ISZERO PUSH2 0x3A6B JUMPI PUSH1 0x0 DUP1 REVERT JUMPDEST PUSH2 0x3A77 DUP10 DUP4 DUP11 ADD PUSH2 0x3859 JUMP JUMPDEST SWAP6 POP PUSH1 0x40 DUP9 ADD CALLDATALOAD SWAP2 POP DUP1 DUP3 GT ISZERO PUSH2 0x3A8D JUMPI PUSH1 0x0 DUP1 REVERT JUMPDEST DUP2 DUP9 ADD SWAP2 POP DUP9 PUSH1 0x1F DUP4 ADD SLT PUSH2 0x3AA1 JUMPI PUSH1 0x0 DUP1 REVERT JUMPDEST DUP2 CALLDATALOAD PUSH2 0x3AAF PUSH2 0x37AD DUP3 PUSH2 0x3752 JUMP JUMPDEST DUP2 DUP2 MSTORE PUSH1 0x5 SWAP2 SWAP1 SWAP2 SHL DUP4 ADD DUP5 ADD SWAP1 DUP5 DUP2 ADD SWAP1 DUP12 DUP4 GT ISZERO PUSH2 0x3ACE JUMPI PUSH1 0x0 DUP1 REVERT JUMPDEST DUP6 DUP6 ADD JUMPDEST DUP4 DUP2 LT ISZERO PUSH2 0x3B06 JUMPI DUP1 CALLDATALOAD DUP6 DUP2 GT ISZERO PUSH2 0x3AEA JUMPI PUSH1 0x0 DUP1 DUP2 REVERT JUMPDEST PUSH2 0x3AF8 DUP15 DUP10 DUP4 DUP11 ADD ADD PUSH2 0x3859 JUMP JUMPDEST DUP5 MSTORE POP SWAP2 DUP7 ADD SWAP2 DUP7 ADD PUSH2 0x3AD2 JUMP JUMPDEST POP SWAP7 POP POP POP PUSH1 0x60 DUP9 ADD CALLDATALOAD SWAP3 POP DUP1 DUP4 GT ISZERO PUSH2 0x3B1F JUMPI PUSH1 0x0 DUP1 REVERT JUMPDEST POP POP PUSH2 0x3B2D DUP8 DUP3 DUP9 ADD PUSH2 0x39CD JUMP JUMPDEST SWAP2 POP POP SWAP3 SWAP6 SWAP2 SWAP5 POP SWAP3 POP JUMP JUMPDEST PUSH1 0x0 JUMPDEST DUP4 DUP2 LT ISZERO PUSH2 0x3B54 JUMPI DUP2 DUP2 ADD MLOAD DUP4 DUP3 ADD MSTORE PUSH1 0x20 ADD PUSH2 0x3B3C JUMP JUMPDEST POP POP PUSH1 0x0 SWAP2 ADD MSTORE JUMP JUMPDEST PUSH1 0x0 DUP2 MLOAD DUP1 DUP5 MSTORE PUSH2 0x3B75 DUP2 PUSH1 0x20 DUP7 ADD PUSH1 0x20 DUP7 ADD PUSH2 0x3B39 JUMP JUMPDEST PUSH1 0x1F ADD PUSH1 0x1F NOT AND SWAP3 SWAP1 SWAP3 ADD PUSH1 0x20 ADD SWAP3 SWAP2 POP POP JUMP JUMPDEST PUSH1 0x20 DUP2 MSTORE PUSH1 0x0 PUSH2 0x3B9C PUSH1 0x20 DUP4 ADD DUP5 PUSH2 0x3B5D JUMP JUMPDEST SWAP4 SWAP3 POP POP POP JUMP JUMPDEST PUSH1 0x0 PUSH1 0x20 DUP3 DUP5 SUB SLT ISZERO PUSH2 0x3BB5 JUMPI PUSH1 0x0 DUP1 REVERT JUMPDEST PUSH2 0x3B9C DUP3 PUSH2 0x3775 JUMP JUMPDEST PUSH1 0x0 PUSH1 0x20 DUP3 DUP5 SUB SLT ISZERO PUSH2 0x3BD0 JUMPI PUSH1 0x0 DUP1 REVERT JUMPDEST DUP2 CALLDATALOAD PUSH1 0x1 PUSH1 0x1 PUSH1 0x40 SHL SUB DUP2 GT ISZERO PUSH2 0x3BE6 JUMPI PUSH1 0x0 DUP1 REVERT JUMPDEST PUSH2 0x96B DUP5 DUP3 DUP6 ADD PUSH2 0x36E3 JUMP JUMPDEST PUSH1 0x0 DUP2 MLOAD DUP1 DUP5 MSTORE PUSH1 0x20 DUP1 DUP6 ADD SWAP5 POP DUP1 DUP5 ADD PUSH1 0x0 JUMPDEST DUP4 DUP2 LT ISZERO PUSH2 0x3C2B JUMPI DUP2 MLOAD PUSH1 0x1 PUSH1 0x1 PUSH1 0xA0 SHL SUB AND DUP8 MSTORE SWAP6 DUP3 ADD SWAP6 SWAP1 DUP3 ADD SWAP1 PUSH1 0x1 ADD PUSH2 0x3C06 JUMP JUMPDEST POP SWAP5 SWAP6 SWAP5 POP POP POP POP POP JUMP JUMPDEST PUSH1 0x0 DUP2 MLOAD DUP1 DUP5 MSTORE PUSH1 0x20 DUP1 DUP6 ADD DUP1 DUP2 SWAP7 POP DUP4 PUSH1 0x5 SHL DUP2 ADD SWAP2 POP DUP3 DUP7 ADD PUSH1 0x0 JUMPDEST DUP6 DUP2 LT ISZERO PUSH2 0x3C7E JUMPI DUP3 DUP5 SUB DUP10 MSTORE PUSH2 0x3C6C DUP5 DUP4 MLOAD PUSH2 0x3B5D JUMP JUMPDEST SWAP9 DUP6 ADD SWAP9 SWAP4 POP SWAP1 DUP5 ADD SWAP1 PUSH1 0x1 ADD PUSH2 0x3C54 JUMP JUMPDEST POP SWAP2 SWAP8 SWAP7 POP POP POP POP POP POP POP JUMP JUMPDEST PUSH1 0x0 DUP2 MLOAD DUP1 DUP5 MSTORE PUSH1 0x20 DUP1 DUP6 ADD DUP1 DUP2 SWAP7 POP DUP4 PUSH1 0x5 SHL DUP2 ADD SWAP2 POP DUP3 DUP7 ADD PUSH1 0x0 DUP1 JUMPDEST DUP7 DUP2 LT ISZERO PUSH2 0x3D2E JUMPI DUP4 DUP6 SUB DUP11 MSTORE DUP3 MLOAD DUP1 MLOAD PUSH1 0x1 PUSH1 0x1 PUSH1 0xA0 SHL SUB AND DUP7 MSTORE DUP7 DUP2 ADD MLOAD DUP8 DUP8 ADD MSTORE PUSH1 0x40 DUP1 DUP3 ADD MLOAD SWAP1 DUP8 ADD MSTORE PUSH1 0x60 SWAP1 DUP2 ADD MLOAD PUSH1 0x80 SWAP2 DUP8 ADD DUP3 SWAP1 MSTORE DUP1 MLOAD SWAP2 DUP8 ADD DUP3 SWAP1 MSTORE DUP8 ADD SWAP1 PUSH1 0xA0 DUP8 ADD SWAP1 DUP5 SWAP1 JUMPDEST DUP1 DUP3 LT ISZERO PUSH2 0x3D19 JUMPI DUP4 MLOAD DUP4 MSTORE SWAP3 DUP10 ADD SWAP3 SWAP2 DUP10 ADD SWAP2 PUSH1 0x1 SWAP2 SWAP1 SWAP2 ADD SWAP1 PUSH2 0x3CF9 JUMP JUMPDEST POP POP SWAP11 DUP8 ADD SWAP11 SWAP6 POP POP SWAP2 DUP6 ADD SWAP2 PUSH1 0x1 ADD PUSH2 0x3CAA JUMP JUMPDEST POP SWAP3 SWAP9 SWAP8 POP POP POP POP POP POP POP POP JUMP JUMPDEST PUSH1 0x0 PUSH2 0x120 DUP1 DUP4 MSTORE PUSH2 0x3D50 DUP2 DUP5 ADD DUP14 PUSH2 0x3BF2 JUMP JUMPDEST SWAP1 POP PUSH1 0x20 DUP4 DUP3 SUB DUP2 DUP6 ADD MSTORE DUP2 DUP13 MLOAD DUP1 DUP5 MSTORE DUP3 DUP5 ADD SWAP2 POP DUP3 DUP15 ADD SWAP4 POP PUSH1 0x0 JUMPDEST DUP2 DUP2 LT ISZERO PUSH2 0x3D8A JUMPI DUP5 MLOAD DUP4 MSTORE SWAP4 DUP4 ADD SWAP4 SWAP2 DUP4 ADD SWAP2 PUSH1 0x1 ADD PUSH2 0x3D6E JUMP JUMPDEST POP POP DUP5 DUP2 SUB PUSH1 0x40 DUP7 ADD MSTORE PUSH2 0x3D9E DUP2 DUP14 PUSH2 0x3C36 JUMP JUMPDEST SWAP3 POP POP POP DUP3 DUP2 SUB PUSH1 0x60 DUP5 ADD MSTORE PUSH2 0x3DB4 DUP2 DUP11 PUSH2 0x3B5D JUMP JUMPDEST SWAP1 POP DUP8 PUSH1 0x80 DUP5 ADD MSTORE DUP3 DUP2 SUB PUSH1 0xA0 DUP5 ADD MSTORE PUSH2 0x3DCE DUP2 DUP9 PUSH2 0x3C8B JUMP JUMPDEST SWAP2 POP POP DUP5 PUSH1 0xC0 DUP4 ADD MSTORE PUSH2 0x3DE5 PUSH1 0xE0 DUP4 ADD DUP6 ISZERO ISZERO SWAP1 MSTORE JUMP JUMPDEST PUSH1 0x1 PUSH1 0x1 PUSH1 0xA0 SHL SUB DUP4 AND PUSH2 0x100 DUP4 ADD MSTORE SWAP11 SWAP10 POP POP POP POP POP POP POP POP POP POP JUMP JUMPDEST PUSH1 0x0 DUP1 DUP4 PUSH1 0x1F DUP5 ADD SLT PUSH2 0x3E15 JUMPI PUSH1 0x0 DUP1 REVERT JUMPDEST POP DUP2 CALLDATALOAD PUSH1 0x1 PUSH1 0x1 PUSH1 0x40 SHL SUB DUP2 GT ISZERO PUSH2 0x3E2C JUMPI PUSH1 0x0 DUP1 REVERT JUMPDEST PUSH1 0x20 DUP4 ADD SWAP2 POP DUP4 PUSH1 0x20 DUP3 PUSH1 0x5 SHL DUP6 ADD ADD GT ISZERO PUSH2 0x3E47 JUMPI PUSH1 0x0 DUP1 REVERT JUMPDEST SWAP3 POP SWAP3 SWAP1 POP JUMP JUMPDEST PUSH1 0x0 DUP1 PUSH1 0x0 DUP1 PUSH1 0x40 DUP6 DUP8 SUB SLT ISZERO PUSH2 0x3E64 JUMPI PUSH1 0x0 DUP1 REVERT JUMPDEST DUP5 CALLDATALOAD PUSH1 0x1 PUSH1 0x1 PUSH1 0x40 SHL SUB DUP1 DUP3 GT ISZERO PUSH2 0x3E7B JUMPI PUSH1 0x0 DUP1 REVERT JUMPDEST PUSH2 0x3E87 DUP9 DUP4 DUP10 ADD PUSH2 0x3E03 JUMP JUMPDEST SWAP1 SWAP7 POP SWAP5 POP PUSH1 0x20 DUP8 ADD CALLDATALOAD SWAP2 POP DUP1 DUP3 GT ISZERO PUSH2 0x3EA0 JUMPI PUSH1 0x0 DUP1 REVERT JUMPDEST POP PUSH2 0x3EAD DUP8 DUP3 DUP9 ADD PUSH2 0x3E03 JUMP JUMPDEST SWAP6 SWAP9 SWAP5 SWAP8 POP SWAP6 POP POP POP POP JUMP JUMPDEST PUSH1 0x0 DUP1 PUSH1 0x0 DUP1 PUSH1 0x0 DUP1 PUSH1 0xC0 DUP8 DUP10 SUB SLT ISZERO PUSH2 0x3ED2 JUMPI PUSH1 0x0 DUP1 REVERT JUMPDEST DUP7 CALLDATALOAD PUSH1 0x1 PUSH1 0x1 PUSH1 0x40 SHL SUB DUP1 DUP3 GT ISZERO PUSH2 0x3EE9 JUMPI PUSH1 0x0 DUP1 REVERT JUMPDEST PUSH2 0x3EF5 DUP11 DUP4 DUP12 ADD PUSH2 0x36E3 JUMP JUMPDEST SWAP8 POP PUSH1 0x20 DUP10 ADD CALLDATALOAD SWAP2 POP DUP1 DUP3 GT ISZERO PUSH2 0x3F0B JUMPI PUSH1 0x0 DUP1 REVERT JUMPDEST PUSH2 0x3F17 DUP11 DUP4 DUP12 ADD PUSH2 0x378C JUMP JUMPDEST SWAP7 POP PUSH1 0x40 DUP10 ADD CALLDATALOAD SWAP2 POP DUP1 DUP3 GT ISZERO PUSH2 0x3F2D JUMPI PUSH1 0x0 DUP1 REVERT JUMPDEST PUSH2 0x3F39 DUP11 DUP4 DUP12 ADD PUSH2 0x37FE JUMP JUMPDEST SWAP6 POP PUSH1 0x60 DUP10 ADD CALLDATALOAD SWAP2 POP DUP1 DUP3 GT ISZERO PUSH2 0x3F4F JUMPI PUSH1 0x0 DUP1 REVERT JUMPDEST PUSH2 0x3F5B DUP11 DUP4 DUP12 ADD PUSH2 0x3859 JUMP JUMPDEST SWAP5 POP PUSH1 0x80 DUP10 ADD CALLDATALOAD SWAP2 POP DUP1 DUP3 GT ISZERO PUSH2 0x3F71 JUMPI PUSH1 0x0 DUP1 REVERT JUMPDEST POP PUSH2 0x3F7E DUP10 DUP3 DUP11 ADD PUSH2 0x36E3 JUMP JUMPDEST SWAP3 POP POP PUSH1 0xA0 DUP8 ADD CALLDATALOAD SWAP1 POP SWAP3 SWAP6 POP SWAP3 SWAP6 POP SWAP3 SWAP6 JUMP JUMPDEST PUSH1 0x0 PUSH1 0x20 DUP3 DUP5 SUB SLT ISZERO PUSH2 0x3FA4 JUMPI PUSH1 0x0 DUP1 REVERT JUMPDEST POP CALLDATALOAD SWAP2 SWAP1 POP JUMP JUMPDEST PUSH4 0x4E487B71 PUSH1 0xE0 SHL PUSH1 0x0 MSTORE PUSH1 0x21 PUSH1 0x4 MSTORE PUSH1 0x24 PUSH1 0x0 REVERT JUMPDEST PUSH1 0x0 DUP2 MLOAD DUP1 DUP5 MSTORE PUSH1 0x20 DUP1 DUP6 ADD DUP1 DUP2 SWAP7 POP DUP4 PUSH1 0x5 SHL DUP2 ADD SWAP2 POP DUP3 DUP7 ADD PUSH1 0x0 JUMPDEST DUP6 DUP2 LT ISZERO PUSH2 0x3C7E JUMPI DUP3 DUP5 SUB DUP10 MSTORE PUSH2 0x3FF7 DUP5 DUP4 MLOAD PUSH2 0x3C36 JUMP JUMPDEST SWAP9 DUP6 ADD SWAP9 SWAP4 POP SWAP1 DUP5 ADD SWAP1 PUSH1 0x1 ADD PUSH2 0x3FDF JUMP JUMPDEST PUSH1 0x80 DUP2 MSTORE PUSH1 0x0 PUSH2 0x401C PUSH1 0x80 DUP4 ADD DUP8 PUSH2 0x3C36 JUMP JUMPDEST DUP3 DUP2 SUB PUSH1 0x20 DUP5 DUP2 ADD SWAP2 SWAP1 SWAP2 MSTORE DUP7 MLOAD DUP1 DUP4 MSTORE DUP8 DUP3 ADD SWAP3 DUP3 ADD SWAP1 PUSH1 0x0 DUP1 JUMPDEST DUP3 DUP2 LT ISZERO PUSH2 0x4070 JUMPI DUP6 MLOAD PUSH1 0x3 DUP2 LT PUSH2 0x405E JUMPI PUSH4 0x4E487B71 PUSH1 0xE0 SHL DUP4 MSTORE PUSH1 0x21 PUSH1 0x4 MSTORE PUSH1 0x24 DUP4 REVERT JUMPDEST DUP5 MSTORE SWAP5 DUP5 ADD SWAP5 SWAP3 DUP5 ADD SWAP3 PUSH1 0x1 ADD PUSH2 0x4038 JUMP JUMPDEST POP POP POP DUP5 DUP2 SUB PUSH1 0x40 DUP7 ADD MSTORE PUSH2 0x4085 DUP2 DUP9 PUSH2 0x3FC1 JUMP JUMPDEST SWAP4 POP POP POP POP DUP3 PUSH1 0x60 DUP4 ADD MSTORE SWAP6 SWAP5 POP POP POP POP POP JUMP JUMPDEST PUSH1 0x20 DUP2 MSTORE PUSH1 0x0 PUSH2 0x3B9C PUSH1 0x20 DUP4 ADD DUP5 PUSH2 0x3C36 JUMP JUMPDEST PUSH1 0x20 DUP2 MSTORE PUSH1 0x0 PUSH2 0x3B9C PUSH1 0x20 DUP4 ADD DUP5 PUSH2 0x3BF2 JUMP JUMPDEST PUSH1 0x0 PUSH1 0x20 DUP3 DUP5 SUB SLT ISZERO PUSH2 0x40D1 JUMPI PUSH1 0x0 DUP1 REVERT JUMPDEST DUP2 CALLDATALOAD PUSH1 0x1 PUSH1 0x1 PUSH1 0x40 SHL SUB DUP2 GT ISZERO PUSH2 0x40E7 JUMPI PUSH1 0x0 DUP1 REVERT JUMPDEST DUP3 ADD PUSH2 0x140 DUP2 DUP6 SUB SLT ISZERO PUSH2 0x3B9C JUMPI PUSH1 0x0 DUP1 REVERT JUMPDEST PUSH1 0x20 DUP1 DUP3 MSTORE PUSH1 0x12 SWAP1 DUP3 ADD MSTORE PUSH18 0x10DBDB9D1C9858DD081A5CC81C185D5CD959 PUSH1 0x72 SHL PUSH1 0x40 DUP3 ADD MSTORE PUSH1 0x60 ADD SWAP1 JUMP JUMPDEST PUSH4 0x4E487B71 PUSH1 0xE0 SHL PUSH1 0x0 MSTORE PUSH1 0x11 PUSH1 0x4 MSTORE PUSH1 0x24 PUSH1 0x0 REVERT JUMPDEST DUP1 DUP3 ADD DUP1 DUP3 GT ISZERO PUSH2 0x2724 JUMPI PUSH2 0x2724 PUSH2 0x4126 JUMP JUMPDEST DUP2 DUP2 SUB DUP2 DUP2 GT ISZERO PUSH2 0x2724 JUMPI PUSH2 0x2724 PUSH2 0x4126 JUMP JUMPDEST PUSH1 0x0 DUP5 MLOAD PUSH2 0x4174 DUP2 DUP5 PUSH1 0x20 DUP10 ADD PUSH2 0x3B39 JUMP JUMPDEST DUP1 DUP4 ADD SWAP1 POP PUSH1 0x17 PUSH1 0xF9 SHL DUP1 DUP3 MSTORE DUP6 MLOAD PUSH2 0x4194 DUP2 PUSH1 0x1 DUP6 ADD PUSH1 0x20 DUP11 ADD PUSH2 0x3B39 JUMP JUMPDEST PUSH1 0x1 SWAP3 ADD SWAP2 DUP3 ADD MSTORE DUP4 MLOAD PUSH2 0x41AF DUP2 PUSH1 0x2 DUP5 ADD PUSH1 0x20 DUP9 ADD PUSH2 0x3B39 JUMP JUMPDEST ADD PUSH1 0x2 ADD SWAP6 SWAP5 POP POP POP POP POP JUMP JUMPDEST PUSH1 0x0 DUP3 MLOAD PUSH2 0x41CE DUP2 DUP5 PUSH1 0x20 DUP8 ADD PUSH2 0x3B39 JUMP JUMPDEST SWAP2 SWAP1 SWAP2 ADD SWAP3 SWAP2 POP POP JUMP JUMPDEST PUSH1 0x1 DUP2 DUP2 SHR SWAP1 DUP3 AND DUP1 PUSH2 0x41EC JUMPI PUSH1 0x7F DUP3 AND SWAP2 POP JUMPDEST PUSH1 0x20 DUP3 LT DUP2 SUB PUSH2 0x420C JUMPI PUSH4 0x4E487B71 PUSH1 0xE0 SHL PUSH1 0x0 MSTORE PUSH1 0x22 PUSH1 0x4 MSTORE PUSH1 0x24 PUSH1 0x0 REVERT JUMPDEST POP SWAP2 SWAP1 POP JUMP JUMPDEST PUSH4 0x4E487B71 PUSH1 0xE0 SHL PUSH1 0x0 MSTORE PUSH1 0x32 PUSH1 0x4 MSTORE PUSH1 0x24 PUSH1 0x0 REVERT JUMPDEST PUSH1 0x0 DUP3 CALLDATALOAD PUSH2 0x13E NOT DUP4 CALLDATASIZE SUB ADD DUP2 SLT PUSH2 0x41CE JUMPI PUSH1 0x0 DUP1 REVERT JUMPDEST PUSH1 0x0 PUSH1 0x1 DUP3 ADD PUSH2 0x4251 JUMPI PUSH2 0x4251 PUSH2 0x4126 JUMP JUMPDEST POP PUSH1 0x1 ADD SWAP1 JUMP JUMPDEST PUSH4 0x4E487B71 PUSH1 0xE0 SHL PUSH1 0x0 MSTORE PUSH1 0x31 PUSH1 0x4 MSTORE PUSH1 0x24 PUSH1 0x0 REVERT JUMPDEST DUP1 DUP3 MUL DUP2 ISZERO DUP3 DUP3 DIV DUP5 EQ OR PUSH2 0x2724 JUMPI PUSH2 0x2724 PUSH2 0x4126 JUMP JUMPDEST DUP1 ISZERO ISZERO DUP2 EQ PUSH2 0x1D7F JUMPI PUSH1 0x0 DUP1 REVERT JUMPDEST PUSH1 0x0 PUSH1 0x20 DUP3 DUP5 SUB SLT ISZERO PUSH2 0x42A5 JUMPI PUSH1 0x0 DUP1 REVERT JUMPDEST DUP2 MLOAD PUSH2 0x3B9C DUP2 PUSH2 0x4285 JUMP JUMPDEST PUSH1 0x1F DUP3 GT ISZERO PUSH2 0x42F6 JUMPI PUSH1 0x0 DUP2 DUP2 MSTORE PUSH1 0x20 DUP2 KECCAK256 PUSH1 0x1F DUP6 ADD PUSH1 0x5 SHR DUP2 ADD PUSH1 0x20 DUP7 LT ISZERO PUSH2 0x42D7 JUMPI POP DUP1 JUMPDEST PUSH1 0x1F DUP6 ADD PUSH1 0x5 SHR DUP3 ADD SWAP2 POP JUMPDEST DUP2 DUP2 LT ISZERO PUSH2 0x11C9 JUMPI DUP3 DUP2 SSTORE PUSH1 0x1 ADD PUSH2 0x42E3 JUMP JUMPDEST POP POP POP JUMP JUMPDEST DUP2 MLOAD PUSH1 0x1 PUSH1 0x1 PUSH1 0x40 SHL SUB DUP2 GT ISZERO PUSH2 0x4314 JUMPI PUSH2 0x4314 PUSH2 0x369D JUMP JUMPDEST PUSH2 0x4328 DUP2 PUSH2 0x4322 DUP5 SLOAD PUSH2 0x41D8 JUMP JUMPDEST DUP5 PUSH2 0x42B0 JUMP JUMPDEST PUSH1 0x20 DUP1 PUSH1 0x1F DUP4 GT PUSH1 0x1 DUP2 EQ PUSH2 0x435D JUMPI PUSH1 0x0 DUP5 ISZERO PUSH2 0x4345 JUMPI POP DUP6 DUP4 ADD MLOAD JUMPDEST PUSH1 0x0 NOT PUSH1 0x3 DUP7 SWAP1 SHL SHR NOT AND PUSH1 0x1 DUP6 SWAP1 SHL OR DUP6 SSTORE PUSH2 0x11C9 JUMP JUMPDEST PUSH1 0x0 DUP6 DUP2 MSTORE PUSH1 0x20 DUP2 KECCAK256 PUSH1 0x1F NOT DUP7 AND SWAP2 JUMPDEST DUP3 DUP2 LT ISZERO PUSH2 0x438C JUMPI DUP9 DUP7 ADD MLOAD DUP3 SSTORE SWAP5 DUP5 ADD SWAP5 PUSH1 0x1 SWAP1 SWAP2 ADD SWAP1 DUP5 ADD PUSH2 0x436D JUMP JUMPDEST POP DUP6 DUP3 LT ISZERO PUSH2 0x43AA JUMPI DUP8 DUP6 ADD MLOAD PUSH1 0x0 NOT PUSH1 0x3 DUP9 SWAP1 SHL PUSH1 0xF8 AND SHR NOT AND DUP2 SSTORE JUMPDEST POP POP POP POP POP PUSH1 0x1 SWAP1 DUP2 SHL ADD SWAP1 SSTORE POP JUMP JUMPDEST PUSH1 0x0 DUP1 DUP4 CALLDATALOAD PUSH1 0x1E NOT DUP5 CALLDATASIZE SUB ADD DUP2 SLT PUSH2 0x43D1 JUMPI PUSH1 0x0 DUP1 REVERT JUMPDEST DUP4 ADD DUP1 CALLDATALOAD SWAP2 POP PUSH1 0x1 PUSH1 0x1 PUSH1 0x40 SHL SUB DUP3 GT ISZERO PUSH2 0x43EB JUMPI PUSH1 0x0 DUP1 REVERT JUMPDEST PUSH1 0x20 ADD SWAP2 POP CALLDATASIZE DUP2 SWAP1 SUB DUP3 SGT ISZERO PUSH2 0x3E47 JUMPI PUSH1 0x0 DUP1 REVERT JUMPDEST PUSH1 0x0 DUP1 PUSH1 0x0 DUP1 PUSH1 0x80 DUP6 DUP8 SUB SLT ISZERO PUSH2 0x4416 JUMPI PUSH1 0x0 DUP1 REVERT JUMPDEST DUP5 CALLDATALOAD PUSH1 0x1 PUSH1 0x1 PUSH1 0x40 SHL SUB DUP1 DUP3 GT ISZERO PUSH2 0x442D JUMPI PUSH1 0x0 DUP1 REVERT JUMPDEST PUSH2 0x4439 DUP9 DUP4 DUP10 ADD PUSH2 0x36E3 JUMP JUMPDEST SWAP6 POP PUSH1 0x20 DUP8 ADD CALLDATALOAD SWAP5 POP PUSH1 0x40 DUP8 ADD CALLDATALOAD SWAP2 POP DUP1 DUP3 GT ISZERO PUSH2 0x4456 JUMPI PUSH1 0x0 DUP1 REVERT JUMPDEST PUSH2 0x4462 DUP9 DUP4 DUP10 ADD PUSH2 0x3859 JUMP JUMPDEST SWAP4 POP PUSH1 0x60 DUP8 ADD CALLDATALOAD SWAP2 POP DUP1 DUP3 GT ISZERO PUSH2 0x4478 JUMPI PUSH1 0x0 DUP1 REVERT JUMPDEST POP PUSH2 0x3B2D DUP8 DUP3 DUP9 ADD PUSH2 0x36E3 JUMP JUMPDEST DUP1 CALLDATALOAD PUSH1 0x1 PUSH1 0x1 PUSH1 0x40 SHL SUB DUP2 AND DUP2 EQ PUSH2 0x1CF0 JUMPI PUSH1 0x0 DUP1 REVERT JUMPDEST DUP1 CALLDATALOAD PUSH2 0x1CF0 DUP2 PUSH2 0x4285 JUMP JUMPDEST PUSH1 0x0 DUP1 DUP4 CALLDATALOAD PUSH1 0x1E NOT DUP5 CALLDATASIZE SUB ADD DUP2 SLT PUSH2 0x44BE JUMPI PUSH1 0x0 DUP1 REVERT JUMPDEST DUP4 ADD PUSH1 0x20 DUP2 ADD SWAP3 POP CALLDATALOAD SWAP1 POP PUSH1 0x1 PUSH1 0x1 PUSH1 0x40 SHL SUB DUP2 GT ISZERO PUSH2 0x44DD JUMPI PUSH1 0x0 DUP1 REVERT JUMPDEST DUP1 CALLDATASIZE SUB DUP3 SGT ISZERO PUSH2 0x3E47 JUMPI PUSH1 0x0 DUP1 REVERT JUMPDEST DUP2 DUP4 MSTORE DUP2 DUP2 PUSH1 0x20 DUP6 ADD CALLDATACOPY POP PUSH1 0x0 DUP3 DUP3 ADD PUSH1 0x20 SWAP1 DUP2 ADD SWAP2 SWAP1 SWAP2 MSTORE PUSH1 0x1F SWAP1 SWAP2 ADD PUSH1 0x1F NOT AND SWAP1 SWAP2 ADD ADD SWAP1 JUMP JUMPDEST PUSH1 0x40 DUP2 MSTORE DUP3 CALLDATALOAD PUSH1 0x40 DUP3 ADD MSTORE PUSH1 0x20 DUP4 ADD CALLDATALOAD PUSH1 0x60 DUP3 ADD MSTORE PUSH1 0x0 PUSH2 0x4538 PUSH1 0x40 DUP6 ADD PUSH2 0x4485 JUMP JUMPDEST PUSH1 0x1 PUSH1 0x1 PUSH1 0x40 SHL SUB AND PUSH1 0x80 DUP4 ADD MSTORE PUSH2 0x4552 PUSH1 0x60 DUP6 ADD PUSH2 0x4485 JUMP JUMPDEST PUSH1 0x1 PUSH1 0x1 PUSH1 0x40 SHL SUB AND PUSH1 0xA0 DUP4 ADD MSTORE PUSH2 0x456C PUSH1 0x80 DUP6 ADD PUSH2 0x4485 JUMP JUMPDEST PUSH1 0x1 PUSH1 0x1 PUSH1 0x40 SHL SUB DUP2 AND PUSH1 0xC0 DUP5 ADD MSTORE POP PUSH1 0xA0 DUP5 ADD CALLDATALOAD PUSH1 0xE0 DUP4 ADD MSTORE PUSH2 0x4592 PUSH1 0xC0 DUP6 ADD PUSH2 0x3775 JUMP JUMPDEST PUSH2 0x100 PUSH2 0x45A9 DUP2 DUP6 ADD DUP4 PUSH1 0x1 PUSH1 0x1 PUSH1 0xA0 SHL SUB AND SWAP1 MSTORE JUMP JUMPDEST PUSH2 0x45B5 PUSH1 0xE0 DUP8 ADD PUSH2 0x3775 JUMP JUMPDEST SWAP2 POP PUSH2 0x120 PUSH2 0x45CE DUP2 DUP7 ADD DUP5 PUSH1 0x1 PUSH1 0x1 PUSH1 0xA0 SHL SUB AND SWAP1 MSTORE JUMP JUMPDEST PUSH2 0x45D9 DUP3 DUP9 ADD PUSH2 0x449C JUMP JUMPDEST SWAP3 POP PUSH2 0x140 SWAP2 POP PUSH2 0x45ED DUP3 DUP7 ADD DUP5 ISZERO ISZERO SWAP1 MSTORE JUMP JUMPDEST PUSH2 0x45F9 DUP2 DUP9 ADD DUP9 PUSH2 0x44A7 JUMP JUMPDEST SWAP4 POP SWAP1 POP DUP2 PUSH2 0x160 DUP7 ADD MSTORE PUSH2 0x4613 PUSH2 0x180 DUP7 ADD DUP5 DUP4 PUSH2 0x44EC JUMP JUMPDEST SWAP3 POP POP POP DUP3 DUP2 SUB PUSH1 0x20 DUP5 ADD MSTORE PUSH2 0x4629 DUP2 DUP6 PUSH2 0x3B5D JUMP JUMPDEST SWAP6 SWAP5 POP POP POP POP POP JUMP JUMPDEST PUSH1 0x0 DUP1 PUSH1 0x0 PUSH1 0x60 DUP5 DUP7 SUB SLT ISZERO PUSH2 0x4647 JUMPI PUSH1 0x0 DUP1 REVERT JUMPDEST DUP4 CALLDATALOAD PUSH1 0x1 PUSH1 0x1 PUSH1 0x40 SHL SUB DUP1 DUP3 GT ISZERO PUSH2 0x465E JUMPI PUSH1 0x0 DUP1 REVERT JUMPDEST PUSH2 0x466A DUP8 DUP4 DUP9 ADD PUSH2 0x36E3 JUMP JUMPDEST SWAP5 POP PUSH1 0x20 DUP7 ADD CALLDATALOAD SWAP4 POP PUSH1 0x40 DUP7 ADD CALLDATALOAD SWAP2 POP DUP1 DUP3 GT ISZERO PUSH2 0x4687 JUMPI PUSH1 0x0 DUP1 REVERT JUMPDEST POP PUSH2 0x4694 DUP7 DUP3 DUP8 ADD PUSH2 0x36E3 JUMP JUMPDEST SWAP2 POP POP SWAP3 POP SWAP3 POP SWAP3 JUMP JUMPDEST PUSH1 0x0 DUP1 DUP4 SLOAD PUSH2 0x46AC DUP2 PUSH2 0x41D8 JUMP JUMPDEST PUSH1 0x1 DUP3 DUP2 AND DUP1 ISZERO PUSH2 0x46C4 JUMPI PUSH1 0x1 DUP2 EQ PUSH2 0x46D9 JUMPI PUSH2 0x4708 JUMP JUMPDEST PUSH1 0xFF NOT DUP5 AND DUP8 MSTORE DUP3 ISZERO ISZERO DUP4 MUL DUP8 ADD SWAP5 POP PUSH2 0x4708 JUMP JUMPDEST DUP8 PUSH1 0x0 MSTORE PUSH1 0x20 DUP1 PUSH1 0x0 KECCAK256 PUSH1 0x0 JUMPDEST DUP6 DUP2 LT ISZERO PUSH2 0x46FF JUMPI DUP2 SLOAD DUP11 DUP3 ADD MSTORE SWAP1 DUP5 ADD SWAP1 DUP3 ADD PUSH2 0x46E6 JUMP JUMPDEST POP POP POP DUP3 DUP8 ADD SWAP5 POP JUMPDEST POP SWAP3 SWAP7 SWAP6 POP POP POP POP POP POP JUMP INVALID LOG2 PUSH5 0x6970667358 0x22 SLT KECCAK256 0xD7 0x4B 0xA8 PUSH31 0x4EBA208B8EEDF20DEAE664722849985851991557CFD1D061770F03AC64736F PUSH13 0x63430008130033000000000000 "
		},
		"gasEstimates": {
			"creation": {
				"codeDepositCost": "3650000",
				"executionCost": "infinite",
				"totalCost": "infinite"
			},
			"external": {
				"amendmentsSchemaID()": "2396",
				"attest((bytes32,bytes32,uint64,uint64,uint64,bytes32,address,address,bool,bytes))": "infinite",
				"callbackContract()": "2448",
				"closeReviewRequest(string)": "infinite",
				"contractVersion()": "infinite",
				"createNonPayableRequest(string,address[],uint256[],string[],string,uint256)": "infinite",
				"createRequest(string,address[],uint256[],string[],string,uint256,address,uint256)": "infinite",
				"createReviewForm(bytes32,string[],string[][],uint8[])": "infinite",
				"getRequest(string)": "infinite",
				"getRequestReviewForm(string)": "infinite",
				"getReviewForm(uint256)": "infinite",
				"getReviewRequestsNames()": "infinite",
				"getWhitelistedTokens()": "infinite",
				"isPayable()": "265",
				"isTokenWhitelisted(address)": "infinite",
				"multiAttest((bytes32,bytes32,uint64,uint64,uint64,bytes32,address,address,bool,bytes)[],uint256[])": "infinite",
				"multiRevoke((bytes32,bytes32,uint64,uint64,uint64,bytes32,address,address,bool,bytes)[],uint256[])": "infinite",
				"owner()": "2387",
				"pause()": "28726",
				"paused()": "2356",
				"renounceOwnership()": "infinite",
				"reviewFormsTotal()": "2396",
				"reviewsSchemaID()": "2373",
				"revoke((bytes32,bytes32,uint64,uint64,uint64,bytes32,address,address,bool,bytes))": "infinite",
				"setAmendmentsSchemaID(bytes32)": "24578",
				"setCallbackContract(address)": "26781",
				"setReviewsSchemaID(bytes32)": "24577",
				"transferOwnership(address)": "28443",
				"unpause()": "26617",
				"unwhitelistToken(address)": "infinite",
				"version()": "infinite",
				"whitelistToken(address)": "infinite"
			},
			"internal": {
				"createReviewRequestCommon(string memory,address[] memory,uint256[] memory,string memory[] memory,string memory,uint256,uint256,address,bool)": "infinite",
				"hasSubmittedReview(address,string memory,uint256)": "infinite",
				"isReviewer(address,string memory)": "infinite",
				"onAttest(struct Attestation calldata,uint256)": "infinite",
				"onRevoke(struct Attestation calldata,uint256)": "23",
				"processAmendment(struct Attestation calldata)": "infinite",
				"processReview(struct Attestation calldata)": "infinite",
				"validateAnswers(struct DeresyResolver.reviewForm storage pointer,string memory[] memory)": "infinite",
				"validateHypercertID(uint256[] memory,uint256)": "infinite"
			}
		},
		"methodIdentifiers": {
			"amendmentsSchemaID()": "74987060",
			"attest((bytes32,bytes32,uint64,uint64,uint64,bytes32,address,address,bool,bytes))": "e60c3505",
			"callbackContract()": "bd7e2aa4",
			"closeReviewRequest(string)": "be2761d0",
			"contractVersion()": "a0a8e460",
			"createNonPayableRequest(string,address[],uint256[],string[],string,uint256)": "a940b874",
			"createRequest(string,address[],uint256[],string[],string,uint256,address,uint256)": "20de0462",
			"createReviewForm(bytes32,string[],string[][],uint8[])": "30940523",
			"getRequest(string)": "85b92413",
			"getRequestReviewForm(string)": "b4e137cd",
			"getReviewForm(uint256)": "b6fc76af",
			"getReviewRequestsNames()": "dd526054",
			"getWhitelistedTokens()": "e26f7900",
			"isPayable()": "ce46e046",
			"isTokenWhitelisted(address)": "b5af090f",
			"multiAttest((bytes32,bytes32,uint64,uint64,uint64,bytes32,address,address,bool,bytes)[],uint256[])": "91db0b7e",
			"multiRevoke((bytes32,bytes32,uint64,uint64,uint64,bytes32,address,address,bool,bytes)[],uint256[])": "88e5b2d9",
			"owner()": "8da5cb5b",
			"pause()": "8456cb59",
			"paused()": "5c975abb",
			"renounceOwnership()": "715018a6",
			"reviewFormsTotal()": "86be6d51",
			"reviewsSchemaID()": "9128b0d8",
			"revoke((bytes32,bytes32,uint64,uint64,uint64,bytes32,address,address,bool,bytes))": "e49617e1",
			"setAmendmentsSchemaID(bytes32)": "abe1d7f3",
			"setCallbackContract(address)": "7a35aaa9",
			"setReviewsSchemaID(bytes32)": "b8b23c17",
			"transferOwnership(address)": "f2fde38b",
			"unpause()": "3f4ba83a",
			"unwhitelistToken(address)": "d627d25e",
			"version()": "54fd4d50",
			"whitelistToken(address)": "6247f6f2"
		}
	},
	"abi": [
		{
			"inputs": [
				{
					"internalType": "contract IEAS",
					"name": "eas",
					"type": "address"
				}
			],
			"stateMutability": "nonpayable",
			"type": "constructor"
		},
		{
			"inputs": [],
			"name": "AccessDenied",
			"type": "error"
		},
		{
			"inputs": [],
			"name": "InsufficientValue",
			"type": "error"
		},
		{
			"inputs": [],
			"name": "InvalidEAS",
			"type": "error"
		},
		{
			"inputs": [],
			"name": "NotPayable",
			"type": "error"
		},
		{
			"anonymous": false,
			"inputs": [
				{
					"indexed": false,
					"internalType": "string",
					"name": "_requestName",
					"type": "string"
				}
			],
			"name": "ClosedReviewRequest",
			"type": "event"
		},
		{
			"anonymous": false,
			"inputs": [
				{
					"indexed": false,
					"internalType": "uint256",
					"name": "_formId",
					"type": "uint256"
				}
			],
			"name": "CreatedReviewForm",
			"type": "event"
		},
		{
			"anonymous": false,
			"inputs": [
				{
					"indexed": false,
					"internalType": "string",
					"name": "_requestName",
					"type": "string"
				}
			],
			"name": "CreatedReviewRequest",
			"type": "event"
		},
		{
			"anonymous": false,
			"inputs": [
				{
					"components": [
						{
							"internalType": "bytes32",
							"name": "uid",
							"type": "bytes32"
						},
						{
							"internalType": "bytes32",
							"name": "schema",
							"type": "bytes32"
						},
						{
							"internalType": "uint64",
							"name": "time",
							"type": "uint64"
						},
						{
							"internalType": "uint64",
							"name": "expirationTime",
							"type": "uint64"
						},
						{
							"internalType": "uint64",
							"name": "revocationTime",
							"type": "uint64"
						},
						{
							"internalType": "bytes32",
							"name": "refUID",
							"type": "bytes32"
						},
						{
							"internalType": "address",
							"name": "recipient",
							"type": "address"
						},
						{
							"internalType": "address",
							"name": "attester",
							"type": "address"
						},
						{
							"internalType": "bool",
							"name": "revocable",
							"type": "bool"
						},
						{
							"internalType": "bytes",
							"name": "data",
							"type": "bytes"
						}
					],
					"indexed": false,
					"internalType": "struct Attestation",
					"name": "_attestation",
					"type": "tuple"
				},
				{
					"indexed": false,
					"internalType": "string",
					"name": "_requestName",
					"type": "string"
				}
			],
			"name": "OnReviewCallback",
			"type": "event"
		},
		{
			"anonymous": false,
			"inputs": [
				{
					"indexed": true,
					"internalType": "address",
					"name": "previousOwner",
					"type": "address"
				},
				{
					"indexed": true,
					"internalType": "address",
					"name": "newOwner",
					"type": "address"
				}
			],
			"name": "OwnershipTransferred",
			"type": "event"
		},
		{
			"anonymous": false,
			"inputs": [
				{
					"indexed": false,
					"internalType": "bytes32",
					"name": "_uid",
					"type": "bytes32"
				}
			],
			"name": "SubmittedAmendment",
			"type": "event"
		},
		{
			"anonymous": false,
			"inputs": [
				{
					"indexed": false,
					"internalType": "string",
					"name": "_requestName",
					"type": "string"
				}
			],
			"name": "SubmittedReview",
			"type": "event"
		},
		{
			"inputs": [],
			"name": "amendmentsSchemaID",
			"outputs": [
				{
					"internalType": "bytes32",
					"name": "",
					"type": "bytes32"
				}
			],
			"stateMutability": "view",
			"type": "function"
		},
		{
			"inputs": [
				{
					"components": [
						{
							"internalType": "bytes32",
							"name": "uid",
							"type": "bytes32"
						},
						{
							"internalType": "bytes32",
							"name": "schema",
							"type": "bytes32"
						},
						{
							"internalType": "uint64",
							"name": "time",
							"type": "uint64"
						},
						{
							"internalType": "uint64",
							"name": "expirationTime",
							"type": "uint64"
						},
						{
							"internalType": "uint64",
							"name": "revocationTime",
							"type": "uint64"
						},
						{
							"internalType": "bytes32",
							"name": "refUID",
							"type": "bytes32"
						},
						{
							"internalType": "address",
							"name": "recipient",
							"type": "address"
						},
						{
							"internalType": "address",
							"name": "attester",
							"type": "address"
						},
						{
							"internalType": "bool",
							"name": "revocable",
							"type": "bool"
						},
						{
							"internalType": "bytes",
							"name": "data",
							"type": "bytes"
						}
					],
					"internalType": "struct Attestation",
					"name": "attestation",
					"type": "tuple"
				}
			],
			"name": "attest",
			"outputs": [
				{
					"internalType": "bool",
					"name": "",
					"type": "bool"
				}
			],
			"stateMutability": "payable",
			"type": "function"
		},
		{
			"inputs": [],
			"name": "callbackContract",
			"outputs": [
				{
					"internalType": "contract IOnReviewable",
					"name": "",
					"type": "address"
				}
			],
			"stateMutability": "view",
			"type": "function"
		},
		{
			"inputs": [
				{
					"internalType": "string",
					"name": "_name",
					"type": "string"
				}
			],
			"name": "closeReviewRequest",
			"outputs": [],
			"stateMutability": "nonpayable",
			"type": "function"
		},
		{
			"inputs": [],
			"name": "contractVersion",
			"outputs": [
				{
					"internalType": "string",
					"name": "",
					"type": "string"
				}
			],
			"stateMutability": "view",
			"type": "function"
		},
		{
			"inputs": [
				{
					"internalType": "string",
					"name": "_name",
					"type": "string"
				},
				{
					"internalType": "address[]",
					"name": "reviewers",
					"type": "address[]"
				},
				{
					"internalType": "uint256[]",
					"name": "hypercertIDs",
					"type": "uint256[]"
				},
				{
					"internalType": "string[]",
					"name": "hypercertIPFSHashes",
					"type": "string[]"
				},
				{
					"internalType": "string",
					"name": "formIpfsHash",
					"type": "string"
				},
				{
					"internalType": "uint256",
					"name": "reviewFormIndex",
					"type": "uint256"
				}
			],
			"name": "createNonPayableRequest",
			"outputs": [],
			"stateMutability": "nonpayable",
			"type": "function"
		},
		{
			"inputs": [
				{
					"internalType": "string",
					"name": "_name",
					"type": "string"
				},
				{
					"internalType": "address[]",
					"name": "reviewers",
					"type": "address[]"
				},
				{
					"internalType": "uint256[]",
					"name": "hypercertIDs",
					"type": "uint256[]"
				},
				{
					"internalType": "string[]",
					"name": "hypercertIPFSHashes",
					"type": "string[]"
				},
				{
					"internalType": "string",
					"name": "formIpfsHash",
					"type": "string"
				},
				{
					"internalType": "uint256",
					"name": "rewardPerReview",
					"type": "uint256"
				},
				{
					"internalType": "address",
					"name": "paymentTokenAddress",
					"type": "address"
				},
				{
					"internalType": "uint256",
					"name": "reviewFormIndex",
					"type": "uint256"
				}
			],
			"name": "createRequest",
			"outputs": [],
			"stateMutability": "payable",
			"type": "function"
		},
		{
			"inputs": [
				{
					"internalType": "bytes32",
					"name": "easSchemaID",
					"type": "bytes32"
				},
				{
					"internalType": "string[]",
					"name": "questions",
					"type": "string[]"
				},
				{
					"internalType": "string[][]",
					"name": "choices",
					"type": "string[][]"
				},
				{
					"internalType": "enum DeresyResolver.QuestionType[]",
					"name": "questionTypes",
					"type": "uint8[]"
				}
			],
			"name": "createReviewForm",
			"outputs": [
				{
					"internalType": "uint256",
					"name": "",
					"type": "uint256"
				}
			],
			"stateMutability": "nonpayable",
			"type": "function"
		},
		{
			"inputs": [
				{
					"internalType": "string",
					"name": "_name",
					"type": "string"
				}
			],
			"name": "getRequest",
			"outputs": [
				{
					"internalType": "address[]",
					"name": "reviewers",
					"type": "address[]"
				},
				{
					"internalType": "uint256[]",
					"name": "hypercertIDs",
					"type": "uint256[]"
				},
				{
					"internalType": "string[]",
					"name": "hypercertIPFSHashes",
					"type": "string[]"
				},
				{
					"internalType": "string",
					"name": "formIpfsHash",
					"type": "string"
				},
				{
					"internalType": "uint256",
					"name": "rewardPerReview",
					"type": "uint256"
				},
				{
					"components": [
						{
							"internalType": "address",
							"name": "reviewer",
							"type": "address"
						},
						{
							"internalType": "uint256",
							"name": "hypercertID",
							"type": "uint256"
						},
						{
							"internalType": "bytes32",
							"name": "attestationID",
							"type": "bytes32"
						},
						{
							"internalType": "bytes32[]",
							"name": "amendmentsUIDs",
							"type": "bytes32[]"
						}
					],
					"internalType": "struct DeresyResolver.Review[]",
					"name": "reviews",
					"type": "tuple[]"
				},
				{
					"internalType": "uint256",
					"name": "reviewFormIndex",
					"type": "uint256"
				},
				{
					"internalType": "bool",
					"name": "isClosed",
					"type": "bool"
				},
				{
					"internalType": "address",
					"name": "paymentTokenAddress",
					"type": "address"
				}
			],
			"stateMutability": "view",
			"type": "function"
		},
		{
			"inputs": [
				{
					"internalType": "string",
					"name": "_name",
					"type": "string"
				}
			],
			"name": "getRequestReviewForm",
			"outputs": [
				{
					"internalType": "string[]",
					"name": "",
					"type": "string[]"
				},
				{
					"internalType": "enum DeresyResolver.QuestionType[]",
					"name": "",
					"type": "uint8[]"
				},
				{
					"internalType": "string[][]",
					"name": "choices",
					"type": "string[][]"
				},
				{
					"internalType": "bytes32",
					"name": "",
					"type": "bytes32"
				}
			],
			"stateMutability": "view",
			"type": "function"
		},
		{
			"inputs": [
				{
					"internalType": "uint256",
					"name": "_reviewFormIndex",
					"type": "uint256"
				}
			],
			"name": "getReviewForm",
			"outputs": [
				{
					"internalType": "string[]",
					"name": "questions",
					"type": "string[]"
				},
				{
					"internalType": "enum DeresyResolver.QuestionType[]",
					"name": "questionTypes",
					"type": "uint8[]"
				},
				{
					"internalType": "string[][]",
					"name": "choices",
					"type": "string[][]"
				},
				{
					"internalType": "bytes32",
					"name": "easSchemaID",
					"type": "bytes32"
				}
			],
			"stateMutability": "view",
			"type": "function"
		},
		{
			"inputs": [],
			"name": "getReviewRequestsNames",
			"outputs": [
				{
					"internalType": "string[]",
					"name": "",
					"type": "string[]"
				}
			],
			"stateMutability": "view",
			"type": "function"
		},
		{
			"inputs": [],
			"name": "getWhitelistedTokens",
			"outputs": [
				{
					"internalType": "address[]",
					"name": "",
					"type": "address[]"
				}
			],
			"stateMutability": "view",
			"type": "function"
		},
		{
			"inputs": [],
			"name": "isPayable",
			"outputs": [
				{
					"internalType": "bool",
					"name": "",
					"type": "bool"
				}
			],
			"stateMutability": "pure",
			"type": "function"
		},
		{
			"inputs": [
				{
					"internalType": "address",
					"name": "tokenAddress",
					"type": "address"
				}
			],
			"name": "isTokenWhitelisted",
			"outputs": [
				{
					"internalType": "bool",
					"name": "",
					"type": "bool"
				}
			],
			"stateMutability": "view",
			"type": "function"
		},
		{
			"inputs": [
				{
					"components": [
						{
							"internalType": "bytes32",
							"name": "uid",
							"type": "bytes32"
						},
						{
							"internalType": "bytes32",
							"name": "schema",
							"type": "bytes32"
						},
						{
							"internalType": "uint64",
							"name": "time",
							"type": "uint64"
						},
						{
							"internalType": "uint64",
							"name": "expirationTime",
							"type": "uint64"
						},
						{
							"internalType": "uint64",
							"name": "revocationTime",
							"type": "uint64"
						},
						{
							"internalType": "bytes32",
							"name": "refUID",
							"type": "bytes32"
						},
						{
							"internalType": "address",
							"name": "recipient",
							"type": "address"
						},
						{
							"internalType": "address",
							"name": "attester",
							"type": "address"
						},
						{
							"internalType": "bool",
							"name": "revocable",
							"type": "bool"
						},
						{
							"internalType": "bytes",
							"name": "data",
							"type": "bytes"
						}
					],
					"internalType": "struct Attestation[]",
					"name": "attestations",
					"type": "tuple[]"
				},
				{
					"internalType": "uint256[]",
					"name": "values",
					"type": "uint256[]"
				}
			],
			"name": "multiAttest",
			"outputs": [
				{
					"internalType": "bool",
					"name": "",
					"type": "bool"
				}
			],
			"stateMutability": "payable",
			"type": "function"
		},
		{
			"inputs": [
				{
					"components": [
						{
							"internalType": "bytes32",
							"name": "uid",
							"type": "bytes32"
						},
						{
							"internalType": "bytes32",
							"name": "schema",
							"type": "bytes32"
						},
						{
							"internalType": "uint64",
							"name": "time",
							"type": "uint64"
						},
						{
							"internalType": "uint64",
							"name": "expirationTime",
							"type": "uint64"
						},
						{
							"internalType": "uint64",
							"name": "revocationTime",
							"type": "uint64"
						},
						{
							"internalType": "bytes32",
							"name": "refUID",
							"type": "bytes32"
						},
						{
							"internalType": "address",
							"name": "recipient",
							"type": "address"
						},
						{
							"internalType": "address",
							"name": "attester",
							"type": "address"
						},
						{
							"internalType": "bool",
							"name": "revocable",
							"type": "bool"
						},
						{
							"internalType": "bytes",
							"name": "data",
							"type": "bytes"
						}
					],
					"internalType": "struct Attestation[]",
					"name": "attestations",
					"type": "tuple[]"
				},
				{
					"internalType": "uint256[]",
					"name": "values",
					"type": "uint256[]"
				}
			],
			"name": "multiRevoke",
			"outputs": [
				{
					"internalType": "bool",
					"name": "",
					"type": "bool"
				}
			],
			"stateMutability": "payable",
			"type": "function"
		},
		{
			"inputs": [],
			"name": "owner",
			"outputs": [
				{
					"internalType": "address",
					"name": "",
					"type": "address"
				}
			],
			"stateMutability": "view",
			"type": "function"
		},
		{
			"inputs": [],
			"name": "pause",
			"outputs": [],
			"stateMutability": "nonpayable",
			"type": "function"
		},
		{
			"inputs": [],
			"name": "paused",
			"outputs": [
				{
					"internalType": "bool",
					"name": "",
					"type": "bool"
				}
			],
			"stateMutability": "view",
			"type": "function"
		},
		{
			"inputs": [],
			"name": "renounceOwnership",
			"outputs": [],
			"stateMutability": "nonpayable",
			"type": "function"
		},
		{
			"inputs": [],
			"name": "reviewFormsTotal",
			"outputs": [
				{
					"internalType": "uint256",
					"name": "",
					"type": "uint256"
				}
			],
			"stateMutability": "view",
			"type": "function"
		},
		{
			"inputs": [],
			"name": "reviewsSchemaID",
			"outputs": [
				{
					"internalType": "bytes32",
					"name": "",
					"type": "bytes32"
				}
			],
			"stateMutability": "view",
			"type": "function"
		},
		{
			"inputs": [
				{
					"components": [
						{
							"internalType": "bytes32",
							"name": "uid",
							"type": "bytes32"
						},
						{
							"internalType": "bytes32",
							"name": "schema",
							"type": "bytes32"
						},
						{
							"internalType": "uint64",
							"name": "time",
							"type": "uint64"
						},
						{
							"internalType": "uint64",
							"name": "expirationTime",
							"type": "uint64"
						},
						{
							"internalType": "uint64",
							"name": "revocationTime",
							"type": "uint64"
						},
						{
							"internalType": "bytes32",
							"name": "refUID",
							"type": "bytes32"
						},
						{
							"internalType": "address",
							"name": "recipient",
							"type": "address"
						},
						{
							"internalType": "address",
							"name": "attester",
							"type": "address"
						},
						{
							"internalType": "bool",
							"name": "revocable",
							"type": "bool"
						},
						{
							"internalType": "bytes",
							"name": "data",
							"type": "bytes"
						}
					],
					"internalType": "struct Attestation",
					"name": "attestation",
					"type": "tuple"
				}
			],
			"name": "revoke",
			"outputs": [
				{
					"internalType": "bool",
					"name": "",
					"type": "bool"
				}
			],
			"stateMutability": "payable",
			"type": "function"
		},
		{
			"inputs": [
				{
					"internalType": "bytes32",
					"name": "_amendmentsSchemaID",
					"type": "bytes32"
				}
			],
			"name": "setAmendmentsSchemaID",
			"outputs": [],
			"stateMutability": "nonpayable",
			"type": "function"
		},
		{
			"inputs": [
				{
					"internalType": "address",
					"name": "_callbackContractAddress",
					"type": "address"
				}
			],
			"name": "setCallbackContract",
			"outputs": [],
			"stateMutability": "nonpayable",
			"type": "function"
		},
		{
			"inputs": [
				{
					"internalType": "bytes32",
					"name": "_reviewsSchemaID",
					"type": "bytes32"
				}
			],
			"name": "setReviewsSchemaID",
			"outputs": [],
			"stateMutability": "nonpayable",
			"type": "function"
		},
		{
			"inputs": [
				{
					"internalType": "address",
					"name": "newOwner",
					"type": "address"
				}
			],
			"name": "transferOwnership",
			"outputs": [],
			"stateMutability": "nonpayable",
			"type": "function"
		},
		{
			"inputs": [],
			"name": "unpause",
			"outputs": [],
			"stateMutability": "nonpayable",
			"type": "function"
		},
		{
			"inputs": [
				{
					"internalType": "address",
					"name": "tokenAddress",
					"type": "address"
				}
			],
			"name": "unwhitelistToken",
			"outputs": [],
			"stateMutability": "nonpayable",
			"type": "function"
		},
		{
			"inputs": [],
			"name": "version",
			"outputs": [
				{
					"internalType": "string",
					"name": "",
					"type": "string"
				}
			],
			"stateMutability": "view",
			"type": "function"
		},
		{
			"inputs": [
				{
					"internalType": "address",
					"name": "tokenAddress",
					"type": "address"
				}
			],
			"name": "whitelistToken",
			"outputs": [],
			"stateMutability": "nonpayable",
			"type": "function"
		},
		{
			"stateMutability": "payable",
			"type": "receive"
		}
	]
}