{
	"data": {
		"bytecode": {
			"linkReferences": {},
			"object": "6101006040526040518060400160405280600381526020017f302e320000000000000000000000000000000000000000000000000000000000815250600590816200004b9190620004a9565b503480156200005957600080fd5b50604051620060253803806200602583398181016040528101906200007f91906200060e565b80600160008082608081815250508160a081815250508060c08181525050505050600073ffffffffffffffffffffffffffffffffffffffff168173ffffffffffffffffffffffffffffffffffffffff160362000107576040517f83780ffe00000000000000000000000000000000000000000000000000000000815260040160405180910390fd5b8073ffffffffffffffffffffffffffffffffffffffff1660e08173ffffffffffffffffffffffffffffffffffffffff1681525050506200015c620001506200016360201b60201c565b6200016b60201b60201c565b5062000640565b600033905090565b60008060009054906101000a900473ffffffffffffffffffffffffffffffffffffffff169050816000806101000a81548173ffffffffffffffffffffffffffffffffffffffff021916908373ffffffffffffffffffffffffffffffffffffffff1602179055508173ffffffffffffffffffffffffffffffffffffffff168173ffffffffffffffffffffffffffffffffffffffff167f8be0079c531659141344cd1fd0a4f28419497f9722a3daafe3b4186f6b6457e060405160405180910390a35050565b600081519050919050565b7f4e487b7100000000000000000000000000000000000000000000000000000000600052604160045260246000fd5b7f4e487b7100000000000000000000000000000000000000000000000000000000600052602260045260246000fd5b60006002820490506001821680620002b157607f821691505b602082108103620002c757620002c662000269565b5b50919050565b60008190508160005260206000209050919050565b60006020601f8301049050919050565b600082821b905092915050565b600060088302620003317fffffffffffffffffffffffffffffffffffffffffffffffffffffffffffffffff82620002f2565b6200033d8683620002f2565b95508019841693508086168417925050509392505050565b6000819050919050565b6000819050919050565b60006200038a620003846200037e8462000355565b6200035f565b62000355565b9050919050565b6000819050919050565b620003a68362000369565b620003be620003b58262000391565b848454620002ff565b825550505050565b600090565b620003d5620003c6565b620003e28184846200039b565b505050565b5b818110156200040a57620003fe600082620003cb565b600181019050620003e8565b5050565b601f82111562000459576200042381620002cd565b6200042e84620002e2565b810160208510156200043e578190505b620004566200044d85620002e2565b830182620003e7565b50505b505050565b600082821c905092915050565b60006200047e600019846008026200045e565b1980831691505092915050565b60006200049983836200046b565b9150826002028217905092915050565b620004b4826200022f565b67ffffffffffffffff811115620004d057620004cf6200023a565b5b620004dc825462000298565b620004e98282856200040e565b600060209050601f8311600181146200052157600084156200050c578287015190505b6200051885826200048b565b86555062000588565b601f1984166200053186620002cd565b60005b828110156200055b5784890151825560018201915060208501945060208101905062000534565b868310156200057b578489015162000577601f8916826200046b565b8355505b6001600288020188555050505b505050505050565b600080fd5b600073ffffffffffffffffffffffffffffffffffffffff82169050919050565b6000620005c28262000595565b9050919050565b6000620005d682620005b5565b9050919050565b620005e881620005c9565b8114620005f457600080fd5b50565b6000815190506200060881620005dd565b92915050565b60006020828403121562000627576200062662000590565b5b60006200063784828501620005f7565b91505092915050565b60805160a05160c05160e0516159ab6200067a6000396000611c6c0152600061081f015260006107f6015260006107cd01526159ab6000f3fe60806040526004361061012e5760003560e01c8063a8cb0d87116100ab578063be2761d01161006f578063be2761d014610435578063ce46e0461461045e578063dd52605414610489578063e49617e1146104b4578063e60c3505146104e4578063f2fde38b1461051457610173565b8063a8cb0d8714610345578063a940b87414610361578063b4e137cd1461038a578063b6fc76af146103ca578063bd7e2aa41461040a57610173565b806386be6d51116100f257806386be6d511461026457806388e5b2d91461028f5780638da5cb5b146102bf57806391db0b7e146102ea578063a0a8e4601461031a57610173565b8063309405231461017857806354fd4d50146101b5578063715018a6146101e05780637a35aaa9146101f757806385b924131461022057610173565b366101735761013b61053d565b610171576040517f1574f9f300000000000000000000000000000000000000000000000000000000815260040160405180910390fd5b005b600080fd5b34801561018457600080fd5b5061019f600480360381019061019a91906134c9565b610542565b6040516101ac919061359d565b60405180910390f35b3480156101c157600080fd5b506101ca6107c6565b6040516101d79190613637565b60405180910390f35b3480156101ec57600080fd5b506101f5610869565b005b34801561020357600080fd5b5061021e600480360381019061021991906136b7565b61087d565b005b34801561022c57600080fd5b50610247600480360381019061024291906136e4565b6108c9565b60405161025b989796959493929190613ad0565b60405180910390f35b34801561027057600080fd5b50610279610d84565b604051610286919061359d565b60405180910390f35b6102a960048036038101906102a49190613c22565b610d8a565b6040516102b69190613ca3565b60405180910390f35b3480156102cb57600080fd5b506102d4610e69565b6040516102e19190613ccd565b60405180910390f35b61030460048036038101906102ff9190613c22565b610e92565b6040516103119190613ca3565b60405180910390f35b34801561032657600080fd5b5061032f610f71565b60405161033c9190613637565b60405180910390f35b61035f600480360381019061035a9190613e9a565b610fff565b005b34801561036d57600080fd5b5061038860048036038101906103839190613fc8565b611019565b005b34801561039657600080fd5b506103b160048036038101906103ac91906136e4565b611033565b6040516103c1949392919061435e565b60405180910390f35b3480156103d657600080fd5b506103f160048036038101906103ec91906143b8565b61131b565b604051610401949392919061435e565b60405180910390f35b34801561041657600080fd5b5061041f61163a565b60405161042c9190614444565b60405180910390f35b34801561044157600080fd5b5061045c600480360381019061045791906136e4565b611660565b005b34801561046a57600080fd5b5061047361053d565b6040516104809190613ca3565b60405180910390f35b34801561049557600080fd5b5061049e6118c8565b6040516104ab919061445f565b60405180910390f35b6104ce60048036038101906104c991906144a6565b6119a1565b6040516104db9190613ca3565b60405180910390f35b6104fe60048036038101906104f991906144a6565b6119bc565b60405161050b9190613ca3565b60405180910390f35b34801561052057600080fd5b5061053b600480360381019061053691906136b7565b6119d7565b005b600090565b60008060001b8503610589576040517f08c379a000000000000000000000000000000000000000000000000000000000815260040161058090614561565b60405180910390fd5b60008451116105cd576040517f08c379a00000000000000000000000000000000000000000000000000000000081526004016105c4906145cd565b60405180910390fd5b6000825111610611576040517f08c379a00000000000000000000000000000000000000000000000000000000081526004016106089061465f565b60405180910390fd5b8351825114610655576040517f08c379a000000000000000000000000000000000000000000000000000000000815260040161064c906146f1565b60405180910390fd5b8251845114610699576040517f08c379a000000000000000000000000000000000000000000000000000000000815260040161069090614783565b60405180910390fd5b6006604051806080016040528087815260200186815260200184815260200185815250908060018154018082558091505060019003906000526020600020906004020160009091909190915060008201518160000155602082015181600101908051906020019061070b929190612d7e565b506040820151816002019080519060200190610728929190612dd7565b506060820151816003019080519060200190610745929190612e8d565b50505060016004600082825461075b91906147d2565b925050819055507f2ca1c706b776fc626b1e93b556d8968577908c5fee79ca88376ade10b781019c60016006805490506107959190614806565b6040516107a2919061359d565b60405180910390a160016006805490506107bc9190614806565b9050949350505050565b60606107f17f0000000000000000000000000000000000000000000000000000000000000000611a5a565b61081a7f0000000000000000000000000000000000000000000000000000000000000000611a5a565b6108437f0000000000000000000000000000000000000000000000000000000000000000611a5a565b604051602001610855939291906148c2565b604051602081830303815290604052905090565b610871611b28565b61087b6000611ba6565b565b610885611b28565b80600160006101000a81548173ffffffffffffffffffffffffffffffffffffffff021916908373ffffffffffffffffffffffffffffffffffffffff16021790555050565b60608060608060006060600080600060028a6040516108e89190614909565b9081526020016040518091039020604051806101600160405290816000820160009054906101000a900473ffffffffffffffffffffffffffffffffffffffff1673ffffffffffffffffffffffffffffffffffffffff1673ffffffffffffffffffffffffffffffffffffffff168152602001600182018054806020026020016040519081016040528092919081815260200182805480156109dd57602002820191906000526020600020905b8160009054906101000a900473ffffffffffffffffffffffffffffffffffffffff1673ffffffffffffffffffffffffffffffffffffffff1681526020019060010190808311610993575b5050505050815260200160028201805480602002602001604051908101604052809291908181526020018280548015610a3557602002820191906000526020600020905b815481526020019060010190808311610a21575b5050505050815260200160038201805480602002602001604051908101604052809291908181526020016000905b82821015610b0f578382906000526020600020018054610a829061494f565b80601f0160208091040260200160405190810160405280929190818152602001828054610aae9061494f565b8015610afb5780601f10610ad057610100808354040283529160200191610afb565b820191906000526020600020905b815481529060010190602001808311610ade57829003601f168201915b505050505081526020019060010190610a63565b505050508152602001600482018054610b279061494f565b80601f0160208091040260200160405190810160405280929190818152602001828054610b539061494f565b8015610ba05780601f10610b7557610100808354040283529160200191610ba0565b820191906000526020600020905b815481529060010190602001808311610b8357829003601f168201915b505050505081526020016005820154815260200160068201805480602002602001604051908101604052809291908181526020016000905b82821015610c7457838290600052602060002090600302016040518060600160405290816000820160009054906101000a900473ffffffffffffffffffffffffffffffffffffffff1673ffffffffffffffffffffffffffffffffffffffff1673ffffffffffffffffffffffffffffffffffffffff1681526020016001820154815260200160028201548152505081526020019060010190610bd8565b5050505081526020016007820160009054906101000a900460ff161515151581526020016008820154815260200160098201548152602001600a82018054610cbb9061494f565b80601f0160208091040260200160405190810160405280929190818152602001828054610ce79061494f565b8015610d345780601f10610d0957610100808354040283529160200191610d34565b820191906000526020600020905b815481529060010190602001808311610d1757829003601f168201915b505050505081525050905080602001518160400151826060015183608001518460a001518560c001518661012001518760e001519850985098509850985098509850985050919395975091939597565b60045481565b6000610d94611c6a565b6000858590509050600034905060005b82811015610e59576000868683818110610dc157610dc0614980565b5b90506020020135905082811115610e04576040517f1101129400000000000000000000000000000000000000000000000000000000815260040160405180910390fd5b610e32898984818110610e1a57610e19614980565b5b9050602002810190610e2c91906149be565b82611cf1565b610e43576000945050505050610e61565b808303925050610e5281611cfd565b9050610da4565b506001925050505b949350505050565b60008060009054906101000a900473ffffffffffffffffffffffffffffffffffffffff16905090565b6000610e9c611c6a565b6000858590509050600034905060005b82811015610f61576000868683818110610ec957610ec8614980565b5b90506020020135905082811115610f0c576040517f1101129400000000000000000000000000000000000000000000000000000000815260040160405180910390fd5b610f3a898984818110610f2257610f21614980565b5b9050602002810190610f3491906149be565b82611d0a565b610f4b576000945050505050610f69565b808303925050610f5a81611cfd565b9050610eac565b506001925050505b949350505050565b60058054610f7e9061494f565b80601f0160208091040260200160405190810160405280929190818152602001828054610faa9061494f565b8015610ff75780601f10610fcc57610100808354040283529160200191610ff7565b820191906000526020600020905b815481529060010190602001808311610fda57829003601f168201915b505050505081565b611010878787878787876001612119565b50505050505050565b61102b86868686866000876000612119565b505050505050565b606080606060008060028660405161104b9190614909565b908152602001604051809103902090506000600682600901548154811061107557611074614980565b5b90600052602060002090600402019050806001018160020182600301836000015483805480602002602001604051908101604052809291908181526020016000905b828210156111635783829060005260206000200180546110d69061494f565b80601f01602080910402602001604051908101604052809291908181526020018280546111029061494f565b801561114f5780601f106111245761010080835404028352916020019161114f565b820191906000526020600020905b81548152906001019060200180831161113257829003601f168201915b5050505050815260200190600101906110b7565b505050509350828054806020026020016040519081016040528092919081815260200182805480156111e957602002820191906000526020600020906000905b82829054906101000a900460ff1660028111156111c3576111c261410d565b5b815260200190600101906020826000010492830192600103820291508084116111a35790505b5050505050925081805480602002602001604051908101604052809291908181526020016000905b8282101561130457838290600052602060002001805480602002602001604051908101604052809291908181526020016000905b828210156112f15783829060005260206000200180546112649061494f565b80601f01602080910402602001604051908101604052809291908181526020018280546112909061494f565b80156112dd5780601f106112b2576101008083540402835291602001916112dd565b820191906000526020600020905b8154815290600101906020018083116112c057829003601f168201915b505050505081526020019060010190611245565b5050505081526020019060010190611211565b505050509150955095509550955050509193509193565b606080606060006006858154811061133657611335614980565b5b90600052602060002090600402016001016006868154811061135b5761135a614980565b5b9060005260206000209060040201600201600687815481106113805761137f614980565b5b9060005260206000209060040201600301600688815481106113a5576113a4614980565b5b90600052602060002090600402016000015483805480602002602001604051908101604052809291908181526020016000905b828210156114845783829060005260206000200180546113f79061494f565b80601f01602080910402602001604051908101604052809291908181526020018280546114239061494f565b80156114705780601f1061144557610100808354040283529160200191611470565b820191906000526020600020905b81548152906001019060200180831161145357829003601f168201915b5050505050815260200190600101906113d8565b5050505093508280548060200260200160405190810160405280929190818152602001828054801561150a57602002820191906000526020600020906000905b82829054906101000a900460ff1660028111156114e4576114e361410d565b5b815260200190600101906020826000010492830192600103820291508084116114c45790505b5050505050925081805480602002602001604051908101604052809291908181526020016000905b8282101561162557838290600052602060002001805480602002602001604051908101604052809291908181526020016000905b828210156116125783829060005260206000200180546115859061494f565b80601f01602080910402602001604051908101604052809291908181526020018280546115b19061494f565b80156115fe5780601f106115d3576101008083540402835291602001916115fe565b820191906000526020600020905b8154815290600101906020018083116115e157829003601f168201915b505050505081526020019060010190611566565b5050505081526020019060010190611532565b50505050915093509350935093509193509193565b600160009054906101000a900473ffffffffffffffffffffffffffffffffffffffff1681565b6002816040516116709190614909565b908152602001604051809103902060000160009054906101000a900473ffffffffffffffffffffffffffffffffffffffff1673ffffffffffffffffffffffffffffffffffffffff163373ffffffffffffffffffffffffffffffffffffffff161461170f576040517f08c379a000000000000000000000000000000000000000000000000000000000815260040161170690614a33565b60405180910390fd5b600015156002826040516117239190614909565b908152602001604051809103902060070160009054906101000a900460ff16151514611784576040517f08c379a000000000000000000000000000000000000000000000000000000000815260040161177b90614a9f565b60405180910390fd5b6002816040516117949190614909565b908152602001604051809103902060000160009054906101000a900473ffffffffffffffffffffffffffffffffffffffff1673ffffffffffffffffffffffffffffffffffffffff166108fc6002836040516117ef9190614909565b9081526020016040518091039020600801549081150290604051600060405180830381858888f1935050505015801561182c573d6000803e3d6000fd5b50600160028260405161183f9190614909565b908152602001604051809103902060070160006101000a81548160ff02191690831515021790555060006002826040516118799190614909565b9081526020016040518091039020600801819055507fbc5c8cb2024ed254e024e37b09895ecaa07948dd0fd7a08e30b80f559888f2cf816040516118bd9190613637565b60405180910390a150565b60606003805480602002602001604051908101604052809291908181526020016000905b8282101561199857838290600052602060002001805461190b9061494f565b80601f01602080910402602001604051908101604052809291908181526020018280546119379061494f565b80156119845780601f1061195957610100808354040283529160200191611984565b820191906000526020600020905b81548152906001019060200180831161196757829003601f168201915b5050505050815260200190600101906118ec565b50505050905090565b60006119ab611c6a565b6119b58234611cf1565b9050919050565b60006119c6611c6a565b6119d08234611d0a565b9050919050565b6119df611b28565b600073ffffffffffffffffffffffffffffffffffffffff168173ffffffffffffffffffffffffffffffffffffffff1603611a4e576040517f08c379a0000000000000000000000000000000000000000000000000000000008152600401611a4590614b31565b60405180910390fd5b611a5781611ba6565b50565b606060006001611a6984612687565b01905060008167ffffffffffffffff811115611a8857611a876130ea565b5b6040519080825280601f01601f191660200182016040528015611aba5781602001600182028036833780820191505090505b509050600082602001820190505b600115611b1d578080600190039150507f3031323334353637383961626364656600000000000000000000000000000000600a86061a8153600a8581611b1157611b10614b51565b5b04945060008503611ac8575b819350505050919050565b611b306127da565b73ffffffffffffffffffffffffffffffffffffffff16611b4e610e69565b73ffffffffffffffffffffffffffffffffffffffff1614611ba4576040517f08c379a0000000000000000000000000000000000000000000000000000000008152600401611b9b90614bcc565b60405180910390fd5b565b60008060009054906101000a900473ffffffffffffffffffffffffffffffffffffffff169050816000806101000a81548173ffffffffffffffffffffffffffffffffffffffff021916908373ffffffffffffffffffffffffffffffffffffffff1602179055508173ffffffffffffffffffffffffffffffffffffffff168173ffffffffffffffffffffffffffffffffffffffff167f8be0079c531659141344cd1fd0a4f28419497f9722a3daafe3b4186f6b6457e060405160405180910390a35050565b7f000000000000000000000000000000000000000000000000000000000000000073ffffffffffffffffffffffffffffffffffffffff163373ffffffffffffffffffffffffffffffffffffffff1614611cef576040517f4ca8886700000000000000000000000000000000000000000000000000000000815260040160405180910390fd5b565b60006001905092915050565b6000600182019050919050565b60008060008085806101200190611d219190614bec565b810190611d2e9190614c4f565b509250925092506000600284604051611d479190614909565b9081526020016040518091039020905060006006826009015481548110611d7157611d70614980565b5b9060005260206000209060040201905060008860e0016020810190611d9691906136b7565b905060008960000135905060008460070160009054906101000a900460ff16158015611e1a5750611e1985600201805480602002602001604051908101604052809291908181526020018280548015611e0e57602002820191906000526020600020905b815481526020019060010190808311611dfa575b5050505050886127e2565b5b8015611e2d575085518460010180549050145b8015611e3f5750611e3e838961283d565b5b8015611e525750611e51838989612926565b5b8015611e645750611e638487612a67565b5b90508015612108578460060160405180606001604052808573ffffffffffffffffffffffffffffffffffffffff16815260200189815260200184815250908060018154018082558091505060019003906000526020600020906003020160009091909190915060008201518160000160006101000a81548173ffffffffffffffffffffffffffffffffffffffff021916908373ffffffffffffffffffffffffffffffffffffffff16021790555060208201518160010155604082015181600201555050600085600501541115611f9f578460050154856008016000828254611f4c9190614806565b925050819055508273ffffffffffffffffffffffffffffffffffffffff166108fc86600501549081150290604051600060405180830381858888f19350505050158015611f9d573d6000803e3d6000fd5b505b600073ffffffffffffffffffffffffffffffffffffffff16600160009054906101000a900473ffffffffffffffffffffffffffffffffffffffff1673ffffffffffffffffffffffffffffffffffffffff16146120d057600160009054906101000a900473ffffffffffffffffffffffffffffffffffffffff1673ffffffffffffffffffffffffffffffffffffffff1663bb69ab338c8a6040518363ffffffff1660e01b8152600401612052929190614fcc565b6020604051808303816000875af1158015612071573d6000803e3d6000fd5b505050506040513d601f19601f820116820180604052508101906120959190615018565b507f253a8677adaec417dae20224e9f7eb1182aed5a01b1938114cb310cd5c5d954d8b896040516120c7929190614fcc565b60405180910390a15b7f4d6dd501df538f815f442947c933fc2f545525e75f909b918a6d0701acc7904c886040516120ff9190613637565b60405180910390a15b809850505050505050505092915050565b600087511161215d576040517f08c379a000000000000000000000000000000000000000000000000000000000815260040161215490615091565b60405180910390fd5b60008651116121a1576040517f08c379a000000000000000000000000000000000000000000000000000000000815260040161219890615123565b60405180910390fd5b60008551116121e5576040517f08c379a00000000000000000000000000000000000000000000000000000000081526004016121dc906151b5565b60405180910390fd5b8451865114612229576040517f08c379a00000000000000000000000000000000000000000000000000000000081526004016122209061526d565b60405180910390fd5b600160068054905061223b9190614806565b82111561227d576040517f08c379a0000000000000000000000000000000000000000000000000000000008152600401612274906152d9565b60405180910390fd5b600073ffffffffffffffffffffffffffffffffffffffff166002896040516122a59190614909565b908152602001604051809103902060000160009054906101000a900473ffffffffffffffffffffffffffffffffffffffff1673ffffffffffffffffffffffffffffffffffffffff161461232d576040517f08c379a000000000000000000000000000000000000000000000000000000000815260040161232490615345565b60405180910390fd5b80156123d65760008311612376576040517f08c379a000000000000000000000000000000000000000000000000000000000815260040161236d906153fd565b60405180910390fd5b8286518851612385919061541d565b61238f919061541d565b3410156123d1576040517f08c379a00000000000000000000000000000000000000000000000000000000081526004016123c8906154ab565b60405180910390fd5b61241a565b60008314612419576040517f08c379a00000000000000000000000000000000000000000000000000000000081526004016124109061553d565b60405180910390fd5b5b3360028960405161242b9190614909565b908152602001604051809103902060000160006101000a81548173ffffffffffffffffffffffffffffffffffffffff021916908373ffffffffffffffffffffffffffffffffffffffff1602179055508660028960405161248b9190614909565b908152602001604051809103902060010190805190602001906124af929190612eed565b50856002896040516124c19190614909565b908152602001604051809103902060020190805190602001906124e5929190612f77565b50846002896040516124f79190614909565b9081526020016040518091039020600301908051906020019061251b929190612d7e565b508360028960405161252d9190614909565b9081526020016040518091039020600401908161254a91906156ff565b5080612557576000612559565b825b6002896040516125699190614909565b90815260200160405180910390206005018190555060006002896040516125909190614909565b908152602001604051809103902060070160006101000a81548160ff021916908315150217905550806125c45760006125c6565b345b6002896040516125d69190614909565b908152602001604051809103902060080181905550816002896040516125fc9190614909565b90815260200160405180910390206009018190555060038890806001815401808255809150506001900390600052602060002001600090919091909150908161264591906156ff565b507f0448feabbf5bb385eb3ea2cb16d90b1cb3b4c8936e399cf7a10e7b8946eec667886040516126759190613637565b60405180910390a15050505050505050565b600080600090507a184f03e93ff9f4daa797ed6e38ed64bf6a1f01000000000000000083106126e5577a184f03e93ff9f4daa797ed6e38ed64bf6a1f01000000000000000083816126db576126da614b51565b5b0492506040810190505b6d04ee2d6d415b85acef81000000008310612722576d04ee2d6d415b85acef8100000000838161271857612717614b51565b5b0492506020810190505b662386f26fc10000831061275157662386f26fc10000838161274757612746614b51565b5b0492506010810190505b6305f5e100831061277a576305f5e10083816127705761276f614b51565b5b0492506008810190505b612710831061279f57612710838161279557612794614b51565b5b0492506004810190505b606483106127c257606483816127b8576127b7614b51565b5b0492506002810190505b600a83106127d1576001810190505b80915050919050565b600033905090565b600080600090505b8351811015612831578284828151811061280757612806614980565b5b60200260200101510361281e576001915050612837565b8080612829906157d1565b9150506127ea565b50600090505b92915050565b6000806000905060005b6002846040516128579190614909565b90815260200160405180910390206001018054905081101561291b578473ffffffffffffffffffffffffffffffffffffffff1660028560405161289a9190614909565b908152602001604051809103902060010182815481106128bd576128bc614980565b5b9060005260206000200160009054906101000a900473ffffffffffffffffffffffffffffffffffffffff1673ffffffffffffffffffffffffffffffffffffffff160361290857600191505b8080612913906157d1565b915050612847565b508091505092915050565b6000806001905060005b6002856040516129409190614909565b908152602001604051809103902060060180549050811015612a5b578360028660405161296d9190614909565b908152602001604051809103902060060182815481106129905761298f614980565b5b906000526020600020906003020160010154148015612a3e57508573ffffffffffffffffffffffffffffffffffffffff166002866040516129d19190614909565b908152602001604051809103902060060182815481106129f4576129f3614980565b5b906000526020600020906003020160000160009054906101000a900473ffffffffffffffffffffffffffffffffffffffff1673ffffffffffffffffffffffffffffffffffffffff16145b15612a4857600091505b8080612a53906157d1565b915050612930565b50809150509392505050565b600080600090505b8251811015612d7257600280811115612a8b57612a8a61410d565b5b846002018281548110612aa157612aa0614980565b5b90600052602060002090602091828204019190069054906101000a900460ff166002811115612ad357612ad261410d565b5b03612be2576000805b856003018381548110612af257612af1614980565b5b9060005260206000200180549050811015612bcb57848381518110612b1a57612b19614980565b5b6020026020010151604051602001612b329190614909565b60405160208183030381529060405280519060200120866003018481548110612b5e57612b5d614980565b5b906000526020600020018281548110612b7a57612b79614980565b5b90600052602060002001604051602001612b94919061589c565b6040516020818303038152906040528051906020012003612bb85760019150612bcb565b8080612bc3906157d1565b915050612adc565b5080612bdc57600092505050612d78565b50612d5f565b60016002811115612bf657612bf561410d565b5b846002018281548110612c0c57612c0b614980565b5b90600052602060002090602091828204019190069054906101000a900460ff166002811115612c3e57612c3d61410d565b5b03612d3157604051602001612c52906158ff565b60405160208183030381529060405280519060200120838281518110612c7b57612c7a614980565b5b6020026020010151604051602001612c939190614909565b604051602081830303815290604052805190602001201480612d185750604051602001612cbf90615960565b60405160208183030381529060405280519060200120838281518110612ce857612ce7614980565b5b6020026020010151604051602001612d009190614909565b60405160208183030381529060405280519060200120145b15612d27576001915050612d78565b6000915050612d78565b6000838281518110612d4657612d45614980565b5b60200260200101515103612d5e576000915050612d78565b5b8080612d6a906157d1565b915050612a6f565b50600190505b92915050565b828054828255906000526020600020908101928215612dc6579160200282015b82811115612dc5578251829081612db591906156ff565b5091602001919060010190612d9e565b5b509050612dd39190612fc4565b5090565b82805482825590600052602060002090601f01602090048101928215612e7c5791602002820160005b83821115612e4d57835183826101000a81548160ff02191690836002811115612e2c57612e2b61410d565b5b02179055509260200192600101602081600001049283019260010302612e00565b8015612e7a5782816101000a81549060ff0219169055600101602081600001049283019260010302612e4d565b505b509050612e899190612fe8565b5090565b828054828255906000526020600020908101928215612edc579160200282015b82811115612edb578251829080519060200190612ecb929190612d7e565b5091602001919060010190612ead565b5b509050612ee99190613005565b5090565b828054828255906000526020600020908101928215612f66579160200282015b82811115612f655782518260006101000a81548173ffffffffffffffffffffffffffffffffffffffff021916908373ffffffffffffffffffffffffffffffffffffffff16021790555091602001919060010190612f0d565b5b509050612f739190612fe8565b5090565b828054828255906000526020600020908101928215612fb3579160200282015b82811115612fb2578251825591602001919060010190612f97565b5b509050612fc09190612fe8565b5090565b5b80821115612fe45760008181612fdb9190613029565b50600101612fc5565b5090565b5b80821115613001576000816000905550600101612fe9565b5090565b5b80821115613025576000818161301c9190613069565b50600101613006565b5090565b5080546130359061494f565b6000825580601f106130475750613066565b601f0160209004906000526020600020908101906130659190612fe8565b5b50565b50805460008255906000526020600020908101906130879190612fc4565b50565b6000604051905090565b600080fd5b600080fd5b6000819050919050565b6130b18161309e565b81146130bc57600080fd5b50565b6000813590506130ce816130a8565b92915050565b600080fd5b6000601f19601f8301169050919050565b7f4e487b7100000000000000000000000000000000000000000000000000000000600052604160045260246000fd5b613122826130d9565b810181811067ffffffffffffffff82111715613141576131406130ea565b5b80604052505050565b600061315461308a565b90506131608282613119565b919050565b600067ffffffffffffffff8211156131805761317f6130ea565b5b602082029050602081019050919050565b600080fd5b600080fd5b600067ffffffffffffffff8211156131b6576131b56130ea565b5b6131bf826130d9565b9050602081019050919050565b82818337600083830152505050565b60006131ee6131e98461319b565b61314a565b90508281526020810184848401111561320a57613209613196565b5b6132158482856131cc565b509392505050565b600082601f830112613232576132316130d4565b5b81356132428482602086016131db565b91505092915050565b600061325e61325984613165565b61314a565b9050808382526020820190506020840283018581111561328157613280613191565b5b835b818110156132c857803567ffffffffffffffff8111156132a6576132a56130d4565b5b8086016132b3898261321d565b85526020850194505050602081019050613283565b5050509392505050565b600082601f8301126132e7576132e66130d4565b5b81356132f784826020860161324b565b91505092915050565b600067ffffffffffffffff82111561331b5761331a6130ea565b5b602082029050602081019050919050565b600061333f61333a84613300565b61314a565b9050808382526020820190506020840283018581111561336257613361613191565b5b835b818110156133a957803567ffffffffffffffff811115613387576133866130d4565b5b80860161339489826132d2565b85526020850194505050602081019050613364565b5050509392505050565b600082601f8301126133c8576133c76130d4565b5b81356133d884826020860161332c565b91505092915050565b600067ffffffffffffffff8211156133fc576133fb6130ea565b5b602082029050602081019050919050565b6003811061341a57600080fd5b50565b60008135905061342c8161340d565b92915050565b6000613445613440846133e1565b61314a565b9050808382526020820190506020840283018581111561346857613467613191565b5b835b81811015613491578061347d888261341d565b84526020840193505060208101905061346a565b5050509392505050565b600082601f8301126134b0576134af6130d4565b5b81356134c0848260208601613432565b91505092915050565b600080600080608085870312156134e3576134e2613094565b5b60006134f1878288016130bf565b945050602085013567ffffffffffffffff81111561351257613511613099565b5b61351e878288016132d2565b935050604085013567ffffffffffffffff81111561353f5761353e613099565b5b61354b878288016133b3565b925050606085013567ffffffffffffffff81111561356c5761356b613099565b5b6135788782880161349b565b91505092959194509250565b6000819050919050565b61359781613584565b82525050565b60006020820190506135b2600083018461358e565b92915050565b600081519050919050565b600082825260208201905092915050565b60005b838110156135f25780820151818401526020810190506135d7565b60008484015250505050565b6000613609826135b8565b61361381856135c3565b93506136238185602086016135d4565b61362c816130d9565b840191505092915050565b6000602082019050818103600083015261365181846135fe565b905092915050565b600073ffffffffffffffffffffffffffffffffffffffff82169050919050565b600061368482613659565b9050919050565b61369481613679565b811461369f57600080fd5b50565b6000813590506136b18161368b565b92915050565b6000602082840312156136cd576136cc613094565b5b60006136db848285016136a2565b91505092915050565b6000602082840312156136fa576136f9613094565b5b600082013567ffffffffffffffff81111561371857613717613099565b5b6137248482850161321d565b91505092915050565b600081519050919050565b600082825260208201905092915050565b6000819050602082019050919050565b61376281613679565b82525050565b60006137748383613759565b60208301905092915050565b6000602082019050919050565b60006137988261372d565b6137a28185613738565b93506137ad83613749565b8060005b838110156137de5781516137c58882613768565b97506137d083613780565b9250506001810190506137b1565b5085935050505092915050565b600081519050919050565b600082825260208201905092915050565b6000819050602082019050919050565b61382081613584565b82525050565b60006138328383613817565b60208301905092915050565b6000602082019050919050565b6000613856826137eb565b61386081856137f6565b935061386b83613807565b8060005b8381101561389c5781516138838882613826565b975061388e8361383e565b92505060018101905061386f565b5085935050505092915050565b600081519050919050565b600082825260208201905092915050565b6000819050602082019050919050565b600082825260208201905092915050565b60006138f1826135b8565b6138fb81856138d5565b935061390b8185602086016135d4565b613914816130d9565b840191505092915050565b600061392b83836138e6565b905092915050565b6000602082019050919050565b600061394b826138a9565b61395581856138b4565b935083602082028501613967856138c5565b8060005b858110156139a35784840389528151613984858261391f565b945061398f83613933565b925060208a0199505060018101905061396b565b50829750879550505050505092915050565b600081519050919050565b600082825260208201905092915050565b6000819050602082019050919050565b6139ea8161309e565b82525050565b606082016000820151613a066000850182613759565b506020820151613a196020850182613817565b506040820151613a2c60408501826139e1565b50505050565b6000613a3e83836139f0565b60608301905092915050565b6000602082019050919050565b6000613a62826139b5565b613a6c81856139c0565b9350613a77836139d1565b8060005b83811015613aa8578151613a8f8882613a32565b9750613a9a83613a4a565b925050600181019050613a7b565b5085935050505092915050565b60008115159050919050565b613aca81613ab5565b82525050565b6000610100820190508181036000830152613aeb818b61378d565b90508181036020830152613aff818a61384b565b90508181036040830152613b138189613940565b90508181036060830152613b2781886135fe565b9050613b36608083018761358e565b81810360a0830152613b488186613a57565b9050613b5760c083018561358e565b613b6460e0830184613ac1565b9998505050505050505050565b600080fd5b60008083601f840112613b8c57613b8b6130d4565b5b8235905067ffffffffffffffff811115613ba957613ba8613b71565b5b602083019150836020820283011115613bc557613bc4613191565b5b9250929050565b60008083601f840112613be257613be16130d4565b5b8235905067ffffffffffffffff811115613bff57613bfe613b71565b5b602083019150836020820283011115613c1b57613c1a613191565b5b9250929050565b60008060008060408587031215613c3c57613c3b613094565b5b600085013567ffffffffffffffff811115613c5a57613c59613099565b5b613c6687828801613b76565b9450945050602085013567ffffffffffffffff811115613c8957613c88613099565b5b613c9587828801613bcc565b925092505092959194509250565b6000602082019050613cb86000830184613ac1565b92915050565b613cc781613679565b82525050565b6000602082019050613ce26000830184613cbe565b92915050565b600067ffffffffffffffff821115613d0357613d026130ea565b5b602082029050602081019050919050565b6000613d27613d2284613ce8565b61314a565b90508083825260208201905060208402830185811115613d4a57613d49613191565b5b835b81811015613d735780613d5f88826136a2565b845260208401935050602081019050613d4c565b5050509392505050565b600082601f830112613d9257613d916130d4565b5b8135613da2848260208601613d14565b91505092915050565b600067ffffffffffffffff821115613dc657613dc56130ea565b5b602082029050602081019050919050565b613de081613584565b8114613deb57600080fd5b50565b600081359050613dfd81613dd7565b92915050565b6000613e16613e1184613dab565b61314a565b90508083825260208201905060208402830185811115613e3957613e38613191565b5b835b81811015613e625780613e4e8882613dee565b845260208401935050602081019050613e3b565b5050509392505050565b600082601f830112613e8157613e806130d4565b5b8135613e91848260208601613e03565b91505092915050565b600080600080600080600060e0888a031215613eb957613eb8613094565b5b600088013567ffffffffffffffff811115613ed757613ed6613099565b5b613ee38a828b0161321d565b975050602088013567ffffffffffffffff811115613f0457613f03613099565b5b613f108a828b01613d7d565b965050604088013567ffffffffffffffff811115613f3157613f30613099565b5b613f3d8a828b01613e6c565b955050606088013567ffffffffffffffff811115613f5e57613f5d613099565b5b613f6a8a828b016132d2565b945050608088013567ffffffffffffffff811115613f8b57613f8a613099565b5b613f978a828b0161321d565b93505060a0613fa88a828b01613dee565b92505060c0613fb98a828b01613dee565b91505092959891949750929550565b60008060008060008060c08789031215613fe557613fe4613094565b5b600087013567ffffffffffffffff81111561400357614002613099565b5b61400f89828a0161321d565b965050602087013567ffffffffffffffff8111156140305761402f613099565b5b61403c89828a01613d7d565b955050604087013567ffffffffffffffff81111561405d5761405c613099565b5b61406989828a01613e6c565b945050606087013567ffffffffffffffff81111561408a57614089613099565b5b61409689828a016132d2565b935050608087013567ffffffffffffffff8111156140b7576140b6613099565b5b6140c389828a0161321d565b92505060a06140d489828a01613dee565b9150509295509295509295565b600081519050919050565b600082825260208201905092915050565b6000819050602082019050919050565b7f4e487b7100000000000000000000000000000000000000000000000000000000600052602160045260246000fd5b6003811061414d5761414c61410d565b5b50565b600081905061415e8261413c565b919050565b600061416e82614150565b9050919050565b61417e81614163565b82525050565b60006141908383614175565b60208301905092915050565b6000602082019050919050565b60006141b4826140e1565b6141be81856140ec565b93506141c9836140fd565b8060005b838110156141fa5781516141e18882614184565b97506141ec8361419c565b9250506001810190506141cd565b5085935050505092915050565b600081519050919050565b600082825260208201905092915050565b6000819050602082019050919050565b600082825260208201905092915050565b600061424f826138a9565b6142598185614233565b93508360208202850161426b856138c5565b8060005b858110156142a75784840389528151614288858261391f565b945061429383613933565b925060208a0199505060018101905061426f565b50829750879550505050505092915050565b60006142c58383614244565b905092915050565b6000602082019050919050565b60006142e582614207565b6142ef8185614212565b93508360208202850161430185614223565b8060005b8581101561433d578484038952815161431e85826142b9565b9450614329836142cd565b925060208a01995050600181019050614305565b50829750879550505050505092915050565b6143588161309e565b82525050565b600060808201905081810360008301526143788187613940565b9050818103602083015261438c81866141a9565b905081810360408301526143a081856142da565b90506143af606083018461434f565b95945050505050565b6000602082840312156143ce576143cd613094565b5b60006143dc84828501613dee565b91505092915050565b6000819050919050565b600061440a61440561440084613659565b6143e5565b613659565b9050919050565b600061441c826143ef565b9050919050565b600061442e82614411565b9050919050565b61443e81614423565b82525050565b60006020820190506144596000830184614435565b92915050565b600060208201905081810360008301526144798184613940565b905092915050565b600080fd5b6000610140828403121561449d5761449c614481565b5b81905092915050565b6000602082840312156144bc576144bb613094565b5b600082013567ffffffffffffffff8111156144da576144d9613099565b5b6144e684828501614486565b91505092915050565b7f4465726573793a2045415320536368656d612049442063616e2774206265206e60008201527f756c6c0000000000000000000000000000000000000000000000000000000000602082015250565b600061454b6023836135c3565b9150614556826144ef565b604082019050919050565b6000602082019050818103600083015261457a8161453e565b9050919050565b7f4465726573793a205175657374696f6e732063616e2774206265206e756c6c00600082015250565b60006145b7601f836135c3565b91506145c282614581565b602082019050919050565b600060208201905081810360008301526145e6816145aa565b9050919050565b7f4465726573793a205175657374696f6e2054797065732063616e27742062652060008201527f6e756c6c00000000000000000000000000000000000000000000000000000000602082015250565b60006146496024836135c3565b9150614654826145ed565b604082019050919050565b600060208201905081810360008301526146788161463c565b9050919050565b7f4465726573793a205175657374696f6e7320616e64207479706573206d75737460008201527f2068617665207468652073616d65206c656e6774680000000000000000000000602082015250565b60006146db6035836135c3565b91506146e68261467f565b604082019050919050565b6000602082019050818103600083015261470a816146ce565b9050919050565b7f4465726573793a205175657374696f6e7320616e642063686f69636573206d7560008201527f73742068617665207468652073616d65206c656e677468000000000000000000602082015250565b600061476d6037836135c3565b915061477882614711565b604082019050919050565b6000602082019050818103600083015261479c81614760565b9050919050565b7f4e487b7100000000000000000000000000000000000000000000000000000000600052601160045260246000fd5b60006147dd82613584565b91506147e883613584565b9250828201905080821115614800576147ff6147a3565b5b92915050565b600061481182613584565b915061481c83613584565b9250828203905081811115614834576148336147a3565b5b92915050565b600081905092915050565b6000614850826135b8565b61485a818561483a565b935061486a8185602086016135d4565b80840191505092915050565b7f2e00000000000000000000000000000000000000000000000000000000000000600082015250565b60006148ac60018361483a565b91506148b782614876565b600182019050919050565b60006148ce8286614845565b91506148d98261489f565b91506148e58285614845565b91506148f08261489f565b91506148fc8284614845565b9150819050949350505050565b60006149158284614845565b915081905092915050565b7f4e487b7100000000000000000000000000000000000000000000000000000000600052602260045260246000fd5b6000600282049050600182168061496757607f821691505b60208210810361497a57614979614920565b5b50919050565b7f4e487b7100000000000000000000000000000000000000000000000000000000600052603260045260246000fd5b600080fd5b600080fd5b600080fd5b600082356001610140038336030381126149db576149da6149af565b5b80830191505092915050565b7f4465726573793a204974206973206e6f74207468652073706f6e736f72000000600082015250565b6000614a1d601d836135c3565b9150614a28826149e7565b602082019050919050565b60006020820190508181036000830152614a4c81614a10565b9050919050565b7f4465726573793a207265717565737420636c6f73656400000000000000000000600082015250565b6000614a896016836135c3565b9150614a9482614a53565b602082019050919050565b60006020820190508181036000830152614ab881614a7c565b9050919050565b7f4f776e61626c653a206e6577206f776e657220697320746865207a65726f206160008201527f6464726573730000000000000000000000000000000000000000000000000000602082015250565b6000614b1b6026836135c3565b9150614b2682614abf565b604082019050919050565b60006020820190508181036000830152614b4a81614b0e565b9050919050565b7f4e487b7100000000000000000000000000000000000000000000000000000000600052601260045260246000fd5b7f4f776e61626c653a2063616c6c6572206973206e6f7420746865206f776e6572600082015250565b6000614bb66020836135c3565b9150614bc182614b80565b602082019050919050565b60006020820190508181036000830152614be581614ba9565b9050919050565b60008083356001602003843603038112614c0957614c086149af565b5b80840192508235915067ffffffffffffffff821115614c2b57614c2a6149b4565b5b602083019250600182023603831315614c4757614c466149b9565b5b509250929050565b60008060008060808587031215614c6957614c68613094565b5b600085013567ffffffffffffffff811115614c8757614c86613099565b5b614c938782880161321d565b9450506020614ca487828801613dee565b935050604085013567ffffffffffffffff811115614cc557614cc4613099565b5b614cd1878288016132d2565b925050606085013567ffffffffffffffff811115614cf257614cf1613099565b5b614cfe8782880161321d565b91505092959194509250565b6000614d1960208401846130bf565b905092915050565b600067ffffffffffffffff82169050919050565b614d3e81614d21565b8114614d4957600080fd5b50565b600081359050614d5b81614d35565b92915050565b6000614d706020840184614d4c565b905092915050565b614d8181614d21565b82525050565b6000614d9660208401846136a2565b905092915050565b614da781613ab5565b8114614db257600080fd5b50565b600081359050614dc481614d9e565b92915050565b6000614dd96020840184614db5565b905092915050565b614dea81613ab5565b82525050565b600080fd5b600080fd5b600080fd5b60008083356001602003843603038112614e1c57614e1b614dfa565b5b83810192508235915060208301925067ffffffffffffffff821115614e4457614e43614df0565b5b600182023603831315614e5a57614e59614df5565b5b509250929050565b600082825260208201905092915050565b6000614e7f8385614e62565b9350614e8c8385846131cc565b614e95836130d9565b840190509392505050565b60006101408301614eb46000840184614d0a565b614ec160008601826139e1565b50614ecf6020840184614d0a565b614edc60208601826139e1565b50614eea6040840184614d61565b614ef76040860182614d78565b50614f056060840184614d61565b614f126060860182614d78565b50614f206080840184614d61565b614f2d6080860182614d78565b50614f3b60a0840184614d0a565b614f4860a08601826139e1565b50614f5660c0840184614d87565b614f6360c0860182613759565b50614f7160e0840184614d87565b614f7e60e0860182613759565b50614f8d610100840184614dca565b614f9b610100860182614de1565b50614faa610120840184614dff565b858303610120870152614fbe838284614e73565b925050508091505092915050565b60006040820190508181036000830152614fe68185614ea0565b90508181036020830152614ffa81846135fe565b90509392505050565b60008151905061501281614d9e565b92915050565b60006020828403121561502e5761502d613094565b5b600061503c84828501615003565b91505092915050565b7f4465726573793a205265766965776572732063616e6e6f74206265206e756c6c600082015250565b600061507b6020836135c3565b915061508682615045565b602082019050919050565b600060208201905081810360008301526150aa8161506e565b9050919050565b7f4465726573793a20487970657263657274204944732063616e6e6f742062652060008201527f6e756c6c00000000000000000000000000000000000000000000000000000000602082015250565b600061510d6024836135c3565b9150615118826150b1565b604082019050919050565b6000602082019050818103600083015261513c81615100565b9050919050565b7f4465726573793a2048797065726365727473204950465320686173686573206360008201527f616e6e6f74206265206e756c6c00000000000000000000000000000000000000602082015250565b600061519f602d836135c3565b91506151aa82615143565b604082019050919050565b600060208201905081810360008301526151ce81615192565b9050919050565b7f4465726573793a2048797065726365727449447320616e64204879706572636560008201527f727449504653486173686573206172726179206d75737420686176652074686560208201527f2073616d65206c656e6774680000000000000000000000000000000000000000604082015250565b6000615257604c836135c3565b9150615262826151d5565b606082019050919050565b600060208201905081810360008301526152868161524a565b9050919050565b7f4465726573793a20526576696577466f726d496e64657820696e76616c696400600082015250565b60006152c3601f836135c3565b91506152ce8261528d565b602082019050919050565b600060208201905081810360008301526152f2816152b6565b9050919050565b7f4465726573793a204e616d65206475706c696361746564000000000000000000600082015250565b600061532f6017836135c3565b915061533a826152f9565b602082019050919050565b6000602082019050818103600083015261535e81615322565b9050919050565b7f4465726573793a20726577617264506572526576696577206d7573742062652060008201527f67726561746572207468616e207a65726f20666f722070617961626c6520726560208201527f7175657374000000000000000000000000000000000000000000000000000000604082015250565b60006153e76045836135c3565b91506153f282615365565b606082019050919050565b60006020820190508181036000830152615416816153da565b9050919050565b600061542882613584565b915061543383613584565b925082820261544181613584565b91508282048414831517615458576154576147a3565b5b5092915050565b7f4465726573793a206d73672e76616c756520696e76616c696400000000000000600082015250565b60006154956019836135c3565b91506154a08261545f565b602082019050919050565b600060208201905081810360008301526154c481615488565b9050919050565b7f4465726573793a20726577617264506572526576696577206d7573742062652060008201527f7a65726f20666f72206e6f6e2d70617961626c65207265717565737400000000602082015250565b6000615527603c836135c3565b9150615532826154cb565b604082019050919050565b600060208201905081810360008301526155568161551a565b9050919050565b60008190508160005260206000209050919050565b60006020601f8301049050919050565b600082821b905092915050565b6000600883026155bf7fffffffffffffffffffffffffffffffffffffffffffffffffffffffffffffffff82615582565b6155c98683615582565b95508019841693508086168417925050509392505050565b60006155fc6155f76155f284613584565b6143e5565b613584565b9050919050565b6000819050919050565b615616836155e1565b61562a61562282615603565b84845461558f565b825550505050565b600090565b61563f615632565b61564a81848461560d565b505050565b5b8181101561566e57615663600082615637565b600181019050615650565b5050565b601f8211156156b3576156848161555d565b61568d84615572565b8101602085101561569c578190505b6156b06156a885615572565b83018261564f565b50505b505050565b600082821c905092915050565b60006156d6600019846008026156b8565b1980831691505092915050565b60006156ef83836156c5565b9150826002028217905092915050565b615708826135b8565b67ffffffffffffffff811115615721576157206130ea565b5b61572b825461494f565b615736828285615672565b600060209050601f8311600181146157695760008415615757578287015190505b61576185826156e3565b8655506157c9565b601f1984166157778661555d565b60005b8281101561579f5784890151825560018201915060208501945060208101905061577a565b868310156157bc57848901516157b8601f8916826156c5565b8355505b6001600288020188555050505b505050505050565b60006157dc82613584565b91507fffffffffffffffffffffffffffffffffffffffffffffffffffffffffffffffff820361580e5761580d6147a3565b5b600182019050919050565b600081546158268161494f565b615830818661483a565b9450600182166000811461584b576001811461586057615893565b60ff1983168652811515820286019350615893565b6158698561555d565b60005b8381101561588b5781548189015260018201915060208101905061586c565b838801955050505b50505092915050565b60006158a88284615819565b915081905092915050565b7f5965730000000000000000000000000000000000000000000000000000000000600082015250565b60006158e960038361483a565b91506158f4826158b3565b600382019050919050565b600061590a826158dc565b9150819050919050565b7f4e6f000000000000000000000000000000000000000000000000000000000000600082015250565b600061594a60028361483a565b915061595582615914565b600282019050919050565b600061596b8261593d565b915081905091905056fea2646970667358221220ff701fdb994192985a323890dffee5d296f6de9f8eb0d50505f28b6a6f29d08e64736f6c63430008130033",
			"opcodes": "PUSH2 0x100 PUSH1 0x40 MSTORE PUSH1 0x40 MLOAD DUP1 PUSH1 0x40 ADD PUSH1 0x40 MSTORE DUP1 PUSH1 0x3 DUP2 MSTORE PUSH1 0x20 ADD PUSH32 0x302E320000000000000000000000000000000000000000000000000000000000 DUP2 MSTORE POP PUSH1 0x5 SWAP1 DUP2 PUSH3 0x4B SWAP2 SWAP1 PUSH3 0x4A9 JUMP JUMPDEST POP CALLVALUE DUP1 ISZERO PUSH3 0x59 JUMPI PUSH1 0x0 DUP1 REVERT JUMPDEST POP PUSH1 0x40 MLOAD PUSH3 0x6025 CODESIZE SUB DUP1 PUSH3 0x6025 DUP4 CODECOPY DUP2 DUP2 ADD PUSH1 0x40 MSTORE DUP2 ADD SWAP1 PUSH3 0x7F SWAP2 SWAP1 PUSH3 0x60E JUMP JUMPDEST DUP1 PUSH1 0x1 PUSH1 0x0 DUP1 DUP3 PUSH1 0x80 DUP2 DUP2 MSTORE POP POP DUP2 PUSH1 0xA0 DUP2 DUP2 MSTORE POP POP DUP1 PUSH1 0xC0 DUP2 DUP2 MSTORE POP POP POP POP POP PUSH1 0x0 PUSH20 0xFFFFFFFFFFFFFFFFFFFFFFFFFFFFFFFFFFFFFFFF AND DUP2 PUSH20 0xFFFFFFFFFFFFFFFFFFFFFFFFFFFFFFFFFFFFFFFF AND SUB PUSH3 0x107 JUMPI PUSH1 0x40 MLOAD PUSH32 0x83780FFE00000000000000000000000000000000000000000000000000000000 DUP2 MSTORE PUSH1 0x4 ADD PUSH1 0x40 MLOAD DUP1 SWAP2 SUB SWAP1 REVERT JUMPDEST DUP1 PUSH20 0xFFFFFFFFFFFFFFFFFFFFFFFFFFFFFFFFFFFFFFFF AND PUSH1 0xE0 DUP2 PUSH20 0xFFFFFFFFFFFFFFFFFFFFFFFFFFFFFFFFFFFFFFFF AND DUP2 MSTORE POP POP POP PUSH3 0x15C PUSH3 0x150 PUSH3 0x163 PUSH1 0x20 SHL PUSH1 0x20 SHR JUMP JUMPDEST PUSH3 0x16B PUSH1 0x20 SHL PUSH1 0x20 SHR JUMP JUMPDEST POP PUSH3 0x640 JUMP JUMPDEST PUSH1 0x0 CALLER SWAP1 POP SWAP1 JUMP JUMPDEST PUSH1 0x0 DUP1 PUSH1 0x0 SWAP1 SLOAD SWAP1 PUSH2 0x100 EXP SWAP1 DIV PUSH20 0xFFFFFFFFFFFFFFFFFFFFFFFFFFFFFFFFFFFFFFFF AND SWAP1 POP DUP2 PUSH1 0x0 DUP1 PUSH2 0x100 EXP DUP2 SLOAD DUP2 PUSH20 0xFFFFFFFFFFFFFFFFFFFFFFFFFFFFFFFFFFFFFFFF MUL NOT AND SWAP1 DUP4 PUSH20 0xFFFFFFFFFFFFFFFFFFFFFFFFFFFFFFFFFFFFFFFF AND MUL OR SWAP1 SSTORE POP DUP2 PUSH20 0xFFFFFFFFFFFFFFFFFFFFFFFFFFFFFFFFFFFFFFFF AND DUP2 PUSH20 0xFFFFFFFFFFFFFFFFFFFFFFFFFFFFFFFFFFFFFFFF AND PUSH32 0x8BE0079C531659141344CD1FD0A4F28419497F9722A3DAAFE3B4186F6B6457E0 PUSH1 0x40 MLOAD PUSH1 0x40 MLOAD DUP1 SWAP2 SUB SWAP1 LOG3 POP POP JUMP JUMPDEST PUSH1 0x0 DUP2 MLOAD SWAP1 POP SWAP2 SWAP1 POP JUMP JUMPDEST PUSH32 0x4E487B7100000000000000000000000000000000000000000000000000000000 PUSH1 0x0 MSTORE PUSH1 0x41 PUSH1 0x4 MSTORE PUSH1 0x24 PUSH1 0x0 REVERT JUMPDEST PUSH32 0x4E487B7100000000000000000000000000000000000000000000000000000000 PUSH1 0x0 MSTORE PUSH1 0x22 PUSH1 0x4 MSTORE PUSH1 0x24 PUSH1 0x0 REVERT JUMPDEST PUSH1 0x0 PUSH1 0x2 DUP3 DIV SWAP1 POP PUSH1 0x1 DUP3 AND DUP1 PUSH3 0x2B1 JUMPI PUSH1 0x7F DUP3 AND SWAP2 POP JUMPDEST PUSH1 0x20 DUP3 LT DUP2 SUB PUSH3 0x2C7 JUMPI PUSH3 0x2C6 PUSH3 0x269 JUMP JUMPDEST JUMPDEST POP SWAP2 SWAP1 POP JUMP JUMPDEST PUSH1 0x0 DUP2 SWAP1 POP DUP2 PUSH1 0x0 MSTORE PUSH1 0x20 PUSH1 0x0 KECCAK256 SWAP1 POP SWAP2 SWAP1 POP JUMP JUMPDEST PUSH1 0x0 PUSH1 0x20 PUSH1 0x1F DUP4 ADD DIV SWAP1 POP SWAP2 SWAP1 POP JUMP JUMPDEST PUSH1 0x0 DUP3 DUP3 SHL SWAP1 POP SWAP3 SWAP2 POP POP JUMP JUMPDEST PUSH1 0x0 PUSH1 0x8 DUP4 MUL PUSH3 0x331 PUSH32 0xFFFFFFFFFFFFFFFFFFFFFFFFFFFFFFFFFFFFFFFFFFFFFFFFFFFFFFFFFFFFFFFF DUP3 PUSH3 0x2F2 JUMP JUMPDEST PUSH3 0x33D DUP7 DUP4 PUSH3 0x2F2 JUMP JUMPDEST SWAP6 POP DUP1 NOT DUP5 AND SWAP4 POP DUP1 DUP7 AND DUP5 OR SWAP3 POP POP POP SWAP4 SWAP3 POP POP POP JUMP JUMPDEST PUSH1 0x0 DUP2 SWAP1 POP SWAP2 SWAP1 POP JUMP JUMPDEST PUSH1 0x0 DUP2 SWAP1 POP SWAP2 SWAP1 POP JUMP JUMPDEST PUSH1 0x0 PUSH3 0x38A PUSH3 0x384 PUSH3 0x37E DUP5 PUSH3 0x355 JUMP JUMPDEST PUSH3 0x35F JUMP JUMPDEST PUSH3 0x355 JUMP JUMPDEST SWAP1 POP SWAP2 SWAP1 POP JUMP JUMPDEST PUSH1 0x0 DUP2 SWAP1 POP SWAP2 SWAP1 POP JUMP JUMPDEST PUSH3 0x3A6 DUP4 PUSH3 0x369 JUMP JUMPDEST PUSH3 0x3BE PUSH3 0x3B5 DUP3 PUSH3 0x391 JUMP JUMPDEST DUP5 DUP5 SLOAD PUSH3 0x2FF JUMP JUMPDEST DUP3 SSTORE POP POP POP POP JUMP JUMPDEST PUSH1 0x0 SWAP1 JUMP JUMPDEST PUSH3 0x3D5 PUSH3 0x3C6 JUMP JUMPDEST PUSH3 0x3E2 DUP2 DUP5 DUP5 PUSH3 0x39B JUMP JUMPDEST POP POP POP JUMP JUMPDEST JUMPDEST DUP2 DUP2 LT ISZERO PUSH3 0x40A JUMPI PUSH3 0x3FE PUSH1 0x0 DUP3 PUSH3 0x3CB JUMP JUMPDEST PUSH1 0x1 DUP2 ADD SWAP1 POP PUSH3 0x3E8 JUMP JUMPDEST POP POP JUMP JUMPDEST PUSH1 0x1F DUP3 GT ISZERO PUSH3 0x459 JUMPI PUSH3 0x423 DUP2 PUSH3 0x2CD JUMP JUMPDEST PUSH3 0x42E DUP5 PUSH3 0x2E2 JUMP JUMPDEST DUP2 ADD PUSH1 0x20 DUP6 LT ISZERO PUSH3 0x43E JUMPI DUP2 SWAP1 POP JUMPDEST PUSH3 0x456 PUSH3 0x44D DUP6 PUSH3 0x2E2 JUMP JUMPDEST DUP4 ADD DUP3 PUSH3 0x3E7 JUMP JUMPDEST POP POP JUMPDEST POP POP POP JUMP JUMPDEST PUSH1 0x0 DUP3 DUP3 SHR SWAP1 POP SWAP3 SWAP2 POP POP JUMP JUMPDEST PUSH1 0x0 PUSH3 0x47E PUSH1 0x0 NOT DUP5 PUSH1 0x8 MUL PUSH3 0x45E JUMP JUMPDEST NOT DUP1 DUP4 AND SWAP2 POP POP SWAP3 SWAP2 POP POP JUMP JUMPDEST PUSH1 0x0 PUSH3 0x499 DUP4 DUP4 PUSH3 0x46B JUMP JUMPDEST SWAP2 POP DUP3 PUSH1 0x2 MUL DUP3 OR SWAP1 POP SWAP3 SWAP2 POP POP JUMP JUMPDEST PUSH3 0x4B4 DUP3 PUSH3 0x22F JUMP JUMPDEST PUSH8 0xFFFFFFFFFFFFFFFF DUP2 GT ISZERO PUSH3 0x4D0 JUMPI PUSH3 0x4CF PUSH3 0x23A JUMP JUMPDEST JUMPDEST PUSH3 0x4DC DUP3 SLOAD PUSH3 0x298 JUMP JUMPDEST PUSH3 0x4E9 DUP3 DUP3 DUP6 PUSH3 0x40E JUMP JUMPDEST PUSH1 0x0 PUSH1 0x20 SWAP1 POP PUSH1 0x1F DUP4 GT PUSH1 0x1 DUP2 EQ PUSH3 0x521 JUMPI PUSH1 0x0 DUP5 ISZERO PUSH3 0x50C JUMPI DUP3 DUP8 ADD MLOAD SWAP1 POP JUMPDEST PUSH3 0x518 DUP6 DUP3 PUSH3 0x48B JUMP JUMPDEST DUP7 SSTORE POP PUSH3 0x588 JUMP JUMPDEST PUSH1 0x1F NOT DUP5 AND PUSH3 0x531 DUP7 PUSH3 0x2CD JUMP JUMPDEST PUSH1 0x0 JUMPDEST DUP3 DUP2 LT ISZERO PUSH3 0x55B JUMPI DUP5 DUP10 ADD MLOAD DUP3 SSTORE PUSH1 0x1 DUP3 ADD SWAP2 POP PUSH1 0x20 DUP6 ADD SWAP5 POP PUSH1 0x20 DUP2 ADD SWAP1 POP PUSH3 0x534 JUMP JUMPDEST DUP7 DUP4 LT ISZERO PUSH3 0x57B JUMPI DUP5 DUP10 ADD MLOAD PUSH3 0x577 PUSH1 0x1F DUP10 AND DUP3 PUSH3 0x46B JUMP JUMPDEST DUP4 SSTORE POP JUMPDEST PUSH1 0x1 PUSH1 0x2 DUP9 MUL ADD DUP9 SSTORE POP POP POP JUMPDEST POP POP POP POP POP POP JUMP JUMPDEST PUSH1 0x0 DUP1 REVERT JUMPDEST PUSH1 0x0 PUSH20 0xFFFFFFFFFFFFFFFFFFFFFFFFFFFFFFFFFFFFFFFF DUP3 AND SWAP1 POP SWAP2 SWAP1 POP JUMP JUMPDEST PUSH1 0x0 PUSH3 0x5C2 DUP3 PUSH3 0x595 JUMP JUMPDEST SWAP1 POP SWAP2 SWAP1 POP JUMP JUMPDEST PUSH1 0x0 PUSH3 0x5D6 DUP3 PUSH3 0x5B5 JUMP JUMPDEST SWAP1 POP SWAP2 SWAP1 POP JUMP JUMPDEST PUSH3 0x5E8 DUP2 PUSH3 0x5C9 JUMP JUMPDEST DUP2 EQ PUSH3 0x5F4 JUMPI PUSH1 0x0 DUP1 REVERT JUMPDEST POP JUMP JUMPDEST PUSH1 0x0 DUP2 MLOAD SWAP1 POP PUSH3 0x608 DUP2 PUSH3 0x5DD JUMP JUMPDEST SWAP3 SWAP2 POP POP JUMP JUMPDEST PUSH1 0x0 PUSH1 0x20 DUP3 DUP5 SUB SLT ISZERO PUSH3 0x627 JUMPI PUSH3 0x626 PUSH3 0x590 JUMP JUMPDEST JUMPDEST PUSH1 0x0 PUSH3 0x637 DUP5 DUP3 DUP6 ADD PUSH3 0x5F7 JUMP JUMPDEST SWAP2 POP POP SWAP3 SWAP2 POP POP JUMP JUMPDEST PUSH1 0x80 MLOAD PUSH1 0xA0 MLOAD PUSH1 0xC0 MLOAD PUSH1 0xE0 MLOAD PUSH2 0x59AB PUSH3 0x67A PUSH1 0x0 CODECOPY PUSH1 0x0 PUSH2 0x1C6C ADD MSTORE PUSH1 0x0 PUSH2 0x81F ADD MSTORE PUSH1 0x0 PUSH2 0x7F6 ADD MSTORE PUSH1 0x0 PUSH2 0x7CD ADD MSTORE PUSH2 0x59AB PUSH1 0x0 RETURN INVALID PUSH1 0x80 PUSH1 0x40 MSTORE PUSH1 0x4 CALLDATASIZE LT PUSH2 0x12E JUMPI PUSH1 0x0 CALLDATALOAD PUSH1 0xE0 SHR DUP1 PUSH4 0xA8CB0D87 GT PUSH2 0xAB JUMPI DUP1 PUSH4 0xBE2761D0 GT PUSH2 0x6F JUMPI DUP1 PUSH4 0xBE2761D0 EQ PUSH2 0x435 JUMPI DUP1 PUSH4 0xCE46E046 EQ PUSH2 0x45E JUMPI DUP1 PUSH4 0xDD526054 EQ PUSH2 0x489 JUMPI DUP1 PUSH4 0xE49617E1 EQ PUSH2 0x4B4 JUMPI DUP1 PUSH4 0xE60C3505 EQ PUSH2 0x4E4 JUMPI DUP1 PUSH4 0xF2FDE38B EQ PUSH2 0x514 JUMPI PUSH2 0x173 JUMP JUMPDEST DUP1 PUSH4 0xA8CB0D87 EQ PUSH2 0x345 JUMPI DUP1 PUSH4 0xA940B874 EQ PUSH2 0x361 JUMPI DUP1 PUSH4 0xB4E137CD EQ PUSH2 0x38A JUMPI DUP1 PUSH4 0xB6FC76AF EQ PUSH2 0x3CA JUMPI DUP1 PUSH4 0xBD7E2AA4 EQ PUSH2 0x40A JUMPI PUSH2 0x173 JUMP JUMPDEST DUP1 PUSH4 0x86BE6D51 GT PUSH2 0xF2 JUMPI DUP1 PUSH4 0x86BE6D51 EQ PUSH2 0x264 JUMPI DUP1 PUSH4 0x88E5B2D9 EQ PUSH2 0x28F JUMPI DUP1 PUSH4 0x8DA5CB5B EQ PUSH2 0x2BF JUMPI DUP1 PUSH4 0x91DB0B7E EQ PUSH2 0x2EA JUMPI DUP1 PUSH4 0xA0A8E460 EQ PUSH2 0x31A JUMPI PUSH2 0x173 JUMP JUMPDEST DUP1 PUSH4 0x30940523 EQ PUSH2 0x178 JUMPI DUP1 PUSH4 0x54FD4D50 EQ PUSH2 0x1B5 JUMPI DUP1 PUSH4 0x715018A6 EQ PUSH2 0x1E0 JUMPI DUP1 PUSH4 0x7A35AAA9 EQ PUSH2 0x1F7 JUMPI DUP1 PUSH4 0x85B92413 EQ PUSH2 0x220 JUMPI PUSH2 0x173 JUMP JUMPDEST CALLDATASIZE PUSH2 0x173 JUMPI PUSH2 0x13B PUSH2 0x53D JUMP JUMPDEST PUSH2 0x171 JUMPI PUSH1 0x40 MLOAD PUSH32 0x1574F9F300000000000000000000000000000000000000000000000000000000 DUP2 MSTORE PUSH1 0x4 ADD PUSH1 0x40 MLOAD DUP1 SWAP2 SUB SWAP1 REVERT JUMPDEST STOP JUMPDEST PUSH1 0x0 DUP1 REVERT JUMPDEST CALLVALUE DUP1 ISZERO PUSH2 0x184 JUMPI PUSH1 0x0 DUP1 REVERT JUMPDEST POP PUSH2 0x19F PUSH1 0x4 DUP1 CALLDATASIZE SUB DUP2 ADD SWAP1 PUSH2 0x19A SWAP2 SWAP1 PUSH2 0x34C9 JUMP JUMPDEST PUSH2 0x542 JUMP JUMPDEST PUSH1 0x40 MLOAD PUSH2 0x1AC SWAP2 SWAP1 PUSH2 0x359D JUMP JUMPDEST PUSH1 0x40 MLOAD DUP1 SWAP2 SUB SWAP1 RETURN JUMPDEST CALLVALUE DUP1 ISZERO PUSH2 0x1C1 JUMPI PUSH1 0x0 DUP1 REVERT JUMPDEST POP PUSH2 0x1CA PUSH2 0x7C6 JUMP JUMPDEST PUSH1 0x40 MLOAD PUSH2 0x1D7 SWAP2 SWAP1 PUSH2 0x3637 JUMP JUMPDEST PUSH1 0x40 MLOAD DUP1 SWAP2 SUB SWAP1 RETURN JUMPDEST CALLVALUE DUP1 ISZERO PUSH2 0x1EC JUMPI PUSH1 0x0 DUP1 REVERT JUMPDEST POP PUSH2 0x1F5 PUSH2 0x869 JUMP JUMPDEST STOP JUMPDEST CALLVALUE DUP1 ISZERO PUSH2 0x203 JUMPI PUSH1 0x0 DUP1 REVERT JUMPDEST POP PUSH2 0x21E PUSH1 0x4 DUP1 CALLDATASIZE SUB DUP2 ADD SWAP1 PUSH2 0x219 SWAP2 SWAP1 PUSH2 0x36B7 JUMP JUMPDEST PUSH2 0x87D JUMP JUMPDEST STOP JUMPDEST CALLVALUE DUP1 ISZERO PUSH2 0x22C JUMPI PUSH1 0x0 DUP1 REVERT JUMPDEST POP PUSH2 0x247 PUSH1 0x4 DUP1 CALLDATASIZE SUB DUP2 ADD SWAP1 PUSH2 0x242 SWAP2 SWAP1 PUSH2 0x36E4 JUMP JUMPDEST PUSH2 0x8C9 JUMP JUMPDEST PUSH1 0x40 MLOAD PUSH2 0x25B SWAP9 SWAP8 SWAP7 SWAP6 SWAP5 SWAP4 SWAP3 SWAP2 SWAP1 PUSH2 0x3AD0 JUMP JUMPDEST PUSH1 0x40 MLOAD DUP1 SWAP2 SUB SWAP1 RETURN JUMPDEST CALLVALUE DUP1 ISZERO PUSH2 0x270 JUMPI PUSH1 0x0 DUP1 REVERT JUMPDEST POP PUSH2 0x279 PUSH2 0xD84 JUMP JUMPDEST PUSH1 0x40 MLOAD PUSH2 0x286 SWAP2 SWAP1 PUSH2 0x359D JUMP JUMPDEST PUSH1 0x40 MLOAD DUP1 SWAP2 SUB SWAP1 RETURN JUMPDEST PUSH2 0x2A9 PUSH1 0x4 DUP1 CALLDATASIZE SUB DUP2 ADD SWAP1 PUSH2 0x2A4 SWAP2 SWAP1 PUSH2 0x3C22 JUMP JUMPDEST PUSH2 0xD8A JUMP JUMPDEST PUSH1 0x40 MLOAD PUSH2 0x2B6 SWAP2 SWAP1 PUSH2 0x3CA3 JUMP JUMPDEST PUSH1 0x40 MLOAD DUP1 SWAP2 SUB SWAP1 RETURN JUMPDEST CALLVALUE DUP1 ISZERO PUSH2 0x2CB JUMPI PUSH1 0x0 DUP1 REVERT JUMPDEST POP PUSH2 0x2D4 PUSH2 0xE69 JUMP JUMPDEST PUSH1 0x40 MLOAD PUSH2 0x2E1 SWAP2 SWAP1 PUSH2 0x3CCD JUMP JUMPDEST PUSH1 0x40 MLOAD DUP1 SWAP2 SUB SWAP1 RETURN JUMPDEST PUSH2 0x304 PUSH1 0x4 DUP1 CALLDATASIZE SUB DUP2 ADD SWAP1 PUSH2 0x2FF SWAP2 SWAP1 PUSH2 0x3C22 JUMP JUMPDEST PUSH2 0xE92 JUMP JUMPDEST PUSH1 0x40 MLOAD PUSH2 0x311 SWAP2 SWAP1 PUSH2 0x3CA3 JUMP JUMPDEST PUSH1 0x40 MLOAD DUP1 SWAP2 SUB SWAP1 RETURN JUMPDEST CALLVALUE DUP1 ISZERO PUSH2 0x326 JUMPI PUSH1 0x0 DUP1 REVERT JUMPDEST POP PUSH2 0x32F PUSH2 0xF71 JUMP JUMPDEST PUSH1 0x40 MLOAD PUSH2 0x33C SWAP2 SWAP1 PUSH2 0x3637 JUMP JUMPDEST PUSH1 0x40 MLOAD DUP1 SWAP2 SUB SWAP1 RETURN JUMPDEST PUSH2 0x35F PUSH1 0x4 DUP1 CALLDATASIZE SUB DUP2 ADD SWAP1 PUSH2 0x35A SWAP2 SWAP1 PUSH2 0x3E9A JUMP JUMPDEST PUSH2 0xFFF JUMP JUMPDEST STOP JUMPDEST CALLVALUE DUP1 ISZERO PUSH2 0x36D JUMPI PUSH1 0x0 DUP1 REVERT JUMPDEST POP PUSH2 0x388 PUSH1 0x4 DUP1 CALLDATASIZE SUB DUP2 ADD SWAP1 PUSH2 0x383 SWAP2 SWAP1 PUSH2 0x3FC8 JUMP JUMPDEST PUSH2 0x1019 JUMP JUMPDEST STOP JUMPDEST CALLVALUE DUP1 ISZERO PUSH2 0x396 JUMPI PUSH1 0x0 DUP1 REVERT JUMPDEST POP PUSH2 0x3B1 PUSH1 0x4 DUP1 CALLDATASIZE SUB DUP2 ADD SWAP1 PUSH2 0x3AC SWAP2 SWAP1 PUSH2 0x36E4 JUMP JUMPDEST PUSH2 0x1033 JUMP JUMPDEST PUSH1 0x40 MLOAD PUSH2 0x3C1 SWAP5 SWAP4 SWAP3 SWAP2 SWAP1 PUSH2 0x435E JUMP JUMPDEST PUSH1 0x40 MLOAD DUP1 SWAP2 SUB SWAP1 RETURN JUMPDEST CALLVALUE DUP1 ISZERO PUSH2 0x3D6 JUMPI PUSH1 0x0 DUP1 REVERT JUMPDEST POP PUSH2 0x3F1 PUSH1 0x4 DUP1 CALLDATASIZE SUB DUP2 ADD SWAP1 PUSH2 0x3EC SWAP2 SWAP1 PUSH2 0x43B8 JUMP JUMPDEST PUSH2 0x131B JUMP JUMPDEST PUSH1 0x40 MLOAD PUSH2 0x401 SWAP5 SWAP4 SWAP3 SWAP2 SWAP1 PUSH2 0x435E JUMP JUMPDEST PUSH1 0x40 MLOAD DUP1 SWAP2 SUB SWAP1 RETURN JUMPDEST CALLVALUE DUP1 ISZERO PUSH2 0x416 JUMPI PUSH1 0x0 DUP1 REVERT JUMPDEST POP PUSH2 0x41F PUSH2 0x163A JUMP JUMPDEST PUSH1 0x40 MLOAD PUSH2 0x42C SWAP2 SWAP1 PUSH2 0x4444 JUMP JUMPDEST PUSH1 0x40 MLOAD DUP1 SWAP2 SUB SWAP1 RETURN JUMPDEST CALLVALUE DUP1 ISZERO PUSH2 0x441 JUMPI PUSH1 0x0 DUP1 REVERT JUMPDEST POP PUSH2 0x45C PUSH1 0x4 DUP1 CALLDATASIZE SUB DUP2 ADD SWAP1 PUSH2 0x457 SWAP2 SWAP1 PUSH2 0x36E4 JUMP JUMPDEST PUSH2 0x1660 JUMP JUMPDEST STOP JUMPDEST CALLVALUE DUP1 ISZERO PUSH2 0x46A JUMPI PUSH1 0x0 DUP1 REVERT JUMPDEST POP PUSH2 0x473 PUSH2 0x53D JUMP JUMPDEST PUSH1 0x40 MLOAD PUSH2 0x480 SWAP2 SWAP1 PUSH2 0x3CA3 JUMP JUMPDEST PUSH1 0x40 MLOAD DUP1 SWAP2 SUB SWAP1 RETURN JUMPDEST CALLVALUE DUP1 ISZERO PUSH2 0x495 JUMPI PUSH1 0x0 DUP1 REVERT JUMPDEST POP PUSH2 0x49E PUSH2 0x18C8 JUMP JUMPDEST PUSH1 0x40 MLOAD PUSH2 0x4AB SWAP2 SWAP1 PUSH2 0x445F JUMP JUMPDEST PUSH1 0x40 MLOAD DUP1 SWAP2 SUB SWAP1 RETURN JUMPDEST PUSH2 0x4CE PUSH1 0x4 DUP1 CALLDATASIZE SUB DUP2 ADD SWAP1 PUSH2 0x4C9 SWAP2 SWAP1 PUSH2 0x44A6 JUMP JUMPDEST PUSH2 0x19A1 JUMP JUMPDEST PUSH1 0x40 MLOAD PUSH2 0x4DB SWAP2 SWAP1 PUSH2 0x3CA3 JUMP JUMPDEST PUSH1 0x40 MLOAD DUP1 SWAP2 SUB SWAP1 RETURN JUMPDEST PUSH2 0x4FE PUSH1 0x4 DUP1 CALLDATASIZE SUB DUP2 ADD SWAP1 PUSH2 0x4F9 SWAP2 SWAP1 PUSH2 0x44A6 JUMP JUMPDEST PUSH2 0x19BC JUMP JUMPDEST PUSH1 0x40 MLOAD PUSH2 0x50B SWAP2 SWAP1 PUSH2 0x3CA3 JUMP JUMPDEST PUSH1 0x40 MLOAD DUP1 SWAP2 SUB SWAP1 RETURN JUMPDEST CALLVALUE DUP1 ISZERO PUSH2 0x520 JUMPI PUSH1 0x0 DUP1 REVERT JUMPDEST POP PUSH2 0x53B PUSH1 0x4 DUP1 CALLDATASIZE SUB DUP2 ADD SWAP1 PUSH2 0x536 SWAP2 SWAP1 PUSH2 0x36B7 JUMP JUMPDEST PUSH2 0x19D7 JUMP JUMPDEST STOP JUMPDEST PUSH1 0x0 SWAP1 JUMP JUMPDEST PUSH1 0x0 DUP1 PUSH1 0x0 SHL DUP6 SUB PUSH2 0x589 JUMPI PUSH1 0x40 MLOAD PUSH32 0x8C379A000000000000000000000000000000000000000000000000000000000 DUP2 MSTORE PUSH1 0x4 ADD PUSH2 0x580 SWAP1 PUSH2 0x4561 JUMP JUMPDEST PUSH1 0x40 MLOAD DUP1 SWAP2 SUB SWAP1 REVERT JUMPDEST PUSH1 0x0 DUP5 MLOAD GT PUSH2 0x5CD JUMPI PUSH1 0x40 MLOAD PUSH32 0x8C379A000000000000000000000000000000000000000000000000000000000 DUP2 MSTORE PUSH1 0x4 ADD PUSH2 0x5C4 SWAP1 PUSH2 0x45CD JUMP JUMPDEST PUSH1 0x40 MLOAD DUP1 SWAP2 SUB SWAP1 REVERT JUMPDEST PUSH1 0x0 DUP3 MLOAD GT PUSH2 0x611 JUMPI PUSH1 0x40 MLOAD PUSH32 0x8C379A000000000000000000000000000000000000000000000000000000000 DUP2 MSTORE PUSH1 0x4 ADD PUSH2 0x608 SWAP1 PUSH2 0x465F JUMP JUMPDEST PUSH1 0x40 MLOAD DUP1 SWAP2 SUB SWAP1 REVERT JUMPDEST DUP4 MLOAD DUP3 MLOAD EQ PUSH2 0x655 JUMPI PUSH1 0x40 MLOAD PUSH32 0x8C379A000000000000000000000000000000000000000000000000000000000 DUP2 MSTORE PUSH1 0x4 ADD PUSH2 0x64C SWAP1 PUSH2 0x46F1 JUMP JUMPDEST PUSH1 0x40 MLOAD DUP1 SWAP2 SUB SWAP1 REVERT JUMPDEST DUP3 MLOAD DUP5 MLOAD EQ PUSH2 0x699 JUMPI PUSH1 0x40 MLOAD PUSH32 0x8C379A000000000000000000000000000000000000000000000000000000000 DUP2 MSTORE PUSH1 0x4 ADD PUSH2 0x690 SWAP1 PUSH2 0x4783 JUMP JUMPDEST PUSH1 0x40 MLOAD DUP1 SWAP2 SUB SWAP1 REVERT JUMPDEST PUSH1 0x6 PUSH1 0x40 MLOAD DUP1 PUSH1 0x80 ADD PUSH1 0x40 MSTORE DUP1 DUP8 DUP2 MSTORE PUSH1 0x20 ADD DUP7 DUP2 MSTORE PUSH1 0x20 ADD DUP5 DUP2 MSTORE PUSH1 0x20 ADD DUP6 DUP2 MSTORE POP SWAP1 DUP1 PUSH1 0x1 DUP2 SLOAD ADD DUP1 DUP3 SSTORE DUP1 SWAP2 POP POP PUSH1 0x1 SWAP1 SUB SWAP1 PUSH1 0x0 MSTORE PUSH1 0x20 PUSH1 0x0 KECCAK256 SWAP1 PUSH1 0x4 MUL ADD PUSH1 0x0 SWAP1 SWAP2 SWAP1 SWAP2 SWAP1 SWAP2 POP PUSH1 0x0 DUP3 ADD MLOAD DUP2 PUSH1 0x0 ADD SSTORE PUSH1 0x20 DUP3 ADD MLOAD DUP2 PUSH1 0x1 ADD SWAP1 DUP1 MLOAD SWAP1 PUSH1 0x20 ADD SWAP1 PUSH2 0x70B SWAP3 SWAP2 SWAP1 PUSH2 0x2D7E JUMP JUMPDEST POP PUSH1 0x40 DUP3 ADD MLOAD DUP2 PUSH1 0x2 ADD SWAP1 DUP1 MLOAD SWAP1 PUSH1 0x20 ADD SWAP1 PUSH2 0x728 SWAP3 SWAP2 SWAP1 PUSH2 0x2DD7 JUMP JUMPDEST POP PUSH1 0x60 DUP3 ADD MLOAD DUP2 PUSH1 0x3 ADD SWAP1 DUP1 MLOAD SWAP1 PUSH1 0x20 ADD SWAP1 PUSH2 0x745 SWAP3 SWAP2 SWAP1 PUSH2 0x2E8D JUMP JUMPDEST POP POP POP PUSH1 0x1 PUSH1 0x4 PUSH1 0x0 DUP3 DUP3 SLOAD PUSH2 0x75B SWAP2 SWAP1 PUSH2 0x47D2 JUMP JUMPDEST SWAP3 POP POP DUP2 SWAP1 SSTORE POP PUSH32 0x2CA1C706B776FC626B1E93B556D8968577908C5FEE79CA88376ADE10B781019C PUSH1 0x1 PUSH1 0x6 DUP1 SLOAD SWAP1 POP PUSH2 0x795 SWAP2 SWAP1 PUSH2 0x4806 JUMP JUMPDEST PUSH1 0x40 MLOAD PUSH2 0x7A2 SWAP2 SWAP1 PUSH2 0x359D JUMP JUMPDEST PUSH1 0x40 MLOAD DUP1 SWAP2 SUB SWAP1 LOG1 PUSH1 0x1 PUSH1 0x6 DUP1 SLOAD SWAP1 POP PUSH2 0x7BC SWAP2 SWAP1 PUSH2 0x4806 JUMP JUMPDEST SWAP1 POP SWAP5 SWAP4 POP POP POP POP JUMP JUMPDEST PUSH1 0x60 PUSH2 0x7F1 PUSH32 0x0 PUSH2 0x1A5A JUMP JUMPDEST PUSH2 0x81A PUSH32 0x0 PUSH2 0x1A5A JUMP JUMPDEST PUSH2 0x843 PUSH32 0x0 PUSH2 0x1A5A JUMP JUMPDEST PUSH1 0x40 MLOAD PUSH1 0x20 ADD PUSH2 0x855 SWAP4 SWAP3 SWAP2 SWAP1 PUSH2 0x48C2 JUMP JUMPDEST PUSH1 0x40 MLOAD PUSH1 0x20 DUP2 DUP4 SUB SUB DUP2 MSTORE SWAP1 PUSH1 0x40 MSTORE SWAP1 POP SWAP1 JUMP JUMPDEST PUSH2 0x871 PUSH2 0x1B28 JUMP JUMPDEST PUSH2 0x87B PUSH1 0x0 PUSH2 0x1BA6 JUMP JUMPDEST JUMP JUMPDEST PUSH2 0x885 PUSH2 0x1B28 JUMP JUMPDEST DUP1 PUSH1 0x1 PUSH1 0x0 PUSH2 0x100 EXP DUP2 SLOAD DUP2 PUSH20 0xFFFFFFFFFFFFFFFFFFFFFFFFFFFFFFFFFFFFFFFF MUL NOT AND SWAP1 DUP4 PUSH20 0xFFFFFFFFFFFFFFFFFFFFFFFFFFFFFFFFFFFFFFFF AND MUL OR SWAP1 SSTORE POP POP JUMP JUMPDEST PUSH1 0x60 DUP1 PUSH1 0x60 DUP1 PUSH1 0x0 PUSH1 0x60 PUSH1 0x0 DUP1 PUSH1 0x0 PUSH1 0x2 DUP11 PUSH1 0x40 MLOAD PUSH2 0x8E8 SWAP2 SWAP1 PUSH2 0x4909 JUMP JUMPDEST SWAP1 DUP2 MSTORE PUSH1 0x20 ADD PUSH1 0x40 MLOAD DUP1 SWAP2 SUB SWAP1 KECCAK256 PUSH1 0x40 MLOAD DUP1 PUSH2 0x160 ADD PUSH1 0x40 MSTORE SWAP1 DUP2 PUSH1 0x0 DUP3 ADD PUSH1 0x0 SWAP1 SLOAD SWAP1 PUSH2 0x100 EXP SWAP1 DIV PUSH20 0xFFFFFFFFFFFFFFFFFFFFFFFFFFFFFFFFFFFFFFFF AND PUSH20 0xFFFFFFFFFFFFFFFFFFFFFFFFFFFFFFFFFFFFFFFF AND PUSH20 0xFFFFFFFFFFFFFFFFFFFFFFFFFFFFFFFFFFFFFFFF AND DUP2 MSTORE PUSH1 0x20 ADD PUSH1 0x1 DUP3 ADD DUP1 SLOAD DUP1 PUSH1 0x20 MUL PUSH1 0x20 ADD PUSH1 0x40 MLOAD SWAP1 DUP2 ADD PUSH1 0x40 MSTORE DUP1 SWAP3 SWAP2 SWAP1 DUP2 DUP2 MSTORE PUSH1 0x20 ADD DUP3 DUP1 SLOAD DUP1 ISZERO PUSH2 0x9DD JUMPI PUSH1 0x20 MUL DUP3 ADD SWAP2 SWAP1 PUSH1 0x0 MSTORE PUSH1 0x20 PUSH1 0x0 KECCAK256 SWAP1 JUMPDEST DUP2 PUSH1 0x0 SWAP1 SLOAD SWAP1 PUSH2 0x100 EXP SWAP1 DIV PUSH20 0xFFFFFFFFFFFFFFFFFFFFFFFFFFFFFFFFFFFFFFFF AND PUSH20 0xFFFFFFFFFFFFFFFFFFFFFFFFFFFFFFFFFFFFFFFF AND DUP2 MSTORE PUSH1 0x20 ADD SWAP1 PUSH1 0x1 ADD SWAP1 DUP1 DUP4 GT PUSH2 0x993 JUMPI JUMPDEST POP POP POP POP POP DUP2 MSTORE PUSH1 0x20 ADD PUSH1 0x2 DUP3 ADD DUP1 SLOAD DUP1 PUSH1 0x20 MUL PUSH1 0x20 ADD PUSH1 0x40 MLOAD SWAP1 DUP2 ADD PUSH1 0x40 MSTORE DUP1 SWAP3 SWAP2 SWAP1 DUP2 DUP2 MSTORE PUSH1 0x20 ADD DUP3 DUP1 SLOAD DUP1 ISZERO PUSH2 0xA35 JUMPI PUSH1 0x20 MUL DUP3 ADD SWAP2 SWAP1 PUSH1 0x0 MSTORE PUSH1 0x20 PUSH1 0x0 KECCAK256 SWAP1 JUMPDEST DUP2 SLOAD DUP2 MSTORE PUSH1 0x20 ADD SWAP1 PUSH1 0x1 ADD SWAP1 DUP1 DUP4 GT PUSH2 0xA21 JUMPI JUMPDEST POP POP POP POP POP DUP2 MSTORE PUSH1 0x20 ADD PUSH1 0x3 DUP3 ADD DUP1 SLOAD DUP1 PUSH1 0x20 MUL PUSH1 0x20 ADD PUSH1 0x40 MLOAD SWAP1 DUP2 ADD PUSH1 0x40 MSTORE DUP1 SWAP3 SWAP2 SWAP1 DUP2 DUP2 MSTORE PUSH1 0x20 ADD PUSH1 0x0 SWAP1 JUMPDEST DUP3 DUP3 LT ISZERO PUSH2 0xB0F JUMPI DUP4 DUP3 SWAP1 PUSH1 0x0 MSTORE PUSH1 0x20 PUSH1 0x0 KECCAK256 ADD DUP1 SLOAD PUSH2 0xA82 SWAP1 PUSH2 0x494F JUMP JUMPDEST DUP1 PUSH1 0x1F ADD PUSH1 0x20 DUP1 SWAP2 DIV MUL PUSH1 0x20 ADD PUSH1 0x40 MLOAD SWAP1 DUP2 ADD PUSH1 0x40 MSTORE DUP1 SWAP3 SWAP2 SWAP1 DUP2 DUP2 MSTORE PUSH1 0x20 ADD DUP3 DUP1 SLOAD PUSH2 0xAAE SWAP1 PUSH2 0x494F JUMP JUMPDEST DUP1 ISZERO PUSH2 0xAFB JUMPI DUP1 PUSH1 0x1F LT PUSH2 0xAD0 JUMPI PUSH2 0x100 DUP1 DUP4 SLOAD DIV MUL DUP4 MSTORE SWAP2 PUSH1 0x20 ADD SWAP2 PUSH2 0xAFB JUMP JUMPDEST DUP3 ADD SWAP2 SWAP1 PUSH1 0x0 MSTORE PUSH1 0x20 PUSH1 0x0 KECCAK256 SWAP1 JUMPDEST DUP2 SLOAD DUP2 MSTORE SWAP1 PUSH1 0x1 ADD SWAP1 PUSH1 0x20 ADD DUP1 DUP4 GT PUSH2 0xADE JUMPI DUP3 SWAP1 SUB PUSH1 0x1F AND DUP3 ADD SWAP2 JUMPDEST POP POP POP POP POP DUP2 MSTORE PUSH1 0x20 ADD SWAP1 PUSH1 0x1 ADD SWAP1 PUSH2 0xA63 JUMP JUMPDEST POP POP POP POP DUP2 MSTORE PUSH1 0x20 ADD PUSH1 0x4 DUP3 ADD DUP1 SLOAD PUSH2 0xB27 SWAP1 PUSH2 0x494F JUMP JUMPDEST DUP1 PUSH1 0x1F ADD PUSH1 0x20 DUP1 SWAP2 DIV MUL PUSH1 0x20 ADD PUSH1 0x40 MLOAD SWAP1 DUP2 ADD PUSH1 0x40 MSTORE DUP1 SWAP3 SWAP2 SWAP1 DUP2 DUP2 MSTORE PUSH1 0x20 ADD DUP3 DUP1 SLOAD PUSH2 0xB53 SWAP1 PUSH2 0x494F JUMP JUMPDEST DUP1 ISZERO PUSH2 0xBA0 JUMPI DUP1 PUSH1 0x1F LT PUSH2 0xB75 JUMPI PUSH2 0x100 DUP1 DUP4 SLOAD DIV MUL DUP4 MSTORE SWAP2 PUSH1 0x20 ADD SWAP2 PUSH2 0xBA0 JUMP JUMPDEST DUP3 ADD SWAP2 SWAP1 PUSH1 0x0 MSTORE PUSH1 0x20 PUSH1 0x0 KECCAK256 SWAP1 JUMPDEST DUP2 SLOAD DUP2 MSTORE SWAP1 PUSH1 0x1 ADD SWAP1 PUSH1 0x20 ADD DUP1 DUP4 GT PUSH2 0xB83 JUMPI DUP3 SWAP1 SUB PUSH1 0x1F AND DUP3 ADD SWAP2 JUMPDEST POP POP POP POP POP DUP2 MSTORE PUSH1 0x20 ADD PUSH1 0x5 DUP3 ADD SLOAD DUP2 MSTORE PUSH1 0x20 ADD PUSH1 0x6 DUP3 ADD DUP1 SLOAD DUP1 PUSH1 0x20 MUL PUSH1 0x20 ADD PUSH1 0x40 MLOAD SWAP1 DUP2 ADD PUSH1 0x40 MSTORE DUP1 SWAP3 SWAP2 SWAP1 DUP2 DUP2 MSTORE PUSH1 0x20 ADD PUSH1 0x0 SWAP1 JUMPDEST DUP3 DUP3 LT ISZERO PUSH2 0xC74 JUMPI DUP4 DUP3 SWAP1 PUSH1 0x0 MSTORE PUSH1 0x20 PUSH1 0x0 KECCAK256 SWAP1 PUSH1 0x3 MUL ADD PUSH1 0x40 MLOAD DUP1 PUSH1 0x60 ADD PUSH1 0x40 MSTORE SWAP1 DUP2 PUSH1 0x0 DUP3 ADD PUSH1 0x0 SWAP1 SLOAD SWAP1 PUSH2 0x100 EXP SWAP1 DIV PUSH20 0xFFFFFFFFFFFFFFFFFFFFFFFFFFFFFFFFFFFFFFFF AND PUSH20 0xFFFFFFFFFFFFFFFFFFFFFFFFFFFFFFFFFFFFFFFF AND PUSH20 0xFFFFFFFFFFFFFFFFFFFFFFFFFFFFFFFFFFFFFFFF AND DUP2 MSTORE PUSH1 0x20 ADD PUSH1 0x1 DUP3 ADD SLOAD DUP2 MSTORE PUSH1 0x20 ADD PUSH1 0x2 DUP3 ADD SLOAD DUP2 MSTORE POP POP DUP2 MSTORE PUSH1 0x20 ADD SWAP1 PUSH1 0x1 ADD SWAP1 PUSH2 0xBD8 JUMP JUMPDEST POP POP POP POP DUP2 MSTORE PUSH1 0x20 ADD PUSH1 0x7 DUP3 ADD PUSH1 0x0 SWAP1 SLOAD SWAP1 PUSH2 0x100 EXP SWAP1 DIV PUSH1 0xFF AND ISZERO ISZERO ISZERO ISZERO DUP2 MSTORE PUSH1 0x20 ADD PUSH1 0x8 DUP3 ADD SLOAD DUP2 MSTORE PUSH1 0x20 ADD PUSH1 0x9 DUP3 ADD SLOAD DUP2 MSTORE PUSH1 0x20 ADD PUSH1 0xA DUP3 ADD DUP1 SLOAD PUSH2 0xCBB SWAP1 PUSH2 0x494F JUMP JUMPDEST DUP1 PUSH1 0x1F ADD PUSH1 0x20 DUP1 SWAP2 DIV MUL PUSH1 0x20 ADD PUSH1 0x40 MLOAD SWAP1 DUP2 ADD PUSH1 0x40 MSTORE DUP1 SWAP3 SWAP2 SWAP1 DUP2 DUP2 MSTORE PUSH1 0x20 ADD DUP3 DUP1 SLOAD PUSH2 0xCE7 SWAP1 PUSH2 0x494F JUMP JUMPDEST DUP1 ISZERO PUSH2 0xD34 JUMPI DUP1 PUSH1 0x1F LT PUSH2 0xD09 JUMPI PUSH2 0x100 DUP1 DUP4 SLOAD DIV MUL DUP4 MSTORE SWAP2 PUSH1 0x20 ADD SWAP2 PUSH2 0xD34 JUMP JUMPDEST DUP3 ADD SWAP2 SWAP1 PUSH1 0x0 MSTORE PUSH1 0x20 PUSH1 0x0 KECCAK256 SWAP1 JUMPDEST DUP2 SLOAD DUP2 MSTORE SWAP1 PUSH1 0x1 ADD SWAP1 PUSH1 0x20 ADD DUP1 DUP4 GT PUSH2 0xD17 JUMPI DUP3 SWAP1 SUB PUSH1 0x1F AND DUP3 ADD SWAP2 JUMPDEST POP POP POP POP POP DUP2 MSTORE POP POP SWAP1 POP DUP1 PUSH1 0x20 ADD MLOAD DUP2 PUSH1 0x40 ADD MLOAD DUP3 PUSH1 0x60 ADD MLOAD DUP4 PUSH1 0x80 ADD MLOAD DUP5 PUSH1 0xA0 ADD MLOAD DUP6 PUSH1 0xC0 ADD MLOAD DUP7 PUSH2 0x120 ADD MLOAD DUP8 PUSH1 0xE0 ADD MLOAD SWAP9 POP SWAP9 POP SWAP9 POP SWAP9 POP SWAP9 POP SWAP9 POP SWAP9 POP SWAP9 POP POP SWAP2 SWAP4 SWAP6 SWAP8 POP SWAP2 SWAP4 SWAP6 SWAP8 JUMP JUMPDEST PUSH1 0x4 SLOAD DUP2 JUMP JUMPDEST PUSH1 0x0 PUSH2 0xD94 PUSH2 0x1C6A JUMP JUMPDEST PUSH1 0x0 DUP6 DUP6 SWAP1 POP SWAP1 POP PUSH1 0x0 CALLVALUE SWAP1 POP PUSH1 0x0 JUMPDEST DUP3 DUP2 LT ISZERO PUSH2 0xE59 JUMPI PUSH1 0x0 DUP7 DUP7 DUP4 DUP2 DUP2 LT PUSH2 0xDC1 JUMPI PUSH2 0xDC0 PUSH2 0x4980 JUMP JUMPDEST JUMPDEST SWAP1 POP PUSH1 0x20 MUL ADD CALLDATALOAD SWAP1 POP DUP3 DUP2 GT ISZERO PUSH2 0xE04 JUMPI PUSH1 0x40 MLOAD PUSH32 0x1101129400000000000000000000000000000000000000000000000000000000 DUP2 MSTORE PUSH1 0x4 ADD PUSH1 0x40 MLOAD DUP1 SWAP2 SUB SWAP1 REVERT JUMPDEST PUSH2 0xE32 DUP10 DUP10 DUP5 DUP2 DUP2 LT PUSH2 0xE1A JUMPI PUSH2 0xE19 PUSH2 0x4980 JUMP JUMPDEST JUMPDEST SWAP1 POP PUSH1 0x20 MUL DUP2 ADD SWAP1 PUSH2 0xE2C SWAP2 SWAP1 PUSH2 0x49BE JUMP JUMPDEST DUP3 PUSH2 0x1CF1 JUMP JUMPDEST PUSH2 0xE43 JUMPI PUSH1 0x0 SWAP5 POP POP POP POP POP PUSH2 0xE61 JUMP JUMPDEST DUP1 DUP4 SUB SWAP3 POP POP PUSH2 0xE52 DUP2 PUSH2 0x1CFD JUMP JUMPDEST SWAP1 POP PUSH2 0xDA4 JUMP JUMPDEST POP PUSH1 0x1 SWAP3 POP POP POP JUMPDEST SWAP5 SWAP4 POP POP POP POP JUMP JUMPDEST PUSH1 0x0 DUP1 PUSH1 0x0 SWAP1 SLOAD SWAP1 PUSH2 0x100 EXP SWAP1 DIV PUSH20 0xFFFFFFFFFFFFFFFFFFFFFFFFFFFFFFFFFFFFFFFF AND SWAP1 POP SWAP1 JUMP JUMPDEST PUSH1 0x0 PUSH2 0xE9C PUSH2 0x1C6A JUMP JUMPDEST PUSH1 0x0 DUP6 DUP6 SWAP1 POP SWAP1 POP PUSH1 0x0 CALLVALUE SWAP1 POP PUSH1 0x0 JUMPDEST DUP3 DUP2 LT ISZERO PUSH2 0xF61 JUMPI PUSH1 0x0 DUP7 DUP7 DUP4 DUP2 DUP2 LT PUSH2 0xEC9 JUMPI PUSH2 0xEC8 PUSH2 0x4980 JUMP JUMPDEST JUMPDEST SWAP1 POP PUSH1 0x20 MUL ADD CALLDATALOAD SWAP1 POP DUP3 DUP2 GT ISZERO PUSH2 0xF0C JUMPI PUSH1 0x40 MLOAD PUSH32 0x1101129400000000000000000000000000000000000000000000000000000000 DUP2 MSTORE PUSH1 0x4 ADD PUSH1 0x40 MLOAD DUP1 SWAP2 SUB SWAP1 REVERT JUMPDEST PUSH2 0xF3A DUP10 DUP10 DUP5 DUP2 DUP2 LT PUSH2 0xF22 JUMPI PUSH2 0xF21 PUSH2 0x4980 JUMP JUMPDEST JUMPDEST SWAP1 POP PUSH1 0x20 MUL DUP2 ADD SWAP1 PUSH2 0xF34 SWAP2 SWAP1 PUSH2 0x49BE JUMP JUMPDEST DUP3 PUSH2 0x1D0A JUMP JUMPDEST PUSH2 0xF4B JUMPI PUSH1 0x0 SWAP5 POP POP POP POP POP PUSH2 0xF69 JUMP JUMPDEST DUP1 DUP4 SUB SWAP3 POP POP PUSH2 0xF5A DUP2 PUSH2 0x1CFD JUMP JUMPDEST SWAP1 POP PUSH2 0xEAC JUMP JUMPDEST POP PUSH1 0x1 SWAP3 POP POP POP JUMPDEST SWAP5 SWAP4 POP POP POP POP JUMP JUMPDEST PUSH1 0x5 DUP1 SLOAD PUSH2 0xF7E SWAP1 PUSH2 0x494F JUMP JUMPDEST DUP1 PUSH1 0x1F ADD PUSH1 0x20 DUP1 SWAP2 DIV MUL PUSH1 0x20 ADD PUSH1 0x40 MLOAD SWAP1 DUP2 ADD PUSH1 0x40 MSTORE DUP1 SWAP3 SWAP2 SWAP1 DUP2 DUP2 MSTORE PUSH1 0x20 ADD DUP3 DUP1 SLOAD PUSH2 0xFAA SWAP1 PUSH2 0x494F JUMP JUMPDEST DUP1 ISZERO PUSH2 0xFF7 JUMPI DUP1 PUSH1 0x1F LT PUSH2 0xFCC JUMPI PUSH2 0x100 DUP1 DUP4 SLOAD DIV MUL DUP4 MSTORE SWAP2 PUSH1 0x20 ADD SWAP2 PUSH2 0xFF7 JUMP JUMPDEST DUP3 ADD SWAP2 SWAP1 PUSH1 0x0 MSTORE PUSH1 0x20 PUSH1 0x0 KECCAK256 SWAP1 JUMPDEST DUP2 SLOAD DUP2 MSTORE SWAP1 PUSH1 0x1 ADD SWAP1 PUSH1 0x20 ADD DUP1 DUP4 GT PUSH2 0xFDA JUMPI DUP3 SWAP1 SUB PUSH1 0x1F AND DUP3 ADD SWAP2 JUMPDEST POP POP POP POP POP DUP2 JUMP JUMPDEST PUSH2 0x1010 DUP8 DUP8 DUP8 DUP8 DUP8 DUP8 DUP8 PUSH1 0x1 PUSH2 0x2119 JUMP JUMPDEST POP POP POP POP POP POP POP JUMP JUMPDEST PUSH2 0x102B DUP7 DUP7 DUP7 DUP7 DUP7 PUSH1 0x0 DUP8 PUSH1 0x0 PUSH2 0x2119 JUMP JUMPDEST POP POP POP POP POP POP JUMP JUMPDEST PUSH1 0x60 DUP1 PUSH1 0x60 PUSH1 0x0 DUP1 PUSH1 0x2 DUP7 PUSH1 0x40 MLOAD PUSH2 0x104B SWAP2 SWAP1 PUSH2 0x4909 JUMP JUMPDEST SWAP1 DUP2 MSTORE PUSH1 0x20 ADD PUSH1 0x40 MLOAD DUP1 SWAP2 SUB SWAP1 KECCAK256 SWAP1 POP PUSH1 0x0 PUSH1 0x6 DUP3 PUSH1 0x9 ADD SLOAD DUP2 SLOAD DUP2 LT PUSH2 0x1075 JUMPI PUSH2 0x1074 PUSH2 0x4980 JUMP JUMPDEST JUMPDEST SWAP1 PUSH1 0x0 MSTORE PUSH1 0x20 PUSH1 0x0 KECCAK256 SWAP1 PUSH1 0x4 MUL ADD SWAP1 POP DUP1 PUSH1 0x1 ADD DUP2 PUSH1 0x2 ADD DUP3 PUSH1 0x3 ADD DUP4 PUSH1 0x0 ADD SLOAD DUP4 DUP1 SLOAD DUP1 PUSH1 0x20 MUL PUSH1 0x20 ADD PUSH1 0x40 MLOAD SWAP1 DUP2 ADD PUSH1 0x40 MSTORE DUP1 SWAP3 SWAP2 SWAP1 DUP2 DUP2 MSTORE PUSH1 0x20 ADD PUSH1 0x0 SWAP1 JUMPDEST DUP3 DUP3 LT ISZERO PUSH2 0x1163 JUMPI DUP4 DUP3 SWAP1 PUSH1 0x0 MSTORE PUSH1 0x20 PUSH1 0x0 KECCAK256 ADD DUP1 SLOAD PUSH2 0x10D6 SWAP1 PUSH2 0x494F JUMP JUMPDEST DUP1 PUSH1 0x1F ADD PUSH1 0x20 DUP1 SWAP2 DIV MUL PUSH1 0x20 ADD PUSH1 0x40 MLOAD SWAP1 DUP2 ADD PUSH1 0x40 MSTORE DUP1 SWAP3 SWAP2 SWAP1 DUP2 DUP2 MSTORE PUSH1 0x20 ADD DUP3 DUP1 SLOAD PUSH2 0x1102 SWAP1 PUSH2 0x494F JUMP JUMPDEST DUP1 ISZERO PUSH2 0x114F JUMPI DUP1 PUSH1 0x1F LT PUSH2 0x1124 JUMPI PUSH2 0x100 DUP1 DUP4 SLOAD DIV MUL DUP4 MSTORE SWAP2 PUSH1 0x20 ADD SWAP2 PUSH2 0x114F JUMP JUMPDEST DUP3 ADD SWAP2 SWAP1 PUSH1 0x0 MSTORE PUSH1 0x20 PUSH1 0x0 KECCAK256 SWAP1 JUMPDEST DUP2 SLOAD DUP2 MSTORE SWAP1 PUSH1 0x1 ADD SWAP1 PUSH1 0x20 ADD DUP1 DUP4 GT PUSH2 0x1132 JUMPI DUP3 SWAP1 SUB PUSH1 0x1F AND DUP3 ADD SWAP2 JUMPDEST POP POP POP POP POP DUP2 MSTORE PUSH1 0x20 ADD SWAP1 PUSH1 0x1 ADD SWAP1 PUSH2 0x10B7 JUMP JUMPDEST POP POP POP POP SWAP4 POP DUP3 DUP1 SLOAD DUP1 PUSH1 0x20 MUL PUSH1 0x20 ADD PUSH1 0x40 MLOAD SWAP1 DUP2 ADD PUSH1 0x40 MSTORE DUP1 SWAP3 SWAP2 SWAP1 DUP2 DUP2 MSTORE PUSH1 0x20 ADD DUP3 DUP1 SLOAD DUP1 ISZERO PUSH2 0x11E9 JUMPI PUSH1 0x20 MUL DUP3 ADD SWAP2 SWAP1 PUSH1 0x0 MSTORE PUSH1 0x20 PUSH1 0x0 KECCAK256 SWAP1 PUSH1 0x0 SWAP1 JUMPDEST DUP3 DUP3 SWAP1 SLOAD SWAP1 PUSH2 0x100 EXP SWAP1 DIV PUSH1 0xFF AND PUSH1 0x2 DUP2 GT ISZERO PUSH2 0x11C3 JUMPI PUSH2 0x11C2 PUSH2 0x410D JUMP JUMPDEST JUMPDEST DUP2 MSTORE PUSH1 0x20 ADD SWAP1 PUSH1 0x1 ADD SWAP1 PUSH1 0x20 DUP3 PUSH1 0x0 ADD DIV SWAP3 DUP4 ADD SWAP3 PUSH1 0x1 SUB DUP3 MUL SWAP2 POP DUP1 DUP5 GT PUSH2 0x11A3 JUMPI SWAP1 POP JUMPDEST POP POP POP POP POP SWAP3 POP DUP2 DUP1 SLOAD DUP1 PUSH1 0x20 MUL PUSH1 0x20 ADD PUSH1 0x40 MLOAD SWAP1 DUP2 ADD PUSH1 0x40 MSTORE DUP1 SWAP3 SWAP2 SWAP1 DUP2 DUP2 MSTORE PUSH1 0x20 ADD PUSH1 0x0 SWAP1 JUMPDEST DUP3 DUP3 LT ISZERO PUSH2 0x1304 JUMPI DUP4 DUP3 SWAP1 PUSH1 0x0 MSTORE PUSH1 0x20 PUSH1 0x0 KECCAK256 ADD DUP1 SLOAD DUP1 PUSH1 0x20 MUL PUSH1 0x20 ADD PUSH1 0x40 MLOAD SWAP1 DUP2 ADD PUSH1 0x40 MSTORE DUP1 SWAP3 SWAP2 SWAP1 DUP2 DUP2 MSTORE PUSH1 0x20 ADD PUSH1 0x0 SWAP1 JUMPDEST DUP3 DUP3 LT ISZERO PUSH2 0x12F1 JUMPI DUP4 DUP3 SWAP1 PUSH1 0x0 MSTORE PUSH1 0x20 PUSH1 0x0 KECCAK256 ADD DUP1 SLOAD PUSH2 0x1264 SWAP1 PUSH2 0x494F JUMP JUMPDEST DUP1 PUSH1 0x1F ADD PUSH1 0x20 DUP1 SWAP2 DIV MUL PUSH1 0x20 ADD PUSH1 0x40 MLOAD SWAP1 DUP2 ADD PUSH1 0x40 MSTORE DUP1 SWAP3 SWAP2 SWAP1 DUP2 DUP2 MSTORE PUSH1 0x20 ADD DUP3 DUP1 SLOAD PUSH2 0x1290 SWAP1 PUSH2 0x494F JUMP JUMPDEST DUP1 ISZERO PUSH2 0x12DD JUMPI DUP1 PUSH1 0x1F LT PUSH2 0x12B2 JUMPI PUSH2 0x100 DUP1 DUP4 SLOAD DIV MUL DUP4 MSTORE SWAP2 PUSH1 0x20 ADD SWAP2 PUSH2 0x12DD JUMP JUMPDEST DUP3 ADD SWAP2 SWAP1 PUSH1 0x0 MSTORE PUSH1 0x20 PUSH1 0x0 KECCAK256 SWAP1 JUMPDEST DUP2 SLOAD DUP2 MSTORE SWAP1 PUSH1 0x1 ADD SWAP1 PUSH1 0x20 ADD DUP1 DUP4 GT PUSH2 0x12C0 JUMPI DUP3 SWAP1 SUB PUSH1 0x1F AND DUP3 ADD SWAP2 JUMPDEST POP POP POP POP POP DUP2 MSTORE PUSH1 0x20 ADD SWAP1 PUSH1 0x1 ADD SWAP1 PUSH2 0x1245 JUMP JUMPDEST POP POP POP POP DUP2 MSTORE PUSH1 0x20 ADD SWAP1 PUSH1 0x1 ADD SWAP1 PUSH2 0x1211 JUMP JUMPDEST POP POP POP POP SWAP2 POP SWAP6 POP SWAP6 POP SWAP6 POP SWAP6 POP POP POP SWAP2 SWAP4 POP SWAP2 SWAP4 JUMP JUMPDEST PUSH1 0x60 DUP1 PUSH1 0x60 PUSH1 0x0 PUSH1 0x6 DUP6 DUP2 SLOAD DUP2 LT PUSH2 0x1336 JUMPI PUSH2 0x1335 PUSH2 0x4980 JUMP JUMPDEST JUMPDEST SWAP1 PUSH1 0x0 MSTORE PUSH1 0x20 PUSH1 0x0 KECCAK256 SWAP1 PUSH1 0x4 MUL ADD PUSH1 0x1 ADD PUSH1 0x6 DUP7 DUP2 SLOAD DUP2 LT PUSH2 0x135B JUMPI PUSH2 0x135A PUSH2 0x4980 JUMP JUMPDEST JUMPDEST SWAP1 PUSH1 0x0 MSTORE PUSH1 0x20 PUSH1 0x0 KECCAK256 SWAP1 PUSH1 0x4 MUL ADD PUSH1 0x2 ADD PUSH1 0x6 DUP8 DUP2 SLOAD DUP2 LT PUSH2 0x1380 JUMPI PUSH2 0x137F PUSH2 0x4980 JUMP JUMPDEST JUMPDEST SWAP1 PUSH1 0x0 MSTORE PUSH1 0x20 PUSH1 0x0 KECCAK256 SWAP1 PUSH1 0x4 MUL ADD PUSH1 0x3 ADD PUSH1 0x6 DUP9 DUP2 SLOAD DUP2 LT PUSH2 0x13A5 JUMPI PUSH2 0x13A4 PUSH2 0x4980 JUMP JUMPDEST JUMPDEST SWAP1 PUSH1 0x0 MSTORE PUSH1 0x20 PUSH1 0x0 KECCAK256 SWAP1 PUSH1 0x4 MUL ADD PUSH1 0x0 ADD SLOAD DUP4 DUP1 SLOAD DUP1 PUSH1 0x20 MUL PUSH1 0x20 ADD PUSH1 0x40 MLOAD SWAP1 DUP2 ADD PUSH1 0x40 MSTORE DUP1 SWAP3 SWAP2 SWAP1 DUP2 DUP2 MSTORE PUSH1 0x20 ADD PUSH1 0x0 SWAP1 JUMPDEST DUP3 DUP3 LT ISZERO PUSH2 0x1484 JUMPI DUP4 DUP3 SWAP1 PUSH1 0x0 MSTORE PUSH1 0x20 PUSH1 0x0 KECCAK256 ADD DUP1 SLOAD PUSH2 0x13F7 SWAP1 PUSH2 0x494F JUMP JUMPDEST DUP1 PUSH1 0x1F ADD PUSH1 0x20 DUP1 SWAP2 DIV MUL PUSH1 0x20 ADD PUSH1 0x40 MLOAD SWAP1 DUP2 ADD PUSH1 0x40 MSTORE DUP1 SWAP3 SWAP2 SWAP1 DUP2 DUP2 MSTORE PUSH1 0x20 ADD DUP3 DUP1 SLOAD PUSH2 0x1423 SWAP1 PUSH2 0x494F JUMP JUMPDEST DUP1 ISZERO PUSH2 0x1470 JUMPI DUP1 PUSH1 0x1F LT PUSH2 0x1445 JUMPI PUSH2 0x100 DUP1 DUP4 SLOAD DIV MUL DUP4 MSTORE SWAP2 PUSH1 0x20 ADD SWAP2 PUSH2 0x1470 JUMP JUMPDEST DUP3 ADD SWAP2 SWAP1 PUSH1 0x0 MSTORE PUSH1 0x20 PUSH1 0x0 KECCAK256 SWAP1 JUMPDEST DUP2 SLOAD DUP2 MSTORE SWAP1 PUSH1 0x1 ADD SWAP1 PUSH1 0x20 ADD DUP1 DUP4 GT PUSH2 0x1453 JUMPI DUP3 SWAP1 SUB PUSH1 0x1F AND DUP3 ADD SWAP2 JUMPDEST POP POP POP POP POP DUP2 MSTORE PUSH1 0x20 ADD SWAP1 PUSH1 0x1 ADD SWAP1 PUSH2 0x13D8 JUMP JUMPDEST POP POP POP POP SWAP4 POP DUP3 DUP1 SLOAD DUP1 PUSH1 0x20 MUL PUSH1 0x20 ADD PUSH1 0x40 MLOAD SWAP1 DUP2 ADD PUSH1 0x40 MSTORE DUP1 SWAP3 SWAP2 SWAP1 DUP2 DUP2 MSTORE PUSH1 0x20 ADD DUP3 DUP1 SLOAD DUP1 ISZERO PUSH2 0x150A JUMPI PUSH1 0x20 MUL DUP3 ADD SWAP2 SWAP1 PUSH1 0x0 MSTORE PUSH1 0x20 PUSH1 0x0 KECCAK256 SWAP1 PUSH1 0x0 SWAP1 JUMPDEST DUP3 DUP3 SWAP1 SLOAD SWAP1 PUSH2 0x100 EXP SWAP1 DIV PUSH1 0xFF AND PUSH1 0x2 DUP2 GT ISZERO PUSH2 0x14E4 JUMPI PUSH2 0x14E3 PUSH2 0x410D JUMP JUMPDEST JUMPDEST DUP2 MSTORE PUSH1 0x20 ADD SWAP1 PUSH1 0x1 ADD SWAP1 PUSH1 0x20 DUP3 PUSH1 0x0 ADD DIV SWAP3 DUP4 ADD SWAP3 PUSH1 0x1 SUB DUP3 MUL SWAP2 POP DUP1 DUP5 GT PUSH2 0x14C4 JUMPI SWAP1 POP JUMPDEST POP POP POP POP POP SWAP3 POP DUP2 DUP1 SLOAD DUP1 PUSH1 0x20 MUL PUSH1 0x20 ADD PUSH1 0x40 MLOAD SWAP1 DUP2 ADD PUSH1 0x40 MSTORE DUP1 SWAP3 SWAP2 SWAP1 DUP2 DUP2 MSTORE PUSH1 0x20 ADD PUSH1 0x0 SWAP1 JUMPDEST DUP3 DUP3 LT ISZERO PUSH2 0x1625 JUMPI DUP4 DUP3 SWAP1 PUSH1 0x0 MSTORE PUSH1 0x20 PUSH1 0x0 KECCAK256 ADD DUP1 SLOAD DUP1 PUSH1 0x20 MUL PUSH1 0x20 ADD PUSH1 0x40 MLOAD SWAP1 DUP2 ADD PUSH1 0x40 MSTORE DUP1 SWAP3 SWAP2 SWAP1 DUP2 DUP2 MSTORE PUSH1 0x20 ADD PUSH1 0x0 SWAP1 JUMPDEST DUP3 DUP3 LT ISZERO PUSH2 0x1612 JUMPI DUP4 DUP3 SWAP1 PUSH1 0x0 MSTORE PUSH1 0x20 PUSH1 0x0 KECCAK256 ADD DUP1 SLOAD PUSH2 0x1585 SWAP1 PUSH2 0x494F JUMP JUMPDEST DUP1 PUSH1 0x1F ADD PUSH1 0x20 DUP1 SWAP2 DIV MUL PUSH1 0x20 ADD PUSH1 0x40 MLOAD SWAP1 DUP2 ADD PUSH1 0x40 MSTORE DUP1 SWAP3 SWAP2 SWAP1 DUP2 DUP2 MSTORE PUSH1 0x20 ADD DUP3 DUP1 SLOAD PUSH2 0x15B1 SWAP1 PUSH2 0x494F JUMP JUMPDEST DUP1 ISZERO PUSH2 0x15FE JUMPI DUP1 PUSH1 0x1F LT PUSH2 0x15D3 JUMPI PUSH2 0x100 DUP1 DUP4 SLOAD DIV MUL DUP4 MSTORE SWAP2 PUSH1 0x20 ADD SWAP2 PUSH2 0x15FE JUMP JUMPDEST DUP3 ADD SWAP2 SWAP1 PUSH1 0x0 MSTORE PUSH1 0x20 PUSH1 0x0 KECCAK256 SWAP1 JUMPDEST DUP2 SLOAD DUP2 MSTORE SWAP1 PUSH1 0x1 ADD SWAP1 PUSH1 0x20 ADD DUP1 DUP4 GT PUSH2 0x15E1 JUMPI DUP3 SWAP1 SUB PUSH1 0x1F AND DUP3 ADD SWAP2 JUMPDEST POP POP POP POP POP DUP2 MSTORE PUSH1 0x20 ADD SWAP1 PUSH1 0x1 ADD SWAP1 PUSH2 0x1566 JUMP JUMPDEST POP POP POP POP DUP2 MSTORE PUSH1 0x20 ADD SWAP1 PUSH1 0x1 ADD SWAP1 PUSH2 0x1532 JUMP JUMPDEST POP POP POP POP SWAP2 POP SWAP4 POP SWAP4 POP SWAP4 POP SWAP4 POP SWAP2 SWAP4 POP SWAP2 SWAP4 JUMP JUMPDEST PUSH1 0x1 PUSH1 0x0 SWAP1 SLOAD SWAP1 PUSH2 0x100 EXP SWAP1 DIV PUSH20 0xFFFFFFFFFFFFFFFFFFFFFFFFFFFFFFFFFFFFFFFF AND DUP2 JUMP JUMPDEST PUSH1 0x2 DUP2 PUSH1 0x40 MLOAD PUSH2 0x1670 SWAP2 SWAP1 PUSH2 0x4909 JUMP JUMPDEST SWAP1 DUP2 MSTORE PUSH1 0x20 ADD PUSH1 0x40 MLOAD DUP1 SWAP2 SUB SWAP1 KECCAK256 PUSH1 0x0 ADD PUSH1 0x0 SWAP1 SLOAD SWAP1 PUSH2 0x100 EXP SWAP1 DIV PUSH20 0xFFFFFFFFFFFFFFFFFFFFFFFFFFFFFFFFFFFFFFFF AND PUSH20 0xFFFFFFFFFFFFFFFFFFFFFFFFFFFFFFFFFFFFFFFF AND CALLER PUSH20 0xFFFFFFFFFFFFFFFFFFFFFFFFFFFFFFFFFFFFFFFF AND EQ PUSH2 0x170F JUMPI PUSH1 0x40 MLOAD PUSH32 0x8C379A000000000000000000000000000000000000000000000000000000000 DUP2 MSTORE PUSH1 0x4 ADD PUSH2 0x1706 SWAP1 PUSH2 0x4A33 JUMP JUMPDEST PUSH1 0x40 MLOAD DUP1 SWAP2 SUB SWAP1 REVERT JUMPDEST PUSH1 0x0 ISZERO ISZERO PUSH1 0x2 DUP3 PUSH1 0x40 MLOAD PUSH2 0x1723 SWAP2 SWAP1 PUSH2 0x4909 JUMP JUMPDEST SWAP1 DUP2 MSTORE PUSH1 0x20 ADD PUSH1 0x40 MLOAD DUP1 SWAP2 SUB SWAP1 KECCAK256 PUSH1 0x7 ADD PUSH1 0x0 SWAP1 SLOAD SWAP1 PUSH2 0x100 EXP SWAP1 DIV PUSH1 0xFF AND ISZERO ISZERO EQ PUSH2 0x1784 JUMPI PUSH1 0x40 MLOAD PUSH32 0x8C379A000000000000000000000000000000000000000000000000000000000 DUP2 MSTORE PUSH1 0x4 ADD PUSH2 0x177B SWAP1 PUSH2 0x4A9F JUMP JUMPDEST PUSH1 0x40 MLOAD DUP1 SWAP2 SUB SWAP1 REVERT JUMPDEST PUSH1 0x2 DUP2 PUSH1 0x40 MLOAD PUSH2 0x1794 SWAP2 SWAP1 PUSH2 0x4909 JUMP JUMPDEST SWAP1 DUP2 MSTORE PUSH1 0x20 ADD PUSH1 0x40 MLOAD DUP1 SWAP2 SUB SWAP1 KECCAK256 PUSH1 0x0 ADD PUSH1 0x0 SWAP1 SLOAD SWAP1 PUSH2 0x100 EXP SWAP1 DIV PUSH20 0xFFFFFFFFFFFFFFFFFFFFFFFFFFFFFFFFFFFFFFFF AND PUSH20 0xFFFFFFFFFFFFFFFFFFFFFFFFFFFFFFFFFFFFFFFF AND PUSH2 0x8FC PUSH1 0x2 DUP4 PUSH1 0x40 MLOAD PUSH2 0x17EF SWAP2 SWAP1 PUSH2 0x4909 JUMP JUMPDEST SWAP1 DUP2 MSTORE PUSH1 0x20 ADD PUSH1 0x40 MLOAD DUP1 SWAP2 SUB SWAP1 KECCAK256 PUSH1 0x8 ADD SLOAD SWAP1 DUP2 ISZERO MUL SWAP1 PUSH1 0x40 MLOAD PUSH1 0x0 PUSH1 0x40 MLOAD DUP1 DUP4 SUB DUP2 DUP6 DUP9 DUP9 CALL SWAP4 POP POP POP POP ISZERO DUP1 ISZERO PUSH2 0x182C JUMPI RETURNDATASIZE PUSH1 0x0 DUP1 RETURNDATACOPY RETURNDATASIZE PUSH1 0x0 REVERT JUMPDEST POP PUSH1 0x1 PUSH1 0x2 DUP3 PUSH1 0x40 MLOAD PUSH2 0x183F SWAP2 SWAP1 PUSH2 0x4909 JUMP JUMPDEST SWAP1 DUP2 MSTORE PUSH1 0x20 ADD PUSH1 0x40 MLOAD DUP1 SWAP2 SUB SWAP1 KECCAK256 PUSH1 0x7 ADD PUSH1 0x0 PUSH2 0x100 EXP DUP2 SLOAD DUP2 PUSH1 0xFF MUL NOT AND SWAP1 DUP4 ISZERO ISZERO MUL OR SWAP1 SSTORE POP PUSH1 0x0 PUSH1 0x2 DUP3 PUSH1 0x40 MLOAD PUSH2 0x1879 SWAP2 SWAP1 PUSH2 0x4909 JUMP JUMPDEST SWAP1 DUP2 MSTORE PUSH1 0x20 ADD PUSH1 0x40 MLOAD DUP1 SWAP2 SUB SWAP1 KECCAK256 PUSH1 0x8 ADD DUP2 SWAP1 SSTORE POP PUSH32 0xBC5C8CB2024ED254E024E37B09895ECAA07948DD0FD7A08E30B80F559888F2CF DUP2 PUSH1 0x40 MLOAD PUSH2 0x18BD SWAP2 SWAP1 PUSH2 0x3637 JUMP JUMPDEST PUSH1 0x40 MLOAD DUP1 SWAP2 SUB SWAP1 LOG1 POP JUMP JUMPDEST PUSH1 0x60 PUSH1 0x3 DUP1 SLOAD DUP1 PUSH1 0x20 MUL PUSH1 0x20 ADD PUSH1 0x40 MLOAD SWAP1 DUP2 ADD PUSH1 0x40 MSTORE DUP1 SWAP3 SWAP2 SWAP1 DUP2 DUP2 MSTORE PUSH1 0x20 ADD PUSH1 0x0 SWAP1 JUMPDEST DUP3 DUP3 LT ISZERO PUSH2 0x1998 JUMPI DUP4 DUP3 SWAP1 PUSH1 0x0 MSTORE PUSH1 0x20 PUSH1 0x0 KECCAK256 ADD DUP1 SLOAD PUSH2 0x190B SWAP1 PUSH2 0x494F JUMP JUMPDEST DUP1 PUSH1 0x1F ADD PUSH1 0x20 DUP1 SWAP2 DIV MUL PUSH1 0x20 ADD PUSH1 0x40 MLOAD SWAP1 DUP2 ADD PUSH1 0x40 MSTORE DUP1 SWAP3 SWAP2 SWAP1 DUP2 DUP2 MSTORE PUSH1 0x20 ADD DUP3 DUP1 SLOAD PUSH2 0x1937 SWAP1 PUSH2 0x494F JUMP JUMPDEST DUP1 ISZERO PUSH2 0x1984 JUMPI DUP1 PUSH1 0x1F LT PUSH2 0x1959 JUMPI PUSH2 0x100 DUP1 DUP4 SLOAD DIV MUL DUP4 MSTORE SWAP2 PUSH1 0x20 ADD SWAP2 PUSH2 0x1984 JUMP JUMPDEST DUP3 ADD SWAP2 SWAP1 PUSH1 0x0 MSTORE PUSH1 0x20 PUSH1 0x0 KECCAK256 SWAP1 JUMPDEST DUP2 SLOAD DUP2 MSTORE SWAP1 PUSH1 0x1 ADD SWAP1 PUSH1 0x20 ADD DUP1 DUP4 GT PUSH2 0x1967 JUMPI DUP3 SWAP1 SUB PUSH1 0x1F AND DUP3 ADD SWAP2 JUMPDEST POP POP POP POP POP DUP2 MSTORE PUSH1 0x20 ADD SWAP1 PUSH1 0x1 ADD SWAP1 PUSH2 0x18EC JUMP JUMPDEST POP POP POP POP SWAP1 POP SWAP1 JUMP JUMPDEST PUSH1 0x0 PUSH2 0x19AB PUSH2 0x1C6A JUMP JUMPDEST PUSH2 0x19B5 DUP3 CALLVALUE PUSH2 0x1CF1 JUMP JUMPDEST SWAP1 POP SWAP2 SWAP1 POP JUMP JUMPDEST PUSH1 0x0 PUSH2 0x19C6 PUSH2 0x1C6A JUMP JUMPDEST PUSH2 0x19D0 DUP3 CALLVALUE PUSH2 0x1D0A JUMP JUMPDEST SWAP1 POP SWAP2 SWAP1 POP JUMP JUMPDEST PUSH2 0x19DF PUSH2 0x1B28 JUMP JUMPDEST PUSH1 0x0 PUSH20 0xFFFFFFFFFFFFFFFFFFFFFFFFFFFFFFFFFFFFFFFF AND DUP2 PUSH20 0xFFFFFFFFFFFFFFFFFFFFFFFFFFFFFFFFFFFFFFFF AND SUB PUSH2 0x1A4E JUMPI PUSH1 0x40 MLOAD PUSH32 0x8C379A000000000000000000000000000000000000000000000000000000000 DUP2 MSTORE PUSH1 0x4 ADD PUSH2 0x1A45 SWAP1 PUSH2 0x4B31 JUMP JUMPDEST PUSH1 0x40 MLOAD DUP1 SWAP2 SUB SWAP1 REVERT JUMPDEST PUSH2 0x1A57 DUP2 PUSH2 0x1BA6 JUMP JUMPDEST POP JUMP JUMPDEST PUSH1 0x60 PUSH1 0x0 PUSH1 0x1 PUSH2 0x1A69 DUP5 PUSH2 0x2687 JUMP JUMPDEST ADD SWAP1 POP PUSH1 0x0 DUP2 PUSH8 0xFFFFFFFFFFFFFFFF DUP2 GT ISZERO PUSH2 0x1A88 JUMPI PUSH2 0x1A87 PUSH2 0x30EA JUMP JUMPDEST JUMPDEST PUSH1 0x40 MLOAD SWAP1 DUP1 DUP3 MSTORE DUP1 PUSH1 0x1F ADD PUSH1 0x1F NOT AND PUSH1 0x20 ADD DUP3 ADD PUSH1 0x40 MSTORE DUP1 ISZERO PUSH2 0x1ABA JUMPI DUP2 PUSH1 0x20 ADD PUSH1 0x1 DUP3 MUL DUP1 CALLDATASIZE DUP4 CALLDATACOPY DUP1 DUP3 ADD SWAP2 POP POP SWAP1 POP JUMPDEST POP SWAP1 POP PUSH1 0x0 DUP3 PUSH1 0x20 ADD DUP3 ADD SWAP1 POP JUMPDEST PUSH1 0x1 ISZERO PUSH2 0x1B1D JUMPI DUP1 DUP1 PUSH1 0x1 SWAP1 SUB SWAP2 POP POP PUSH32 0x3031323334353637383961626364656600000000000000000000000000000000 PUSH1 0xA DUP7 MOD BYTE DUP2 MSTORE8 PUSH1 0xA DUP6 DUP2 PUSH2 0x1B11 JUMPI PUSH2 0x1B10 PUSH2 0x4B51 JUMP JUMPDEST JUMPDEST DIV SWAP5 POP PUSH1 0x0 DUP6 SUB PUSH2 0x1AC8 JUMPI JUMPDEST DUP2 SWAP4 POP POP POP POP SWAP2 SWAP1 POP JUMP JUMPDEST PUSH2 0x1B30 PUSH2 0x27DA JUMP JUMPDEST PUSH20 0xFFFFFFFFFFFFFFFFFFFFFFFFFFFFFFFFFFFFFFFF AND PUSH2 0x1B4E PUSH2 0xE69 JUMP JUMPDEST PUSH20 0xFFFFFFFFFFFFFFFFFFFFFFFFFFFFFFFFFFFFFFFF AND EQ PUSH2 0x1BA4 JUMPI PUSH1 0x40 MLOAD PUSH32 0x8C379A000000000000000000000000000000000000000000000000000000000 DUP2 MSTORE PUSH1 0x4 ADD PUSH2 0x1B9B SWAP1 PUSH2 0x4BCC JUMP JUMPDEST PUSH1 0x40 MLOAD DUP1 SWAP2 SUB SWAP1 REVERT JUMPDEST JUMP JUMPDEST PUSH1 0x0 DUP1 PUSH1 0x0 SWAP1 SLOAD SWAP1 PUSH2 0x100 EXP SWAP1 DIV PUSH20 0xFFFFFFFFFFFFFFFFFFFFFFFFFFFFFFFFFFFFFFFF AND SWAP1 POP DUP2 PUSH1 0x0 DUP1 PUSH2 0x100 EXP DUP2 SLOAD DUP2 PUSH20 0xFFFFFFFFFFFFFFFFFFFFFFFFFFFFFFFFFFFFFFFF MUL NOT AND SWAP1 DUP4 PUSH20 0xFFFFFFFFFFFFFFFFFFFFFFFFFFFFFFFFFFFFFFFF AND MUL OR SWAP1 SSTORE POP DUP2 PUSH20 0xFFFFFFFFFFFFFFFFFFFFFFFFFFFFFFFFFFFFFFFF AND DUP2 PUSH20 0xFFFFFFFFFFFFFFFFFFFFFFFFFFFFFFFFFFFFFFFF AND PUSH32 0x8BE0079C531659141344CD1FD0A4F28419497F9722A3DAAFE3B4186F6B6457E0 PUSH1 0x40 MLOAD PUSH1 0x40 MLOAD DUP1 SWAP2 SUB SWAP1 LOG3 POP POP JUMP JUMPDEST PUSH32 0x0 PUSH20 0xFFFFFFFFFFFFFFFFFFFFFFFFFFFFFFFFFFFFFFFF AND CALLER PUSH20 0xFFFFFFFFFFFFFFFFFFFFFFFFFFFFFFFFFFFFFFFF AND EQ PUSH2 0x1CEF JUMPI PUSH1 0x40 MLOAD PUSH32 0x4CA8886700000000000000000000000000000000000000000000000000000000 DUP2 MSTORE PUSH1 0x4 ADD PUSH1 0x40 MLOAD DUP1 SWAP2 SUB SWAP1 REVERT JUMPDEST JUMP JUMPDEST PUSH1 0x0 PUSH1 0x1 SWAP1 POP SWAP3 SWAP2 POP POP JUMP JUMPDEST PUSH1 0x0 PUSH1 0x1 DUP3 ADD SWAP1 POP SWAP2 SWAP1 POP JUMP JUMPDEST PUSH1 0x0 DUP1 PUSH1 0x0 DUP1 DUP6 DUP1 PUSH2 0x120 ADD SWAP1 PUSH2 0x1D21 SWAP2 SWAP1 PUSH2 0x4BEC JUMP JUMPDEST DUP2 ADD SWAP1 PUSH2 0x1D2E SWAP2 SWAP1 PUSH2 0x4C4F JUMP JUMPDEST POP SWAP3 POP SWAP3 POP SWAP3 POP PUSH1 0x0 PUSH1 0x2 DUP5 PUSH1 0x40 MLOAD PUSH2 0x1D47 SWAP2 SWAP1 PUSH2 0x4909 JUMP JUMPDEST SWAP1 DUP2 MSTORE PUSH1 0x20 ADD PUSH1 0x40 MLOAD DUP1 SWAP2 SUB SWAP1 KECCAK256 SWAP1 POP PUSH1 0x0 PUSH1 0x6 DUP3 PUSH1 0x9 ADD SLOAD DUP2 SLOAD DUP2 LT PUSH2 0x1D71 JUMPI PUSH2 0x1D70 PUSH2 0x4980 JUMP JUMPDEST JUMPDEST SWAP1 PUSH1 0x0 MSTORE PUSH1 0x20 PUSH1 0x0 KECCAK256 SWAP1 PUSH1 0x4 MUL ADD SWAP1 POP PUSH1 0x0 DUP9 PUSH1 0xE0 ADD PUSH1 0x20 DUP2 ADD SWAP1 PUSH2 0x1D96 SWAP2 SWAP1 PUSH2 0x36B7 JUMP JUMPDEST SWAP1 POP PUSH1 0x0 DUP10 PUSH1 0x0 ADD CALLDATALOAD SWAP1 POP PUSH1 0x0 DUP5 PUSH1 0x7 ADD PUSH1 0x0 SWAP1 SLOAD SWAP1 PUSH2 0x100 EXP SWAP1 DIV PUSH1 0xFF AND ISZERO DUP1 ISZERO PUSH2 0x1E1A JUMPI POP PUSH2 0x1E19 DUP6 PUSH1 0x2 ADD DUP1 SLOAD DUP1 PUSH1 0x20 MUL PUSH1 0x20 ADD PUSH1 0x40 MLOAD SWAP1 DUP2 ADD PUSH1 0x40 MSTORE DUP1 SWAP3 SWAP2 SWAP1 DUP2 DUP2 MSTORE PUSH1 0x20 ADD DUP3 DUP1 SLOAD DUP1 ISZERO PUSH2 0x1E0E JUMPI PUSH1 0x20 MUL DUP3 ADD SWAP2 SWAP1 PUSH1 0x0 MSTORE PUSH1 0x20 PUSH1 0x0 KECCAK256 SWAP1 JUMPDEST DUP2 SLOAD DUP2 MSTORE PUSH1 0x20 ADD SWAP1 PUSH1 0x1 ADD SWAP1 DUP1 DUP4 GT PUSH2 0x1DFA JUMPI JUMPDEST POP POP POP POP POP DUP9 PUSH2 0x27E2 JUMP JUMPDEST JUMPDEST DUP1 ISZERO PUSH2 0x1E2D JUMPI POP DUP6 MLOAD DUP5 PUSH1 0x1 ADD DUP1 SLOAD SWAP1 POP EQ JUMPDEST DUP1 ISZERO PUSH2 0x1E3F JUMPI POP PUSH2 0x1E3E DUP4 DUP10 PUSH2 0x283D JUMP JUMPDEST JUMPDEST DUP1 ISZERO PUSH2 0x1E52 JUMPI POP PUSH2 0x1E51 DUP4 DUP10 DUP10 PUSH2 0x2926 JUMP JUMPDEST JUMPDEST DUP1 ISZERO PUSH2 0x1E64 JUMPI POP PUSH2 0x1E63 DUP5 DUP8 PUSH2 0x2A67 JUMP JUMPDEST JUMPDEST SWAP1 POP DUP1 ISZERO PUSH2 0x2108 JUMPI DUP5 PUSH1 0x6 ADD PUSH1 0x40 MLOAD DUP1 PUSH1 0x60 ADD PUSH1 0x40 MSTORE DUP1 DUP6 PUSH20 0xFFFFFFFFFFFFFFFFFFFFFFFFFFFFFFFFFFFFFFFF AND DUP2 MSTORE PUSH1 0x20 ADD DUP10 DUP2 MSTORE PUSH1 0x20 ADD DUP5 DUP2 MSTORE POP SWAP1 DUP1 PUSH1 0x1 DUP2 SLOAD ADD DUP1 DUP3 SSTORE DUP1 SWAP2 POP POP PUSH1 0x1 SWAP1 SUB SWAP1 PUSH1 0x0 MSTORE PUSH1 0x20 PUSH1 0x0 KECCAK256 SWAP1 PUSH1 0x3 MUL ADD PUSH1 0x0 SWAP1 SWAP2 SWAP1 SWAP2 SWAP1 SWAP2 POP PUSH1 0x0 DUP3 ADD MLOAD DUP2 PUSH1 0x0 ADD PUSH1 0x0 PUSH2 0x100 EXP DUP2 SLOAD DUP2 PUSH20 0xFFFFFFFFFFFFFFFFFFFFFFFFFFFFFFFFFFFFFFFF MUL NOT AND SWAP1 DUP4 PUSH20 0xFFFFFFFFFFFFFFFFFFFFFFFFFFFFFFFFFFFFFFFF AND MUL OR SWAP1 SSTORE POP PUSH1 0x20 DUP3 ADD MLOAD DUP2 PUSH1 0x1 ADD SSTORE PUSH1 0x40 DUP3 ADD MLOAD DUP2 PUSH1 0x2 ADD SSTORE POP POP PUSH1 0x0 DUP6 PUSH1 0x5 ADD SLOAD GT ISZERO PUSH2 0x1F9F JUMPI DUP5 PUSH1 0x5 ADD SLOAD DUP6 PUSH1 0x8 ADD PUSH1 0x0 DUP3 DUP3 SLOAD PUSH2 0x1F4C SWAP2 SWAP1 PUSH2 0x4806 JUMP JUMPDEST SWAP3 POP POP DUP2 SWAP1 SSTORE POP DUP3 PUSH20 0xFFFFFFFFFFFFFFFFFFFFFFFFFFFFFFFFFFFFFFFF AND PUSH2 0x8FC DUP7 PUSH1 0x5 ADD SLOAD SWAP1 DUP2 ISZERO MUL SWAP1 PUSH1 0x40 MLOAD PUSH1 0x0 PUSH1 0x40 MLOAD DUP1 DUP4 SUB DUP2 DUP6 DUP9 DUP9 CALL SWAP4 POP POP POP POP ISZERO DUP1 ISZERO PUSH2 0x1F9D JUMPI RETURNDATASIZE PUSH1 0x0 DUP1 RETURNDATACOPY RETURNDATASIZE PUSH1 0x0 REVERT JUMPDEST POP JUMPDEST PUSH1 0x0 PUSH20 0xFFFFFFFFFFFFFFFFFFFFFFFFFFFFFFFFFFFFFFFF AND PUSH1 0x1 PUSH1 0x0 SWAP1 SLOAD SWAP1 PUSH2 0x100 EXP SWAP1 DIV PUSH20 0xFFFFFFFFFFFFFFFFFFFFFFFFFFFFFFFFFFFFFFFF AND PUSH20 0xFFFFFFFFFFFFFFFFFFFFFFFFFFFFFFFFFFFFFFFF AND EQ PUSH2 0x20D0 JUMPI PUSH1 0x1 PUSH1 0x0 SWAP1 SLOAD SWAP1 PUSH2 0x100 EXP SWAP1 DIV PUSH20 0xFFFFFFFFFFFFFFFFFFFFFFFFFFFFFFFFFFFFFFFF AND PUSH20 0xFFFFFFFFFFFFFFFFFFFFFFFFFFFFFFFFFFFFFFFF AND PUSH4 0xBB69AB33 DUP13 DUP11 PUSH1 0x40 MLOAD DUP4 PUSH4 0xFFFFFFFF AND PUSH1 0xE0 SHL DUP2 MSTORE PUSH1 0x4 ADD PUSH2 0x2052 SWAP3 SWAP2 SWAP1 PUSH2 0x4FCC JUMP JUMPDEST PUSH1 0x20 PUSH1 0x40 MLOAD DUP1 DUP4 SUB DUP2 PUSH1 0x0 DUP8 GAS CALL ISZERO DUP1 ISZERO PUSH2 0x2071 JUMPI RETURNDATASIZE PUSH1 0x0 DUP1 RETURNDATACOPY RETURNDATASIZE PUSH1 0x0 REVERT JUMPDEST POP POP POP POP PUSH1 0x40 MLOAD RETURNDATASIZE PUSH1 0x1F NOT PUSH1 0x1F DUP3 ADD AND DUP3 ADD DUP1 PUSH1 0x40 MSTORE POP DUP2 ADD SWAP1 PUSH2 0x2095 SWAP2 SWAP1 PUSH2 0x5018 JUMP JUMPDEST POP PUSH32 0x253A8677ADAEC417DAE20224E9F7EB1182AED5A01B1938114CB310CD5C5D954D DUP12 DUP10 PUSH1 0x40 MLOAD PUSH2 0x20C7 SWAP3 SWAP2 SWAP1 PUSH2 0x4FCC JUMP JUMPDEST PUSH1 0x40 MLOAD DUP1 SWAP2 SUB SWAP1 LOG1 JUMPDEST PUSH32 0x4D6DD501DF538F815F442947C933FC2F545525E75F909B918A6D0701ACC7904C DUP9 PUSH1 0x40 MLOAD PUSH2 0x20FF SWAP2 SWAP1 PUSH2 0x3637 JUMP JUMPDEST PUSH1 0x40 MLOAD DUP1 SWAP2 SUB SWAP1 LOG1 JUMPDEST DUP1 SWAP9 POP POP POP POP POP POP POP POP POP SWAP3 SWAP2 POP POP JUMP JUMPDEST PUSH1 0x0 DUP8 MLOAD GT PUSH2 0x215D JUMPI PUSH1 0x40 MLOAD PUSH32 0x8C379A000000000000000000000000000000000000000000000000000000000 DUP2 MSTORE PUSH1 0x4 ADD PUSH2 0x2154 SWAP1 PUSH2 0x5091 JUMP JUMPDEST PUSH1 0x40 MLOAD DUP1 SWAP2 SUB SWAP1 REVERT JUMPDEST PUSH1 0x0 DUP7 MLOAD GT PUSH2 0x21A1 JUMPI PUSH1 0x40 MLOAD PUSH32 0x8C379A000000000000000000000000000000000000000000000000000000000 DUP2 MSTORE PUSH1 0x4 ADD PUSH2 0x2198 SWAP1 PUSH2 0x5123 JUMP JUMPDEST PUSH1 0x40 MLOAD DUP1 SWAP2 SUB SWAP1 REVERT JUMPDEST PUSH1 0x0 DUP6 MLOAD GT PUSH2 0x21E5 JUMPI PUSH1 0x40 MLOAD PUSH32 0x8C379A000000000000000000000000000000000000000000000000000000000 DUP2 MSTORE PUSH1 0x4 ADD PUSH2 0x21DC SWAP1 PUSH2 0x51B5 JUMP JUMPDEST PUSH1 0x40 MLOAD DUP1 SWAP2 SUB SWAP1 REVERT JUMPDEST DUP5 MLOAD DUP7 MLOAD EQ PUSH2 0x2229 JUMPI PUSH1 0x40 MLOAD PUSH32 0x8C379A000000000000000000000000000000000000000000000000000000000 DUP2 MSTORE PUSH1 0x4 ADD PUSH2 0x2220 SWAP1 PUSH2 0x526D JUMP JUMPDEST PUSH1 0x40 MLOAD DUP1 SWAP2 SUB SWAP1 REVERT JUMPDEST PUSH1 0x1 PUSH1 0x6 DUP1 SLOAD SWAP1 POP PUSH2 0x223B SWAP2 SWAP1 PUSH2 0x4806 JUMP JUMPDEST DUP3 GT ISZERO PUSH2 0x227D JUMPI PUSH1 0x40 MLOAD PUSH32 0x8C379A000000000000000000000000000000000000000000000000000000000 DUP2 MSTORE PUSH1 0x4 ADD PUSH2 0x2274 SWAP1 PUSH2 0x52D9 JUMP JUMPDEST PUSH1 0x40 MLOAD DUP1 SWAP2 SUB SWAP1 REVERT JUMPDEST PUSH1 0x0 PUSH20 0xFFFFFFFFFFFFFFFFFFFFFFFFFFFFFFFFFFFFFFFF AND PUSH1 0x2 DUP10 PUSH1 0x40 MLOAD PUSH2 0x22A5 SWAP2 SWAP1 PUSH2 0x4909 JUMP JUMPDEST SWAP1 DUP2 MSTORE PUSH1 0x20 ADD PUSH1 0x40 MLOAD DUP1 SWAP2 SUB SWAP1 KECCAK256 PUSH1 0x0 ADD PUSH1 0x0 SWAP1 SLOAD SWAP1 PUSH2 0x100 EXP SWAP1 DIV PUSH20 0xFFFFFFFFFFFFFFFFFFFFFFFFFFFFFFFFFFFFFFFF AND PUSH20 0xFFFFFFFFFFFFFFFFFFFFFFFFFFFFFFFFFFFFFFFF AND EQ PUSH2 0x232D JUMPI PUSH1 0x40 MLOAD PUSH32 0x8C379A000000000000000000000000000000000000000000000000000000000 DUP2 MSTORE PUSH1 0x4 ADD PUSH2 0x2324 SWAP1 PUSH2 0x5345 JUMP JUMPDEST PUSH1 0x40 MLOAD DUP1 SWAP2 SUB SWAP1 REVERT JUMPDEST DUP1 ISZERO PUSH2 0x23D6 JUMPI PUSH1 0x0 DUP4 GT PUSH2 0x2376 JUMPI PUSH1 0x40 MLOAD PUSH32 0x8C379A000000000000000000000000000000000000000000000000000000000 DUP2 MSTORE PUSH1 0x4 ADD PUSH2 0x236D SWAP1 PUSH2 0x53FD JUMP JUMPDEST PUSH1 0x40 MLOAD DUP1 SWAP2 SUB SWAP1 REVERT JUMPDEST DUP3 DUP7 MLOAD DUP9 MLOAD PUSH2 0x2385 SWAP2 SWAP1 PUSH2 0x541D JUMP JUMPDEST PUSH2 0x238F SWAP2 SWAP1 PUSH2 0x541D JUMP JUMPDEST CALLVALUE LT ISZERO PUSH2 0x23D1 JUMPI PUSH1 0x40 MLOAD PUSH32 0x8C379A000000000000000000000000000000000000000000000000000000000 DUP2 MSTORE PUSH1 0x4 ADD PUSH2 0x23C8 SWAP1 PUSH2 0x54AB JUMP JUMPDEST PUSH1 0x40 MLOAD DUP1 SWAP2 SUB SWAP1 REVERT JUMPDEST PUSH2 0x241A JUMP JUMPDEST PUSH1 0x0 DUP4 EQ PUSH2 0x2419 JUMPI PUSH1 0x40 MLOAD PUSH32 0x8C379A000000000000000000000000000000000000000000000000000000000 DUP2 MSTORE PUSH1 0x4 ADD PUSH2 0x2410 SWAP1 PUSH2 0x553D JUMP JUMPDEST PUSH1 0x40 MLOAD DUP1 SWAP2 SUB SWAP1 REVERT JUMPDEST JUMPDEST CALLER PUSH1 0x2 DUP10 PUSH1 0x40 MLOAD PUSH2 0x242B SWAP2 SWAP1 PUSH2 0x4909 JUMP JUMPDEST SWAP1 DUP2 MSTORE PUSH1 0x20 ADD PUSH1 0x40 MLOAD DUP1 SWAP2 SUB SWAP1 KECCAK256 PUSH1 0x0 ADD PUSH1 0x0 PUSH2 0x100 EXP DUP2 SLOAD DUP2 PUSH20 0xFFFFFFFFFFFFFFFFFFFFFFFFFFFFFFFFFFFFFFFF MUL NOT AND SWAP1 DUP4 PUSH20 0xFFFFFFFFFFFFFFFFFFFFFFFFFFFFFFFFFFFFFFFF AND MUL OR SWAP1 SSTORE POP DUP7 PUSH1 0x2 DUP10 PUSH1 0x40 MLOAD PUSH2 0x248B SWAP2 SWAP1 PUSH2 0x4909 JUMP JUMPDEST SWAP1 DUP2 MSTORE PUSH1 0x20 ADD PUSH1 0x40 MLOAD DUP1 SWAP2 SUB SWAP1 KECCAK256 PUSH1 0x1 ADD SWAP1 DUP1 MLOAD SWAP1 PUSH1 0x20 ADD SWAP1 PUSH2 0x24AF SWAP3 SWAP2 SWAP1 PUSH2 0x2EED JUMP JUMPDEST POP DUP6 PUSH1 0x2 DUP10 PUSH1 0x40 MLOAD PUSH2 0x24C1 SWAP2 SWAP1 PUSH2 0x4909 JUMP JUMPDEST SWAP1 DUP2 MSTORE PUSH1 0x20 ADD PUSH1 0x40 MLOAD DUP1 SWAP2 SUB SWAP1 KECCAK256 PUSH1 0x2 ADD SWAP1 DUP1 MLOAD SWAP1 PUSH1 0x20 ADD SWAP1 PUSH2 0x24E5 SWAP3 SWAP2 SWAP1 PUSH2 0x2F77 JUMP JUMPDEST POP DUP5 PUSH1 0x2 DUP10 PUSH1 0x40 MLOAD PUSH2 0x24F7 SWAP2 SWAP1 PUSH2 0x4909 JUMP JUMPDEST SWAP1 DUP2 MSTORE PUSH1 0x20 ADD PUSH1 0x40 MLOAD DUP1 SWAP2 SUB SWAP1 KECCAK256 PUSH1 0x3 ADD SWAP1 DUP1 MLOAD SWAP1 PUSH1 0x20 ADD SWAP1 PUSH2 0x251B SWAP3 SWAP2 SWAP1 PUSH2 0x2D7E JUMP JUMPDEST POP DUP4 PUSH1 0x2 DUP10 PUSH1 0x40 MLOAD PUSH2 0x252D SWAP2 SWAP1 PUSH2 0x4909 JUMP JUMPDEST SWAP1 DUP2 MSTORE PUSH1 0x20 ADD PUSH1 0x40 MLOAD DUP1 SWAP2 SUB SWAP1 KECCAK256 PUSH1 0x4 ADD SWAP1 DUP2 PUSH2 0x254A SWAP2 SWAP1 PUSH2 0x56FF JUMP JUMPDEST POP DUP1 PUSH2 0x2557 JUMPI PUSH1 0x0 PUSH2 0x2559 JUMP JUMPDEST DUP3 JUMPDEST PUSH1 0x2 DUP10 PUSH1 0x40 MLOAD PUSH2 0x2569 SWAP2 SWAP1 PUSH2 0x4909 JUMP JUMPDEST SWAP1 DUP2 MSTORE PUSH1 0x20 ADD PUSH1 0x40 MLOAD DUP1 SWAP2 SUB SWAP1 KECCAK256 PUSH1 0x5 ADD DUP2 SWAP1 SSTORE POP PUSH1 0x0 PUSH1 0x2 DUP10 PUSH1 0x40 MLOAD PUSH2 0x2590 SWAP2 SWAP1 PUSH2 0x4909 JUMP JUMPDEST SWAP1 DUP2 MSTORE PUSH1 0x20 ADD PUSH1 0x40 MLOAD DUP1 SWAP2 SUB SWAP1 KECCAK256 PUSH1 0x7 ADD PUSH1 0x0 PUSH2 0x100 EXP DUP2 SLOAD DUP2 PUSH1 0xFF MUL NOT AND SWAP1 DUP4 ISZERO ISZERO MUL OR SWAP1 SSTORE POP DUP1 PUSH2 0x25C4 JUMPI PUSH1 0x0 PUSH2 0x25C6 JUMP JUMPDEST CALLVALUE JUMPDEST PUSH1 0x2 DUP10 PUSH1 0x40 MLOAD PUSH2 0x25D6 SWAP2 SWAP1 PUSH2 0x4909 JUMP JUMPDEST SWAP1 DUP2 MSTORE PUSH1 0x20 ADD PUSH1 0x40 MLOAD DUP1 SWAP2 SUB SWAP1 KECCAK256 PUSH1 0x8 ADD DUP2 SWAP1 SSTORE POP DUP2 PUSH1 0x2 DUP10 PUSH1 0x40 MLOAD PUSH2 0x25FC SWAP2 SWAP1 PUSH2 0x4909 JUMP JUMPDEST SWAP1 DUP2 MSTORE PUSH1 0x20 ADD PUSH1 0x40 MLOAD DUP1 SWAP2 SUB SWAP1 KECCAK256 PUSH1 0x9 ADD DUP2 SWAP1 SSTORE POP PUSH1 0x3 DUP9 SWAP1 DUP1 PUSH1 0x1 DUP2 SLOAD ADD DUP1 DUP3 SSTORE DUP1 SWAP2 POP POP PUSH1 0x1 SWAP1 SUB SWAP1 PUSH1 0x0 MSTORE PUSH1 0x20 PUSH1 0x0 KECCAK256 ADD PUSH1 0x0 SWAP1 SWAP2 SWAP1 SWAP2 SWAP1 SWAP2 POP SWAP1 DUP2 PUSH2 0x2645 SWAP2 SWAP1 PUSH2 0x56FF JUMP JUMPDEST POP PUSH32 0x448FEABBF5BB385EB3EA2CB16D90B1CB3B4C8936E399CF7A10E7B8946EEC667 DUP9 PUSH1 0x40 MLOAD PUSH2 0x2675 SWAP2 SWAP1 PUSH2 0x3637 JUMP JUMPDEST PUSH1 0x40 MLOAD DUP1 SWAP2 SUB SWAP1 LOG1 POP POP POP POP POP POP POP POP JUMP JUMPDEST PUSH1 0x0 DUP1 PUSH1 0x0 SWAP1 POP PUSH27 0x184F03E93FF9F4DAA797ED6E38ED64BF6A1F010000000000000000 DUP4 LT PUSH2 0x26E5 JUMPI PUSH27 0x184F03E93FF9F4DAA797ED6E38ED64BF6A1F010000000000000000 DUP4 DUP2 PUSH2 0x26DB JUMPI PUSH2 0x26DA PUSH2 0x4B51 JUMP JUMPDEST JUMPDEST DIV SWAP3 POP PUSH1 0x40 DUP2 ADD SWAP1 POP JUMPDEST PUSH14 0x4EE2D6D415B85ACEF8100000000 DUP4 LT PUSH2 0x2722 JUMPI PUSH14 0x4EE2D6D415B85ACEF8100000000 DUP4 DUP2 PUSH2 0x2718 JUMPI PUSH2 0x2717 PUSH2 0x4B51 JUMP JUMPDEST JUMPDEST DIV SWAP3 POP PUSH1 0x20 DUP2 ADD SWAP1 POP JUMPDEST PUSH7 0x2386F26FC10000 DUP4 LT PUSH2 0x2751 JUMPI PUSH7 0x2386F26FC10000 DUP4 DUP2 PUSH2 0x2747 JUMPI PUSH2 0x2746 PUSH2 0x4B51 JUMP JUMPDEST JUMPDEST DIV SWAP3 POP PUSH1 0x10 DUP2 ADD SWAP1 POP JUMPDEST PUSH4 0x5F5E100 DUP4 LT PUSH2 0x277A JUMPI PUSH4 0x5F5E100 DUP4 DUP2 PUSH2 0x2770 JUMPI PUSH2 0x276F PUSH2 0x4B51 JUMP JUMPDEST JUMPDEST DIV SWAP3 POP PUSH1 0x8 DUP2 ADD SWAP1 POP JUMPDEST PUSH2 0x2710 DUP4 LT PUSH2 0x279F JUMPI PUSH2 0x2710 DUP4 DUP2 PUSH2 0x2795 JUMPI PUSH2 0x2794 PUSH2 0x4B51 JUMP JUMPDEST JUMPDEST DIV SWAP3 POP PUSH1 0x4 DUP2 ADD SWAP1 POP JUMPDEST PUSH1 0x64 DUP4 LT PUSH2 0x27C2 JUMPI PUSH1 0x64 DUP4 DUP2 PUSH2 0x27B8 JUMPI PUSH2 0x27B7 PUSH2 0x4B51 JUMP JUMPDEST JUMPDEST DIV SWAP3 POP PUSH1 0x2 DUP2 ADD SWAP1 POP JUMPDEST PUSH1 0xA DUP4 LT PUSH2 0x27D1 JUMPI PUSH1 0x1 DUP2 ADD SWAP1 POP JUMPDEST DUP1 SWAP2 POP POP SWAP2 SWAP1 POP JUMP JUMPDEST PUSH1 0x0 CALLER SWAP1 POP SWAP1 JUMP JUMPDEST PUSH1 0x0 DUP1 PUSH1 0x0 SWAP1 POP JUMPDEST DUP4 MLOAD DUP2 LT ISZERO PUSH2 0x2831 JUMPI DUP3 DUP5 DUP3 DUP2 MLOAD DUP2 LT PUSH2 0x2807 JUMPI PUSH2 0x2806 PUSH2 0x4980 JUMP JUMPDEST JUMPDEST PUSH1 0x20 MUL PUSH1 0x20 ADD ADD MLOAD SUB PUSH2 0x281E JUMPI PUSH1 0x1 SWAP2 POP POP PUSH2 0x2837 JUMP JUMPDEST DUP1 DUP1 PUSH2 0x2829 SWAP1 PUSH2 0x57D1 JUMP JUMPDEST SWAP2 POP POP PUSH2 0x27EA JUMP JUMPDEST POP PUSH1 0x0 SWAP1 POP JUMPDEST SWAP3 SWAP2 POP POP JUMP JUMPDEST PUSH1 0x0 DUP1 PUSH1 0x0 SWAP1 POP PUSH1 0x0 JUMPDEST PUSH1 0x2 DUP5 PUSH1 0x40 MLOAD PUSH2 0x2857 SWAP2 SWAP1 PUSH2 0x4909 JUMP JUMPDEST SWAP1 DUP2 MSTORE PUSH1 0x20 ADD PUSH1 0x40 MLOAD DUP1 SWAP2 SUB SWAP1 KECCAK256 PUSH1 0x1 ADD DUP1 SLOAD SWAP1 POP DUP2 LT ISZERO PUSH2 0x291B JUMPI DUP5 PUSH20 0xFFFFFFFFFFFFFFFFFFFFFFFFFFFFFFFFFFFFFFFF AND PUSH1 0x2 DUP6 PUSH1 0x40 MLOAD PUSH2 0x289A SWAP2 SWAP1 PUSH2 0x4909 JUMP JUMPDEST SWAP1 DUP2 MSTORE PUSH1 0x20 ADD PUSH1 0x40 MLOAD DUP1 SWAP2 SUB SWAP1 KECCAK256 PUSH1 0x1 ADD DUP3 DUP2 SLOAD DUP2 LT PUSH2 0x28BD JUMPI PUSH2 0x28BC PUSH2 0x4980 JUMP JUMPDEST JUMPDEST SWAP1 PUSH1 0x0 MSTORE PUSH1 0x20 PUSH1 0x0 KECCAK256 ADD PUSH1 0x0 SWAP1 SLOAD SWAP1 PUSH2 0x100 EXP SWAP1 DIV PUSH20 0xFFFFFFFFFFFFFFFFFFFFFFFFFFFFFFFFFFFFFFFF AND PUSH20 0xFFFFFFFFFFFFFFFFFFFFFFFFFFFFFFFFFFFFFFFF AND SUB PUSH2 0x2908 JUMPI PUSH1 0x1 SWAP2 POP JUMPDEST DUP1 DUP1 PUSH2 0x2913 SWAP1 PUSH2 0x57D1 JUMP JUMPDEST SWAP2 POP POP PUSH2 0x2847 JUMP JUMPDEST POP DUP1 SWAP2 POP POP SWAP3 SWAP2 POP POP JUMP JUMPDEST PUSH1 0x0 DUP1 PUSH1 0x1 SWAP1 POP PUSH1 0x0 JUMPDEST PUSH1 0x2 DUP6 PUSH1 0x40 MLOAD PUSH2 0x2940 SWAP2 SWAP1 PUSH2 0x4909 JUMP JUMPDEST SWAP1 DUP2 MSTORE PUSH1 0x20 ADD PUSH1 0x40 MLOAD DUP1 SWAP2 SUB SWAP1 KECCAK256 PUSH1 0x6 ADD DUP1 SLOAD SWAP1 POP DUP2 LT ISZERO PUSH2 0x2A5B JUMPI DUP4 PUSH1 0x2 DUP7 PUSH1 0x40 MLOAD PUSH2 0x296D SWAP2 SWAP1 PUSH2 0x4909 JUMP JUMPDEST SWAP1 DUP2 MSTORE PUSH1 0x20 ADD PUSH1 0x40 MLOAD DUP1 SWAP2 SUB SWAP1 KECCAK256 PUSH1 0x6 ADD DUP3 DUP2 SLOAD DUP2 LT PUSH2 0x2990 JUMPI PUSH2 0x298F PUSH2 0x4980 JUMP JUMPDEST JUMPDEST SWAP1 PUSH1 0x0 MSTORE PUSH1 0x20 PUSH1 0x0 KECCAK256 SWAP1 PUSH1 0x3 MUL ADD PUSH1 0x1 ADD SLOAD EQ DUP1 ISZERO PUSH2 0x2A3E JUMPI POP DUP6 PUSH20 0xFFFFFFFFFFFFFFFFFFFFFFFFFFFFFFFFFFFFFFFF AND PUSH1 0x2 DUP7 PUSH1 0x40 MLOAD PUSH2 0x29D1 SWAP2 SWAP1 PUSH2 0x4909 JUMP JUMPDEST SWAP1 DUP2 MSTORE PUSH1 0x20 ADD PUSH1 0x40 MLOAD DUP1 SWAP2 SUB SWAP1 KECCAK256 PUSH1 0x6 ADD DUP3 DUP2 SLOAD DUP2 LT PUSH2 0x29F4 JUMPI PUSH2 0x29F3 PUSH2 0x4980 JUMP JUMPDEST JUMPDEST SWAP1 PUSH1 0x0 MSTORE PUSH1 0x20 PUSH1 0x0 KECCAK256 SWAP1 PUSH1 0x3 MUL ADD PUSH1 0x0 ADD PUSH1 0x0 SWAP1 SLOAD SWAP1 PUSH2 0x100 EXP SWAP1 DIV PUSH20 0xFFFFFFFFFFFFFFFFFFFFFFFFFFFFFFFFFFFFFFFF AND PUSH20 0xFFFFFFFFFFFFFFFFFFFFFFFFFFFFFFFFFFFFFFFF AND EQ JUMPDEST ISZERO PUSH2 0x2A48 JUMPI PUSH1 0x0 SWAP2 POP JUMPDEST DUP1 DUP1 PUSH2 0x2A53 SWAP1 PUSH2 0x57D1 JUMP JUMPDEST SWAP2 POP POP PUSH2 0x2930 JUMP JUMPDEST POP DUP1 SWAP2 POP POP SWAP4 SWAP3 POP POP POP JUMP JUMPDEST PUSH1 0x0 DUP1 PUSH1 0x0 SWAP1 POP JUMPDEST DUP3 MLOAD DUP2 LT ISZERO PUSH2 0x2D72 JUMPI PUSH1 0x2 DUP1 DUP2 GT ISZERO PUSH2 0x2A8B JUMPI PUSH2 0x2A8A PUSH2 0x410D JUMP JUMPDEST JUMPDEST DUP5 PUSH1 0x2 ADD DUP3 DUP2 SLOAD DUP2 LT PUSH2 0x2AA1 JUMPI PUSH2 0x2AA0 PUSH2 0x4980 JUMP JUMPDEST JUMPDEST SWAP1 PUSH1 0x0 MSTORE PUSH1 0x20 PUSH1 0x0 KECCAK256 SWAP1 PUSH1 0x20 SWAP2 DUP3 DUP3 DIV ADD SWAP2 SWAP1 MOD SWAP1 SLOAD SWAP1 PUSH2 0x100 EXP SWAP1 DIV PUSH1 0xFF AND PUSH1 0x2 DUP2 GT ISZERO PUSH2 0x2AD3 JUMPI PUSH2 0x2AD2 PUSH2 0x410D JUMP JUMPDEST JUMPDEST SUB PUSH2 0x2BE2 JUMPI PUSH1 0x0 DUP1 JUMPDEST DUP6 PUSH1 0x3 ADD DUP4 DUP2 SLOAD DUP2 LT PUSH2 0x2AF2 JUMPI PUSH2 0x2AF1 PUSH2 0x4980 JUMP JUMPDEST JUMPDEST SWAP1 PUSH1 0x0 MSTORE PUSH1 0x20 PUSH1 0x0 KECCAK256 ADD DUP1 SLOAD SWAP1 POP DUP2 LT ISZERO PUSH2 0x2BCB JUMPI DUP5 DUP4 DUP2 MLOAD DUP2 LT PUSH2 0x2B1A JUMPI PUSH2 0x2B19 PUSH2 0x4980 JUMP JUMPDEST JUMPDEST PUSH1 0x20 MUL PUSH1 0x20 ADD ADD MLOAD PUSH1 0x40 MLOAD PUSH1 0x20 ADD PUSH2 0x2B32 SWAP2 SWAP1 PUSH2 0x4909 JUMP JUMPDEST PUSH1 0x40 MLOAD PUSH1 0x20 DUP2 DUP4 SUB SUB DUP2 MSTORE SWAP1 PUSH1 0x40 MSTORE DUP1 MLOAD SWAP1 PUSH1 0x20 ADD KECCAK256 DUP7 PUSH1 0x3 ADD DUP5 DUP2 SLOAD DUP2 LT PUSH2 0x2B5E JUMPI PUSH2 0x2B5D PUSH2 0x4980 JUMP JUMPDEST JUMPDEST SWAP1 PUSH1 0x0 MSTORE PUSH1 0x20 PUSH1 0x0 KECCAK256 ADD DUP3 DUP2 SLOAD DUP2 LT PUSH2 0x2B7A JUMPI PUSH2 0x2B79 PUSH2 0x4980 JUMP JUMPDEST JUMPDEST SWAP1 PUSH1 0x0 MSTORE PUSH1 0x20 PUSH1 0x0 KECCAK256 ADD PUSH1 0x40 MLOAD PUSH1 0x20 ADD PUSH2 0x2B94 SWAP2 SWAP1 PUSH2 0x589C JUMP JUMPDEST PUSH1 0x40 MLOAD PUSH1 0x20 DUP2 DUP4 SUB SUB DUP2 MSTORE SWAP1 PUSH1 0x40 MSTORE DUP1 MLOAD SWAP1 PUSH1 0x20 ADD KECCAK256 SUB PUSH2 0x2BB8 JUMPI PUSH1 0x1 SWAP2 POP PUSH2 0x2BCB JUMP JUMPDEST DUP1 DUP1 PUSH2 0x2BC3 SWAP1 PUSH2 0x57D1 JUMP JUMPDEST SWAP2 POP POP PUSH2 0x2ADC JUMP JUMPDEST POP DUP1 PUSH2 0x2BDC JUMPI PUSH1 0x0 SWAP3 POP POP POP PUSH2 0x2D78 JUMP JUMPDEST POP PUSH2 0x2D5F JUMP JUMPDEST PUSH1 0x1 PUSH1 0x2 DUP2 GT ISZERO PUSH2 0x2BF6 JUMPI PUSH2 0x2BF5 PUSH2 0x410D JUMP JUMPDEST JUMPDEST DUP5 PUSH1 0x2 ADD DUP3 DUP2 SLOAD DUP2 LT PUSH2 0x2C0C JUMPI PUSH2 0x2C0B PUSH2 0x4980 JUMP JUMPDEST JUMPDEST SWAP1 PUSH1 0x0 MSTORE PUSH1 0x20 PUSH1 0x0 KECCAK256 SWAP1 PUSH1 0x20 SWAP2 DUP3 DUP3 DIV ADD SWAP2 SWAP1 MOD SWAP1 SLOAD SWAP1 PUSH2 0x100 EXP SWAP1 DIV PUSH1 0xFF AND PUSH1 0x2 DUP2 GT ISZERO PUSH2 0x2C3E JUMPI PUSH2 0x2C3D PUSH2 0x410D JUMP JUMPDEST JUMPDEST SUB PUSH2 0x2D31 JUMPI PUSH1 0x40 MLOAD PUSH1 0x20 ADD PUSH2 0x2C52 SWAP1 PUSH2 0x58FF JUMP JUMPDEST PUSH1 0x40 MLOAD PUSH1 0x20 DUP2 DUP4 SUB SUB DUP2 MSTORE SWAP1 PUSH1 0x40 MSTORE DUP1 MLOAD SWAP1 PUSH1 0x20 ADD KECCAK256 DUP4 DUP3 DUP2 MLOAD DUP2 LT PUSH2 0x2C7B JUMPI PUSH2 0x2C7A PUSH2 0x4980 JUMP JUMPDEST JUMPDEST PUSH1 0x20 MUL PUSH1 0x20 ADD ADD MLOAD PUSH1 0x40 MLOAD PUSH1 0x20 ADD PUSH2 0x2C93 SWAP2 SWAP1 PUSH2 0x4909 JUMP JUMPDEST PUSH1 0x40 MLOAD PUSH1 0x20 DUP2 DUP4 SUB SUB DUP2 MSTORE SWAP1 PUSH1 0x40 MSTORE DUP1 MLOAD SWAP1 PUSH1 0x20 ADD KECCAK256 EQ DUP1 PUSH2 0x2D18 JUMPI POP PUSH1 0x40 MLOAD PUSH1 0x20 ADD PUSH2 0x2CBF SWAP1 PUSH2 0x5960 JUMP JUMPDEST PUSH1 0x40 MLOAD PUSH1 0x20 DUP2 DUP4 SUB SUB DUP2 MSTORE SWAP1 PUSH1 0x40 MSTORE DUP1 MLOAD SWAP1 PUSH1 0x20 ADD KECCAK256 DUP4 DUP3 DUP2 MLOAD DUP2 LT PUSH2 0x2CE8 JUMPI PUSH2 0x2CE7 PUSH2 0x4980 JUMP JUMPDEST JUMPDEST PUSH1 0x20 MUL PUSH1 0x20 ADD ADD MLOAD PUSH1 0x40 MLOAD PUSH1 0x20 ADD PUSH2 0x2D00 SWAP2 SWAP1 PUSH2 0x4909 JUMP JUMPDEST PUSH1 0x40 MLOAD PUSH1 0x20 DUP2 DUP4 SUB SUB DUP2 MSTORE SWAP1 PUSH1 0x40 MSTORE DUP1 MLOAD SWAP1 PUSH1 0x20 ADD KECCAK256 EQ JUMPDEST ISZERO PUSH2 0x2D27 JUMPI PUSH1 0x1 SWAP2 POP POP PUSH2 0x2D78 JUMP JUMPDEST PUSH1 0x0 SWAP2 POP POP PUSH2 0x2D78 JUMP JUMPDEST PUSH1 0x0 DUP4 DUP3 DUP2 MLOAD DUP2 LT PUSH2 0x2D46 JUMPI PUSH2 0x2D45 PUSH2 0x4980 JUMP JUMPDEST JUMPDEST PUSH1 0x20 MUL PUSH1 0x20 ADD ADD MLOAD MLOAD SUB PUSH2 0x2D5E JUMPI PUSH1 0x0 SWAP2 POP POP PUSH2 0x2D78 JUMP JUMPDEST JUMPDEST DUP1 DUP1 PUSH2 0x2D6A SWAP1 PUSH2 0x57D1 JUMP JUMPDEST SWAP2 POP POP PUSH2 0x2A6F JUMP JUMPDEST POP PUSH1 0x1 SWAP1 POP JUMPDEST SWAP3 SWAP2 POP POP JUMP JUMPDEST DUP3 DUP1 SLOAD DUP3 DUP3 SSTORE SWAP1 PUSH1 0x0 MSTORE PUSH1 0x20 PUSH1 0x0 KECCAK256 SWAP1 DUP2 ADD SWAP3 DUP3 ISZERO PUSH2 0x2DC6 JUMPI SWAP2 PUSH1 0x20 MUL DUP3 ADD JUMPDEST DUP3 DUP2 GT ISZERO PUSH2 0x2DC5 JUMPI DUP3 MLOAD DUP3 SWAP1 DUP2 PUSH2 0x2DB5 SWAP2 SWAP1 PUSH2 0x56FF JUMP JUMPDEST POP SWAP2 PUSH1 0x20 ADD SWAP2 SWAP1 PUSH1 0x1 ADD SWAP1 PUSH2 0x2D9E JUMP JUMPDEST JUMPDEST POP SWAP1 POP PUSH2 0x2DD3 SWAP2 SWAP1 PUSH2 0x2FC4 JUMP JUMPDEST POP SWAP1 JUMP JUMPDEST DUP3 DUP1 SLOAD DUP3 DUP3 SSTORE SWAP1 PUSH1 0x0 MSTORE PUSH1 0x20 PUSH1 0x0 KECCAK256 SWAP1 PUSH1 0x1F ADD PUSH1 0x20 SWAP1 DIV DUP2 ADD SWAP3 DUP3 ISZERO PUSH2 0x2E7C JUMPI SWAP2 PUSH1 0x20 MUL DUP3 ADD PUSH1 0x0 JUMPDEST DUP4 DUP3 GT ISZERO PUSH2 0x2E4D JUMPI DUP4 MLOAD DUP4 DUP3 PUSH2 0x100 EXP DUP2 SLOAD DUP2 PUSH1 0xFF MUL NOT AND SWAP1 DUP4 PUSH1 0x2 DUP2 GT ISZERO PUSH2 0x2E2C JUMPI PUSH2 0x2E2B PUSH2 0x410D JUMP JUMPDEST JUMPDEST MUL OR SWAP1 SSTORE POP SWAP3 PUSH1 0x20 ADD SWAP3 PUSH1 0x1 ADD PUSH1 0x20 DUP2 PUSH1 0x0 ADD DIV SWAP3 DUP4 ADD SWAP3 PUSH1 0x1 SUB MUL PUSH2 0x2E00 JUMP JUMPDEST DUP1 ISZERO PUSH2 0x2E7A JUMPI DUP3 DUP2 PUSH2 0x100 EXP DUP2 SLOAD SWAP1 PUSH1 0xFF MUL NOT AND SWAP1 SSTORE PUSH1 0x1 ADD PUSH1 0x20 DUP2 PUSH1 0x0 ADD DIV SWAP3 DUP4 ADD SWAP3 PUSH1 0x1 SUB MUL PUSH2 0x2E4D JUMP JUMPDEST POP JUMPDEST POP SWAP1 POP PUSH2 0x2E89 SWAP2 SWAP1 PUSH2 0x2FE8 JUMP JUMPDEST POP SWAP1 JUMP JUMPDEST DUP3 DUP1 SLOAD DUP3 DUP3 SSTORE SWAP1 PUSH1 0x0 MSTORE PUSH1 0x20 PUSH1 0x0 KECCAK256 SWAP1 DUP2 ADD SWAP3 DUP3 ISZERO PUSH2 0x2EDC JUMPI SWAP2 PUSH1 0x20 MUL DUP3 ADD JUMPDEST DUP3 DUP2 GT ISZERO PUSH2 0x2EDB JUMPI DUP3 MLOAD DUP3 SWAP1 DUP1 MLOAD SWAP1 PUSH1 0x20 ADD SWAP1 PUSH2 0x2ECB SWAP3 SWAP2 SWAP1 PUSH2 0x2D7E JUMP JUMPDEST POP SWAP2 PUSH1 0x20 ADD SWAP2 SWAP1 PUSH1 0x1 ADD SWAP1 PUSH2 0x2EAD JUMP JUMPDEST JUMPDEST POP SWAP1 POP PUSH2 0x2EE9 SWAP2 SWAP1 PUSH2 0x3005 JUMP JUMPDEST POP SWAP1 JUMP JUMPDEST DUP3 DUP1 SLOAD DUP3 DUP3 SSTORE SWAP1 PUSH1 0x0 MSTORE PUSH1 0x20 PUSH1 0x0 KECCAK256 SWAP1 DUP2 ADD SWAP3 DUP3 ISZERO PUSH2 0x2F66 JUMPI SWAP2 PUSH1 0x20 MUL DUP3 ADD JUMPDEST DUP3 DUP2 GT ISZERO PUSH2 0x2F65 JUMPI DUP3 MLOAD DUP3 PUSH1 0x0 PUSH2 0x100 EXP DUP2 SLOAD DUP2 PUSH20 0xFFFFFFFFFFFFFFFFFFFFFFFFFFFFFFFFFFFFFFFF MUL NOT AND SWAP1 DUP4 PUSH20 0xFFFFFFFFFFFFFFFFFFFFFFFFFFFFFFFFFFFFFFFF AND MUL OR SWAP1 SSTORE POP SWAP2 PUSH1 0x20 ADD SWAP2 SWAP1 PUSH1 0x1 ADD SWAP1 PUSH2 0x2F0D JUMP JUMPDEST JUMPDEST POP SWAP1 POP PUSH2 0x2F73 SWAP2 SWAP1 PUSH2 0x2FE8 JUMP JUMPDEST POP SWAP1 JUMP JUMPDEST DUP3 DUP1 SLOAD DUP3 DUP3 SSTORE SWAP1 PUSH1 0x0 MSTORE PUSH1 0x20 PUSH1 0x0 KECCAK256 SWAP1 DUP2 ADD SWAP3 DUP3 ISZERO PUSH2 0x2FB3 JUMPI SWAP2 PUSH1 0x20 MUL DUP3 ADD JUMPDEST DUP3 DUP2 GT ISZERO PUSH2 0x2FB2 JUMPI DUP3 MLOAD DUP3 SSTORE SWAP2 PUSH1 0x20 ADD SWAP2 SWAP1 PUSH1 0x1 ADD SWAP1 PUSH2 0x2F97 JUMP JUMPDEST JUMPDEST POP SWAP1 POP PUSH2 0x2FC0 SWAP2 SWAP1 PUSH2 0x2FE8 JUMP JUMPDEST POP SWAP1 JUMP JUMPDEST JUMPDEST DUP1 DUP3 GT ISZERO PUSH2 0x2FE4 JUMPI PUSH1 0x0 DUP2 DUP2 PUSH2 0x2FDB SWAP2 SWAP1 PUSH2 0x3029 JUMP JUMPDEST POP PUSH1 0x1 ADD PUSH2 0x2FC5 JUMP JUMPDEST POP SWAP1 JUMP JUMPDEST JUMPDEST DUP1 DUP3 GT ISZERO PUSH2 0x3001 JUMPI PUSH1 0x0 DUP2 PUSH1 0x0 SWAP1 SSTORE POP PUSH1 0x1 ADD PUSH2 0x2FE9 JUMP JUMPDEST POP SWAP1 JUMP JUMPDEST JUMPDEST DUP1 DUP3 GT ISZERO PUSH2 0x3025 JUMPI PUSH1 0x0 DUP2 DUP2 PUSH2 0x301C SWAP2 SWAP1 PUSH2 0x3069 JUMP JUMPDEST POP PUSH1 0x1 ADD PUSH2 0x3006 JUMP JUMPDEST POP SWAP1 JUMP JUMPDEST POP DUP1 SLOAD PUSH2 0x3035 SWAP1 PUSH2 0x494F JUMP JUMPDEST PUSH1 0x0 DUP3 SSTORE DUP1 PUSH1 0x1F LT PUSH2 0x3047 JUMPI POP PUSH2 0x3066 JUMP JUMPDEST PUSH1 0x1F ADD PUSH1 0x20 SWAP1 DIV SWAP1 PUSH1 0x0 MSTORE PUSH1 0x20 PUSH1 0x0 KECCAK256 SWAP1 DUP2 ADD SWAP1 PUSH2 0x3065 SWAP2 SWAP1 PUSH2 0x2FE8 JUMP JUMPDEST JUMPDEST POP JUMP JUMPDEST POP DUP1 SLOAD PUSH1 0x0 DUP3 SSTORE SWAP1 PUSH1 0x0 MSTORE PUSH1 0x20 PUSH1 0x0 KECCAK256 SWAP1 DUP2 ADD SWAP1 PUSH2 0x3087 SWAP2 SWAP1 PUSH2 0x2FC4 JUMP JUMPDEST POP JUMP JUMPDEST PUSH1 0x0 PUSH1 0x40 MLOAD SWAP1 POP SWAP1 JUMP JUMPDEST PUSH1 0x0 DUP1 REVERT JUMPDEST PUSH1 0x0 DUP1 REVERT JUMPDEST PUSH1 0x0 DUP2 SWAP1 POP SWAP2 SWAP1 POP JUMP JUMPDEST PUSH2 0x30B1 DUP2 PUSH2 0x309E JUMP JUMPDEST DUP2 EQ PUSH2 0x30BC JUMPI PUSH1 0x0 DUP1 REVERT JUMPDEST POP JUMP JUMPDEST PUSH1 0x0 DUP2 CALLDATALOAD SWAP1 POP PUSH2 0x30CE DUP2 PUSH2 0x30A8 JUMP JUMPDEST SWAP3 SWAP2 POP POP JUMP JUMPDEST PUSH1 0x0 DUP1 REVERT JUMPDEST PUSH1 0x0 PUSH1 0x1F NOT PUSH1 0x1F DUP4 ADD AND SWAP1 POP SWAP2 SWAP1 POP JUMP JUMPDEST PUSH32 0x4E487B7100000000000000000000000000000000000000000000000000000000 PUSH1 0x0 MSTORE PUSH1 0x41 PUSH1 0x4 MSTORE PUSH1 0x24 PUSH1 0x0 REVERT JUMPDEST PUSH2 0x3122 DUP3 PUSH2 0x30D9 JUMP JUMPDEST DUP2 ADD DUP2 DUP2 LT PUSH8 0xFFFFFFFFFFFFFFFF DUP3 GT OR ISZERO PUSH2 0x3141 JUMPI PUSH2 0x3140 PUSH2 0x30EA JUMP JUMPDEST JUMPDEST DUP1 PUSH1 0x40 MSTORE POP POP POP JUMP JUMPDEST PUSH1 0x0 PUSH2 0x3154 PUSH2 0x308A JUMP JUMPDEST SWAP1 POP PUSH2 0x3160 DUP3 DUP3 PUSH2 0x3119 JUMP JUMPDEST SWAP2 SWAP1 POP JUMP JUMPDEST PUSH1 0x0 PUSH8 0xFFFFFFFFFFFFFFFF DUP3 GT ISZERO PUSH2 0x3180 JUMPI PUSH2 0x317F PUSH2 0x30EA JUMP JUMPDEST JUMPDEST PUSH1 0x20 DUP3 MUL SWAP1 POP PUSH1 0x20 DUP2 ADD SWAP1 POP SWAP2 SWAP1 POP JUMP JUMPDEST PUSH1 0x0 DUP1 REVERT JUMPDEST PUSH1 0x0 DUP1 REVERT JUMPDEST PUSH1 0x0 PUSH8 0xFFFFFFFFFFFFFFFF DUP3 GT ISZERO PUSH2 0x31B6 JUMPI PUSH2 0x31B5 PUSH2 0x30EA JUMP JUMPDEST JUMPDEST PUSH2 0x31BF DUP3 PUSH2 0x30D9 JUMP JUMPDEST SWAP1 POP PUSH1 0x20 DUP2 ADD SWAP1 POP SWAP2 SWAP1 POP JUMP JUMPDEST DUP3 DUP2 DUP4 CALLDATACOPY PUSH1 0x0 DUP4 DUP4 ADD MSTORE POP POP POP JUMP JUMPDEST PUSH1 0x0 PUSH2 0x31EE PUSH2 0x31E9 DUP5 PUSH2 0x319B JUMP JUMPDEST PUSH2 0x314A JUMP JUMPDEST SWAP1 POP DUP3 DUP2 MSTORE PUSH1 0x20 DUP2 ADD DUP5 DUP5 DUP5 ADD GT ISZERO PUSH2 0x320A JUMPI PUSH2 0x3209 PUSH2 0x3196 JUMP JUMPDEST JUMPDEST PUSH2 0x3215 DUP5 DUP3 DUP6 PUSH2 0x31CC JUMP JUMPDEST POP SWAP4 SWAP3 POP POP POP JUMP JUMPDEST PUSH1 0x0 DUP3 PUSH1 0x1F DUP4 ADD SLT PUSH2 0x3232 JUMPI PUSH2 0x3231 PUSH2 0x30D4 JUMP JUMPDEST JUMPDEST DUP2 CALLDATALOAD PUSH2 0x3242 DUP5 DUP3 PUSH1 0x20 DUP7 ADD PUSH2 0x31DB JUMP JUMPDEST SWAP2 POP POP SWAP3 SWAP2 POP POP JUMP JUMPDEST PUSH1 0x0 PUSH2 0x325E PUSH2 0x3259 DUP5 PUSH2 0x3165 JUMP JUMPDEST PUSH2 0x314A JUMP JUMPDEST SWAP1 POP DUP1 DUP4 DUP3 MSTORE PUSH1 0x20 DUP3 ADD SWAP1 POP PUSH1 0x20 DUP5 MUL DUP4 ADD DUP6 DUP2 GT ISZERO PUSH2 0x3281 JUMPI PUSH2 0x3280 PUSH2 0x3191 JUMP JUMPDEST JUMPDEST DUP4 JUMPDEST DUP2 DUP2 LT ISZERO PUSH2 0x32C8 JUMPI DUP1 CALLDATALOAD PUSH8 0xFFFFFFFFFFFFFFFF DUP2 GT ISZERO PUSH2 0x32A6 JUMPI PUSH2 0x32A5 PUSH2 0x30D4 JUMP JUMPDEST JUMPDEST DUP1 DUP7 ADD PUSH2 0x32B3 DUP10 DUP3 PUSH2 0x321D JUMP JUMPDEST DUP6 MSTORE PUSH1 0x20 DUP6 ADD SWAP5 POP POP POP PUSH1 0x20 DUP2 ADD SWAP1 POP PUSH2 0x3283 JUMP JUMPDEST POP POP POP SWAP4 SWAP3 POP POP POP JUMP JUMPDEST PUSH1 0x0 DUP3 PUSH1 0x1F DUP4 ADD SLT PUSH2 0x32E7 JUMPI PUSH2 0x32E6 PUSH2 0x30D4 JUMP JUMPDEST JUMPDEST DUP2 CALLDATALOAD PUSH2 0x32F7 DUP5 DUP3 PUSH1 0x20 DUP7 ADD PUSH2 0x324B JUMP JUMPDEST SWAP2 POP POP SWAP3 SWAP2 POP POP JUMP JUMPDEST PUSH1 0x0 PUSH8 0xFFFFFFFFFFFFFFFF DUP3 GT ISZERO PUSH2 0x331B JUMPI PUSH2 0x331A PUSH2 0x30EA JUMP JUMPDEST JUMPDEST PUSH1 0x20 DUP3 MUL SWAP1 POP PUSH1 0x20 DUP2 ADD SWAP1 POP SWAP2 SWAP1 POP JUMP JUMPDEST PUSH1 0x0 PUSH2 0x333F PUSH2 0x333A DUP5 PUSH2 0x3300 JUMP JUMPDEST PUSH2 0x314A JUMP JUMPDEST SWAP1 POP DUP1 DUP4 DUP3 MSTORE PUSH1 0x20 DUP3 ADD SWAP1 POP PUSH1 0x20 DUP5 MUL DUP4 ADD DUP6 DUP2 GT ISZERO PUSH2 0x3362 JUMPI PUSH2 0x3361 PUSH2 0x3191 JUMP JUMPDEST JUMPDEST DUP4 JUMPDEST DUP2 DUP2 LT ISZERO PUSH2 0x33A9 JUMPI DUP1 CALLDATALOAD PUSH8 0xFFFFFFFFFFFFFFFF DUP2 GT ISZERO PUSH2 0x3387 JUMPI PUSH2 0x3386 PUSH2 0x30D4 JUMP JUMPDEST JUMPDEST DUP1 DUP7 ADD PUSH2 0x3394 DUP10 DUP3 PUSH2 0x32D2 JUMP JUMPDEST DUP6 MSTORE PUSH1 0x20 DUP6 ADD SWAP5 POP POP POP PUSH1 0x20 DUP2 ADD SWAP1 POP PUSH2 0x3364 JUMP JUMPDEST POP POP POP SWAP4 SWAP3 POP POP POP JUMP JUMPDEST PUSH1 0x0 DUP3 PUSH1 0x1F DUP4 ADD SLT PUSH2 0x33C8 JUMPI PUSH2 0x33C7 PUSH2 0x30D4 JUMP JUMPDEST JUMPDEST DUP2 CALLDATALOAD PUSH2 0x33D8 DUP5 DUP3 PUSH1 0x20 DUP7 ADD PUSH2 0x332C JUMP JUMPDEST SWAP2 POP POP SWAP3 SWAP2 POP POP JUMP JUMPDEST PUSH1 0x0 PUSH8 0xFFFFFFFFFFFFFFFF DUP3 GT ISZERO PUSH2 0x33FC JUMPI PUSH2 0x33FB PUSH2 0x30EA JUMP JUMPDEST JUMPDEST PUSH1 0x20 DUP3 MUL SWAP1 POP PUSH1 0x20 DUP2 ADD SWAP1 POP SWAP2 SWAP1 POP JUMP JUMPDEST PUSH1 0x3 DUP2 LT PUSH2 0x341A JUMPI PUSH1 0x0 DUP1 REVERT JUMPDEST POP JUMP JUMPDEST PUSH1 0x0 DUP2 CALLDATALOAD SWAP1 POP PUSH2 0x342C DUP2 PUSH2 0x340D JUMP JUMPDEST SWAP3 SWAP2 POP POP JUMP JUMPDEST PUSH1 0x0 PUSH2 0x3445 PUSH2 0x3440 DUP5 PUSH2 0x33E1 JUMP JUMPDEST PUSH2 0x314A JUMP JUMPDEST SWAP1 POP DUP1 DUP4 DUP3 MSTORE PUSH1 0x20 DUP3 ADD SWAP1 POP PUSH1 0x20 DUP5 MUL DUP4 ADD DUP6 DUP2 GT ISZERO PUSH2 0x3468 JUMPI PUSH2 0x3467 PUSH2 0x3191 JUMP JUMPDEST JUMPDEST DUP4 JUMPDEST DUP2 DUP2 LT ISZERO PUSH2 0x3491 JUMPI DUP1 PUSH2 0x347D DUP9 DUP3 PUSH2 0x341D JUMP JUMPDEST DUP5 MSTORE PUSH1 0x20 DUP5 ADD SWAP4 POP POP PUSH1 0x20 DUP2 ADD SWAP1 POP PUSH2 0x346A JUMP JUMPDEST POP POP POP SWAP4 SWAP3 POP POP POP JUMP JUMPDEST PUSH1 0x0 DUP3 PUSH1 0x1F DUP4 ADD SLT PUSH2 0x34B0 JUMPI PUSH2 0x34AF PUSH2 0x30D4 JUMP JUMPDEST JUMPDEST DUP2 CALLDATALOAD PUSH2 0x34C0 DUP5 DUP3 PUSH1 0x20 DUP7 ADD PUSH2 0x3432 JUMP JUMPDEST SWAP2 POP POP SWAP3 SWAP2 POP POP JUMP JUMPDEST PUSH1 0x0 DUP1 PUSH1 0x0 DUP1 PUSH1 0x80 DUP6 DUP8 SUB SLT ISZERO PUSH2 0x34E3 JUMPI PUSH2 0x34E2 PUSH2 0x3094 JUMP JUMPDEST JUMPDEST PUSH1 0x0 PUSH2 0x34F1 DUP8 DUP3 DUP9 ADD PUSH2 0x30BF JUMP JUMPDEST SWAP5 POP POP PUSH1 0x20 DUP6 ADD CALLDATALOAD PUSH8 0xFFFFFFFFFFFFFFFF DUP2 GT ISZERO PUSH2 0x3512 JUMPI PUSH2 0x3511 PUSH2 0x3099 JUMP JUMPDEST JUMPDEST PUSH2 0x351E DUP8 DUP3 DUP9 ADD PUSH2 0x32D2 JUMP JUMPDEST SWAP4 POP POP PUSH1 0x40 DUP6 ADD CALLDATALOAD PUSH8 0xFFFFFFFFFFFFFFFF DUP2 GT ISZERO PUSH2 0x353F JUMPI PUSH2 0x353E PUSH2 0x3099 JUMP JUMPDEST JUMPDEST PUSH2 0x354B DUP8 DUP3 DUP9 ADD PUSH2 0x33B3 JUMP JUMPDEST SWAP3 POP POP PUSH1 0x60 DUP6 ADD CALLDATALOAD PUSH8 0xFFFFFFFFFFFFFFFF DUP2 GT ISZERO PUSH2 0x356C JUMPI PUSH2 0x356B PUSH2 0x3099 JUMP JUMPDEST JUMPDEST PUSH2 0x3578 DUP8 DUP3 DUP9 ADD PUSH2 0x349B JUMP JUMPDEST SWAP2 POP POP SWAP3 SWAP6 SWAP2 SWAP5 POP SWAP3 POP JUMP JUMPDEST PUSH1 0x0 DUP2 SWAP1 POP SWAP2 SWAP1 POP JUMP JUMPDEST PUSH2 0x3597 DUP2 PUSH2 0x3584 JUMP JUMPDEST DUP3 MSTORE POP POP JUMP JUMPDEST PUSH1 0x0 PUSH1 0x20 DUP3 ADD SWAP1 POP PUSH2 0x35B2 PUSH1 0x0 DUP4 ADD DUP5 PUSH2 0x358E JUMP JUMPDEST SWAP3 SWAP2 POP POP JUMP JUMPDEST PUSH1 0x0 DUP2 MLOAD SWAP1 POP SWAP2 SWAP1 POP JUMP JUMPDEST PUSH1 0x0 DUP3 DUP3 MSTORE PUSH1 0x20 DUP3 ADD SWAP1 POP SWAP3 SWAP2 POP POP JUMP JUMPDEST PUSH1 0x0 JUMPDEST DUP4 DUP2 LT ISZERO PUSH2 0x35F2 JUMPI DUP1 DUP3 ADD MLOAD DUP2 DUP5 ADD MSTORE PUSH1 0x20 DUP2 ADD SWAP1 POP PUSH2 0x35D7 JUMP JUMPDEST PUSH1 0x0 DUP5 DUP5 ADD MSTORE POP POP POP POP JUMP JUMPDEST PUSH1 0x0 PUSH2 0x3609 DUP3 PUSH2 0x35B8 JUMP JUMPDEST PUSH2 0x3613 DUP2 DUP6 PUSH2 0x35C3 JUMP JUMPDEST SWAP4 POP PUSH2 0x3623 DUP2 DUP6 PUSH1 0x20 DUP7 ADD PUSH2 0x35D4 JUMP JUMPDEST PUSH2 0x362C DUP2 PUSH2 0x30D9 JUMP JUMPDEST DUP5 ADD SWAP2 POP POP SWAP3 SWAP2 POP POP JUMP JUMPDEST PUSH1 0x0 PUSH1 0x20 DUP3 ADD SWAP1 POP DUP2 DUP2 SUB PUSH1 0x0 DUP4 ADD MSTORE PUSH2 0x3651 DUP2 DUP5 PUSH2 0x35FE JUMP JUMPDEST SWAP1 POP SWAP3 SWAP2 POP POP JUMP JUMPDEST PUSH1 0x0 PUSH20 0xFFFFFFFFFFFFFFFFFFFFFFFFFFFFFFFFFFFFFFFF DUP3 AND SWAP1 POP SWAP2 SWAP1 POP JUMP JUMPDEST PUSH1 0x0 PUSH2 0x3684 DUP3 PUSH2 0x3659 JUMP JUMPDEST SWAP1 POP SWAP2 SWAP1 POP JUMP JUMPDEST PUSH2 0x3694 DUP2 PUSH2 0x3679 JUMP JUMPDEST DUP2 EQ PUSH2 0x369F JUMPI PUSH1 0x0 DUP1 REVERT JUMPDEST POP JUMP JUMPDEST PUSH1 0x0 DUP2 CALLDATALOAD SWAP1 POP PUSH2 0x36B1 DUP2 PUSH2 0x368B JUMP JUMPDEST SWAP3 SWAP2 POP POP JUMP JUMPDEST PUSH1 0x0 PUSH1 0x20 DUP3 DUP5 SUB SLT ISZERO PUSH2 0x36CD JUMPI PUSH2 0x36CC PUSH2 0x3094 JUMP JUMPDEST JUMPDEST PUSH1 0x0 PUSH2 0x36DB DUP5 DUP3 DUP6 ADD PUSH2 0x36A2 JUMP JUMPDEST SWAP2 POP POP SWAP3 SWAP2 POP POP JUMP JUMPDEST PUSH1 0x0 PUSH1 0x20 DUP3 DUP5 SUB SLT ISZERO PUSH2 0x36FA JUMPI PUSH2 0x36F9 PUSH2 0x3094 JUMP JUMPDEST JUMPDEST PUSH1 0x0 DUP3 ADD CALLDATALOAD PUSH8 0xFFFFFFFFFFFFFFFF DUP2 GT ISZERO PUSH2 0x3718 JUMPI PUSH2 0x3717 PUSH2 0x3099 JUMP JUMPDEST JUMPDEST PUSH2 0x3724 DUP5 DUP3 DUP6 ADD PUSH2 0x321D JUMP JUMPDEST SWAP2 POP POP SWAP3 SWAP2 POP POP JUMP JUMPDEST PUSH1 0x0 DUP2 MLOAD SWAP1 POP SWAP2 SWAP1 POP JUMP JUMPDEST PUSH1 0x0 DUP3 DUP3 MSTORE PUSH1 0x20 DUP3 ADD SWAP1 POP SWAP3 SWAP2 POP POP JUMP JUMPDEST PUSH1 0x0 DUP2 SWAP1 POP PUSH1 0x20 DUP3 ADD SWAP1 POP SWAP2 SWAP1 POP JUMP JUMPDEST PUSH2 0x3762 DUP2 PUSH2 0x3679 JUMP JUMPDEST DUP3 MSTORE POP POP JUMP JUMPDEST PUSH1 0x0 PUSH2 0x3774 DUP4 DUP4 PUSH2 0x3759 JUMP JUMPDEST PUSH1 0x20 DUP4 ADD SWAP1 POP SWAP3 SWAP2 POP POP JUMP JUMPDEST PUSH1 0x0 PUSH1 0x20 DUP3 ADD SWAP1 POP SWAP2 SWAP1 POP JUMP JUMPDEST PUSH1 0x0 PUSH2 0x3798 DUP3 PUSH2 0x372D JUMP JUMPDEST PUSH2 0x37A2 DUP2 DUP6 PUSH2 0x3738 JUMP JUMPDEST SWAP4 POP PUSH2 0x37AD DUP4 PUSH2 0x3749 JUMP JUMPDEST DUP1 PUSH1 0x0 JUMPDEST DUP4 DUP2 LT ISZERO PUSH2 0x37DE JUMPI DUP2 MLOAD PUSH2 0x37C5 DUP9 DUP3 PUSH2 0x3768 JUMP JUMPDEST SWAP8 POP PUSH2 0x37D0 DUP4 PUSH2 0x3780 JUMP JUMPDEST SWAP3 POP POP PUSH1 0x1 DUP2 ADD SWAP1 POP PUSH2 0x37B1 JUMP JUMPDEST POP DUP6 SWAP4 POP POP POP POP SWAP3 SWAP2 POP POP JUMP JUMPDEST PUSH1 0x0 DUP2 MLOAD SWAP1 POP SWAP2 SWAP1 POP JUMP JUMPDEST PUSH1 0x0 DUP3 DUP3 MSTORE PUSH1 0x20 DUP3 ADD SWAP1 POP SWAP3 SWAP2 POP POP JUMP JUMPDEST PUSH1 0x0 DUP2 SWAP1 POP PUSH1 0x20 DUP3 ADD SWAP1 POP SWAP2 SWAP1 POP JUMP JUMPDEST PUSH2 0x3820 DUP2 PUSH2 0x3584 JUMP JUMPDEST DUP3 MSTORE POP POP JUMP JUMPDEST PUSH1 0x0 PUSH2 0x3832 DUP4 DUP4 PUSH2 0x3817 JUMP JUMPDEST PUSH1 0x20 DUP4 ADD SWAP1 POP SWAP3 SWAP2 POP POP JUMP JUMPDEST PUSH1 0x0 PUSH1 0x20 DUP3 ADD SWAP1 POP SWAP2 SWAP1 POP JUMP JUMPDEST PUSH1 0x0 PUSH2 0x3856 DUP3 PUSH2 0x37EB JUMP JUMPDEST PUSH2 0x3860 DUP2 DUP6 PUSH2 0x37F6 JUMP JUMPDEST SWAP4 POP PUSH2 0x386B DUP4 PUSH2 0x3807 JUMP JUMPDEST DUP1 PUSH1 0x0 JUMPDEST DUP4 DUP2 LT ISZERO PUSH2 0x389C JUMPI DUP2 MLOAD PUSH2 0x3883 DUP9 DUP3 PUSH2 0x3826 JUMP JUMPDEST SWAP8 POP PUSH2 0x388E DUP4 PUSH2 0x383E JUMP JUMPDEST SWAP3 POP POP PUSH1 0x1 DUP2 ADD SWAP1 POP PUSH2 0x386F JUMP JUMPDEST POP DUP6 SWAP4 POP POP POP POP SWAP3 SWAP2 POP POP JUMP JUMPDEST PUSH1 0x0 DUP2 MLOAD SWAP1 POP SWAP2 SWAP1 POP JUMP JUMPDEST PUSH1 0x0 DUP3 DUP3 MSTORE PUSH1 0x20 DUP3 ADD SWAP1 POP SWAP3 SWAP2 POP POP JUMP JUMPDEST PUSH1 0x0 DUP2 SWAP1 POP PUSH1 0x20 DUP3 ADD SWAP1 POP SWAP2 SWAP1 POP JUMP JUMPDEST PUSH1 0x0 DUP3 DUP3 MSTORE PUSH1 0x20 DUP3 ADD SWAP1 POP SWAP3 SWAP2 POP POP JUMP JUMPDEST PUSH1 0x0 PUSH2 0x38F1 DUP3 PUSH2 0x35B8 JUMP JUMPDEST PUSH2 0x38FB DUP2 DUP6 PUSH2 0x38D5 JUMP JUMPDEST SWAP4 POP PUSH2 0x390B DUP2 DUP6 PUSH1 0x20 DUP7 ADD PUSH2 0x35D4 JUMP JUMPDEST PUSH2 0x3914 DUP2 PUSH2 0x30D9 JUMP JUMPDEST DUP5 ADD SWAP2 POP POP SWAP3 SWAP2 POP POP JUMP JUMPDEST PUSH1 0x0 PUSH2 0x392B DUP4 DUP4 PUSH2 0x38E6 JUMP JUMPDEST SWAP1 POP SWAP3 SWAP2 POP POP JUMP JUMPDEST PUSH1 0x0 PUSH1 0x20 DUP3 ADD SWAP1 POP SWAP2 SWAP1 POP JUMP JUMPDEST PUSH1 0x0 PUSH2 0x394B DUP3 PUSH2 0x38A9 JUMP JUMPDEST PUSH2 0x3955 DUP2 DUP6 PUSH2 0x38B4 JUMP JUMPDEST SWAP4 POP DUP4 PUSH1 0x20 DUP3 MUL DUP6 ADD PUSH2 0x3967 DUP6 PUSH2 0x38C5 JUMP JUMPDEST DUP1 PUSH1 0x0 JUMPDEST DUP6 DUP2 LT ISZERO PUSH2 0x39A3 JUMPI DUP5 DUP5 SUB DUP10 MSTORE DUP2 MLOAD PUSH2 0x3984 DUP6 DUP3 PUSH2 0x391F JUMP JUMPDEST SWAP5 POP PUSH2 0x398F DUP4 PUSH2 0x3933 JUMP JUMPDEST SWAP3 POP PUSH1 0x20 DUP11 ADD SWAP10 POP POP PUSH1 0x1 DUP2 ADD SWAP1 POP PUSH2 0x396B JUMP JUMPDEST POP DUP3 SWAP8 POP DUP8 SWAP6 POP POP POP POP POP POP SWAP3 SWAP2 POP POP JUMP JUMPDEST PUSH1 0x0 DUP2 MLOAD SWAP1 POP SWAP2 SWAP1 POP JUMP JUMPDEST PUSH1 0x0 DUP3 DUP3 MSTORE PUSH1 0x20 DUP3 ADD SWAP1 POP SWAP3 SWAP2 POP POP JUMP JUMPDEST PUSH1 0x0 DUP2 SWAP1 POP PUSH1 0x20 DUP3 ADD SWAP1 POP SWAP2 SWAP1 POP JUMP JUMPDEST PUSH2 0x39EA DUP2 PUSH2 0x309E JUMP JUMPDEST DUP3 MSTORE POP POP JUMP JUMPDEST PUSH1 0x60 DUP3 ADD PUSH1 0x0 DUP3 ADD MLOAD PUSH2 0x3A06 PUSH1 0x0 DUP6 ADD DUP3 PUSH2 0x3759 JUMP JUMPDEST POP PUSH1 0x20 DUP3 ADD MLOAD PUSH2 0x3A19 PUSH1 0x20 DUP6 ADD DUP3 PUSH2 0x3817 JUMP JUMPDEST POP PUSH1 0x40 DUP3 ADD MLOAD PUSH2 0x3A2C PUSH1 0x40 DUP6 ADD DUP3 PUSH2 0x39E1 JUMP JUMPDEST POP POP POP POP JUMP JUMPDEST PUSH1 0x0 PUSH2 0x3A3E DUP4 DUP4 PUSH2 0x39F0 JUMP JUMPDEST PUSH1 0x60 DUP4 ADD SWAP1 POP SWAP3 SWAP2 POP POP JUMP JUMPDEST PUSH1 0x0 PUSH1 0x20 DUP3 ADD SWAP1 POP SWAP2 SWAP1 POP JUMP JUMPDEST PUSH1 0x0 PUSH2 0x3A62 DUP3 PUSH2 0x39B5 JUMP JUMPDEST PUSH2 0x3A6C DUP2 DUP6 PUSH2 0x39C0 JUMP JUMPDEST SWAP4 POP PUSH2 0x3A77 DUP4 PUSH2 0x39D1 JUMP JUMPDEST DUP1 PUSH1 0x0 JUMPDEST DUP4 DUP2 LT ISZERO PUSH2 0x3AA8 JUMPI DUP2 MLOAD PUSH2 0x3A8F DUP9 DUP3 PUSH2 0x3A32 JUMP JUMPDEST SWAP8 POP PUSH2 0x3A9A DUP4 PUSH2 0x3A4A JUMP JUMPDEST SWAP3 POP POP PUSH1 0x1 DUP2 ADD SWAP1 POP PUSH2 0x3A7B JUMP JUMPDEST POP DUP6 SWAP4 POP POP POP POP SWAP3 SWAP2 POP POP JUMP JUMPDEST PUSH1 0x0 DUP2 ISZERO ISZERO SWAP1 POP SWAP2 SWAP1 POP JUMP JUMPDEST PUSH2 0x3ACA DUP2 PUSH2 0x3AB5 JUMP JUMPDEST DUP3 MSTORE POP POP JUMP JUMPDEST PUSH1 0x0 PUSH2 0x100 DUP3 ADD SWAP1 POP DUP2 DUP2 SUB PUSH1 0x0 DUP4 ADD MSTORE PUSH2 0x3AEB DUP2 DUP12 PUSH2 0x378D JUMP JUMPDEST SWAP1 POP DUP2 DUP2 SUB PUSH1 0x20 DUP4 ADD MSTORE PUSH2 0x3AFF DUP2 DUP11 PUSH2 0x384B JUMP JUMPDEST SWAP1 POP DUP2 DUP2 SUB PUSH1 0x40 DUP4 ADD MSTORE PUSH2 0x3B13 DUP2 DUP10 PUSH2 0x3940 JUMP JUMPDEST SWAP1 POP DUP2 DUP2 SUB PUSH1 0x60 DUP4 ADD MSTORE PUSH2 0x3B27 DUP2 DUP9 PUSH2 0x35FE JUMP JUMPDEST SWAP1 POP PUSH2 0x3B36 PUSH1 0x80 DUP4 ADD DUP8 PUSH2 0x358E JUMP JUMPDEST DUP2 DUP2 SUB PUSH1 0xA0 DUP4 ADD MSTORE PUSH2 0x3B48 DUP2 DUP7 PUSH2 0x3A57 JUMP JUMPDEST SWAP1 POP PUSH2 0x3B57 PUSH1 0xC0 DUP4 ADD DUP6 PUSH2 0x358E JUMP JUMPDEST PUSH2 0x3B64 PUSH1 0xE0 DUP4 ADD DUP5 PUSH2 0x3AC1 JUMP JUMPDEST SWAP10 SWAP9 POP POP POP POP POP POP POP POP POP JUMP JUMPDEST PUSH1 0x0 DUP1 REVERT JUMPDEST PUSH1 0x0 DUP1 DUP4 PUSH1 0x1F DUP5 ADD SLT PUSH2 0x3B8C JUMPI PUSH2 0x3B8B PUSH2 0x30D4 JUMP JUMPDEST JUMPDEST DUP3 CALLDATALOAD SWAP1 POP PUSH8 0xFFFFFFFFFFFFFFFF DUP2 GT ISZERO PUSH2 0x3BA9 JUMPI PUSH2 0x3BA8 PUSH2 0x3B71 JUMP JUMPDEST JUMPDEST PUSH1 0x20 DUP4 ADD SWAP2 POP DUP4 PUSH1 0x20 DUP3 MUL DUP4 ADD GT ISZERO PUSH2 0x3BC5 JUMPI PUSH2 0x3BC4 PUSH2 0x3191 JUMP JUMPDEST JUMPDEST SWAP3 POP SWAP3 SWAP1 POP JUMP JUMPDEST PUSH1 0x0 DUP1 DUP4 PUSH1 0x1F DUP5 ADD SLT PUSH2 0x3BE2 JUMPI PUSH2 0x3BE1 PUSH2 0x30D4 JUMP JUMPDEST JUMPDEST DUP3 CALLDATALOAD SWAP1 POP PUSH8 0xFFFFFFFFFFFFFFFF DUP2 GT ISZERO PUSH2 0x3BFF JUMPI PUSH2 0x3BFE PUSH2 0x3B71 JUMP JUMPDEST JUMPDEST PUSH1 0x20 DUP4 ADD SWAP2 POP DUP4 PUSH1 0x20 DUP3 MUL DUP4 ADD GT ISZERO PUSH2 0x3C1B JUMPI PUSH2 0x3C1A PUSH2 0x3191 JUMP JUMPDEST JUMPDEST SWAP3 POP SWAP3 SWAP1 POP JUMP JUMPDEST PUSH1 0x0 DUP1 PUSH1 0x0 DUP1 PUSH1 0x40 DUP6 DUP8 SUB SLT ISZERO PUSH2 0x3C3C JUMPI PUSH2 0x3C3B PUSH2 0x3094 JUMP JUMPDEST JUMPDEST PUSH1 0x0 DUP6 ADD CALLDATALOAD PUSH8 0xFFFFFFFFFFFFFFFF DUP2 GT ISZERO PUSH2 0x3C5A JUMPI PUSH2 0x3C59 PUSH2 0x3099 JUMP JUMPDEST JUMPDEST PUSH2 0x3C66 DUP8 DUP3 DUP9 ADD PUSH2 0x3B76 JUMP JUMPDEST SWAP5 POP SWAP5 POP POP PUSH1 0x20 DUP6 ADD CALLDATALOAD PUSH8 0xFFFFFFFFFFFFFFFF DUP2 GT ISZERO PUSH2 0x3C89 JUMPI PUSH2 0x3C88 PUSH2 0x3099 JUMP JUMPDEST JUMPDEST PUSH2 0x3C95 DUP8 DUP3 DUP9 ADD PUSH2 0x3BCC JUMP JUMPDEST SWAP3 POP SWAP3 POP POP SWAP3 SWAP6 SWAP2 SWAP5 POP SWAP3 POP JUMP JUMPDEST PUSH1 0x0 PUSH1 0x20 DUP3 ADD SWAP1 POP PUSH2 0x3CB8 PUSH1 0x0 DUP4 ADD DUP5 PUSH2 0x3AC1 JUMP JUMPDEST SWAP3 SWAP2 POP POP JUMP JUMPDEST PUSH2 0x3CC7 DUP2 PUSH2 0x3679 JUMP JUMPDEST DUP3 MSTORE POP POP JUMP JUMPDEST PUSH1 0x0 PUSH1 0x20 DUP3 ADD SWAP1 POP PUSH2 0x3CE2 PUSH1 0x0 DUP4 ADD DUP5 PUSH2 0x3CBE JUMP JUMPDEST SWAP3 SWAP2 POP POP JUMP JUMPDEST PUSH1 0x0 PUSH8 0xFFFFFFFFFFFFFFFF DUP3 GT ISZERO PUSH2 0x3D03 JUMPI PUSH2 0x3D02 PUSH2 0x30EA JUMP JUMPDEST JUMPDEST PUSH1 0x20 DUP3 MUL SWAP1 POP PUSH1 0x20 DUP2 ADD SWAP1 POP SWAP2 SWAP1 POP JUMP JUMPDEST PUSH1 0x0 PUSH2 0x3D27 PUSH2 0x3D22 DUP5 PUSH2 0x3CE8 JUMP JUMPDEST PUSH2 0x314A JUMP JUMPDEST SWAP1 POP DUP1 DUP4 DUP3 MSTORE PUSH1 0x20 DUP3 ADD SWAP1 POP PUSH1 0x20 DUP5 MUL DUP4 ADD DUP6 DUP2 GT ISZERO PUSH2 0x3D4A JUMPI PUSH2 0x3D49 PUSH2 0x3191 JUMP JUMPDEST JUMPDEST DUP4 JUMPDEST DUP2 DUP2 LT ISZERO PUSH2 0x3D73 JUMPI DUP1 PUSH2 0x3D5F DUP9 DUP3 PUSH2 0x36A2 JUMP JUMPDEST DUP5 MSTORE PUSH1 0x20 DUP5 ADD SWAP4 POP POP PUSH1 0x20 DUP2 ADD SWAP1 POP PUSH2 0x3D4C JUMP JUMPDEST POP POP POP SWAP4 SWAP3 POP POP POP JUMP JUMPDEST PUSH1 0x0 DUP3 PUSH1 0x1F DUP4 ADD SLT PUSH2 0x3D92 JUMPI PUSH2 0x3D91 PUSH2 0x30D4 JUMP JUMPDEST JUMPDEST DUP2 CALLDATALOAD PUSH2 0x3DA2 DUP5 DUP3 PUSH1 0x20 DUP7 ADD PUSH2 0x3D14 JUMP JUMPDEST SWAP2 POP POP SWAP3 SWAP2 POP POP JUMP JUMPDEST PUSH1 0x0 PUSH8 0xFFFFFFFFFFFFFFFF DUP3 GT ISZERO PUSH2 0x3DC6 JUMPI PUSH2 0x3DC5 PUSH2 0x30EA JUMP JUMPDEST JUMPDEST PUSH1 0x20 DUP3 MUL SWAP1 POP PUSH1 0x20 DUP2 ADD SWAP1 POP SWAP2 SWAP1 POP JUMP JUMPDEST PUSH2 0x3DE0 DUP2 PUSH2 0x3584 JUMP JUMPDEST DUP2 EQ PUSH2 0x3DEB JUMPI PUSH1 0x0 DUP1 REVERT JUMPDEST POP JUMP JUMPDEST PUSH1 0x0 DUP2 CALLDATALOAD SWAP1 POP PUSH2 0x3DFD DUP2 PUSH2 0x3DD7 JUMP JUMPDEST SWAP3 SWAP2 POP POP JUMP JUMPDEST PUSH1 0x0 PUSH2 0x3E16 PUSH2 0x3E11 DUP5 PUSH2 0x3DAB JUMP JUMPDEST PUSH2 0x314A JUMP JUMPDEST SWAP1 POP DUP1 DUP4 DUP3 MSTORE PUSH1 0x20 DUP3 ADD SWAP1 POP PUSH1 0x20 DUP5 MUL DUP4 ADD DUP6 DUP2 GT ISZERO PUSH2 0x3E39 JUMPI PUSH2 0x3E38 PUSH2 0x3191 JUMP JUMPDEST JUMPDEST DUP4 JUMPDEST DUP2 DUP2 LT ISZERO PUSH2 0x3E62 JUMPI DUP1 PUSH2 0x3E4E DUP9 DUP3 PUSH2 0x3DEE JUMP JUMPDEST DUP5 MSTORE PUSH1 0x20 DUP5 ADD SWAP4 POP POP PUSH1 0x20 DUP2 ADD SWAP1 POP PUSH2 0x3E3B JUMP JUMPDEST POP POP POP SWAP4 SWAP3 POP POP POP JUMP JUMPDEST PUSH1 0x0 DUP3 PUSH1 0x1F DUP4 ADD SLT PUSH2 0x3E81 JUMPI PUSH2 0x3E80 PUSH2 0x30D4 JUMP JUMPDEST JUMPDEST DUP2 CALLDATALOAD PUSH2 0x3E91 DUP5 DUP3 PUSH1 0x20 DUP7 ADD PUSH2 0x3E03 JUMP JUMPDEST SWAP2 POP POP SWAP3 SWAP2 POP POP JUMP JUMPDEST PUSH1 0x0 DUP1 PUSH1 0x0 DUP1 PUSH1 0x0 DUP1 PUSH1 0x0 PUSH1 0xE0 DUP9 DUP11 SUB SLT ISZERO PUSH2 0x3EB9 JUMPI PUSH2 0x3EB8 PUSH2 0x3094 JUMP JUMPDEST JUMPDEST PUSH1 0x0 DUP9 ADD CALLDATALOAD PUSH8 0xFFFFFFFFFFFFFFFF DUP2 GT ISZERO PUSH2 0x3ED7 JUMPI PUSH2 0x3ED6 PUSH2 0x3099 JUMP JUMPDEST JUMPDEST PUSH2 0x3EE3 DUP11 DUP3 DUP12 ADD PUSH2 0x321D JUMP JUMPDEST SWAP8 POP POP PUSH1 0x20 DUP9 ADD CALLDATALOAD PUSH8 0xFFFFFFFFFFFFFFFF DUP2 GT ISZERO PUSH2 0x3F04 JUMPI PUSH2 0x3F03 PUSH2 0x3099 JUMP JUMPDEST JUMPDEST PUSH2 0x3F10 DUP11 DUP3 DUP12 ADD PUSH2 0x3D7D JUMP JUMPDEST SWAP7 POP POP PUSH1 0x40 DUP9 ADD CALLDATALOAD PUSH8 0xFFFFFFFFFFFFFFFF DUP2 GT ISZERO PUSH2 0x3F31 JUMPI PUSH2 0x3F30 PUSH2 0x3099 JUMP JUMPDEST JUMPDEST PUSH2 0x3F3D DUP11 DUP3 DUP12 ADD PUSH2 0x3E6C JUMP JUMPDEST SWAP6 POP POP PUSH1 0x60 DUP9 ADD CALLDATALOAD PUSH8 0xFFFFFFFFFFFFFFFF DUP2 GT ISZERO PUSH2 0x3F5E JUMPI PUSH2 0x3F5D PUSH2 0x3099 JUMP JUMPDEST JUMPDEST PUSH2 0x3F6A DUP11 DUP3 DUP12 ADD PUSH2 0x32D2 JUMP JUMPDEST SWAP5 POP POP PUSH1 0x80 DUP9 ADD CALLDATALOAD PUSH8 0xFFFFFFFFFFFFFFFF DUP2 GT ISZERO PUSH2 0x3F8B JUMPI PUSH2 0x3F8A PUSH2 0x3099 JUMP JUMPDEST JUMPDEST PUSH2 0x3F97 DUP11 DUP3 DUP12 ADD PUSH2 0x321D JUMP JUMPDEST SWAP4 POP POP PUSH1 0xA0 PUSH2 0x3FA8 DUP11 DUP3 DUP12 ADD PUSH2 0x3DEE JUMP JUMPDEST SWAP3 POP POP PUSH1 0xC0 PUSH2 0x3FB9 DUP11 DUP3 DUP12 ADD PUSH2 0x3DEE JUMP JUMPDEST SWAP2 POP POP SWAP3 SWAP6 SWAP9 SWAP2 SWAP5 SWAP8 POP SWAP3 SWAP6 POP JUMP JUMPDEST PUSH1 0x0 DUP1 PUSH1 0x0 DUP1 PUSH1 0x0 DUP1 PUSH1 0xC0 DUP8 DUP10 SUB SLT ISZERO PUSH2 0x3FE5 JUMPI PUSH2 0x3FE4 PUSH2 0x3094 JUMP JUMPDEST JUMPDEST PUSH1 0x0 DUP8 ADD CALLDATALOAD PUSH8 0xFFFFFFFFFFFFFFFF DUP2 GT ISZERO PUSH2 0x4003 JUMPI PUSH2 0x4002 PUSH2 0x3099 JUMP JUMPDEST JUMPDEST PUSH2 0x400F DUP10 DUP3 DUP11 ADD PUSH2 0x321D JUMP JUMPDEST SWAP7 POP POP PUSH1 0x20 DUP8 ADD CALLDATALOAD PUSH8 0xFFFFFFFFFFFFFFFF DUP2 GT ISZERO PUSH2 0x4030 JUMPI PUSH2 0x402F PUSH2 0x3099 JUMP JUMPDEST JUMPDEST PUSH2 0x403C DUP10 DUP3 DUP11 ADD PUSH2 0x3D7D JUMP JUMPDEST SWAP6 POP POP PUSH1 0x40 DUP8 ADD CALLDATALOAD PUSH8 0xFFFFFFFFFFFFFFFF DUP2 GT ISZERO PUSH2 0x405D JUMPI PUSH2 0x405C PUSH2 0x3099 JUMP JUMPDEST JUMPDEST PUSH2 0x4069 DUP10 DUP3 DUP11 ADD PUSH2 0x3E6C JUMP JUMPDEST SWAP5 POP POP PUSH1 0x60 DUP8 ADD CALLDATALOAD PUSH8 0xFFFFFFFFFFFFFFFF DUP2 GT ISZERO PUSH2 0x408A JUMPI PUSH2 0x4089 PUSH2 0x3099 JUMP JUMPDEST JUMPDEST PUSH2 0x4096 DUP10 DUP3 DUP11 ADD PUSH2 0x32D2 JUMP JUMPDEST SWAP4 POP POP PUSH1 0x80 DUP8 ADD CALLDATALOAD PUSH8 0xFFFFFFFFFFFFFFFF DUP2 GT ISZERO PUSH2 0x40B7 JUMPI PUSH2 0x40B6 PUSH2 0x3099 JUMP JUMPDEST JUMPDEST PUSH2 0x40C3 DUP10 DUP3 DUP11 ADD PUSH2 0x321D JUMP JUMPDEST SWAP3 POP POP PUSH1 0xA0 PUSH2 0x40D4 DUP10 DUP3 DUP11 ADD PUSH2 0x3DEE JUMP JUMPDEST SWAP2 POP POP SWAP3 SWAP6 POP SWAP3 SWAP6 POP SWAP3 SWAP6 JUMP JUMPDEST PUSH1 0x0 DUP2 MLOAD SWAP1 POP SWAP2 SWAP1 POP JUMP JUMPDEST PUSH1 0x0 DUP3 DUP3 MSTORE PUSH1 0x20 DUP3 ADD SWAP1 POP SWAP3 SWAP2 POP POP JUMP JUMPDEST PUSH1 0x0 DUP2 SWAP1 POP PUSH1 0x20 DUP3 ADD SWAP1 POP SWAP2 SWAP1 POP JUMP JUMPDEST PUSH32 0x4E487B7100000000000000000000000000000000000000000000000000000000 PUSH1 0x0 MSTORE PUSH1 0x21 PUSH1 0x4 MSTORE PUSH1 0x24 PUSH1 0x0 REVERT JUMPDEST PUSH1 0x3 DUP2 LT PUSH2 0x414D JUMPI PUSH2 0x414C PUSH2 0x410D JUMP JUMPDEST JUMPDEST POP JUMP JUMPDEST PUSH1 0x0 DUP2 SWAP1 POP PUSH2 0x415E DUP3 PUSH2 0x413C JUMP JUMPDEST SWAP2 SWAP1 POP JUMP JUMPDEST PUSH1 0x0 PUSH2 0x416E DUP3 PUSH2 0x4150 JUMP JUMPDEST SWAP1 POP SWAP2 SWAP1 POP JUMP JUMPDEST PUSH2 0x417E DUP2 PUSH2 0x4163 JUMP JUMPDEST DUP3 MSTORE POP POP JUMP JUMPDEST PUSH1 0x0 PUSH2 0x4190 DUP4 DUP4 PUSH2 0x4175 JUMP JUMPDEST PUSH1 0x20 DUP4 ADD SWAP1 POP SWAP3 SWAP2 POP POP JUMP JUMPDEST PUSH1 0x0 PUSH1 0x20 DUP3 ADD SWAP1 POP SWAP2 SWAP1 POP JUMP JUMPDEST PUSH1 0x0 PUSH2 0x41B4 DUP3 PUSH2 0x40E1 JUMP JUMPDEST PUSH2 0x41BE DUP2 DUP6 PUSH2 0x40EC JUMP JUMPDEST SWAP4 POP PUSH2 0x41C9 DUP4 PUSH2 0x40FD JUMP JUMPDEST DUP1 PUSH1 0x0 JUMPDEST DUP4 DUP2 LT ISZERO PUSH2 0x41FA JUMPI DUP2 MLOAD PUSH2 0x41E1 DUP9 DUP3 PUSH2 0x4184 JUMP JUMPDEST SWAP8 POP PUSH2 0x41EC DUP4 PUSH2 0x419C JUMP JUMPDEST SWAP3 POP POP PUSH1 0x1 DUP2 ADD SWAP1 POP PUSH2 0x41CD JUMP JUMPDEST POP DUP6 SWAP4 POP POP POP POP SWAP3 SWAP2 POP POP JUMP JUMPDEST PUSH1 0x0 DUP2 MLOAD SWAP1 POP SWAP2 SWAP1 POP JUMP JUMPDEST PUSH1 0x0 DUP3 DUP3 MSTORE PUSH1 0x20 DUP3 ADD SWAP1 POP SWAP3 SWAP2 POP POP JUMP JUMPDEST PUSH1 0x0 DUP2 SWAP1 POP PUSH1 0x20 DUP3 ADD SWAP1 POP SWAP2 SWAP1 POP JUMP JUMPDEST PUSH1 0x0 DUP3 DUP3 MSTORE PUSH1 0x20 DUP3 ADD SWAP1 POP SWAP3 SWAP2 POP POP JUMP JUMPDEST PUSH1 0x0 PUSH2 0x424F DUP3 PUSH2 0x38A9 JUMP JUMPDEST PUSH2 0x4259 DUP2 DUP6 PUSH2 0x4233 JUMP JUMPDEST SWAP4 POP DUP4 PUSH1 0x20 DUP3 MUL DUP6 ADD PUSH2 0x426B DUP6 PUSH2 0x38C5 JUMP JUMPDEST DUP1 PUSH1 0x0 JUMPDEST DUP6 DUP2 LT ISZERO PUSH2 0x42A7 JUMPI DUP5 DUP5 SUB DUP10 MSTORE DUP2 MLOAD PUSH2 0x4288 DUP6 DUP3 PUSH2 0x391F JUMP JUMPDEST SWAP5 POP PUSH2 0x4293 DUP4 PUSH2 0x3933 JUMP JUMPDEST SWAP3 POP PUSH1 0x20 DUP11 ADD SWAP10 POP POP PUSH1 0x1 DUP2 ADD SWAP1 POP PUSH2 0x426F JUMP JUMPDEST POP DUP3 SWAP8 POP DUP8 SWAP6 POP POP POP POP POP POP SWAP3 SWAP2 POP POP JUMP JUMPDEST PUSH1 0x0 PUSH2 0x42C5 DUP4 DUP4 PUSH2 0x4244 JUMP JUMPDEST SWAP1 POP SWAP3 SWAP2 POP POP JUMP JUMPDEST PUSH1 0x0 PUSH1 0x20 DUP3 ADD SWAP1 POP SWAP2 SWAP1 POP JUMP JUMPDEST PUSH1 0x0 PUSH2 0x42E5 DUP3 PUSH2 0x4207 JUMP JUMPDEST PUSH2 0x42EF DUP2 DUP6 PUSH2 0x4212 JUMP JUMPDEST SWAP4 POP DUP4 PUSH1 0x20 DUP3 MUL DUP6 ADD PUSH2 0x4301 DUP6 PUSH2 0x4223 JUMP JUMPDEST DUP1 PUSH1 0x0 JUMPDEST DUP6 DUP2 LT ISZERO PUSH2 0x433D JUMPI DUP5 DUP5 SUB DUP10 MSTORE DUP2 MLOAD PUSH2 0x431E DUP6 DUP3 PUSH2 0x42B9 JUMP JUMPDEST SWAP5 POP PUSH2 0x4329 DUP4 PUSH2 0x42CD JUMP JUMPDEST SWAP3 POP PUSH1 0x20 DUP11 ADD SWAP10 POP POP PUSH1 0x1 DUP2 ADD SWAP1 POP PUSH2 0x4305 JUMP JUMPDEST POP DUP3 SWAP8 POP DUP8 SWAP6 POP POP POP POP POP POP SWAP3 SWAP2 POP POP JUMP JUMPDEST PUSH2 0x4358 DUP2 PUSH2 0x309E JUMP JUMPDEST DUP3 MSTORE POP POP JUMP JUMPDEST PUSH1 0x0 PUSH1 0x80 DUP3 ADD SWAP1 POP DUP2 DUP2 SUB PUSH1 0x0 DUP4 ADD MSTORE PUSH2 0x4378 DUP2 DUP8 PUSH2 0x3940 JUMP JUMPDEST SWAP1 POP DUP2 DUP2 SUB PUSH1 0x20 DUP4 ADD MSTORE PUSH2 0x438C DUP2 DUP7 PUSH2 0x41A9 JUMP JUMPDEST SWAP1 POP DUP2 DUP2 SUB PUSH1 0x40 DUP4 ADD MSTORE PUSH2 0x43A0 DUP2 DUP6 PUSH2 0x42DA JUMP JUMPDEST SWAP1 POP PUSH2 0x43AF PUSH1 0x60 DUP4 ADD DUP5 PUSH2 0x434F JUMP JUMPDEST SWAP6 SWAP5 POP POP POP POP POP JUMP JUMPDEST PUSH1 0x0 PUSH1 0x20 DUP3 DUP5 SUB SLT ISZERO PUSH2 0x43CE JUMPI PUSH2 0x43CD PUSH2 0x3094 JUMP JUMPDEST JUMPDEST PUSH1 0x0 PUSH2 0x43DC DUP5 DUP3 DUP6 ADD PUSH2 0x3DEE JUMP JUMPDEST SWAP2 POP POP SWAP3 SWAP2 POP POP JUMP JUMPDEST PUSH1 0x0 DUP2 SWAP1 POP SWAP2 SWAP1 POP JUMP JUMPDEST PUSH1 0x0 PUSH2 0x440A PUSH2 0x4405 PUSH2 0x4400 DUP5 PUSH2 0x3659 JUMP JUMPDEST PUSH2 0x43E5 JUMP JUMPDEST PUSH2 0x3659 JUMP JUMPDEST SWAP1 POP SWAP2 SWAP1 POP JUMP JUMPDEST PUSH1 0x0 PUSH2 0x441C DUP3 PUSH2 0x43EF JUMP JUMPDEST SWAP1 POP SWAP2 SWAP1 POP JUMP JUMPDEST PUSH1 0x0 PUSH2 0x442E DUP3 PUSH2 0x4411 JUMP JUMPDEST SWAP1 POP SWAP2 SWAP1 POP JUMP JUMPDEST PUSH2 0x443E DUP2 PUSH2 0x4423 JUMP JUMPDEST DUP3 MSTORE POP POP JUMP JUMPDEST PUSH1 0x0 PUSH1 0x20 DUP3 ADD SWAP1 POP PUSH2 0x4459 PUSH1 0x0 DUP4 ADD DUP5 PUSH2 0x4435 JUMP JUMPDEST SWAP3 SWAP2 POP POP JUMP JUMPDEST PUSH1 0x0 PUSH1 0x20 DUP3 ADD SWAP1 POP DUP2 DUP2 SUB PUSH1 0x0 DUP4 ADD MSTORE PUSH2 0x4479 DUP2 DUP5 PUSH2 0x3940 JUMP JUMPDEST SWAP1 POP SWAP3 SWAP2 POP POP JUMP JUMPDEST PUSH1 0x0 DUP1 REVERT JUMPDEST PUSH1 0x0 PUSH2 0x140 DUP3 DUP5 SUB SLT ISZERO PUSH2 0x449D JUMPI PUSH2 0x449C PUSH2 0x4481 JUMP JUMPDEST JUMPDEST DUP2 SWAP1 POP SWAP3 SWAP2 POP POP JUMP JUMPDEST PUSH1 0x0 PUSH1 0x20 DUP3 DUP5 SUB SLT ISZERO PUSH2 0x44BC JUMPI PUSH2 0x44BB PUSH2 0x3094 JUMP JUMPDEST JUMPDEST PUSH1 0x0 DUP3 ADD CALLDATALOAD PUSH8 0xFFFFFFFFFFFFFFFF DUP2 GT ISZERO PUSH2 0x44DA JUMPI PUSH2 0x44D9 PUSH2 0x3099 JUMP JUMPDEST JUMPDEST PUSH2 0x44E6 DUP5 DUP3 DUP6 ADD PUSH2 0x4486 JUMP JUMPDEST SWAP2 POP POP SWAP3 SWAP2 POP POP JUMP JUMPDEST PUSH32 0x4465726573793A2045415320536368656D612049442063616E2774206265206E PUSH1 0x0 DUP3 ADD MSTORE PUSH32 0x756C6C0000000000000000000000000000000000000000000000000000000000 PUSH1 0x20 DUP3 ADD MSTORE POP JUMP JUMPDEST PUSH1 0x0 PUSH2 0x454B PUSH1 0x23 DUP4 PUSH2 0x35C3 JUMP JUMPDEST SWAP2 POP PUSH2 0x4556 DUP3 PUSH2 0x44EF JUMP JUMPDEST PUSH1 0x40 DUP3 ADD SWAP1 POP SWAP2 SWAP1 POP JUMP JUMPDEST PUSH1 0x0 PUSH1 0x20 DUP3 ADD SWAP1 POP DUP2 DUP2 SUB PUSH1 0x0 DUP4 ADD MSTORE PUSH2 0x457A DUP2 PUSH2 0x453E JUMP JUMPDEST SWAP1 POP SWAP2 SWAP1 POP JUMP JUMPDEST PUSH32 0x4465726573793A205175657374696F6E732063616E2774206265206E756C6C00 PUSH1 0x0 DUP3 ADD MSTORE POP JUMP JUMPDEST PUSH1 0x0 PUSH2 0x45B7 PUSH1 0x1F DUP4 PUSH2 0x35C3 JUMP JUMPDEST SWAP2 POP PUSH2 0x45C2 DUP3 PUSH2 0x4581 JUMP JUMPDEST PUSH1 0x20 DUP3 ADD SWAP1 POP SWAP2 SWAP1 POP JUMP JUMPDEST PUSH1 0x0 PUSH1 0x20 DUP3 ADD SWAP1 POP DUP2 DUP2 SUB PUSH1 0x0 DUP4 ADD MSTORE PUSH2 0x45E6 DUP2 PUSH2 0x45AA JUMP JUMPDEST SWAP1 POP SWAP2 SWAP1 POP JUMP JUMPDEST PUSH32 0x4465726573793A205175657374696F6E2054797065732063616E277420626520 PUSH1 0x0 DUP3 ADD MSTORE PUSH32 0x6E756C6C00000000000000000000000000000000000000000000000000000000 PUSH1 0x20 DUP3 ADD MSTORE POP JUMP JUMPDEST PUSH1 0x0 PUSH2 0x4649 PUSH1 0x24 DUP4 PUSH2 0x35C3 JUMP JUMPDEST SWAP2 POP PUSH2 0x4654 DUP3 PUSH2 0x45ED JUMP JUMPDEST PUSH1 0x40 DUP3 ADD SWAP1 POP SWAP2 SWAP1 POP JUMP JUMPDEST PUSH1 0x0 PUSH1 0x20 DUP3 ADD SWAP1 POP DUP2 DUP2 SUB PUSH1 0x0 DUP4 ADD MSTORE PUSH2 0x4678 DUP2 PUSH2 0x463C JUMP JUMPDEST SWAP1 POP SWAP2 SWAP1 POP JUMP JUMPDEST PUSH32 0x4465726573793A205175657374696F6E7320616E64207479706573206D757374 PUSH1 0x0 DUP3 ADD MSTORE PUSH32 0x2068617665207468652073616D65206C656E6774680000000000000000000000 PUSH1 0x20 DUP3 ADD MSTORE POP JUMP JUMPDEST PUSH1 0x0 PUSH2 0x46DB PUSH1 0x35 DUP4 PUSH2 0x35C3 JUMP JUMPDEST SWAP2 POP PUSH2 0x46E6 DUP3 PUSH2 0x467F JUMP JUMPDEST PUSH1 0x40 DUP3 ADD SWAP1 POP SWAP2 SWAP1 POP JUMP JUMPDEST PUSH1 0x0 PUSH1 0x20 DUP3 ADD SWAP1 POP DUP2 DUP2 SUB PUSH1 0x0 DUP4 ADD MSTORE PUSH2 0x470A DUP2 PUSH2 0x46CE JUMP JUMPDEST SWAP1 POP SWAP2 SWAP1 POP JUMP JUMPDEST PUSH32 0x4465726573793A205175657374696F6E7320616E642063686F69636573206D75 PUSH1 0x0 DUP3 ADD MSTORE PUSH32 0x73742068617665207468652073616D65206C656E677468000000000000000000 PUSH1 0x20 DUP3 ADD MSTORE POP JUMP JUMPDEST PUSH1 0x0 PUSH2 0x476D PUSH1 0x37 DUP4 PUSH2 0x35C3 JUMP JUMPDEST SWAP2 POP PUSH2 0x4778 DUP3 PUSH2 0x4711 JUMP JUMPDEST PUSH1 0x40 DUP3 ADD SWAP1 POP SWAP2 SWAP1 POP JUMP JUMPDEST PUSH1 0x0 PUSH1 0x20 DUP3 ADD SWAP1 POP DUP2 DUP2 SUB PUSH1 0x0 DUP4 ADD MSTORE PUSH2 0x479C DUP2 PUSH2 0x4760 JUMP JUMPDEST SWAP1 POP SWAP2 SWAP1 POP JUMP JUMPDEST PUSH32 0x4E487B7100000000000000000000000000000000000000000000000000000000 PUSH1 0x0 MSTORE PUSH1 0x11 PUSH1 0x4 MSTORE PUSH1 0x24 PUSH1 0x0 REVERT JUMPDEST PUSH1 0x0 PUSH2 0x47DD DUP3 PUSH2 0x3584 JUMP JUMPDEST SWAP2 POP PUSH2 0x47E8 DUP4 PUSH2 0x3584 JUMP JUMPDEST SWAP3 POP DUP3 DUP3 ADD SWAP1 POP DUP1 DUP3 GT ISZERO PUSH2 0x4800 JUMPI PUSH2 0x47FF PUSH2 0x47A3 JUMP JUMPDEST JUMPDEST SWAP3 SWAP2 POP POP JUMP JUMPDEST PUSH1 0x0 PUSH2 0x4811 DUP3 PUSH2 0x3584 JUMP JUMPDEST SWAP2 POP PUSH2 0x481C DUP4 PUSH2 0x3584 JUMP JUMPDEST SWAP3 POP DUP3 DUP3 SUB SWAP1 POP DUP2 DUP2 GT ISZERO PUSH2 0x4834 JUMPI PUSH2 0x4833 PUSH2 0x47A3 JUMP JUMPDEST JUMPDEST SWAP3 SWAP2 POP POP JUMP JUMPDEST PUSH1 0x0 DUP2 SWAP1 POP SWAP3 SWAP2 POP POP JUMP JUMPDEST PUSH1 0x0 PUSH2 0x4850 DUP3 PUSH2 0x35B8 JUMP JUMPDEST PUSH2 0x485A DUP2 DUP6 PUSH2 0x483A JUMP JUMPDEST SWAP4 POP PUSH2 0x486A DUP2 DUP6 PUSH1 0x20 DUP7 ADD PUSH2 0x35D4 JUMP JUMPDEST DUP1 DUP5 ADD SWAP2 POP POP SWAP3 SWAP2 POP POP JUMP JUMPDEST PUSH32 0x2E00000000000000000000000000000000000000000000000000000000000000 PUSH1 0x0 DUP3 ADD MSTORE POP JUMP JUMPDEST PUSH1 0x0 PUSH2 0x48AC PUSH1 0x1 DUP4 PUSH2 0x483A JUMP JUMPDEST SWAP2 POP PUSH2 0x48B7 DUP3 PUSH2 0x4876 JUMP JUMPDEST PUSH1 0x1 DUP3 ADD SWAP1 POP SWAP2 SWAP1 POP JUMP JUMPDEST PUSH1 0x0 PUSH2 0x48CE DUP3 DUP7 PUSH2 0x4845 JUMP JUMPDEST SWAP2 POP PUSH2 0x48D9 DUP3 PUSH2 0x489F JUMP JUMPDEST SWAP2 POP PUSH2 0x48E5 DUP3 DUP6 PUSH2 0x4845 JUMP JUMPDEST SWAP2 POP PUSH2 0x48F0 DUP3 PUSH2 0x489F JUMP JUMPDEST SWAP2 POP PUSH2 0x48FC DUP3 DUP5 PUSH2 0x4845 JUMP JUMPDEST SWAP2 POP DUP2 SWAP1 POP SWAP5 SWAP4 POP POP POP POP JUMP JUMPDEST PUSH1 0x0 PUSH2 0x4915 DUP3 DUP5 PUSH2 0x4845 JUMP JUMPDEST SWAP2 POP DUP2 SWAP1 POP SWAP3 SWAP2 POP POP JUMP JUMPDEST PUSH32 0x4E487B7100000000000000000000000000000000000000000000000000000000 PUSH1 0x0 MSTORE PUSH1 0x22 PUSH1 0x4 MSTORE PUSH1 0x24 PUSH1 0x0 REVERT JUMPDEST PUSH1 0x0 PUSH1 0x2 DUP3 DIV SWAP1 POP PUSH1 0x1 DUP3 AND DUP1 PUSH2 0x4967 JUMPI PUSH1 0x7F DUP3 AND SWAP2 POP JUMPDEST PUSH1 0x20 DUP3 LT DUP2 SUB PUSH2 0x497A JUMPI PUSH2 0x4979 PUSH2 0x4920 JUMP JUMPDEST JUMPDEST POP SWAP2 SWAP1 POP JUMP JUMPDEST PUSH32 0x4E487B7100000000000000000000000000000000000000000000000000000000 PUSH1 0x0 MSTORE PUSH1 0x32 PUSH1 0x4 MSTORE PUSH1 0x24 PUSH1 0x0 REVERT JUMPDEST PUSH1 0x0 DUP1 REVERT JUMPDEST PUSH1 0x0 DUP1 REVERT JUMPDEST PUSH1 0x0 DUP1 REVERT JUMPDEST PUSH1 0x0 DUP3 CALLDATALOAD PUSH1 0x1 PUSH2 0x140 SUB DUP4 CALLDATASIZE SUB SUB DUP2 SLT PUSH2 0x49DB JUMPI PUSH2 0x49DA PUSH2 0x49AF JUMP JUMPDEST JUMPDEST DUP1 DUP4 ADD SWAP2 POP POP SWAP3 SWAP2 POP POP JUMP JUMPDEST PUSH32 0x4465726573793A204974206973206E6F74207468652073706F6E736F72000000 PUSH1 0x0 DUP3 ADD MSTORE POP JUMP JUMPDEST PUSH1 0x0 PUSH2 0x4A1D PUSH1 0x1D DUP4 PUSH2 0x35C3 JUMP JUMPDEST SWAP2 POP PUSH2 0x4A28 DUP3 PUSH2 0x49E7 JUMP JUMPDEST PUSH1 0x20 DUP3 ADD SWAP1 POP SWAP2 SWAP1 POP JUMP JUMPDEST PUSH1 0x0 PUSH1 0x20 DUP3 ADD SWAP1 POP DUP2 DUP2 SUB PUSH1 0x0 DUP4 ADD MSTORE PUSH2 0x4A4C DUP2 PUSH2 0x4A10 JUMP JUMPDEST SWAP1 POP SWAP2 SWAP1 POP JUMP JUMPDEST PUSH32 0x4465726573793A207265717565737420636C6F73656400000000000000000000 PUSH1 0x0 DUP3 ADD MSTORE POP JUMP JUMPDEST PUSH1 0x0 PUSH2 0x4A89 PUSH1 0x16 DUP4 PUSH2 0x35C3 JUMP JUMPDEST SWAP2 POP PUSH2 0x4A94 DUP3 PUSH2 0x4A53 JUMP JUMPDEST PUSH1 0x20 DUP3 ADD SWAP1 POP SWAP2 SWAP1 POP JUMP JUMPDEST PUSH1 0x0 PUSH1 0x20 DUP3 ADD SWAP1 POP DUP2 DUP2 SUB PUSH1 0x0 DUP4 ADD MSTORE PUSH2 0x4AB8 DUP2 PUSH2 0x4A7C JUMP JUMPDEST SWAP1 POP SWAP2 SWAP1 POP JUMP JUMPDEST PUSH32 0x4F776E61626C653A206E6577206F776E657220697320746865207A65726F2061 PUSH1 0x0 DUP3 ADD MSTORE PUSH32 0x6464726573730000000000000000000000000000000000000000000000000000 PUSH1 0x20 DUP3 ADD MSTORE POP JUMP JUMPDEST PUSH1 0x0 PUSH2 0x4B1B PUSH1 0x26 DUP4 PUSH2 0x35C3 JUMP JUMPDEST SWAP2 POP PUSH2 0x4B26 DUP3 PUSH2 0x4ABF JUMP JUMPDEST PUSH1 0x40 DUP3 ADD SWAP1 POP SWAP2 SWAP1 POP JUMP JUMPDEST PUSH1 0x0 PUSH1 0x20 DUP3 ADD SWAP1 POP DUP2 DUP2 SUB PUSH1 0x0 DUP4 ADD MSTORE PUSH2 0x4B4A DUP2 PUSH2 0x4B0E JUMP JUMPDEST SWAP1 POP SWAP2 SWAP1 POP JUMP JUMPDEST PUSH32 0x4E487B7100000000000000000000000000000000000000000000000000000000 PUSH1 0x0 MSTORE PUSH1 0x12 PUSH1 0x4 MSTORE PUSH1 0x24 PUSH1 0x0 REVERT JUMPDEST PUSH32 0x4F776E61626C653A2063616C6C6572206973206E6F7420746865206F776E6572 PUSH1 0x0 DUP3 ADD MSTORE POP JUMP JUMPDEST PUSH1 0x0 PUSH2 0x4BB6 PUSH1 0x20 DUP4 PUSH2 0x35C3 JUMP JUMPDEST SWAP2 POP PUSH2 0x4BC1 DUP3 PUSH2 0x4B80 JUMP JUMPDEST PUSH1 0x20 DUP3 ADD SWAP1 POP SWAP2 SWAP1 POP JUMP JUMPDEST PUSH1 0x0 PUSH1 0x20 DUP3 ADD SWAP1 POP DUP2 DUP2 SUB PUSH1 0x0 DUP4 ADD MSTORE PUSH2 0x4BE5 DUP2 PUSH2 0x4BA9 JUMP JUMPDEST SWAP1 POP SWAP2 SWAP1 POP JUMP JUMPDEST PUSH1 0x0 DUP1 DUP4 CALLDATALOAD PUSH1 0x1 PUSH1 0x20 SUB DUP5 CALLDATASIZE SUB SUB DUP2 SLT PUSH2 0x4C09 JUMPI PUSH2 0x4C08 PUSH2 0x49AF JUMP JUMPDEST JUMPDEST DUP1 DUP5 ADD SWAP3 POP DUP3 CALLDATALOAD SWAP2 POP PUSH8 0xFFFFFFFFFFFFFFFF DUP3 GT ISZERO PUSH2 0x4C2B JUMPI PUSH2 0x4C2A PUSH2 0x49B4 JUMP JUMPDEST JUMPDEST PUSH1 0x20 DUP4 ADD SWAP3 POP PUSH1 0x1 DUP3 MUL CALLDATASIZE SUB DUP4 SGT ISZERO PUSH2 0x4C47 JUMPI PUSH2 0x4C46 PUSH2 0x49B9 JUMP JUMPDEST JUMPDEST POP SWAP3 POP SWAP3 SWAP1 POP JUMP JUMPDEST PUSH1 0x0 DUP1 PUSH1 0x0 DUP1 PUSH1 0x80 DUP6 DUP8 SUB SLT ISZERO PUSH2 0x4C69 JUMPI PUSH2 0x4C68 PUSH2 0x3094 JUMP JUMPDEST JUMPDEST PUSH1 0x0 DUP6 ADD CALLDATALOAD PUSH8 0xFFFFFFFFFFFFFFFF DUP2 GT ISZERO PUSH2 0x4C87 JUMPI PUSH2 0x4C86 PUSH2 0x3099 JUMP JUMPDEST JUMPDEST PUSH2 0x4C93 DUP8 DUP3 DUP9 ADD PUSH2 0x321D JUMP JUMPDEST SWAP5 POP POP PUSH1 0x20 PUSH2 0x4CA4 DUP8 DUP3 DUP9 ADD PUSH2 0x3DEE JUMP JUMPDEST SWAP4 POP POP PUSH1 0x40 DUP6 ADD CALLDATALOAD PUSH8 0xFFFFFFFFFFFFFFFF DUP2 GT ISZERO PUSH2 0x4CC5 JUMPI PUSH2 0x4CC4 PUSH2 0x3099 JUMP JUMPDEST JUMPDEST PUSH2 0x4CD1 DUP8 DUP3 DUP9 ADD PUSH2 0x32D2 JUMP JUMPDEST SWAP3 POP POP PUSH1 0x60 DUP6 ADD CALLDATALOAD PUSH8 0xFFFFFFFFFFFFFFFF DUP2 GT ISZERO PUSH2 0x4CF2 JUMPI PUSH2 0x4CF1 PUSH2 0x3099 JUMP JUMPDEST JUMPDEST PUSH2 0x4CFE DUP8 DUP3 DUP9 ADD PUSH2 0x321D JUMP JUMPDEST SWAP2 POP POP SWAP3 SWAP6 SWAP2 SWAP5 POP SWAP3 POP JUMP JUMPDEST PUSH1 0x0 PUSH2 0x4D19 PUSH1 0x20 DUP5 ADD DUP5 PUSH2 0x30BF JUMP JUMPDEST SWAP1 POP SWAP3 SWAP2 POP POP JUMP JUMPDEST PUSH1 0x0 PUSH8 0xFFFFFFFFFFFFFFFF DUP3 AND SWAP1 POP SWAP2 SWAP1 POP JUMP JUMPDEST PUSH2 0x4D3E DUP2 PUSH2 0x4D21 JUMP JUMPDEST DUP2 EQ PUSH2 0x4D49 JUMPI PUSH1 0x0 DUP1 REVERT JUMPDEST POP JUMP JUMPDEST PUSH1 0x0 DUP2 CALLDATALOAD SWAP1 POP PUSH2 0x4D5B DUP2 PUSH2 0x4D35 JUMP JUMPDEST SWAP3 SWAP2 POP POP JUMP JUMPDEST PUSH1 0x0 PUSH2 0x4D70 PUSH1 0x20 DUP5 ADD DUP5 PUSH2 0x4D4C JUMP JUMPDEST SWAP1 POP SWAP3 SWAP2 POP POP JUMP JUMPDEST PUSH2 0x4D81 DUP2 PUSH2 0x4D21 JUMP JUMPDEST DUP3 MSTORE POP POP JUMP JUMPDEST PUSH1 0x0 PUSH2 0x4D96 PUSH1 0x20 DUP5 ADD DUP5 PUSH2 0x36A2 JUMP JUMPDEST SWAP1 POP SWAP3 SWAP2 POP POP JUMP JUMPDEST PUSH2 0x4DA7 DUP2 PUSH2 0x3AB5 JUMP JUMPDEST DUP2 EQ PUSH2 0x4DB2 JUMPI PUSH1 0x0 DUP1 REVERT JUMPDEST POP JUMP JUMPDEST PUSH1 0x0 DUP2 CALLDATALOAD SWAP1 POP PUSH2 0x4DC4 DUP2 PUSH2 0x4D9E JUMP JUMPDEST SWAP3 SWAP2 POP POP JUMP JUMPDEST PUSH1 0x0 PUSH2 0x4DD9 PUSH1 0x20 DUP5 ADD DUP5 PUSH2 0x4DB5 JUMP JUMPDEST SWAP1 POP SWAP3 SWAP2 POP POP JUMP JUMPDEST PUSH2 0x4DEA DUP2 PUSH2 0x3AB5 JUMP JUMPDEST DUP3 MSTORE POP POP JUMP JUMPDEST PUSH1 0x0 DUP1 REVERT JUMPDEST PUSH1 0x0 DUP1 REVERT JUMPDEST PUSH1 0x0 DUP1 REVERT JUMPDEST PUSH1 0x0 DUP1 DUP4 CALLDATALOAD PUSH1 0x1 PUSH1 0x20 SUB DUP5 CALLDATASIZE SUB SUB DUP2 SLT PUSH2 0x4E1C JUMPI PUSH2 0x4E1B PUSH2 0x4DFA JUMP JUMPDEST JUMPDEST DUP4 DUP2 ADD SWAP3 POP DUP3 CALLDATALOAD SWAP2 POP PUSH1 0x20 DUP4 ADD SWAP3 POP PUSH8 0xFFFFFFFFFFFFFFFF DUP3 GT ISZERO PUSH2 0x4E44 JUMPI PUSH2 0x4E43 PUSH2 0x4DF0 JUMP JUMPDEST JUMPDEST PUSH1 0x1 DUP3 MUL CALLDATASIZE SUB DUP4 SGT ISZERO PUSH2 0x4E5A JUMPI PUSH2 0x4E59 PUSH2 0x4DF5 JUMP JUMPDEST JUMPDEST POP SWAP3 POP SWAP3 SWAP1 POP JUMP JUMPDEST PUSH1 0x0 DUP3 DUP3 MSTORE PUSH1 0x20 DUP3 ADD SWAP1 POP SWAP3 SWAP2 POP POP JUMP JUMPDEST PUSH1 0x0 PUSH2 0x4E7F DUP4 DUP6 PUSH2 0x4E62 JUMP JUMPDEST SWAP4 POP PUSH2 0x4E8C DUP4 DUP6 DUP5 PUSH2 0x31CC JUMP JUMPDEST PUSH2 0x4E95 DUP4 PUSH2 0x30D9 JUMP JUMPDEST DUP5 ADD SWAP1 POP SWAP4 SWAP3 POP POP POP JUMP JUMPDEST PUSH1 0x0 PUSH2 0x140 DUP4 ADD PUSH2 0x4EB4 PUSH1 0x0 DUP5 ADD DUP5 PUSH2 0x4D0A JUMP JUMPDEST PUSH2 0x4EC1 PUSH1 0x0 DUP7 ADD DUP3 PUSH2 0x39E1 JUMP JUMPDEST POP PUSH2 0x4ECF PUSH1 0x20 DUP5 ADD DUP5 PUSH2 0x4D0A JUMP JUMPDEST PUSH2 0x4EDC PUSH1 0x20 DUP7 ADD DUP3 PUSH2 0x39E1 JUMP JUMPDEST POP PUSH2 0x4EEA PUSH1 0x40 DUP5 ADD DUP5 PUSH2 0x4D61 JUMP JUMPDEST PUSH2 0x4EF7 PUSH1 0x40 DUP7 ADD DUP3 PUSH2 0x4D78 JUMP JUMPDEST POP PUSH2 0x4F05 PUSH1 0x60 DUP5 ADD DUP5 PUSH2 0x4D61 JUMP JUMPDEST PUSH2 0x4F12 PUSH1 0x60 DUP7 ADD DUP3 PUSH2 0x4D78 JUMP JUMPDEST POP PUSH2 0x4F20 PUSH1 0x80 DUP5 ADD DUP5 PUSH2 0x4D61 JUMP JUMPDEST PUSH2 0x4F2D PUSH1 0x80 DUP7 ADD DUP3 PUSH2 0x4D78 JUMP JUMPDEST POP PUSH2 0x4F3B PUSH1 0xA0 DUP5 ADD DUP5 PUSH2 0x4D0A JUMP JUMPDEST PUSH2 0x4F48 PUSH1 0xA0 DUP7 ADD DUP3 PUSH2 0x39E1 JUMP JUMPDEST POP PUSH2 0x4F56 PUSH1 0xC0 DUP5 ADD DUP5 PUSH2 0x4D87 JUMP JUMPDEST PUSH2 0x4F63 PUSH1 0xC0 DUP7 ADD DUP3 PUSH2 0x3759 JUMP JUMPDEST POP PUSH2 0x4F71 PUSH1 0xE0 DUP5 ADD DUP5 PUSH2 0x4D87 JUMP JUMPDEST PUSH2 0x4F7E PUSH1 0xE0 DUP7 ADD DUP3 PUSH2 0x3759 JUMP JUMPDEST POP PUSH2 0x4F8D PUSH2 0x100 DUP5 ADD DUP5 PUSH2 0x4DCA JUMP JUMPDEST PUSH2 0x4F9B PUSH2 0x100 DUP7 ADD DUP3 PUSH2 0x4DE1 JUMP JUMPDEST POP PUSH2 0x4FAA PUSH2 0x120 DUP5 ADD DUP5 PUSH2 0x4DFF JUMP JUMPDEST DUP6 DUP4 SUB PUSH2 0x120 DUP8 ADD MSTORE PUSH2 0x4FBE DUP4 DUP3 DUP5 PUSH2 0x4E73 JUMP JUMPDEST SWAP3 POP POP POP DUP1 SWAP2 POP POP SWAP3 SWAP2 POP POP JUMP JUMPDEST PUSH1 0x0 PUSH1 0x40 DUP3 ADD SWAP1 POP DUP2 DUP2 SUB PUSH1 0x0 DUP4 ADD MSTORE PUSH2 0x4FE6 DUP2 DUP6 PUSH2 0x4EA0 JUMP JUMPDEST SWAP1 POP DUP2 DUP2 SUB PUSH1 0x20 DUP4 ADD MSTORE PUSH2 0x4FFA DUP2 DUP5 PUSH2 0x35FE JUMP JUMPDEST SWAP1 POP SWAP4 SWAP3 POP POP POP JUMP JUMPDEST PUSH1 0x0 DUP2 MLOAD SWAP1 POP PUSH2 0x5012 DUP2 PUSH2 0x4D9E JUMP JUMPDEST SWAP3 SWAP2 POP POP JUMP JUMPDEST PUSH1 0x0 PUSH1 0x20 DUP3 DUP5 SUB SLT ISZERO PUSH2 0x502E JUMPI PUSH2 0x502D PUSH2 0x3094 JUMP JUMPDEST JUMPDEST PUSH1 0x0 PUSH2 0x503C DUP5 DUP3 DUP6 ADD PUSH2 0x5003 JUMP JUMPDEST SWAP2 POP POP SWAP3 SWAP2 POP POP JUMP JUMPDEST PUSH32 0x4465726573793A205265766965776572732063616E6E6F74206265206E756C6C PUSH1 0x0 DUP3 ADD MSTORE POP JUMP JUMPDEST PUSH1 0x0 PUSH2 0x507B PUSH1 0x20 DUP4 PUSH2 0x35C3 JUMP JUMPDEST SWAP2 POP PUSH2 0x5086 DUP3 PUSH2 0x5045 JUMP JUMPDEST PUSH1 0x20 DUP3 ADD SWAP1 POP SWAP2 SWAP1 POP JUMP JUMPDEST PUSH1 0x0 PUSH1 0x20 DUP3 ADD SWAP1 POP DUP2 DUP2 SUB PUSH1 0x0 DUP4 ADD MSTORE PUSH2 0x50AA DUP2 PUSH2 0x506E JUMP JUMPDEST SWAP1 POP SWAP2 SWAP1 POP JUMP JUMPDEST PUSH32 0x4465726573793A20487970657263657274204944732063616E6E6F7420626520 PUSH1 0x0 DUP3 ADD MSTORE PUSH32 0x6E756C6C00000000000000000000000000000000000000000000000000000000 PUSH1 0x20 DUP3 ADD MSTORE POP JUMP JUMPDEST PUSH1 0x0 PUSH2 0x510D PUSH1 0x24 DUP4 PUSH2 0x35C3 JUMP JUMPDEST SWAP2 POP PUSH2 0x5118 DUP3 PUSH2 0x50B1 JUMP JUMPDEST PUSH1 0x40 DUP3 ADD SWAP1 POP SWAP2 SWAP1 POP JUMP JUMPDEST PUSH1 0x0 PUSH1 0x20 DUP3 ADD SWAP1 POP DUP2 DUP2 SUB PUSH1 0x0 DUP4 ADD MSTORE PUSH2 0x513C DUP2 PUSH2 0x5100 JUMP JUMPDEST SWAP1 POP SWAP2 SWAP1 POP JUMP JUMPDEST PUSH32 0x4465726573793A20487970657263657274732049504653206861736865732063 PUSH1 0x0 DUP3 ADD MSTORE PUSH32 0x616E6E6F74206265206E756C6C00000000000000000000000000000000000000 PUSH1 0x20 DUP3 ADD MSTORE POP JUMP JUMPDEST PUSH1 0x0 PUSH2 0x519F PUSH1 0x2D DUP4 PUSH2 0x35C3 JUMP JUMPDEST SWAP2 POP PUSH2 0x51AA DUP3 PUSH2 0x5143 JUMP JUMPDEST PUSH1 0x40 DUP3 ADD SWAP1 POP SWAP2 SWAP1 POP JUMP JUMPDEST PUSH1 0x0 PUSH1 0x20 DUP3 ADD SWAP1 POP DUP2 DUP2 SUB PUSH1 0x0 DUP4 ADD MSTORE PUSH2 0x51CE DUP2 PUSH2 0x5192 JUMP JUMPDEST SWAP1 POP SWAP2 SWAP1 POP JUMP JUMPDEST PUSH32 0x4465726573793A2048797065726365727449447320616E642048797065726365 PUSH1 0x0 DUP3 ADD MSTORE PUSH32 0x727449504653486173686573206172726179206D757374206861766520746865 PUSH1 0x20 DUP3 ADD MSTORE PUSH32 0x2073616D65206C656E6774680000000000000000000000000000000000000000 PUSH1 0x40 DUP3 ADD MSTORE POP JUMP JUMPDEST PUSH1 0x0 PUSH2 0x5257 PUSH1 0x4C DUP4 PUSH2 0x35C3 JUMP JUMPDEST SWAP2 POP PUSH2 0x5262 DUP3 PUSH2 0x51D5 JUMP JUMPDEST PUSH1 0x60 DUP3 ADD SWAP1 POP SWAP2 SWAP1 POP JUMP JUMPDEST PUSH1 0x0 PUSH1 0x20 DUP3 ADD SWAP1 POP DUP2 DUP2 SUB PUSH1 0x0 DUP4 ADD MSTORE PUSH2 0x5286 DUP2 PUSH2 0x524A JUMP JUMPDEST SWAP1 POP SWAP2 SWAP1 POP JUMP JUMPDEST PUSH32 0x4465726573793A20526576696577466F726D496E64657820696E76616C696400 PUSH1 0x0 DUP3 ADD MSTORE POP JUMP JUMPDEST PUSH1 0x0 PUSH2 0x52C3 PUSH1 0x1F DUP4 PUSH2 0x35C3 JUMP JUMPDEST SWAP2 POP PUSH2 0x52CE DUP3 PUSH2 0x528D JUMP JUMPDEST PUSH1 0x20 DUP3 ADD SWAP1 POP SWAP2 SWAP1 POP JUMP JUMPDEST PUSH1 0x0 PUSH1 0x20 DUP3 ADD SWAP1 POP DUP2 DUP2 SUB PUSH1 0x0 DUP4 ADD MSTORE PUSH2 0x52F2 DUP2 PUSH2 0x52B6 JUMP JUMPDEST SWAP1 POP SWAP2 SWAP1 POP JUMP JUMPDEST PUSH32 0x4465726573793A204E616D65206475706C696361746564000000000000000000 PUSH1 0x0 DUP3 ADD MSTORE POP JUMP JUMPDEST PUSH1 0x0 PUSH2 0x532F PUSH1 0x17 DUP4 PUSH2 0x35C3 JUMP JUMPDEST SWAP2 POP PUSH2 0x533A DUP3 PUSH2 0x52F9 JUMP JUMPDEST PUSH1 0x20 DUP3 ADD SWAP1 POP SWAP2 SWAP1 POP JUMP JUMPDEST PUSH1 0x0 PUSH1 0x20 DUP3 ADD SWAP1 POP DUP2 DUP2 SUB PUSH1 0x0 DUP4 ADD MSTORE PUSH2 0x535E DUP2 PUSH2 0x5322 JUMP JUMPDEST SWAP1 POP SWAP2 SWAP1 POP JUMP JUMPDEST PUSH32 0x4465726573793A20726577617264506572526576696577206D75737420626520 PUSH1 0x0 DUP3 ADD MSTORE PUSH32 0x67726561746572207468616E207A65726F20666F722070617961626C65207265 PUSH1 0x20 DUP3 ADD MSTORE PUSH32 0x7175657374000000000000000000000000000000000000000000000000000000 PUSH1 0x40 DUP3 ADD MSTORE POP JUMP JUMPDEST PUSH1 0x0 PUSH2 0x53E7 PUSH1 0x45 DUP4 PUSH2 0x35C3 JUMP JUMPDEST SWAP2 POP PUSH2 0x53F2 DUP3 PUSH2 0x5365 JUMP JUMPDEST PUSH1 0x60 DUP3 ADD SWAP1 POP SWAP2 SWAP1 POP JUMP JUMPDEST PUSH1 0x0 PUSH1 0x20 DUP3 ADD SWAP1 POP DUP2 DUP2 SUB PUSH1 0x0 DUP4 ADD MSTORE PUSH2 0x5416 DUP2 PUSH2 0x53DA JUMP JUMPDEST SWAP1 POP SWAP2 SWAP1 POP JUMP JUMPDEST PUSH1 0x0 PUSH2 0x5428 DUP3 PUSH2 0x3584 JUMP JUMPDEST SWAP2 POP PUSH2 0x5433 DUP4 PUSH2 0x3584 JUMP JUMPDEST SWAP3 POP DUP3 DUP3 MUL PUSH2 0x5441 DUP2 PUSH2 0x3584 JUMP JUMPDEST SWAP2 POP DUP3 DUP3 DIV DUP5 EQ DUP4 ISZERO OR PUSH2 0x5458 JUMPI PUSH2 0x5457 PUSH2 0x47A3 JUMP JUMPDEST JUMPDEST POP SWAP3 SWAP2 POP POP JUMP JUMPDEST PUSH32 0x4465726573793A206D73672E76616C756520696E76616C696400000000000000 PUSH1 0x0 DUP3 ADD MSTORE POP JUMP JUMPDEST PUSH1 0x0 PUSH2 0x5495 PUSH1 0x19 DUP4 PUSH2 0x35C3 JUMP JUMPDEST SWAP2 POP PUSH2 0x54A0 DUP3 PUSH2 0x545F JUMP JUMPDEST PUSH1 0x20 DUP3 ADD SWAP1 POP SWAP2 SWAP1 POP JUMP JUMPDEST PUSH1 0x0 PUSH1 0x20 DUP3 ADD SWAP1 POP DUP2 DUP2 SUB PUSH1 0x0 DUP4 ADD MSTORE PUSH2 0x54C4 DUP2 PUSH2 0x5488 JUMP JUMPDEST SWAP1 POP SWAP2 SWAP1 POP JUMP JUMPDEST PUSH32 0x4465726573793A20726577617264506572526576696577206D75737420626520 PUSH1 0x0 DUP3 ADD MSTORE PUSH32 0x7A65726F20666F72206E6F6E2D70617961626C65207265717565737400000000 PUSH1 0x20 DUP3 ADD MSTORE POP JUMP JUMPDEST PUSH1 0x0 PUSH2 0x5527 PUSH1 0x3C DUP4 PUSH2 0x35C3 JUMP JUMPDEST SWAP2 POP PUSH2 0x5532 DUP3 PUSH2 0x54CB JUMP JUMPDEST PUSH1 0x40 DUP3 ADD SWAP1 POP SWAP2 SWAP1 POP JUMP JUMPDEST PUSH1 0x0 PUSH1 0x20 DUP3 ADD SWAP1 POP DUP2 DUP2 SUB PUSH1 0x0 DUP4 ADD MSTORE PUSH2 0x5556 DUP2 PUSH2 0x551A JUMP JUMPDEST SWAP1 POP SWAP2 SWAP1 POP JUMP JUMPDEST PUSH1 0x0 DUP2 SWAP1 POP DUP2 PUSH1 0x0 MSTORE PUSH1 0x20 PUSH1 0x0 KECCAK256 SWAP1 POP SWAP2 SWAP1 POP JUMP JUMPDEST PUSH1 0x0 PUSH1 0x20 PUSH1 0x1F DUP4 ADD DIV SWAP1 POP SWAP2 SWAP1 POP JUMP JUMPDEST PUSH1 0x0 DUP3 DUP3 SHL SWAP1 POP SWAP3 SWAP2 POP POP JUMP JUMPDEST PUSH1 0x0 PUSH1 0x8 DUP4 MUL PUSH2 0x55BF PUSH32 0xFFFFFFFFFFFFFFFFFFFFFFFFFFFFFFFFFFFFFFFFFFFFFFFFFFFFFFFFFFFFFFFF DUP3 PUSH2 0x5582 JUMP JUMPDEST PUSH2 0x55C9 DUP7 DUP4 PUSH2 0x5582 JUMP JUMPDEST SWAP6 POP DUP1 NOT DUP5 AND SWAP4 POP DUP1 DUP7 AND DUP5 OR SWAP3 POP POP POP SWAP4 SWAP3 POP POP POP JUMP JUMPDEST PUSH1 0x0 PUSH2 0x55FC PUSH2 0x55F7 PUSH2 0x55F2 DUP5 PUSH2 0x3584 JUMP JUMPDEST PUSH2 0x43E5 JUMP JUMPDEST PUSH2 0x3584 JUMP JUMPDEST SWAP1 POP SWAP2 SWAP1 POP JUMP JUMPDEST PUSH1 0x0 DUP2 SWAP1 POP SWAP2 SWAP1 POP JUMP JUMPDEST PUSH2 0x5616 DUP4 PUSH2 0x55E1 JUMP JUMPDEST PUSH2 0x562A PUSH2 0x5622 DUP3 PUSH2 0x5603 JUMP JUMPDEST DUP5 DUP5 SLOAD PUSH2 0x558F JUMP JUMPDEST DUP3 SSTORE POP POP POP POP JUMP JUMPDEST PUSH1 0x0 SWAP1 JUMP JUMPDEST PUSH2 0x563F PUSH2 0x5632 JUMP JUMPDEST PUSH2 0x564A DUP2 DUP5 DUP5 PUSH2 0x560D JUMP JUMPDEST POP POP POP JUMP JUMPDEST JUMPDEST DUP2 DUP2 LT ISZERO PUSH2 0x566E JUMPI PUSH2 0x5663 PUSH1 0x0 DUP3 PUSH2 0x5637 JUMP JUMPDEST PUSH1 0x1 DUP2 ADD SWAP1 POP PUSH2 0x5650 JUMP JUMPDEST POP POP JUMP JUMPDEST PUSH1 0x1F DUP3 GT ISZERO PUSH2 0x56B3 JUMPI PUSH2 0x5684 DUP2 PUSH2 0x555D JUMP JUMPDEST PUSH2 0x568D DUP5 PUSH2 0x5572 JUMP JUMPDEST DUP2 ADD PUSH1 0x20 DUP6 LT ISZERO PUSH2 0x569C JUMPI DUP2 SWAP1 POP JUMPDEST PUSH2 0x56B0 PUSH2 0x56A8 DUP6 PUSH2 0x5572 JUMP JUMPDEST DUP4 ADD DUP3 PUSH2 0x564F JUMP JUMPDEST POP POP JUMPDEST POP POP POP JUMP JUMPDEST PUSH1 0x0 DUP3 DUP3 SHR SWAP1 POP SWAP3 SWAP2 POP POP JUMP JUMPDEST PUSH1 0x0 PUSH2 0x56D6 PUSH1 0x0 NOT DUP5 PUSH1 0x8 MUL PUSH2 0x56B8 JUMP JUMPDEST NOT DUP1 DUP4 AND SWAP2 POP POP SWAP3 SWAP2 POP POP JUMP JUMPDEST PUSH1 0x0 PUSH2 0x56EF DUP4 DUP4 PUSH2 0x56C5 JUMP JUMPDEST SWAP2 POP DUP3 PUSH1 0x2 MUL DUP3 OR SWAP1 POP SWAP3 SWAP2 POP POP JUMP JUMPDEST PUSH2 0x5708 DUP3 PUSH2 0x35B8 JUMP JUMPDEST PUSH8 0xFFFFFFFFFFFFFFFF DUP2 GT ISZERO PUSH2 0x5721 JUMPI PUSH2 0x5720 PUSH2 0x30EA JUMP JUMPDEST JUMPDEST PUSH2 0x572B DUP3 SLOAD PUSH2 0x494F JUMP JUMPDEST PUSH2 0x5736 DUP3 DUP3 DUP6 PUSH2 0x5672 JUMP JUMPDEST PUSH1 0x0 PUSH1 0x20 SWAP1 POP PUSH1 0x1F DUP4 GT PUSH1 0x1 DUP2 EQ PUSH2 0x5769 JUMPI PUSH1 0x0 DUP5 ISZERO PUSH2 0x5757 JUMPI DUP3 DUP8 ADD MLOAD SWAP1 POP JUMPDEST PUSH2 0x5761 DUP6 DUP3 PUSH2 0x56E3 JUMP JUMPDEST DUP7 SSTORE POP PUSH2 0x57C9 JUMP JUMPDEST PUSH1 0x1F NOT DUP5 AND PUSH2 0x5777 DUP7 PUSH2 0x555D JUMP JUMPDEST PUSH1 0x0 JUMPDEST DUP3 DUP2 LT ISZERO PUSH2 0x579F JUMPI DUP5 DUP10 ADD MLOAD DUP3 SSTORE PUSH1 0x1 DUP3 ADD SWAP2 POP PUSH1 0x20 DUP6 ADD SWAP5 POP PUSH1 0x20 DUP2 ADD SWAP1 POP PUSH2 0x577A JUMP JUMPDEST DUP7 DUP4 LT ISZERO PUSH2 0x57BC JUMPI DUP5 DUP10 ADD MLOAD PUSH2 0x57B8 PUSH1 0x1F DUP10 AND DUP3 PUSH2 0x56C5 JUMP JUMPDEST DUP4 SSTORE POP JUMPDEST PUSH1 0x1 PUSH1 0x2 DUP9 MUL ADD DUP9 SSTORE POP POP POP JUMPDEST POP POP POP POP POP POP JUMP JUMPDEST PUSH1 0x0 PUSH2 0x57DC DUP3 PUSH2 0x3584 JUMP JUMPDEST SWAP2 POP PUSH32 0xFFFFFFFFFFFFFFFFFFFFFFFFFFFFFFFFFFFFFFFFFFFFFFFFFFFFFFFFFFFFFFFF DUP3 SUB PUSH2 0x580E JUMPI PUSH2 0x580D PUSH2 0x47A3 JUMP JUMPDEST JUMPDEST PUSH1 0x1 DUP3 ADD SWAP1 POP SWAP2 SWAP1 POP JUMP JUMPDEST PUSH1 0x0 DUP2 SLOAD PUSH2 0x5826 DUP2 PUSH2 0x494F JUMP JUMPDEST PUSH2 0x5830 DUP2 DUP7 PUSH2 0x483A JUMP JUMPDEST SWAP5 POP PUSH1 0x1 DUP3 AND PUSH1 0x0 DUP2 EQ PUSH2 0x584B JUMPI PUSH1 0x1 DUP2 EQ PUSH2 0x5860 JUMPI PUSH2 0x5893 JUMP JUMPDEST PUSH1 0xFF NOT DUP4 AND DUP7 MSTORE DUP2 ISZERO ISZERO DUP3 MUL DUP7 ADD SWAP4 POP PUSH2 0x5893 JUMP JUMPDEST PUSH2 0x5869 DUP6 PUSH2 0x555D JUMP JUMPDEST PUSH1 0x0 JUMPDEST DUP4 DUP2 LT ISZERO PUSH2 0x588B JUMPI DUP2 SLOAD DUP2 DUP10 ADD MSTORE PUSH1 0x1 DUP3 ADD SWAP2 POP PUSH1 0x20 DUP2 ADD SWAP1 POP PUSH2 0x586C JUMP JUMPDEST DUP4 DUP9 ADD SWAP6 POP POP POP JUMPDEST POP POP POP SWAP3 SWAP2 POP POP JUMP JUMPDEST PUSH1 0x0 PUSH2 0x58A8 DUP3 DUP5 PUSH2 0x5819 JUMP JUMPDEST SWAP2 POP DUP2 SWAP1 POP SWAP3 SWAP2 POP POP JUMP JUMPDEST PUSH32 0x5965730000000000000000000000000000000000000000000000000000000000 PUSH1 0x0 DUP3 ADD MSTORE POP JUMP JUMPDEST PUSH1 0x0 PUSH2 0x58E9 PUSH1 0x3 DUP4 PUSH2 0x483A JUMP JUMPDEST SWAP2 POP PUSH2 0x58F4 DUP3 PUSH2 0x58B3 JUMP JUMPDEST PUSH1 0x3 DUP3 ADD SWAP1 POP SWAP2 SWAP1 POP JUMP JUMPDEST PUSH1 0x0 PUSH2 0x590A DUP3 PUSH2 0x58DC JUMP JUMPDEST SWAP2 POP DUP2 SWAP1 POP SWAP2 SWAP1 POP JUMP JUMPDEST PUSH32 0x4E6F000000000000000000000000000000000000000000000000000000000000 PUSH1 0x0 DUP3 ADD MSTORE POP JUMP JUMPDEST PUSH1 0x0 PUSH2 0x594A PUSH1 0x2 DUP4 PUSH2 0x483A JUMP JUMPDEST SWAP2 POP PUSH2 0x5955 DUP3 PUSH2 0x5914 JUMP JUMPDEST PUSH1 0x2 DUP3 ADD SWAP1 POP SWAP2 SWAP1 POP JUMP JUMPDEST PUSH1 0x0 PUSH2 0x596B DUP3 PUSH2 0x593D JUMP JUMPDEST SWAP2 POP DUP2 SWAP1 POP SWAP2 SWAP1 POP JUMP INVALID LOG2 PUSH5 0x6970667358 0x22 SLT KECCAK256 SELFDESTRUCT PUSH17 0x1FDB994192985A323890DFFEE5D296F6DE SWAP16 DUP15 0xB0 0xD5 SDIV SDIV CALLCODE DUP12 PUSH11 0x6F29D08E64736F6C634300 ADDMOD SGT STOP CALLER "
		},
		"gasEstimates": {
			"creation": {
				"codeDepositCost": "4591000",
				"executionCost": "infinite",
				"totalCost": "infinite"
			},
			"external": {
				"attest((bytes32,bytes32,uint64,uint64,uint64,bytes32,address,address,bool,bytes))": "infinite",
				"callbackContract()": "infinite",
				"closeReviewRequest(string)": "infinite",
				"contractVersion()": "infinite",
				"createNonPayableRequest(string,address[],uint256[],string[],string,uint256)": "infinite",
				"createRequest(string,address[],uint256[],string[],string,uint256,uint256)": "infinite",
				"createReviewForm(bytes32,string[],string[][],uint8[])": "infinite",
				"getRequest(string)": "infinite",
				"getRequestReviewForm(string)": "infinite",
				"getReviewForm(uint256)": "infinite",
				"getReviewRequestsNames()": "infinite",
				"isPayable()": "379",
				"multiAttest((bytes32,bytes32,uint64,uint64,uint64,bytes32,address,address,bool,bytes)[],uint256[])": "infinite",
				"multiRevoke((bytes32,bytes32,uint64,uint64,uint64,bytes32,address,address,bool,bytes)[],uint256[])": "infinite",
				"owner()": "2589",
				"renounceOwnership()": "30466",
				"reviewFormsTotal()": "2452",
				"revoke((bytes32,bytes32,uint64,uint64,uint64,bytes32,address,address,bool,bytes))": "infinite",
				"setCallbackContract(address)": "27076",
				"transferOwnership(address)": "30876",
				"version()": "infinite"
			},
			"internal": {
				"createReviewRequestCommon(string memory,address[] memory,uint256[] memory,string memory[] memory,string memory,uint256,uint256,bool)": "infinite",
				"hasSubmittedReview(address,string memory,uint256)": "infinite",
				"isReviewer(address,string memory)": "infinite",
				"onAttest(struct Attestation calldata,uint256)": "infinite",
				"onRevoke(struct Attestation calldata,uint256)": "30",
				"validateAnswers(struct DeresyResolver.reviewForm storage pointer,string memory[] memory)": "infinite",
				"validateHypercertID(uint256[] memory,uint256)": "infinite"
			}
		},
		"methodIdentifiers": {
			"attest((bytes32,bytes32,uint64,uint64,uint64,bytes32,address,address,bool,bytes))": "e60c3505",
			"callbackContract()": "bd7e2aa4",
			"closeReviewRequest(string)": "be2761d0",
			"contractVersion()": "a0a8e460",
			"createNonPayableRequest(string,address[],uint256[],string[],string,uint256)": "a940b874",
			"createRequest(string,address[],uint256[],string[],string,uint256,uint256)": "a8cb0d87",
			"createReviewForm(bytes32,string[],string[][],uint8[])": "30940523",
			"getRequest(string)": "85b92413",
			"getRequestReviewForm(string)": "b4e137cd",
			"getReviewForm(uint256)": "b6fc76af",
			"getReviewRequestsNames()": "dd526054",
			"isPayable()": "ce46e046",
			"multiAttest((bytes32,bytes32,uint64,uint64,uint64,bytes32,address,address,bool,bytes)[],uint256[])": "91db0b7e",
			"multiRevoke((bytes32,bytes32,uint64,uint64,uint64,bytes32,address,address,bool,bytes)[],uint256[])": "88e5b2d9",
			"owner()": "8da5cb5b",
			"renounceOwnership()": "715018a6",
			"reviewFormsTotal()": "86be6d51",
			"revoke((bytes32,bytes32,uint64,uint64,uint64,bytes32,address,address,bool,bytes))": "e49617e1",
			"setCallbackContract(address)": "7a35aaa9",
			"transferOwnership(address)": "f2fde38b",
			"version()": "54fd4d50"
		}
	},
	"abi": [
		{
			"inputs": [
				{
					"internalType": "contract IEAS",
					"name": "eas",
					"type": "address"
				}
			],
			"stateMutability": "nonpayable",
			"type": "constructor"
		},
		{
			"inputs": [],
			"name": "AccessDenied",
			"type": "error"
		},
		{
			"inputs": [],
			"name": "InsufficientValue",
			"type": "error"
		},
		{
			"inputs": [],
			"name": "InvalidEAS",
			"type": "error"
		},
		{
			"inputs": [],
			"name": "NotPayable",
			"type": "error"
		},
		{
			"anonymous": false,
			"inputs": [
				{
					"indexed": false,
					"internalType": "string",
					"name": "_requestName",
					"type": "string"
				}
			],
			"name": "ClosedReviewRequest",
			"type": "event"
		},
		{
			"anonymous": false,
			"inputs": [
				{
					"indexed": false,
					"internalType": "uint256",
					"name": "_formId",
					"type": "uint256"
				}
			],
			"name": "CreatedReviewForm",
			"type": "event"
		},
		{
			"anonymous": false,
			"inputs": [
				{
					"indexed": false,
					"internalType": "string",
					"name": "_requestName",
					"type": "string"
				}
			],
			"name": "CreatedReviewRequest",
			"type": "event"
		},
		{
			"anonymous": false,
			"inputs": [
				{
					"components": [
						{
							"internalType": "bytes32",
							"name": "uid",
							"type": "bytes32"
						},
						{
							"internalType": "bytes32",
							"name": "schema",
							"type": "bytes32"
						},
						{
							"internalType": "uint64",
							"name": "time",
							"type": "uint64"
						},
						{
							"internalType": "uint64",
							"name": "expirationTime",
							"type": "uint64"
						},
						{
							"internalType": "uint64",
							"name": "revocationTime",
							"type": "uint64"
						},
						{
							"internalType": "bytes32",
							"name": "refUID",
							"type": "bytes32"
						},
						{
							"internalType": "address",
							"name": "recipient",
							"type": "address"
						},
						{
							"internalType": "address",
							"name": "attester",
							"type": "address"
						},
						{
							"internalType": "bool",
							"name": "revocable",
							"type": "bool"
						},
						{
							"internalType": "bytes",
							"name": "data",
							"type": "bytes"
						}
					],
					"indexed": false,
					"internalType": "struct Attestation",
					"name": "_attestation",
					"type": "tuple"
				},
				{
					"indexed": false,
					"internalType": "string",
					"name": "_requestName",
					"type": "string"
				}
			],
			"name": "OnReviewCallback",
			"type": "event"
		},
		{
			"anonymous": false,
			"inputs": [
				{
					"indexed": true,
					"internalType": "address",
					"name": "previousOwner",
					"type": "address"
				},
				{
					"indexed": true,
					"internalType": "address",
					"name": "newOwner",
					"type": "address"
				}
			],
			"name": "OwnershipTransferred",
			"type": "event"
		},
		{
			"anonymous": false,
			"inputs": [
				{
					"indexed": false,
					"internalType": "string",
					"name": "_requestName",
					"type": "string"
				}
			],
			"name": "SubmittedReview",
			"type": "event"
		},
		{
			"inputs": [
				{
					"components": [
						{
							"internalType": "bytes32",
							"name": "uid",
							"type": "bytes32"
						},
						{
							"internalType": "bytes32",
							"name": "schema",
							"type": "bytes32"
						},
						{
							"internalType": "uint64",
							"name": "time",
							"type": "uint64"
						},
						{
							"internalType": "uint64",
							"name": "expirationTime",
							"type": "uint64"
						},
						{
							"internalType": "uint64",
							"name": "revocationTime",
							"type": "uint64"
						},
						{
							"internalType": "bytes32",
							"name": "refUID",
							"type": "bytes32"
						},
						{
							"internalType": "address",
							"name": "recipient",
							"type": "address"
						},
						{
							"internalType": "address",
							"name": "attester",
							"type": "address"
						},
						{
							"internalType": "bool",
							"name": "revocable",
							"type": "bool"
						},
						{
							"internalType": "bytes",
							"name": "data",
							"type": "bytes"
						}
					],
					"internalType": "struct Attestation",
					"name": "attestation",
					"type": "tuple"
				}
			],
			"name": "attest",
			"outputs": [
				{
					"internalType": "bool",
					"name": "",
					"type": "bool"
				}
			],
			"stateMutability": "payable",
			"type": "function"
		},
		{
			"inputs": [],
			"name": "callbackContract",
			"outputs": [
				{
					"internalType": "contract IOnReviewable",
					"name": "",
					"type": "address"
				}
			],
			"stateMutability": "view",
			"type": "function"
		},
		{
			"inputs": [
				{
					"internalType": "string",
					"name": "_name",
					"type": "string"
				}
			],
			"name": "closeReviewRequest",
			"outputs": [],
			"stateMutability": "nonpayable",
			"type": "function"
		},
		{
			"inputs": [],
			"name": "contractVersion",
			"outputs": [
				{
					"internalType": "string",
					"name": "",
					"type": "string"
				}
			],
			"stateMutability": "view",
			"type": "function"
		},
		{
			"inputs": [
				{
					"internalType": "string",
					"name": "_name",
					"type": "string"
				},
				{
					"internalType": "address[]",
					"name": "reviewers",
					"type": "address[]"
				},
				{
					"internalType": "uint256[]",
					"name": "hypercertIDs",
					"type": "uint256[]"
				},
				{
					"internalType": "string[]",
					"name": "hypercertIPFSHashes",
					"type": "string[]"
				},
				{
					"internalType": "string",
					"name": "formIpfsHash",
					"type": "string"
				},
				{
					"internalType": "uint256",
					"name": "reviewFormIndex",
					"type": "uint256"
				}
			],
			"name": "createNonPayableRequest",
			"outputs": [],
			"stateMutability": "nonpayable",
			"type": "function"
		},
		{
			"inputs": [
				{
					"internalType": "string",
					"name": "_name",
					"type": "string"
				},
				{
					"internalType": "address[]",
					"name": "reviewers",
					"type": "address[]"
				},
				{
					"internalType": "uint256[]",
					"name": "hypercertIDs",
					"type": "uint256[]"
				},
				{
					"internalType": "string[]",
					"name": "hypercertIPFSHashes",
					"type": "string[]"
				},
				{
					"internalType": "string",
					"name": "formIpfsHash",
					"type": "string"
				},
				{
					"internalType": "uint256",
					"name": "rewardPerReview",
					"type": "uint256"
				},
				{
					"internalType": "uint256",
					"name": "reviewFormIndex",
					"type": "uint256"
				}
			],
			"name": "createRequest",
			"outputs": [],
			"stateMutability": "payable",
			"type": "function"
		},
		{
			"inputs": [
				{
					"internalType": "bytes32",
					"name": "easSchemaID",
					"type": "bytes32"
				},
				{
					"internalType": "string[]",
					"name": "questions",
					"type": "string[]"
				},
				{
					"internalType": "string[][]",
					"name": "choices",
					"type": "string[][]"
				},
				{
					"internalType": "enum DeresyResolver.QuestionType[]",
					"name": "questionTypes",
					"type": "uint8[]"
				}
			],
			"name": "createReviewForm",
			"outputs": [
				{
					"internalType": "uint256",
					"name": "",
					"type": "uint256"
				}
			],
			"stateMutability": "nonpayable",
			"type": "function"
		},
		{
			"inputs": [
				{
					"internalType": "string",
					"name": "_name",
					"type": "string"
				}
			],
			"name": "getRequest",
			"outputs": [
				{
					"internalType": "address[]",
					"name": "reviewers",
					"type": "address[]"
				},
				{
					"internalType": "uint256[]",
					"name": "hypercertIDs",
					"type": "uint256[]"
				},
				{
					"internalType": "string[]",
					"name": "hypercertIPFSHashes",
					"type": "string[]"
				},
				{
					"internalType": "string",
					"name": "formIpfsHash",
					"type": "string"
				},
				{
					"internalType": "uint256",
					"name": "rewardPerReview",
					"type": "uint256"
				},
				{
					"components": [
						{
							"internalType": "address",
							"name": "reviewer",
							"type": "address"
						},
						{
							"internalType": "uint256",
							"name": "hypercertID",
							"type": "uint256"
						},
						{
							"internalType": "bytes32",
							"name": "attestationID",
							"type": "bytes32"
						}
					],
					"internalType": "struct DeresyResolver.Review[]",
					"name": "reviews",
					"type": "tuple[]"
				},
				{
					"internalType": "uint256",
					"name": "reviewFormIndex",
					"type": "uint256"
				},
				{
					"internalType": "bool",
					"name": "isClosed",
					"type": "bool"
				}
			],
			"stateMutability": "view",
			"type": "function"
		},
		{
			"inputs": [
				{
					"internalType": "string",
					"name": "_name",
					"type": "string"
				}
			],
			"name": "getRequestReviewForm",
			"outputs": [
				{
					"internalType": "string[]",
					"name": "",
					"type": "string[]"
				},
				{
					"internalType": "enum DeresyResolver.QuestionType[]",
					"name": "",
					"type": "uint8[]"
				},
				{
					"internalType": "string[][]",
					"name": "choices",
					"type": "string[][]"
				},
				{
					"internalType": "bytes32",
					"name": "",
					"type": "bytes32"
				}
			],
			"stateMutability": "view",
			"type": "function"
		},
		{
			"inputs": [
				{
					"internalType": "uint256",
					"name": "_reviewFormIndex",
					"type": "uint256"
				}
			],
			"name": "getReviewForm",
			"outputs": [
				{
					"internalType": "string[]",
					"name": "questions",
					"type": "string[]"
				},
				{
					"internalType": "enum DeresyResolver.QuestionType[]",
					"name": "questionTypes",
					"type": "uint8[]"
				},
				{
					"internalType": "string[][]",
					"name": "choices",
					"type": "string[][]"
				},
				{
					"internalType": "bytes32",
					"name": "easSchemaID",
					"type": "bytes32"
				}
			],
			"stateMutability": "view",
			"type": "function"
		},
		{
			"inputs": [],
			"name": "getReviewRequestsNames",
			"outputs": [
				{
					"internalType": "string[]",
					"name": "",
					"type": "string[]"
				}
			],
			"stateMutability": "view",
			"type": "function"
		},
		{
			"inputs": [],
			"name": "isPayable",
			"outputs": [
				{
					"internalType": "bool",
					"name": "",
					"type": "bool"
				}
			],
			"stateMutability": "pure",
			"type": "function"
		},
		{
			"inputs": [
				{
					"components": [
						{
							"internalType": "bytes32",
							"name": "uid",
							"type": "bytes32"
						},
						{
							"internalType": "bytes32",
							"name": "schema",
							"type": "bytes32"
						},
						{
							"internalType": "uint64",
							"name": "time",
							"type": "uint64"
						},
						{
							"internalType": "uint64",
							"name": "expirationTime",
							"type": "uint64"
						},
						{
							"internalType": "uint64",
							"name": "revocationTime",
							"type": "uint64"
						},
						{
							"internalType": "bytes32",
							"name": "refUID",
							"type": "bytes32"
						},
						{
							"internalType": "address",
							"name": "recipient",
							"type": "address"
						},
						{
							"internalType": "address",
							"name": "attester",
							"type": "address"
						},
						{
							"internalType": "bool",
							"name": "revocable",
							"type": "bool"
						},
						{
							"internalType": "bytes",
							"name": "data",
							"type": "bytes"
						}
					],
					"internalType": "struct Attestation[]",
					"name": "attestations",
					"type": "tuple[]"
				},
				{
					"internalType": "uint256[]",
					"name": "values",
					"type": "uint256[]"
				}
			],
			"name": "multiAttest",
			"outputs": [
				{
					"internalType": "bool",
					"name": "",
					"type": "bool"
				}
			],
			"stateMutability": "payable",
			"type": "function"
		},
		{
			"inputs": [
				{
					"components": [
						{
							"internalType": "bytes32",
							"name": "uid",
							"type": "bytes32"
						},
						{
							"internalType": "bytes32",
							"name": "schema",
							"type": "bytes32"
						},
						{
							"internalType": "uint64",
							"name": "time",
							"type": "uint64"
						},
						{
							"internalType": "uint64",
							"name": "expirationTime",
							"type": "uint64"
						},
						{
							"internalType": "uint64",
							"name": "revocationTime",
							"type": "uint64"
						},
						{
							"internalType": "bytes32",
							"name": "refUID",
							"type": "bytes32"
						},
						{
							"internalType": "address",
							"name": "recipient",
							"type": "address"
						},
						{
							"internalType": "address",
							"name": "attester",
							"type": "address"
						},
						{
							"internalType": "bool",
							"name": "revocable",
							"type": "bool"
						},
						{
							"internalType": "bytes",
							"name": "data",
							"type": "bytes"
						}
					],
					"internalType": "struct Attestation[]",
					"name": "attestations",
					"type": "tuple[]"
				},
				{
					"internalType": "uint256[]",
					"name": "values",
					"type": "uint256[]"
				}
			],
			"name": "multiRevoke",
			"outputs": [
				{
					"internalType": "bool",
					"name": "",
					"type": "bool"
				}
			],
			"stateMutability": "payable",
			"type": "function"
		},
		{
			"inputs": [],
			"name": "owner",
			"outputs": [
				{
					"internalType": "address",
					"name": "",
					"type": "address"
				}
			],
			"stateMutability": "view",
			"type": "function"
		},
		{
			"inputs": [],
			"name": "renounceOwnership",
			"outputs": [],
			"stateMutability": "nonpayable",
			"type": "function"
		},
		{
			"inputs": [],
			"name": "reviewFormsTotal",
			"outputs": [
				{
					"internalType": "uint256",
					"name": "",
					"type": "uint256"
				}
			],
			"stateMutability": "view",
			"type": "function"
		},
		{
			"inputs": [
				{
					"components": [
						{
							"internalType": "bytes32",
							"name": "uid",
							"type": "bytes32"
						},
						{
							"internalType": "bytes32",
							"name": "schema",
							"type": "bytes32"
						},
						{
							"internalType": "uint64",
							"name": "time",
							"type": "uint64"
						},
						{
							"internalType": "uint64",
							"name": "expirationTime",
							"type": "uint64"
						},
						{
							"internalType": "uint64",
							"name": "revocationTime",
							"type": "uint64"
						},
						{
							"internalType": "bytes32",
							"name": "refUID",
							"type": "bytes32"
						},
						{
							"internalType": "address",
							"name": "recipient",
							"type": "address"
						},
						{
							"internalType": "address",
							"name": "attester",
							"type": "address"
						},
						{
							"internalType": "bool",
							"name": "revocable",
							"type": "bool"
						},
						{
							"internalType": "bytes",
							"name": "data",
							"type": "bytes"
						}
					],
					"internalType": "struct Attestation",
					"name": "attestation",
					"type": "tuple"
				}
			],
			"name": "revoke",
			"outputs": [
				{
					"internalType": "bool",
					"name": "",
					"type": "bool"
				}
			],
			"stateMutability": "payable",
			"type": "function"
		},
		{
			"inputs": [
				{
					"internalType": "address",
					"name": "_callbackContractAddress",
					"type": "address"
				}
			],
			"name": "setCallbackContract",
			"outputs": [],
			"stateMutability": "nonpayable",
			"type": "function"
		},
		{
			"inputs": [
				{
					"internalType": "address",
					"name": "newOwner",
					"type": "address"
				}
			],
			"name": "transferOwnership",
			"outputs": [],
			"stateMutability": "nonpayable",
			"type": "function"
		},
		{
			"inputs": [],
			"name": "version",
			"outputs": [
				{
					"internalType": "string",
					"name": "",
					"type": "string"
				}
			],
			"stateMutability": "view",
			"type": "function"
		},
		{
			"stateMutability": "payable",
			"type": "receive"
		}
	]
}