{
	"data": {
		"bytecode": {
			"linkReferences": {},
			"object": "61014060405260036101009081526218171960e91b61012052600890620000279082620001f0565b506009805460ff191660011790553480156200004257600080fd5b5060405162004a6638038062004a668339810160408190526200006591620002bc565b6001608052600060a081905260c052806001600160a01b0381166200009d576040516341bc07ff60e11b815260040160405180910390fd5b6001600160a01b031660e052620000b433620000fb565b50600580546001810182556000919091527f036b6384b5eca791c62761152d0c79bb0604c104a5fb6f4eb0703f3154bb3db00180546001600160a01b0319169055620002ee565b600080546001600160a01b038381166001600160a01b0319831681178455604051919092169283917f8be0079c531659141344cd1fd0a4f28419497f9722a3daafe3b4186f6b6457e09190a35050565b634e487b7160e01b600052604160045260246000fd5b600181811c908216806200017657607f821691505b6020821081036200019757634e487b7160e01b600052602260045260246000fd5b50919050565b601f821115620001eb57600081815260208120601f850160051c81016020861015620001c65750805b601f850160051c820191505b81811015620001e757828155600101620001d2565b5050505b505050565b81516001600160401b038111156200020c576200020c6200014b565b62000224816200021d845462000161565b846200019d565b602080601f8311600181146200025c5760008415620002435750858301515b600019600386901b1c1916600185901b178555620001e7565b600085815260208120601f198616915b828110156200028d578886015182559484019460019091019084016200026c565b5085821015620002ac5787850151600019600388901b60f8161c191681555b5050505050600190811b01905550565b600060208284031215620002cf57600080fd5b81516001600160a01b0381168114620002e757600080fd5b9392505050565b60805160a05160c05160e05161473e6200032860003960006126400152600061094201526000610919015260006108f0015261473e6000f3fe6080604052600436106101e75760003560e01c8063a0a8e46011610102578063be2761d011610095578063e26f790011610064578063e26f79001461055c578063e49617e11461057e578063e60c350514610591578063f2fde38b146105a457600080fd5b8063be2761d0146104e6578063ce46e04614610506578063d627d25e1461051a578063dd5260541461053a57600080fd5b8063b5af090f116100d1578063b5af090f14610466578063b6fc76af14610486578063b8b23c17146104a6578063bd7e2aa4146104c657600080fd5b8063a0a8e460146103e4578063a940b874146103f9578063abe1d7f314610419578063b4e137cd1461043957600080fd5b80637a35aaa91161017a57806388e5b2d91161014957806388e5b2d9146103765780638da5cb5b146103895780639128b0d8146103bb57806391db0b7e146103d157600080fd5b80637a35aaa9146102fe5780638456cb591461031e57806385b924131461033357806386be6d511461036057600080fd5b80635c975abb116101b65780635c975abb146102895780636247f6f2146102b3578063715018a6146102d357806374987060146102e857600080fd5b80630677b5351461020c57806320de04621461023f5780633f4ba83a1461025257806354fd4d501461026757600080fd5b3661020757604051631574f9f360e01b815260040160405180910390fd5b005b600080fd5b34801561021857600080fd5b5061022c6102273660046137c7565b6105c4565b6040519081526020015b60405180910390f35b61020561024d366004613991565b610896565b34801561025e57600080fd5b506102056108d5565b34801561027357600080fd5b5061027c6108e9565b6040516102369190613ad6565b34801561029557600080fd5b506009546102a39060ff1681565b6040519015158152602001610236565b3480156102bf57600080fd5b506102056102ce366004613af0565b61098c565b3480156102df57600080fd5b50610205610a3c565b3480156102f457600080fd5b5061022c60045481565b34801561030a57600080fd5b50610205610319366004613af0565b610a50565b34801561032a57600080fd5b50610205610a7a565b34801561033f57600080fd5b5061035361034e366004613b0b565b610ab4565b6040516102369190613cb9565b34801561036c57600080fd5b5061022c60075481565b6102a3610384366004613e2d565b610f39565b34801561039557600080fd5b506000546001600160a01b03165b6040516001600160a01b039091168152602001610236565b3480156103c757600080fd5b5061022c60035481565b6102a36103df366004613e2d565b610fe6565b3480156103f057600080fd5b5061027c611085565b34801561040557600080fd5b50610205610414366004613e98565b611113565b34801561042557600080fd5b50610205610434366004613f71565b611151565b34801561044557600080fd5b50610459610454366004613b0b565b61115e565b6040516102369190613fe8565b34801561047257600080fd5b506102a3610481366004613af0565b61145c565b34801561049257600080fd5b506104596104a1366004613f71565b6114c5565b3480156104b257600080fd5b506102056104c1366004613f71565b61179c565b3480156104d257600080fd5b506001546103a3906001600160a01b031681565b3480156104f257600080fd5b50610205610501366004613b0b565b6117a9565b34801561051257600080fd5b5060006102a3565b34801561052657600080fd5b50610205610535366004613af0565b61199a565b34801561054657600080fd5b5061054f611afb565b604051610236919061408b565b34801561056857600080fd5b50610571611bd4565b604051610236919061409e565b6102a361058c3660046140b1565b611c36565b6102a361059f3660046140b1565b611c52565b3480156105b057600080fd5b506102056105bf366004613af0565b611c66565b60095460009060ff16156105f35760405162461bcd60e51b81526004016105ea906140ec565b60405180910390fd5b60008451116106445760405162461bcd60e51b815260206004820152601f60248201527f4465726573793a205175657374696f6e732063616e2774206265206e756c6c0060448201526064016105ea565b60008251116106a15760405162461bcd60e51b8152602060048201526024808201527f4465726573793a205175657374696f6e2054797065732063616e2774206265206044820152631b9d5b1b60e21b60648201526084016105ea565b83518251146107105760405162461bcd60e51b815260206004820152603560248201527f4465726573793a205175657374696f6e7320616e64207479706573206d757374604482015274040d0c2ecca40e8d0ca40e6c2daca40d8cadccee8d605b1b60648201526084016105ea565b82518451146107875760405162461bcd60e51b815260206004820152603760248201527f4465726573793a205175657374696f6e7320616e642063686f69636573206d7560448201527f73742068617665207468652073616d65206c656e67746800000000000000000060648201526084016105ea565b604080516060810182528581526020808201859052918101859052600a805460018101825560009190915281518051929360039092027fc65a7bb8d6351c1cf70c95a316cc6a92839c986682d98bc35f958f4883f9d2a801926107ed9284920190613361565b50602082810151805161080692600185019201906133b7565b5060408201518051610822916002840191602090910190613467565b505050600160076000828254610838919061412e565b9091555050600a547f2ca1c706b776fc626b1e93b556d8968577908c5fee79ca88376ade10b781019c9061086e90600190614141565b60405190815260200160405180910390a1600a5461088e90600190614141565b949350505050565b60095460ff16156108b95760405162461bcd60e51b81526004016105ea906140ec565b6108cb88888888888887896001611cdf565b5050505050505050565b6108dd6124f9565b6009805460ff19169055565b60606109147f0000000000000000000000000000000000000000000000000000000000000000612553565b61093d7f0000000000000000000000000000000000000000000000000000000000000000612553565b6109667f0000000000000000000000000000000000000000000000000000000000000000612553565b60405160200161097893929190614154565b604051602081830303815290604052905090565b6109946124f9565b61099d8161145c565b156109ea5760405162461bcd60e51b815260206004820152601960248201527f546f6b656e20616c72656164792077686974656c69737465640000000000000060448201526064016105ea565b600580546001810182556000919091527f036b6384b5eca791c62761152d0c79bb0604c104a5fb6f4eb0703f3154bb3db00180546001600160a01b0319166001600160a01b0392909216919091179055565b610a446124f9565b610a4e60006125e5565b565b610a586124f9565b600180546001600160a01b0319166001600160a01b0392909216919091179055565b610a826124f9565b60095460ff1615610aa55760405162461bcd60e51b81526004016105ea906140ec565b6009805460ff19166001179055565b610b2c60405180610180016040528060006001600160a01b0316815260200160608152602001606081526020016060815260200160608152602001600081526020016060815260200160001515815260200160006001600160a01b031681526020016000815260200160008152602001606081525090565b600282604051610b3c91906141ae565b9081526040805191829003602090810183206101808401835280546001600160a01b03168452600181018054845181850281018501909552808552919385840193909290830182828015610bb957602002820191906000526020600020905b81546001600160a01b03168152600190910190602001808311610b9b575b5050505050815260200160028201805480602002602001604051908101604052809291908181526020018280548015610c1157602002820191906000526020600020905b815481526020019060010190808311610bfd575b5050505050815260200160038201805480602002602001604051908101604052809291908181526020016000905b82821015610ceb578382906000526020600020018054610c5e906141ca565b80601f0160208091040260200160405190810160405280929190818152602001828054610c8a906141ca565b8015610cd75780601f10610cac57610100808354040283529160200191610cd7565b820191906000526020600020905b815481529060010190602001808311610cba57829003601f168201915b505050505081526020019060010190610c3f565b505050508152602001600482018054610d03906141ca565b80601f0160208091040260200160405190810160405280929190818152602001828054610d2f906141ca565b8015610d7c5780601f10610d5157610100808354040283529160200191610d7c565b820191906000526020600020905b815481529060010190602001808311610d5f57829003601f168201915b505050505081526020016005820154815260200160068201805480602002602001604051908101604052809291908181526020016000905b82821015610e5d576000848152602090819020604080516080810182526004860290920180546001600160a01b0316835260018101548385015260028101548383015260038101805483518187028101870190945280845293949193606086019392830182828015610e4557602002820191906000526020600020905b815481526020019060010190808311610e31575b50505050508152505081526020019060010190610db4565b50505090825250600782015460ff81161515602083015261010090046001600160a01b031660408201526008820154606082015260098201546080820152600a8201805460a090920191610eb0906141ca565b80601f0160208091040260200160405190810160405280929190818152602001828054610edc906141ca565b8015610f295780601f10610efe57610100808354040283529160200191610f29565b820191906000526020600020905b815481529060010190602001808311610f0c57829003601f168201915b5050505050815250509050919050565b6000610f43612635565b833460005b82811015610fd8576000868683818110610f6457610f64614204565b90506020020135905082811115610f8e5760405163044044a560e21b815260040160405180910390fd5b610fbb898984818110610fa357610fa3614204565b9050602002810190610fb5919061421a565b8261267e565b610fcc57600094505050505061088e565b90910390600101610f48565b506001979650505050505050565b6000610ff0612635565b833460005b82811015610fd857600086868381811061101157611011614204565b9050602002013590508281111561103b5760405163044044a560e21b815260040160405180910390fd5b61106889898481811061105057611050614204565b9050602002810190611062919061421a565b82612687565b61107957600094505050505061088e565b90910390600101610ff5565b60088054611092906141ca565b80601f01602080910402602001604051908101604052809291908181526020018280546110be906141ca565b801561110b5780601f106110e05761010080835404028352916020019161110b565b820191906000526020600020905b8154815290600101906020018083116110ee57829003601f168201915b505050505081565b60095460ff16156111365760405162461bcd60e51b81526004016105ea906140ec565b6111498686868686600087600080611cdf565b505050505050565b6111596124f9565b600455565b61118260405180606001604052806060815260200160608152602001606081525090565b600060028360405161119491906141ae565b90815260200160405180910390209050600a8160090154815481106111bb576111bb614204565b906000526020600020906003020160405180606001604052908160008201805480602002602001604051908101604052809291908181526020016000905b828210156112a5578382906000526020600020018054611218906141ca565b80601f0160208091040260200160405190810160405280929190818152602001828054611244906141ca565b80156112915780601f1061126657610100808354040283529160200191611291565b820191906000526020600020905b81548152906001019060200180831161127457829003601f168201915b5050505050815260200190600101906111f9565b5050505081526020016001820180548060200260200160405190810160405280929190818152602001828054801561132c57602002820191906000526020600020906000905b82829054906101000a900460ff16600281111561130a5761130a613f8a565b8152602060019283018181049485019490930390920291018084116112eb5790505b5050505050815260200160028201805480602002602001604051908101604052809291908181526020016000905b8282101561144d57838290600052602060002001805480602002602001604051908101604052809291908181526020016000905b8282101561143a5783829060005260206000200180546113ad906141ca565b80601f01602080910402602001604051908101604052809291908181526020018280546113d9906141ca565b80156114265780601f106113fb57610100808354040283529160200191611426565b820191906000526020600020905b81548152906001019060200180831161140957829003601f168201915b50505050508152602001906001019061138e565b505050508152602001906001019061135a565b50505091525090949350505050565b6000805b6005548110156114bc57826001600160a01b03166005828154811061148757611487614204565b6000918252602090912001546001600160a01b0316036114aa5750600192915050565b806114b481614231565b915050611460565b50600092915050565b6114e960405180606001604052806060815260200160608152602001606081525090565b600a82815481106114fc576114fc614204565b906000526020600020906003020160405180606001604052908160008201805480602002602001604051908101604052809291908181526020016000905b828210156115e6578382906000526020600020018054611559906141ca565b80601f0160208091040260200160405190810160405280929190818152602001828054611585906141ca565b80156115d25780601f106115a7576101008083540402835291602001916115d2565b820191906000526020600020905b8154815290600101906020018083116115b557829003601f168201915b50505050508152602001906001019061153a565b5050505081526020016001820180548060200260200160405190810160405280929190818152602001828054801561166d57602002820191906000526020600020906000905b82829054906101000a900460ff16600281111561164b5761164b613f8a565b81526020600192830181810494850194909303909202910180841161162c5790505b5050505050815260200160028201805480602002602001604051908101604052809291908181526020016000905b8282101561178e57838290600052602060002001805480602002602001604051908101604052809291908181526020016000905b8282101561177b5783829060005260206000200180546116ee906141ca565b80601f016020809104026020016040519081016040528092919081815260200182805461171a906141ca565b80156117675780601f1061173c57610100808354040283529160200191611767565b820191906000526020600020905b81548152906001019060200180831161174a57829003601f168201915b5050505050815260200190600101906116cf565b505050508152602001906001019061169b565b505050915250909392505050565b6117a46124f9565b600355565b6002816040516117b991906141ae565b90815260405190819003602001902054336001600160a01b03909116146118225760405162461bcd60e51b815260206004820152601d60248201527f4465726573793a204974206973206e6f74207468652073706f6e736f7200000060448201526064016105ea565b60028160405161183291906141ae565b9081526040519081900360200190206007015460ff161561188e5760405162461bcd60e51b815260206004820152601660248201527511195c995cde4e881c995c5d595cdd0818db1bdcd95960521b60448201526064016105ea565b60028160405161189e91906141ae565b908152604051908190036020018120546001600160a01b0316906108fc906002906118ca9085906141ae565b90815260405190819003602001812060080154801590920291906000818181858888f19350505050158015611903573d6000803e3d6000fd5b50600160028260405161191691906141ae565b908152604051908190036020018120600701805492151560ff199093169290921790915560009060029061194b9084906141ae565b9081526020016040518091039020600801819055507fbc5c8cb2024ed254e024e37b09895ecaa07948dd0fd7a08e30b80f559888f2cf8160405161198f9190613ad6565b60405180910390a150565b6119a26124f9565b6119ab8161145c565b6119f05760405162461bcd60e51b8152602060048201526016602482015275151bdad95b881b9bdd081a5b881dda1a5d195b1a5cdd60521b60448201526064016105ea565b60005b600554811015611af757816001600160a01b031660058281548110611a1a57611a1a614204565b6000918252602090912001546001600160a01b031603611ae55760058054611a4490600190614141565b81548110611a5457611a54614204565b600091825260209091200154600580546001600160a01b039092169183908110611a8057611a80614204565b9060005260206000200160006101000a8154816001600160a01b0302191690836001600160a01b031602179055506005805480611abf57611abf61424a565b600082815260209020810160001990810180546001600160a01b03191690550190555050565b80611aef81614231565b9150506119f3565b5050565b60606006805480602002602001604051908101604052809291908181526020016000905b82821015611bcb578382906000526020600020018054611b3e906141ca565b80601f0160208091040260200160405190810160405280929190818152602001828054611b6a906141ca565b8015611bb75780601f10611b8c57610100808354040283529160200191611bb7565b820191906000526020600020905b815481529060010190602001808311611b9a57829003601f168201915b505050505081526020019060010190611b1f565b50505050905090565b60606005805480602002602001604051908101604052809291908181526020018280548015611c2c57602002820191906000526020600020905b81546001600160a01b03168152600190910190602001808311611c0e575b5050505050905090565b6000611c40612635565b611c4a823461267e565b90505b919050565b6000611c5c612635565b611c4a8234612687565b611c6e6124f9565b6001600160a01b038116611cd35760405162461bcd60e51b815260206004820152602660248201527f4f776e61626c653a206e6577206f776e657220697320746865207a65726f206160448201526564647265737360d01b60648201526084016105ea565b611cdc816125e5565b50565b6000885111611d305760405162461bcd60e51b815260206004820181905260248201527f4465726573793a205265766965776572732063616e6e6f74206265206e756c6c60448201526064016105ea565b6000875111611d8d5760405162461bcd60e51b8152602060048201526024808201527f4465726573793a20487970657263657274204944732063616e6e6f74206265206044820152631b9d5b1b60e21b60648201526084016105ea565b6000865111611df45760405162461bcd60e51b815260206004820152602d60248201527f4465726573793a2048797065726365727473204950465320686173686573206360448201526c185b9b9bdd081899481b9d5b1b609a1b60648201526084016105ea565b8551875114611e805760405162461bcd60e51b815260206004820152604c60248201527f4465726573793a2048797065726365727449447320616e64204879706572636560448201527f727449504653486173686573206172726179206d75737420686176652074686560648201526b040e6c2daca40d8cadccee8d60a31b608482015260a4016105ea565b600a54611e8f90600190614141565b831115611ede5760405162461bcd60e51b815260206004820152601f60248201527f4465726573793a20526576696577466f726d496e64657820696e76616c69640060448201526064016105ea565b60006001600160a01b031660028a604051611ef991906141ae565b908152604051908190036020019020546001600160a01b031614611f5f5760405162461bcd60e51b815260206004820152601760248201527f4465726573793a204e616d65206475706c69636174656400000000000000000060448201526064016105ea565b611f688261145c565b611fb45760405162461bcd60e51b815260206004820181905260248201527f4465726573793a20546f6b656e206973206e6f742077686974656c697374656460448201526064016105ea565b600081156121ef57600085116120405760405162461bcd60e51b815260206004820152604560248201527f4465726573793a20726577617264506572526576696577206d7573742062652060448201527f67726561746572207468616e207a65726f20666f722070617961626c652072656064820152641c5d595cdd60da1b608482015260a4016105ea565b6001600160a01b0383166120bd578488518a5161205d9190614260565b6120679190614260565b3410156120b65760405162461bcd60e51b815260206004820152601960248201527f4465726573793a206d73672e76616c756520696e76616c69640000000000000060448201526064016105ea565b5034612263565b341561210b5760405162461bcd60e51b815260206004820152601c60248201527f4465726573793a206d73672e76616c756520697320696e76616c69640000000060448201526064016105ea565b8488518a5161211a9190614260565b6121249190614260565b6040516323b872dd60e01b8152336004820152306024820152604481018290529091506001600160a01b038416906323b872dd906064016020604051808303816000875af115801561217a573d6000803e3d6000fd5b505050506040513d601f19601f8201168201806040525081019061219e9190614285565b6121ea5760405162461bcd60e51b815260206004820152601d60248201527f4465726573793a20546f6b656e207472616e73666572206661696c656400000060448201526064016105ea565b612263565b84156122635760405162461bcd60e51b815260206004820152603c60248201527f4465726573793a20726577617264506572526576696577206d7573742062652060448201527f7a65726f20666f72206e6f6e2d70617961626c6520726571756573740000000060648201526084016105ea565b3360028b60405161227491906141ae565b90815260405190819003602001812080546001600160a01b03939093166001600160a01b03199093169290921790915589906002906122b4908d906141ae565b908152602001604051809103902060010190805190602001906122d89291906134c0565b508760028b6040516122ea91906141ae565b9081526020016040518091039020600201908051906020019061230e929190613515565b508660028b60405161232091906141ae565b90815260200160405180910390206003019080519060200190612344929190613361565b508560028b60405161235691906141ae565b9081526020016040518091039020600401908161237391906142ed565b5081612380576000612382565b845b60028b60405161239291906141ae565b908152602001604051809103902060050181905550600060028b6040516123b991906141ae565b908152604051908190036020018120600701805492151560ff199093169290921790915583906002906123ed908d906141ae565b908152602001604051809103902060070160016101000a8154816001600160a01b0302191690836001600160a01b031602179055508161242e576000612430565b805b60028b60405161244091906141ae565b9081526020016040518091039020600801819055508360028b60405161246691906141ae565b90815260405190819003602001902060090155600680546001810182556000919091527ff652222313e28459528d920b65115c16c04f3efc82aaedc97be59f3f377c0d3f016124b58b826142ed565b507f0448feabbf5bb385eb3ea2cb16d90b1cb3b4c8936e399cf7a10e7b8946eec6678a6040516124e59190613ad6565b60405180910390a150505050505050505050565b6000546001600160a01b03163314610a4e5760405162461bcd60e51b815260206004820181905260248201527f4f776e61626c653a2063616c6c6572206973206e6f7420746865206f776e657260448201526064016105ea565b60606000612560836126e8565b60010190506000816001600160401b0381111561257f5761257f6135f7565b6040519080825280601f01601f1916602001820160405280156125a9576020820181803683370190505b5090508181016020015b600019016f181899199a1a9b1b9c1cb0b131b232b360811b600a86061a8153600a85049450846125b357509392505050565b600080546001600160a01b038381166001600160a01b0319831681178455604051919092169283917f8be0079c531659141344cd1fd0a4f28419497f9722a3daafe3b4186f6b6457e09190a35050565b336001600160a01b037f00000000000000000000000000000000000000000000000000000000000000001614610a4e57604051634ca8886760e01b815260040160405180910390fd5b60015b92915050565b60095460009060ff16156126ad5760405162461bcd60e51b81526004016105ea906140ec565b6003548360200135036126ca576126c3836127c0565b9050612681565b6004548360200135036126e0576126c383612c24565b506000612681565b60008072184f03e93ff9f4daa797ed6e38ed64bf6a1f0160401b83106127275772184f03e93ff9f4daa797ed6e38ed64bf6a1f0160401b830492506040015b6d04ee2d6d415b85acef81000000008310612753576d04ee2d6d415b85acef8100000000830492506020015b662386f26fc10000831061277157662386f26fc10000830492506010015b6305f5e1008310612789576305f5e100830492506008015b612710831061279d57612710830492506004015b606483106127af576064830492506002015b600a83106126815760010192915050565b60008080806127d36101208601866143ac565b8101906127e091906143f2565b5092509250925060006002846040516127f991906141ae565b908152602001604051809103902090506000600a82600901548154811061282257612822614204565b6000918252602082206003909102019150612844610100890160e08a01613af0565b600784015490915088359060009060ff161580156128b957506128b9856002018054806020026020016040519081016040528092919081815260200182805480156128ae57602002820191906000526020600020905b81548152602001906001019080831161289a575b505050505088612e8d565b80156128c6575085518454145b80156128d757506128d78389612ee0565b80156128e957506128e9838989612f84565b80156128fa57506128fa848761307e565b90508015612c1757846006016040518060800160405280856001600160a01b0316815260200189815260200184815260200160006001600160401b03811115612945576129456135f7565b60405190808252806020026020018201604052801561296e578160200160208202803683370190505b5090528154600180820184556000938452602093849020835160049093020180546001600160a01b0319166001600160a01b0390931692909217825582840151908201556040820151600282015560608201518051929391926129d79260038501920190613515565b505050600585015415612b1e5784600501548560080160008282546129fc9190614141565b9091555050600785015461010090046001600160a01b0316612a575760058501546040516001600160a01b0385169180156108fc02916000818181858888f19350505050158015612a51573d6000803e3d6000fd5b50612b1e565b6007850154600586015460405163a9059cbb60e01b81526001600160a01b0386811660048301526024820192909252610100909204169063a9059cbb906044016020604051808303816000875af1158015612ab6573d6000803e3d6000fd5b505050506040513d601f19601f82011682018060405250810190612ada9190614285565b612b1e5760405162461bcd60e51b8152602060048201526015602482015274151bdad95b881d1c985b9cd9995c8819985a5b1959605a1b60448201526064016105ea565b6001546001600160a01b031615612bdf5760015460405163bb69ab3360e01b81526001600160a01b039091169063bb69ab3390612b61908d908c90600401614513565b6020604051808303816000875af1158015612b80573d6000803e3d6000fd5b505050506040513d601f19601f82011682018060405250810190612ba49190614285565b507f253a8677adaec417dae20224e9f7eb1182aed5a01b1938114cb310cd5c5d954d8a89604051612bd6929190614513565b60405180910390a15b7f4d6dd501df538f815f442947c933fc2f545525e75f909b918a6d0701acc7904c88604051612c0e9190613ad6565b60405180910390a15b9998505050505050505050565b6000808080612c376101208601866143ac565b810190612c449190614630565b9250925092506000600284604051612c5c91906141ae565b908152604051908190036020019020600681015490915015612e815760005b6006820154811015612e7f578660a00135826006018281548110612ca157612ca1614204565b906000526020600020906004020160020154148015612d065750612ccc610100880160e08901613af0565b6001600160a01b0316826006018281548110612cea57612cea614204565b60009182526020909120600490910201546001600160a01b0316145b8015612d13575060008351115b8015612d44575083826006018281548110612d3057612d30614204565b906000526020600020906004020160010154145b15612e6d576000805b836006018381548110612d6257612d62614204565b906000526020600020906004020160030180549050811015612de5578860000135846006018481548110612d9857612d98614204565b90600052602060002090600402016003018281548110612dba57612dba614204565b906000526020600020015403612dd35760019150612de5565b80612ddd81614231565b915050612d4d565b5080612e6b57826006018281548110612e0057612e00614204565b600091825260208083206004929092029091016003018054600181018255908352918190208a3592018290556040519182527fee28e94ac55844f79e4a8805659e8f6ded6bfe24b7ebe0570deb71c158ec9433910160405180910390a1506001979650505050505050565b505b80612e7781614231565b915050612c7b565b505b50600095945050505050565b6000805b8351811015612ed65782848281518110612ead57612ead614204565b602002602001015103612ec4576001915050612681565b80612ece81614231565b915050612e91565b5060009392505050565b600080805b600284604051612ef591906141ae565b90815260405190819003602001902060010154811015612f7c57846001600160a01b0316600285604051612f2991906141ae565b90815260200160405180910390206001018281548110612f4b57612f4b614204565b6000918252602090912001546001600160a01b031603612f6a57600191505b80612f7481614231565b915050612ee5565b509392505050565b60006001815b600285604051612f9a91906141ae565b908152604051908190036020019020600601548110156130755783600286604051612fc591906141ae565b90815260200160405180910390206006018281548110612fe757612fe7614204565b9060005260206000209060040201600101541480156130595750856001600160a01b031660028660405161301b91906141ae565b9081526020016040518091039020600601828154811061303d5761303d614204565b60009182526020909120600490910201546001600160a01b0316145b1561306357600091505b8061306d81614231565b915050612f8a565b50949350505050565b6000805b82518110156133575760028460010182815481106130a2576130a2614204565b90600052602060002090602091828204019190069054906101000a900460ff1660028111156130d3576130d3613f8a565b036131db576000805b8560020183815481106130f1576130f1614204565b6000918252602090912001548110156131c45784838151811061311657613116614204565b602002602001015160405160200161312e91906141ae565b6040516020818303038152906040528051906020012086600201848154811061315957613159614204565b90600052602060002001828154811061317457613174614204565b9060005260206000200160405160200161318e9190614692565b60405160208183030381529060405280519060200120036131b257600191506131c4565b806131bc81614231565b9150506130dc565b50806131d557600092505050612681565b50613345565b60018460010182815481106131f2576131f2614204565b90600052602060002090602091828204019190069054906101000a900460ff16600281111561322357613223613f8a565b03613319576040516259657360e81b60208201526023016040516020818303038152906040528051906020012083828151811061326257613262614204565b602002602001015160405160200161327a91906141ae565b6040516020818303038152906040528051906020012014806133005750604051614e6f60f01b6020820152602201604051602081830303815290604052805190602001208382815181106132d0576132d0614204565b60200260200101516040516020016132e891906141ae565b60405160208183030381529060405280519060200120145b1561330f576001915050612681565b6000915050612681565b82818151811061332b5761332b614204565b602002602001015151600003613345576000915050612681565b8061334f81614231565b915050613082565b5060019392505050565b8280548282559060005260206000209081019282156133a7579160200282015b828111156133a7578251829061339790826142ed565b5091602001919060010190613381565b506133b3929150613550565b5090565b82805482825590600052602060002090601f0160209004810192821561345b5791602002820160005b8382111561342c57835183826101000a81548160ff0219169083600281111561340b5761340b613f8a565b021790555092602001926001016020816000010492830192600103026133e0565b80156134595782816101000a81549060ff021916905560010160208160000104928301926001030261342c565b505b506133b392915061356d565b8280548282559060005260206000209081019282156134b4579160200282015b828111156134b457825180516134a4918491602090910190613361565b5091602001919060010190613487565b506133b3929150613582565b82805482825590600052602060002090810192821561345b579160200282015b8281111561345b57825182546001600160a01b0319166001600160a01b039091161782556020909201916001909101906134e0565b82805482825590600052602060002090810192821561345b579160200282015b8281111561345b578251825591602001919060010190613535565b808211156133b3576000613564828261359f565b50600101613550565b5b808211156133b3576000815560010161356e565b808211156133b357600061359682826135d9565b50600101613582565b5080546135ab906141ca565b6000825580601f106135bb575050565b601f016020900490600052602060002090810190611cdc919061356d565b5080546000825590600052602060002090810190611cdc9190613550565b634e487b7160e01b600052604160045260246000fd5b604051601f8201601f191681016001600160401b0381118282101715613635576136356135f7565b604052919050565b60006001600160401b03821115613656576136566135f7565b5060051b60200190565b600082601f83011261367157600080fd5b81356001600160401b0381111561368a5761368a6135f7565b61369d601f8201601f191660200161360d565b8181528460208386010111156136b257600080fd5b816020850160208301376000918101602001919091529392505050565b600082601f8301126136e057600080fd5b813560206136f56136f08361363d565b61360d565b82815260059290921b8401810191818101908684111561371457600080fd5b8286015b848110156137535780356001600160401b038111156137375760008081fd5b6137458986838b0101613660565b845250918301918301613718565b509695505050505050565b600082601f83011261376f57600080fd5b8135602061377f6136f08361363d565b82815260059290921b8401810191818101908684111561379e57600080fd5b8286015b84811015613753578035600381106137ba5760008081fd5b83529183019183016137a2565b6000806000606084860312156137dc57600080fd5b83356001600160401b03808211156137f357600080fd5b6137ff878388016136cf565b945060209150818601358181111561381657600080fd5b8601601f8101881361382757600080fd5b80356138356136f08261363d565b81815260059190911b8201840190848101908a83111561385457600080fd5b8584015b8381101561388c578035868111156138705760008081fd5b61387e8d89838901016136cf565b845250918601918601613858565b50965050505060408601359150808211156138a657600080fd5b506138b38682870161375e565b9150509250925092565b80356001600160a01b0381168114611c4d57600080fd5b600082601f8301126138e557600080fd5b813560206138f56136f08361363d565b82815260059290921b8401810191818101908684111561391457600080fd5b8286015b8481101561375357613929816138bd565b8352918301918301613918565b600082601f83011261394757600080fd5b813560206139576136f08361363d565b82815260059290921b8401810191818101908684111561397657600080fd5b8286015b84811015613753578035835291830191830161397a565b600080600080600080600080610100898b0312156139ae57600080fd5b88356001600160401b03808211156139c557600080fd5b6139d18c838d01613660565b995060208b01359150808211156139e757600080fd5b6139f38c838d016138d4565b985060408b0135915080821115613a0957600080fd5b613a158c838d01613936565b975060608b0135915080821115613a2b57600080fd5b613a378c838d016136cf565b965060808b0135915080821115613a4d57600080fd5b50613a5a8b828c01613660565b94505060a08901359250613a7060c08a016138bd565b915060e089013590509295985092959890939650565b60005b83811015613aa1578181015183820152602001613a89565b50506000910152565b60008151808452613ac2816020860160208601613a86565b601f01601f19169290920160200192915050565b602081526000613ae96020830184613aaa565b9392505050565b600060208284031215613b0257600080fd5b613ae9826138bd565b600060208284031215613b1d57600080fd5b81356001600160401b03811115613b3357600080fd5b61088e84828501613660565b600081518084526020808501945080840160005b83811015613b785781516001600160a01b031687529582019590820190600101613b53565b509495945050505050565b600081518084526020808501945080840160005b83811015613b7857815187529582019590820190600101613b97565b600081518084526020808501808196508360051b8101915082860160005b85811015613bfb578284038952613be9848351613aaa565b98850198935090840190600101613bd1565b5091979650505050505050565b600081518084526020808501808196508360051b810191508286016000805b86811015613cab578385038a52825180516001600160a01b031686528681015187870152604080820151908701526060908101516080918701829052805191870182905287019060a087019084905b80821015613c965783518352928901929189019160019190910190613c76565b50509a87019a95505091850191600101613c27565b509298975050505050505050565b60208152613cd36020820183516001600160a01b03169052565b60006020830151610180806040850152613cf16101a0850183613b3f565b91506040850151601f1980868503016060870152613d0f8483613b83565b93506060870151915080868503016080870152613d2c8483613bb3565b935060808701519150808685030160a0870152613d498483613aaa565b935060a087015160c087015260c08701519150808685030160e0870152613d708483613c08565b935060e08701519150610100613d898188018415159052565b8701519150610120613da5878201846001600160a01b03169052565b8701516101408781019190915287015161016080880191909152870151868503909101838701529050613dd88382613aaa565b9695505050505050565b60008083601f840112613df457600080fd5b5081356001600160401b03811115613e0b57600080fd5b6020830191508360208260051b8501011115613e2657600080fd5b9250929050565b60008060008060408587031215613e4357600080fd5b84356001600160401b0380821115613e5a57600080fd5b613e6688838901613de2565b90965094506020870135915080821115613e7f57600080fd5b50613e8c87828801613de2565b95989497509550505050565b60008060008060008060c08789031215613eb157600080fd5b86356001600160401b0380821115613ec857600080fd5b613ed48a838b01613660565b97506020890135915080821115613eea57600080fd5b613ef68a838b016138d4565b96506040890135915080821115613f0c57600080fd5b613f188a838b01613936565b95506060890135915080821115613f2e57600080fd5b613f3a8a838b016136cf565b94506080890135915080821115613f5057600080fd5b50613f5d89828a01613660565b92505060a087013590509295509295509295565b600060208284031215613f8357600080fd5b5035919050565b634e487b7160e01b600052602160045260246000fd5b600081518084526020808501808196508360051b8101915082860160005b85811015613bfb578284038952613fd6848351613bb3565b98850198935090840190600101613fbe565b6000602080835283516060828501526140046080850182613bb3565b82860151601f198683038101604088015281518084529185019350600092909190850190835b818110156140625785516003811061405057634e487b7160e01b86526021600452602486fd5b8352948601949186019160010161402a565b5050604088015194508187820301606088015261407f8186613fa0565b98975050505050505050565b602081526000613ae96020830184613bb3565b602081526000613ae96020830184613b3f565b6000602082840312156140c357600080fd5b81356001600160401b038111156140d957600080fd5b82016101408185031215613ae957600080fd5b60208082526012908201527110dbdb9d1c9858dd081a5cc81c185d5cd95960721b604082015260600190565b634e487b7160e01b600052601160045260246000fd5b8082018082111561268157612681614118565b8181038181111561268157612681614118565b60008451614166818460208901613a86565b8083019050601760f91b8082528551614186816001850160208a01613a86565b600192019182015283516141a1816002840160208801613a86565b0160020195945050505050565b600082516141c0818460208701613a86565b9190910192915050565b600181811c908216806141de57607f821691505b6020821081036141fe57634e487b7160e01b600052602260045260246000fd5b50919050565b634e487b7160e01b600052603260045260246000fd5b6000823561013e198336030181126141c057600080fd5b60006001820161424357614243614118565b5060010190565b634e487b7160e01b600052603160045260246000fd5b808202811582820484141761268157612681614118565b8015158114611cdc57600080fd5b60006020828403121561429757600080fd5b8151613ae981614277565b601f8211156142e857600081815260208120601f850160051c810160208610156142c95750805b601f850160051c820191505b81811015611149578281556001016142d5565b505050565b81516001600160401b03811115614306576143066135f7565b61431a8161431484546141ca565b846142a2565b602080601f83116001811461434f57600084156143375750858301515b600019600386901b1c1916600185901b178555611149565b600085815260208120601f198616915b8281101561437e5788860151825594840194600190910190840161435f565b508582101561439c5787850151600019600388901b60f8161c191681555b5050505050600190811b01905550565b6000808335601e198436030181126143c357600080fd5b8301803591506001600160401b038211156143dd57600080fd5b602001915036819003821315613e2657600080fd5b6000806000806080858703121561440857600080fd5b84356001600160401b038082111561441f57600080fd5b61442b88838901613660565b955060208701359450604087013591508082111561444857600080fd5b614454888389016136cf565b9350606087013591508082111561446a57600080fd5b5061447787828801613660565b91505092959194509250565b80356001600160401b0381168114611c4d57600080fd5b8035611c4d81614277565b6000808335601e198436030181126144bc57600080fd5b83016020810192503590506001600160401b038111156144db57600080fd5b803603821315613e2657600080fd5b81835281816020850137506000828201602090810191909152601f909101601f19169091010190565b604081528235604082015260208301356060820152600061453660408501614483565b6001600160401b0316608083015261455060608501614483565b6001600160401b031660a083015261456a60808501614483565b6001600160401b03811660c08401525060a084013560e083015261459060c085016138bd565b6101006145a7818501836001600160a01b03169052565b6145b360e087016138bd565b91506101206145cc818601846001600160a01b03169052565b6145d782880161449a565b925061014091506145eb8286018415159052565b6145f7818801886144a5565b9350905081610160860152614611610180860184836144ea565b9250505082810360208401526146278185613aaa565b95945050505050565b60008060006060848603121561464557600080fd5b83356001600160401b038082111561465c57600080fd5b61466887838801613660565b945060208601359350604086013591508082111561468557600080fd5b506138b386828701613660565b60008083546146a0816141ca565b600182811680156146b857600181146146cd576146fc565b60ff19841687528215158302870194506146fc565b8760005260208060002060005b858110156146f35781548a8201529084019082016146da565b50505082870194505b5092969550505050505056fea26469706673582212202988bb112d229c86a68660ba1a9abf84c0f29bbd32aa740337bd698064c5bf3c64736f6c63430008130033",
			"opcodes": "PUSH2 0x140 PUSH1 0x40 MSTORE PUSH1 0x3 PUSH2 0x100 SWAP1 DUP2 MSTORE PUSH3 0x181719 PUSH1 0xE9 SHL PUSH2 0x120 MSTORE PUSH1 0x8 SWAP1 PUSH3 0x27 SWAP1 DUP3 PUSH3 0x1F0 JUMP JUMPDEST POP PUSH1 0x9 DUP1 SLOAD PUSH1 0xFF NOT AND PUSH1 0x1 OR SWAP1 SSTORE CALLVALUE DUP1 ISZERO PUSH3 0x42 JUMPI PUSH1 0x0 DUP1 REVERT JUMPDEST POP PUSH1 0x40 MLOAD PUSH3 0x4A66 CODESIZE SUB DUP1 PUSH3 0x4A66 DUP4 CODECOPY DUP2 ADD PUSH1 0x40 DUP2 SWAP1 MSTORE PUSH3 0x65 SWAP2 PUSH3 0x2BC JUMP JUMPDEST PUSH1 0x1 PUSH1 0x80 MSTORE PUSH1 0x0 PUSH1 0xA0 DUP2 SWAP1 MSTORE PUSH1 0xC0 MSTORE DUP1 PUSH1 0x1 PUSH1 0x1 PUSH1 0xA0 SHL SUB DUP2 AND PUSH3 0x9D JUMPI PUSH1 0x40 MLOAD PUSH4 0x41BC07FF PUSH1 0xE1 SHL DUP2 MSTORE PUSH1 0x4 ADD PUSH1 0x40 MLOAD DUP1 SWAP2 SUB SWAP1 REVERT JUMPDEST PUSH1 0x1 PUSH1 0x1 PUSH1 0xA0 SHL SUB AND PUSH1 0xE0 MSTORE PUSH3 0xB4 CALLER PUSH3 0xFB JUMP JUMPDEST POP PUSH1 0x5 DUP1 SLOAD PUSH1 0x1 DUP2 ADD DUP3 SSTORE PUSH1 0x0 SWAP2 SWAP1 SWAP2 MSTORE PUSH32 0x36B6384B5ECA791C62761152D0C79BB0604C104A5FB6F4EB0703F3154BB3DB0 ADD DUP1 SLOAD PUSH1 0x1 PUSH1 0x1 PUSH1 0xA0 SHL SUB NOT AND SWAP1 SSTORE PUSH3 0x2EE JUMP JUMPDEST PUSH1 0x0 DUP1 SLOAD PUSH1 0x1 PUSH1 0x1 PUSH1 0xA0 SHL SUB DUP4 DUP2 AND PUSH1 0x1 PUSH1 0x1 PUSH1 0xA0 SHL SUB NOT DUP4 AND DUP2 OR DUP5 SSTORE PUSH1 0x40 MLOAD SWAP2 SWAP1 SWAP3 AND SWAP3 DUP4 SWAP2 PUSH32 0x8BE0079C531659141344CD1FD0A4F28419497F9722A3DAAFE3B4186F6B6457E0 SWAP2 SWAP1 LOG3 POP POP JUMP JUMPDEST PUSH4 0x4E487B71 PUSH1 0xE0 SHL PUSH1 0x0 MSTORE PUSH1 0x41 PUSH1 0x4 MSTORE PUSH1 0x24 PUSH1 0x0 REVERT JUMPDEST PUSH1 0x1 DUP2 DUP2 SHR SWAP1 DUP3 AND DUP1 PUSH3 0x176 JUMPI PUSH1 0x7F DUP3 AND SWAP2 POP JUMPDEST PUSH1 0x20 DUP3 LT DUP2 SUB PUSH3 0x197 JUMPI PUSH4 0x4E487B71 PUSH1 0xE0 SHL PUSH1 0x0 MSTORE PUSH1 0x22 PUSH1 0x4 MSTORE PUSH1 0x24 PUSH1 0x0 REVERT JUMPDEST POP SWAP2 SWAP1 POP JUMP JUMPDEST PUSH1 0x1F DUP3 GT ISZERO PUSH3 0x1EB JUMPI PUSH1 0x0 DUP2 DUP2 MSTORE PUSH1 0x20 DUP2 KECCAK256 PUSH1 0x1F DUP6 ADD PUSH1 0x5 SHR DUP2 ADD PUSH1 0x20 DUP7 LT ISZERO PUSH3 0x1C6 JUMPI POP DUP1 JUMPDEST PUSH1 0x1F DUP6 ADD PUSH1 0x5 SHR DUP3 ADD SWAP2 POP JUMPDEST DUP2 DUP2 LT ISZERO PUSH3 0x1E7 JUMPI DUP3 DUP2 SSTORE PUSH1 0x1 ADD PUSH3 0x1D2 JUMP JUMPDEST POP POP POP JUMPDEST POP POP POP JUMP JUMPDEST DUP2 MLOAD PUSH1 0x1 PUSH1 0x1 PUSH1 0x40 SHL SUB DUP2 GT ISZERO PUSH3 0x20C JUMPI PUSH3 0x20C PUSH3 0x14B JUMP JUMPDEST PUSH3 0x224 DUP2 PUSH3 0x21D DUP5 SLOAD PUSH3 0x161 JUMP JUMPDEST DUP5 PUSH3 0x19D JUMP JUMPDEST PUSH1 0x20 DUP1 PUSH1 0x1F DUP4 GT PUSH1 0x1 DUP2 EQ PUSH3 0x25C JUMPI PUSH1 0x0 DUP5 ISZERO PUSH3 0x243 JUMPI POP DUP6 DUP4 ADD MLOAD JUMPDEST PUSH1 0x0 NOT PUSH1 0x3 DUP7 SWAP1 SHL SHR NOT AND PUSH1 0x1 DUP6 SWAP1 SHL OR DUP6 SSTORE PUSH3 0x1E7 JUMP JUMPDEST PUSH1 0x0 DUP6 DUP2 MSTORE PUSH1 0x20 DUP2 KECCAK256 PUSH1 0x1F NOT DUP7 AND SWAP2 JUMPDEST DUP3 DUP2 LT ISZERO PUSH3 0x28D JUMPI DUP9 DUP7 ADD MLOAD DUP3 SSTORE SWAP5 DUP5 ADD SWAP5 PUSH1 0x1 SWAP1 SWAP2 ADD SWAP1 DUP5 ADD PUSH3 0x26C JUMP JUMPDEST POP DUP6 DUP3 LT ISZERO PUSH3 0x2AC JUMPI DUP8 DUP6 ADD MLOAD PUSH1 0x0 NOT PUSH1 0x3 DUP9 SWAP1 SHL PUSH1 0xF8 AND SHR NOT AND DUP2 SSTORE JUMPDEST POP POP POP POP POP PUSH1 0x1 SWAP1 DUP2 SHL ADD SWAP1 SSTORE POP JUMP JUMPDEST PUSH1 0x0 PUSH1 0x20 DUP3 DUP5 SUB SLT ISZERO PUSH3 0x2CF JUMPI PUSH1 0x0 DUP1 REVERT JUMPDEST DUP2 MLOAD PUSH1 0x1 PUSH1 0x1 PUSH1 0xA0 SHL SUB DUP2 AND DUP2 EQ PUSH3 0x2E7 JUMPI PUSH1 0x0 DUP1 REVERT JUMPDEST SWAP4 SWAP3 POP POP POP JUMP JUMPDEST PUSH1 0x80 MLOAD PUSH1 0xA0 MLOAD PUSH1 0xC0 MLOAD PUSH1 0xE0 MLOAD PUSH2 0x473E PUSH3 0x328 PUSH1 0x0 CODECOPY PUSH1 0x0 PUSH2 0x2640 ADD MSTORE PUSH1 0x0 PUSH2 0x942 ADD MSTORE PUSH1 0x0 PUSH2 0x919 ADD MSTORE PUSH1 0x0 PUSH2 0x8F0 ADD MSTORE PUSH2 0x473E PUSH1 0x0 RETURN INVALID PUSH1 0x80 PUSH1 0x40 MSTORE PUSH1 0x4 CALLDATASIZE LT PUSH2 0x1E7 JUMPI PUSH1 0x0 CALLDATALOAD PUSH1 0xE0 SHR DUP1 PUSH4 0xA0A8E460 GT PUSH2 0x102 JUMPI DUP1 PUSH4 0xBE2761D0 GT PUSH2 0x95 JUMPI DUP1 PUSH4 0xE26F7900 GT PUSH2 0x64 JUMPI DUP1 PUSH4 0xE26F7900 EQ PUSH2 0x55C JUMPI DUP1 PUSH4 0xE49617E1 EQ PUSH2 0x57E JUMPI DUP1 PUSH4 0xE60C3505 EQ PUSH2 0x591 JUMPI DUP1 PUSH4 0xF2FDE38B EQ PUSH2 0x5A4 JUMPI PUSH1 0x0 DUP1 REVERT JUMPDEST DUP1 PUSH4 0xBE2761D0 EQ PUSH2 0x4E6 JUMPI DUP1 PUSH4 0xCE46E046 EQ PUSH2 0x506 JUMPI DUP1 PUSH4 0xD627D25E EQ PUSH2 0x51A JUMPI DUP1 PUSH4 0xDD526054 EQ PUSH2 0x53A JUMPI PUSH1 0x0 DUP1 REVERT JUMPDEST DUP1 PUSH4 0xB5AF090F GT PUSH2 0xD1 JUMPI DUP1 PUSH4 0xB5AF090F EQ PUSH2 0x466 JUMPI DUP1 PUSH4 0xB6FC76AF EQ PUSH2 0x486 JUMPI DUP1 PUSH4 0xB8B23C17 EQ PUSH2 0x4A6 JUMPI DUP1 PUSH4 0xBD7E2AA4 EQ PUSH2 0x4C6 JUMPI PUSH1 0x0 DUP1 REVERT JUMPDEST DUP1 PUSH4 0xA0A8E460 EQ PUSH2 0x3E4 JUMPI DUP1 PUSH4 0xA940B874 EQ PUSH2 0x3F9 JUMPI DUP1 PUSH4 0xABE1D7F3 EQ PUSH2 0x419 JUMPI DUP1 PUSH4 0xB4E137CD EQ PUSH2 0x439 JUMPI PUSH1 0x0 DUP1 REVERT JUMPDEST DUP1 PUSH4 0x7A35AAA9 GT PUSH2 0x17A JUMPI DUP1 PUSH4 0x88E5B2D9 GT PUSH2 0x149 JUMPI DUP1 PUSH4 0x88E5B2D9 EQ PUSH2 0x376 JUMPI DUP1 PUSH4 0x8DA5CB5B EQ PUSH2 0x389 JUMPI DUP1 PUSH4 0x9128B0D8 EQ PUSH2 0x3BB JUMPI DUP1 PUSH4 0x91DB0B7E EQ PUSH2 0x3D1 JUMPI PUSH1 0x0 DUP1 REVERT JUMPDEST DUP1 PUSH4 0x7A35AAA9 EQ PUSH2 0x2FE JUMPI DUP1 PUSH4 0x8456CB59 EQ PUSH2 0x31E JUMPI DUP1 PUSH4 0x85B92413 EQ PUSH2 0x333 JUMPI DUP1 PUSH4 0x86BE6D51 EQ PUSH2 0x360 JUMPI PUSH1 0x0 DUP1 REVERT JUMPDEST DUP1 PUSH4 0x5C975ABB GT PUSH2 0x1B6 JUMPI DUP1 PUSH4 0x5C975ABB EQ PUSH2 0x289 JUMPI DUP1 PUSH4 0x6247F6F2 EQ PUSH2 0x2B3 JUMPI DUP1 PUSH4 0x715018A6 EQ PUSH2 0x2D3 JUMPI DUP1 PUSH4 0x74987060 EQ PUSH2 0x2E8 JUMPI PUSH1 0x0 DUP1 REVERT JUMPDEST DUP1 PUSH4 0x677B535 EQ PUSH2 0x20C JUMPI DUP1 PUSH4 0x20DE0462 EQ PUSH2 0x23F JUMPI DUP1 PUSH4 0x3F4BA83A EQ PUSH2 0x252 JUMPI DUP1 PUSH4 0x54FD4D50 EQ PUSH2 0x267 JUMPI PUSH1 0x0 DUP1 REVERT JUMPDEST CALLDATASIZE PUSH2 0x207 JUMPI PUSH1 0x40 MLOAD PUSH4 0x1574F9F3 PUSH1 0xE0 SHL DUP2 MSTORE PUSH1 0x4 ADD PUSH1 0x40 MLOAD DUP1 SWAP2 SUB SWAP1 REVERT JUMPDEST STOP JUMPDEST PUSH1 0x0 DUP1 REVERT JUMPDEST CALLVALUE DUP1 ISZERO PUSH2 0x218 JUMPI PUSH1 0x0 DUP1 REVERT JUMPDEST POP PUSH2 0x22C PUSH2 0x227 CALLDATASIZE PUSH1 0x4 PUSH2 0x37C7 JUMP JUMPDEST PUSH2 0x5C4 JUMP JUMPDEST PUSH1 0x40 MLOAD SWAP1 DUP2 MSTORE PUSH1 0x20 ADD JUMPDEST PUSH1 0x40 MLOAD DUP1 SWAP2 SUB SWAP1 RETURN JUMPDEST PUSH2 0x205 PUSH2 0x24D CALLDATASIZE PUSH1 0x4 PUSH2 0x3991 JUMP JUMPDEST PUSH2 0x896 JUMP JUMPDEST CALLVALUE DUP1 ISZERO PUSH2 0x25E JUMPI PUSH1 0x0 DUP1 REVERT JUMPDEST POP PUSH2 0x205 PUSH2 0x8D5 JUMP JUMPDEST CALLVALUE DUP1 ISZERO PUSH2 0x273 JUMPI PUSH1 0x0 DUP1 REVERT JUMPDEST POP PUSH2 0x27C PUSH2 0x8E9 JUMP JUMPDEST PUSH1 0x40 MLOAD PUSH2 0x236 SWAP2 SWAP1 PUSH2 0x3AD6 JUMP JUMPDEST CALLVALUE DUP1 ISZERO PUSH2 0x295 JUMPI PUSH1 0x0 DUP1 REVERT JUMPDEST POP PUSH1 0x9 SLOAD PUSH2 0x2A3 SWAP1 PUSH1 0xFF AND DUP2 JUMP JUMPDEST PUSH1 0x40 MLOAD SWAP1 ISZERO ISZERO DUP2 MSTORE PUSH1 0x20 ADD PUSH2 0x236 JUMP JUMPDEST CALLVALUE DUP1 ISZERO PUSH2 0x2BF JUMPI PUSH1 0x0 DUP1 REVERT JUMPDEST POP PUSH2 0x205 PUSH2 0x2CE CALLDATASIZE PUSH1 0x4 PUSH2 0x3AF0 JUMP JUMPDEST PUSH2 0x98C JUMP JUMPDEST CALLVALUE DUP1 ISZERO PUSH2 0x2DF JUMPI PUSH1 0x0 DUP1 REVERT JUMPDEST POP PUSH2 0x205 PUSH2 0xA3C JUMP JUMPDEST CALLVALUE DUP1 ISZERO PUSH2 0x2F4 JUMPI PUSH1 0x0 DUP1 REVERT JUMPDEST POP PUSH2 0x22C PUSH1 0x4 SLOAD DUP2 JUMP JUMPDEST CALLVALUE DUP1 ISZERO PUSH2 0x30A JUMPI PUSH1 0x0 DUP1 REVERT JUMPDEST POP PUSH2 0x205 PUSH2 0x319 CALLDATASIZE PUSH1 0x4 PUSH2 0x3AF0 JUMP JUMPDEST PUSH2 0xA50 JUMP JUMPDEST CALLVALUE DUP1 ISZERO PUSH2 0x32A JUMPI PUSH1 0x0 DUP1 REVERT JUMPDEST POP PUSH2 0x205 PUSH2 0xA7A JUMP JUMPDEST CALLVALUE DUP1 ISZERO PUSH2 0x33F JUMPI PUSH1 0x0 DUP1 REVERT JUMPDEST POP PUSH2 0x353 PUSH2 0x34E CALLDATASIZE PUSH1 0x4 PUSH2 0x3B0B JUMP JUMPDEST PUSH2 0xAB4 JUMP JUMPDEST PUSH1 0x40 MLOAD PUSH2 0x236 SWAP2 SWAP1 PUSH2 0x3CB9 JUMP JUMPDEST CALLVALUE DUP1 ISZERO PUSH2 0x36C JUMPI PUSH1 0x0 DUP1 REVERT JUMPDEST POP PUSH2 0x22C PUSH1 0x7 SLOAD DUP2 JUMP JUMPDEST PUSH2 0x2A3 PUSH2 0x384 CALLDATASIZE PUSH1 0x4 PUSH2 0x3E2D JUMP JUMPDEST PUSH2 0xF39 JUMP JUMPDEST CALLVALUE DUP1 ISZERO PUSH2 0x395 JUMPI PUSH1 0x0 DUP1 REVERT JUMPDEST POP PUSH1 0x0 SLOAD PUSH1 0x1 PUSH1 0x1 PUSH1 0xA0 SHL SUB AND JUMPDEST PUSH1 0x40 MLOAD PUSH1 0x1 PUSH1 0x1 PUSH1 0xA0 SHL SUB SWAP1 SWAP2 AND DUP2 MSTORE PUSH1 0x20 ADD PUSH2 0x236 JUMP JUMPDEST CALLVALUE DUP1 ISZERO PUSH2 0x3C7 JUMPI PUSH1 0x0 DUP1 REVERT JUMPDEST POP PUSH2 0x22C PUSH1 0x3 SLOAD DUP2 JUMP JUMPDEST PUSH2 0x2A3 PUSH2 0x3DF CALLDATASIZE PUSH1 0x4 PUSH2 0x3E2D JUMP JUMPDEST PUSH2 0xFE6 JUMP JUMPDEST CALLVALUE DUP1 ISZERO PUSH2 0x3F0 JUMPI PUSH1 0x0 DUP1 REVERT JUMPDEST POP PUSH2 0x27C PUSH2 0x1085 JUMP JUMPDEST CALLVALUE DUP1 ISZERO PUSH2 0x405 JUMPI PUSH1 0x0 DUP1 REVERT JUMPDEST POP PUSH2 0x205 PUSH2 0x414 CALLDATASIZE PUSH1 0x4 PUSH2 0x3E98 JUMP JUMPDEST PUSH2 0x1113 JUMP JUMPDEST CALLVALUE DUP1 ISZERO PUSH2 0x425 JUMPI PUSH1 0x0 DUP1 REVERT JUMPDEST POP PUSH2 0x205 PUSH2 0x434 CALLDATASIZE PUSH1 0x4 PUSH2 0x3F71 JUMP JUMPDEST PUSH2 0x1151 JUMP JUMPDEST CALLVALUE DUP1 ISZERO PUSH2 0x445 JUMPI PUSH1 0x0 DUP1 REVERT JUMPDEST POP PUSH2 0x459 PUSH2 0x454 CALLDATASIZE PUSH1 0x4 PUSH2 0x3B0B JUMP JUMPDEST PUSH2 0x115E JUMP JUMPDEST PUSH1 0x40 MLOAD PUSH2 0x236 SWAP2 SWAP1 PUSH2 0x3FE8 JUMP JUMPDEST CALLVALUE DUP1 ISZERO PUSH2 0x472 JUMPI PUSH1 0x0 DUP1 REVERT JUMPDEST POP PUSH2 0x2A3 PUSH2 0x481 CALLDATASIZE PUSH1 0x4 PUSH2 0x3AF0 JUMP JUMPDEST PUSH2 0x145C JUMP JUMPDEST CALLVALUE DUP1 ISZERO PUSH2 0x492 JUMPI PUSH1 0x0 DUP1 REVERT JUMPDEST POP PUSH2 0x459 PUSH2 0x4A1 CALLDATASIZE PUSH1 0x4 PUSH2 0x3F71 JUMP JUMPDEST PUSH2 0x14C5 JUMP JUMPDEST CALLVALUE DUP1 ISZERO PUSH2 0x4B2 JUMPI PUSH1 0x0 DUP1 REVERT JUMPDEST POP PUSH2 0x205 PUSH2 0x4C1 CALLDATASIZE PUSH1 0x4 PUSH2 0x3F71 JUMP JUMPDEST PUSH2 0x179C JUMP JUMPDEST CALLVALUE DUP1 ISZERO PUSH2 0x4D2 JUMPI PUSH1 0x0 DUP1 REVERT JUMPDEST POP PUSH1 0x1 SLOAD PUSH2 0x3A3 SWAP1 PUSH1 0x1 PUSH1 0x1 PUSH1 0xA0 SHL SUB AND DUP2 JUMP JUMPDEST CALLVALUE DUP1 ISZERO PUSH2 0x4F2 JUMPI PUSH1 0x0 DUP1 REVERT JUMPDEST POP PUSH2 0x205 PUSH2 0x501 CALLDATASIZE PUSH1 0x4 PUSH2 0x3B0B JUMP JUMPDEST PUSH2 0x17A9 JUMP JUMPDEST CALLVALUE DUP1 ISZERO PUSH2 0x512 JUMPI PUSH1 0x0 DUP1 REVERT JUMPDEST POP PUSH1 0x0 PUSH2 0x2A3 JUMP JUMPDEST CALLVALUE DUP1 ISZERO PUSH2 0x526 JUMPI PUSH1 0x0 DUP1 REVERT JUMPDEST POP PUSH2 0x205 PUSH2 0x535 CALLDATASIZE PUSH1 0x4 PUSH2 0x3AF0 JUMP JUMPDEST PUSH2 0x199A JUMP JUMPDEST CALLVALUE DUP1 ISZERO PUSH2 0x546 JUMPI PUSH1 0x0 DUP1 REVERT JUMPDEST POP PUSH2 0x54F PUSH2 0x1AFB JUMP JUMPDEST PUSH1 0x40 MLOAD PUSH2 0x236 SWAP2 SWAP1 PUSH2 0x408B JUMP JUMPDEST CALLVALUE DUP1 ISZERO PUSH2 0x568 JUMPI PUSH1 0x0 DUP1 REVERT JUMPDEST POP PUSH2 0x571 PUSH2 0x1BD4 JUMP JUMPDEST PUSH1 0x40 MLOAD PUSH2 0x236 SWAP2 SWAP1 PUSH2 0x409E JUMP JUMPDEST PUSH2 0x2A3 PUSH2 0x58C CALLDATASIZE PUSH1 0x4 PUSH2 0x40B1 JUMP JUMPDEST PUSH2 0x1C36 JUMP JUMPDEST PUSH2 0x2A3 PUSH2 0x59F CALLDATASIZE PUSH1 0x4 PUSH2 0x40B1 JUMP JUMPDEST PUSH2 0x1C52 JUMP JUMPDEST CALLVALUE DUP1 ISZERO PUSH2 0x5B0 JUMPI PUSH1 0x0 DUP1 REVERT JUMPDEST POP PUSH2 0x205 PUSH2 0x5BF CALLDATASIZE PUSH1 0x4 PUSH2 0x3AF0 JUMP JUMPDEST PUSH2 0x1C66 JUMP JUMPDEST PUSH1 0x9 SLOAD PUSH1 0x0 SWAP1 PUSH1 0xFF AND ISZERO PUSH2 0x5F3 JUMPI PUSH1 0x40 MLOAD PUSH3 0x461BCD PUSH1 0xE5 SHL DUP2 MSTORE PUSH1 0x4 ADD PUSH2 0x5EA SWAP1 PUSH2 0x40EC JUMP JUMPDEST PUSH1 0x40 MLOAD DUP1 SWAP2 SUB SWAP1 REVERT JUMPDEST PUSH1 0x0 DUP5 MLOAD GT PUSH2 0x644 JUMPI PUSH1 0x40 MLOAD PUSH3 0x461BCD PUSH1 0xE5 SHL DUP2 MSTORE PUSH1 0x20 PUSH1 0x4 DUP3 ADD MSTORE PUSH1 0x1F PUSH1 0x24 DUP3 ADD MSTORE PUSH32 0x4465726573793A205175657374696F6E732063616E2774206265206E756C6C00 PUSH1 0x44 DUP3 ADD MSTORE PUSH1 0x64 ADD PUSH2 0x5EA JUMP JUMPDEST PUSH1 0x0 DUP3 MLOAD GT PUSH2 0x6A1 JUMPI PUSH1 0x40 MLOAD PUSH3 0x461BCD PUSH1 0xE5 SHL DUP2 MSTORE PUSH1 0x20 PUSH1 0x4 DUP3 ADD MSTORE PUSH1 0x24 DUP1 DUP3 ADD MSTORE PUSH32 0x4465726573793A205175657374696F6E2054797065732063616E277420626520 PUSH1 0x44 DUP3 ADD MSTORE PUSH4 0x1B9D5B1B PUSH1 0xE2 SHL PUSH1 0x64 DUP3 ADD MSTORE PUSH1 0x84 ADD PUSH2 0x5EA JUMP JUMPDEST DUP4 MLOAD DUP3 MLOAD EQ PUSH2 0x710 JUMPI PUSH1 0x40 MLOAD PUSH3 0x461BCD PUSH1 0xE5 SHL DUP2 MSTORE PUSH1 0x20 PUSH1 0x4 DUP3 ADD MSTORE PUSH1 0x35 PUSH1 0x24 DUP3 ADD MSTORE PUSH32 0x4465726573793A205175657374696F6E7320616E64207479706573206D757374 PUSH1 0x44 DUP3 ADD MSTORE PUSH21 0x40D0C2ECCA40E8D0CA40E6C2DACA40D8CADCCEE8D PUSH1 0x5B SHL PUSH1 0x64 DUP3 ADD MSTORE PUSH1 0x84 ADD PUSH2 0x5EA JUMP JUMPDEST DUP3 MLOAD DUP5 MLOAD EQ PUSH2 0x787 JUMPI PUSH1 0x40 MLOAD PUSH3 0x461BCD PUSH1 0xE5 SHL DUP2 MSTORE PUSH1 0x20 PUSH1 0x4 DUP3 ADD MSTORE PUSH1 0x37 PUSH1 0x24 DUP3 ADD MSTORE PUSH32 0x4465726573793A205175657374696F6E7320616E642063686F69636573206D75 PUSH1 0x44 DUP3 ADD MSTORE PUSH32 0x73742068617665207468652073616D65206C656E677468000000000000000000 PUSH1 0x64 DUP3 ADD MSTORE PUSH1 0x84 ADD PUSH2 0x5EA JUMP JUMPDEST PUSH1 0x40 DUP1 MLOAD PUSH1 0x60 DUP2 ADD DUP3 MSTORE DUP6 DUP2 MSTORE PUSH1 0x20 DUP1 DUP3 ADD DUP6 SWAP1 MSTORE SWAP2 DUP2 ADD DUP6 SWAP1 MSTORE PUSH1 0xA DUP1 SLOAD PUSH1 0x1 DUP2 ADD DUP3 SSTORE PUSH1 0x0 SWAP2 SWAP1 SWAP2 MSTORE DUP2 MLOAD DUP1 MLOAD SWAP3 SWAP4 PUSH1 0x3 SWAP1 SWAP3 MUL PUSH32 0xC65A7BB8D6351C1CF70C95A316CC6A92839C986682D98BC35F958F4883F9D2A8 ADD SWAP3 PUSH2 0x7ED SWAP3 DUP5 SWAP3 ADD SWAP1 PUSH2 0x3361 JUMP JUMPDEST POP PUSH1 0x20 DUP3 DUP2 ADD MLOAD DUP1 MLOAD PUSH2 0x806 SWAP3 PUSH1 0x1 DUP6 ADD SWAP3 ADD SWAP1 PUSH2 0x33B7 JUMP JUMPDEST POP PUSH1 0x40 DUP3 ADD MLOAD DUP1 MLOAD PUSH2 0x822 SWAP2 PUSH1 0x2 DUP5 ADD SWAP2 PUSH1 0x20 SWAP1 SWAP2 ADD SWAP1 PUSH2 0x3467 JUMP JUMPDEST POP POP POP PUSH1 0x1 PUSH1 0x7 PUSH1 0x0 DUP3 DUP3 SLOAD PUSH2 0x838 SWAP2 SWAP1 PUSH2 0x412E JUMP JUMPDEST SWAP1 SWAP2 SSTORE POP POP PUSH1 0xA SLOAD PUSH32 0x2CA1C706B776FC626B1E93B556D8968577908C5FEE79CA88376ADE10B781019C SWAP1 PUSH2 0x86E SWAP1 PUSH1 0x1 SWAP1 PUSH2 0x4141 JUMP JUMPDEST PUSH1 0x40 MLOAD SWAP1 DUP2 MSTORE PUSH1 0x20 ADD PUSH1 0x40 MLOAD DUP1 SWAP2 SUB SWAP1 LOG1 PUSH1 0xA SLOAD PUSH2 0x88E SWAP1 PUSH1 0x1 SWAP1 PUSH2 0x4141 JUMP JUMPDEST SWAP5 SWAP4 POP POP POP POP JUMP JUMPDEST PUSH1 0x9 SLOAD PUSH1 0xFF AND ISZERO PUSH2 0x8B9 JUMPI PUSH1 0x40 MLOAD PUSH3 0x461BCD PUSH1 0xE5 SHL DUP2 MSTORE PUSH1 0x4 ADD PUSH2 0x5EA SWAP1 PUSH2 0x40EC JUMP JUMPDEST PUSH2 0x8CB DUP9 DUP9 DUP9 DUP9 DUP9 DUP9 DUP8 DUP10 PUSH1 0x1 PUSH2 0x1CDF JUMP JUMPDEST POP POP POP POP POP POP POP POP JUMP JUMPDEST PUSH2 0x8DD PUSH2 0x24F9 JUMP JUMPDEST PUSH1 0x9 DUP1 SLOAD PUSH1 0xFF NOT AND SWAP1 SSTORE JUMP JUMPDEST PUSH1 0x60 PUSH2 0x914 PUSH32 0x0 PUSH2 0x2553 JUMP JUMPDEST PUSH2 0x93D PUSH32 0x0 PUSH2 0x2553 JUMP JUMPDEST PUSH2 0x966 PUSH32 0x0 PUSH2 0x2553 JUMP JUMPDEST PUSH1 0x40 MLOAD PUSH1 0x20 ADD PUSH2 0x978 SWAP4 SWAP3 SWAP2 SWAP1 PUSH2 0x4154 JUMP JUMPDEST PUSH1 0x40 MLOAD PUSH1 0x20 DUP2 DUP4 SUB SUB DUP2 MSTORE SWAP1 PUSH1 0x40 MSTORE SWAP1 POP SWAP1 JUMP JUMPDEST PUSH2 0x994 PUSH2 0x24F9 JUMP JUMPDEST PUSH2 0x99D DUP2 PUSH2 0x145C JUMP JUMPDEST ISZERO PUSH2 0x9EA JUMPI PUSH1 0x40 MLOAD PUSH3 0x461BCD PUSH1 0xE5 SHL DUP2 MSTORE PUSH1 0x20 PUSH1 0x4 DUP3 ADD MSTORE PUSH1 0x19 PUSH1 0x24 DUP3 ADD MSTORE PUSH32 0x546F6B656E20616C72656164792077686974656C697374656400000000000000 PUSH1 0x44 DUP3 ADD MSTORE PUSH1 0x64 ADD PUSH2 0x5EA JUMP JUMPDEST PUSH1 0x5 DUP1 SLOAD PUSH1 0x1 DUP2 ADD DUP3 SSTORE PUSH1 0x0 SWAP2 SWAP1 SWAP2 MSTORE PUSH32 0x36B6384B5ECA791C62761152D0C79BB0604C104A5FB6F4EB0703F3154BB3DB0 ADD DUP1 SLOAD PUSH1 0x1 PUSH1 0x1 PUSH1 0xA0 SHL SUB NOT AND PUSH1 0x1 PUSH1 0x1 PUSH1 0xA0 SHL SUB SWAP3 SWAP1 SWAP3 AND SWAP2 SWAP1 SWAP2 OR SWAP1 SSTORE JUMP JUMPDEST PUSH2 0xA44 PUSH2 0x24F9 JUMP JUMPDEST PUSH2 0xA4E PUSH1 0x0 PUSH2 0x25E5 JUMP JUMPDEST JUMP JUMPDEST PUSH2 0xA58 PUSH2 0x24F9 JUMP JUMPDEST PUSH1 0x1 DUP1 SLOAD PUSH1 0x1 PUSH1 0x1 PUSH1 0xA0 SHL SUB NOT AND PUSH1 0x1 PUSH1 0x1 PUSH1 0xA0 SHL SUB SWAP3 SWAP1 SWAP3 AND SWAP2 SWAP1 SWAP2 OR SWAP1 SSTORE JUMP JUMPDEST PUSH2 0xA82 PUSH2 0x24F9 JUMP JUMPDEST PUSH1 0x9 SLOAD PUSH1 0xFF AND ISZERO PUSH2 0xAA5 JUMPI PUSH1 0x40 MLOAD PUSH3 0x461BCD PUSH1 0xE5 SHL DUP2 MSTORE PUSH1 0x4 ADD PUSH2 0x5EA SWAP1 PUSH2 0x40EC JUMP JUMPDEST PUSH1 0x9 DUP1 SLOAD PUSH1 0xFF NOT AND PUSH1 0x1 OR SWAP1 SSTORE JUMP JUMPDEST PUSH2 0xB2C PUSH1 0x40 MLOAD DUP1 PUSH2 0x180 ADD PUSH1 0x40 MSTORE DUP1 PUSH1 0x0 PUSH1 0x1 PUSH1 0x1 PUSH1 0xA0 SHL SUB AND DUP2 MSTORE PUSH1 0x20 ADD PUSH1 0x60 DUP2 MSTORE PUSH1 0x20 ADD PUSH1 0x60 DUP2 MSTORE PUSH1 0x20 ADD PUSH1 0x60 DUP2 MSTORE PUSH1 0x20 ADD PUSH1 0x60 DUP2 MSTORE PUSH1 0x20 ADD PUSH1 0x0 DUP2 MSTORE PUSH1 0x20 ADD PUSH1 0x60 DUP2 MSTORE PUSH1 0x20 ADD PUSH1 0x0 ISZERO ISZERO DUP2 MSTORE PUSH1 0x20 ADD PUSH1 0x0 PUSH1 0x1 PUSH1 0x1 PUSH1 0xA0 SHL SUB AND DUP2 MSTORE PUSH1 0x20 ADD PUSH1 0x0 DUP2 MSTORE PUSH1 0x20 ADD PUSH1 0x0 DUP2 MSTORE PUSH1 0x20 ADD PUSH1 0x60 DUP2 MSTORE POP SWAP1 JUMP JUMPDEST PUSH1 0x2 DUP3 PUSH1 0x40 MLOAD PUSH2 0xB3C SWAP2 SWAP1 PUSH2 0x41AE JUMP JUMPDEST SWAP1 DUP2 MSTORE PUSH1 0x40 DUP1 MLOAD SWAP2 DUP3 SWAP1 SUB PUSH1 0x20 SWAP1 DUP2 ADD DUP4 KECCAK256 PUSH2 0x180 DUP5 ADD DUP4 MSTORE DUP1 SLOAD PUSH1 0x1 PUSH1 0x1 PUSH1 0xA0 SHL SUB AND DUP5 MSTORE PUSH1 0x1 DUP2 ADD DUP1 SLOAD DUP5 MLOAD DUP2 DUP6 MUL DUP2 ADD DUP6 ADD SWAP1 SWAP6 MSTORE DUP1 DUP6 MSTORE SWAP2 SWAP4 DUP6 DUP5 ADD SWAP4 SWAP1 SWAP3 SWAP1 DUP4 ADD DUP3 DUP3 DUP1 ISZERO PUSH2 0xBB9 JUMPI PUSH1 0x20 MUL DUP3 ADD SWAP2 SWAP1 PUSH1 0x0 MSTORE PUSH1 0x20 PUSH1 0x0 KECCAK256 SWAP1 JUMPDEST DUP2 SLOAD PUSH1 0x1 PUSH1 0x1 PUSH1 0xA0 SHL SUB AND DUP2 MSTORE PUSH1 0x1 SWAP1 SWAP2 ADD SWAP1 PUSH1 0x20 ADD DUP1 DUP4 GT PUSH2 0xB9B JUMPI JUMPDEST POP POP POP POP POP DUP2 MSTORE PUSH1 0x20 ADD PUSH1 0x2 DUP3 ADD DUP1 SLOAD DUP1 PUSH1 0x20 MUL PUSH1 0x20 ADD PUSH1 0x40 MLOAD SWAP1 DUP2 ADD PUSH1 0x40 MSTORE DUP1 SWAP3 SWAP2 SWAP1 DUP2 DUP2 MSTORE PUSH1 0x20 ADD DUP3 DUP1 SLOAD DUP1 ISZERO PUSH2 0xC11 JUMPI PUSH1 0x20 MUL DUP3 ADD SWAP2 SWAP1 PUSH1 0x0 MSTORE PUSH1 0x20 PUSH1 0x0 KECCAK256 SWAP1 JUMPDEST DUP2 SLOAD DUP2 MSTORE PUSH1 0x20 ADD SWAP1 PUSH1 0x1 ADD SWAP1 DUP1 DUP4 GT PUSH2 0xBFD JUMPI JUMPDEST POP POP POP POP POP DUP2 MSTORE PUSH1 0x20 ADD PUSH1 0x3 DUP3 ADD DUP1 SLOAD DUP1 PUSH1 0x20 MUL PUSH1 0x20 ADD PUSH1 0x40 MLOAD SWAP1 DUP2 ADD PUSH1 0x40 MSTORE DUP1 SWAP3 SWAP2 SWAP1 DUP2 DUP2 MSTORE PUSH1 0x20 ADD PUSH1 0x0 SWAP1 JUMPDEST DUP3 DUP3 LT ISZERO PUSH2 0xCEB JUMPI DUP4 DUP3 SWAP1 PUSH1 0x0 MSTORE PUSH1 0x20 PUSH1 0x0 KECCAK256 ADD DUP1 SLOAD PUSH2 0xC5E SWAP1 PUSH2 0x41CA JUMP JUMPDEST DUP1 PUSH1 0x1F ADD PUSH1 0x20 DUP1 SWAP2 DIV MUL PUSH1 0x20 ADD PUSH1 0x40 MLOAD SWAP1 DUP2 ADD PUSH1 0x40 MSTORE DUP1 SWAP3 SWAP2 SWAP1 DUP2 DUP2 MSTORE PUSH1 0x20 ADD DUP3 DUP1 SLOAD PUSH2 0xC8A SWAP1 PUSH2 0x41CA JUMP JUMPDEST DUP1 ISZERO PUSH2 0xCD7 JUMPI DUP1 PUSH1 0x1F LT PUSH2 0xCAC JUMPI PUSH2 0x100 DUP1 DUP4 SLOAD DIV MUL DUP4 MSTORE SWAP2 PUSH1 0x20 ADD SWAP2 PUSH2 0xCD7 JUMP JUMPDEST DUP3 ADD SWAP2 SWAP1 PUSH1 0x0 MSTORE PUSH1 0x20 PUSH1 0x0 KECCAK256 SWAP1 JUMPDEST DUP2 SLOAD DUP2 MSTORE SWAP1 PUSH1 0x1 ADD SWAP1 PUSH1 0x20 ADD DUP1 DUP4 GT PUSH2 0xCBA JUMPI DUP3 SWAP1 SUB PUSH1 0x1F AND DUP3 ADD SWAP2 JUMPDEST POP POP POP POP POP DUP2 MSTORE PUSH1 0x20 ADD SWAP1 PUSH1 0x1 ADD SWAP1 PUSH2 0xC3F JUMP JUMPDEST POP POP POP POP DUP2 MSTORE PUSH1 0x20 ADD PUSH1 0x4 DUP3 ADD DUP1 SLOAD PUSH2 0xD03 SWAP1 PUSH2 0x41CA JUMP JUMPDEST DUP1 PUSH1 0x1F ADD PUSH1 0x20 DUP1 SWAP2 DIV MUL PUSH1 0x20 ADD PUSH1 0x40 MLOAD SWAP1 DUP2 ADD PUSH1 0x40 MSTORE DUP1 SWAP3 SWAP2 SWAP1 DUP2 DUP2 MSTORE PUSH1 0x20 ADD DUP3 DUP1 SLOAD PUSH2 0xD2F SWAP1 PUSH2 0x41CA JUMP JUMPDEST DUP1 ISZERO PUSH2 0xD7C JUMPI DUP1 PUSH1 0x1F LT PUSH2 0xD51 JUMPI PUSH2 0x100 DUP1 DUP4 SLOAD DIV MUL DUP4 MSTORE SWAP2 PUSH1 0x20 ADD SWAP2 PUSH2 0xD7C JUMP JUMPDEST DUP3 ADD SWAP2 SWAP1 PUSH1 0x0 MSTORE PUSH1 0x20 PUSH1 0x0 KECCAK256 SWAP1 JUMPDEST DUP2 SLOAD DUP2 MSTORE SWAP1 PUSH1 0x1 ADD SWAP1 PUSH1 0x20 ADD DUP1 DUP4 GT PUSH2 0xD5F JUMPI DUP3 SWAP1 SUB PUSH1 0x1F AND DUP3 ADD SWAP2 JUMPDEST POP POP POP POP POP DUP2 MSTORE PUSH1 0x20 ADD PUSH1 0x5 DUP3 ADD SLOAD DUP2 MSTORE PUSH1 0x20 ADD PUSH1 0x6 DUP3 ADD DUP1 SLOAD DUP1 PUSH1 0x20 MUL PUSH1 0x20 ADD PUSH1 0x40 MLOAD SWAP1 DUP2 ADD PUSH1 0x40 MSTORE DUP1 SWAP3 SWAP2 SWAP1 DUP2 DUP2 MSTORE PUSH1 0x20 ADD PUSH1 0x0 SWAP1 JUMPDEST DUP3 DUP3 LT ISZERO PUSH2 0xE5D JUMPI PUSH1 0x0 DUP5 DUP2 MSTORE PUSH1 0x20 SWAP1 DUP2 SWAP1 KECCAK256 PUSH1 0x40 DUP1 MLOAD PUSH1 0x80 DUP2 ADD DUP3 MSTORE PUSH1 0x4 DUP7 MUL SWAP1 SWAP3 ADD DUP1 SLOAD PUSH1 0x1 PUSH1 0x1 PUSH1 0xA0 SHL SUB AND DUP4 MSTORE PUSH1 0x1 DUP2 ADD SLOAD DUP4 DUP6 ADD MSTORE PUSH1 0x2 DUP2 ADD SLOAD DUP4 DUP4 ADD MSTORE PUSH1 0x3 DUP2 ADD DUP1 SLOAD DUP4 MLOAD DUP2 DUP8 MUL DUP2 ADD DUP8 ADD SWAP1 SWAP5 MSTORE DUP1 DUP5 MSTORE SWAP4 SWAP5 SWAP2 SWAP4 PUSH1 0x60 DUP7 ADD SWAP4 SWAP3 DUP4 ADD DUP3 DUP3 DUP1 ISZERO PUSH2 0xE45 JUMPI PUSH1 0x20 MUL DUP3 ADD SWAP2 SWAP1 PUSH1 0x0 MSTORE PUSH1 0x20 PUSH1 0x0 KECCAK256 SWAP1 JUMPDEST DUP2 SLOAD DUP2 MSTORE PUSH1 0x20 ADD SWAP1 PUSH1 0x1 ADD SWAP1 DUP1 DUP4 GT PUSH2 0xE31 JUMPI JUMPDEST POP POP POP POP POP DUP2 MSTORE POP POP DUP2 MSTORE PUSH1 0x20 ADD SWAP1 PUSH1 0x1 ADD SWAP1 PUSH2 0xDB4 JUMP JUMPDEST POP POP POP SWAP1 DUP3 MSTORE POP PUSH1 0x7 DUP3 ADD SLOAD PUSH1 0xFF DUP2 AND ISZERO ISZERO PUSH1 0x20 DUP4 ADD MSTORE PUSH2 0x100 SWAP1 DIV PUSH1 0x1 PUSH1 0x1 PUSH1 0xA0 SHL SUB AND PUSH1 0x40 DUP3 ADD MSTORE PUSH1 0x8 DUP3 ADD SLOAD PUSH1 0x60 DUP3 ADD MSTORE PUSH1 0x9 DUP3 ADD SLOAD PUSH1 0x80 DUP3 ADD MSTORE PUSH1 0xA DUP3 ADD DUP1 SLOAD PUSH1 0xA0 SWAP1 SWAP3 ADD SWAP2 PUSH2 0xEB0 SWAP1 PUSH2 0x41CA JUMP JUMPDEST DUP1 PUSH1 0x1F ADD PUSH1 0x20 DUP1 SWAP2 DIV MUL PUSH1 0x20 ADD PUSH1 0x40 MLOAD SWAP1 DUP2 ADD PUSH1 0x40 MSTORE DUP1 SWAP3 SWAP2 SWAP1 DUP2 DUP2 MSTORE PUSH1 0x20 ADD DUP3 DUP1 SLOAD PUSH2 0xEDC SWAP1 PUSH2 0x41CA JUMP JUMPDEST DUP1 ISZERO PUSH2 0xF29 JUMPI DUP1 PUSH1 0x1F LT PUSH2 0xEFE JUMPI PUSH2 0x100 DUP1 DUP4 SLOAD DIV MUL DUP4 MSTORE SWAP2 PUSH1 0x20 ADD SWAP2 PUSH2 0xF29 JUMP JUMPDEST DUP3 ADD SWAP2 SWAP1 PUSH1 0x0 MSTORE PUSH1 0x20 PUSH1 0x0 KECCAK256 SWAP1 JUMPDEST DUP2 SLOAD DUP2 MSTORE SWAP1 PUSH1 0x1 ADD SWAP1 PUSH1 0x20 ADD DUP1 DUP4 GT PUSH2 0xF0C JUMPI DUP3 SWAP1 SUB PUSH1 0x1F AND DUP3 ADD SWAP2 JUMPDEST POP POP POP POP POP DUP2 MSTORE POP POP SWAP1 POP SWAP2 SWAP1 POP JUMP JUMPDEST PUSH1 0x0 PUSH2 0xF43 PUSH2 0x2635 JUMP JUMPDEST DUP4 CALLVALUE PUSH1 0x0 JUMPDEST DUP3 DUP2 LT ISZERO PUSH2 0xFD8 JUMPI PUSH1 0x0 DUP7 DUP7 DUP4 DUP2 DUP2 LT PUSH2 0xF64 JUMPI PUSH2 0xF64 PUSH2 0x4204 JUMP JUMPDEST SWAP1 POP PUSH1 0x20 MUL ADD CALLDATALOAD SWAP1 POP DUP3 DUP2 GT ISZERO PUSH2 0xF8E JUMPI PUSH1 0x40 MLOAD PUSH4 0x44044A5 PUSH1 0xE2 SHL DUP2 MSTORE PUSH1 0x4 ADD PUSH1 0x40 MLOAD DUP1 SWAP2 SUB SWAP1 REVERT JUMPDEST PUSH2 0xFBB DUP10 DUP10 DUP5 DUP2 DUP2 LT PUSH2 0xFA3 JUMPI PUSH2 0xFA3 PUSH2 0x4204 JUMP JUMPDEST SWAP1 POP PUSH1 0x20 MUL DUP2 ADD SWAP1 PUSH2 0xFB5 SWAP2 SWAP1 PUSH2 0x421A JUMP JUMPDEST DUP3 PUSH2 0x267E JUMP JUMPDEST PUSH2 0xFCC JUMPI PUSH1 0x0 SWAP5 POP POP POP POP POP PUSH2 0x88E JUMP JUMPDEST SWAP1 SWAP2 SUB SWAP1 PUSH1 0x1 ADD PUSH2 0xF48 JUMP JUMPDEST POP PUSH1 0x1 SWAP8 SWAP7 POP POP POP POP POP POP POP JUMP JUMPDEST PUSH1 0x0 PUSH2 0xFF0 PUSH2 0x2635 JUMP JUMPDEST DUP4 CALLVALUE PUSH1 0x0 JUMPDEST DUP3 DUP2 LT ISZERO PUSH2 0xFD8 JUMPI PUSH1 0x0 DUP7 DUP7 DUP4 DUP2 DUP2 LT PUSH2 0x1011 JUMPI PUSH2 0x1011 PUSH2 0x4204 JUMP JUMPDEST SWAP1 POP PUSH1 0x20 MUL ADD CALLDATALOAD SWAP1 POP DUP3 DUP2 GT ISZERO PUSH2 0x103B JUMPI PUSH1 0x40 MLOAD PUSH4 0x44044A5 PUSH1 0xE2 SHL DUP2 MSTORE PUSH1 0x4 ADD PUSH1 0x40 MLOAD DUP1 SWAP2 SUB SWAP1 REVERT JUMPDEST PUSH2 0x1068 DUP10 DUP10 DUP5 DUP2 DUP2 LT PUSH2 0x1050 JUMPI PUSH2 0x1050 PUSH2 0x4204 JUMP JUMPDEST SWAP1 POP PUSH1 0x20 MUL DUP2 ADD SWAP1 PUSH2 0x1062 SWAP2 SWAP1 PUSH2 0x421A JUMP JUMPDEST DUP3 PUSH2 0x2687 JUMP JUMPDEST PUSH2 0x1079 JUMPI PUSH1 0x0 SWAP5 POP POP POP POP POP PUSH2 0x88E JUMP JUMPDEST SWAP1 SWAP2 SUB SWAP1 PUSH1 0x1 ADD PUSH2 0xFF5 JUMP JUMPDEST PUSH1 0x8 DUP1 SLOAD PUSH2 0x1092 SWAP1 PUSH2 0x41CA JUMP JUMPDEST DUP1 PUSH1 0x1F ADD PUSH1 0x20 DUP1 SWAP2 DIV MUL PUSH1 0x20 ADD PUSH1 0x40 MLOAD SWAP1 DUP2 ADD PUSH1 0x40 MSTORE DUP1 SWAP3 SWAP2 SWAP1 DUP2 DUP2 MSTORE PUSH1 0x20 ADD DUP3 DUP1 SLOAD PUSH2 0x10BE SWAP1 PUSH2 0x41CA JUMP JUMPDEST DUP1 ISZERO PUSH2 0x110B JUMPI DUP1 PUSH1 0x1F LT PUSH2 0x10E0 JUMPI PUSH2 0x100 DUP1 DUP4 SLOAD DIV MUL DUP4 MSTORE SWAP2 PUSH1 0x20 ADD SWAP2 PUSH2 0x110B JUMP JUMPDEST DUP3 ADD SWAP2 SWAP1 PUSH1 0x0 MSTORE PUSH1 0x20 PUSH1 0x0 KECCAK256 SWAP1 JUMPDEST DUP2 SLOAD DUP2 MSTORE SWAP1 PUSH1 0x1 ADD SWAP1 PUSH1 0x20 ADD DUP1 DUP4 GT PUSH2 0x10EE JUMPI DUP3 SWAP1 SUB PUSH1 0x1F AND DUP3 ADD SWAP2 JUMPDEST POP POP POP POP POP DUP2 JUMP JUMPDEST PUSH1 0x9 SLOAD PUSH1 0xFF AND ISZERO PUSH2 0x1136 JUMPI PUSH1 0x40 MLOAD PUSH3 0x461BCD PUSH1 0xE5 SHL DUP2 MSTORE PUSH1 0x4 ADD PUSH2 0x5EA SWAP1 PUSH2 0x40EC JUMP JUMPDEST PUSH2 0x1149 DUP7 DUP7 DUP7 DUP7 DUP7 PUSH1 0x0 DUP8 PUSH1 0x0 DUP1 PUSH2 0x1CDF JUMP JUMPDEST POP POP POP POP POP POP JUMP JUMPDEST PUSH2 0x1159 PUSH2 0x24F9 JUMP JUMPDEST PUSH1 0x4 SSTORE JUMP JUMPDEST PUSH2 0x1182 PUSH1 0x40 MLOAD DUP1 PUSH1 0x60 ADD PUSH1 0x40 MSTORE DUP1 PUSH1 0x60 DUP2 MSTORE PUSH1 0x20 ADD PUSH1 0x60 DUP2 MSTORE PUSH1 0x20 ADD PUSH1 0x60 DUP2 MSTORE POP SWAP1 JUMP JUMPDEST PUSH1 0x0 PUSH1 0x2 DUP4 PUSH1 0x40 MLOAD PUSH2 0x1194 SWAP2 SWAP1 PUSH2 0x41AE JUMP JUMPDEST SWAP1 DUP2 MSTORE PUSH1 0x20 ADD PUSH1 0x40 MLOAD DUP1 SWAP2 SUB SWAP1 KECCAK256 SWAP1 POP PUSH1 0xA DUP2 PUSH1 0x9 ADD SLOAD DUP2 SLOAD DUP2 LT PUSH2 0x11BB JUMPI PUSH2 0x11BB PUSH2 0x4204 JUMP JUMPDEST SWAP1 PUSH1 0x0 MSTORE PUSH1 0x20 PUSH1 0x0 KECCAK256 SWAP1 PUSH1 0x3 MUL ADD PUSH1 0x40 MLOAD DUP1 PUSH1 0x60 ADD PUSH1 0x40 MSTORE SWAP1 DUP2 PUSH1 0x0 DUP3 ADD DUP1 SLOAD DUP1 PUSH1 0x20 MUL PUSH1 0x20 ADD PUSH1 0x40 MLOAD SWAP1 DUP2 ADD PUSH1 0x40 MSTORE DUP1 SWAP3 SWAP2 SWAP1 DUP2 DUP2 MSTORE PUSH1 0x20 ADD PUSH1 0x0 SWAP1 JUMPDEST DUP3 DUP3 LT ISZERO PUSH2 0x12A5 JUMPI DUP4 DUP3 SWAP1 PUSH1 0x0 MSTORE PUSH1 0x20 PUSH1 0x0 KECCAK256 ADD DUP1 SLOAD PUSH2 0x1218 SWAP1 PUSH2 0x41CA JUMP JUMPDEST DUP1 PUSH1 0x1F ADD PUSH1 0x20 DUP1 SWAP2 DIV MUL PUSH1 0x20 ADD PUSH1 0x40 MLOAD SWAP1 DUP2 ADD PUSH1 0x40 MSTORE DUP1 SWAP3 SWAP2 SWAP1 DUP2 DUP2 MSTORE PUSH1 0x20 ADD DUP3 DUP1 SLOAD PUSH2 0x1244 SWAP1 PUSH2 0x41CA JUMP JUMPDEST DUP1 ISZERO PUSH2 0x1291 JUMPI DUP1 PUSH1 0x1F LT PUSH2 0x1266 JUMPI PUSH2 0x100 DUP1 DUP4 SLOAD DIV MUL DUP4 MSTORE SWAP2 PUSH1 0x20 ADD SWAP2 PUSH2 0x1291 JUMP JUMPDEST DUP3 ADD SWAP2 SWAP1 PUSH1 0x0 MSTORE PUSH1 0x20 PUSH1 0x0 KECCAK256 SWAP1 JUMPDEST DUP2 SLOAD DUP2 MSTORE SWAP1 PUSH1 0x1 ADD SWAP1 PUSH1 0x20 ADD DUP1 DUP4 GT PUSH2 0x1274 JUMPI DUP3 SWAP1 SUB PUSH1 0x1F AND DUP3 ADD SWAP2 JUMPDEST POP POP POP POP POP DUP2 MSTORE PUSH1 0x20 ADD SWAP1 PUSH1 0x1 ADD SWAP1 PUSH2 0x11F9 JUMP JUMPDEST POP POP POP POP DUP2 MSTORE PUSH1 0x20 ADD PUSH1 0x1 DUP3 ADD DUP1 SLOAD DUP1 PUSH1 0x20 MUL PUSH1 0x20 ADD PUSH1 0x40 MLOAD SWAP1 DUP2 ADD PUSH1 0x40 MSTORE DUP1 SWAP3 SWAP2 SWAP1 DUP2 DUP2 MSTORE PUSH1 0x20 ADD DUP3 DUP1 SLOAD DUP1 ISZERO PUSH2 0x132C JUMPI PUSH1 0x20 MUL DUP3 ADD SWAP2 SWAP1 PUSH1 0x0 MSTORE PUSH1 0x20 PUSH1 0x0 KECCAK256 SWAP1 PUSH1 0x0 SWAP1 JUMPDEST DUP3 DUP3 SWAP1 SLOAD SWAP1 PUSH2 0x100 EXP SWAP1 DIV PUSH1 0xFF AND PUSH1 0x2 DUP2 GT ISZERO PUSH2 0x130A JUMPI PUSH2 0x130A PUSH2 0x3F8A JUMP JUMPDEST DUP2 MSTORE PUSH1 0x20 PUSH1 0x1 SWAP3 DUP4 ADD DUP2 DUP2 DIV SWAP5 DUP6 ADD SWAP5 SWAP1 SWAP4 SUB SWAP1 SWAP3 MUL SWAP2 ADD DUP1 DUP5 GT PUSH2 0x12EB JUMPI SWAP1 POP JUMPDEST POP POP POP POP POP DUP2 MSTORE PUSH1 0x20 ADD PUSH1 0x2 DUP3 ADD DUP1 SLOAD DUP1 PUSH1 0x20 MUL PUSH1 0x20 ADD PUSH1 0x40 MLOAD SWAP1 DUP2 ADD PUSH1 0x40 MSTORE DUP1 SWAP3 SWAP2 SWAP1 DUP2 DUP2 MSTORE PUSH1 0x20 ADD PUSH1 0x0 SWAP1 JUMPDEST DUP3 DUP3 LT ISZERO PUSH2 0x144D JUMPI DUP4 DUP3 SWAP1 PUSH1 0x0 MSTORE PUSH1 0x20 PUSH1 0x0 KECCAK256 ADD DUP1 SLOAD DUP1 PUSH1 0x20 MUL PUSH1 0x20 ADD PUSH1 0x40 MLOAD SWAP1 DUP2 ADD PUSH1 0x40 MSTORE DUP1 SWAP3 SWAP2 SWAP1 DUP2 DUP2 MSTORE PUSH1 0x20 ADD PUSH1 0x0 SWAP1 JUMPDEST DUP3 DUP3 LT ISZERO PUSH2 0x143A JUMPI DUP4 DUP3 SWAP1 PUSH1 0x0 MSTORE PUSH1 0x20 PUSH1 0x0 KECCAK256 ADD DUP1 SLOAD PUSH2 0x13AD SWAP1 PUSH2 0x41CA JUMP JUMPDEST DUP1 PUSH1 0x1F ADD PUSH1 0x20 DUP1 SWAP2 DIV MUL PUSH1 0x20 ADD PUSH1 0x40 MLOAD SWAP1 DUP2 ADD PUSH1 0x40 MSTORE DUP1 SWAP3 SWAP2 SWAP1 DUP2 DUP2 MSTORE PUSH1 0x20 ADD DUP3 DUP1 SLOAD PUSH2 0x13D9 SWAP1 PUSH2 0x41CA JUMP JUMPDEST DUP1 ISZERO PUSH2 0x1426 JUMPI DUP1 PUSH1 0x1F LT PUSH2 0x13FB JUMPI PUSH2 0x100 DUP1 DUP4 SLOAD DIV MUL DUP4 MSTORE SWAP2 PUSH1 0x20 ADD SWAP2 PUSH2 0x1426 JUMP JUMPDEST DUP3 ADD SWAP2 SWAP1 PUSH1 0x0 MSTORE PUSH1 0x20 PUSH1 0x0 KECCAK256 SWAP1 JUMPDEST DUP2 SLOAD DUP2 MSTORE SWAP1 PUSH1 0x1 ADD SWAP1 PUSH1 0x20 ADD DUP1 DUP4 GT PUSH2 0x1409 JUMPI DUP3 SWAP1 SUB PUSH1 0x1F AND DUP3 ADD SWAP2 JUMPDEST POP POP POP POP POP DUP2 MSTORE PUSH1 0x20 ADD SWAP1 PUSH1 0x1 ADD SWAP1 PUSH2 0x138E JUMP JUMPDEST POP POP POP POP DUP2 MSTORE PUSH1 0x20 ADD SWAP1 PUSH1 0x1 ADD SWAP1 PUSH2 0x135A JUMP JUMPDEST POP POP POP SWAP2 MSTORE POP SWAP1 SWAP5 SWAP4 POP POP POP POP JUMP JUMPDEST PUSH1 0x0 DUP1 JUMPDEST PUSH1 0x5 SLOAD DUP2 LT ISZERO PUSH2 0x14BC JUMPI DUP3 PUSH1 0x1 PUSH1 0x1 PUSH1 0xA0 SHL SUB AND PUSH1 0x5 DUP3 DUP2 SLOAD DUP2 LT PUSH2 0x1487 JUMPI PUSH2 0x1487 PUSH2 0x4204 JUMP JUMPDEST PUSH1 0x0 SWAP2 DUP3 MSTORE PUSH1 0x20 SWAP1 SWAP2 KECCAK256 ADD SLOAD PUSH1 0x1 PUSH1 0x1 PUSH1 0xA0 SHL SUB AND SUB PUSH2 0x14AA JUMPI POP PUSH1 0x1 SWAP3 SWAP2 POP POP JUMP JUMPDEST DUP1 PUSH2 0x14B4 DUP2 PUSH2 0x4231 JUMP JUMPDEST SWAP2 POP POP PUSH2 0x1460 JUMP JUMPDEST POP PUSH1 0x0 SWAP3 SWAP2 POP POP JUMP JUMPDEST PUSH2 0x14E9 PUSH1 0x40 MLOAD DUP1 PUSH1 0x60 ADD PUSH1 0x40 MSTORE DUP1 PUSH1 0x60 DUP2 MSTORE PUSH1 0x20 ADD PUSH1 0x60 DUP2 MSTORE PUSH1 0x20 ADD PUSH1 0x60 DUP2 MSTORE POP SWAP1 JUMP JUMPDEST PUSH1 0xA DUP3 DUP2 SLOAD DUP2 LT PUSH2 0x14FC JUMPI PUSH2 0x14FC PUSH2 0x4204 JUMP JUMPDEST SWAP1 PUSH1 0x0 MSTORE PUSH1 0x20 PUSH1 0x0 KECCAK256 SWAP1 PUSH1 0x3 MUL ADD PUSH1 0x40 MLOAD DUP1 PUSH1 0x60 ADD PUSH1 0x40 MSTORE SWAP1 DUP2 PUSH1 0x0 DUP3 ADD DUP1 SLOAD DUP1 PUSH1 0x20 MUL PUSH1 0x20 ADD PUSH1 0x40 MLOAD SWAP1 DUP2 ADD PUSH1 0x40 MSTORE DUP1 SWAP3 SWAP2 SWAP1 DUP2 DUP2 MSTORE PUSH1 0x20 ADD PUSH1 0x0 SWAP1 JUMPDEST DUP3 DUP3 LT ISZERO PUSH2 0x15E6 JUMPI DUP4 DUP3 SWAP1 PUSH1 0x0 MSTORE PUSH1 0x20 PUSH1 0x0 KECCAK256 ADD DUP1 SLOAD PUSH2 0x1559 SWAP1 PUSH2 0x41CA JUMP JUMPDEST DUP1 PUSH1 0x1F ADD PUSH1 0x20 DUP1 SWAP2 DIV MUL PUSH1 0x20 ADD PUSH1 0x40 MLOAD SWAP1 DUP2 ADD PUSH1 0x40 MSTORE DUP1 SWAP3 SWAP2 SWAP1 DUP2 DUP2 MSTORE PUSH1 0x20 ADD DUP3 DUP1 SLOAD PUSH2 0x1585 SWAP1 PUSH2 0x41CA JUMP JUMPDEST DUP1 ISZERO PUSH2 0x15D2 JUMPI DUP1 PUSH1 0x1F LT PUSH2 0x15A7 JUMPI PUSH2 0x100 DUP1 DUP4 SLOAD DIV MUL DUP4 MSTORE SWAP2 PUSH1 0x20 ADD SWAP2 PUSH2 0x15D2 JUMP JUMPDEST DUP3 ADD SWAP2 SWAP1 PUSH1 0x0 MSTORE PUSH1 0x20 PUSH1 0x0 KECCAK256 SWAP1 JUMPDEST DUP2 SLOAD DUP2 MSTORE SWAP1 PUSH1 0x1 ADD SWAP1 PUSH1 0x20 ADD DUP1 DUP4 GT PUSH2 0x15B5 JUMPI DUP3 SWAP1 SUB PUSH1 0x1F AND DUP3 ADD SWAP2 JUMPDEST POP POP POP POP POP DUP2 MSTORE PUSH1 0x20 ADD SWAP1 PUSH1 0x1 ADD SWAP1 PUSH2 0x153A JUMP JUMPDEST POP POP POP POP DUP2 MSTORE PUSH1 0x20 ADD PUSH1 0x1 DUP3 ADD DUP1 SLOAD DUP1 PUSH1 0x20 MUL PUSH1 0x20 ADD PUSH1 0x40 MLOAD SWAP1 DUP2 ADD PUSH1 0x40 MSTORE DUP1 SWAP3 SWAP2 SWAP1 DUP2 DUP2 MSTORE PUSH1 0x20 ADD DUP3 DUP1 SLOAD DUP1 ISZERO PUSH2 0x166D JUMPI PUSH1 0x20 MUL DUP3 ADD SWAP2 SWAP1 PUSH1 0x0 MSTORE PUSH1 0x20 PUSH1 0x0 KECCAK256 SWAP1 PUSH1 0x0 SWAP1 JUMPDEST DUP3 DUP3 SWAP1 SLOAD SWAP1 PUSH2 0x100 EXP SWAP1 DIV PUSH1 0xFF AND PUSH1 0x2 DUP2 GT ISZERO PUSH2 0x164B JUMPI PUSH2 0x164B PUSH2 0x3F8A JUMP JUMPDEST DUP2 MSTORE PUSH1 0x20 PUSH1 0x1 SWAP3 DUP4 ADD DUP2 DUP2 DIV SWAP5 DUP6 ADD SWAP5 SWAP1 SWAP4 SUB SWAP1 SWAP3 MUL SWAP2 ADD DUP1 DUP5 GT PUSH2 0x162C JUMPI SWAP1 POP JUMPDEST POP POP POP POP POP DUP2 MSTORE PUSH1 0x20 ADD PUSH1 0x2 DUP3 ADD DUP1 SLOAD DUP1 PUSH1 0x20 MUL PUSH1 0x20 ADD PUSH1 0x40 MLOAD SWAP1 DUP2 ADD PUSH1 0x40 MSTORE DUP1 SWAP3 SWAP2 SWAP1 DUP2 DUP2 MSTORE PUSH1 0x20 ADD PUSH1 0x0 SWAP1 JUMPDEST DUP3 DUP3 LT ISZERO PUSH2 0x178E JUMPI DUP4 DUP3 SWAP1 PUSH1 0x0 MSTORE PUSH1 0x20 PUSH1 0x0 KECCAK256 ADD DUP1 SLOAD DUP1 PUSH1 0x20 MUL PUSH1 0x20 ADD PUSH1 0x40 MLOAD SWAP1 DUP2 ADD PUSH1 0x40 MSTORE DUP1 SWAP3 SWAP2 SWAP1 DUP2 DUP2 MSTORE PUSH1 0x20 ADD PUSH1 0x0 SWAP1 JUMPDEST DUP3 DUP3 LT ISZERO PUSH2 0x177B JUMPI DUP4 DUP3 SWAP1 PUSH1 0x0 MSTORE PUSH1 0x20 PUSH1 0x0 KECCAK256 ADD DUP1 SLOAD PUSH2 0x16EE SWAP1 PUSH2 0x41CA JUMP JUMPDEST DUP1 PUSH1 0x1F ADD PUSH1 0x20 DUP1 SWAP2 DIV MUL PUSH1 0x20 ADD PUSH1 0x40 MLOAD SWAP1 DUP2 ADD PUSH1 0x40 MSTORE DUP1 SWAP3 SWAP2 SWAP1 DUP2 DUP2 MSTORE PUSH1 0x20 ADD DUP3 DUP1 SLOAD PUSH2 0x171A SWAP1 PUSH2 0x41CA JUMP JUMPDEST DUP1 ISZERO PUSH2 0x1767 JUMPI DUP1 PUSH1 0x1F LT PUSH2 0x173C JUMPI PUSH2 0x100 DUP1 DUP4 SLOAD DIV MUL DUP4 MSTORE SWAP2 PUSH1 0x20 ADD SWAP2 PUSH2 0x1767 JUMP JUMPDEST DUP3 ADD SWAP2 SWAP1 PUSH1 0x0 MSTORE PUSH1 0x20 PUSH1 0x0 KECCAK256 SWAP1 JUMPDEST DUP2 SLOAD DUP2 MSTORE SWAP1 PUSH1 0x1 ADD SWAP1 PUSH1 0x20 ADD DUP1 DUP4 GT PUSH2 0x174A JUMPI DUP3 SWAP1 SUB PUSH1 0x1F AND DUP3 ADD SWAP2 JUMPDEST POP POP POP POP POP DUP2 MSTORE PUSH1 0x20 ADD SWAP1 PUSH1 0x1 ADD SWAP1 PUSH2 0x16CF JUMP JUMPDEST POP POP POP POP DUP2 MSTORE PUSH1 0x20 ADD SWAP1 PUSH1 0x1 ADD SWAP1 PUSH2 0x169B JUMP JUMPDEST POP POP POP SWAP2 MSTORE POP SWAP1 SWAP4 SWAP3 POP POP POP JUMP JUMPDEST PUSH2 0x17A4 PUSH2 0x24F9 JUMP JUMPDEST PUSH1 0x3 SSTORE JUMP JUMPDEST PUSH1 0x2 DUP2 PUSH1 0x40 MLOAD PUSH2 0x17B9 SWAP2 SWAP1 PUSH2 0x41AE JUMP JUMPDEST SWAP1 DUP2 MSTORE PUSH1 0x40 MLOAD SWAP1 DUP2 SWAP1 SUB PUSH1 0x20 ADD SWAP1 KECCAK256 SLOAD CALLER PUSH1 0x1 PUSH1 0x1 PUSH1 0xA0 SHL SUB SWAP1 SWAP2 AND EQ PUSH2 0x1822 JUMPI PUSH1 0x40 MLOAD PUSH3 0x461BCD PUSH1 0xE5 SHL DUP2 MSTORE PUSH1 0x20 PUSH1 0x4 DUP3 ADD MSTORE PUSH1 0x1D PUSH1 0x24 DUP3 ADD MSTORE PUSH32 0x4465726573793A204974206973206E6F74207468652073706F6E736F72000000 PUSH1 0x44 DUP3 ADD MSTORE PUSH1 0x64 ADD PUSH2 0x5EA JUMP JUMPDEST PUSH1 0x2 DUP2 PUSH1 0x40 MLOAD PUSH2 0x1832 SWAP2 SWAP1 PUSH2 0x41AE JUMP JUMPDEST SWAP1 DUP2 MSTORE PUSH1 0x40 MLOAD SWAP1 DUP2 SWAP1 SUB PUSH1 0x20 ADD SWAP1 KECCAK256 PUSH1 0x7 ADD SLOAD PUSH1 0xFF AND ISZERO PUSH2 0x188E JUMPI PUSH1 0x40 MLOAD PUSH3 0x461BCD PUSH1 0xE5 SHL DUP2 MSTORE PUSH1 0x20 PUSH1 0x4 DUP3 ADD MSTORE PUSH1 0x16 PUSH1 0x24 DUP3 ADD MSTORE PUSH22 0x11195C995CDE4E881C995C5D595CDD0818DB1BDCD959 PUSH1 0x52 SHL PUSH1 0x44 DUP3 ADD MSTORE PUSH1 0x64 ADD PUSH2 0x5EA JUMP JUMPDEST PUSH1 0x2 DUP2 PUSH1 0x40 MLOAD PUSH2 0x189E SWAP2 SWAP1 PUSH2 0x41AE JUMP JUMPDEST SWAP1 DUP2 MSTORE PUSH1 0x40 MLOAD SWAP1 DUP2 SWAP1 SUB PUSH1 0x20 ADD DUP2 KECCAK256 SLOAD PUSH1 0x1 PUSH1 0x1 PUSH1 0xA0 SHL SUB AND SWAP1 PUSH2 0x8FC SWAP1 PUSH1 0x2 SWAP1 PUSH2 0x18CA SWAP1 DUP6 SWAP1 PUSH2 0x41AE JUMP JUMPDEST SWAP1 DUP2 MSTORE PUSH1 0x40 MLOAD SWAP1 DUP2 SWAP1 SUB PUSH1 0x20 ADD DUP2 KECCAK256 PUSH1 0x8 ADD SLOAD DUP1 ISZERO SWAP1 SWAP3 MUL SWAP2 SWAP1 PUSH1 0x0 DUP2 DUP2 DUP2 DUP6 DUP9 DUP9 CALL SWAP4 POP POP POP POP ISZERO DUP1 ISZERO PUSH2 0x1903 JUMPI RETURNDATASIZE PUSH1 0x0 DUP1 RETURNDATACOPY RETURNDATASIZE PUSH1 0x0 REVERT JUMPDEST POP PUSH1 0x1 PUSH1 0x2 DUP3 PUSH1 0x40 MLOAD PUSH2 0x1916 SWAP2 SWAP1 PUSH2 0x41AE JUMP JUMPDEST SWAP1 DUP2 MSTORE PUSH1 0x40 MLOAD SWAP1 DUP2 SWAP1 SUB PUSH1 0x20 ADD DUP2 KECCAK256 PUSH1 0x7 ADD DUP1 SLOAD SWAP3 ISZERO ISZERO PUSH1 0xFF NOT SWAP1 SWAP4 AND SWAP3 SWAP1 SWAP3 OR SWAP1 SWAP2 SSTORE PUSH1 0x0 SWAP1 PUSH1 0x2 SWAP1 PUSH2 0x194B SWAP1 DUP5 SWAP1 PUSH2 0x41AE JUMP JUMPDEST SWAP1 DUP2 MSTORE PUSH1 0x20 ADD PUSH1 0x40 MLOAD DUP1 SWAP2 SUB SWAP1 KECCAK256 PUSH1 0x8 ADD DUP2 SWAP1 SSTORE POP PUSH32 0xBC5C8CB2024ED254E024E37B09895ECAA07948DD0FD7A08E30B80F559888F2CF DUP2 PUSH1 0x40 MLOAD PUSH2 0x198F SWAP2 SWAP1 PUSH2 0x3AD6 JUMP JUMPDEST PUSH1 0x40 MLOAD DUP1 SWAP2 SUB SWAP1 LOG1 POP JUMP JUMPDEST PUSH2 0x19A2 PUSH2 0x24F9 JUMP JUMPDEST PUSH2 0x19AB DUP2 PUSH2 0x145C JUMP JUMPDEST PUSH2 0x19F0 JUMPI PUSH1 0x40 MLOAD PUSH3 0x461BCD PUSH1 0xE5 SHL DUP2 MSTORE PUSH1 0x20 PUSH1 0x4 DUP3 ADD MSTORE PUSH1 0x16 PUSH1 0x24 DUP3 ADD MSTORE PUSH22 0x151BDAD95B881B9BDD081A5B881DDA1A5D195B1A5CDD PUSH1 0x52 SHL PUSH1 0x44 DUP3 ADD MSTORE PUSH1 0x64 ADD PUSH2 0x5EA JUMP JUMPDEST PUSH1 0x0 JUMPDEST PUSH1 0x5 SLOAD DUP2 LT ISZERO PUSH2 0x1AF7 JUMPI DUP2 PUSH1 0x1 PUSH1 0x1 PUSH1 0xA0 SHL SUB AND PUSH1 0x5 DUP3 DUP2 SLOAD DUP2 LT PUSH2 0x1A1A JUMPI PUSH2 0x1A1A PUSH2 0x4204 JUMP JUMPDEST PUSH1 0x0 SWAP2 DUP3 MSTORE PUSH1 0x20 SWAP1 SWAP2 KECCAK256 ADD SLOAD PUSH1 0x1 PUSH1 0x1 PUSH1 0xA0 SHL SUB AND SUB PUSH2 0x1AE5 JUMPI PUSH1 0x5 DUP1 SLOAD PUSH2 0x1A44 SWAP1 PUSH1 0x1 SWAP1 PUSH2 0x4141 JUMP JUMPDEST DUP2 SLOAD DUP2 LT PUSH2 0x1A54 JUMPI PUSH2 0x1A54 PUSH2 0x4204 JUMP JUMPDEST PUSH1 0x0 SWAP2 DUP3 MSTORE PUSH1 0x20 SWAP1 SWAP2 KECCAK256 ADD SLOAD PUSH1 0x5 DUP1 SLOAD PUSH1 0x1 PUSH1 0x1 PUSH1 0xA0 SHL SUB SWAP1 SWAP3 AND SWAP2 DUP4 SWAP1 DUP2 LT PUSH2 0x1A80 JUMPI PUSH2 0x1A80 PUSH2 0x4204 JUMP JUMPDEST SWAP1 PUSH1 0x0 MSTORE PUSH1 0x20 PUSH1 0x0 KECCAK256 ADD PUSH1 0x0 PUSH2 0x100 EXP DUP2 SLOAD DUP2 PUSH1 0x1 PUSH1 0x1 PUSH1 0xA0 SHL SUB MUL NOT AND SWAP1 DUP4 PUSH1 0x1 PUSH1 0x1 PUSH1 0xA0 SHL SUB AND MUL OR SWAP1 SSTORE POP PUSH1 0x5 DUP1 SLOAD DUP1 PUSH2 0x1ABF JUMPI PUSH2 0x1ABF PUSH2 0x424A JUMP JUMPDEST PUSH1 0x0 DUP3 DUP2 MSTORE PUSH1 0x20 SWAP1 KECCAK256 DUP2 ADD PUSH1 0x0 NOT SWAP1 DUP2 ADD DUP1 SLOAD PUSH1 0x1 PUSH1 0x1 PUSH1 0xA0 SHL SUB NOT AND SWAP1 SSTORE ADD SWAP1 SSTORE POP POP JUMP JUMPDEST DUP1 PUSH2 0x1AEF DUP2 PUSH2 0x4231 JUMP JUMPDEST SWAP2 POP POP PUSH2 0x19F3 JUMP JUMPDEST POP POP JUMP JUMPDEST PUSH1 0x60 PUSH1 0x6 DUP1 SLOAD DUP1 PUSH1 0x20 MUL PUSH1 0x20 ADD PUSH1 0x40 MLOAD SWAP1 DUP2 ADD PUSH1 0x40 MSTORE DUP1 SWAP3 SWAP2 SWAP1 DUP2 DUP2 MSTORE PUSH1 0x20 ADD PUSH1 0x0 SWAP1 JUMPDEST DUP3 DUP3 LT ISZERO PUSH2 0x1BCB JUMPI DUP4 DUP3 SWAP1 PUSH1 0x0 MSTORE PUSH1 0x20 PUSH1 0x0 KECCAK256 ADD DUP1 SLOAD PUSH2 0x1B3E SWAP1 PUSH2 0x41CA JUMP JUMPDEST DUP1 PUSH1 0x1F ADD PUSH1 0x20 DUP1 SWAP2 DIV MUL PUSH1 0x20 ADD PUSH1 0x40 MLOAD SWAP1 DUP2 ADD PUSH1 0x40 MSTORE DUP1 SWAP3 SWAP2 SWAP1 DUP2 DUP2 MSTORE PUSH1 0x20 ADD DUP3 DUP1 SLOAD PUSH2 0x1B6A SWAP1 PUSH2 0x41CA JUMP JUMPDEST DUP1 ISZERO PUSH2 0x1BB7 JUMPI DUP1 PUSH1 0x1F LT PUSH2 0x1B8C JUMPI PUSH2 0x100 DUP1 DUP4 SLOAD DIV MUL DUP4 MSTORE SWAP2 PUSH1 0x20 ADD SWAP2 PUSH2 0x1BB7 JUMP JUMPDEST DUP3 ADD SWAP2 SWAP1 PUSH1 0x0 MSTORE PUSH1 0x20 PUSH1 0x0 KECCAK256 SWAP1 JUMPDEST DUP2 SLOAD DUP2 MSTORE SWAP1 PUSH1 0x1 ADD SWAP1 PUSH1 0x20 ADD DUP1 DUP4 GT PUSH2 0x1B9A JUMPI DUP3 SWAP1 SUB PUSH1 0x1F AND DUP3 ADD SWAP2 JUMPDEST POP POP POP POP POP DUP2 MSTORE PUSH1 0x20 ADD SWAP1 PUSH1 0x1 ADD SWAP1 PUSH2 0x1B1F JUMP JUMPDEST POP POP POP POP SWAP1 POP SWAP1 JUMP JUMPDEST PUSH1 0x60 PUSH1 0x5 DUP1 SLOAD DUP1 PUSH1 0x20 MUL PUSH1 0x20 ADD PUSH1 0x40 MLOAD SWAP1 DUP2 ADD PUSH1 0x40 MSTORE DUP1 SWAP3 SWAP2 SWAP1 DUP2 DUP2 MSTORE PUSH1 0x20 ADD DUP3 DUP1 SLOAD DUP1 ISZERO PUSH2 0x1C2C JUMPI PUSH1 0x20 MUL DUP3 ADD SWAP2 SWAP1 PUSH1 0x0 MSTORE PUSH1 0x20 PUSH1 0x0 KECCAK256 SWAP1 JUMPDEST DUP2 SLOAD PUSH1 0x1 PUSH1 0x1 PUSH1 0xA0 SHL SUB AND DUP2 MSTORE PUSH1 0x1 SWAP1 SWAP2 ADD SWAP1 PUSH1 0x20 ADD DUP1 DUP4 GT PUSH2 0x1C0E JUMPI JUMPDEST POP POP POP POP POP SWAP1 POP SWAP1 JUMP JUMPDEST PUSH1 0x0 PUSH2 0x1C40 PUSH2 0x2635 JUMP JUMPDEST PUSH2 0x1C4A DUP3 CALLVALUE PUSH2 0x267E JUMP JUMPDEST SWAP1 POP JUMPDEST SWAP2 SWAP1 POP JUMP JUMPDEST PUSH1 0x0 PUSH2 0x1C5C PUSH2 0x2635 JUMP JUMPDEST PUSH2 0x1C4A DUP3 CALLVALUE PUSH2 0x2687 JUMP JUMPDEST PUSH2 0x1C6E PUSH2 0x24F9 JUMP JUMPDEST PUSH1 0x1 PUSH1 0x1 PUSH1 0xA0 SHL SUB DUP2 AND PUSH2 0x1CD3 JUMPI PUSH1 0x40 MLOAD PUSH3 0x461BCD PUSH1 0xE5 SHL DUP2 MSTORE PUSH1 0x20 PUSH1 0x4 DUP3 ADD MSTORE PUSH1 0x26 PUSH1 0x24 DUP3 ADD MSTORE PUSH32 0x4F776E61626C653A206E6577206F776E657220697320746865207A65726F2061 PUSH1 0x44 DUP3 ADD MSTORE PUSH6 0x646472657373 PUSH1 0xD0 SHL PUSH1 0x64 DUP3 ADD MSTORE PUSH1 0x84 ADD PUSH2 0x5EA JUMP JUMPDEST PUSH2 0x1CDC DUP2 PUSH2 0x25E5 JUMP JUMPDEST POP JUMP JUMPDEST PUSH1 0x0 DUP9 MLOAD GT PUSH2 0x1D30 JUMPI PUSH1 0x40 MLOAD PUSH3 0x461BCD PUSH1 0xE5 SHL DUP2 MSTORE PUSH1 0x20 PUSH1 0x4 DUP3 ADD DUP2 SWAP1 MSTORE PUSH1 0x24 DUP3 ADD MSTORE PUSH32 0x4465726573793A205265766965776572732063616E6E6F74206265206E756C6C PUSH1 0x44 DUP3 ADD MSTORE PUSH1 0x64 ADD PUSH2 0x5EA JUMP JUMPDEST PUSH1 0x0 DUP8 MLOAD GT PUSH2 0x1D8D JUMPI PUSH1 0x40 MLOAD PUSH3 0x461BCD PUSH1 0xE5 SHL DUP2 MSTORE PUSH1 0x20 PUSH1 0x4 DUP3 ADD MSTORE PUSH1 0x24 DUP1 DUP3 ADD MSTORE PUSH32 0x4465726573793A20487970657263657274204944732063616E6E6F7420626520 PUSH1 0x44 DUP3 ADD MSTORE PUSH4 0x1B9D5B1B PUSH1 0xE2 SHL PUSH1 0x64 DUP3 ADD MSTORE PUSH1 0x84 ADD PUSH2 0x5EA JUMP JUMPDEST PUSH1 0x0 DUP7 MLOAD GT PUSH2 0x1DF4 JUMPI PUSH1 0x40 MLOAD PUSH3 0x461BCD PUSH1 0xE5 SHL DUP2 MSTORE PUSH1 0x20 PUSH1 0x4 DUP3 ADD MSTORE PUSH1 0x2D PUSH1 0x24 DUP3 ADD MSTORE PUSH32 0x4465726573793A20487970657263657274732049504653206861736865732063 PUSH1 0x44 DUP3 ADD MSTORE PUSH13 0x185B9B9BDD081899481B9D5B1B PUSH1 0x9A SHL PUSH1 0x64 DUP3 ADD MSTORE PUSH1 0x84 ADD PUSH2 0x5EA JUMP JUMPDEST DUP6 MLOAD DUP8 MLOAD EQ PUSH2 0x1E80 JUMPI PUSH1 0x40 MLOAD PUSH3 0x461BCD PUSH1 0xE5 SHL DUP2 MSTORE PUSH1 0x20 PUSH1 0x4 DUP3 ADD MSTORE PUSH1 0x4C PUSH1 0x24 DUP3 ADD MSTORE PUSH32 0x4465726573793A2048797065726365727449447320616E642048797065726365 PUSH1 0x44 DUP3 ADD MSTORE PUSH32 0x727449504653486173686573206172726179206D757374206861766520746865 PUSH1 0x64 DUP3 ADD MSTORE PUSH12 0x40E6C2DACA40D8CADCCEE8D PUSH1 0xA3 SHL PUSH1 0x84 DUP3 ADD MSTORE PUSH1 0xA4 ADD PUSH2 0x5EA JUMP JUMPDEST PUSH1 0xA SLOAD PUSH2 0x1E8F SWAP1 PUSH1 0x1 SWAP1 PUSH2 0x4141 JUMP JUMPDEST DUP4 GT ISZERO PUSH2 0x1EDE JUMPI PUSH1 0x40 MLOAD PUSH3 0x461BCD PUSH1 0xE5 SHL DUP2 MSTORE PUSH1 0x20 PUSH1 0x4 DUP3 ADD MSTORE PUSH1 0x1F PUSH1 0x24 DUP3 ADD MSTORE PUSH32 0x4465726573793A20526576696577466F726D496E64657820696E76616C696400 PUSH1 0x44 DUP3 ADD MSTORE PUSH1 0x64 ADD PUSH2 0x5EA JUMP JUMPDEST PUSH1 0x0 PUSH1 0x1 PUSH1 0x1 PUSH1 0xA0 SHL SUB AND PUSH1 0x2 DUP11 PUSH1 0x40 MLOAD PUSH2 0x1EF9 SWAP2 SWAP1 PUSH2 0x41AE JUMP JUMPDEST SWAP1 DUP2 MSTORE PUSH1 0x40 MLOAD SWAP1 DUP2 SWAP1 SUB PUSH1 0x20 ADD SWAP1 KECCAK256 SLOAD PUSH1 0x1 PUSH1 0x1 PUSH1 0xA0 SHL SUB AND EQ PUSH2 0x1F5F JUMPI PUSH1 0x40 MLOAD PUSH3 0x461BCD PUSH1 0xE5 SHL DUP2 MSTORE PUSH1 0x20 PUSH1 0x4 DUP3 ADD MSTORE PUSH1 0x17 PUSH1 0x24 DUP3 ADD MSTORE PUSH32 0x4465726573793A204E616D65206475706C696361746564000000000000000000 PUSH1 0x44 DUP3 ADD MSTORE PUSH1 0x64 ADD PUSH2 0x5EA JUMP JUMPDEST PUSH2 0x1F68 DUP3 PUSH2 0x145C JUMP JUMPDEST PUSH2 0x1FB4 JUMPI PUSH1 0x40 MLOAD PUSH3 0x461BCD PUSH1 0xE5 SHL DUP2 MSTORE PUSH1 0x20 PUSH1 0x4 DUP3 ADD DUP2 SWAP1 MSTORE PUSH1 0x24 DUP3 ADD MSTORE PUSH32 0x4465726573793A20546F6B656E206973206E6F742077686974656C6973746564 PUSH1 0x44 DUP3 ADD MSTORE PUSH1 0x64 ADD PUSH2 0x5EA JUMP JUMPDEST PUSH1 0x0 DUP2 ISZERO PUSH2 0x21EF JUMPI PUSH1 0x0 DUP6 GT PUSH2 0x2040 JUMPI PUSH1 0x40 MLOAD PUSH3 0x461BCD PUSH1 0xE5 SHL DUP2 MSTORE PUSH1 0x20 PUSH1 0x4 DUP3 ADD MSTORE PUSH1 0x45 PUSH1 0x24 DUP3 ADD MSTORE PUSH32 0x4465726573793A20726577617264506572526576696577206D75737420626520 PUSH1 0x44 DUP3 ADD MSTORE PUSH32 0x67726561746572207468616E207A65726F20666F722070617961626C65207265 PUSH1 0x64 DUP3 ADD MSTORE PUSH5 0x1C5D595CDD PUSH1 0xDA SHL PUSH1 0x84 DUP3 ADD MSTORE PUSH1 0xA4 ADD PUSH2 0x5EA JUMP JUMPDEST PUSH1 0x1 PUSH1 0x1 PUSH1 0xA0 SHL SUB DUP4 AND PUSH2 0x20BD JUMPI DUP5 DUP9 MLOAD DUP11 MLOAD PUSH2 0x205D SWAP2 SWAP1 PUSH2 0x4260 JUMP JUMPDEST PUSH2 0x2067 SWAP2 SWAP1 PUSH2 0x4260 JUMP JUMPDEST CALLVALUE LT ISZERO PUSH2 0x20B6 JUMPI PUSH1 0x40 MLOAD PUSH3 0x461BCD PUSH1 0xE5 SHL DUP2 MSTORE PUSH1 0x20 PUSH1 0x4 DUP3 ADD MSTORE PUSH1 0x19 PUSH1 0x24 DUP3 ADD MSTORE PUSH32 0x4465726573793A206D73672E76616C756520696E76616C696400000000000000 PUSH1 0x44 DUP3 ADD MSTORE PUSH1 0x64 ADD PUSH2 0x5EA JUMP JUMPDEST POP CALLVALUE PUSH2 0x2263 JUMP JUMPDEST CALLVALUE ISZERO PUSH2 0x210B JUMPI PUSH1 0x40 MLOAD PUSH3 0x461BCD PUSH1 0xE5 SHL DUP2 MSTORE PUSH1 0x20 PUSH1 0x4 DUP3 ADD MSTORE PUSH1 0x1C PUSH1 0x24 DUP3 ADD MSTORE PUSH32 0x4465726573793A206D73672E76616C756520697320696E76616C696400000000 PUSH1 0x44 DUP3 ADD MSTORE PUSH1 0x64 ADD PUSH2 0x5EA JUMP JUMPDEST DUP5 DUP9 MLOAD DUP11 MLOAD PUSH2 0x211A SWAP2 SWAP1 PUSH2 0x4260 JUMP JUMPDEST PUSH2 0x2124 SWAP2 SWAP1 PUSH2 0x4260 JUMP JUMPDEST PUSH1 0x40 MLOAD PUSH4 0x23B872DD PUSH1 0xE0 SHL DUP2 MSTORE CALLER PUSH1 0x4 DUP3 ADD MSTORE ADDRESS PUSH1 0x24 DUP3 ADD MSTORE PUSH1 0x44 DUP2 ADD DUP3 SWAP1 MSTORE SWAP1 SWAP2 POP PUSH1 0x1 PUSH1 0x1 PUSH1 0xA0 SHL SUB DUP5 AND SWAP1 PUSH4 0x23B872DD SWAP1 PUSH1 0x64 ADD PUSH1 0x20 PUSH1 0x40 MLOAD DUP1 DUP4 SUB DUP2 PUSH1 0x0 DUP8 GAS CALL ISZERO DUP1 ISZERO PUSH2 0x217A JUMPI RETURNDATASIZE PUSH1 0x0 DUP1 RETURNDATACOPY RETURNDATASIZE PUSH1 0x0 REVERT JUMPDEST POP POP POP POP PUSH1 0x40 MLOAD RETURNDATASIZE PUSH1 0x1F NOT PUSH1 0x1F DUP3 ADD AND DUP3 ADD DUP1 PUSH1 0x40 MSTORE POP DUP2 ADD SWAP1 PUSH2 0x219E SWAP2 SWAP1 PUSH2 0x4285 JUMP JUMPDEST PUSH2 0x21EA JUMPI PUSH1 0x40 MLOAD PUSH3 0x461BCD PUSH1 0xE5 SHL DUP2 MSTORE PUSH1 0x20 PUSH1 0x4 DUP3 ADD MSTORE PUSH1 0x1D PUSH1 0x24 DUP3 ADD MSTORE PUSH32 0x4465726573793A20546F6B656E207472616E73666572206661696C6564000000 PUSH1 0x44 DUP3 ADD MSTORE PUSH1 0x64 ADD PUSH2 0x5EA JUMP JUMPDEST PUSH2 0x2263 JUMP JUMPDEST DUP5 ISZERO PUSH2 0x2263 JUMPI PUSH1 0x40 MLOAD PUSH3 0x461BCD PUSH1 0xE5 SHL DUP2 MSTORE PUSH1 0x20 PUSH1 0x4 DUP3 ADD MSTORE PUSH1 0x3C PUSH1 0x24 DUP3 ADD MSTORE PUSH32 0x4465726573793A20726577617264506572526576696577206D75737420626520 PUSH1 0x44 DUP3 ADD MSTORE PUSH32 0x7A65726F20666F72206E6F6E2D70617961626C65207265717565737400000000 PUSH1 0x64 DUP3 ADD MSTORE PUSH1 0x84 ADD PUSH2 0x5EA JUMP JUMPDEST CALLER PUSH1 0x2 DUP12 PUSH1 0x40 MLOAD PUSH2 0x2274 SWAP2 SWAP1 PUSH2 0x41AE JUMP JUMPDEST SWAP1 DUP2 MSTORE PUSH1 0x40 MLOAD SWAP1 DUP2 SWAP1 SUB PUSH1 0x20 ADD DUP2 KECCAK256 DUP1 SLOAD PUSH1 0x1 PUSH1 0x1 PUSH1 0xA0 SHL SUB SWAP4 SWAP1 SWAP4 AND PUSH1 0x1 PUSH1 0x1 PUSH1 0xA0 SHL SUB NOT SWAP1 SWAP4 AND SWAP3 SWAP1 SWAP3 OR SWAP1 SWAP2 SSTORE DUP10 SWAP1 PUSH1 0x2 SWAP1 PUSH2 0x22B4 SWAP1 DUP14 SWAP1 PUSH2 0x41AE JUMP JUMPDEST SWAP1 DUP2 MSTORE PUSH1 0x20 ADD PUSH1 0x40 MLOAD DUP1 SWAP2 SUB SWAP1 KECCAK256 PUSH1 0x1 ADD SWAP1 DUP1 MLOAD SWAP1 PUSH1 0x20 ADD SWAP1 PUSH2 0x22D8 SWAP3 SWAP2 SWAP1 PUSH2 0x34C0 JUMP JUMPDEST POP DUP8 PUSH1 0x2 DUP12 PUSH1 0x40 MLOAD PUSH2 0x22EA SWAP2 SWAP1 PUSH2 0x41AE JUMP JUMPDEST SWAP1 DUP2 MSTORE PUSH1 0x20 ADD PUSH1 0x40 MLOAD DUP1 SWAP2 SUB SWAP1 KECCAK256 PUSH1 0x2 ADD SWAP1 DUP1 MLOAD SWAP1 PUSH1 0x20 ADD SWAP1 PUSH2 0x230E SWAP3 SWAP2 SWAP1 PUSH2 0x3515 JUMP JUMPDEST POP DUP7 PUSH1 0x2 DUP12 PUSH1 0x40 MLOAD PUSH2 0x2320 SWAP2 SWAP1 PUSH2 0x41AE JUMP JUMPDEST SWAP1 DUP2 MSTORE PUSH1 0x20 ADD PUSH1 0x40 MLOAD DUP1 SWAP2 SUB SWAP1 KECCAK256 PUSH1 0x3 ADD SWAP1 DUP1 MLOAD SWAP1 PUSH1 0x20 ADD SWAP1 PUSH2 0x2344 SWAP3 SWAP2 SWAP1 PUSH2 0x3361 JUMP JUMPDEST POP DUP6 PUSH1 0x2 DUP12 PUSH1 0x40 MLOAD PUSH2 0x2356 SWAP2 SWAP1 PUSH2 0x41AE JUMP JUMPDEST SWAP1 DUP2 MSTORE PUSH1 0x20 ADD PUSH1 0x40 MLOAD DUP1 SWAP2 SUB SWAP1 KECCAK256 PUSH1 0x4 ADD SWAP1 DUP2 PUSH2 0x2373 SWAP2 SWAP1 PUSH2 0x42ED JUMP JUMPDEST POP DUP2 PUSH2 0x2380 JUMPI PUSH1 0x0 PUSH2 0x2382 JUMP JUMPDEST DUP5 JUMPDEST PUSH1 0x2 DUP12 PUSH1 0x40 MLOAD PUSH2 0x2392 SWAP2 SWAP1 PUSH2 0x41AE JUMP JUMPDEST SWAP1 DUP2 MSTORE PUSH1 0x20 ADD PUSH1 0x40 MLOAD DUP1 SWAP2 SUB SWAP1 KECCAK256 PUSH1 0x5 ADD DUP2 SWAP1 SSTORE POP PUSH1 0x0 PUSH1 0x2 DUP12 PUSH1 0x40 MLOAD PUSH2 0x23B9 SWAP2 SWAP1 PUSH2 0x41AE JUMP JUMPDEST SWAP1 DUP2 MSTORE PUSH1 0x40 MLOAD SWAP1 DUP2 SWAP1 SUB PUSH1 0x20 ADD DUP2 KECCAK256 PUSH1 0x7 ADD DUP1 SLOAD SWAP3 ISZERO ISZERO PUSH1 0xFF NOT SWAP1 SWAP4 AND SWAP3 SWAP1 SWAP3 OR SWAP1 SWAP2 SSTORE DUP4 SWAP1 PUSH1 0x2 SWAP1 PUSH2 0x23ED SWAP1 DUP14 SWAP1 PUSH2 0x41AE JUMP JUMPDEST SWAP1 DUP2 MSTORE PUSH1 0x20 ADD PUSH1 0x40 MLOAD DUP1 SWAP2 SUB SWAP1 KECCAK256 PUSH1 0x7 ADD PUSH1 0x1 PUSH2 0x100 EXP DUP2 SLOAD DUP2 PUSH1 0x1 PUSH1 0x1 PUSH1 0xA0 SHL SUB MUL NOT AND SWAP1 DUP4 PUSH1 0x1 PUSH1 0x1 PUSH1 0xA0 SHL SUB AND MUL OR SWAP1 SSTORE POP DUP2 PUSH2 0x242E JUMPI PUSH1 0x0 PUSH2 0x2430 JUMP JUMPDEST DUP1 JUMPDEST PUSH1 0x2 DUP12 PUSH1 0x40 MLOAD PUSH2 0x2440 SWAP2 SWAP1 PUSH2 0x41AE JUMP JUMPDEST SWAP1 DUP2 MSTORE PUSH1 0x20 ADD PUSH1 0x40 MLOAD DUP1 SWAP2 SUB SWAP1 KECCAK256 PUSH1 0x8 ADD DUP2 SWAP1 SSTORE POP DUP4 PUSH1 0x2 DUP12 PUSH1 0x40 MLOAD PUSH2 0x2466 SWAP2 SWAP1 PUSH2 0x41AE JUMP JUMPDEST SWAP1 DUP2 MSTORE PUSH1 0x40 MLOAD SWAP1 DUP2 SWAP1 SUB PUSH1 0x20 ADD SWAP1 KECCAK256 PUSH1 0x9 ADD SSTORE PUSH1 0x6 DUP1 SLOAD PUSH1 0x1 DUP2 ADD DUP3 SSTORE PUSH1 0x0 SWAP2 SWAP1 SWAP2 MSTORE PUSH32 0xF652222313E28459528D920B65115C16C04F3EFC82AAEDC97BE59F3F377C0D3F ADD PUSH2 0x24B5 DUP12 DUP3 PUSH2 0x42ED JUMP JUMPDEST POP PUSH32 0x448FEABBF5BB385EB3EA2CB16D90B1CB3B4C8936E399CF7A10E7B8946EEC667 DUP11 PUSH1 0x40 MLOAD PUSH2 0x24E5 SWAP2 SWAP1 PUSH2 0x3AD6 JUMP JUMPDEST PUSH1 0x40 MLOAD DUP1 SWAP2 SUB SWAP1 LOG1 POP POP POP POP POP POP POP POP POP POP JUMP JUMPDEST PUSH1 0x0 SLOAD PUSH1 0x1 PUSH1 0x1 PUSH1 0xA0 SHL SUB AND CALLER EQ PUSH2 0xA4E JUMPI PUSH1 0x40 MLOAD PUSH3 0x461BCD PUSH1 0xE5 SHL DUP2 MSTORE PUSH1 0x20 PUSH1 0x4 DUP3 ADD DUP2 SWAP1 MSTORE PUSH1 0x24 DUP3 ADD MSTORE PUSH32 0x4F776E61626C653A2063616C6C6572206973206E6F7420746865206F776E6572 PUSH1 0x44 DUP3 ADD MSTORE PUSH1 0x64 ADD PUSH2 0x5EA JUMP JUMPDEST PUSH1 0x60 PUSH1 0x0 PUSH2 0x2560 DUP4 PUSH2 0x26E8 JUMP JUMPDEST PUSH1 0x1 ADD SWAP1 POP PUSH1 0x0 DUP2 PUSH1 0x1 PUSH1 0x1 PUSH1 0x40 SHL SUB DUP2 GT ISZERO PUSH2 0x257F JUMPI PUSH2 0x257F PUSH2 0x35F7 JUMP JUMPDEST PUSH1 0x40 MLOAD SWAP1 DUP1 DUP3 MSTORE DUP1 PUSH1 0x1F ADD PUSH1 0x1F NOT AND PUSH1 0x20 ADD DUP3 ADD PUSH1 0x40 MSTORE DUP1 ISZERO PUSH2 0x25A9 JUMPI PUSH1 0x20 DUP3 ADD DUP2 DUP1 CALLDATASIZE DUP4 CALLDATACOPY ADD SWAP1 POP JUMPDEST POP SWAP1 POP DUP2 DUP2 ADD PUSH1 0x20 ADD JUMPDEST PUSH1 0x0 NOT ADD PUSH16 0x181899199A1A9B1B9C1CB0B131B232B3 PUSH1 0x81 SHL PUSH1 0xA DUP7 MOD BYTE DUP2 MSTORE8 PUSH1 0xA DUP6 DIV SWAP5 POP DUP5 PUSH2 0x25B3 JUMPI POP SWAP4 SWAP3 POP POP POP JUMP JUMPDEST PUSH1 0x0 DUP1 SLOAD PUSH1 0x1 PUSH1 0x1 PUSH1 0xA0 SHL SUB DUP4 DUP2 AND PUSH1 0x1 PUSH1 0x1 PUSH1 0xA0 SHL SUB NOT DUP4 AND DUP2 OR DUP5 SSTORE PUSH1 0x40 MLOAD SWAP2 SWAP1 SWAP3 AND SWAP3 DUP4 SWAP2 PUSH32 0x8BE0079C531659141344CD1FD0A4F28419497F9722A3DAAFE3B4186F6B6457E0 SWAP2 SWAP1 LOG3 POP POP JUMP JUMPDEST CALLER PUSH1 0x1 PUSH1 0x1 PUSH1 0xA0 SHL SUB PUSH32 0x0 AND EQ PUSH2 0xA4E JUMPI PUSH1 0x40 MLOAD PUSH4 0x4CA88867 PUSH1 0xE0 SHL DUP2 MSTORE PUSH1 0x4 ADD PUSH1 0x40 MLOAD DUP1 SWAP2 SUB SWAP1 REVERT JUMPDEST PUSH1 0x1 JUMPDEST SWAP3 SWAP2 POP POP JUMP JUMPDEST PUSH1 0x9 SLOAD PUSH1 0x0 SWAP1 PUSH1 0xFF AND ISZERO PUSH2 0x26AD JUMPI PUSH1 0x40 MLOAD PUSH3 0x461BCD PUSH1 0xE5 SHL DUP2 MSTORE PUSH1 0x4 ADD PUSH2 0x5EA SWAP1 PUSH2 0x40EC JUMP JUMPDEST PUSH1 0x3 SLOAD DUP4 PUSH1 0x20 ADD CALLDATALOAD SUB PUSH2 0x26CA JUMPI PUSH2 0x26C3 DUP4 PUSH2 0x27C0 JUMP JUMPDEST SWAP1 POP PUSH2 0x2681 JUMP JUMPDEST PUSH1 0x4 SLOAD DUP4 PUSH1 0x20 ADD CALLDATALOAD SUB PUSH2 0x26E0 JUMPI PUSH2 0x26C3 DUP4 PUSH2 0x2C24 JUMP JUMPDEST POP PUSH1 0x0 PUSH2 0x2681 JUMP JUMPDEST PUSH1 0x0 DUP1 PUSH19 0x184F03E93FF9F4DAA797ED6E38ED64BF6A1F01 PUSH1 0x40 SHL DUP4 LT PUSH2 0x2727 JUMPI PUSH19 0x184F03E93FF9F4DAA797ED6E38ED64BF6A1F01 PUSH1 0x40 SHL DUP4 DIV SWAP3 POP PUSH1 0x40 ADD JUMPDEST PUSH14 0x4EE2D6D415B85ACEF8100000000 DUP4 LT PUSH2 0x2753 JUMPI PUSH14 0x4EE2D6D415B85ACEF8100000000 DUP4 DIV SWAP3 POP PUSH1 0x20 ADD JUMPDEST PUSH7 0x2386F26FC10000 DUP4 LT PUSH2 0x2771 JUMPI PUSH7 0x2386F26FC10000 DUP4 DIV SWAP3 POP PUSH1 0x10 ADD JUMPDEST PUSH4 0x5F5E100 DUP4 LT PUSH2 0x2789 JUMPI PUSH4 0x5F5E100 DUP4 DIV SWAP3 POP PUSH1 0x8 ADD JUMPDEST PUSH2 0x2710 DUP4 LT PUSH2 0x279D JUMPI PUSH2 0x2710 DUP4 DIV SWAP3 POP PUSH1 0x4 ADD JUMPDEST PUSH1 0x64 DUP4 LT PUSH2 0x27AF JUMPI PUSH1 0x64 DUP4 DIV SWAP3 POP PUSH1 0x2 ADD JUMPDEST PUSH1 0xA DUP4 LT PUSH2 0x2681 JUMPI PUSH1 0x1 ADD SWAP3 SWAP2 POP POP JUMP JUMPDEST PUSH1 0x0 DUP1 DUP1 DUP1 PUSH2 0x27D3 PUSH2 0x120 DUP7 ADD DUP7 PUSH2 0x43AC JUMP JUMPDEST DUP2 ADD SWAP1 PUSH2 0x27E0 SWAP2 SWAP1 PUSH2 0x43F2 JUMP JUMPDEST POP SWAP3 POP SWAP3 POP SWAP3 POP PUSH1 0x0 PUSH1 0x2 DUP5 PUSH1 0x40 MLOAD PUSH2 0x27F9 SWAP2 SWAP1 PUSH2 0x41AE JUMP JUMPDEST SWAP1 DUP2 MSTORE PUSH1 0x20 ADD PUSH1 0x40 MLOAD DUP1 SWAP2 SUB SWAP1 KECCAK256 SWAP1 POP PUSH1 0x0 PUSH1 0xA DUP3 PUSH1 0x9 ADD SLOAD DUP2 SLOAD DUP2 LT PUSH2 0x2822 JUMPI PUSH2 0x2822 PUSH2 0x4204 JUMP JUMPDEST PUSH1 0x0 SWAP2 DUP3 MSTORE PUSH1 0x20 DUP3 KECCAK256 PUSH1 0x3 SWAP1 SWAP2 MUL ADD SWAP2 POP PUSH2 0x2844 PUSH2 0x100 DUP10 ADD PUSH1 0xE0 DUP11 ADD PUSH2 0x3AF0 JUMP JUMPDEST PUSH1 0x7 DUP5 ADD SLOAD SWAP1 SWAP2 POP DUP9 CALLDATALOAD SWAP1 PUSH1 0x0 SWAP1 PUSH1 0xFF AND ISZERO DUP1 ISZERO PUSH2 0x28B9 JUMPI POP PUSH2 0x28B9 DUP6 PUSH1 0x2 ADD DUP1 SLOAD DUP1 PUSH1 0x20 MUL PUSH1 0x20 ADD PUSH1 0x40 MLOAD SWAP1 DUP2 ADD PUSH1 0x40 MSTORE DUP1 SWAP3 SWAP2 SWAP1 DUP2 DUP2 MSTORE PUSH1 0x20 ADD DUP3 DUP1 SLOAD DUP1 ISZERO PUSH2 0x28AE JUMPI PUSH1 0x20 MUL DUP3 ADD SWAP2 SWAP1 PUSH1 0x0 MSTORE PUSH1 0x20 PUSH1 0x0 KECCAK256 SWAP1 JUMPDEST DUP2 SLOAD DUP2 MSTORE PUSH1 0x20 ADD SWAP1 PUSH1 0x1 ADD SWAP1 DUP1 DUP4 GT PUSH2 0x289A JUMPI JUMPDEST POP POP POP POP POP DUP9 PUSH2 0x2E8D JUMP JUMPDEST DUP1 ISZERO PUSH2 0x28C6 JUMPI POP DUP6 MLOAD DUP5 SLOAD EQ JUMPDEST DUP1 ISZERO PUSH2 0x28D7 JUMPI POP PUSH2 0x28D7 DUP4 DUP10 PUSH2 0x2EE0 JUMP JUMPDEST DUP1 ISZERO PUSH2 0x28E9 JUMPI POP PUSH2 0x28E9 DUP4 DUP10 DUP10 PUSH2 0x2F84 JUMP JUMPDEST DUP1 ISZERO PUSH2 0x28FA JUMPI POP PUSH2 0x28FA DUP5 DUP8 PUSH2 0x307E JUMP JUMPDEST SWAP1 POP DUP1 ISZERO PUSH2 0x2C17 JUMPI DUP5 PUSH1 0x6 ADD PUSH1 0x40 MLOAD DUP1 PUSH1 0x80 ADD PUSH1 0x40 MSTORE DUP1 DUP6 PUSH1 0x1 PUSH1 0x1 PUSH1 0xA0 SHL SUB AND DUP2 MSTORE PUSH1 0x20 ADD DUP10 DUP2 MSTORE PUSH1 0x20 ADD DUP5 DUP2 MSTORE PUSH1 0x20 ADD PUSH1 0x0 PUSH1 0x1 PUSH1 0x1 PUSH1 0x40 SHL SUB DUP2 GT ISZERO PUSH2 0x2945 JUMPI PUSH2 0x2945 PUSH2 0x35F7 JUMP JUMPDEST PUSH1 0x40 MLOAD SWAP1 DUP1 DUP3 MSTORE DUP1 PUSH1 0x20 MUL PUSH1 0x20 ADD DUP3 ADD PUSH1 0x40 MSTORE DUP1 ISZERO PUSH2 0x296E JUMPI DUP2 PUSH1 0x20 ADD PUSH1 0x20 DUP3 MUL DUP1 CALLDATASIZE DUP4 CALLDATACOPY ADD SWAP1 POP JUMPDEST POP SWAP1 MSTORE DUP2 SLOAD PUSH1 0x1 DUP1 DUP3 ADD DUP5 SSTORE PUSH1 0x0 SWAP4 DUP5 MSTORE PUSH1 0x20 SWAP4 DUP5 SWAP1 KECCAK256 DUP4 MLOAD PUSH1 0x4 SWAP1 SWAP4 MUL ADD DUP1 SLOAD PUSH1 0x1 PUSH1 0x1 PUSH1 0xA0 SHL SUB NOT AND PUSH1 0x1 PUSH1 0x1 PUSH1 0xA0 SHL SUB SWAP1 SWAP4 AND SWAP3 SWAP1 SWAP3 OR DUP3 SSTORE DUP3 DUP5 ADD MLOAD SWAP1 DUP3 ADD SSTORE PUSH1 0x40 DUP3 ADD MLOAD PUSH1 0x2 DUP3 ADD SSTORE PUSH1 0x60 DUP3 ADD MLOAD DUP1 MLOAD SWAP3 SWAP4 SWAP2 SWAP3 PUSH2 0x29D7 SWAP3 PUSH1 0x3 DUP6 ADD SWAP3 ADD SWAP1 PUSH2 0x3515 JUMP JUMPDEST POP POP POP PUSH1 0x5 DUP6 ADD SLOAD ISZERO PUSH2 0x2B1E JUMPI DUP5 PUSH1 0x5 ADD SLOAD DUP6 PUSH1 0x8 ADD PUSH1 0x0 DUP3 DUP3 SLOAD PUSH2 0x29FC SWAP2 SWAP1 PUSH2 0x4141 JUMP JUMPDEST SWAP1 SWAP2 SSTORE POP POP PUSH1 0x7 DUP6 ADD SLOAD PUSH2 0x100 SWAP1 DIV PUSH1 0x1 PUSH1 0x1 PUSH1 0xA0 SHL SUB AND PUSH2 0x2A57 JUMPI PUSH1 0x5 DUP6 ADD SLOAD PUSH1 0x40 MLOAD PUSH1 0x1 PUSH1 0x1 PUSH1 0xA0 SHL SUB DUP6 AND SWAP2 DUP1 ISZERO PUSH2 0x8FC MUL SWAP2 PUSH1 0x0 DUP2 DUP2 DUP2 DUP6 DUP9 DUP9 CALL SWAP4 POP POP POP POP ISZERO DUP1 ISZERO PUSH2 0x2A51 JUMPI RETURNDATASIZE PUSH1 0x0 DUP1 RETURNDATACOPY RETURNDATASIZE PUSH1 0x0 REVERT JUMPDEST POP PUSH2 0x2B1E JUMP JUMPDEST PUSH1 0x7 DUP6 ADD SLOAD PUSH1 0x5 DUP7 ADD SLOAD PUSH1 0x40 MLOAD PUSH4 0xA9059CBB PUSH1 0xE0 SHL DUP2 MSTORE PUSH1 0x1 PUSH1 0x1 PUSH1 0xA0 SHL SUB DUP7 DUP2 AND PUSH1 0x4 DUP4 ADD MSTORE PUSH1 0x24 DUP3 ADD SWAP3 SWAP1 SWAP3 MSTORE PUSH2 0x100 SWAP1 SWAP3 DIV AND SWAP1 PUSH4 0xA9059CBB SWAP1 PUSH1 0x44 ADD PUSH1 0x20 PUSH1 0x40 MLOAD DUP1 DUP4 SUB DUP2 PUSH1 0x0 DUP8 GAS CALL ISZERO DUP1 ISZERO PUSH2 0x2AB6 JUMPI RETURNDATASIZE PUSH1 0x0 DUP1 RETURNDATACOPY RETURNDATASIZE PUSH1 0x0 REVERT JUMPDEST POP POP POP POP PUSH1 0x40 MLOAD RETURNDATASIZE PUSH1 0x1F NOT PUSH1 0x1F DUP3 ADD AND DUP3 ADD DUP1 PUSH1 0x40 MSTORE POP DUP2 ADD SWAP1 PUSH2 0x2ADA SWAP2 SWAP1 PUSH2 0x4285 JUMP JUMPDEST PUSH2 0x2B1E JUMPI PUSH1 0x40 MLOAD PUSH3 0x461BCD PUSH1 0xE5 SHL DUP2 MSTORE PUSH1 0x20 PUSH1 0x4 DUP3 ADD MSTORE PUSH1 0x15 PUSH1 0x24 DUP3 ADD MSTORE PUSH21 0x151BDAD95B881D1C985B9CD9995C8819985A5B1959 PUSH1 0x5A SHL PUSH1 0x44 DUP3 ADD MSTORE PUSH1 0x64 ADD PUSH2 0x5EA JUMP JUMPDEST PUSH1 0x1 SLOAD PUSH1 0x1 PUSH1 0x1 PUSH1 0xA0 SHL SUB AND ISZERO PUSH2 0x2BDF JUMPI PUSH1 0x1 SLOAD PUSH1 0x40 MLOAD PUSH4 0xBB69AB33 PUSH1 0xE0 SHL DUP2 MSTORE PUSH1 0x1 PUSH1 0x1 PUSH1 0xA0 SHL SUB SWAP1 SWAP2 AND SWAP1 PUSH4 0xBB69AB33 SWAP1 PUSH2 0x2B61 SWAP1 DUP14 SWAP1 DUP13 SWAP1 PUSH1 0x4 ADD PUSH2 0x4513 JUMP JUMPDEST PUSH1 0x20 PUSH1 0x40 MLOAD DUP1 DUP4 SUB DUP2 PUSH1 0x0 DUP8 GAS CALL ISZERO DUP1 ISZERO PUSH2 0x2B80 JUMPI RETURNDATASIZE PUSH1 0x0 DUP1 RETURNDATACOPY RETURNDATASIZE PUSH1 0x0 REVERT JUMPDEST POP POP POP POP PUSH1 0x40 MLOAD RETURNDATASIZE PUSH1 0x1F NOT PUSH1 0x1F DUP3 ADD AND DUP3 ADD DUP1 PUSH1 0x40 MSTORE POP DUP2 ADD SWAP1 PUSH2 0x2BA4 SWAP2 SWAP1 PUSH2 0x4285 JUMP JUMPDEST POP PUSH32 0x253A8677ADAEC417DAE20224E9F7EB1182AED5A01B1938114CB310CD5C5D954D DUP11 DUP10 PUSH1 0x40 MLOAD PUSH2 0x2BD6 SWAP3 SWAP2 SWAP1 PUSH2 0x4513 JUMP JUMPDEST PUSH1 0x40 MLOAD DUP1 SWAP2 SUB SWAP1 LOG1 JUMPDEST PUSH32 0x4D6DD501DF538F815F442947C933FC2F545525E75F909B918A6D0701ACC7904C DUP9 PUSH1 0x40 MLOAD PUSH2 0x2C0E SWAP2 SWAP1 PUSH2 0x3AD6 JUMP JUMPDEST PUSH1 0x40 MLOAD DUP1 SWAP2 SUB SWAP1 LOG1 JUMPDEST SWAP10 SWAP9 POP POP POP POP POP POP POP POP POP JUMP JUMPDEST PUSH1 0x0 DUP1 DUP1 DUP1 PUSH2 0x2C37 PUSH2 0x120 DUP7 ADD DUP7 PUSH2 0x43AC JUMP JUMPDEST DUP2 ADD SWAP1 PUSH2 0x2C44 SWAP2 SWAP1 PUSH2 0x4630 JUMP JUMPDEST SWAP3 POP SWAP3 POP SWAP3 POP PUSH1 0x0 PUSH1 0x2 DUP5 PUSH1 0x40 MLOAD PUSH2 0x2C5C SWAP2 SWAP1 PUSH2 0x41AE JUMP JUMPDEST SWAP1 DUP2 MSTORE PUSH1 0x40 MLOAD SWAP1 DUP2 SWAP1 SUB PUSH1 0x20 ADD SWAP1 KECCAK256 PUSH1 0x6 DUP2 ADD SLOAD SWAP1 SWAP2 POP ISZERO PUSH2 0x2E81 JUMPI PUSH1 0x0 JUMPDEST PUSH1 0x6 DUP3 ADD SLOAD DUP2 LT ISZERO PUSH2 0x2E7F JUMPI DUP7 PUSH1 0xA0 ADD CALLDATALOAD DUP3 PUSH1 0x6 ADD DUP3 DUP2 SLOAD DUP2 LT PUSH2 0x2CA1 JUMPI PUSH2 0x2CA1 PUSH2 0x4204 JUMP JUMPDEST SWAP1 PUSH1 0x0 MSTORE PUSH1 0x20 PUSH1 0x0 KECCAK256 SWAP1 PUSH1 0x4 MUL ADD PUSH1 0x2 ADD SLOAD EQ DUP1 ISZERO PUSH2 0x2D06 JUMPI POP PUSH2 0x2CCC PUSH2 0x100 DUP9 ADD PUSH1 0xE0 DUP10 ADD PUSH2 0x3AF0 JUMP JUMPDEST PUSH1 0x1 PUSH1 0x1 PUSH1 0xA0 SHL SUB AND DUP3 PUSH1 0x6 ADD DUP3 DUP2 SLOAD DUP2 LT PUSH2 0x2CEA JUMPI PUSH2 0x2CEA PUSH2 0x4204 JUMP JUMPDEST PUSH1 0x0 SWAP2 DUP3 MSTORE PUSH1 0x20 SWAP1 SWAP2 KECCAK256 PUSH1 0x4 SWAP1 SWAP2 MUL ADD SLOAD PUSH1 0x1 PUSH1 0x1 PUSH1 0xA0 SHL SUB AND EQ JUMPDEST DUP1 ISZERO PUSH2 0x2D13 JUMPI POP PUSH1 0x0 DUP4 MLOAD GT JUMPDEST DUP1 ISZERO PUSH2 0x2D44 JUMPI POP DUP4 DUP3 PUSH1 0x6 ADD DUP3 DUP2 SLOAD DUP2 LT PUSH2 0x2D30 JUMPI PUSH2 0x2D30 PUSH2 0x4204 JUMP JUMPDEST SWAP1 PUSH1 0x0 MSTORE PUSH1 0x20 PUSH1 0x0 KECCAK256 SWAP1 PUSH1 0x4 MUL ADD PUSH1 0x1 ADD SLOAD EQ JUMPDEST ISZERO PUSH2 0x2E6D JUMPI PUSH1 0x0 DUP1 JUMPDEST DUP4 PUSH1 0x6 ADD DUP4 DUP2 SLOAD DUP2 LT PUSH2 0x2D62 JUMPI PUSH2 0x2D62 PUSH2 0x4204 JUMP JUMPDEST SWAP1 PUSH1 0x0 MSTORE PUSH1 0x20 PUSH1 0x0 KECCAK256 SWAP1 PUSH1 0x4 MUL ADD PUSH1 0x3 ADD DUP1 SLOAD SWAP1 POP DUP2 LT ISZERO PUSH2 0x2DE5 JUMPI DUP9 PUSH1 0x0 ADD CALLDATALOAD DUP5 PUSH1 0x6 ADD DUP5 DUP2 SLOAD DUP2 LT PUSH2 0x2D98 JUMPI PUSH2 0x2D98 PUSH2 0x4204 JUMP JUMPDEST SWAP1 PUSH1 0x0 MSTORE PUSH1 0x20 PUSH1 0x0 KECCAK256 SWAP1 PUSH1 0x4 MUL ADD PUSH1 0x3 ADD DUP3 DUP2 SLOAD DUP2 LT PUSH2 0x2DBA JUMPI PUSH2 0x2DBA PUSH2 0x4204 JUMP JUMPDEST SWAP1 PUSH1 0x0 MSTORE PUSH1 0x20 PUSH1 0x0 KECCAK256 ADD SLOAD SUB PUSH2 0x2DD3 JUMPI PUSH1 0x1 SWAP2 POP PUSH2 0x2DE5 JUMP JUMPDEST DUP1 PUSH2 0x2DDD DUP2 PUSH2 0x4231 JUMP JUMPDEST SWAP2 POP POP PUSH2 0x2D4D JUMP JUMPDEST POP DUP1 PUSH2 0x2E6B JUMPI DUP3 PUSH1 0x6 ADD DUP3 DUP2 SLOAD DUP2 LT PUSH2 0x2E00 JUMPI PUSH2 0x2E00 PUSH2 0x4204 JUMP JUMPDEST PUSH1 0x0 SWAP2 DUP3 MSTORE PUSH1 0x20 DUP1 DUP4 KECCAK256 PUSH1 0x4 SWAP3 SWAP1 SWAP3 MUL SWAP1 SWAP2 ADD PUSH1 0x3 ADD DUP1 SLOAD PUSH1 0x1 DUP2 ADD DUP3 SSTORE SWAP1 DUP4 MSTORE SWAP2 DUP2 SWAP1 KECCAK256 DUP11 CALLDATALOAD SWAP3 ADD DUP3 SWAP1 SSTORE PUSH1 0x40 MLOAD SWAP2 DUP3 MSTORE PUSH32 0xEE28E94AC55844F79E4A8805659E8F6DED6BFE24B7EBE0570DEB71C158EC9433 SWAP2 ADD PUSH1 0x40 MLOAD DUP1 SWAP2 SUB SWAP1 LOG1 POP PUSH1 0x1 SWAP8 SWAP7 POP POP POP POP POP POP POP JUMP JUMPDEST POP JUMPDEST DUP1 PUSH2 0x2E77 DUP2 PUSH2 0x4231 JUMP JUMPDEST SWAP2 POP POP PUSH2 0x2C7B JUMP JUMPDEST POP JUMPDEST POP PUSH1 0x0 SWAP6 SWAP5 POP POP POP POP POP JUMP JUMPDEST PUSH1 0x0 DUP1 JUMPDEST DUP4 MLOAD DUP2 LT ISZERO PUSH2 0x2ED6 JUMPI DUP3 DUP5 DUP3 DUP2 MLOAD DUP2 LT PUSH2 0x2EAD JUMPI PUSH2 0x2EAD PUSH2 0x4204 JUMP JUMPDEST PUSH1 0x20 MUL PUSH1 0x20 ADD ADD MLOAD SUB PUSH2 0x2EC4 JUMPI PUSH1 0x1 SWAP2 POP POP PUSH2 0x2681 JUMP JUMPDEST DUP1 PUSH2 0x2ECE DUP2 PUSH2 0x4231 JUMP JUMPDEST SWAP2 POP POP PUSH2 0x2E91 JUMP JUMPDEST POP PUSH1 0x0 SWAP4 SWAP3 POP POP POP JUMP JUMPDEST PUSH1 0x0 DUP1 DUP1 JUMPDEST PUSH1 0x2 DUP5 PUSH1 0x40 MLOAD PUSH2 0x2EF5 SWAP2 SWAP1 PUSH2 0x41AE JUMP JUMPDEST SWAP1 DUP2 MSTORE PUSH1 0x40 MLOAD SWAP1 DUP2 SWAP1 SUB PUSH1 0x20 ADD SWAP1 KECCAK256 PUSH1 0x1 ADD SLOAD DUP2 LT ISZERO PUSH2 0x2F7C JUMPI DUP5 PUSH1 0x1 PUSH1 0x1 PUSH1 0xA0 SHL SUB AND PUSH1 0x2 DUP6 PUSH1 0x40 MLOAD PUSH2 0x2F29 SWAP2 SWAP1 PUSH2 0x41AE JUMP JUMPDEST SWAP1 DUP2 MSTORE PUSH1 0x20 ADD PUSH1 0x40 MLOAD DUP1 SWAP2 SUB SWAP1 KECCAK256 PUSH1 0x1 ADD DUP3 DUP2 SLOAD DUP2 LT PUSH2 0x2F4B JUMPI PUSH2 0x2F4B PUSH2 0x4204 JUMP JUMPDEST PUSH1 0x0 SWAP2 DUP3 MSTORE PUSH1 0x20 SWAP1 SWAP2 KECCAK256 ADD SLOAD PUSH1 0x1 PUSH1 0x1 PUSH1 0xA0 SHL SUB AND SUB PUSH2 0x2F6A JUMPI PUSH1 0x1 SWAP2 POP JUMPDEST DUP1 PUSH2 0x2F74 DUP2 PUSH2 0x4231 JUMP JUMPDEST SWAP2 POP POP PUSH2 0x2EE5 JUMP JUMPDEST POP SWAP4 SWAP3 POP POP POP JUMP JUMPDEST PUSH1 0x0 PUSH1 0x1 DUP2 JUMPDEST PUSH1 0x2 DUP6 PUSH1 0x40 MLOAD PUSH2 0x2F9A SWAP2 SWAP1 PUSH2 0x41AE JUMP JUMPDEST SWAP1 DUP2 MSTORE PUSH1 0x40 MLOAD SWAP1 DUP2 SWAP1 SUB PUSH1 0x20 ADD SWAP1 KECCAK256 PUSH1 0x6 ADD SLOAD DUP2 LT ISZERO PUSH2 0x3075 JUMPI DUP4 PUSH1 0x2 DUP7 PUSH1 0x40 MLOAD PUSH2 0x2FC5 SWAP2 SWAP1 PUSH2 0x41AE JUMP JUMPDEST SWAP1 DUP2 MSTORE PUSH1 0x20 ADD PUSH1 0x40 MLOAD DUP1 SWAP2 SUB SWAP1 KECCAK256 PUSH1 0x6 ADD DUP3 DUP2 SLOAD DUP2 LT PUSH2 0x2FE7 JUMPI PUSH2 0x2FE7 PUSH2 0x4204 JUMP JUMPDEST SWAP1 PUSH1 0x0 MSTORE PUSH1 0x20 PUSH1 0x0 KECCAK256 SWAP1 PUSH1 0x4 MUL ADD PUSH1 0x1 ADD SLOAD EQ DUP1 ISZERO PUSH2 0x3059 JUMPI POP DUP6 PUSH1 0x1 PUSH1 0x1 PUSH1 0xA0 SHL SUB AND PUSH1 0x2 DUP7 PUSH1 0x40 MLOAD PUSH2 0x301B SWAP2 SWAP1 PUSH2 0x41AE JUMP JUMPDEST SWAP1 DUP2 MSTORE PUSH1 0x20 ADD PUSH1 0x40 MLOAD DUP1 SWAP2 SUB SWAP1 KECCAK256 PUSH1 0x6 ADD DUP3 DUP2 SLOAD DUP2 LT PUSH2 0x303D JUMPI PUSH2 0x303D PUSH2 0x4204 JUMP JUMPDEST PUSH1 0x0 SWAP2 DUP3 MSTORE PUSH1 0x20 SWAP1 SWAP2 KECCAK256 PUSH1 0x4 SWAP1 SWAP2 MUL ADD SLOAD PUSH1 0x1 PUSH1 0x1 PUSH1 0xA0 SHL SUB AND EQ JUMPDEST ISZERO PUSH2 0x3063 JUMPI PUSH1 0x0 SWAP2 POP JUMPDEST DUP1 PUSH2 0x306D DUP2 PUSH2 0x4231 JUMP JUMPDEST SWAP2 POP POP PUSH2 0x2F8A JUMP JUMPDEST POP SWAP5 SWAP4 POP POP POP POP JUMP JUMPDEST PUSH1 0x0 DUP1 JUMPDEST DUP3 MLOAD DUP2 LT ISZERO PUSH2 0x3357 JUMPI PUSH1 0x2 DUP5 PUSH1 0x1 ADD DUP3 DUP2 SLOAD DUP2 LT PUSH2 0x30A2 JUMPI PUSH2 0x30A2 PUSH2 0x4204 JUMP JUMPDEST SWAP1 PUSH1 0x0 MSTORE PUSH1 0x20 PUSH1 0x0 KECCAK256 SWAP1 PUSH1 0x20 SWAP2 DUP3 DUP3 DIV ADD SWAP2 SWAP1 MOD SWAP1 SLOAD SWAP1 PUSH2 0x100 EXP SWAP1 DIV PUSH1 0xFF AND PUSH1 0x2 DUP2 GT ISZERO PUSH2 0x30D3 JUMPI PUSH2 0x30D3 PUSH2 0x3F8A JUMP JUMPDEST SUB PUSH2 0x31DB JUMPI PUSH1 0x0 DUP1 JUMPDEST DUP6 PUSH1 0x2 ADD DUP4 DUP2 SLOAD DUP2 LT PUSH2 0x30F1 JUMPI PUSH2 0x30F1 PUSH2 0x4204 JUMP JUMPDEST PUSH1 0x0 SWAP2 DUP3 MSTORE PUSH1 0x20 SWAP1 SWAP2 KECCAK256 ADD SLOAD DUP2 LT ISZERO PUSH2 0x31C4 JUMPI DUP5 DUP4 DUP2 MLOAD DUP2 LT PUSH2 0x3116 JUMPI PUSH2 0x3116 PUSH2 0x4204 JUMP JUMPDEST PUSH1 0x20 MUL PUSH1 0x20 ADD ADD MLOAD PUSH1 0x40 MLOAD PUSH1 0x20 ADD PUSH2 0x312E SWAP2 SWAP1 PUSH2 0x41AE JUMP JUMPDEST PUSH1 0x40 MLOAD PUSH1 0x20 DUP2 DUP4 SUB SUB DUP2 MSTORE SWAP1 PUSH1 0x40 MSTORE DUP1 MLOAD SWAP1 PUSH1 0x20 ADD KECCAK256 DUP7 PUSH1 0x2 ADD DUP5 DUP2 SLOAD DUP2 LT PUSH2 0x3159 JUMPI PUSH2 0x3159 PUSH2 0x4204 JUMP JUMPDEST SWAP1 PUSH1 0x0 MSTORE PUSH1 0x20 PUSH1 0x0 KECCAK256 ADD DUP3 DUP2 SLOAD DUP2 LT PUSH2 0x3174 JUMPI PUSH2 0x3174 PUSH2 0x4204 JUMP JUMPDEST SWAP1 PUSH1 0x0 MSTORE PUSH1 0x20 PUSH1 0x0 KECCAK256 ADD PUSH1 0x40 MLOAD PUSH1 0x20 ADD PUSH2 0x318E SWAP2 SWAP1 PUSH2 0x4692 JUMP JUMPDEST PUSH1 0x40 MLOAD PUSH1 0x20 DUP2 DUP4 SUB SUB DUP2 MSTORE SWAP1 PUSH1 0x40 MSTORE DUP1 MLOAD SWAP1 PUSH1 0x20 ADD KECCAK256 SUB PUSH2 0x31B2 JUMPI PUSH1 0x1 SWAP2 POP PUSH2 0x31C4 JUMP JUMPDEST DUP1 PUSH2 0x31BC DUP2 PUSH2 0x4231 JUMP JUMPDEST SWAP2 POP POP PUSH2 0x30DC JUMP JUMPDEST POP DUP1 PUSH2 0x31D5 JUMPI PUSH1 0x0 SWAP3 POP POP POP PUSH2 0x2681 JUMP JUMPDEST POP PUSH2 0x3345 JUMP JUMPDEST PUSH1 0x1 DUP5 PUSH1 0x1 ADD DUP3 DUP2 SLOAD DUP2 LT PUSH2 0x31F2 JUMPI PUSH2 0x31F2 PUSH2 0x4204 JUMP JUMPDEST SWAP1 PUSH1 0x0 MSTORE PUSH1 0x20 PUSH1 0x0 KECCAK256 SWAP1 PUSH1 0x20 SWAP2 DUP3 DUP3 DIV ADD SWAP2 SWAP1 MOD SWAP1 SLOAD SWAP1 PUSH2 0x100 EXP SWAP1 DIV PUSH1 0xFF AND PUSH1 0x2 DUP2 GT ISZERO PUSH2 0x3223 JUMPI PUSH2 0x3223 PUSH2 0x3F8A JUMP JUMPDEST SUB PUSH2 0x3319 JUMPI PUSH1 0x40 MLOAD PUSH3 0x596573 PUSH1 0xE8 SHL PUSH1 0x20 DUP3 ADD MSTORE PUSH1 0x23 ADD PUSH1 0x40 MLOAD PUSH1 0x20 DUP2 DUP4 SUB SUB DUP2 MSTORE SWAP1 PUSH1 0x40 MSTORE DUP1 MLOAD SWAP1 PUSH1 0x20 ADD KECCAK256 DUP4 DUP3 DUP2 MLOAD DUP2 LT PUSH2 0x3262 JUMPI PUSH2 0x3262 PUSH2 0x4204 JUMP JUMPDEST PUSH1 0x20 MUL PUSH1 0x20 ADD ADD MLOAD PUSH1 0x40 MLOAD PUSH1 0x20 ADD PUSH2 0x327A SWAP2 SWAP1 PUSH2 0x41AE JUMP JUMPDEST PUSH1 0x40 MLOAD PUSH1 0x20 DUP2 DUP4 SUB SUB DUP2 MSTORE SWAP1 PUSH1 0x40 MSTORE DUP1 MLOAD SWAP1 PUSH1 0x20 ADD KECCAK256 EQ DUP1 PUSH2 0x3300 JUMPI POP PUSH1 0x40 MLOAD PUSH2 0x4E6F PUSH1 0xF0 SHL PUSH1 0x20 DUP3 ADD MSTORE PUSH1 0x22 ADD PUSH1 0x40 MLOAD PUSH1 0x20 DUP2 DUP4 SUB SUB DUP2 MSTORE SWAP1 PUSH1 0x40 MSTORE DUP1 MLOAD SWAP1 PUSH1 0x20 ADD KECCAK256 DUP4 DUP3 DUP2 MLOAD DUP2 LT PUSH2 0x32D0 JUMPI PUSH2 0x32D0 PUSH2 0x4204 JUMP JUMPDEST PUSH1 0x20 MUL PUSH1 0x20 ADD ADD MLOAD PUSH1 0x40 MLOAD PUSH1 0x20 ADD PUSH2 0x32E8 SWAP2 SWAP1 PUSH2 0x41AE JUMP JUMPDEST PUSH1 0x40 MLOAD PUSH1 0x20 DUP2 DUP4 SUB SUB DUP2 MSTORE SWAP1 PUSH1 0x40 MSTORE DUP1 MLOAD SWAP1 PUSH1 0x20 ADD KECCAK256 EQ JUMPDEST ISZERO PUSH2 0x330F JUMPI PUSH1 0x1 SWAP2 POP POP PUSH2 0x2681 JUMP JUMPDEST PUSH1 0x0 SWAP2 POP POP PUSH2 0x2681 JUMP JUMPDEST DUP3 DUP2 DUP2 MLOAD DUP2 LT PUSH2 0x332B JUMPI PUSH2 0x332B PUSH2 0x4204 JUMP JUMPDEST PUSH1 0x20 MUL PUSH1 0x20 ADD ADD MLOAD MLOAD PUSH1 0x0 SUB PUSH2 0x3345 JUMPI PUSH1 0x0 SWAP2 POP POP PUSH2 0x2681 JUMP JUMPDEST DUP1 PUSH2 0x334F DUP2 PUSH2 0x4231 JUMP JUMPDEST SWAP2 POP POP PUSH2 0x3082 JUMP JUMPDEST POP PUSH1 0x1 SWAP4 SWAP3 POP POP POP JUMP JUMPDEST DUP3 DUP1 SLOAD DUP3 DUP3 SSTORE SWAP1 PUSH1 0x0 MSTORE PUSH1 0x20 PUSH1 0x0 KECCAK256 SWAP1 DUP2 ADD SWAP3 DUP3 ISZERO PUSH2 0x33A7 JUMPI SWAP2 PUSH1 0x20 MUL DUP3 ADD JUMPDEST DUP3 DUP2 GT ISZERO PUSH2 0x33A7 JUMPI DUP3 MLOAD DUP3 SWAP1 PUSH2 0x3397 SWAP1 DUP3 PUSH2 0x42ED JUMP JUMPDEST POP SWAP2 PUSH1 0x20 ADD SWAP2 SWAP1 PUSH1 0x1 ADD SWAP1 PUSH2 0x3381 JUMP JUMPDEST POP PUSH2 0x33B3 SWAP3 SWAP2 POP PUSH2 0x3550 JUMP JUMPDEST POP SWAP1 JUMP JUMPDEST DUP3 DUP1 SLOAD DUP3 DUP3 SSTORE SWAP1 PUSH1 0x0 MSTORE PUSH1 0x20 PUSH1 0x0 KECCAK256 SWAP1 PUSH1 0x1F ADD PUSH1 0x20 SWAP1 DIV DUP2 ADD SWAP3 DUP3 ISZERO PUSH2 0x345B JUMPI SWAP2 PUSH1 0x20 MUL DUP3 ADD PUSH1 0x0 JUMPDEST DUP4 DUP3 GT ISZERO PUSH2 0x342C JUMPI DUP4 MLOAD DUP4 DUP3 PUSH2 0x100 EXP DUP2 SLOAD DUP2 PUSH1 0xFF MUL NOT AND SWAP1 DUP4 PUSH1 0x2 DUP2 GT ISZERO PUSH2 0x340B JUMPI PUSH2 0x340B PUSH2 0x3F8A JUMP JUMPDEST MUL OR SWAP1 SSTORE POP SWAP3 PUSH1 0x20 ADD SWAP3 PUSH1 0x1 ADD PUSH1 0x20 DUP2 PUSH1 0x0 ADD DIV SWAP3 DUP4 ADD SWAP3 PUSH1 0x1 SUB MUL PUSH2 0x33E0 JUMP JUMPDEST DUP1 ISZERO PUSH2 0x3459 JUMPI DUP3 DUP2 PUSH2 0x100 EXP DUP2 SLOAD SWAP1 PUSH1 0xFF MUL NOT AND SWAP1 SSTORE PUSH1 0x1 ADD PUSH1 0x20 DUP2 PUSH1 0x0 ADD DIV SWAP3 DUP4 ADD SWAP3 PUSH1 0x1 SUB MUL PUSH2 0x342C JUMP JUMPDEST POP JUMPDEST POP PUSH2 0x33B3 SWAP3 SWAP2 POP PUSH2 0x356D JUMP JUMPDEST DUP3 DUP1 SLOAD DUP3 DUP3 SSTORE SWAP1 PUSH1 0x0 MSTORE PUSH1 0x20 PUSH1 0x0 KECCAK256 SWAP1 DUP2 ADD SWAP3 DUP3 ISZERO PUSH2 0x34B4 JUMPI SWAP2 PUSH1 0x20 MUL DUP3 ADD JUMPDEST DUP3 DUP2 GT ISZERO PUSH2 0x34B4 JUMPI DUP3 MLOAD DUP1 MLOAD PUSH2 0x34A4 SWAP2 DUP5 SWAP2 PUSH1 0x20 SWAP1 SWAP2 ADD SWAP1 PUSH2 0x3361 JUMP JUMPDEST POP SWAP2 PUSH1 0x20 ADD SWAP2 SWAP1 PUSH1 0x1 ADD SWAP1 PUSH2 0x3487 JUMP JUMPDEST POP PUSH2 0x33B3 SWAP3 SWAP2 POP PUSH2 0x3582 JUMP JUMPDEST DUP3 DUP1 SLOAD DUP3 DUP3 SSTORE SWAP1 PUSH1 0x0 MSTORE PUSH1 0x20 PUSH1 0x0 KECCAK256 SWAP1 DUP2 ADD SWAP3 DUP3 ISZERO PUSH2 0x345B JUMPI SWAP2 PUSH1 0x20 MUL DUP3 ADD JUMPDEST DUP3 DUP2 GT ISZERO PUSH2 0x345B JUMPI DUP3 MLOAD DUP3 SLOAD PUSH1 0x1 PUSH1 0x1 PUSH1 0xA0 SHL SUB NOT AND PUSH1 0x1 PUSH1 0x1 PUSH1 0xA0 SHL SUB SWAP1 SWAP2 AND OR DUP3 SSTORE PUSH1 0x20 SWAP1 SWAP3 ADD SWAP2 PUSH1 0x1 SWAP1 SWAP2 ADD SWAP1 PUSH2 0x34E0 JUMP JUMPDEST DUP3 DUP1 SLOAD DUP3 DUP3 SSTORE SWAP1 PUSH1 0x0 MSTORE PUSH1 0x20 PUSH1 0x0 KECCAK256 SWAP1 DUP2 ADD SWAP3 DUP3 ISZERO PUSH2 0x345B JUMPI SWAP2 PUSH1 0x20 MUL DUP3 ADD JUMPDEST DUP3 DUP2 GT ISZERO PUSH2 0x345B JUMPI DUP3 MLOAD DUP3 SSTORE SWAP2 PUSH1 0x20 ADD SWAP2 SWAP1 PUSH1 0x1 ADD SWAP1 PUSH2 0x3535 JUMP JUMPDEST DUP1 DUP3 GT ISZERO PUSH2 0x33B3 JUMPI PUSH1 0x0 PUSH2 0x3564 DUP3 DUP3 PUSH2 0x359F JUMP JUMPDEST POP PUSH1 0x1 ADD PUSH2 0x3550 JUMP JUMPDEST JUMPDEST DUP1 DUP3 GT ISZERO PUSH2 0x33B3 JUMPI PUSH1 0x0 DUP2 SSTORE PUSH1 0x1 ADD PUSH2 0x356E JUMP JUMPDEST DUP1 DUP3 GT ISZERO PUSH2 0x33B3 JUMPI PUSH1 0x0 PUSH2 0x3596 DUP3 DUP3 PUSH2 0x35D9 JUMP JUMPDEST POP PUSH1 0x1 ADD PUSH2 0x3582 JUMP JUMPDEST POP DUP1 SLOAD PUSH2 0x35AB SWAP1 PUSH2 0x41CA JUMP JUMPDEST PUSH1 0x0 DUP3 SSTORE DUP1 PUSH1 0x1F LT PUSH2 0x35BB JUMPI POP POP JUMP JUMPDEST PUSH1 0x1F ADD PUSH1 0x20 SWAP1 DIV SWAP1 PUSH1 0x0 MSTORE PUSH1 0x20 PUSH1 0x0 KECCAK256 SWAP1 DUP2 ADD SWAP1 PUSH2 0x1CDC SWAP2 SWAP1 PUSH2 0x356D JUMP JUMPDEST POP DUP1 SLOAD PUSH1 0x0 DUP3 SSTORE SWAP1 PUSH1 0x0 MSTORE PUSH1 0x20 PUSH1 0x0 KECCAK256 SWAP1 DUP2 ADD SWAP1 PUSH2 0x1CDC SWAP2 SWAP1 PUSH2 0x3550 JUMP JUMPDEST PUSH4 0x4E487B71 PUSH1 0xE0 SHL PUSH1 0x0 MSTORE PUSH1 0x41 PUSH1 0x4 MSTORE PUSH1 0x24 PUSH1 0x0 REVERT JUMPDEST PUSH1 0x40 MLOAD PUSH1 0x1F DUP3 ADD PUSH1 0x1F NOT AND DUP2 ADD PUSH1 0x1 PUSH1 0x1 PUSH1 0x40 SHL SUB DUP2 GT DUP3 DUP3 LT OR ISZERO PUSH2 0x3635 JUMPI PUSH2 0x3635 PUSH2 0x35F7 JUMP JUMPDEST PUSH1 0x40 MSTORE SWAP2 SWAP1 POP JUMP JUMPDEST PUSH1 0x0 PUSH1 0x1 PUSH1 0x1 PUSH1 0x40 SHL SUB DUP3 GT ISZERO PUSH2 0x3656 JUMPI PUSH2 0x3656 PUSH2 0x35F7 JUMP JUMPDEST POP PUSH1 0x5 SHL PUSH1 0x20 ADD SWAP1 JUMP JUMPDEST PUSH1 0x0 DUP3 PUSH1 0x1F DUP4 ADD SLT PUSH2 0x3671 JUMPI PUSH1 0x0 DUP1 REVERT JUMPDEST DUP2 CALLDATALOAD PUSH1 0x1 PUSH1 0x1 PUSH1 0x40 SHL SUB DUP2 GT ISZERO PUSH2 0x368A JUMPI PUSH2 0x368A PUSH2 0x35F7 JUMP JUMPDEST PUSH2 0x369D PUSH1 0x1F DUP3 ADD PUSH1 0x1F NOT AND PUSH1 0x20 ADD PUSH2 0x360D JUMP JUMPDEST DUP2 DUP2 MSTORE DUP5 PUSH1 0x20 DUP4 DUP7 ADD ADD GT ISZERO PUSH2 0x36B2 JUMPI PUSH1 0x0 DUP1 REVERT JUMPDEST DUP2 PUSH1 0x20 DUP6 ADD PUSH1 0x20 DUP4 ADD CALLDATACOPY PUSH1 0x0 SWAP2 DUP2 ADD PUSH1 0x20 ADD SWAP2 SWAP1 SWAP2 MSTORE SWAP4 SWAP3 POP POP POP JUMP JUMPDEST PUSH1 0x0 DUP3 PUSH1 0x1F DUP4 ADD SLT PUSH2 0x36E0 JUMPI PUSH1 0x0 DUP1 REVERT JUMPDEST DUP2 CALLDATALOAD PUSH1 0x20 PUSH2 0x36F5 PUSH2 0x36F0 DUP4 PUSH2 0x363D JUMP JUMPDEST PUSH2 0x360D JUMP JUMPDEST DUP3 DUP2 MSTORE PUSH1 0x5 SWAP3 SWAP1 SWAP3 SHL DUP5 ADD DUP2 ADD SWAP2 DUP2 DUP2 ADD SWAP1 DUP7 DUP5 GT ISZERO PUSH2 0x3714 JUMPI PUSH1 0x0 DUP1 REVERT JUMPDEST DUP3 DUP7 ADD JUMPDEST DUP5 DUP2 LT ISZERO PUSH2 0x3753 JUMPI DUP1 CALLDATALOAD PUSH1 0x1 PUSH1 0x1 PUSH1 0x40 SHL SUB DUP2 GT ISZERO PUSH2 0x3737 JUMPI PUSH1 0x0 DUP1 DUP2 REVERT JUMPDEST PUSH2 0x3745 DUP10 DUP7 DUP4 DUP12 ADD ADD PUSH2 0x3660 JUMP JUMPDEST DUP5 MSTORE POP SWAP2 DUP4 ADD SWAP2 DUP4 ADD PUSH2 0x3718 JUMP JUMPDEST POP SWAP7 SWAP6 POP POP POP POP POP POP JUMP JUMPDEST PUSH1 0x0 DUP3 PUSH1 0x1F DUP4 ADD SLT PUSH2 0x376F JUMPI PUSH1 0x0 DUP1 REVERT JUMPDEST DUP2 CALLDATALOAD PUSH1 0x20 PUSH2 0x377F PUSH2 0x36F0 DUP4 PUSH2 0x363D JUMP JUMPDEST DUP3 DUP2 MSTORE PUSH1 0x5 SWAP3 SWAP1 SWAP3 SHL DUP5 ADD DUP2 ADD SWAP2 DUP2 DUP2 ADD SWAP1 DUP7 DUP5 GT ISZERO PUSH2 0x379E JUMPI PUSH1 0x0 DUP1 REVERT JUMPDEST DUP3 DUP7 ADD JUMPDEST DUP5 DUP2 LT ISZERO PUSH2 0x3753 JUMPI DUP1 CALLDATALOAD PUSH1 0x3 DUP2 LT PUSH2 0x37BA JUMPI PUSH1 0x0 DUP1 DUP2 REVERT JUMPDEST DUP4 MSTORE SWAP2 DUP4 ADD SWAP2 DUP4 ADD PUSH2 0x37A2 JUMP JUMPDEST PUSH1 0x0 DUP1 PUSH1 0x0 PUSH1 0x60 DUP5 DUP7 SUB SLT ISZERO PUSH2 0x37DC JUMPI PUSH1 0x0 DUP1 REVERT JUMPDEST DUP4 CALLDATALOAD PUSH1 0x1 PUSH1 0x1 PUSH1 0x40 SHL SUB DUP1 DUP3 GT ISZERO PUSH2 0x37F3 JUMPI PUSH1 0x0 DUP1 REVERT JUMPDEST PUSH2 0x37FF DUP8 DUP4 DUP9 ADD PUSH2 0x36CF JUMP JUMPDEST SWAP5 POP PUSH1 0x20 SWAP2 POP DUP2 DUP7 ADD CALLDATALOAD DUP2 DUP2 GT ISZERO PUSH2 0x3816 JUMPI PUSH1 0x0 DUP1 REVERT JUMPDEST DUP7 ADD PUSH1 0x1F DUP2 ADD DUP9 SGT PUSH2 0x3827 JUMPI PUSH1 0x0 DUP1 REVERT JUMPDEST DUP1 CALLDATALOAD PUSH2 0x3835 PUSH2 0x36F0 DUP3 PUSH2 0x363D JUMP JUMPDEST DUP2 DUP2 MSTORE PUSH1 0x5 SWAP2 SWAP1 SWAP2 SHL DUP3 ADD DUP5 ADD SWAP1 DUP5 DUP2 ADD SWAP1 DUP11 DUP4 GT ISZERO PUSH2 0x3854 JUMPI PUSH1 0x0 DUP1 REVERT JUMPDEST DUP6 DUP5 ADD JUMPDEST DUP4 DUP2 LT ISZERO PUSH2 0x388C JUMPI DUP1 CALLDATALOAD DUP7 DUP2 GT ISZERO PUSH2 0x3870 JUMPI PUSH1 0x0 DUP1 DUP2 REVERT JUMPDEST PUSH2 0x387E DUP14 DUP10 DUP4 DUP10 ADD ADD PUSH2 0x36CF JUMP JUMPDEST DUP5 MSTORE POP SWAP2 DUP7 ADD SWAP2 DUP7 ADD PUSH2 0x3858 JUMP JUMPDEST POP SWAP7 POP POP POP POP PUSH1 0x40 DUP7 ADD CALLDATALOAD SWAP2 POP DUP1 DUP3 GT ISZERO PUSH2 0x38A6 JUMPI PUSH1 0x0 DUP1 REVERT JUMPDEST POP PUSH2 0x38B3 DUP7 DUP3 DUP8 ADD PUSH2 0x375E JUMP JUMPDEST SWAP2 POP POP SWAP3 POP SWAP3 POP SWAP3 JUMP JUMPDEST DUP1 CALLDATALOAD PUSH1 0x1 PUSH1 0x1 PUSH1 0xA0 SHL SUB DUP2 AND DUP2 EQ PUSH2 0x1C4D JUMPI PUSH1 0x0 DUP1 REVERT JUMPDEST PUSH1 0x0 DUP3 PUSH1 0x1F DUP4 ADD SLT PUSH2 0x38E5 JUMPI PUSH1 0x0 DUP1 REVERT JUMPDEST DUP2 CALLDATALOAD PUSH1 0x20 PUSH2 0x38F5 PUSH2 0x36F0 DUP4 PUSH2 0x363D JUMP JUMPDEST DUP3 DUP2 MSTORE PUSH1 0x5 SWAP3 SWAP1 SWAP3 SHL DUP5 ADD DUP2 ADD SWAP2 DUP2 DUP2 ADD SWAP1 DUP7 DUP5 GT ISZERO PUSH2 0x3914 JUMPI PUSH1 0x0 DUP1 REVERT JUMPDEST DUP3 DUP7 ADD JUMPDEST DUP5 DUP2 LT ISZERO PUSH2 0x3753 JUMPI PUSH2 0x3929 DUP2 PUSH2 0x38BD JUMP JUMPDEST DUP4 MSTORE SWAP2 DUP4 ADD SWAP2 DUP4 ADD PUSH2 0x3918 JUMP JUMPDEST PUSH1 0x0 DUP3 PUSH1 0x1F DUP4 ADD SLT PUSH2 0x3947 JUMPI PUSH1 0x0 DUP1 REVERT JUMPDEST DUP2 CALLDATALOAD PUSH1 0x20 PUSH2 0x3957 PUSH2 0x36F0 DUP4 PUSH2 0x363D JUMP JUMPDEST DUP3 DUP2 MSTORE PUSH1 0x5 SWAP3 SWAP1 SWAP3 SHL DUP5 ADD DUP2 ADD SWAP2 DUP2 DUP2 ADD SWAP1 DUP7 DUP5 GT ISZERO PUSH2 0x3976 JUMPI PUSH1 0x0 DUP1 REVERT JUMPDEST DUP3 DUP7 ADD JUMPDEST DUP5 DUP2 LT ISZERO PUSH2 0x3753 JUMPI DUP1 CALLDATALOAD DUP4 MSTORE SWAP2 DUP4 ADD SWAP2 DUP4 ADD PUSH2 0x397A JUMP JUMPDEST PUSH1 0x0 DUP1 PUSH1 0x0 DUP1 PUSH1 0x0 DUP1 PUSH1 0x0 DUP1 PUSH2 0x100 DUP10 DUP12 SUB SLT ISZERO PUSH2 0x39AE JUMPI PUSH1 0x0 DUP1 REVERT JUMPDEST DUP9 CALLDATALOAD PUSH1 0x1 PUSH1 0x1 PUSH1 0x40 SHL SUB DUP1 DUP3 GT ISZERO PUSH2 0x39C5 JUMPI PUSH1 0x0 DUP1 REVERT JUMPDEST PUSH2 0x39D1 DUP13 DUP4 DUP14 ADD PUSH2 0x3660 JUMP JUMPDEST SWAP10 POP PUSH1 0x20 DUP12 ADD CALLDATALOAD SWAP2 POP DUP1 DUP3 GT ISZERO PUSH2 0x39E7 JUMPI PUSH1 0x0 DUP1 REVERT JUMPDEST PUSH2 0x39F3 DUP13 DUP4 DUP14 ADD PUSH2 0x38D4 JUMP JUMPDEST SWAP9 POP PUSH1 0x40 DUP12 ADD CALLDATALOAD SWAP2 POP DUP1 DUP3 GT ISZERO PUSH2 0x3A09 JUMPI PUSH1 0x0 DUP1 REVERT JUMPDEST PUSH2 0x3A15 DUP13 DUP4 DUP14 ADD PUSH2 0x3936 JUMP JUMPDEST SWAP8 POP PUSH1 0x60 DUP12 ADD CALLDATALOAD SWAP2 POP DUP1 DUP3 GT ISZERO PUSH2 0x3A2B JUMPI PUSH1 0x0 DUP1 REVERT JUMPDEST PUSH2 0x3A37 DUP13 DUP4 DUP14 ADD PUSH2 0x36CF JUMP JUMPDEST SWAP7 POP PUSH1 0x80 DUP12 ADD CALLDATALOAD SWAP2 POP DUP1 DUP3 GT ISZERO PUSH2 0x3A4D JUMPI PUSH1 0x0 DUP1 REVERT JUMPDEST POP PUSH2 0x3A5A DUP12 DUP3 DUP13 ADD PUSH2 0x3660 JUMP JUMPDEST SWAP5 POP POP PUSH1 0xA0 DUP10 ADD CALLDATALOAD SWAP3 POP PUSH2 0x3A70 PUSH1 0xC0 DUP11 ADD PUSH2 0x38BD JUMP JUMPDEST SWAP2 POP PUSH1 0xE0 DUP10 ADD CALLDATALOAD SWAP1 POP SWAP3 SWAP6 SWAP9 POP SWAP3 SWAP6 SWAP9 SWAP1 SWAP4 SWAP7 POP JUMP JUMPDEST PUSH1 0x0 JUMPDEST DUP4 DUP2 LT ISZERO PUSH2 0x3AA1 JUMPI DUP2 DUP2 ADD MLOAD DUP4 DUP3 ADD MSTORE PUSH1 0x20 ADD PUSH2 0x3A89 JUMP JUMPDEST POP POP PUSH1 0x0 SWAP2 ADD MSTORE JUMP JUMPDEST PUSH1 0x0 DUP2 MLOAD DUP1 DUP5 MSTORE PUSH2 0x3AC2 DUP2 PUSH1 0x20 DUP7 ADD PUSH1 0x20 DUP7 ADD PUSH2 0x3A86 JUMP JUMPDEST PUSH1 0x1F ADD PUSH1 0x1F NOT AND SWAP3 SWAP1 SWAP3 ADD PUSH1 0x20 ADD SWAP3 SWAP2 POP POP JUMP JUMPDEST PUSH1 0x20 DUP2 MSTORE PUSH1 0x0 PUSH2 0x3AE9 PUSH1 0x20 DUP4 ADD DUP5 PUSH2 0x3AAA JUMP JUMPDEST SWAP4 SWAP3 POP POP POP JUMP JUMPDEST PUSH1 0x0 PUSH1 0x20 DUP3 DUP5 SUB SLT ISZERO PUSH2 0x3B02 JUMPI PUSH1 0x0 DUP1 REVERT JUMPDEST PUSH2 0x3AE9 DUP3 PUSH2 0x38BD JUMP JUMPDEST PUSH1 0x0 PUSH1 0x20 DUP3 DUP5 SUB SLT ISZERO PUSH2 0x3B1D JUMPI PUSH1 0x0 DUP1 REVERT JUMPDEST DUP2 CALLDATALOAD PUSH1 0x1 PUSH1 0x1 PUSH1 0x40 SHL SUB DUP2 GT ISZERO PUSH2 0x3B33 JUMPI PUSH1 0x0 DUP1 REVERT JUMPDEST PUSH2 0x88E DUP5 DUP3 DUP6 ADD PUSH2 0x3660 JUMP JUMPDEST PUSH1 0x0 DUP2 MLOAD DUP1 DUP5 MSTORE PUSH1 0x20 DUP1 DUP6 ADD SWAP5 POP DUP1 DUP5 ADD PUSH1 0x0 JUMPDEST DUP4 DUP2 LT ISZERO PUSH2 0x3B78 JUMPI DUP2 MLOAD PUSH1 0x1 PUSH1 0x1 PUSH1 0xA0 SHL SUB AND DUP8 MSTORE SWAP6 DUP3 ADD SWAP6 SWAP1 DUP3 ADD SWAP1 PUSH1 0x1 ADD PUSH2 0x3B53 JUMP JUMPDEST POP SWAP5 SWAP6 SWAP5 POP POP POP POP POP JUMP JUMPDEST PUSH1 0x0 DUP2 MLOAD DUP1 DUP5 MSTORE PUSH1 0x20 DUP1 DUP6 ADD SWAP5 POP DUP1 DUP5 ADD PUSH1 0x0 JUMPDEST DUP4 DUP2 LT ISZERO PUSH2 0x3B78 JUMPI DUP2 MLOAD DUP8 MSTORE SWAP6 DUP3 ADD SWAP6 SWAP1 DUP3 ADD SWAP1 PUSH1 0x1 ADD PUSH2 0x3B97 JUMP JUMPDEST PUSH1 0x0 DUP2 MLOAD DUP1 DUP5 MSTORE PUSH1 0x20 DUP1 DUP6 ADD DUP1 DUP2 SWAP7 POP DUP4 PUSH1 0x5 SHL DUP2 ADD SWAP2 POP DUP3 DUP7 ADD PUSH1 0x0 JUMPDEST DUP6 DUP2 LT ISZERO PUSH2 0x3BFB JUMPI DUP3 DUP5 SUB DUP10 MSTORE PUSH2 0x3BE9 DUP5 DUP4 MLOAD PUSH2 0x3AAA JUMP JUMPDEST SWAP9 DUP6 ADD SWAP9 SWAP4 POP SWAP1 DUP5 ADD SWAP1 PUSH1 0x1 ADD PUSH2 0x3BD1 JUMP JUMPDEST POP SWAP2 SWAP8 SWAP7 POP POP POP POP POP POP POP JUMP JUMPDEST PUSH1 0x0 DUP2 MLOAD DUP1 DUP5 MSTORE PUSH1 0x20 DUP1 DUP6 ADD DUP1 DUP2 SWAP7 POP DUP4 PUSH1 0x5 SHL DUP2 ADD SWAP2 POP DUP3 DUP7 ADD PUSH1 0x0 DUP1 JUMPDEST DUP7 DUP2 LT ISZERO PUSH2 0x3CAB JUMPI DUP4 DUP6 SUB DUP11 MSTORE DUP3 MLOAD DUP1 MLOAD PUSH1 0x1 PUSH1 0x1 PUSH1 0xA0 SHL SUB AND DUP7 MSTORE DUP7 DUP2 ADD MLOAD DUP8 DUP8 ADD MSTORE PUSH1 0x40 DUP1 DUP3 ADD MLOAD SWAP1 DUP8 ADD MSTORE PUSH1 0x60 SWAP1 DUP2 ADD MLOAD PUSH1 0x80 SWAP2 DUP8 ADD DUP3 SWAP1 MSTORE DUP1 MLOAD SWAP2 DUP8 ADD DUP3 SWAP1 MSTORE DUP8 ADD SWAP1 PUSH1 0xA0 DUP8 ADD SWAP1 DUP5 SWAP1 JUMPDEST DUP1 DUP3 LT ISZERO PUSH2 0x3C96 JUMPI DUP4 MLOAD DUP4 MSTORE SWAP3 DUP10 ADD SWAP3 SWAP2 DUP10 ADD SWAP2 PUSH1 0x1 SWAP2 SWAP1 SWAP2 ADD SWAP1 PUSH2 0x3C76 JUMP JUMPDEST POP POP SWAP11 DUP8 ADD SWAP11 SWAP6 POP POP SWAP2 DUP6 ADD SWAP2 PUSH1 0x1 ADD PUSH2 0x3C27 JUMP JUMPDEST POP SWAP3 SWAP9 SWAP8 POP POP POP POP POP POP POP POP JUMP JUMPDEST PUSH1 0x20 DUP2 MSTORE PUSH2 0x3CD3 PUSH1 0x20 DUP3 ADD DUP4 MLOAD PUSH1 0x1 PUSH1 0x1 PUSH1 0xA0 SHL SUB AND SWAP1 MSTORE JUMP JUMPDEST PUSH1 0x0 PUSH1 0x20 DUP4 ADD MLOAD PUSH2 0x180 DUP1 PUSH1 0x40 DUP6 ADD MSTORE PUSH2 0x3CF1 PUSH2 0x1A0 DUP6 ADD DUP4 PUSH2 0x3B3F JUMP JUMPDEST SWAP2 POP PUSH1 0x40 DUP6 ADD MLOAD PUSH1 0x1F NOT DUP1 DUP7 DUP6 SUB ADD PUSH1 0x60 DUP8 ADD MSTORE PUSH2 0x3D0F DUP5 DUP4 PUSH2 0x3B83 JUMP JUMPDEST SWAP4 POP PUSH1 0x60 DUP8 ADD MLOAD SWAP2 POP DUP1 DUP7 DUP6 SUB ADD PUSH1 0x80 DUP8 ADD MSTORE PUSH2 0x3D2C DUP5 DUP4 PUSH2 0x3BB3 JUMP JUMPDEST SWAP4 POP PUSH1 0x80 DUP8 ADD MLOAD SWAP2 POP DUP1 DUP7 DUP6 SUB ADD PUSH1 0xA0 DUP8 ADD MSTORE PUSH2 0x3D49 DUP5 DUP4 PUSH2 0x3AAA JUMP JUMPDEST SWAP4 POP PUSH1 0xA0 DUP8 ADD MLOAD PUSH1 0xC0 DUP8 ADD MSTORE PUSH1 0xC0 DUP8 ADD MLOAD SWAP2 POP DUP1 DUP7 DUP6 SUB ADD PUSH1 0xE0 DUP8 ADD MSTORE PUSH2 0x3D70 DUP5 DUP4 PUSH2 0x3C08 JUMP JUMPDEST SWAP4 POP PUSH1 0xE0 DUP8 ADD MLOAD SWAP2 POP PUSH2 0x100 PUSH2 0x3D89 DUP2 DUP9 ADD DUP5 ISZERO ISZERO SWAP1 MSTORE JUMP JUMPDEST DUP8 ADD MLOAD SWAP2 POP PUSH2 0x120 PUSH2 0x3DA5 DUP8 DUP3 ADD DUP5 PUSH1 0x1 PUSH1 0x1 PUSH1 0xA0 SHL SUB AND SWAP1 MSTORE JUMP JUMPDEST DUP8 ADD MLOAD PUSH2 0x140 DUP8 DUP2 ADD SWAP2 SWAP1 SWAP2 MSTORE DUP8 ADD MLOAD PUSH2 0x160 DUP1 DUP9 ADD SWAP2 SWAP1 SWAP2 MSTORE DUP8 ADD MLOAD DUP7 DUP6 SUB SWAP1 SWAP2 ADD DUP4 DUP8 ADD MSTORE SWAP1 POP PUSH2 0x3DD8 DUP4 DUP3 PUSH2 0x3AAA JUMP JUMPDEST SWAP7 SWAP6 POP POP POP POP POP POP JUMP JUMPDEST PUSH1 0x0 DUP1 DUP4 PUSH1 0x1F DUP5 ADD SLT PUSH2 0x3DF4 JUMPI PUSH1 0x0 DUP1 REVERT JUMPDEST POP DUP2 CALLDATALOAD PUSH1 0x1 PUSH1 0x1 PUSH1 0x40 SHL SUB DUP2 GT ISZERO PUSH2 0x3E0B JUMPI PUSH1 0x0 DUP1 REVERT JUMPDEST PUSH1 0x20 DUP4 ADD SWAP2 POP DUP4 PUSH1 0x20 DUP3 PUSH1 0x5 SHL DUP6 ADD ADD GT ISZERO PUSH2 0x3E26 JUMPI PUSH1 0x0 DUP1 REVERT JUMPDEST SWAP3 POP SWAP3 SWAP1 POP JUMP JUMPDEST PUSH1 0x0 DUP1 PUSH1 0x0 DUP1 PUSH1 0x40 DUP6 DUP8 SUB SLT ISZERO PUSH2 0x3E43 JUMPI PUSH1 0x0 DUP1 REVERT JUMPDEST DUP5 CALLDATALOAD PUSH1 0x1 PUSH1 0x1 PUSH1 0x40 SHL SUB DUP1 DUP3 GT ISZERO PUSH2 0x3E5A JUMPI PUSH1 0x0 DUP1 REVERT JUMPDEST PUSH2 0x3E66 DUP9 DUP4 DUP10 ADD PUSH2 0x3DE2 JUMP JUMPDEST SWAP1 SWAP7 POP SWAP5 POP PUSH1 0x20 DUP8 ADD CALLDATALOAD SWAP2 POP DUP1 DUP3 GT ISZERO PUSH2 0x3E7F JUMPI PUSH1 0x0 DUP1 REVERT JUMPDEST POP PUSH2 0x3E8C DUP8 DUP3 DUP9 ADD PUSH2 0x3DE2 JUMP JUMPDEST SWAP6 SWAP9 SWAP5 SWAP8 POP SWAP6 POP POP POP POP JUMP JUMPDEST PUSH1 0x0 DUP1 PUSH1 0x0 DUP1 PUSH1 0x0 DUP1 PUSH1 0xC0 DUP8 DUP10 SUB SLT ISZERO PUSH2 0x3EB1 JUMPI PUSH1 0x0 DUP1 REVERT JUMPDEST DUP7 CALLDATALOAD PUSH1 0x1 PUSH1 0x1 PUSH1 0x40 SHL SUB DUP1 DUP3 GT ISZERO PUSH2 0x3EC8 JUMPI PUSH1 0x0 DUP1 REVERT JUMPDEST PUSH2 0x3ED4 DUP11 DUP4 DUP12 ADD PUSH2 0x3660 JUMP JUMPDEST SWAP8 POP PUSH1 0x20 DUP10 ADD CALLDATALOAD SWAP2 POP DUP1 DUP3 GT ISZERO PUSH2 0x3EEA JUMPI PUSH1 0x0 DUP1 REVERT JUMPDEST PUSH2 0x3EF6 DUP11 DUP4 DUP12 ADD PUSH2 0x38D4 JUMP JUMPDEST SWAP7 POP PUSH1 0x40 DUP10 ADD CALLDATALOAD SWAP2 POP DUP1 DUP3 GT ISZERO PUSH2 0x3F0C JUMPI PUSH1 0x0 DUP1 REVERT JUMPDEST PUSH2 0x3F18 DUP11 DUP4 DUP12 ADD PUSH2 0x3936 JUMP JUMPDEST SWAP6 POP PUSH1 0x60 DUP10 ADD CALLDATALOAD SWAP2 POP DUP1 DUP3 GT ISZERO PUSH2 0x3F2E JUMPI PUSH1 0x0 DUP1 REVERT JUMPDEST PUSH2 0x3F3A DUP11 DUP4 DUP12 ADD PUSH2 0x36CF JUMP JUMPDEST SWAP5 POP PUSH1 0x80 DUP10 ADD CALLDATALOAD SWAP2 POP DUP1 DUP3 GT ISZERO PUSH2 0x3F50 JUMPI PUSH1 0x0 DUP1 REVERT JUMPDEST POP PUSH2 0x3F5D DUP10 DUP3 DUP11 ADD PUSH2 0x3660 JUMP JUMPDEST SWAP3 POP POP PUSH1 0xA0 DUP8 ADD CALLDATALOAD SWAP1 POP SWAP3 SWAP6 POP SWAP3 SWAP6 POP SWAP3 SWAP6 JUMP JUMPDEST PUSH1 0x0 PUSH1 0x20 DUP3 DUP5 SUB SLT ISZERO PUSH2 0x3F83 JUMPI PUSH1 0x0 DUP1 REVERT JUMPDEST POP CALLDATALOAD SWAP2 SWAP1 POP JUMP JUMPDEST PUSH4 0x4E487B71 PUSH1 0xE0 SHL PUSH1 0x0 MSTORE PUSH1 0x21 PUSH1 0x4 MSTORE PUSH1 0x24 PUSH1 0x0 REVERT JUMPDEST PUSH1 0x0 DUP2 MLOAD DUP1 DUP5 MSTORE PUSH1 0x20 DUP1 DUP6 ADD DUP1 DUP2 SWAP7 POP DUP4 PUSH1 0x5 SHL DUP2 ADD SWAP2 POP DUP3 DUP7 ADD PUSH1 0x0 JUMPDEST DUP6 DUP2 LT ISZERO PUSH2 0x3BFB JUMPI DUP3 DUP5 SUB DUP10 MSTORE PUSH2 0x3FD6 DUP5 DUP4 MLOAD PUSH2 0x3BB3 JUMP JUMPDEST SWAP9 DUP6 ADD SWAP9 SWAP4 POP SWAP1 DUP5 ADD SWAP1 PUSH1 0x1 ADD PUSH2 0x3FBE JUMP JUMPDEST PUSH1 0x0 PUSH1 0x20 DUP1 DUP4 MSTORE DUP4 MLOAD PUSH1 0x60 DUP3 DUP6 ADD MSTORE PUSH2 0x4004 PUSH1 0x80 DUP6 ADD DUP3 PUSH2 0x3BB3 JUMP JUMPDEST DUP3 DUP7 ADD MLOAD PUSH1 0x1F NOT DUP7 DUP4 SUB DUP2 ADD PUSH1 0x40 DUP9 ADD MSTORE DUP2 MLOAD DUP1 DUP5 MSTORE SWAP2 DUP6 ADD SWAP4 POP PUSH1 0x0 SWAP3 SWAP1 SWAP2 SWAP1 DUP6 ADD SWAP1 DUP4 JUMPDEST DUP2 DUP2 LT ISZERO PUSH2 0x4062 JUMPI DUP6 MLOAD PUSH1 0x3 DUP2 LT PUSH2 0x4050 JUMPI PUSH4 0x4E487B71 PUSH1 0xE0 SHL DUP7 MSTORE PUSH1 0x21 PUSH1 0x4 MSTORE PUSH1 0x24 DUP7 REVERT JUMPDEST DUP4 MSTORE SWAP5 DUP7 ADD SWAP5 SWAP2 DUP7 ADD SWAP2 PUSH1 0x1 ADD PUSH2 0x402A JUMP JUMPDEST POP POP PUSH1 0x40 DUP9 ADD MLOAD SWAP5 POP DUP2 DUP8 DUP3 SUB ADD PUSH1 0x60 DUP9 ADD MSTORE PUSH2 0x407F DUP2 DUP7 PUSH2 0x3FA0 JUMP JUMPDEST SWAP9 SWAP8 POP POP POP POP POP POP POP POP JUMP JUMPDEST PUSH1 0x20 DUP2 MSTORE PUSH1 0x0 PUSH2 0x3AE9 PUSH1 0x20 DUP4 ADD DUP5 PUSH2 0x3BB3 JUMP JUMPDEST PUSH1 0x20 DUP2 MSTORE PUSH1 0x0 PUSH2 0x3AE9 PUSH1 0x20 DUP4 ADD DUP5 PUSH2 0x3B3F JUMP JUMPDEST PUSH1 0x0 PUSH1 0x20 DUP3 DUP5 SUB SLT ISZERO PUSH2 0x40C3 JUMPI PUSH1 0x0 DUP1 REVERT JUMPDEST DUP2 CALLDATALOAD PUSH1 0x1 PUSH1 0x1 PUSH1 0x40 SHL SUB DUP2 GT ISZERO PUSH2 0x40D9 JUMPI PUSH1 0x0 DUP1 REVERT JUMPDEST DUP3 ADD PUSH2 0x140 DUP2 DUP6 SUB SLT ISZERO PUSH2 0x3AE9 JUMPI PUSH1 0x0 DUP1 REVERT JUMPDEST PUSH1 0x20 DUP1 DUP3 MSTORE PUSH1 0x12 SWAP1 DUP3 ADD MSTORE PUSH18 0x10DBDB9D1C9858DD081A5CC81C185D5CD959 PUSH1 0x72 SHL PUSH1 0x40 DUP3 ADD MSTORE PUSH1 0x60 ADD SWAP1 JUMP JUMPDEST PUSH4 0x4E487B71 PUSH1 0xE0 SHL PUSH1 0x0 MSTORE PUSH1 0x11 PUSH1 0x4 MSTORE PUSH1 0x24 PUSH1 0x0 REVERT JUMPDEST DUP1 DUP3 ADD DUP1 DUP3 GT ISZERO PUSH2 0x2681 JUMPI PUSH2 0x2681 PUSH2 0x4118 JUMP JUMPDEST DUP2 DUP2 SUB DUP2 DUP2 GT ISZERO PUSH2 0x2681 JUMPI PUSH2 0x2681 PUSH2 0x4118 JUMP JUMPDEST PUSH1 0x0 DUP5 MLOAD PUSH2 0x4166 DUP2 DUP5 PUSH1 0x20 DUP10 ADD PUSH2 0x3A86 JUMP JUMPDEST DUP1 DUP4 ADD SWAP1 POP PUSH1 0x17 PUSH1 0xF9 SHL DUP1 DUP3 MSTORE DUP6 MLOAD PUSH2 0x4186 DUP2 PUSH1 0x1 DUP6 ADD PUSH1 0x20 DUP11 ADD PUSH2 0x3A86 JUMP JUMPDEST PUSH1 0x1 SWAP3 ADD SWAP2 DUP3 ADD MSTORE DUP4 MLOAD PUSH2 0x41A1 DUP2 PUSH1 0x2 DUP5 ADD PUSH1 0x20 DUP9 ADD PUSH2 0x3A86 JUMP JUMPDEST ADD PUSH1 0x2 ADD SWAP6 SWAP5 POP POP POP POP POP JUMP JUMPDEST PUSH1 0x0 DUP3 MLOAD PUSH2 0x41C0 DUP2 DUP5 PUSH1 0x20 DUP8 ADD PUSH2 0x3A86 JUMP JUMPDEST SWAP2 SWAP1 SWAP2 ADD SWAP3 SWAP2 POP POP JUMP JUMPDEST PUSH1 0x1 DUP2 DUP2 SHR SWAP1 DUP3 AND DUP1 PUSH2 0x41DE JUMPI PUSH1 0x7F DUP3 AND SWAP2 POP JUMPDEST PUSH1 0x20 DUP3 LT DUP2 SUB PUSH2 0x41FE JUMPI PUSH4 0x4E487B71 PUSH1 0xE0 SHL PUSH1 0x0 MSTORE PUSH1 0x22 PUSH1 0x4 MSTORE PUSH1 0x24 PUSH1 0x0 REVERT JUMPDEST POP SWAP2 SWAP1 POP JUMP JUMPDEST PUSH4 0x4E487B71 PUSH1 0xE0 SHL PUSH1 0x0 MSTORE PUSH1 0x32 PUSH1 0x4 MSTORE PUSH1 0x24 PUSH1 0x0 REVERT JUMPDEST PUSH1 0x0 DUP3 CALLDATALOAD PUSH2 0x13E NOT DUP4 CALLDATASIZE SUB ADD DUP2 SLT PUSH2 0x41C0 JUMPI PUSH1 0x0 DUP1 REVERT JUMPDEST PUSH1 0x0 PUSH1 0x1 DUP3 ADD PUSH2 0x4243 JUMPI PUSH2 0x4243 PUSH2 0x4118 JUMP JUMPDEST POP PUSH1 0x1 ADD SWAP1 JUMP JUMPDEST PUSH4 0x4E487B71 PUSH1 0xE0 SHL PUSH1 0x0 MSTORE PUSH1 0x31 PUSH1 0x4 MSTORE PUSH1 0x24 PUSH1 0x0 REVERT JUMPDEST DUP1 DUP3 MUL DUP2 ISZERO DUP3 DUP3 DIV DUP5 EQ OR PUSH2 0x2681 JUMPI PUSH2 0x2681 PUSH2 0x4118 JUMP JUMPDEST DUP1 ISZERO ISZERO DUP2 EQ PUSH2 0x1CDC JUMPI PUSH1 0x0 DUP1 REVERT JUMPDEST PUSH1 0x0 PUSH1 0x20 DUP3 DUP5 SUB SLT ISZERO PUSH2 0x4297 JUMPI PUSH1 0x0 DUP1 REVERT JUMPDEST DUP2 MLOAD PUSH2 0x3AE9 DUP2 PUSH2 0x4277 JUMP JUMPDEST PUSH1 0x1F DUP3 GT ISZERO PUSH2 0x42E8 JUMPI PUSH1 0x0 DUP2 DUP2 MSTORE PUSH1 0x20 DUP2 KECCAK256 PUSH1 0x1F DUP6 ADD PUSH1 0x5 SHR DUP2 ADD PUSH1 0x20 DUP7 LT ISZERO PUSH2 0x42C9 JUMPI POP DUP1 JUMPDEST PUSH1 0x1F DUP6 ADD PUSH1 0x5 SHR DUP3 ADD SWAP2 POP JUMPDEST DUP2 DUP2 LT ISZERO PUSH2 0x1149 JUMPI DUP3 DUP2 SSTORE PUSH1 0x1 ADD PUSH2 0x42D5 JUMP JUMPDEST POP POP POP JUMP JUMPDEST DUP2 MLOAD PUSH1 0x1 PUSH1 0x1 PUSH1 0x40 SHL SUB DUP2 GT ISZERO PUSH2 0x4306 JUMPI PUSH2 0x4306 PUSH2 0x35F7 JUMP JUMPDEST PUSH2 0x431A DUP2 PUSH2 0x4314 DUP5 SLOAD PUSH2 0x41CA JUMP JUMPDEST DUP5 PUSH2 0x42A2 JUMP JUMPDEST PUSH1 0x20 DUP1 PUSH1 0x1F DUP4 GT PUSH1 0x1 DUP2 EQ PUSH2 0x434F JUMPI PUSH1 0x0 DUP5 ISZERO PUSH2 0x4337 JUMPI POP DUP6 DUP4 ADD MLOAD JUMPDEST PUSH1 0x0 NOT PUSH1 0x3 DUP7 SWAP1 SHL SHR NOT AND PUSH1 0x1 DUP6 SWAP1 SHL OR DUP6 SSTORE PUSH2 0x1149 JUMP JUMPDEST PUSH1 0x0 DUP6 DUP2 MSTORE PUSH1 0x20 DUP2 KECCAK256 PUSH1 0x1F NOT DUP7 AND SWAP2 JUMPDEST DUP3 DUP2 LT ISZERO PUSH2 0x437E JUMPI DUP9 DUP7 ADD MLOAD DUP3 SSTORE SWAP5 DUP5 ADD SWAP5 PUSH1 0x1 SWAP1 SWAP2 ADD SWAP1 DUP5 ADD PUSH2 0x435F JUMP JUMPDEST POP DUP6 DUP3 LT ISZERO PUSH2 0x439C JUMPI DUP8 DUP6 ADD MLOAD PUSH1 0x0 NOT PUSH1 0x3 DUP9 SWAP1 SHL PUSH1 0xF8 AND SHR NOT AND DUP2 SSTORE JUMPDEST POP POP POP POP POP PUSH1 0x1 SWAP1 DUP2 SHL ADD SWAP1 SSTORE POP JUMP JUMPDEST PUSH1 0x0 DUP1 DUP4 CALLDATALOAD PUSH1 0x1E NOT DUP5 CALLDATASIZE SUB ADD DUP2 SLT PUSH2 0x43C3 JUMPI PUSH1 0x0 DUP1 REVERT JUMPDEST DUP4 ADD DUP1 CALLDATALOAD SWAP2 POP PUSH1 0x1 PUSH1 0x1 PUSH1 0x40 SHL SUB DUP3 GT ISZERO PUSH2 0x43DD JUMPI PUSH1 0x0 DUP1 REVERT JUMPDEST PUSH1 0x20 ADD SWAP2 POP CALLDATASIZE DUP2 SWAP1 SUB DUP3 SGT ISZERO PUSH2 0x3E26 JUMPI PUSH1 0x0 DUP1 REVERT JUMPDEST PUSH1 0x0 DUP1 PUSH1 0x0 DUP1 PUSH1 0x80 DUP6 DUP8 SUB SLT ISZERO PUSH2 0x4408 JUMPI PUSH1 0x0 DUP1 REVERT JUMPDEST DUP5 CALLDATALOAD PUSH1 0x1 PUSH1 0x1 PUSH1 0x40 SHL SUB DUP1 DUP3 GT ISZERO PUSH2 0x441F JUMPI PUSH1 0x0 DUP1 REVERT JUMPDEST PUSH2 0x442B DUP9 DUP4 DUP10 ADD PUSH2 0x3660 JUMP JUMPDEST SWAP6 POP PUSH1 0x20 DUP8 ADD CALLDATALOAD SWAP5 POP PUSH1 0x40 DUP8 ADD CALLDATALOAD SWAP2 POP DUP1 DUP3 GT ISZERO PUSH2 0x4448 JUMPI PUSH1 0x0 DUP1 REVERT JUMPDEST PUSH2 0x4454 DUP9 DUP4 DUP10 ADD PUSH2 0x36CF JUMP JUMPDEST SWAP4 POP PUSH1 0x60 DUP8 ADD CALLDATALOAD SWAP2 POP DUP1 DUP3 GT ISZERO PUSH2 0x446A JUMPI PUSH1 0x0 DUP1 REVERT JUMPDEST POP PUSH2 0x4477 DUP8 DUP3 DUP9 ADD PUSH2 0x3660 JUMP JUMPDEST SWAP2 POP POP SWAP3 SWAP6 SWAP2 SWAP5 POP SWAP3 POP JUMP JUMPDEST DUP1 CALLDATALOAD PUSH1 0x1 PUSH1 0x1 PUSH1 0x40 SHL SUB DUP2 AND DUP2 EQ PUSH2 0x1C4D JUMPI PUSH1 0x0 DUP1 REVERT JUMPDEST DUP1 CALLDATALOAD PUSH2 0x1C4D DUP2 PUSH2 0x4277 JUMP JUMPDEST PUSH1 0x0 DUP1 DUP4 CALLDATALOAD PUSH1 0x1E NOT DUP5 CALLDATASIZE SUB ADD DUP2 SLT PUSH2 0x44BC JUMPI PUSH1 0x0 DUP1 REVERT JUMPDEST DUP4 ADD PUSH1 0x20 DUP2 ADD SWAP3 POP CALLDATALOAD SWAP1 POP PUSH1 0x1 PUSH1 0x1 PUSH1 0x40 SHL SUB DUP2 GT ISZERO PUSH2 0x44DB JUMPI PUSH1 0x0 DUP1 REVERT JUMPDEST DUP1 CALLDATASIZE SUB DUP3 SGT ISZERO PUSH2 0x3E26 JUMPI PUSH1 0x0 DUP1 REVERT JUMPDEST DUP2 DUP4 MSTORE DUP2 DUP2 PUSH1 0x20 DUP6 ADD CALLDATACOPY POP PUSH1 0x0 DUP3 DUP3 ADD PUSH1 0x20 SWAP1 DUP2 ADD SWAP2 SWAP1 SWAP2 MSTORE PUSH1 0x1F SWAP1 SWAP2 ADD PUSH1 0x1F NOT AND SWAP1 SWAP2 ADD ADD SWAP1 JUMP JUMPDEST PUSH1 0x40 DUP2 MSTORE DUP3 CALLDATALOAD PUSH1 0x40 DUP3 ADD MSTORE PUSH1 0x20 DUP4 ADD CALLDATALOAD PUSH1 0x60 DUP3 ADD MSTORE PUSH1 0x0 PUSH2 0x4536 PUSH1 0x40 DUP6 ADD PUSH2 0x4483 JUMP JUMPDEST PUSH1 0x1 PUSH1 0x1 PUSH1 0x40 SHL SUB AND PUSH1 0x80 DUP4 ADD MSTORE PUSH2 0x4550 PUSH1 0x60 DUP6 ADD PUSH2 0x4483 JUMP JUMPDEST PUSH1 0x1 PUSH1 0x1 PUSH1 0x40 SHL SUB AND PUSH1 0xA0 DUP4 ADD MSTORE PUSH2 0x456A PUSH1 0x80 DUP6 ADD PUSH2 0x4483 JUMP JUMPDEST PUSH1 0x1 PUSH1 0x1 PUSH1 0x40 SHL SUB DUP2 AND PUSH1 0xC0 DUP5 ADD MSTORE POP PUSH1 0xA0 DUP5 ADD CALLDATALOAD PUSH1 0xE0 DUP4 ADD MSTORE PUSH2 0x4590 PUSH1 0xC0 DUP6 ADD PUSH2 0x38BD JUMP JUMPDEST PUSH2 0x100 PUSH2 0x45A7 DUP2 DUP6 ADD DUP4 PUSH1 0x1 PUSH1 0x1 PUSH1 0xA0 SHL SUB AND SWAP1 MSTORE JUMP JUMPDEST PUSH2 0x45B3 PUSH1 0xE0 DUP8 ADD PUSH2 0x38BD JUMP JUMPDEST SWAP2 POP PUSH2 0x120 PUSH2 0x45CC DUP2 DUP7 ADD DUP5 PUSH1 0x1 PUSH1 0x1 PUSH1 0xA0 SHL SUB AND SWAP1 MSTORE JUMP JUMPDEST PUSH2 0x45D7 DUP3 DUP9 ADD PUSH2 0x449A JUMP JUMPDEST SWAP3 POP PUSH2 0x140 SWAP2 POP PUSH2 0x45EB DUP3 DUP7 ADD DUP5 ISZERO ISZERO SWAP1 MSTORE JUMP JUMPDEST PUSH2 0x45F7 DUP2 DUP9 ADD DUP9 PUSH2 0x44A5 JUMP JUMPDEST SWAP4 POP SWAP1 POP DUP2 PUSH2 0x160 DUP7 ADD MSTORE PUSH2 0x4611 PUSH2 0x180 DUP7 ADD DUP5 DUP4 PUSH2 0x44EA JUMP JUMPDEST SWAP3 POP POP POP DUP3 DUP2 SUB PUSH1 0x20 DUP5 ADD MSTORE PUSH2 0x4627 DUP2 DUP6 PUSH2 0x3AAA JUMP JUMPDEST SWAP6 SWAP5 POP POP POP POP POP JUMP JUMPDEST PUSH1 0x0 DUP1 PUSH1 0x0 PUSH1 0x60 DUP5 DUP7 SUB SLT ISZERO PUSH2 0x4645 JUMPI PUSH1 0x0 DUP1 REVERT JUMPDEST DUP4 CALLDATALOAD PUSH1 0x1 PUSH1 0x1 PUSH1 0x40 SHL SUB DUP1 DUP3 GT ISZERO PUSH2 0x465C JUMPI PUSH1 0x0 DUP1 REVERT JUMPDEST PUSH2 0x4668 DUP8 DUP4 DUP9 ADD PUSH2 0x3660 JUMP JUMPDEST SWAP5 POP PUSH1 0x20 DUP7 ADD CALLDATALOAD SWAP4 POP PUSH1 0x40 DUP7 ADD CALLDATALOAD SWAP2 POP DUP1 DUP3 GT ISZERO PUSH2 0x4685 JUMPI PUSH1 0x0 DUP1 REVERT JUMPDEST POP PUSH2 0x38B3 DUP7 DUP3 DUP8 ADD PUSH2 0x3660 JUMP JUMPDEST PUSH1 0x0 DUP1 DUP4 SLOAD PUSH2 0x46A0 DUP2 PUSH2 0x41CA JUMP JUMPDEST PUSH1 0x1 DUP3 DUP2 AND DUP1 ISZERO PUSH2 0x46B8 JUMPI PUSH1 0x1 DUP2 EQ PUSH2 0x46CD JUMPI PUSH2 0x46FC JUMP JUMPDEST PUSH1 0xFF NOT DUP5 AND DUP8 MSTORE DUP3 ISZERO ISZERO DUP4 MUL DUP8 ADD SWAP5 POP PUSH2 0x46FC JUMP JUMPDEST DUP8 PUSH1 0x0 MSTORE PUSH1 0x20 DUP1 PUSH1 0x0 KECCAK256 PUSH1 0x0 JUMPDEST DUP6 DUP2 LT ISZERO PUSH2 0x46F3 JUMPI DUP2 SLOAD DUP11 DUP3 ADD MSTORE SWAP1 DUP5 ADD SWAP1 DUP3 ADD PUSH2 0x46DA JUMP JUMPDEST POP POP POP DUP3 DUP8 ADD SWAP5 POP JUMPDEST POP SWAP3 SWAP7 SWAP6 POP POP POP POP POP POP JUMP INVALID LOG2 PUSH5 0x6970667358 0x22 SLT KECCAK256 0x29 DUP9 0xBB GT 0x2D 0x22 SWAP13 DUP7 0xA6 DUP7 PUSH1 0xBA BYTE SWAP11 0xBF DUP5 0xC0 CALLCODE SWAP12 0xBD ORIGIN 0xAA PUSH21 0x337BD698064C5BF3C64736F6C6343000813003300 "
		},
		"gasEstimates": {
			"creation": {
				"codeDepositCost": "3647600",
				"executionCost": "infinite",
				"totalCost": "infinite"
			},
			"external": {
				"amendmentsSchemaID()": "2396",
				"attest((bytes32,bytes32,uint64,uint64,uint64,bytes32,address,address,bool,bytes))": "infinite",
				"callbackContract()": "2448",
				"closeReviewRequest(string)": "infinite",
				"contractVersion()": "infinite",
				"createNonPayableRequest(string,address[],uint256[],string[],string,uint256)": "infinite",
				"createRequest(string,address[],uint256[],string[],string,uint256,address,uint256)": "infinite",
				"createReviewForm(string[],string[][],uint8[])": "infinite",
				"getRequest(string)": "infinite",
				"getRequestReviewForm(string)": "infinite",
				"getReviewForm(uint256)": "infinite",
				"getReviewRequestsNames()": "infinite",
				"getWhitelistedTokens()": "infinite",
				"isPayable()": "265",
				"isTokenWhitelisted(address)": "infinite",
				"multiAttest((bytes32,bytes32,uint64,uint64,uint64,bytes32,address,address,bool,bytes)[],uint256[])": "infinite",
				"multiRevoke((bytes32,bytes32,uint64,uint64,uint64,bytes32,address,address,bool,bytes)[],uint256[])": "infinite",
				"owner()": "2387",
				"pause()": "28726",
				"paused()": "2356",
				"renounceOwnership()": "infinite",
				"reviewFormsTotal()": "2396",
				"reviewsSchemaID()": "2373",
				"revoke((bytes32,bytes32,uint64,uint64,uint64,bytes32,address,address,bool,bytes))": "infinite",
				"setAmendmentsSchemaID(bytes32)": "24578",
				"setCallbackContract(address)": "26781",
				"setReviewsSchemaID(bytes32)": "24577",
				"transferOwnership(address)": "28443",
				"unpause()": "26617",
				"unwhitelistToken(address)": "infinite",
				"version()": "infinite",
				"whitelistToken(address)": "infinite"
			},
			"internal": {
				"createReviewRequestCommon(string memory,address[] memory,uint256[] memory,string memory[] memory,string memory,uint256,uint256,address,bool)": "infinite",
				"hasSubmittedReview(address,string memory,uint256)": "infinite",
				"isReviewer(address,string memory)": "infinite",
				"onAttest(struct Attestation calldata,uint256)": "infinite",
				"onRevoke(struct Attestation calldata,uint256)": "23",
				"processAmendment(struct Attestation calldata)": "infinite",
				"processReview(struct Attestation calldata)": "infinite",
				"validateAnswers(struct DeresyResolver.ReviewForm storage pointer,string memory[] memory)": "infinite",
				"validateHypercertID(uint256[] memory,uint256)": "infinite"
			}
		},
		"methodIdentifiers": {
			"amendmentsSchemaID()": "74987060",
			"attest((bytes32,bytes32,uint64,uint64,uint64,bytes32,address,address,bool,bytes))": "e60c3505",
			"callbackContract()": "bd7e2aa4",
			"closeReviewRequest(string)": "be2761d0",
			"contractVersion()": "a0a8e460",
			"createNonPayableRequest(string,address[],uint256[],string[],string,uint256)": "a940b874",
			"createRequest(string,address[],uint256[],string[],string,uint256,address,uint256)": "20de0462",
			"createReviewForm(string[],string[][],uint8[])": "0677b535",
			"getRequest(string)": "85b92413",
			"getRequestReviewForm(string)": "b4e137cd",
			"getReviewForm(uint256)": "b6fc76af",
			"getReviewRequestsNames()": "dd526054",
			"getWhitelistedTokens()": "e26f7900",
			"isPayable()": "ce46e046",
			"isTokenWhitelisted(address)": "b5af090f",
			"multiAttest((bytes32,bytes32,uint64,uint64,uint64,bytes32,address,address,bool,bytes)[],uint256[])": "91db0b7e",
			"multiRevoke((bytes32,bytes32,uint64,uint64,uint64,bytes32,address,address,bool,bytes)[],uint256[])": "88e5b2d9",
			"owner()": "8da5cb5b",
			"pause()": "8456cb59",
			"paused()": "5c975abb",
			"renounceOwnership()": "715018a6",
			"reviewFormsTotal()": "86be6d51",
			"reviewsSchemaID()": "9128b0d8",
			"revoke((bytes32,bytes32,uint64,uint64,uint64,bytes32,address,address,bool,bytes))": "e49617e1",
			"setAmendmentsSchemaID(bytes32)": "abe1d7f3",
			"setCallbackContract(address)": "7a35aaa9",
			"setReviewsSchemaID(bytes32)": "b8b23c17",
			"transferOwnership(address)": "f2fde38b",
			"unpause()": "3f4ba83a",
			"unwhitelistToken(address)": "d627d25e",
			"version()": "54fd4d50",
			"whitelistToken(address)": "6247f6f2"
		}
	},
	"abi": [
		{
			"inputs": [
				{
					"internalType": "contract IEAS",
					"name": "eas",
					"type": "address"
				}
			],
			"stateMutability": "nonpayable",
			"type": "constructor"
		},
		{
			"inputs": [],
			"name": "AccessDenied",
			"type": "error"
		},
		{
			"inputs": [],
			"name": "InsufficientValue",
			"type": "error"
		},
		{
			"inputs": [],
			"name": "InvalidEAS",
			"type": "error"
		},
		{
			"inputs": [],
			"name": "NotPayable",
			"type": "error"
		},
		{
			"anonymous": false,
			"inputs": [
				{
					"indexed": false,
					"internalType": "string",
					"name": "_requestName",
					"type": "string"
				}
			],
			"name": "ClosedReviewRequest",
			"type": "event"
		},
		{
			"anonymous": false,
			"inputs": [
				{
					"indexed": false,
					"internalType": "uint256",
					"name": "_formId",
					"type": "uint256"
				}
			],
			"name": "CreatedReviewForm",
			"type": "event"
		},
		{
			"anonymous": false,
			"inputs": [
				{
					"indexed": false,
					"internalType": "string",
					"name": "_requestName",
					"type": "string"
				}
			],
			"name": "CreatedReviewRequest",
			"type": "event"
		},
		{
			"anonymous": false,
			"inputs": [
				{
					"components": [
						{
							"internalType": "bytes32",
							"name": "uid",
							"type": "bytes32"
						},
						{
							"internalType": "bytes32",
							"name": "schema",
							"type": "bytes32"
						},
						{
							"internalType": "uint64",
							"name": "time",
							"type": "uint64"
						},
						{
							"internalType": "uint64",
							"name": "expirationTime",
							"type": "uint64"
						},
						{
							"internalType": "uint64",
							"name": "revocationTime",
							"type": "uint64"
						},
						{
							"internalType": "bytes32",
							"name": "refUID",
							"type": "bytes32"
						},
						{
							"internalType": "address",
							"name": "recipient",
							"type": "address"
						},
						{
							"internalType": "address",
							"name": "attester",
							"type": "address"
						},
						{
							"internalType": "bool",
							"name": "revocable",
							"type": "bool"
						},
						{
							"internalType": "bytes",
							"name": "data",
							"type": "bytes"
						}
					],
					"indexed": false,
					"internalType": "struct Attestation",
					"name": "_attestation",
					"type": "tuple"
				},
				{
					"indexed": false,
					"internalType": "string",
					"name": "_requestName",
					"type": "string"
				}
			],
			"name": "OnReviewCallback",
			"type": "event"
		},
		{
			"anonymous": false,
			"inputs": [
				{
					"indexed": true,
					"internalType": "address",
					"name": "previousOwner",
					"type": "address"
				},
				{
					"indexed": true,
					"internalType": "address",
					"name": "newOwner",
					"type": "address"
				}
			],
			"name": "OwnershipTransferred",
			"type": "event"
		},
		{
			"anonymous": false,
			"inputs": [
				{
					"indexed": false,
					"internalType": "bytes32",
					"name": "_uid",
					"type": "bytes32"
				}
			],
			"name": "SubmittedAmendment",
			"type": "event"
		},
		{
			"anonymous": false,
			"inputs": [
				{
					"indexed": false,
					"internalType": "string",
					"name": "_requestName",
					"type": "string"
				}
			],
			"name": "SubmittedReview",
			"type": "event"
		},
		{
			"inputs": [],
			"name": "amendmentsSchemaID",
			"outputs": [
				{
					"internalType": "bytes32",
					"name": "",
					"type": "bytes32"
				}
			],
			"stateMutability": "view",
			"type": "function"
		},
		{
			"inputs": [
				{
					"components": [
						{
							"internalType": "bytes32",
							"name": "uid",
							"type": "bytes32"
						},
						{
							"internalType": "bytes32",
							"name": "schema",
							"type": "bytes32"
						},
						{
							"internalType": "uint64",
							"name": "time",
							"type": "uint64"
						},
						{
							"internalType": "uint64",
							"name": "expirationTime",
							"type": "uint64"
						},
						{
							"internalType": "uint64",
							"name": "revocationTime",
							"type": "uint64"
						},
						{
							"internalType": "bytes32",
							"name": "refUID",
							"type": "bytes32"
						},
						{
							"internalType": "address",
							"name": "recipient",
							"type": "address"
						},
						{
							"internalType": "address",
							"name": "attester",
							"type": "address"
						},
						{
							"internalType": "bool",
							"name": "revocable",
							"type": "bool"
						},
						{
							"internalType": "bytes",
							"name": "data",
							"type": "bytes"
						}
					],
					"internalType": "struct Attestation",
					"name": "attestation",
					"type": "tuple"
				}
			],
			"name": "attest",
			"outputs": [
				{
					"internalType": "bool",
					"name": "",
					"type": "bool"
				}
			],
			"stateMutability": "payable",
			"type": "function"
		},
		{
			"inputs": [],
			"name": "callbackContract",
			"outputs": [
				{
					"internalType": "contract IOnReviewable",
					"name": "",
					"type": "address"
				}
			],
			"stateMutability": "view",
			"type": "function"
		},
		{
			"inputs": [
				{
					"internalType": "string",
					"name": "_name",
					"type": "string"
				}
			],
			"name": "closeReviewRequest",
			"outputs": [],
			"stateMutability": "nonpayable",
			"type": "function"
		},
		{
			"inputs": [],
			"name": "contractVersion",
			"outputs": [
				{
					"internalType": "string",
					"name": "",
					"type": "string"
				}
			],
			"stateMutability": "view",
			"type": "function"
		},
		{
			"inputs": [
				{
					"internalType": "string",
					"name": "_name",
					"type": "string"
				},
				{
					"internalType": "address[]",
					"name": "reviewers",
					"type": "address[]"
				},
				{
					"internalType": "uint256[]",
					"name": "hypercertIDs",
					"type": "uint256[]"
				},
				{
					"internalType": "string[]",
					"name": "hypercertIPFSHashes",
					"type": "string[]"
				},
				{
					"internalType": "string",
					"name": "formIpfsHash",
					"type": "string"
				},
				{
					"internalType": "uint256",
					"name": "reviewFormIndex",
					"type": "uint256"
				}
			],
			"name": "createNonPayableRequest",
			"outputs": [],
			"stateMutability": "nonpayable",
			"type": "function"
		},
		{
			"inputs": [
				{
					"internalType": "string",
					"name": "_name",
					"type": "string"
				},
				{
					"internalType": "address[]",
					"name": "reviewers",
					"type": "address[]"
				},
				{
					"internalType": "uint256[]",
					"name": "hypercertIDs",
					"type": "uint256[]"
				},
				{
					"internalType": "string[]",
					"name": "hypercertIPFSHashes",
					"type": "string[]"
				},
				{
					"internalType": "string",
					"name": "formIpfsHash",
					"type": "string"
				},
				{
					"internalType": "uint256",
					"name": "rewardPerReview",
					"type": "uint256"
				},
				{
					"internalType": "address",
					"name": "paymentTokenAddress",
					"type": "address"
				},
				{
					"internalType": "uint256",
					"name": "reviewFormIndex",
					"type": "uint256"
				}
			],
			"name": "createRequest",
			"outputs": [],
			"stateMutability": "payable",
			"type": "function"
		},
		{
			"inputs": [
				{
					"internalType": "string[]",
					"name": "questions",
					"type": "string[]"
				},
				{
					"internalType": "string[][]",
					"name": "choices",
					"type": "string[][]"
				},
				{
					"internalType": "enum DeresyResolver.QuestionType[]",
					"name": "questionTypes",
					"type": "uint8[]"
				}
			],
			"name": "createReviewForm",
			"outputs": [
				{
					"internalType": "uint256",
					"name": "",
					"type": "uint256"
				}
			],
			"stateMutability": "nonpayable",
			"type": "function"
		},
		{
			"inputs": [
				{
					"internalType": "string",
					"name": "_name",
					"type": "string"
				}
			],
			"name": "getRequest",
			"outputs": [
				{
					"components": [
						{
							"internalType": "address",
							"name": "sponsor",
							"type": "address"
						},
						{
							"internalType": "address[]",
							"name": "reviewers",
							"type": "address[]"
						},
						{
							"internalType": "uint256[]",
							"name": "hypercertIDs",
							"type": "uint256[]"
						},
						{
							"internalType": "string[]",
							"name": "hypercertIPFSHashes",
							"type": "string[]"
						},
						{
							"internalType": "string",
							"name": "formIpfsHash",
							"type": "string"
						},
						{
							"internalType": "uint256",
							"name": "rewardPerReview",
							"type": "uint256"
						},
						{
							"components": [
								{
									"internalType": "address",
									"name": "reviewer",
									"type": "address"
								},
								{
									"internalType": "uint256",
									"name": "hypercertID",
									"type": "uint256"
								},
								{
									"internalType": "bytes32",
									"name": "attestationID",
									"type": "bytes32"
								},
								{
									"internalType": "bytes32[]",
									"name": "amendmentsUIDs",
									"type": "bytes32[]"
								}
							],
							"internalType": "struct DeresyResolver.Review[]",
							"name": "reviews",
							"type": "tuple[]"
						},
						{
							"internalType": "bool",
							"name": "isClosed",
							"type": "bool"
						},
						{
							"internalType": "address",
							"name": "paymentTokenAddress",
							"type": "address"
						},
						{
							"internalType": "uint256",
							"name": "fundsLeft",
							"type": "uint256"
						},
						{
							"internalType": "uint256",
							"name": "reviewFormIndex",
							"type": "uint256"
						},
						{
							"internalType": "string",
							"name": "name",
							"type": "string"
						}
					],
					"internalType": "struct DeresyResolver.ReviewRequest",
					"name": "reviewRequest",
					"type": "tuple"
				}
			],
			"stateMutability": "view",
			"type": "function"
		},
		{
			"inputs": [
				{
					"internalType": "string",
					"name": "_name",
					"type": "string"
				}
			],
			"name": "getRequestReviewForm",
			"outputs": [
				{
					"components": [
						{
							"internalType": "string[]",
							"name": "questions",
							"type": "string[]"
						},
						{
							"internalType": "enum DeresyResolver.QuestionType[]",
							"name": "questionTypes",
							"type": "uint8[]"
						},
						{
							"internalType": "string[][]",
							"name": "choices",
							"type": "string[][]"
						}
					],
					"internalType": "struct DeresyResolver.ReviewForm",
					"name": "requestReviewForm",
					"type": "tuple"
				}
			],
			"stateMutability": "view",
			"type": "function"
		},
		{
			"inputs": [
				{
					"internalType": "uint256",
					"name": "_reviewFormIndex",
					"type": "uint256"
				}
			],
			"name": "getReviewForm",
			"outputs": [
				{
					"components": [
						{
							"internalType": "string[]",
							"name": "questions",
							"type": "string[]"
						},
						{
							"internalType": "enum DeresyResolver.QuestionType[]",
							"name": "questionTypes",
							"type": "uint8[]"
						},
						{
							"internalType": "string[][]",
							"name": "choices",
							"type": "string[][]"
						}
					],
					"internalType": "struct DeresyResolver.ReviewForm",
					"name": "reviewForm",
					"type": "tuple"
				}
			],
			"stateMutability": "view",
			"type": "function"
		},
		{
			"inputs": [],
			"name": "getReviewRequestsNames",
			"outputs": [
				{
					"internalType": "string[]",
					"name": "",
					"type": "string[]"
				}
			],
			"stateMutability": "view",
			"type": "function"
		},
		{
			"inputs": [],
			"name": "getWhitelistedTokens",
			"outputs": [
				{
					"internalType": "address[]",
					"name": "",
					"type": "address[]"
				}
			],
			"stateMutability": "view",
			"type": "function"
		},
		{
			"inputs": [],
			"name": "isPayable",
			"outputs": [
				{
					"internalType": "bool",
					"name": "",
					"type": "bool"
				}
			],
			"stateMutability": "pure",
			"type": "function"
		},
		{
			"inputs": [
				{
					"internalType": "address",
					"name": "tokenAddress",
					"type": "address"
				}
			],
			"name": "isTokenWhitelisted",
			"outputs": [
				{
					"internalType": "bool",
					"name": "",
					"type": "bool"
				}
			],
			"stateMutability": "view",
			"type": "function"
		},
		{
			"inputs": [
				{
					"components": [
						{
							"internalType": "bytes32",
							"name": "uid",
							"type": "bytes32"
						},
						{
							"internalType": "bytes32",
							"name": "schema",
							"type": "bytes32"
						},
						{
							"internalType": "uint64",
							"name": "time",
							"type": "uint64"
						},
						{
							"internalType": "uint64",
							"name": "expirationTime",
							"type": "uint64"
						},
						{
							"internalType": "uint64",
							"name": "revocationTime",
							"type": "uint64"
						},
						{
							"internalType": "bytes32",
							"name": "refUID",
							"type": "bytes32"
						},
						{
							"internalType": "address",
							"name": "recipient",
							"type": "address"
						},
						{
							"internalType": "address",
							"name": "attester",
							"type": "address"
						},
						{
							"internalType": "bool",
							"name": "revocable",
							"type": "bool"
						},
						{
							"internalType": "bytes",
							"name": "data",
							"type": "bytes"
						}
					],
					"internalType": "struct Attestation[]",
					"name": "attestations",
					"type": "tuple[]"
				},
				{
					"internalType": "uint256[]",
					"name": "values",
					"type": "uint256[]"
				}
			],
			"name": "multiAttest",
			"outputs": [
				{
					"internalType": "bool",
					"name": "",
					"type": "bool"
				}
			],
			"stateMutability": "payable",
			"type": "function"
		},
		{
			"inputs": [
				{
					"components": [
						{
							"internalType": "bytes32",
							"name": "uid",
							"type": "bytes32"
						},
						{
							"internalType": "bytes32",
							"name": "schema",
							"type": "bytes32"
						},
						{
							"internalType": "uint64",
							"name": "time",
							"type": "uint64"
						},
						{
							"internalType": "uint64",
							"name": "expirationTime",
							"type": "uint64"
						},
						{
							"internalType": "uint64",
							"name": "revocationTime",
							"type": "uint64"
						},
						{
							"internalType": "bytes32",
							"name": "refUID",
							"type": "bytes32"
						},
						{
							"internalType": "address",
							"name": "recipient",
							"type": "address"
						},
						{
							"internalType": "address",
							"name": "attester",
							"type": "address"
						},
						{
							"internalType": "bool",
							"name": "revocable",
							"type": "bool"
						},
						{
							"internalType": "bytes",
							"name": "data",
							"type": "bytes"
						}
					],
					"internalType": "struct Attestation[]",
					"name": "attestations",
					"type": "tuple[]"
				},
				{
					"internalType": "uint256[]",
					"name": "values",
					"type": "uint256[]"
				}
			],
			"name": "multiRevoke",
			"outputs": [
				{
					"internalType": "bool",
					"name": "",
					"type": "bool"
				}
			],
			"stateMutability": "payable",
			"type": "function"
		},
		{
			"inputs": [],
			"name": "owner",
			"outputs": [
				{
					"internalType": "address",
					"name": "",
					"type": "address"
				}
			],
			"stateMutability": "view",
			"type": "function"
		},
		{
			"inputs": [],
			"name": "pause",
			"outputs": [],
			"stateMutability": "nonpayable",
			"type": "function"
		},
		{
			"inputs": [],
			"name": "paused",
			"outputs": [
				{
					"internalType": "bool",
					"name": "",
					"type": "bool"
				}
			],
			"stateMutability": "view",
			"type": "function"
		},
		{
			"inputs": [],
			"name": "renounceOwnership",
			"outputs": [],
			"stateMutability": "nonpayable",
			"type": "function"
		},
		{
			"inputs": [],
			"name": "reviewFormsTotal",
			"outputs": [
				{
					"internalType": "uint256",
					"name": "",
					"type": "uint256"
				}
			],
			"stateMutability": "view",
			"type": "function"
		},
		{
			"inputs": [],
			"name": "reviewsSchemaID",
			"outputs": [
				{
					"internalType": "bytes32",
					"name": "",
					"type": "bytes32"
				}
			],
			"stateMutability": "view",
			"type": "function"
		},
		{
			"inputs": [
				{
					"components": [
						{
							"internalType": "bytes32",
							"name": "uid",
							"type": "bytes32"
						},
						{
							"internalType": "bytes32",
							"name": "schema",
							"type": "bytes32"
						},
						{
							"internalType": "uint64",
							"name": "time",
							"type": "uint64"
						},
						{
							"internalType": "uint64",
							"name": "expirationTime",
							"type": "uint64"
						},
						{
							"internalType": "uint64",
							"name": "revocationTime",
							"type": "uint64"
						},
						{
							"internalType": "bytes32",
							"name": "refUID",
							"type": "bytes32"
						},
						{
							"internalType": "address",
							"name": "recipient",
							"type": "address"
						},
						{
							"internalType": "address",
							"name": "attester",
							"type": "address"
						},
						{
							"internalType": "bool",
							"name": "revocable",
							"type": "bool"
						},
						{
							"internalType": "bytes",
							"name": "data",
							"type": "bytes"
						}
					],
					"internalType": "struct Attestation",
					"name": "attestation",
					"type": "tuple"
				}
			],
			"name": "revoke",
			"outputs": [
				{
					"internalType": "bool",
					"name": "",
					"type": "bool"
				}
			],
			"stateMutability": "payable",
			"type": "function"
		},
		{
			"inputs": [
				{
					"internalType": "bytes32",
					"name": "_amendmentsSchemaID",
					"type": "bytes32"
				}
			],
			"name": "setAmendmentsSchemaID",
			"outputs": [],
			"stateMutability": "nonpayable",
			"type": "function"
		},
		{
			"inputs": [
				{
					"internalType": "address",
					"name": "_callbackContractAddress",
					"type": "address"
				}
			],
			"name": "setCallbackContract",
			"outputs": [],
			"stateMutability": "nonpayable",
			"type": "function"
		},
		{
			"inputs": [
				{
					"internalType": "bytes32",
					"name": "_reviewsSchemaID",
					"type": "bytes32"
				}
			],
			"name": "setReviewsSchemaID",
			"outputs": [],
			"stateMutability": "nonpayable",
			"type": "function"
		},
		{
			"inputs": [
				{
					"internalType": "address",
					"name": "newOwner",
					"type": "address"
				}
			],
			"name": "transferOwnership",
			"outputs": [],
			"stateMutability": "nonpayable",
			"type": "function"
		},
		{
			"inputs": [],
			"name": "unpause",
			"outputs": [],
			"stateMutability": "nonpayable",
			"type": "function"
		},
		{
			"inputs": [
				{
					"internalType": "address",
					"name": "tokenAddress",
					"type": "address"
				}
			],
			"name": "unwhitelistToken",
			"outputs": [],
			"stateMutability": "nonpayable",
			"type": "function"
		},
		{
			"inputs": [],
			"name": "version",
			"outputs": [
				{
					"internalType": "string",
					"name": "",
					"type": "string"
				}
			],
			"stateMutability": "view",
			"type": "function"
		},
		{
			"inputs": [
				{
					"internalType": "address",
					"name": "tokenAddress",
					"type": "address"
				}
			],
			"name": "whitelistToken",
			"outputs": [],
			"stateMutability": "nonpayable",
			"type": "function"
		},
		{
			"stateMutability": "payable",
			"type": "receive"
		}
	]
}