{
	"data": {
		"bytecode": {
			"linkReferences": {},
			"object": "61014060405260036101009081526218171960e91b61012052600890620000279082620001f2565b506009805461ffff19166101011790553480156200004457600080fd5b5060405162005812380380620058128339810160408190526200006791620002be565b6001608052600360a052600060c052806001600160a01b0381166200009f576040516341bc07ff60e11b815260040160405180910390fd5b6001600160a01b031660e052620000b633620000fd565b50600680546001810182556000919091527ff652222313e28459528d920b65115c16c04f3efc82aaedc97be59f3f377c0d3f0180546001600160a01b0319169055620002f0565b600080546001600160a01b038381166001600160a01b0319831681178455604051919092169283917f8be0079c531659141344cd1fd0a4f28419497f9722a3daafe3b4186f6b6457e09190a35050565b634e487b7160e01b600052604160045260246000fd5b600181811c908216806200017857607f821691505b6020821081036200019957634e487b7160e01b600052602260045260246000fd5b50919050565b601f821115620001ed57600081815260208120601f850160051c81016020861015620001c85750805b601f850160051c820191505b81811015620001e957828155600101620001d4565b5050505b505050565b81516001600160401b038111156200020e576200020e6200014d565b62000226816200021f845462000163565b846200019f565b602080601f8311600181146200025e5760008415620002455750858301515b600019600386901b1c1916600185901b178555620001e9565b600085815260208120601f198616915b828110156200028f578886015182559484019460019091019084016200026e565b5085821015620002ae5787850151600019600388901b60f8161c191681555b5050505050600190811b01905550565b600060208284031215620002d157600080fd5b81516001600160a01b0381168114620002e957600080fd5b9392505050565b60805160a05160c05160e0516154e86200032a6000396000612e5501526000610812015260006107e9015260006107c001526154e86000f3fe60806040526004361061021e5760003560e01c8063a0a8e46011610123578063c74b1340116100ab578063e49617e11161006f578063e49617e114610618578063e60c35051461062b578063e9c06f0e1461063e578063f1e47e921461065e578063f2fde38b1461067d57600080fd5b8063c74b13401461058d578063ce46e046146105ad578063d627d25e146105c1578063dd526054146105e1578063e26f7900146105f657600080fd5b8063b759dc72116100f2578063b759dc72146104eb578063b8b23c171461050b578063bd7e2aa41461052b578063be2761d01461054b578063c480fe481461056b57600080fd5b8063a0a8e46014610476578063abe1d7f31461048b578063b4e137cd146104ab578063b5af090f146104cb57600080fd5b806374987060116101a657806385b924131161017557806385b92413146103ef57806388e5b2d91461041c5780638da5cb5b1461042f5780639128b0d81461044d57806391db0b7e1461046357600080fd5b806374987060146103695780637a35aaa91461038d57806380a43d70146103ad5780638456cb59146103da57600080fd5b8063418f4400116101ed578063418f4400146102c057806354fd4d50146102f85780635c975abb1461031a5780636247f6f214610334578063715018a61461035457600080fd5b80630261553614610243578063270530ca1461026357806337b8f29d146102985780633f4ba83a146102ab57600080fd5b3661023e57604051631574f9f360e01b815260040160405180910390fd5b005b600080fd5b34801561024f57600080fd5b5061023c61025e366004614016565b61069d565b34801561026f57600080fd5b5061028361027e366004614114565b6106bf565b60405190151581526020015b60405180910390f35b61023c6102a63660046142dc565b6106d4565b3480156102b757600080fd5b5061023c6107a5565b3480156102cc57600080fd5b506002546102e0906001600160a01b031681565b6040516001600160a01b03909116815260200161028f565b34801561030457600080fd5b5061030d6107b9565b60405161028f9190614473565b34801561032657600080fd5b506009546102839060ff1681565b34801561034057600080fd5b5061023c61034f366004614486565b61085c565b34801561036057600080fd5b5061023c61090c565b34801561037557600080fd5b5061037f60055481565b60405190815260200161028f565b34801561039957600080fd5b5061023c6103a8366004614486565b610920565b3480156103b957600080fd5b506103cd6103c83660046144a1565b61094a565b60405161028f9190614588565b3480156103e657600080fd5b5061023c610c14565b3480156103fb57600080fd5b5061040f61040a3660046144a1565b610c4e565b60405161028f9190614750565b61028361042a366004614910565b6111eb565b34801561043b57600080fd5b506000546001600160a01b03166102e0565b34801561045957600080fd5b5061037f60045481565b610283610471366004614910565b6112ba565b34801561048257600080fd5b5061030d611379565b34801561049757600080fd5b5061023c6104a636600461497b565b611407565b3480156104b757600080fd5b506103cd6104c63660046144a1565b611414565b3480156104d757600080fd5b506102836104e6366004614486565b611704565b3480156104f757600080fd5b5061023c6105063660046149fd565b61176d565b34801561051757600080fd5b5061023c61052636600461497b565b611b04565b34801561053757600080fd5b506001546102e0906001600160a01b031681565b34801561055757600080fd5b5061023c6105663660046144a1565b611b11565b34801561057757600080fd5b50610580611d02565b60405161028f9190614b17565b34801561059957600080fd5b5061023c6105a8366004614486565b611ddb565b3480156105b957600080fd5b506000610283565b3480156105cd57600080fd5b5061023c6105dc366004614486565b611e05565b3480156105ed57600080fd5b50610580611f66565b34801561060257600080fd5b5061060b612036565b60405161028f9190614b2a565b610283610626366004614b3d565b612098565b610283610639366004614b3d565b6120ad565b34801561064a57600080fd5b5061023c610659366004614b78565b6120c1565b34801561066a57600080fd5b5060095461028390610100900460ff1681565b34801561068957600080fd5b5061023c610698366004614486565b612102565b6106a561217b565b600980549115156101000261ff0019909216919091179055565b60006106cb83836121d5565b90505b92915050565b60095460ff16156107005760405162461bcd60e51b81526004016106f790614c92565b60405180910390fd5b600084116107855760405162461bcd60e51b815260206004820152604660248201527f4465726573793a205265776172642070657220726576696577206d757374206260448201527f652067726561746572207468616e207a65726f20666f7220706179656420726560648201526571756573747360d01b608482015260a4016106f7565b6107998a8a8a8a8a8a8a8a898b6001612388565b50505050505050505050565b6107ad61217b565b6009805460ff19169055565b60606107e47f0000000000000000000000000000000000000000000000000000000000000000612d68565b61080d7f0000000000000000000000000000000000000000000000000000000000000000612d68565b6108367f0000000000000000000000000000000000000000000000000000000000000000612d68565b60405160200161084893929190614cbe565b604051602081830303815290604052905090565b61086461217b565b61086d81611704565b156108ba5760405162461bcd60e51b815260206004820152601960248201527f546f6b656e20616c72656164792077686974656c69737465640000000000000060448201526064016106f7565b600680546001810182556000919091527ff652222313e28459528d920b65115c16c04f3efc82aaedc97be59f3f377c0d3f0180546001600160a01b0319166001600160a01b0392909216919091179055565b61091461217b565b61091e6000612dfa565b565b61092861217b565b600180546001600160a01b0319166001600160a01b0392909216919091179055565b61096e60405180606001604052806060815260200160608152602001606081525090565b600a8260405161097e9190614d18565b9081526040805191829003602090810183208054608092810285018301909352606084018381529092849284919060009085015b82821015610a5e5783829060005260206000200180546109d190614d34565b80601f01602080910402602001604051908101604052809291908181526020018280546109fd90614d34565b8015610a4a5780601f10610a1f57610100808354040283529160200191610a4a565b820191906000526020600020905b815481529060010190602001808311610a2d57829003601f168201915b5050505050815260200190600101906109b2565b50505050815260200160018201805480602002602001604051908101604052809291908181526020018280548015610ae557602002820191906000526020600020906000905b82829054906101000a900460ff166002811115610ac357610ac361452a565b815260206001928301818104948501949093039092029101808411610aa45790505b5050505050815260200160028201805480602002602001604051908101604052809291908181526020016000905b82821015610c0657838290600052602060002001805480602002602001604051908101604052809291908181526020016000905b82821015610bf3578382906000526020600020018054610b6690614d34565b80601f0160208091040260200160405190810160405280929190818152602001828054610b9290614d34565b8015610bdf5780601f10610bb457610100808354040283529160200191610bdf565b820191906000526020600020905b815481529060010190602001808311610bc257829003601f168201915b505050505081526020019060010190610b47565b5050505081526020019060010190610b13565b505050915250909392505050565b610c1c61217b565b60095460ff1615610c3f5760405162461bcd60e51b81526004016106f790614c92565b6009805460ff19166001179055565b610cd7604051806101c0016040528060006001600160a01b03168152602001606081526020016060815260200160608152602001606081526020016060815260200160008152602001600060ff1681526020016060815260200160001515815260200160006001600160a01b031681526020016000815260200160608152602001606081525090565b600382604051610ce79190614d18565b9081526040805191829003602090810183206101c08401835280546001600160a01b03168452600181018054845181850281018501909552808552919385840193909290830182828015610d6457602002820191906000526020600020905b81546001600160a01b03168152600190910190602001808311610d46575b5050505050815260200160028201805480602002602001604051908101604052809291908181526020018280548015610dc657602002820191906000526020600020905b81546001600160a01b03168152600190910190602001808311610da8575b5050505050815260200160038201805480602002602001604051908101604052809291908181526020018280548015610e1e57602002820191906000526020600020905b815481526020019060010190808311610e0a575b5050505050815260200160048201805480602002602001604051908101604052809291908181526020016000905b82821015610ef8578382906000526020600020018054610e6b90614d34565b80601f0160208091040260200160405190810160405280929190818152602001828054610e9790614d34565b8015610ee45780601f10610eb957610100808354040283529160200191610ee4565b820191906000526020600020905b815481529060010190602001808311610ec757829003601f168201915b505050505081526020019060010190610e4c565b505050508152602001600582018054610f1090614d34565b80601f0160208091040260200160405190810160405280929190818152602001828054610f3c90614d34565b8015610f895780601f10610f5e57610100808354040283529160200191610f89565b820191906000526020600020905b815481529060010190602001808311610f6c57829003601f168201915b50505050508152602001600682015481526020016007820160009054906101000a900460ff1660ff1660ff16815260200160088201805480602002602001604051908101604052809291908181526020016000905b82821015611087576000848152602090819020604080516080810182526004860290920180546001600160a01b031683526001810154838501526002810154838301526003810180548351818702810187019094528084529394919360608601939283018282801561106f57602002820191906000526020600020905b81548152602001906001019080831161105b575b50505050508152505081526020019060010190610fde565b50505090825250600982015460ff81161515602083015261010090046001600160a01b03166040820152600a8201546060820152600b820180546080909201916110d090614d34565b80601f01602080910402602001604051908101604052809291908181526020018280546110fc90614d34565b80156111495780601f1061111e57610100808354040283529160200191611149565b820191906000526020600020905b81548152906001019060200180831161112c57829003601f168201915b50505050508152602001600c8201805461116290614d34565b80601f016020809104026020016040519081016040528092919081815260200182805461118e90614d34565b80156111db5780601f106111b0576101008083540402835291602001916111db565b820191906000526020600020905b8154815290600101906020018083116111be57829003601f168201915b5050505050815250509050919050565b60006111f5612e4a565b838281146112165760405163251f56a160e21b815260040160405180910390fd5b3460005b828110156112aa57600086868381811061123657611236614d6e565b905060200201359050828111156112605760405163044044a560e21b815260040160405180910390fd5b61128d89898481811061127557611275614d6e565b90506020028101906112879190614d84565b50600190565b61129e5760009450505050506112b2565b9091039060010161121a565b506001925050505b949350505050565b60006112c4612e4a565b838281146112e55760405163251f56a160e21b815260040160405180910390fd5b3460005b828110156112aa57600086868381811061130557611305614d6e565b9050602002013590508281111561132f5760405163044044a560e21b815260040160405180910390fd5b61135c89898481811061134457611344614d6e565b90506020028101906113569190614d84565b82612e93565b61136d5760009450505050506112b2565b909103906001016112e9565b6008805461138690614d34565b80601f01602080910402602001604051908101604052809291908181526020018280546113b290614d34565b80156113ff5780601f106113d4576101008083540402835291602001916113ff565b820191906000526020600020905b8154815290600101906020018083116113e257829003601f168201915b505050505081565b61140f61217b565b600555565b61143860405180606001604052806060815260200160608152602001606081525090565b600060038360405161144a9190614d18565b90815260200160405180910390209050600a81600b0160405161146d9190614d9b565b9081526040805191829003602090810183208054608092810285018301909352606084018381529092849284919060009085015b8282101561154d5783829060005260206000200180546114c090614d34565b80601f01602080910402602001604051908101604052809291908181526020018280546114ec90614d34565b80156115395780601f1061150e57610100808354040283529160200191611539565b820191906000526020600020905b81548152906001019060200180831161151c57829003601f168201915b5050505050815260200190600101906114a1565b505050508152602001600182018054806020026020016040519081016040528092919081815260200182805480156115d457602002820191906000526020600020906000905b82829054906101000a900460ff1660028111156115b2576115b261452a565b8152602060019283018181049485019490930390920291018084116115935790505b5050505050815260200160028201805480602002602001604051908101604052809291908181526020016000905b828210156116f557838290600052602060002001805480602002602001604051908101604052809291908181526020016000905b828210156116e257838290600052602060002001805461165590614d34565b80601f016020809104026020016040519081016040528092919081815260200182805461168190614d34565b80156116ce5780601f106116a3576101008083540402835291602001916116ce565b820191906000526020600020905b8154815290600101906020018083116116b157829003601f168201915b505050505081526020019060010190611636565b5050505081526020019060010190611602565b50505091525090949350505050565b6000805b60065481101561176457826001600160a01b03166006828154811061172f5761172f614d6e565b6000918252602090912001546001600160a01b0316036117525750600192915050565b8061175c81614e27565b915050611708565b50600092915050565b60095460ff16156117905760405162461bcd60e51b81526004016106f790614c92565b60008451116117ed5760405162461bcd60e51b8152602060048201526024808201527f4465726573793a204e616d652063616e6e6f74206265206e756c6c206f7220656044820152636d70747960e01b60648201526084016106f7565b600a846040516117fd9190614d18565b90815260405190819003602001902054156118685760405162461bcd60e51b815260206004820152602560248201527f4465726573793a20526576696577466f726d4e616d6520616c72656164792065604482015264786973747360d81b60648201526084016106f7565b60008351116118b95760405162461bcd60e51b815260206004820152601f60248201527f4465726573793a205175657374696f6e732063616e2774206265206e756c6c0060448201526064016106f7565b60008151116119165760405162461bcd60e51b8152602060048201526024808201527f4465726573793a205175657374696f6e2054797065732063616e2774206265206044820152631b9d5b1b60e21b60648201526084016106f7565b82518151146119855760405162461bcd60e51b815260206004820152603560248201527f4465726573793a205175657374696f6e7320616e64207479706573206d757374604482015274040d0c2ecca40e8d0ca40e6c2daca40d8cadccee8d605b1b60648201526084016106f7565b81518351146119fc5760405162461bcd60e51b815260206004820152603760248201527f4465726573793a205175657374696f6e7320616e642063686f69636573206d7560448201527f73742068617665207468652073616d65206c656e67746800000000000000000060648201526084016106f7565b604051806060016040528084815260200182815260200183815250600a85604051611a279190614d18565b90815260200160405180910390206000820151816000019080519060200190611a51929190613d67565b506020828101518051611a6a9260018501920190613dbd565b5060408201518051611a86916002840191602090910190613e6d565b5050600b80546001810182556000919091527f0175b7a638427703f0dbe7bb9bbf987a2551717b34e79f33b5b1008d1fa01db9019050611ac68582614e8f565b507fcb1290a8b5a51fbd31ad1afbab070c3ca5be2b36c9b3e3eaad9f1187d5d6e62784604051611af69190614473565b60405180910390a150505050565b611b0c61217b565b600455565b600381604051611b219190614d18565b90815260405190819003602001902054336001600160a01b0390911614611b8a5760405162461bcd60e51b815260206004820152601d60248201527f4465726573793a204974206973206e6f74207468652073706f6e736f7200000060448201526064016106f7565b600381604051611b9a9190614d18565b9081526040519081900360200190206009015460ff1615611bf65760405162461bcd60e51b815260206004820152601660248201527511195c995cde4e8814995c5d595cdd0818db1bdcd95960521b60448201526064016106f7565b600381604051611c069190614d18565b908152604051908190036020018120546001600160a01b0316906108fc90600390611c32908590614d18565b908152604051908190036020018120600a0154801590920291906000818181858888f19350505050158015611c6b573d6000803e3d6000fd5b506001600382604051611c7e9190614d18565b908152604051908190036020018120600901805492151560ff1990931692909217909155600090600390611cb3908490614d18565b9081526020016040518091039020600a01819055507fbc5c8cb2024ed254e024e37b09895ecaa07948dd0fd7a08e30b80f559888f2cf81604051611cf79190614473565b60405180910390a150565b6060600b805480602002602001604051908101604052809291908181526020016000905b82821015611dd2578382906000526020600020018054611d4590614d34565b80601f0160208091040260200160405190810160405280929190818152602001828054611d7190614d34565b8015611dbe5780601f10611d9357610100808354040283529160200191611dbe565b820191906000526020600020905b815481529060010190602001808311611da157829003601f168201915b505050505081526020019060010190611d26565b50505050905090565b611de361217b565b600280546001600160a01b0319166001600160a01b0392909216919091179055565b611e0d61217b565b611e1681611704565b611e5b5760405162461bcd60e51b8152602060048201526016602482015275151bdad95b881b9bdd081a5b881dda1a5d195b1a5cdd60521b60448201526064016106f7565b60005b600654811015611f6257816001600160a01b031660068281548110611e8557611e85614d6e565b6000918252602090912001546001600160a01b031603611f505760068054611eaf90600190614f4e565b81548110611ebf57611ebf614d6e565b600091825260209091200154600680546001600160a01b039092169183908110611eeb57611eeb614d6e565b9060005260206000200160006101000a8154816001600160a01b0302191690836001600160a01b031602179055506006805480611f2a57611f2a614f61565b600082815260209020810160001990810180546001600160a01b03191690550190555050565b80611f5a81614e27565b915050611e5e565b5050565b60606007805480602002602001604051908101604052809291908181526020016000905b82821015611dd2578382906000526020600020018054611fa990614d34565b80601f0160208091040260200160405190810160405280929190818152602001828054611fd590614d34565b80156120225780601f10611ff757610100808354040283529160200191612022565b820191906000526020600020905b81548152906001019060200180831161200557829003601f168201915b505050505081526020019060010190611f8a565b6060600680548060200260200160405190810160405280929190818152602001828054801561208e57602002820191906000526020600020905b81546001600160a01b03168152600190910190602001808311612070575b5050505050905090565b60006120a2612e4a565b60015b90505b919050565b60006120b7612e4a565b6120a58234612e93565b60095460ff16156120e45760405162461bcd60e51b81526004016106f790614c92565b6120f987878787878760008089600080612388565b50505050505050565b61210a61217b565b6001600160a01b03811661216f5760405162461bcd60e51b815260206004820152602660248201527f4f776e61626c653a206e6577206f776e657220697320746865207a65726f206160448201526564647265737360d01b60648201526084016106f7565b61217881612dfa565b50565b6000546001600160a01b0316331461091e5760405162461bcd60e51b815260206004820181905260248201527f4f776e61626c653a2063616c6c6572206973206e6f7420746865206f776e657260448201526064016106f7565b6000805b6003836040516121e99190614d18565b9081526040519081900360200190206001015481101561227557836001600160a01b031660038460405161221d9190614d18565b9081526020016040518091039020600101828154811061223f5761223f614d6e565b6000918252602090912001546001600160a01b0316036122635760019150506106ce565b8061226d81614e27565b9150506121d9565b5060005b6003836040516122899190614d18565b9081526040519081900360200190206002015481101561237e5760006003846040516122b59190614d18565b908152602001604051809103902060020182815481106122d7576122d7614d6e565b6000918252602090912001546040516370a0823160e01b81526001600160a01b038781166004830152909116915081906370a0823190602401602060405180830381865afa925050508015612349575060408051601f3d908101601f1916820190925261234691810190614f77565b60015b612358576000925050506106ce565b801561236a57600193505050506106ce565b50508061237681614e27565b915050612279565b5060009392505050565b60008b51116123ed5760405162461bcd60e51b815260206004820152602b60248201527f4465726573793a20526571756573744e616d652063616e6e6f74206265206e7560448201526a6c6c206f7220656d70747960a81b60648201526084016106f7565b60008a5111806123fe575060008951115b61244a5760405162461bcd60e51b815260206004820181905260248201527f4465726573793a205265766965776572732063616e6e6f74206265206e756c6c60448201526064016106f7565b60008851116124a75760405162461bcd60e51b8152602060048201526024808201527f4465726573793a20487970657263657274204944732063616e6e6f74206265206044820152631b9d5b1b60e21b60648201526084016106f7565b600087511161250e5760405162461bcd60e51b815260206004820152602d60248201527f4465726573793a2048797065726365727473204950465320686173686573206360448201526c185b9b9bdd081899481b9d5b1b609a1b60648201526084016106f7565b865188511461259a5760405162461bcd60e51b815260206004820152604c60248201527f4465726573793a2048797065726365727449447320616e64204879706572636560448201527f727449504653486173686573206172726179206d75737420686176652074686560648201526b040e6c2daca40d8cadccee8d60a31b608482015260a4016106f7565b6000600a846040516125ac9190614d18565b90815260405190819003602001902054116126175760405162461bcd60e51b815260206004820152602560248201527f4465726573793a20526576696577466f726d4e616d6520646f6573206e6f7420604482015264195e1a5cdd60da1b60648201526084016106f7565b60006001600160a01b031660038c6040516126329190614d18565b908152604051908190036020019020546001600160a01b0316146126985760405162461bcd60e51b815260206004820152601760248201527f4465726573793a204e616d65206475706c69636174656400000000000000000060448201526064016106f7565b6126a182611704565b6126ed5760405162461bcd60e51b815260206004820181905260248201527f4465726573793a20546f6b656e206973206e6f742077686974656c697374656460448201526064016106f7565b6126f688612ef4565b6127575760405162461bcd60e51b815260206004820152602c60248201527f4465726573793a204f6e65206f72206d6f72652068797065726365727473206160448201526b1c99481b9bdd081d985b1a5960a21b60648201526084016106f7565b61276089612fdc565b6127d25760405162461bcd60e51b815260206004820152603760248201527f4465726573793a204e6f7420616c6c20726576696577657220636f6e7472616360448201527f7473206172652045524337323120636f6e74726163747300000000000000000060648201526084016106f7565b600081156129e1576000861161285e5760405162461bcd60e51b815260206004820152604560248201527f4465726573793a20726577617264506572526576696577206d7573742062652060448201527f67726561746572207468616e207a65726f20666f722070617961626c652072656064820152641c5d595cdd60da1b608482015260a4016106f7565b6001600160a01b0383166128dd578589518660ff1661287d9190614f90565b6128879190614f90565b3410156128d65760405162461bcd60e51b815260206004820152601960248201527f4465726573793a206d73672e76616c756520696e76616c69640000000000000060448201526064016106f7565b5034612a55565b341561292b5760405162461bcd60e51b815260206004820152601c60248201527f4465726573793a206d73672e76616c756520697320696e76616c69640000000060448201526064016106f7565b8589518660ff1661293c9190614f90565b6129469190614f90565b6040516323b872dd60e01b8152336004820152306024820152604481018290529091506001600160a01b038416906323b872dd906064016020604051808303816000875af115801561299c573d6000803e3d6000fd5b505050506040513d601f19601f820116820180604052508101906129c09190614fa7565b6129dc5760405162461bcd60e51b81526004016106f790614fc4565b612a55565b8515612a555760405162461bcd60e51b815260206004820152603c60248201527f4465726573793a20726577617264506572526576696577206d7573742062652060448201527f7a65726f20666f72206e6f6e2d70617961626c6520726571756573740000000060648201526084016106f7565b3360038d604051612a669190614d18565b90815260405190819003602001812080546001600160a01b03939093166001600160a01b0319909316929092179091558b90600390612aa6908f90614d18565b90815260200160405180910390206001019080519060200190612aca929190613ec6565b508960038d604051612adc9190614d18565b90815260200160405180910390206002019080519060200190612b00929190613ec6565b508860038d604051612b129190614d18565b90815260200160405180910390206003019080519060200190612b36929190613f1b565b508760038d604051612b489190614d18565b90815260200160405180910390206004019080519060200190612b6c929190613d67565b508660038d604051612b7e9190614d18565b90815260200160405180910390206005019081612b9b9190614e8f565b5081612ba8576000612baa565b855b60038d604051612bba9190614d18565b9081526020016040518091039020600601819055508460038d604051612be09190614d18565b908152602001604051809103902060070160006101000a81548160ff021916908360ff160217905550600060038d604051612c1b9190614d18565b908152604051908190036020018120600901805492151560ff19909316929092179091558390600390612c4f908f90614d18565b908152602001604051809103902060090160016101000a8154816001600160a01b0302191690836001600160a01b0316021790555081612c90576000612c92565b805b60038d604051612ca29190614d18565b9081526020016040518091039020600a01819055508360038d604051612cc89190614d18565b9081526020016040518091039020600b019081612ce59190614e8f565b50600780546001810182556000919091527fa66cc928b5edb82af9bd49922954155ab7b0942694bea4ce44661d9a8736c68801612d228d82614e8f565b507f0448feabbf5bb385eb3ea2cb16d90b1cb3b4c8936e399cf7a10e7b8946eec6678c604051612d529190614473565b60405180910390a1505050505050505050505050565b60606000612d758361302a565b60010190506000816001600160401b03811115612d9457612d94614051565b6040519080825280601f01601f191660200182016040528015612dbe576020820181803683370190505b5090508181016020015b600019016f181899199a1a9b1b9c1cb0b131b232b360811b600a86061a8153600a8504945084612dc857509392505050565b600080546001600160a01b038381166001600160a01b0319831681178455604051919092169283917f8be0079c531659141344cd1fd0a4f28419497f9722a3daafe3b4186f6b6457e09190a35050565b336001600160a01b037f0000000000000000000000000000000000000000000000000000000000000000161461091e57604051634ca8886760e01b815260040160405180910390fd5b60095460009060ff1615612eb95760405162461bcd60e51b81526004016106f790614c92565b600454836020013503612ed657612ecf83613102565b90506106ce565b600554836020013503612eec57612ecf836135bf565b5060006106ce565b600954600090610100900460ff1615612fd45760005b8251811015612fd25760025483516000916001600160a01b031690630e89341c90869085908110612f3d57612f3d614d6e565b60200260200101516040518263ffffffff1660e01b8152600401612f6391815260200190565b6000604051808303816000875af1158015612f82573d6000803e3d6000fd5b505050506040513d6000823e601f3d908101601f19168201604052612faa9190810190615007565b90508051600003612fbf575060009392505050565b5080612fca81614e27565b915050612f0a565b505b506001919050565b6000805b8251811015612fd25761300b838281518110612ffe57612ffe614d6e565b602002602001015161382a565b6130185750600092915050565b8061302281614e27565b915050612fe0565b60008072184f03e93ff9f4daa797ed6e38ed64bf6a1f0160401b83106130695772184f03e93ff9f4daa797ed6e38ed64bf6a1f0160401b830492506040015b6d04ee2d6d415b85acef81000000008310613095576d04ee2d6d415b85acef8100000000830492506020015b662386f26fc1000083106130b357662386f26fc10000830492506010015b6305f5e10083106130cb576305f5e100830492506008015b61271083106130df57612710830492506004015b606483106130f1576064830492506002015b600a83106106ce5760010192915050565b600080808061311561012086018661507d565b81019061312291906150c3565b505050505050505092509250925060006003846040516131429190614d18565b908152602001604051809103902090506000600a82600b016040516131679190614d9b565b9081526040519081900360200190209050600061318b610100890160e08a01614486565b60068401549091508835901561320d57600784015460ff166131ad88886138a0565b1061320d5760405162461bcd60e51b815260206004820152602a60248201527f4465726573793a204d61782072657669657773207065722068797065726365726044820152691d08195e18d95959195960b21b60648201526084016106f7565b600984015460009060ff1615801561327c575061327c8560030180548060200260200160405190810160405280929190818152602001828054801561327157602002820191906000526020600020905b81548152602001906001019080831161325d575b505050505088613941565b8015613289575085518454145b801561329a575061329a83896121d5565b80156132ac57506132ac83898961398a565b80156132bd57506132bd8487613a84565b905080156135b257846008016040518060800160405280856001600160a01b0316815260200189815260200184815260200160006001600160401b0381111561330857613308614051565b604051908082528060200260200182016040528015613331578160200160208202803683370190505b5090528154600180820184556000938452602093849020835160049093020180546001600160a01b0319166001600160a01b03909316929092178255828401519082015560408201516002820155606082015180519293919261339a9260038501920190613f1b565b5050506006850154156134b957846006015485600a0160008282546133bf9190614f4e565b9091555050600985015461010090046001600160a01b031661341a5760068501546040516001600160a01b0385169180156108fc02916000818181858888f19350505050158015613414573d6000803e3d6000fd5b506134b9565b6009850154600686015460405163a9059cbb60e01b81526001600160a01b0386811660048301526024820192909252610100909204169063a9059cbb906044016020604051808303816000875af1158015613479573d6000803e3d6000fd5b505050506040513d601f19601f8201168201806040525081019061349d9190614fa7565b6134b95760405162461bcd60e51b81526004016106f790614fc4565b6001546001600160a01b03161561357a5760015460405163bb69ab3360e01b81526001600160a01b039091169063bb69ab33906134fc908d908c906004016152e8565b6020604051808303816000875af115801561351b573d6000803e3d6000fd5b505050506040513d601f19601f8201168201806040525081019061353f9190614fa7565b507f253a8677adaec417dae20224e9f7eb1182aed5a01b1938114cb310cd5c5d954d8a896040516135719291906152e8565b60405180910390a15b7f4d6dd501df538f815f442947c933fc2f545525e75f909b918a6d0701acc7904c886040516135a99190614473565b60405180910390a15b9998505050505050505050565b60008080806135d261012086018661507d565b8101906135df91906153fc565b505092509250925060006003846040516135f99190614d18565b90815260405190819003602001902060088101549091501561381e5760005b600882015481101561381c578660a0013582600801828154811061363e5761363e614d6e565b9060005260206000209060040201600201541480156136a35750613669610100880160e08901614486565b6001600160a01b031682600801828154811061368757613687614d6e565b60009182526020909120600490910201546001600160a01b0316145b80156136b0575060008351115b80156136e15750838260080182815481106136cd576136cd614d6e565b906000526020600020906004020160010154145b1561380a576000805b8360080183815481106136ff576136ff614d6e565b90600052602060002090600402016003018054905081101561378257886000013584600801848154811061373557613735614d6e565b9060005260206000209060040201600301828154811061375757613757614d6e565b9060005260206000200154036137705760019150613782565b8061377a81614e27565b9150506136ea565b50806138085782600801828154811061379d5761379d614d6e565b600091825260208083206004929092029091016003018054600181018255908352918190208a3592018290556040519182527fee28e94ac55844f79e4a8805659e8f6ded6bfe24b7ebe0570deb71c158ec9433910160405180910390a1506001979650505050505050565b505b8061381481614e27565b915050613618565b505b50600095945050505050565b6040516301ffc9a760e01b81526380ac58cd60e01b60048201526000906001600160a01b038316906301ffc9a790602401602060405180830381865afa925050508015613894575060408051601f3d908101601f1916820190925261389191810190614fa7565b60015b6106ce57506000919050565b600080805b6003856040516138b59190614d18565b9081526040519081900360200190206008015481101561393957836003866040516138e09190614d18565b9081526020016040518091039020600801828154811061390257613902614d6e565b90600052602060002090600402016001015403613927578161392381614e27565b9250505b8061393181614e27565b9150506138a5565b509392505050565b6000805b835181101561237e578284828151811061396157613961614d6e565b6020026020010151036139785760019150506106ce565b8061398281614e27565b915050613945565b60006001815b6003856040516139a09190614d18565b90815260405190819003602001902060080154811015613a7b57836003866040516139cb9190614d18565b908152602001604051809103902060080182815481106139ed576139ed614d6e565b906000526020600020906004020160010154148015613a5f5750856001600160a01b0316600386604051613a219190614d18565b90815260200160405180910390206008018281548110613a4357613a43614d6e565b60009182526020909120600490910201546001600160a01b0316145b15613a6957600091505b80613a7381614e27565b915050613990565b50949350505050565b6000805b8251811015613d5d576002846001018281548110613aa857613aa8614d6e565b90600052602060002090602091828204019190069054906101000a900460ff166002811115613ad957613ad961452a565b03613be1576000805b856002018381548110613af757613af7614d6e565b600091825260209091200154811015613bca57848381518110613b1c57613b1c614d6e565b6020026020010151604051602001613b349190614d18565b60405160208183030381529060405280519060200120866002018481548110613b5f57613b5f614d6e565b906000526020600020018281548110613b7a57613b7a614d6e565b90600052602060002001604051602001613b949190614d9b565b6040516020818303038152906040528051906020012003613bb85760019150613bca565b80613bc281614e27565b915050613ae2565b5080613bdb576000925050506106ce565b50613d4b565b6001846001018281548110613bf857613bf8614d6e565b90600052602060002090602091828204019190069054906101000a900460ff166002811115613c2957613c2961452a565b03613d1f576040516259657360e81b602082015260230160405160208183030381529060405280519060200120838281518110613c6857613c68614d6e565b6020026020010151604051602001613c809190614d18565b604051602081830303815290604052805190602001201480613d065750604051614e6f60f01b602082015260220160405160208183030381529060405280519060200120838281518110613cd657613cd6614d6e565b6020026020010151604051602001613cee9190614d18565b60405160208183030381529060405280519060200120145b15613d155760019150506106ce565b60009150506106ce565b828181518110613d3157613d31614d6e565b602002602001015151600003613d4b5760009150506106ce565b80613d5581614e27565b915050613a88565b5060019392505050565b828054828255906000526020600020908101928215613dad579160200282015b82811115613dad5782518290613d9d9082614e8f565b5091602001919060010190613d87565b50613db9929150613f56565b5090565b82805482825590600052602060002090601f01602090048101928215613e615791602002820160005b83821115613e3257835183826101000a81548160ff02191690836002811115613e1157613e1161452a565b02179055509260200192600101602081600001049283019260010302613de6565b8015613e5f5782816101000a81549060ff0219169055600101602081600001049283019260010302613e32565b505b50613db9929150613f73565b828054828255906000526020600020908101928215613eba579160200282015b82811115613eba5782518051613eaa918491602090910190613d67565b5091602001919060010190613e8d565b50613db9929150613f88565b828054828255906000526020600020908101928215613e61579160200282015b82811115613e6157825182546001600160a01b0319166001600160a01b03909116178255602090920191600190910190613ee6565b828054828255906000526020600020908101928215613e61579160200282015b82811115613e61578251825591602001919060010190613f3b565b80821115613db9576000613f6a8282613fa5565b50600101613f56565b5b80821115613db95760008155600101613f74565b80821115613db9576000613f9c8282613fdf565b50600101613f88565b508054613fb190614d34565b6000825580601f10613fc1575050565b601f0160209004906000526020600020908101906121789190613f73565b50805460008255906000526020600020908101906121789190613f56565b801515811461217857600080fd5b80356120a881613ffd565b60006020828403121561402857600080fd5b813561403381613ffd565b9392505050565b80356001600160a01b03811681146120a857600080fd5b634e487b7160e01b600052604160045260246000fd5b604051601f8201601f191681016001600160401b038111828210171561408f5761408f614051565b604052919050565b60006001600160401b038211156140b0576140b0614051565b50601f01601f191660200190565b600082601f8301126140cf57600080fd5b81356140e26140dd82614097565b614067565b8181528460208386010111156140f757600080fd5b816020850160208301376000918101602001919091529392505050565b6000806040838503121561412757600080fd5b6141308361403a565b915060208301356001600160401b0381111561414b57600080fd5b614157858286016140be565b9150509250929050565b60006001600160401b0382111561417a5761417a614051565b5060051b60200190565b600082601f83011261419557600080fd5b813560206141a56140dd83614161565b82815260059290921b840181019181810190868411156141c457600080fd5b8286015b848110156141e6576141d98161403a565b83529183019183016141c8565b509695505050505050565b600082601f83011261420257600080fd5b813560206142126140dd83614161565b82815260059290921b8401810191818101908684111561423157600080fd5b8286015b848110156141e65780358352918301918301614235565b600082601f83011261425d57600080fd5b8135602061426d6140dd83614161565b82815260059290921b8401810191818101908684111561428c57600080fd5b8286015b848110156141e65780356001600160401b038111156142af5760008081fd5b6142bd8986838b01016140be565b845250918301918301614290565b803560ff811681146120a857600080fd5b6000806000806000806000806000806101408b8d0312156142fc57600080fd5b8a356001600160401b038082111561431357600080fd5b61431f8e838f016140be565b9b5060208d013591508082111561433557600080fd5b6143418e838f01614184565b9a5060408d013591508082111561435757600080fd5b6143638e838f01614184565b995060608d013591508082111561437957600080fd5b6143858e838f016141f1565b985060808d013591508082111561439b57600080fd5b6143a78e838f0161424c565b975060a08d01359150808211156143bd57600080fd5b6143c98e838f016140be565b965060c08d013595506143de60e08e016142cb565b94506143ed6101008e0161403a565b93506101208d013591508082111561440457600080fd5b506144118d828e016140be565b9150509295989b9194979a5092959850565b60005b8381101561443e578181015183820152602001614426565b50506000910152565b6000815180845261445f816020860160208601614423565b601f01601f19169290920160200192915050565b6020815260006106cb6020830184614447565b60006020828403121561449857600080fd5b6106cb8261403a565b6000602082840312156144b357600080fd5b81356001600160401b038111156144c957600080fd5b6112b2848285016140be565b600081518084526020808501808196508360051b8101915082860160005b8581101561451d57828403895261450b848351614447565b988501989350908401906001016144f3565b5091979650505050505050565b634e487b7160e01b600052602160045260246000fd5b600081518084526020808501808196508360051b8101915082860160005b8581101561451d5782840389526145768483516144d5565b9885019893509084019060010161455e565b6000602080835283516060828501526145a460808501826144d5565b82860151601f198683038101604088015281518084529185019350600092909190850190835b81811015614602578551600381106145f057634e487b7160e01b86526021600452602486fd5b835294860194918601916001016145ca565b5050604088015194508187820301606088015261461f8186614540565b98975050505050505050565b600081518084526020808501945080840160005b838110156146645781516001600160a01b03168752958201959082019060010161463f565b509495945050505050565b600081518084526020808501945080840160005b8381101561466457815187529582019590820190600101614683565b600081518084526020808501808196508360051b810191508286016000805b86811015614742578385038a52825180516001600160a01b031686528681015187870152604080820151908701526060908101516080918701829052805191870182905287019060a087019084905b8082101561472d578351835292890192918901916001919091019061470d565b50509a87019a955050918501916001016146be565b509298975050505050505050565b6020815261476a6020820183516001600160a01b03169052565b600060208301516101c08060408501526147886101e085018361462b565b91506040850151601f19808685030160608701526147a6848361462b565b935060608701519150808685030160808701526147c3848361466f565b935060808701519150808685030160a08701526147e084836144d5565b935060a08701519150808685030160c08701526147fd8483614447565b935060c087015160e087015260e087015191506101006148218188018460ff169052565b8088015192505061012081878603018188015261483e858461469f565b9450808801519250506101406148578188018415159052565b8701519150610160614873878201846001600160a01b03169052565b808801519250506101808281880152808801519250506101a081878603018188015261489f8584614447565b9088015187820390920184880152935090506148bb8382614447565b9695505050505050565b60008083601f8401126148d757600080fd5b5081356001600160401b038111156148ee57600080fd5b6020830191508360208260051b850101111561490957600080fd5b9250929050565b6000806000806040858703121561492657600080fd5b84356001600160401b038082111561493d57600080fd5b614949888389016148c5565b9096509450602087013591508082111561496257600080fd5b5061496f878288016148c5565b95989497509550505050565b60006020828403121561498d57600080fd5b5035919050565b600082601f8301126149a557600080fd5b813560206149b56140dd83614161565b82815260059290921b840181019181810190868411156149d457600080fd5b8286015b848110156141e6578035600381106149f05760008081fd5b83529183019183016149d8565b60008060008060808587031215614a1357600080fd5b84356001600160401b0380821115614a2a57600080fd5b614a36888389016140be565b9550602091508187013581811115614a4d57600080fd5b614a5989828a0161424c565b955050604087013581811115614a6e57600080fd5b8701601f81018913614a7f57600080fd5b8035614a8d6140dd82614161565b81815260059190911b8201840190848101908b831115614aac57600080fd5b8584015b83811015614ae457803586811115614ac85760008081fd5b614ad68e898389010161424c565b845250918601918601614ab0565b5096505050506060870135915080821115614afe57600080fd5b50614b0b87828801614994565b91505092959194509250565b6020815260006106cb60208301846144d5565b6020815260006106cb602083018461462b565b600060208284031215614b4f57600080fd5b81356001600160401b03811115614b6557600080fd5b8201610140818503121561403357600080fd5b600080600080600080600060e0888a031215614b9357600080fd5b87356001600160401b0380821115614baa57600080fd5b614bb68b838c016140be565b985060208a0135915080821115614bcc57600080fd5b614bd88b838c01614184565b975060408a0135915080821115614bee57600080fd5b614bfa8b838c01614184565b965060608a0135915080821115614c1057600080fd5b614c1c8b838c016141f1565b955060808a0135915080821115614c3257600080fd5b614c3e8b838c0161424c565b945060a08a0135915080821115614c5457600080fd5b614c608b838c016140be565b935060c08a0135915080821115614c7657600080fd5b50614c838a828b016140be565b91505092959891949750929550565b60208082526012908201527110dbdb9d1c9858dd081a5cc81c185d5cd95960721b604082015260600190565b60008451614cd0818460208901614423565b8083019050601760f91b8082528551614cf0816001850160208a01614423565b60019201918201528351614d0b816002840160208801614423565b0160020195945050505050565b60008251614d2a818460208701614423565b9190910192915050565b600181811c90821680614d4857607f821691505b602082108103614d6857634e487b7160e01b600052602260045260246000fd5b50919050565b634e487b7160e01b600052603260045260246000fd5b6000823561013e19833603018112614d2a57600080fd5b6000808354614da981614d34565b60018281168015614dc15760018114614dd657614e05565b60ff1984168752821515830287019450614e05565b8760005260208060002060005b85811015614dfc5781548a820152908401908201614de3565b50505082870194505b50929695505050505050565b634e487b7160e01b600052601160045260246000fd5b600060018201614e3957614e39614e11565b5060010190565b601f821115614e8a57600081815260208120601f850160051c81016020861015614e675750805b601f850160051c820191505b81811015614e8657828155600101614e73565b5050505b505050565b81516001600160401b03811115614ea857614ea8614051565b614ebc81614eb68454614d34565b84614e40565b602080601f831160018114614ef15760008415614ed95750858301515b600019600386901b1c1916600185901b178555614e86565b600085815260208120601f198616915b82811015614f2057888601518255948401946001909101908401614f01565b5085821015614f3e5787850151600019600388901b60f8161c191681555b5050505050600190811b01905550565b818103818111156106ce576106ce614e11565b634e487b7160e01b600052603160045260246000fd5b600060208284031215614f8957600080fd5b5051919050565b80820281158282048414176106ce576106ce614e11565b600060208284031215614fb957600080fd5b815161403381613ffd565b60208082526023908201527f4465726573793a20455243323020746f6b656e207472616e73666572206661696040820152621b195960ea1b606082015260800190565b60006020828403121561501957600080fd5b81516001600160401b0381111561502f57600080fd5b8201601f8101841361504057600080fd5b805161504e6140dd82614097565b81815285602083850101111561506357600080fd5b615074826020830160208601614423565b95945050505050565b6000808335601e1984360301811261509457600080fd5b8301803591506001600160401b038211156150ae57600080fd5b60200191503681900382131561490957600080fd5b60008060008060008060008060008060006101608c8e0312156150e557600080fd5b6001600160401b03808d3511156150fb57600080fd5b6151088e8e358f016140be565b9b5060208d01359a508060408e0135111561512257600080fd5b6151328e60408f01358f0161424c565b99508060608e0135111561514557600080fd5b6151558e60608f01358f0161424c565b98508060808e0135111561516857600080fd5b6151788e60808f01358f0161424c565b97508060a08e0135111561518b57600080fd5b61519b8e60a08f01358f016140be565b96508060c08e013511156151ae57600080fd5b6151be8e60c08f01358f0161424c565b95508060e08e013511156151d157600080fd5b6151e18e60e08f01358f016140be565b9450806101008e013511156151f557600080fd5b6152068e6101008f01358f016140be565b9350806101208e0135111561521a57600080fd5b61522b8e6101208f01358f0161424c565b9250806101408e0135111561523f57600080fd5b506152518d6101408e01358e0161424c565b90509295989b509295989b9093969950565b80356001600160401b03811681146120a857600080fd5b6000808335601e1984360301811261529157600080fd5b83016020810192503590506001600160401b038111156152b057600080fd5b80360382131561490957600080fd5b81835281816020850137506000828201602090810191909152601f909101601f19169091010190565b604081528235604082015260208301356060820152600061530b60408501615263565b6001600160401b0316608083015261532560608501615263565b6001600160401b031660a083015261533f60808501615263565b6001600160401b03811660c08401525060a084013560e083015261536560c0850161403a565b61010061537c818501836001600160a01b03169052565b61538860e0870161403a565b91506101206153a1818601846001600160a01b03169052565b6153ac82880161400b565b925061014091506153c08286018415159052565b6153cc8188018861527a565b93509050816101608601526153e6610180860184836152bf565b9250505082810360208401526150748185614447565b600080600080600060a0868803121561541457600080fd5b85356001600160401b038082111561542b57600080fd5b61543789838a016140be565b965060208801359550604088013591508082111561545457600080fd5b61546089838a016140be565b9450606088013591508082111561547657600080fd5b61548289838a016140be565b9350608088013591508082111561549857600080fd5b506154a58882890161424c565b915050929550929590935056fea2646970667358221220db84dea7796f4f52279e4b882bbea02a22e857a6ccd6790c7e0beefeae2026c364736f6c63430008130033",
			"opcodes": "PUSH2 0x140 PUSH1 0x40 MSTORE PUSH1 0x3 PUSH2 0x100 SWAP1 DUP2 MSTORE PUSH3 0x181719 PUSH1 0xE9 SHL PUSH2 0x120 MSTORE PUSH1 0x8 SWAP1 PUSH3 0x27 SWAP1 DUP3 PUSH3 0x1F2 JUMP JUMPDEST POP PUSH1 0x9 DUP1 SLOAD PUSH2 0xFFFF NOT AND PUSH2 0x101 OR SWAP1 SSTORE CALLVALUE DUP1 ISZERO PUSH3 0x44 JUMPI PUSH1 0x0 DUP1 REVERT JUMPDEST POP PUSH1 0x40 MLOAD PUSH3 0x5812 CODESIZE SUB DUP1 PUSH3 0x5812 DUP4 CODECOPY DUP2 ADD PUSH1 0x40 DUP2 SWAP1 MSTORE PUSH3 0x67 SWAP2 PUSH3 0x2BE JUMP JUMPDEST PUSH1 0x1 PUSH1 0x80 MSTORE PUSH1 0x3 PUSH1 0xA0 MSTORE PUSH1 0x0 PUSH1 0xC0 MSTORE DUP1 PUSH1 0x1 PUSH1 0x1 PUSH1 0xA0 SHL SUB DUP2 AND PUSH3 0x9F JUMPI PUSH1 0x40 MLOAD PUSH4 0x41BC07FF PUSH1 0xE1 SHL DUP2 MSTORE PUSH1 0x4 ADD PUSH1 0x40 MLOAD DUP1 SWAP2 SUB SWAP1 REVERT JUMPDEST PUSH1 0x1 PUSH1 0x1 PUSH1 0xA0 SHL SUB AND PUSH1 0xE0 MSTORE PUSH3 0xB6 CALLER PUSH3 0xFD JUMP JUMPDEST POP PUSH1 0x6 DUP1 SLOAD PUSH1 0x1 DUP2 ADD DUP3 SSTORE PUSH1 0x0 SWAP2 SWAP1 SWAP2 MSTORE PUSH32 0xF652222313E28459528D920B65115C16C04F3EFC82AAEDC97BE59F3F377C0D3F ADD DUP1 SLOAD PUSH1 0x1 PUSH1 0x1 PUSH1 0xA0 SHL SUB NOT AND SWAP1 SSTORE PUSH3 0x2F0 JUMP JUMPDEST PUSH1 0x0 DUP1 SLOAD PUSH1 0x1 PUSH1 0x1 PUSH1 0xA0 SHL SUB DUP4 DUP2 AND PUSH1 0x1 PUSH1 0x1 PUSH1 0xA0 SHL SUB NOT DUP4 AND DUP2 OR DUP5 SSTORE PUSH1 0x40 MLOAD SWAP2 SWAP1 SWAP3 AND SWAP3 DUP4 SWAP2 PUSH32 0x8BE0079C531659141344CD1FD0A4F28419497F9722A3DAAFE3B4186F6B6457E0 SWAP2 SWAP1 LOG3 POP POP JUMP JUMPDEST PUSH4 0x4E487B71 PUSH1 0xE0 SHL PUSH1 0x0 MSTORE PUSH1 0x41 PUSH1 0x4 MSTORE PUSH1 0x24 PUSH1 0x0 REVERT JUMPDEST PUSH1 0x1 DUP2 DUP2 SHR SWAP1 DUP3 AND DUP1 PUSH3 0x178 JUMPI PUSH1 0x7F DUP3 AND SWAP2 POP JUMPDEST PUSH1 0x20 DUP3 LT DUP2 SUB PUSH3 0x199 JUMPI PUSH4 0x4E487B71 PUSH1 0xE0 SHL PUSH1 0x0 MSTORE PUSH1 0x22 PUSH1 0x4 MSTORE PUSH1 0x24 PUSH1 0x0 REVERT JUMPDEST POP SWAP2 SWAP1 POP JUMP JUMPDEST PUSH1 0x1F DUP3 GT ISZERO PUSH3 0x1ED JUMPI PUSH1 0x0 DUP2 DUP2 MSTORE PUSH1 0x20 DUP2 KECCAK256 PUSH1 0x1F DUP6 ADD PUSH1 0x5 SHR DUP2 ADD PUSH1 0x20 DUP7 LT ISZERO PUSH3 0x1C8 JUMPI POP DUP1 JUMPDEST PUSH1 0x1F DUP6 ADD PUSH1 0x5 SHR DUP3 ADD SWAP2 POP JUMPDEST DUP2 DUP2 LT ISZERO PUSH3 0x1E9 JUMPI DUP3 DUP2 SSTORE PUSH1 0x1 ADD PUSH3 0x1D4 JUMP JUMPDEST POP POP POP JUMPDEST POP POP POP JUMP JUMPDEST DUP2 MLOAD PUSH1 0x1 PUSH1 0x1 PUSH1 0x40 SHL SUB DUP2 GT ISZERO PUSH3 0x20E JUMPI PUSH3 0x20E PUSH3 0x14D JUMP JUMPDEST PUSH3 0x226 DUP2 PUSH3 0x21F DUP5 SLOAD PUSH3 0x163 JUMP JUMPDEST DUP5 PUSH3 0x19F JUMP JUMPDEST PUSH1 0x20 DUP1 PUSH1 0x1F DUP4 GT PUSH1 0x1 DUP2 EQ PUSH3 0x25E JUMPI PUSH1 0x0 DUP5 ISZERO PUSH3 0x245 JUMPI POP DUP6 DUP4 ADD MLOAD JUMPDEST PUSH1 0x0 NOT PUSH1 0x3 DUP7 SWAP1 SHL SHR NOT AND PUSH1 0x1 DUP6 SWAP1 SHL OR DUP6 SSTORE PUSH3 0x1E9 JUMP JUMPDEST PUSH1 0x0 DUP6 DUP2 MSTORE PUSH1 0x20 DUP2 KECCAK256 PUSH1 0x1F NOT DUP7 AND SWAP2 JUMPDEST DUP3 DUP2 LT ISZERO PUSH3 0x28F JUMPI DUP9 DUP7 ADD MLOAD DUP3 SSTORE SWAP5 DUP5 ADD SWAP5 PUSH1 0x1 SWAP1 SWAP2 ADD SWAP1 DUP5 ADD PUSH3 0x26E JUMP JUMPDEST POP DUP6 DUP3 LT ISZERO PUSH3 0x2AE JUMPI DUP8 DUP6 ADD MLOAD PUSH1 0x0 NOT PUSH1 0x3 DUP9 SWAP1 SHL PUSH1 0xF8 AND SHR NOT AND DUP2 SSTORE JUMPDEST POP POP POP POP POP PUSH1 0x1 SWAP1 DUP2 SHL ADD SWAP1 SSTORE POP JUMP JUMPDEST PUSH1 0x0 PUSH1 0x20 DUP3 DUP5 SUB SLT ISZERO PUSH3 0x2D1 JUMPI PUSH1 0x0 DUP1 REVERT JUMPDEST DUP2 MLOAD PUSH1 0x1 PUSH1 0x1 PUSH1 0xA0 SHL SUB DUP2 AND DUP2 EQ PUSH3 0x2E9 JUMPI PUSH1 0x0 DUP1 REVERT JUMPDEST SWAP4 SWAP3 POP POP POP JUMP JUMPDEST PUSH1 0x80 MLOAD PUSH1 0xA0 MLOAD PUSH1 0xC0 MLOAD PUSH1 0xE0 MLOAD PUSH2 0x54E8 PUSH3 0x32A PUSH1 0x0 CODECOPY PUSH1 0x0 PUSH2 0x2E55 ADD MSTORE PUSH1 0x0 PUSH2 0x812 ADD MSTORE PUSH1 0x0 PUSH2 0x7E9 ADD MSTORE PUSH1 0x0 PUSH2 0x7C0 ADD MSTORE PUSH2 0x54E8 PUSH1 0x0 RETURN INVALID PUSH1 0x80 PUSH1 0x40 MSTORE PUSH1 0x4 CALLDATASIZE LT PUSH2 0x21E JUMPI PUSH1 0x0 CALLDATALOAD PUSH1 0xE0 SHR DUP1 PUSH4 0xA0A8E460 GT PUSH2 0x123 JUMPI DUP1 PUSH4 0xC74B1340 GT PUSH2 0xAB JUMPI DUP1 PUSH4 0xE49617E1 GT PUSH2 0x6F JUMPI DUP1 PUSH4 0xE49617E1 EQ PUSH2 0x618 JUMPI DUP1 PUSH4 0xE60C3505 EQ PUSH2 0x62B JUMPI DUP1 PUSH4 0xE9C06F0E EQ PUSH2 0x63E JUMPI DUP1 PUSH4 0xF1E47E92 EQ PUSH2 0x65E JUMPI DUP1 PUSH4 0xF2FDE38B EQ PUSH2 0x67D JUMPI PUSH1 0x0 DUP1 REVERT JUMPDEST DUP1 PUSH4 0xC74B1340 EQ PUSH2 0x58D JUMPI DUP1 PUSH4 0xCE46E046 EQ PUSH2 0x5AD JUMPI DUP1 PUSH4 0xD627D25E EQ PUSH2 0x5C1 JUMPI DUP1 PUSH4 0xDD526054 EQ PUSH2 0x5E1 JUMPI DUP1 PUSH4 0xE26F7900 EQ PUSH2 0x5F6 JUMPI PUSH1 0x0 DUP1 REVERT JUMPDEST DUP1 PUSH4 0xB759DC72 GT PUSH2 0xF2 JUMPI DUP1 PUSH4 0xB759DC72 EQ PUSH2 0x4EB JUMPI DUP1 PUSH4 0xB8B23C17 EQ PUSH2 0x50B JUMPI DUP1 PUSH4 0xBD7E2AA4 EQ PUSH2 0x52B JUMPI DUP1 PUSH4 0xBE2761D0 EQ PUSH2 0x54B JUMPI DUP1 PUSH4 0xC480FE48 EQ PUSH2 0x56B JUMPI PUSH1 0x0 DUP1 REVERT JUMPDEST DUP1 PUSH4 0xA0A8E460 EQ PUSH2 0x476 JUMPI DUP1 PUSH4 0xABE1D7F3 EQ PUSH2 0x48B JUMPI DUP1 PUSH4 0xB4E137CD EQ PUSH2 0x4AB JUMPI DUP1 PUSH4 0xB5AF090F EQ PUSH2 0x4CB JUMPI PUSH1 0x0 DUP1 REVERT JUMPDEST DUP1 PUSH4 0x74987060 GT PUSH2 0x1A6 JUMPI DUP1 PUSH4 0x85B92413 GT PUSH2 0x175 JUMPI DUP1 PUSH4 0x85B92413 EQ PUSH2 0x3EF JUMPI DUP1 PUSH4 0x88E5B2D9 EQ PUSH2 0x41C JUMPI DUP1 PUSH4 0x8DA5CB5B EQ PUSH2 0x42F JUMPI DUP1 PUSH4 0x9128B0D8 EQ PUSH2 0x44D JUMPI DUP1 PUSH4 0x91DB0B7E EQ PUSH2 0x463 JUMPI PUSH1 0x0 DUP1 REVERT JUMPDEST DUP1 PUSH4 0x74987060 EQ PUSH2 0x369 JUMPI DUP1 PUSH4 0x7A35AAA9 EQ PUSH2 0x38D JUMPI DUP1 PUSH4 0x80A43D70 EQ PUSH2 0x3AD JUMPI DUP1 PUSH4 0x8456CB59 EQ PUSH2 0x3DA JUMPI PUSH1 0x0 DUP1 REVERT JUMPDEST DUP1 PUSH4 0x418F4400 GT PUSH2 0x1ED JUMPI DUP1 PUSH4 0x418F4400 EQ PUSH2 0x2C0 JUMPI DUP1 PUSH4 0x54FD4D50 EQ PUSH2 0x2F8 JUMPI DUP1 PUSH4 0x5C975ABB EQ PUSH2 0x31A JUMPI DUP1 PUSH4 0x6247F6F2 EQ PUSH2 0x334 JUMPI DUP1 PUSH4 0x715018A6 EQ PUSH2 0x354 JUMPI PUSH1 0x0 DUP1 REVERT JUMPDEST DUP1 PUSH4 0x2615536 EQ PUSH2 0x243 JUMPI DUP1 PUSH4 0x270530CA EQ PUSH2 0x263 JUMPI DUP1 PUSH4 0x37B8F29D EQ PUSH2 0x298 JUMPI DUP1 PUSH4 0x3F4BA83A EQ PUSH2 0x2AB JUMPI PUSH1 0x0 DUP1 REVERT JUMPDEST CALLDATASIZE PUSH2 0x23E JUMPI PUSH1 0x40 MLOAD PUSH4 0x1574F9F3 PUSH1 0xE0 SHL DUP2 MSTORE PUSH1 0x4 ADD PUSH1 0x40 MLOAD DUP1 SWAP2 SUB SWAP1 REVERT JUMPDEST STOP JUMPDEST PUSH1 0x0 DUP1 REVERT JUMPDEST CALLVALUE DUP1 ISZERO PUSH2 0x24F JUMPI PUSH1 0x0 DUP1 REVERT JUMPDEST POP PUSH2 0x23C PUSH2 0x25E CALLDATASIZE PUSH1 0x4 PUSH2 0x4016 JUMP JUMPDEST PUSH2 0x69D JUMP JUMPDEST CALLVALUE DUP1 ISZERO PUSH2 0x26F JUMPI PUSH1 0x0 DUP1 REVERT JUMPDEST POP PUSH2 0x283 PUSH2 0x27E CALLDATASIZE PUSH1 0x4 PUSH2 0x4114 JUMP JUMPDEST PUSH2 0x6BF JUMP JUMPDEST PUSH1 0x40 MLOAD SWAP1 ISZERO ISZERO DUP2 MSTORE PUSH1 0x20 ADD JUMPDEST PUSH1 0x40 MLOAD DUP1 SWAP2 SUB SWAP1 RETURN JUMPDEST PUSH2 0x23C PUSH2 0x2A6 CALLDATASIZE PUSH1 0x4 PUSH2 0x42DC JUMP JUMPDEST PUSH2 0x6D4 JUMP JUMPDEST CALLVALUE DUP1 ISZERO PUSH2 0x2B7 JUMPI PUSH1 0x0 DUP1 REVERT JUMPDEST POP PUSH2 0x23C PUSH2 0x7A5 JUMP JUMPDEST CALLVALUE DUP1 ISZERO PUSH2 0x2CC JUMPI PUSH1 0x0 DUP1 REVERT JUMPDEST POP PUSH1 0x2 SLOAD PUSH2 0x2E0 SWAP1 PUSH1 0x1 PUSH1 0x1 PUSH1 0xA0 SHL SUB AND DUP2 JUMP JUMPDEST PUSH1 0x40 MLOAD PUSH1 0x1 PUSH1 0x1 PUSH1 0xA0 SHL SUB SWAP1 SWAP2 AND DUP2 MSTORE PUSH1 0x20 ADD PUSH2 0x28F JUMP JUMPDEST CALLVALUE DUP1 ISZERO PUSH2 0x304 JUMPI PUSH1 0x0 DUP1 REVERT JUMPDEST POP PUSH2 0x30D PUSH2 0x7B9 JUMP JUMPDEST PUSH1 0x40 MLOAD PUSH2 0x28F SWAP2 SWAP1 PUSH2 0x4473 JUMP JUMPDEST CALLVALUE DUP1 ISZERO PUSH2 0x326 JUMPI PUSH1 0x0 DUP1 REVERT JUMPDEST POP PUSH1 0x9 SLOAD PUSH2 0x283 SWAP1 PUSH1 0xFF AND DUP2 JUMP JUMPDEST CALLVALUE DUP1 ISZERO PUSH2 0x340 JUMPI PUSH1 0x0 DUP1 REVERT JUMPDEST POP PUSH2 0x23C PUSH2 0x34F CALLDATASIZE PUSH1 0x4 PUSH2 0x4486 JUMP JUMPDEST PUSH2 0x85C JUMP JUMPDEST CALLVALUE DUP1 ISZERO PUSH2 0x360 JUMPI PUSH1 0x0 DUP1 REVERT JUMPDEST POP PUSH2 0x23C PUSH2 0x90C JUMP JUMPDEST CALLVALUE DUP1 ISZERO PUSH2 0x375 JUMPI PUSH1 0x0 DUP1 REVERT JUMPDEST POP PUSH2 0x37F PUSH1 0x5 SLOAD DUP2 JUMP JUMPDEST PUSH1 0x40 MLOAD SWAP1 DUP2 MSTORE PUSH1 0x20 ADD PUSH2 0x28F JUMP JUMPDEST CALLVALUE DUP1 ISZERO PUSH2 0x399 JUMPI PUSH1 0x0 DUP1 REVERT JUMPDEST POP PUSH2 0x23C PUSH2 0x3A8 CALLDATASIZE PUSH1 0x4 PUSH2 0x4486 JUMP JUMPDEST PUSH2 0x920 JUMP JUMPDEST CALLVALUE DUP1 ISZERO PUSH2 0x3B9 JUMPI PUSH1 0x0 DUP1 REVERT JUMPDEST POP PUSH2 0x3CD PUSH2 0x3C8 CALLDATASIZE PUSH1 0x4 PUSH2 0x44A1 JUMP JUMPDEST PUSH2 0x94A JUMP JUMPDEST PUSH1 0x40 MLOAD PUSH2 0x28F SWAP2 SWAP1 PUSH2 0x4588 JUMP JUMPDEST CALLVALUE DUP1 ISZERO PUSH2 0x3E6 JUMPI PUSH1 0x0 DUP1 REVERT JUMPDEST POP PUSH2 0x23C PUSH2 0xC14 JUMP JUMPDEST CALLVALUE DUP1 ISZERO PUSH2 0x3FB JUMPI PUSH1 0x0 DUP1 REVERT JUMPDEST POP PUSH2 0x40F PUSH2 0x40A CALLDATASIZE PUSH1 0x4 PUSH2 0x44A1 JUMP JUMPDEST PUSH2 0xC4E JUMP JUMPDEST PUSH1 0x40 MLOAD PUSH2 0x28F SWAP2 SWAP1 PUSH2 0x4750 JUMP JUMPDEST PUSH2 0x283 PUSH2 0x42A CALLDATASIZE PUSH1 0x4 PUSH2 0x4910 JUMP JUMPDEST PUSH2 0x11EB JUMP JUMPDEST CALLVALUE DUP1 ISZERO PUSH2 0x43B JUMPI PUSH1 0x0 DUP1 REVERT JUMPDEST POP PUSH1 0x0 SLOAD PUSH1 0x1 PUSH1 0x1 PUSH1 0xA0 SHL SUB AND PUSH2 0x2E0 JUMP JUMPDEST CALLVALUE DUP1 ISZERO PUSH2 0x459 JUMPI PUSH1 0x0 DUP1 REVERT JUMPDEST POP PUSH2 0x37F PUSH1 0x4 SLOAD DUP2 JUMP JUMPDEST PUSH2 0x283 PUSH2 0x471 CALLDATASIZE PUSH1 0x4 PUSH2 0x4910 JUMP JUMPDEST PUSH2 0x12BA JUMP JUMPDEST CALLVALUE DUP1 ISZERO PUSH2 0x482 JUMPI PUSH1 0x0 DUP1 REVERT JUMPDEST POP PUSH2 0x30D PUSH2 0x1379 JUMP JUMPDEST CALLVALUE DUP1 ISZERO PUSH2 0x497 JUMPI PUSH1 0x0 DUP1 REVERT JUMPDEST POP PUSH2 0x23C PUSH2 0x4A6 CALLDATASIZE PUSH1 0x4 PUSH2 0x497B JUMP JUMPDEST PUSH2 0x1407 JUMP JUMPDEST CALLVALUE DUP1 ISZERO PUSH2 0x4B7 JUMPI PUSH1 0x0 DUP1 REVERT JUMPDEST POP PUSH2 0x3CD PUSH2 0x4C6 CALLDATASIZE PUSH1 0x4 PUSH2 0x44A1 JUMP JUMPDEST PUSH2 0x1414 JUMP JUMPDEST CALLVALUE DUP1 ISZERO PUSH2 0x4D7 JUMPI PUSH1 0x0 DUP1 REVERT JUMPDEST POP PUSH2 0x283 PUSH2 0x4E6 CALLDATASIZE PUSH1 0x4 PUSH2 0x4486 JUMP JUMPDEST PUSH2 0x1704 JUMP JUMPDEST CALLVALUE DUP1 ISZERO PUSH2 0x4F7 JUMPI PUSH1 0x0 DUP1 REVERT JUMPDEST POP PUSH2 0x23C PUSH2 0x506 CALLDATASIZE PUSH1 0x4 PUSH2 0x49FD JUMP JUMPDEST PUSH2 0x176D JUMP JUMPDEST CALLVALUE DUP1 ISZERO PUSH2 0x517 JUMPI PUSH1 0x0 DUP1 REVERT JUMPDEST POP PUSH2 0x23C PUSH2 0x526 CALLDATASIZE PUSH1 0x4 PUSH2 0x497B JUMP JUMPDEST PUSH2 0x1B04 JUMP JUMPDEST CALLVALUE DUP1 ISZERO PUSH2 0x537 JUMPI PUSH1 0x0 DUP1 REVERT JUMPDEST POP PUSH1 0x1 SLOAD PUSH2 0x2E0 SWAP1 PUSH1 0x1 PUSH1 0x1 PUSH1 0xA0 SHL SUB AND DUP2 JUMP JUMPDEST CALLVALUE DUP1 ISZERO PUSH2 0x557 JUMPI PUSH1 0x0 DUP1 REVERT JUMPDEST POP PUSH2 0x23C PUSH2 0x566 CALLDATASIZE PUSH1 0x4 PUSH2 0x44A1 JUMP JUMPDEST PUSH2 0x1B11 JUMP JUMPDEST CALLVALUE DUP1 ISZERO PUSH2 0x577 JUMPI PUSH1 0x0 DUP1 REVERT JUMPDEST POP PUSH2 0x580 PUSH2 0x1D02 JUMP JUMPDEST PUSH1 0x40 MLOAD PUSH2 0x28F SWAP2 SWAP1 PUSH2 0x4B17 JUMP JUMPDEST CALLVALUE DUP1 ISZERO PUSH2 0x599 JUMPI PUSH1 0x0 DUP1 REVERT JUMPDEST POP PUSH2 0x23C PUSH2 0x5A8 CALLDATASIZE PUSH1 0x4 PUSH2 0x4486 JUMP JUMPDEST PUSH2 0x1DDB JUMP JUMPDEST CALLVALUE DUP1 ISZERO PUSH2 0x5B9 JUMPI PUSH1 0x0 DUP1 REVERT JUMPDEST POP PUSH1 0x0 PUSH2 0x283 JUMP JUMPDEST CALLVALUE DUP1 ISZERO PUSH2 0x5CD JUMPI PUSH1 0x0 DUP1 REVERT JUMPDEST POP PUSH2 0x23C PUSH2 0x5DC CALLDATASIZE PUSH1 0x4 PUSH2 0x4486 JUMP JUMPDEST PUSH2 0x1E05 JUMP JUMPDEST CALLVALUE DUP1 ISZERO PUSH2 0x5ED JUMPI PUSH1 0x0 DUP1 REVERT JUMPDEST POP PUSH2 0x580 PUSH2 0x1F66 JUMP JUMPDEST CALLVALUE DUP1 ISZERO PUSH2 0x602 JUMPI PUSH1 0x0 DUP1 REVERT JUMPDEST POP PUSH2 0x60B PUSH2 0x2036 JUMP JUMPDEST PUSH1 0x40 MLOAD PUSH2 0x28F SWAP2 SWAP1 PUSH2 0x4B2A JUMP JUMPDEST PUSH2 0x283 PUSH2 0x626 CALLDATASIZE PUSH1 0x4 PUSH2 0x4B3D JUMP JUMPDEST PUSH2 0x2098 JUMP JUMPDEST PUSH2 0x283 PUSH2 0x639 CALLDATASIZE PUSH1 0x4 PUSH2 0x4B3D JUMP JUMPDEST PUSH2 0x20AD JUMP JUMPDEST CALLVALUE DUP1 ISZERO PUSH2 0x64A JUMPI PUSH1 0x0 DUP1 REVERT JUMPDEST POP PUSH2 0x23C PUSH2 0x659 CALLDATASIZE PUSH1 0x4 PUSH2 0x4B78 JUMP JUMPDEST PUSH2 0x20C1 JUMP JUMPDEST CALLVALUE DUP1 ISZERO PUSH2 0x66A JUMPI PUSH1 0x0 DUP1 REVERT JUMPDEST POP PUSH1 0x9 SLOAD PUSH2 0x283 SWAP1 PUSH2 0x100 SWAP1 DIV PUSH1 0xFF AND DUP2 JUMP JUMPDEST CALLVALUE DUP1 ISZERO PUSH2 0x689 JUMPI PUSH1 0x0 DUP1 REVERT JUMPDEST POP PUSH2 0x23C PUSH2 0x698 CALLDATASIZE PUSH1 0x4 PUSH2 0x4486 JUMP JUMPDEST PUSH2 0x2102 JUMP JUMPDEST PUSH2 0x6A5 PUSH2 0x217B JUMP JUMPDEST PUSH1 0x9 DUP1 SLOAD SWAP2 ISZERO ISZERO PUSH2 0x100 MUL PUSH2 0xFF00 NOT SWAP1 SWAP3 AND SWAP2 SWAP1 SWAP2 OR SWAP1 SSTORE JUMP JUMPDEST PUSH1 0x0 PUSH2 0x6CB DUP4 DUP4 PUSH2 0x21D5 JUMP JUMPDEST SWAP1 POP JUMPDEST SWAP3 SWAP2 POP POP JUMP JUMPDEST PUSH1 0x9 SLOAD PUSH1 0xFF AND ISZERO PUSH2 0x700 JUMPI PUSH1 0x40 MLOAD PUSH3 0x461BCD PUSH1 0xE5 SHL DUP2 MSTORE PUSH1 0x4 ADD PUSH2 0x6F7 SWAP1 PUSH2 0x4C92 JUMP JUMPDEST PUSH1 0x40 MLOAD DUP1 SWAP2 SUB SWAP1 REVERT JUMPDEST PUSH1 0x0 DUP5 GT PUSH2 0x785 JUMPI PUSH1 0x40 MLOAD PUSH3 0x461BCD PUSH1 0xE5 SHL DUP2 MSTORE PUSH1 0x20 PUSH1 0x4 DUP3 ADD MSTORE PUSH1 0x46 PUSH1 0x24 DUP3 ADD MSTORE PUSH32 0x4465726573793A205265776172642070657220726576696577206D7573742062 PUSH1 0x44 DUP3 ADD MSTORE PUSH32 0x652067726561746572207468616E207A65726F20666F72207061796564207265 PUSH1 0x64 DUP3 ADD MSTORE PUSH6 0x717565737473 PUSH1 0xD0 SHL PUSH1 0x84 DUP3 ADD MSTORE PUSH1 0xA4 ADD PUSH2 0x6F7 JUMP JUMPDEST PUSH2 0x799 DUP11 DUP11 DUP11 DUP11 DUP11 DUP11 DUP11 DUP11 DUP10 DUP12 PUSH1 0x1 PUSH2 0x2388 JUMP JUMPDEST POP POP POP POP POP POP POP POP POP POP JUMP JUMPDEST PUSH2 0x7AD PUSH2 0x217B JUMP JUMPDEST PUSH1 0x9 DUP1 SLOAD PUSH1 0xFF NOT AND SWAP1 SSTORE JUMP JUMPDEST PUSH1 0x60 PUSH2 0x7E4 PUSH32 0x0 PUSH2 0x2D68 JUMP JUMPDEST PUSH2 0x80D PUSH32 0x0 PUSH2 0x2D68 JUMP JUMPDEST PUSH2 0x836 PUSH32 0x0 PUSH2 0x2D68 JUMP JUMPDEST PUSH1 0x40 MLOAD PUSH1 0x20 ADD PUSH2 0x848 SWAP4 SWAP3 SWAP2 SWAP1 PUSH2 0x4CBE JUMP JUMPDEST PUSH1 0x40 MLOAD PUSH1 0x20 DUP2 DUP4 SUB SUB DUP2 MSTORE SWAP1 PUSH1 0x40 MSTORE SWAP1 POP SWAP1 JUMP JUMPDEST PUSH2 0x864 PUSH2 0x217B JUMP JUMPDEST PUSH2 0x86D DUP2 PUSH2 0x1704 JUMP JUMPDEST ISZERO PUSH2 0x8BA JUMPI PUSH1 0x40 MLOAD PUSH3 0x461BCD PUSH1 0xE5 SHL DUP2 MSTORE PUSH1 0x20 PUSH1 0x4 DUP3 ADD MSTORE PUSH1 0x19 PUSH1 0x24 DUP3 ADD MSTORE PUSH32 0x546F6B656E20616C72656164792077686974656C697374656400000000000000 PUSH1 0x44 DUP3 ADD MSTORE PUSH1 0x64 ADD PUSH2 0x6F7 JUMP JUMPDEST PUSH1 0x6 DUP1 SLOAD PUSH1 0x1 DUP2 ADD DUP3 SSTORE PUSH1 0x0 SWAP2 SWAP1 SWAP2 MSTORE PUSH32 0xF652222313E28459528D920B65115C16C04F3EFC82AAEDC97BE59F3F377C0D3F ADD DUP1 SLOAD PUSH1 0x1 PUSH1 0x1 PUSH1 0xA0 SHL SUB NOT AND PUSH1 0x1 PUSH1 0x1 PUSH1 0xA0 SHL SUB SWAP3 SWAP1 SWAP3 AND SWAP2 SWAP1 SWAP2 OR SWAP1 SSTORE JUMP JUMPDEST PUSH2 0x914 PUSH2 0x217B JUMP JUMPDEST PUSH2 0x91E PUSH1 0x0 PUSH2 0x2DFA JUMP JUMPDEST JUMP JUMPDEST PUSH2 0x928 PUSH2 0x217B JUMP JUMPDEST PUSH1 0x1 DUP1 SLOAD PUSH1 0x1 PUSH1 0x1 PUSH1 0xA0 SHL SUB NOT AND PUSH1 0x1 PUSH1 0x1 PUSH1 0xA0 SHL SUB SWAP3 SWAP1 SWAP3 AND SWAP2 SWAP1 SWAP2 OR SWAP1 SSTORE JUMP JUMPDEST PUSH2 0x96E PUSH1 0x40 MLOAD DUP1 PUSH1 0x60 ADD PUSH1 0x40 MSTORE DUP1 PUSH1 0x60 DUP2 MSTORE PUSH1 0x20 ADD PUSH1 0x60 DUP2 MSTORE PUSH1 0x20 ADD PUSH1 0x60 DUP2 MSTORE POP SWAP1 JUMP JUMPDEST PUSH1 0xA DUP3 PUSH1 0x40 MLOAD PUSH2 0x97E SWAP2 SWAP1 PUSH2 0x4D18 JUMP JUMPDEST SWAP1 DUP2 MSTORE PUSH1 0x40 DUP1 MLOAD SWAP2 DUP3 SWAP1 SUB PUSH1 0x20 SWAP1 DUP2 ADD DUP4 KECCAK256 DUP1 SLOAD PUSH1 0x80 SWAP3 DUP2 MUL DUP6 ADD DUP4 ADD SWAP1 SWAP4 MSTORE PUSH1 0x60 DUP5 ADD DUP4 DUP2 MSTORE SWAP1 SWAP3 DUP5 SWAP3 DUP5 SWAP2 SWAP1 PUSH1 0x0 SWAP1 DUP6 ADD JUMPDEST DUP3 DUP3 LT ISZERO PUSH2 0xA5E JUMPI DUP4 DUP3 SWAP1 PUSH1 0x0 MSTORE PUSH1 0x20 PUSH1 0x0 KECCAK256 ADD DUP1 SLOAD PUSH2 0x9D1 SWAP1 PUSH2 0x4D34 JUMP JUMPDEST DUP1 PUSH1 0x1F ADD PUSH1 0x20 DUP1 SWAP2 DIV MUL PUSH1 0x20 ADD PUSH1 0x40 MLOAD SWAP1 DUP2 ADD PUSH1 0x40 MSTORE DUP1 SWAP3 SWAP2 SWAP1 DUP2 DUP2 MSTORE PUSH1 0x20 ADD DUP3 DUP1 SLOAD PUSH2 0x9FD SWAP1 PUSH2 0x4D34 JUMP JUMPDEST DUP1 ISZERO PUSH2 0xA4A JUMPI DUP1 PUSH1 0x1F LT PUSH2 0xA1F JUMPI PUSH2 0x100 DUP1 DUP4 SLOAD DIV MUL DUP4 MSTORE SWAP2 PUSH1 0x20 ADD SWAP2 PUSH2 0xA4A JUMP JUMPDEST DUP3 ADD SWAP2 SWAP1 PUSH1 0x0 MSTORE PUSH1 0x20 PUSH1 0x0 KECCAK256 SWAP1 JUMPDEST DUP2 SLOAD DUP2 MSTORE SWAP1 PUSH1 0x1 ADD SWAP1 PUSH1 0x20 ADD DUP1 DUP4 GT PUSH2 0xA2D JUMPI DUP3 SWAP1 SUB PUSH1 0x1F AND DUP3 ADD SWAP2 JUMPDEST POP POP POP POP POP DUP2 MSTORE PUSH1 0x20 ADD SWAP1 PUSH1 0x1 ADD SWAP1 PUSH2 0x9B2 JUMP JUMPDEST POP POP POP POP DUP2 MSTORE PUSH1 0x20 ADD PUSH1 0x1 DUP3 ADD DUP1 SLOAD DUP1 PUSH1 0x20 MUL PUSH1 0x20 ADD PUSH1 0x40 MLOAD SWAP1 DUP2 ADD PUSH1 0x40 MSTORE DUP1 SWAP3 SWAP2 SWAP1 DUP2 DUP2 MSTORE PUSH1 0x20 ADD DUP3 DUP1 SLOAD DUP1 ISZERO PUSH2 0xAE5 JUMPI PUSH1 0x20 MUL DUP3 ADD SWAP2 SWAP1 PUSH1 0x0 MSTORE PUSH1 0x20 PUSH1 0x0 KECCAK256 SWAP1 PUSH1 0x0 SWAP1 JUMPDEST DUP3 DUP3 SWAP1 SLOAD SWAP1 PUSH2 0x100 EXP SWAP1 DIV PUSH1 0xFF AND PUSH1 0x2 DUP2 GT ISZERO PUSH2 0xAC3 JUMPI PUSH2 0xAC3 PUSH2 0x452A JUMP JUMPDEST DUP2 MSTORE PUSH1 0x20 PUSH1 0x1 SWAP3 DUP4 ADD DUP2 DUP2 DIV SWAP5 DUP6 ADD SWAP5 SWAP1 SWAP4 SUB SWAP1 SWAP3 MUL SWAP2 ADD DUP1 DUP5 GT PUSH2 0xAA4 JUMPI SWAP1 POP JUMPDEST POP POP POP POP POP DUP2 MSTORE PUSH1 0x20 ADD PUSH1 0x2 DUP3 ADD DUP1 SLOAD DUP1 PUSH1 0x20 MUL PUSH1 0x20 ADD PUSH1 0x40 MLOAD SWAP1 DUP2 ADD PUSH1 0x40 MSTORE DUP1 SWAP3 SWAP2 SWAP1 DUP2 DUP2 MSTORE PUSH1 0x20 ADD PUSH1 0x0 SWAP1 JUMPDEST DUP3 DUP3 LT ISZERO PUSH2 0xC06 JUMPI DUP4 DUP3 SWAP1 PUSH1 0x0 MSTORE PUSH1 0x20 PUSH1 0x0 KECCAK256 ADD DUP1 SLOAD DUP1 PUSH1 0x20 MUL PUSH1 0x20 ADD PUSH1 0x40 MLOAD SWAP1 DUP2 ADD PUSH1 0x40 MSTORE DUP1 SWAP3 SWAP2 SWAP1 DUP2 DUP2 MSTORE PUSH1 0x20 ADD PUSH1 0x0 SWAP1 JUMPDEST DUP3 DUP3 LT ISZERO PUSH2 0xBF3 JUMPI DUP4 DUP3 SWAP1 PUSH1 0x0 MSTORE PUSH1 0x20 PUSH1 0x0 KECCAK256 ADD DUP1 SLOAD PUSH2 0xB66 SWAP1 PUSH2 0x4D34 JUMP JUMPDEST DUP1 PUSH1 0x1F ADD PUSH1 0x20 DUP1 SWAP2 DIV MUL PUSH1 0x20 ADD PUSH1 0x40 MLOAD SWAP1 DUP2 ADD PUSH1 0x40 MSTORE DUP1 SWAP3 SWAP2 SWAP1 DUP2 DUP2 MSTORE PUSH1 0x20 ADD DUP3 DUP1 SLOAD PUSH2 0xB92 SWAP1 PUSH2 0x4D34 JUMP JUMPDEST DUP1 ISZERO PUSH2 0xBDF JUMPI DUP1 PUSH1 0x1F LT PUSH2 0xBB4 JUMPI PUSH2 0x100 DUP1 DUP4 SLOAD DIV MUL DUP4 MSTORE SWAP2 PUSH1 0x20 ADD SWAP2 PUSH2 0xBDF JUMP JUMPDEST DUP3 ADD SWAP2 SWAP1 PUSH1 0x0 MSTORE PUSH1 0x20 PUSH1 0x0 KECCAK256 SWAP1 JUMPDEST DUP2 SLOAD DUP2 MSTORE SWAP1 PUSH1 0x1 ADD SWAP1 PUSH1 0x20 ADD DUP1 DUP4 GT PUSH2 0xBC2 JUMPI DUP3 SWAP1 SUB PUSH1 0x1F AND DUP3 ADD SWAP2 JUMPDEST POP POP POP POP POP DUP2 MSTORE PUSH1 0x20 ADD SWAP1 PUSH1 0x1 ADD SWAP1 PUSH2 0xB47 JUMP JUMPDEST POP POP POP POP DUP2 MSTORE PUSH1 0x20 ADD SWAP1 PUSH1 0x1 ADD SWAP1 PUSH2 0xB13 JUMP JUMPDEST POP POP POP SWAP2 MSTORE POP SWAP1 SWAP4 SWAP3 POP POP POP JUMP JUMPDEST PUSH2 0xC1C PUSH2 0x217B JUMP JUMPDEST PUSH1 0x9 SLOAD PUSH1 0xFF AND ISZERO PUSH2 0xC3F JUMPI PUSH1 0x40 MLOAD PUSH3 0x461BCD PUSH1 0xE5 SHL DUP2 MSTORE PUSH1 0x4 ADD PUSH2 0x6F7 SWAP1 PUSH2 0x4C92 JUMP JUMPDEST PUSH1 0x9 DUP1 SLOAD PUSH1 0xFF NOT AND PUSH1 0x1 OR SWAP1 SSTORE JUMP JUMPDEST PUSH2 0xCD7 PUSH1 0x40 MLOAD DUP1 PUSH2 0x1C0 ADD PUSH1 0x40 MSTORE DUP1 PUSH1 0x0 PUSH1 0x1 PUSH1 0x1 PUSH1 0xA0 SHL SUB AND DUP2 MSTORE PUSH1 0x20 ADD PUSH1 0x60 DUP2 MSTORE PUSH1 0x20 ADD PUSH1 0x60 DUP2 MSTORE PUSH1 0x20 ADD PUSH1 0x60 DUP2 MSTORE PUSH1 0x20 ADD PUSH1 0x60 DUP2 MSTORE PUSH1 0x20 ADD PUSH1 0x60 DUP2 MSTORE PUSH1 0x20 ADD PUSH1 0x0 DUP2 MSTORE PUSH1 0x20 ADD PUSH1 0x0 PUSH1 0xFF AND DUP2 MSTORE PUSH1 0x20 ADD PUSH1 0x60 DUP2 MSTORE PUSH1 0x20 ADD PUSH1 0x0 ISZERO ISZERO DUP2 MSTORE PUSH1 0x20 ADD PUSH1 0x0 PUSH1 0x1 PUSH1 0x1 PUSH1 0xA0 SHL SUB AND DUP2 MSTORE PUSH1 0x20 ADD PUSH1 0x0 DUP2 MSTORE PUSH1 0x20 ADD PUSH1 0x60 DUP2 MSTORE PUSH1 0x20 ADD PUSH1 0x60 DUP2 MSTORE POP SWAP1 JUMP JUMPDEST PUSH1 0x3 DUP3 PUSH1 0x40 MLOAD PUSH2 0xCE7 SWAP2 SWAP1 PUSH2 0x4D18 JUMP JUMPDEST SWAP1 DUP2 MSTORE PUSH1 0x40 DUP1 MLOAD SWAP2 DUP3 SWAP1 SUB PUSH1 0x20 SWAP1 DUP2 ADD DUP4 KECCAK256 PUSH2 0x1C0 DUP5 ADD DUP4 MSTORE DUP1 SLOAD PUSH1 0x1 PUSH1 0x1 PUSH1 0xA0 SHL SUB AND DUP5 MSTORE PUSH1 0x1 DUP2 ADD DUP1 SLOAD DUP5 MLOAD DUP2 DUP6 MUL DUP2 ADD DUP6 ADD SWAP1 SWAP6 MSTORE DUP1 DUP6 MSTORE SWAP2 SWAP4 DUP6 DUP5 ADD SWAP4 SWAP1 SWAP3 SWAP1 DUP4 ADD DUP3 DUP3 DUP1 ISZERO PUSH2 0xD64 JUMPI PUSH1 0x20 MUL DUP3 ADD SWAP2 SWAP1 PUSH1 0x0 MSTORE PUSH1 0x20 PUSH1 0x0 KECCAK256 SWAP1 JUMPDEST DUP2 SLOAD PUSH1 0x1 PUSH1 0x1 PUSH1 0xA0 SHL SUB AND DUP2 MSTORE PUSH1 0x1 SWAP1 SWAP2 ADD SWAP1 PUSH1 0x20 ADD DUP1 DUP4 GT PUSH2 0xD46 JUMPI JUMPDEST POP POP POP POP POP DUP2 MSTORE PUSH1 0x20 ADD PUSH1 0x2 DUP3 ADD DUP1 SLOAD DUP1 PUSH1 0x20 MUL PUSH1 0x20 ADD PUSH1 0x40 MLOAD SWAP1 DUP2 ADD PUSH1 0x40 MSTORE DUP1 SWAP3 SWAP2 SWAP1 DUP2 DUP2 MSTORE PUSH1 0x20 ADD DUP3 DUP1 SLOAD DUP1 ISZERO PUSH2 0xDC6 JUMPI PUSH1 0x20 MUL DUP3 ADD SWAP2 SWAP1 PUSH1 0x0 MSTORE PUSH1 0x20 PUSH1 0x0 KECCAK256 SWAP1 JUMPDEST DUP2 SLOAD PUSH1 0x1 PUSH1 0x1 PUSH1 0xA0 SHL SUB AND DUP2 MSTORE PUSH1 0x1 SWAP1 SWAP2 ADD SWAP1 PUSH1 0x20 ADD DUP1 DUP4 GT PUSH2 0xDA8 JUMPI JUMPDEST POP POP POP POP POP DUP2 MSTORE PUSH1 0x20 ADD PUSH1 0x3 DUP3 ADD DUP1 SLOAD DUP1 PUSH1 0x20 MUL PUSH1 0x20 ADD PUSH1 0x40 MLOAD SWAP1 DUP2 ADD PUSH1 0x40 MSTORE DUP1 SWAP3 SWAP2 SWAP1 DUP2 DUP2 MSTORE PUSH1 0x20 ADD DUP3 DUP1 SLOAD DUP1 ISZERO PUSH2 0xE1E JUMPI PUSH1 0x20 MUL DUP3 ADD SWAP2 SWAP1 PUSH1 0x0 MSTORE PUSH1 0x20 PUSH1 0x0 KECCAK256 SWAP1 JUMPDEST DUP2 SLOAD DUP2 MSTORE PUSH1 0x20 ADD SWAP1 PUSH1 0x1 ADD SWAP1 DUP1 DUP4 GT PUSH2 0xE0A JUMPI JUMPDEST POP POP POP POP POP DUP2 MSTORE PUSH1 0x20 ADD PUSH1 0x4 DUP3 ADD DUP1 SLOAD DUP1 PUSH1 0x20 MUL PUSH1 0x20 ADD PUSH1 0x40 MLOAD SWAP1 DUP2 ADD PUSH1 0x40 MSTORE DUP1 SWAP3 SWAP2 SWAP1 DUP2 DUP2 MSTORE PUSH1 0x20 ADD PUSH1 0x0 SWAP1 JUMPDEST DUP3 DUP3 LT ISZERO PUSH2 0xEF8 JUMPI DUP4 DUP3 SWAP1 PUSH1 0x0 MSTORE PUSH1 0x20 PUSH1 0x0 KECCAK256 ADD DUP1 SLOAD PUSH2 0xE6B SWAP1 PUSH2 0x4D34 JUMP JUMPDEST DUP1 PUSH1 0x1F ADD PUSH1 0x20 DUP1 SWAP2 DIV MUL PUSH1 0x20 ADD PUSH1 0x40 MLOAD SWAP1 DUP2 ADD PUSH1 0x40 MSTORE DUP1 SWAP3 SWAP2 SWAP1 DUP2 DUP2 MSTORE PUSH1 0x20 ADD DUP3 DUP1 SLOAD PUSH2 0xE97 SWAP1 PUSH2 0x4D34 JUMP JUMPDEST DUP1 ISZERO PUSH2 0xEE4 JUMPI DUP1 PUSH1 0x1F LT PUSH2 0xEB9 JUMPI PUSH2 0x100 DUP1 DUP4 SLOAD DIV MUL DUP4 MSTORE SWAP2 PUSH1 0x20 ADD SWAP2 PUSH2 0xEE4 JUMP JUMPDEST DUP3 ADD SWAP2 SWAP1 PUSH1 0x0 MSTORE PUSH1 0x20 PUSH1 0x0 KECCAK256 SWAP1 JUMPDEST DUP2 SLOAD DUP2 MSTORE SWAP1 PUSH1 0x1 ADD SWAP1 PUSH1 0x20 ADD DUP1 DUP4 GT PUSH2 0xEC7 JUMPI DUP3 SWAP1 SUB PUSH1 0x1F AND DUP3 ADD SWAP2 JUMPDEST POP POP POP POP POP DUP2 MSTORE PUSH1 0x20 ADD SWAP1 PUSH1 0x1 ADD SWAP1 PUSH2 0xE4C JUMP JUMPDEST POP POP POP POP DUP2 MSTORE PUSH1 0x20 ADD PUSH1 0x5 DUP3 ADD DUP1 SLOAD PUSH2 0xF10 SWAP1 PUSH2 0x4D34 JUMP JUMPDEST DUP1 PUSH1 0x1F ADD PUSH1 0x20 DUP1 SWAP2 DIV MUL PUSH1 0x20 ADD PUSH1 0x40 MLOAD SWAP1 DUP2 ADD PUSH1 0x40 MSTORE DUP1 SWAP3 SWAP2 SWAP1 DUP2 DUP2 MSTORE PUSH1 0x20 ADD DUP3 DUP1 SLOAD PUSH2 0xF3C SWAP1 PUSH2 0x4D34 JUMP JUMPDEST DUP1 ISZERO PUSH2 0xF89 JUMPI DUP1 PUSH1 0x1F LT PUSH2 0xF5E JUMPI PUSH2 0x100 DUP1 DUP4 SLOAD DIV MUL DUP4 MSTORE SWAP2 PUSH1 0x20 ADD SWAP2 PUSH2 0xF89 JUMP JUMPDEST DUP3 ADD SWAP2 SWAP1 PUSH1 0x0 MSTORE PUSH1 0x20 PUSH1 0x0 KECCAK256 SWAP1 JUMPDEST DUP2 SLOAD DUP2 MSTORE SWAP1 PUSH1 0x1 ADD SWAP1 PUSH1 0x20 ADD DUP1 DUP4 GT PUSH2 0xF6C JUMPI DUP3 SWAP1 SUB PUSH1 0x1F AND DUP3 ADD SWAP2 JUMPDEST POP POP POP POP POP DUP2 MSTORE PUSH1 0x20 ADD PUSH1 0x6 DUP3 ADD SLOAD DUP2 MSTORE PUSH1 0x20 ADD PUSH1 0x7 DUP3 ADD PUSH1 0x0 SWAP1 SLOAD SWAP1 PUSH2 0x100 EXP SWAP1 DIV PUSH1 0xFF AND PUSH1 0xFF AND PUSH1 0xFF AND DUP2 MSTORE PUSH1 0x20 ADD PUSH1 0x8 DUP3 ADD DUP1 SLOAD DUP1 PUSH1 0x20 MUL PUSH1 0x20 ADD PUSH1 0x40 MLOAD SWAP1 DUP2 ADD PUSH1 0x40 MSTORE DUP1 SWAP3 SWAP2 SWAP1 DUP2 DUP2 MSTORE PUSH1 0x20 ADD PUSH1 0x0 SWAP1 JUMPDEST DUP3 DUP3 LT ISZERO PUSH2 0x1087 JUMPI PUSH1 0x0 DUP5 DUP2 MSTORE PUSH1 0x20 SWAP1 DUP2 SWAP1 KECCAK256 PUSH1 0x40 DUP1 MLOAD PUSH1 0x80 DUP2 ADD DUP3 MSTORE PUSH1 0x4 DUP7 MUL SWAP1 SWAP3 ADD DUP1 SLOAD PUSH1 0x1 PUSH1 0x1 PUSH1 0xA0 SHL SUB AND DUP4 MSTORE PUSH1 0x1 DUP2 ADD SLOAD DUP4 DUP6 ADD MSTORE PUSH1 0x2 DUP2 ADD SLOAD DUP4 DUP4 ADD MSTORE PUSH1 0x3 DUP2 ADD DUP1 SLOAD DUP4 MLOAD DUP2 DUP8 MUL DUP2 ADD DUP8 ADD SWAP1 SWAP5 MSTORE DUP1 DUP5 MSTORE SWAP4 SWAP5 SWAP2 SWAP4 PUSH1 0x60 DUP7 ADD SWAP4 SWAP3 DUP4 ADD DUP3 DUP3 DUP1 ISZERO PUSH2 0x106F JUMPI PUSH1 0x20 MUL DUP3 ADD SWAP2 SWAP1 PUSH1 0x0 MSTORE PUSH1 0x20 PUSH1 0x0 KECCAK256 SWAP1 JUMPDEST DUP2 SLOAD DUP2 MSTORE PUSH1 0x20 ADD SWAP1 PUSH1 0x1 ADD SWAP1 DUP1 DUP4 GT PUSH2 0x105B JUMPI JUMPDEST POP POP POP POP POP DUP2 MSTORE POP POP DUP2 MSTORE PUSH1 0x20 ADD SWAP1 PUSH1 0x1 ADD SWAP1 PUSH2 0xFDE JUMP JUMPDEST POP POP POP SWAP1 DUP3 MSTORE POP PUSH1 0x9 DUP3 ADD SLOAD PUSH1 0xFF DUP2 AND ISZERO ISZERO PUSH1 0x20 DUP4 ADD MSTORE PUSH2 0x100 SWAP1 DIV PUSH1 0x1 PUSH1 0x1 PUSH1 0xA0 SHL SUB AND PUSH1 0x40 DUP3 ADD MSTORE PUSH1 0xA DUP3 ADD SLOAD PUSH1 0x60 DUP3 ADD MSTORE PUSH1 0xB DUP3 ADD DUP1 SLOAD PUSH1 0x80 SWAP1 SWAP3 ADD SWAP2 PUSH2 0x10D0 SWAP1 PUSH2 0x4D34 JUMP JUMPDEST DUP1 PUSH1 0x1F ADD PUSH1 0x20 DUP1 SWAP2 DIV MUL PUSH1 0x20 ADD PUSH1 0x40 MLOAD SWAP1 DUP2 ADD PUSH1 0x40 MSTORE DUP1 SWAP3 SWAP2 SWAP1 DUP2 DUP2 MSTORE PUSH1 0x20 ADD DUP3 DUP1 SLOAD PUSH2 0x10FC SWAP1 PUSH2 0x4D34 JUMP JUMPDEST DUP1 ISZERO PUSH2 0x1149 JUMPI DUP1 PUSH1 0x1F LT PUSH2 0x111E JUMPI PUSH2 0x100 DUP1 DUP4 SLOAD DIV MUL DUP4 MSTORE SWAP2 PUSH1 0x20 ADD SWAP2 PUSH2 0x1149 JUMP JUMPDEST DUP3 ADD SWAP2 SWAP1 PUSH1 0x0 MSTORE PUSH1 0x20 PUSH1 0x0 KECCAK256 SWAP1 JUMPDEST DUP2 SLOAD DUP2 MSTORE SWAP1 PUSH1 0x1 ADD SWAP1 PUSH1 0x20 ADD DUP1 DUP4 GT PUSH2 0x112C JUMPI DUP3 SWAP1 SUB PUSH1 0x1F AND DUP3 ADD SWAP2 JUMPDEST POP POP POP POP POP DUP2 MSTORE PUSH1 0x20 ADD PUSH1 0xC DUP3 ADD DUP1 SLOAD PUSH2 0x1162 SWAP1 PUSH2 0x4D34 JUMP JUMPDEST DUP1 PUSH1 0x1F ADD PUSH1 0x20 DUP1 SWAP2 DIV MUL PUSH1 0x20 ADD PUSH1 0x40 MLOAD SWAP1 DUP2 ADD PUSH1 0x40 MSTORE DUP1 SWAP3 SWAP2 SWAP1 DUP2 DUP2 MSTORE PUSH1 0x20 ADD DUP3 DUP1 SLOAD PUSH2 0x118E SWAP1 PUSH2 0x4D34 JUMP JUMPDEST DUP1 ISZERO PUSH2 0x11DB JUMPI DUP1 PUSH1 0x1F LT PUSH2 0x11B0 JUMPI PUSH2 0x100 DUP1 DUP4 SLOAD DIV MUL DUP4 MSTORE SWAP2 PUSH1 0x20 ADD SWAP2 PUSH2 0x11DB JUMP JUMPDEST DUP3 ADD SWAP2 SWAP1 PUSH1 0x0 MSTORE PUSH1 0x20 PUSH1 0x0 KECCAK256 SWAP1 JUMPDEST DUP2 SLOAD DUP2 MSTORE SWAP1 PUSH1 0x1 ADD SWAP1 PUSH1 0x20 ADD DUP1 DUP4 GT PUSH2 0x11BE JUMPI DUP3 SWAP1 SUB PUSH1 0x1F AND DUP3 ADD SWAP2 JUMPDEST POP POP POP POP POP DUP2 MSTORE POP POP SWAP1 POP SWAP2 SWAP1 POP JUMP JUMPDEST PUSH1 0x0 PUSH2 0x11F5 PUSH2 0x2E4A JUMP JUMPDEST DUP4 DUP3 DUP2 EQ PUSH2 0x1216 JUMPI PUSH1 0x40 MLOAD PUSH4 0x251F56A1 PUSH1 0xE2 SHL DUP2 MSTORE PUSH1 0x4 ADD PUSH1 0x40 MLOAD DUP1 SWAP2 SUB SWAP1 REVERT JUMPDEST CALLVALUE PUSH1 0x0 JUMPDEST DUP3 DUP2 LT ISZERO PUSH2 0x12AA JUMPI PUSH1 0x0 DUP7 DUP7 DUP4 DUP2 DUP2 LT PUSH2 0x1236 JUMPI PUSH2 0x1236 PUSH2 0x4D6E JUMP JUMPDEST SWAP1 POP PUSH1 0x20 MUL ADD CALLDATALOAD SWAP1 POP DUP3 DUP2 GT ISZERO PUSH2 0x1260 JUMPI PUSH1 0x40 MLOAD PUSH4 0x44044A5 PUSH1 0xE2 SHL DUP2 MSTORE PUSH1 0x4 ADD PUSH1 0x40 MLOAD DUP1 SWAP2 SUB SWAP1 REVERT JUMPDEST PUSH2 0x128D DUP10 DUP10 DUP5 DUP2 DUP2 LT PUSH2 0x1275 JUMPI PUSH2 0x1275 PUSH2 0x4D6E JUMP JUMPDEST SWAP1 POP PUSH1 0x20 MUL DUP2 ADD SWAP1 PUSH2 0x1287 SWAP2 SWAP1 PUSH2 0x4D84 JUMP JUMPDEST POP PUSH1 0x1 SWAP1 JUMP JUMPDEST PUSH2 0x129E JUMPI PUSH1 0x0 SWAP5 POP POP POP POP POP PUSH2 0x12B2 JUMP JUMPDEST SWAP1 SWAP2 SUB SWAP1 PUSH1 0x1 ADD PUSH2 0x121A JUMP JUMPDEST POP PUSH1 0x1 SWAP3 POP POP POP JUMPDEST SWAP5 SWAP4 POP POP POP POP JUMP JUMPDEST PUSH1 0x0 PUSH2 0x12C4 PUSH2 0x2E4A JUMP JUMPDEST DUP4 DUP3 DUP2 EQ PUSH2 0x12E5 JUMPI PUSH1 0x40 MLOAD PUSH4 0x251F56A1 PUSH1 0xE2 SHL DUP2 MSTORE PUSH1 0x4 ADD PUSH1 0x40 MLOAD DUP1 SWAP2 SUB SWAP1 REVERT JUMPDEST CALLVALUE PUSH1 0x0 JUMPDEST DUP3 DUP2 LT ISZERO PUSH2 0x12AA JUMPI PUSH1 0x0 DUP7 DUP7 DUP4 DUP2 DUP2 LT PUSH2 0x1305 JUMPI PUSH2 0x1305 PUSH2 0x4D6E JUMP JUMPDEST SWAP1 POP PUSH1 0x20 MUL ADD CALLDATALOAD SWAP1 POP DUP3 DUP2 GT ISZERO PUSH2 0x132F JUMPI PUSH1 0x40 MLOAD PUSH4 0x44044A5 PUSH1 0xE2 SHL DUP2 MSTORE PUSH1 0x4 ADD PUSH1 0x40 MLOAD DUP1 SWAP2 SUB SWAP1 REVERT JUMPDEST PUSH2 0x135C DUP10 DUP10 DUP5 DUP2 DUP2 LT PUSH2 0x1344 JUMPI PUSH2 0x1344 PUSH2 0x4D6E JUMP JUMPDEST SWAP1 POP PUSH1 0x20 MUL DUP2 ADD SWAP1 PUSH2 0x1356 SWAP2 SWAP1 PUSH2 0x4D84 JUMP JUMPDEST DUP3 PUSH2 0x2E93 JUMP JUMPDEST PUSH2 0x136D JUMPI PUSH1 0x0 SWAP5 POP POP POP POP POP PUSH2 0x12B2 JUMP JUMPDEST SWAP1 SWAP2 SUB SWAP1 PUSH1 0x1 ADD PUSH2 0x12E9 JUMP JUMPDEST PUSH1 0x8 DUP1 SLOAD PUSH2 0x1386 SWAP1 PUSH2 0x4D34 JUMP JUMPDEST DUP1 PUSH1 0x1F ADD PUSH1 0x20 DUP1 SWAP2 DIV MUL PUSH1 0x20 ADD PUSH1 0x40 MLOAD SWAP1 DUP2 ADD PUSH1 0x40 MSTORE DUP1 SWAP3 SWAP2 SWAP1 DUP2 DUP2 MSTORE PUSH1 0x20 ADD DUP3 DUP1 SLOAD PUSH2 0x13B2 SWAP1 PUSH2 0x4D34 JUMP JUMPDEST DUP1 ISZERO PUSH2 0x13FF JUMPI DUP1 PUSH1 0x1F LT PUSH2 0x13D4 JUMPI PUSH2 0x100 DUP1 DUP4 SLOAD DIV MUL DUP4 MSTORE SWAP2 PUSH1 0x20 ADD SWAP2 PUSH2 0x13FF JUMP JUMPDEST DUP3 ADD SWAP2 SWAP1 PUSH1 0x0 MSTORE PUSH1 0x20 PUSH1 0x0 KECCAK256 SWAP1 JUMPDEST DUP2 SLOAD DUP2 MSTORE SWAP1 PUSH1 0x1 ADD SWAP1 PUSH1 0x20 ADD DUP1 DUP4 GT PUSH2 0x13E2 JUMPI DUP3 SWAP1 SUB PUSH1 0x1F AND DUP3 ADD SWAP2 JUMPDEST POP POP POP POP POP DUP2 JUMP JUMPDEST PUSH2 0x140F PUSH2 0x217B JUMP JUMPDEST PUSH1 0x5 SSTORE JUMP JUMPDEST PUSH2 0x1438 PUSH1 0x40 MLOAD DUP1 PUSH1 0x60 ADD PUSH1 0x40 MSTORE DUP1 PUSH1 0x60 DUP2 MSTORE PUSH1 0x20 ADD PUSH1 0x60 DUP2 MSTORE PUSH1 0x20 ADD PUSH1 0x60 DUP2 MSTORE POP SWAP1 JUMP JUMPDEST PUSH1 0x0 PUSH1 0x3 DUP4 PUSH1 0x40 MLOAD PUSH2 0x144A SWAP2 SWAP1 PUSH2 0x4D18 JUMP JUMPDEST SWAP1 DUP2 MSTORE PUSH1 0x20 ADD PUSH1 0x40 MLOAD DUP1 SWAP2 SUB SWAP1 KECCAK256 SWAP1 POP PUSH1 0xA DUP2 PUSH1 0xB ADD PUSH1 0x40 MLOAD PUSH2 0x146D SWAP2 SWAP1 PUSH2 0x4D9B JUMP JUMPDEST SWAP1 DUP2 MSTORE PUSH1 0x40 DUP1 MLOAD SWAP2 DUP3 SWAP1 SUB PUSH1 0x20 SWAP1 DUP2 ADD DUP4 KECCAK256 DUP1 SLOAD PUSH1 0x80 SWAP3 DUP2 MUL DUP6 ADD DUP4 ADD SWAP1 SWAP4 MSTORE PUSH1 0x60 DUP5 ADD DUP4 DUP2 MSTORE SWAP1 SWAP3 DUP5 SWAP3 DUP5 SWAP2 SWAP1 PUSH1 0x0 SWAP1 DUP6 ADD JUMPDEST DUP3 DUP3 LT ISZERO PUSH2 0x154D JUMPI DUP4 DUP3 SWAP1 PUSH1 0x0 MSTORE PUSH1 0x20 PUSH1 0x0 KECCAK256 ADD DUP1 SLOAD PUSH2 0x14C0 SWAP1 PUSH2 0x4D34 JUMP JUMPDEST DUP1 PUSH1 0x1F ADD PUSH1 0x20 DUP1 SWAP2 DIV MUL PUSH1 0x20 ADD PUSH1 0x40 MLOAD SWAP1 DUP2 ADD PUSH1 0x40 MSTORE DUP1 SWAP3 SWAP2 SWAP1 DUP2 DUP2 MSTORE PUSH1 0x20 ADD DUP3 DUP1 SLOAD PUSH2 0x14EC SWAP1 PUSH2 0x4D34 JUMP JUMPDEST DUP1 ISZERO PUSH2 0x1539 JUMPI DUP1 PUSH1 0x1F LT PUSH2 0x150E JUMPI PUSH2 0x100 DUP1 DUP4 SLOAD DIV MUL DUP4 MSTORE SWAP2 PUSH1 0x20 ADD SWAP2 PUSH2 0x1539 JUMP JUMPDEST DUP3 ADD SWAP2 SWAP1 PUSH1 0x0 MSTORE PUSH1 0x20 PUSH1 0x0 KECCAK256 SWAP1 JUMPDEST DUP2 SLOAD DUP2 MSTORE SWAP1 PUSH1 0x1 ADD SWAP1 PUSH1 0x20 ADD DUP1 DUP4 GT PUSH2 0x151C JUMPI DUP3 SWAP1 SUB PUSH1 0x1F AND DUP3 ADD SWAP2 JUMPDEST POP POP POP POP POP DUP2 MSTORE PUSH1 0x20 ADD SWAP1 PUSH1 0x1 ADD SWAP1 PUSH2 0x14A1 JUMP JUMPDEST POP POP POP POP DUP2 MSTORE PUSH1 0x20 ADD PUSH1 0x1 DUP3 ADD DUP1 SLOAD DUP1 PUSH1 0x20 MUL PUSH1 0x20 ADD PUSH1 0x40 MLOAD SWAP1 DUP2 ADD PUSH1 0x40 MSTORE DUP1 SWAP3 SWAP2 SWAP1 DUP2 DUP2 MSTORE PUSH1 0x20 ADD DUP3 DUP1 SLOAD DUP1 ISZERO PUSH2 0x15D4 JUMPI PUSH1 0x20 MUL DUP3 ADD SWAP2 SWAP1 PUSH1 0x0 MSTORE PUSH1 0x20 PUSH1 0x0 KECCAK256 SWAP1 PUSH1 0x0 SWAP1 JUMPDEST DUP3 DUP3 SWAP1 SLOAD SWAP1 PUSH2 0x100 EXP SWAP1 DIV PUSH1 0xFF AND PUSH1 0x2 DUP2 GT ISZERO PUSH2 0x15B2 JUMPI PUSH2 0x15B2 PUSH2 0x452A JUMP JUMPDEST DUP2 MSTORE PUSH1 0x20 PUSH1 0x1 SWAP3 DUP4 ADD DUP2 DUP2 DIV SWAP5 DUP6 ADD SWAP5 SWAP1 SWAP4 SUB SWAP1 SWAP3 MUL SWAP2 ADD DUP1 DUP5 GT PUSH2 0x1593 JUMPI SWAP1 POP JUMPDEST POP POP POP POP POP DUP2 MSTORE PUSH1 0x20 ADD PUSH1 0x2 DUP3 ADD DUP1 SLOAD DUP1 PUSH1 0x20 MUL PUSH1 0x20 ADD PUSH1 0x40 MLOAD SWAP1 DUP2 ADD PUSH1 0x40 MSTORE DUP1 SWAP3 SWAP2 SWAP1 DUP2 DUP2 MSTORE PUSH1 0x20 ADD PUSH1 0x0 SWAP1 JUMPDEST DUP3 DUP3 LT ISZERO PUSH2 0x16F5 JUMPI DUP4 DUP3 SWAP1 PUSH1 0x0 MSTORE PUSH1 0x20 PUSH1 0x0 KECCAK256 ADD DUP1 SLOAD DUP1 PUSH1 0x20 MUL PUSH1 0x20 ADD PUSH1 0x40 MLOAD SWAP1 DUP2 ADD PUSH1 0x40 MSTORE DUP1 SWAP3 SWAP2 SWAP1 DUP2 DUP2 MSTORE PUSH1 0x20 ADD PUSH1 0x0 SWAP1 JUMPDEST DUP3 DUP3 LT ISZERO PUSH2 0x16E2 JUMPI DUP4 DUP3 SWAP1 PUSH1 0x0 MSTORE PUSH1 0x20 PUSH1 0x0 KECCAK256 ADD DUP1 SLOAD PUSH2 0x1655 SWAP1 PUSH2 0x4D34 JUMP JUMPDEST DUP1 PUSH1 0x1F ADD PUSH1 0x20 DUP1 SWAP2 DIV MUL PUSH1 0x20 ADD PUSH1 0x40 MLOAD SWAP1 DUP2 ADD PUSH1 0x40 MSTORE DUP1 SWAP3 SWAP2 SWAP1 DUP2 DUP2 MSTORE PUSH1 0x20 ADD DUP3 DUP1 SLOAD PUSH2 0x1681 SWAP1 PUSH2 0x4D34 JUMP JUMPDEST DUP1 ISZERO PUSH2 0x16CE JUMPI DUP1 PUSH1 0x1F LT PUSH2 0x16A3 JUMPI PUSH2 0x100 DUP1 DUP4 SLOAD DIV MUL DUP4 MSTORE SWAP2 PUSH1 0x20 ADD SWAP2 PUSH2 0x16CE JUMP JUMPDEST DUP3 ADD SWAP2 SWAP1 PUSH1 0x0 MSTORE PUSH1 0x20 PUSH1 0x0 KECCAK256 SWAP1 JUMPDEST DUP2 SLOAD DUP2 MSTORE SWAP1 PUSH1 0x1 ADD SWAP1 PUSH1 0x20 ADD DUP1 DUP4 GT PUSH2 0x16B1 JUMPI DUP3 SWAP1 SUB PUSH1 0x1F AND DUP3 ADD SWAP2 JUMPDEST POP POP POP POP POP DUP2 MSTORE PUSH1 0x20 ADD SWAP1 PUSH1 0x1 ADD SWAP1 PUSH2 0x1636 JUMP JUMPDEST POP POP POP POP DUP2 MSTORE PUSH1 0x20 ADD SWAP1 PUSH1 0x1 ADD SWAP1 PUSH2 0x1602 JUMP JUMPDEST POP POP POP SWAP2 MSTORE POP SWAP1 SWAP5 SWAP4 POP POP POP POP JUMP JUMPDEST PUSH1 0x0 DUP1 JUMPDEST PUSH1 0x6 SLOAD DUP2 LT ISZERO PUSH2 0x1764 JUMPI DUP3 PUSH1 0x1 PUSH1 0x1 PUSH1 0xA0 SHL SUB AND PUSH1 0x6 DUP3 DUP2 SLOAD DUP2 LT PUSH2 0x172F JUMPI PUSH2 0x172F PUSH2 0x4D6E JUMP JUMPDEST PUSH1 0x0 SWAP2 DUP3 MSTORE PUSH1 0x20 SWAP1 SWAP2 KECCAK256 ADD SLOAD PUSH1 0x1 PUSH1 0x1 PUSH1 0xA0 SHL SUB AND SUB PUSH2 0x1752 JUMPI POP PUSH1 0x1 SWAP3 SWAP2 POP POP JUMP JUMPDEST DUP1 PUSH2 0x175C DUP2 PUSH2 0x4E27 JUMP JUMPDEST SWAP2 POP POP PUSH2 0x1708 JUMP JUMPDEST POP PUSH1 0x0 SWAP3 SWAP2 POP POP JUMP JUMPDEST PUSH1 0x9 SLOAD PUSH1 0xFF AND ISZERO PUSH2 0x1790 JUMPI PUSH1 0x40 MLOAD PUSH3 0x461BCD PUSH1 0xE5 SHL DUP2 MSTORE PUSH1 0x4 ADD PUSH2 0x6F7 SWAP1 PUSH2 0x4C92 JUMP JUMPDEST PUSH1 0x0 DUP5 MLOAD GT PUSH2 0x17ED JUMPI PUSH1 0x40 MLOAD PUSH3 0x461BCD PUSH1 0xE5 SHL DUP2 MSTORE PUSH1 0x20 PUSH1 0x4 DUP3 ADD MSTORE PUSH1 0x24 DUP1 DUP3 ADD MSTORE PUSH32 0x4465726573793A204E616D652063616E6E6F74206265206E756C6C206F722065 PUSH1 0x44 DUP3 ADD MSTORE PUSH4 0x6D707479 PUSH1 0xE0 SHL PUSH1 0x64 DUP3 ADD MSTORE PUSH1 0x84 ADD PUSH2 0x6F7 JUMP JUMPDEST PUSH1 0xA DUP5 PUSH1 0x40 MLOAD PUSH2 0x17FD SWAP2 SWAP1 PUSH2 0x4D18 JUMP JUMPDEST SWAP1 DUP2 MSTORE PUSH1 0x40 MLOAD SWAP1 DUP2 SWAP1 SUB PUSH1 0x20 ADD SWAP1 KECCAK256 SLOAD ISZERO PUSH2 0x1868 JUMPI PUSH1 0x40 MLOAD PUSH3 0x461BCD PUSH1 0xE5 SHL DUP2 MSTORE PUSH1 0x20 PUSH1 0x4 DUP3 ADD MSTORE PUSH1 0x25 PUSH1 0x24 DUP3 ADD MSTORE PUSH32 0x4465726573793A20526576696577466F726D4E616D6520616C72656164792065 PUSH1 0x44 DUP3 ADD MSTORE PUSH5 0x7869737473 PUSH1 0xD8 SHL PUSH1 0x64 DUP3 ADD MSTORE PUSH1 0x84 ADD PUSH2 0x6F7 JUMP JUMPDEST PUSH1 0x0 DUP4 MLOAD GT PUSH2 0x18B9 JUMPI PUSH1 0x40 MLOAD PUSH3 0x461BCD PUSH1 0xE5 SHL DUP2 MSTORE PUSH1 0x20 PUSH1 0x4 DUP3 ADD MSTORE PUSH1 0x1F PUSH1 0x24 DUP3 ADD MSTORE PUSH32 0x4465726573793A205175657374696F6E732063616E2774206265206E756C6C00 PUSH1 0x44 DUP3 ADD MSTORE PUSH1 0x64 ADD PUSH2 0x6F7 JUMP JUMPDEST PUSH1 0x0 DUP2 MLOAD GT PUSH2 0x1916 JUMPI PUSH1 0x40 MLOAD PUSH3 0x461BCD PUSH1 0xE5 SHL DUP2 MSTORE PUSH1 0x20 PUSH1 0x4 DUP3 ADD MSTORE PUSH1 0x24 DUP1 DUP3 ADD MSTORE PUSH32 0x4465726573793A205175657374696F6E2054797065732063616E277420626520 PUSH1 0x44 DUP3 ADD MSTORE PUSH4 0x1B9D5B1B PUSH1 0xE2 SHL PUSH1 0x64 DUP3 ADD MSTORE PUSH1 0x84 ADD PUSH2 0x6F7 JUMP JUMPDEST DUP3 MLOAD DUP2 MLOAD EQ PUSH2 0x1985 JUMPI PUSH1 0x40 MLOAD PUSH3 0x461BCD PUSH1 0xE5 SHL DUP2 MSTORE PUSH1 0x20 PUSH1 0x4 DUP3 ADD MSTORE PUSH1 0x35 PUSH1 0x24 DUP3 ADD MSTORE PUSH32 0x4465726573793A205175657374696F6E7320616E64207479706573206D757374 PUSH1 0x44 DUP3 ADD MSTORE PUSH21 0x40D0C2ECCA40E8D0CA40E6C2DACA40D8CADCCEE8D PUSH1 0x5B SHL PUSH1 0x64 DUP3 ADD MSTORE PUSH1 0x84 ADD PUSH2 0x6F7 JUMP JUMPDEST DUP2 MLOAD DUP4 MLOAD EQ PUSH2 0x19FC JUMPI PUSH1 0x40 MLOAD PUSH3 0x461BCD PUSH1 0xE5 SHL DUP2 MSTORE PUSH1 0x20 PUSH1 0x4 DUP3 ADD MSTORE PUSH1 0x37 PUSH1 0x24 DUP3 ADD MSTORE PUSH32 0x4465726573793A205175657374696F6E7320616E642063686F69636573206D75 PUSH1 0x44 DUP3 ADD MSTORE PUSH32 0x73742068617665207468652073616D65206C656E677468000000000000000000 PUSH1 0x64 DUP3 ADD MSTORE PUSH1 0x84 ADD PUSH2 0x6F7 JUMP JUMPDEST PUSH1 0x40 MLOAD DUP1 PUSH1 0x60 ADD PUSH1 0x40 MSTORE DUP1 DUP5 DUP2 MSTORE PUSH1 0x20 ADD DUP3 DUP2 MSTORE PUSH1 0x20 ADD DUP4 DUP2 MSTORE POP PUSH1 0xA DUP6 PUSH1 0x40 MLOAD PUSH2 0x1A27 SWAP2 SWAP1 PUSH2 0x4D18 JUMP JUMPDEST SWAP1 DUP2 MSTORE PUSH1 0x20 ADD PUSH1 0x40 MLOAD DUP1 SWAP2 SUB SWAP1 KECCAK256 PUSH1 0x0 DUP3 ADD MLOAD DUP2 PUSH1 0x0 ADD SWAP1 DUP1 MLOAD SWAP1 PUSH1 0x20 ADD SWAP1 PUSH2 0x1A51 SWAP3 SWAP2 SWAP1 PUSH2 0x3D67 JUMP JUMPDEST POP PUSH1 0x20 DUP3 DUP2 ADD MLOAD DUP1 MLOAD PUSH2 0x1A6A SWAP3 PUSH1 0x1 DUP6 ADD SWAP3 ADD SWAP1 PUSH2 0x3DBD JUMP JUMPDEST POP PUSH1 0x40 DUP3 ADD MLOAD DUP1 MLOAD PUSH2 0x1A86 SWAP2 PUSH1 0x2 DUP5 ADD SWAP2 PUSH1 0x20 SWAP1 SWAP2 ADD SWAP1 PUSH2 0x3E6D JUMP JUMPDEST POP POP PUSH1 0xB DUP1 SLOAD PUSH1 0x1 DUP2 ADD DUP3 SSTORE PUSH1 0x0 SWAP2 SWAP1 SWAP2 MSTORE PUSH32 0x175B7A638427703F0DBE7BB9BBF987A2551717B34E79F33B5B1008D1FA01DB9 ADD SWAP1 POP PUSH2 0x1AC6 DUP6 DUP3 PUSH2 0x4E8F JUMP JUMPDEST POP PUSH32 0xCB1290A8B5A51FBD31AD1AFBAB070C3CA5BE2B36C9B3E3EAAD9F1187D5D6E627 DUP5 PUSH1 0x40 MLOAD PUSH2 0x1AF6 SWAP2 SWAP1 PUSH2 0x4473 JUMP JUMPDEST PUSH1 0x40 MLOAD DUP1 SWAP2 SUB SWAP1 LOG1 POP POP POP POP JUMP JUMPDEST PUSH2 0x1B0C PUSH2 0x217B JUMP JUMPDEST PUSH1 0x4 SSTORE JUMP JUMPDEST PUSH1 0x3 DUP2 PUSH1 0x40 MLOAD PUSH2 0x1B21 SWAP2 SWAP1 PUSH2 0x4D18 JUMP JUMPDEST SWAP1 DUP2 MSTORE PUSH1 0x40 MLOAD SWAP1 DUP2 SWAP1 SUB PUSH1 0x20 ADD SWAP1 KECCAK256 SLOAD CALLER PUSH1 0x1 PUSH1 0x1 PUSH1 0xA0 SHL SUB SWAP1 SWAP2 AND EQ PUSH2 0x1B8A JUMPI PUSH1 0x40 MLOAD PUSH3 0x461BCD PUSH1 0xE5 SHL DUP2 MSTORE PUSH1 0x20 PUSH1 0x4 DUP3 ADD MSTORE PUSH1 0x1D PUSH1 0x24 DUP3 ADD MSTORE PUSH32 0x4465726573793A204974206973206E6F74207468652073706F6E736F72000000 PUSH1 0x44 DUP3 ADD MSTORE PUSH1 0x64 ADD PUSH2 0x6F7 JUMP JUMPDEST PUSH1 0x3 DUP2 PUSH1 0x40 MLOAD PUSH2 0x1B9A SWAP2 SWAP1 PUSH2 0x4D18 JUMP JUMPDEST SWAP1 DUP2 MSTORE PUSH1 0x40 MLOAD SWAP1 DUP2 SWAP1 SUB PUSH1 0x20 ADD SWAP1 KECCAK256 PUSH1 0x9 ADD SLOAD PUSH1 0xFF AND ISZERO PUSH2 0x1BF6 JUMPI PUSH1 0x40 MLOAD PUSH3 0x461BCD PUSH1 0xE5 SHL DUP2 MSTORE PUSH1 0x20 PUSH1 0x4 DUP3 ADD MSTORE PUSH1 0x16 PUSH1 0x24 DUP3 ADD MSTORE PUSH22 0x11195C995CDE4E8814995C5D595CDD0818DB1BDCD959 PUSH1 0x52 SHL PUSH1 0x44 DUP3 ADD MSTORE PUSH1 0x64 ADD PUSH2 0x6F7 JUMP JUMPDEST PUSH1 0x3 DUP2 PUSH1 0x40 MLOAD PUSH2 0x1C06 SWAP2 SWAP1 PUSH2 0x4D18 JUMP JUMPDEST SWAP1 DUP2 MSTORE PUSH1 0x40 MLOAD SWAP1 DUP2 SWAP1 SUB PUSH1 0x20 ADD DUP2 KECCAK256 SLOAD PUSH1 0x1 PUSH1 0x1 PUSH1 0xA0 SHL SUB AND SWAP1 PUSH2 0x8FC SWAP1 PUSH1 0x3 SWAP1 PUSH2 0x1C32 SWAP1 DUP6 SWAP1 PUSH2 0x4D18 JUMP JUMPDEST SWAP1 DUP2 MSTORE PUSH1 0x40 MLOAD SWAP1 DUP2 SWAP1 SUB PUSH1 0x20 ADD DUP2 KECCAK256 PUSH1 0xA ADD SLOAD DUP1 ISZERO SWAP1 SWAP3 MUL SWAP2 SWAP1 PUSH1 0x0 DUP2 DUP2 DUP2 DUP6 DUP9 DUP9 CALL SWAP4 POP POP POP POP ISZERO DUP1 ISZERO PUSH2 0x1C6B JUMPI RETURNDATASIZE PUSH1 0x0 DUP1 RETURNDATACOPY RETURNDATASIZE PUSH1 0x0 REVERT JUMPDEST POP PUSH1 0x1 PUSH1 0x3 DUP3 PUSH1 0x40 MLOAD PUSH2 0x1C7E SWAP2 SWAP1 PUSH2 0x4D18 JUMP JUMPDEST SWAP1 DUP2 MSTORE PUSH1 0x40 MLOAD SWAP1 DUP2 SWAP1 SUB PUSH1 0x20 ADD DUP2 KECCAK256 PUSH1 0x9 ADD DUP1 SLOAD SWAP3 ISZERO ISZERO PUSH1 0xFF NOT SWAP1 SWAP4 AND SWAP3 SWAP1 SWAP3 OR SWAP1 SWAP2 SSTORE PUSH1 0x0 SWAP1 PUSH1 0x3 SWAP1 PUSH2 0x1CB3 SWAP1 DUP5 SWAP1 PUSH2 0x4D18 JUMP JUMPDEST SWAP1 DUP2 MSTORE PUSH1 0x20 ADD PUSH1 0x40 MLOAD DUP1 SWAP2 SUB SWAP1 KECCAK256 PUSH1 0xA ADD DUP2 SWAP1 SSTORE POP PUSH32 0xBC5C8CB2024ED254E024E37B09895ECAA07948DD0FD7A08E30B80F559888F2CF DUP2 PUSH1 0x40 MLOAD PUSH2 0x1CF7 SWAP2 SWAP1 PUSH2 0x4473 JUMP JUMPDEST PUSH1 0x40 MLOAD DUP1 SWAP2 SUB SWAP1 LOG1 POP JUMP JUMPDEST PUSH1 0x60 PUSH1 0xB DUP1 SLOAD DUP1 PUSH1 0x20 MUL PUSH1 0x20 ADD PUSH1 0x40 MLOAD SWAP1 DUP2 ADD PUSH1 0x40 MSTORE DUP1 SWAP3 SWAP2 SWAP1 DUP2 DUP2 MSTORE PUSH1 0x20 ADD PUSH1 0x0 SWAP1 JUMPDEST DUP3 DUP3 LT ISZERO PUSH2 0x1DD2 JUMPI DUP4 DUP3 SWAP1 PUSH1 0x0 MSTORE PUSH1 0x20 PUSH1 0x0 KECCAK256 ADD DUP1 SLOAD PUSH2 0x1D45 SWAP1 PUSH2 0x4D34 JUMP JUMPDEST DUP1 PUSH1 0x1F ADD PUSH1 0x20 DUP1 SWAP2 DIV MUL PUSH1 0x20 ADD PUSH1 0x40 MLOAD SWAP1 DUP2 ADD PUSH1 0x40 MSTORE DUP1 SWAP3 SWAP2 SWAP1 DUP2 DUP2 MSTORE PUSH1 0x20 ADD DUP3 DUP1 SLOAD PUSH2 0x1D71 SWAP1 PUSH2 0x4D34 JUMP JUMPDEST DUP1 ISZERO PUSH2 0x1DBE JUMPI DUP1 PUSH1 0x1F LT PUSH2 0x1D93 JUMPI PUSH2 0x100 DUP1 DUP4 SLOAD DIV MUL DUP4 MSTORE SWAP2 PUSH1 0x20 ADD SWAP2 PUSH2 0x1DBE JUMP JUMPDEST DUP3 ADD SWAP2 SWAP1 PUSH1 0x0 MSTORE PUSH1 0x20 PUSH1 0x0 KECCAK256 SWAP1 JUMPDEST DUP2 SLOAD DUP2 MSTORE SWAP1 PUSH1 0x1 ADD SWAP1 PUSH1 0x20 ADD DUP1 DUP4 GT PUSH2 0x1DA1 JUMPI DUP3 SWAP1 SUB PUSH1 0x1F AND DUP3 ADD SWAP2 JUMPDEST POP POP POP POP POP DUP2 MSTORE PUSH1 0x20 ADD SWAP1 PUSH1 0x1 ADD SWAP1 PUSH2 0x1D26 JUMP JUMPDEST POP POP POP POP SWAP1 POP SWAP1 JUMP JUMPDEST PUSH2 0x1DE3 PUSH2 0x217B JUMP JUMPDEST PUSH1 0x2 DUP1 SLOAD PUSH1 0x1 PUSH1 0x1 PUSH1 0xA0 SHL SUB NOT AND PUSH1 0x1 PUSH1 0x1 PUSH1 0xA0 SHL SUB SWAP3 SWAP1 SWAP3 AND SWAP2 SWAP1 SWAP2 OR SWAP1 SSTORE JUMP JUMPDEST PUSH2 0x1E0D PUSH2 0x217B JUMP JUMPDEST PUSH2 0x1E16 DUP2 PUSH2 0x1704 JUMP JUMPDEST PUSH2 0x1E5B JUMPI PUSH1 0x40 MLOAD PUSH3 0x461BCD PUSH1 0xE5 SHL DUP2 MSTORE PUSH1 0x20 PUSH1 0x4 DUP3 ADD MSTORE PUSH1 0x16 PUSH1 0x24 DUP3 ADD MSTORE PUSH22 0x151BDAD95B881B9BDD081A5B881DDA1A5D195B1A5CDD PUSH1 0x52 SHL PUSH1 0x44 DUP3 ADD MSTORE PUSH1 0x64 ADD PUSH2 0x6F7 JUMP JUMPDEST PUSH1 0x0 JUMPDEST PUSH1 0x6 SLOAD DUP2 LT ISZERO PUSH2 0x1F62 JUMPI DUP2 PUSH1 0x1 PUSH1 0x1 PUSH1 0xA0 SHL SUB AND PUSH1 0x6 DUP3 DUP2 SLOAD DUP2 LT PUSH2 0x1E85 JUMPI PUSH2 0x1E85 PUSH2 0x4D6E JUMP JUMPDEST PUSH1 0x0 SWAP2 DUP3 MSTORE PUSH1 0x20 SWAP1 SWAP2 KECCAK256 ADD SLOAD PUSH1 0x1 PUSH1 0x1 PUSH1 0xA0 SHL SUB AND SUB PUSH2 0x1F50 JUMPI PUSH1 0x6 DUP1 SLOAD PUSH2 0x1EAF SWAP1 PUSH1 0x1 SWAP1 PUSH2 0x4F4E JUMP JUMPDEST DUP2 SLOAD DUP2 LT PUSH2 0x1EBF JUMPI PUSH2 0x1EBF PUSH2 0x4D6E JUMP JUMPDEST PUSH1 0x0 SWAP2 DUP3 MSTORE PUSH1 0x20 SWAP1 SWAP2 KECCAK256 ADD SLOAD PUSH1 0x6 DUP1 SLOAD PUSH1 0x1 PUSH1 0x1 PUSH1 0xA0 SHL SUB SWAP1 SWAP3 AND SWAP2 DUP4 SWAP1 DUP2 LT PUSH2 0x1EEB JUMPI PUSH2 0x1EEB PUSH2 0x4D6E JUMP JUMPDEST SWAP1 PUSH1 0x0 MSTORE PUSH1 0x20 PUSH1 0x0 KECCAK256 ADD PUSH1 0x0 PUSH2 0x100 EXP DUP2 SLOAD DUP2 PUSH1 0x1 PUSH1 0x1 PUSH1 0xA0 SHL SUB MUL NOT AND SWAP1 DUP4 PUSH1 0x1 PUSH1 0x1 PUSH1 0xA0 SHL SUB AND MUL OR SWAP1 SSTORE POP PUSH1 0x6 DUP1 SLOAD DUP1 PUSH2 0x1F2A JUMPI PUSH2 0x1F2A PUSH2 0x4F61 JUMP JUMPDEST PUSH1 0x0 DUP3 DUP2 MSTORE PUSH1 0x20 SWAP1 KECCAK256 DUP2 ADD PUSH1 0x0 NOT SWAP1 DUP2 ADD DUP1 SLOAD PUSH1 0x1 PUSH1 0x1 PUSH1 0xA0 SHL SUB NOT AND SWAP1 SSTORE ADD SWAP1 SSTORE POP POP JUMP JUMPDEST DUP1 PUSH2 0x1F5A DUP2 PUSH2 0x4E27 JUMP JUMPDEST SWAP2 POP POP PUSH2 0x1E5E JUMP JUMPDEST POP POP JUMP JUMPDEST PUSH1 0x60 PUSH1 0x7 DUP1 SLOAD DUP1 PUSH1 0x20 MUL PUSH1 0x20 ADD PUSH1 0x40 MLOAD SWAP1 DUP2 ADD PUSH1 0x40 MSTORE DUP1 SWAP3 SWAP2 SWAP1 DUP2 DUP2 MSTORE PUSH1 0x20 ADD PUSH1 0x0 SWAP1 JUMPDEST DUP3 DUP3 LT ISZERO PUSH2 0x1DD2 JUMPI DUP4 DUP3 SWAP1 PUSH1 0x0 MSTORE PUSH1 0x20 PUSH1 0x0 KECCAK256 ADD DUP1 SLOAD PUSH2 0x1FA9 SWAP1 PUSH2 0x4D34 JUMP JUMPDEST DUP1 PUSH1 0x1F ADD PUSH1 0x20 DUP1 SWAP2 DIV MUL PUSH1 0x20 ADD PUSH1 0x40 MLOAD SWAP1 DUP2 ADD PUSH1 0x40 MSTORE DUP1 SWAP3 SWAP2 SWAP1 DUP2 DUP2 MSTORE PUSH1 0x20 ADD DUP3 DUP1 SLOAD PUSH2 0x1FD5 SWAP1 PUSH2 0x4D34 JUMP JUMPDEST DUP1 ISZERO PUSH2 0x2022 JUMPI DUP1 PUSH1 0x1F LT PUSH2 0x1FF7 JUMPI PUSH2 0x100 DUP1 DUP4 SLOAD DIV MUL DUP4 MSTORE SWAP2 PUSH1 0x20 ADD SWAP2 PUSH2 0x2022 JUMP JUMPDEST DUP3 ADD SWAP2 SWAP1 PUSH1 0x0 MSTORE PUSH1 0x20 PUSH1 0x0 KECCAK256 SWAP1 JUMPDEST DUP2 SLOAD DUP2 MSTORE SWAP1 PUSH1 0x1 ADD SWAP1 PUSH1 0x20 ADD DUP1 DUP4 GT PUSH2 0x2005 JUMPI DUP3 SWAP1 SUB PUSH1 0x1F AND DUP3 ADD SWAP2 JUMPDEST POP POP POP POP POP DUP2 MSTORE PUSH1 0x20 ADD SWAP1 PUSH1 0x1 ADD SWAP1 PUSH2 0x1F8A JUMP JUMPDEST PUSH1 0x60 PUSH1 0x6 DUP1 SLOAD DUP1 PUSH1 0x20 MUL PUSH1 0x20 ADD PUSH1 0x40 MLOAD SWAP1 DUP2 ADD PUSH1 0x40 MSTORE DUP1 SWAP3 SWAP2 SWAP1 DUP2 DUP2 MSTORE PUSH1 0x20 ADD DUP3 DUP1 SLOAD DUP1 ISZERO PUSH2 0x208E JUMPI PUSH1 0x20 MUL DUP3 ADD SWAP2 SWAP1 PUSH1 0x0 MSTORE PUSH1 0x20 PUSH1 0x0 KECCAK256 SWAP1 JUMPDEST DUP2 SLOAD PUSH1 0x1 PUSH1 0x1 PUSH1 0xA0 SHL SUB AND DUP2 MSTORE PUSH1 0x1 SWAP1 SWAP2 ADD SWAP1 PUSH1 0x20 ADD DUP1 DUP4 GT PUSH2 0x2070 JUMPI JUMPDEST POP POP POP POP POP SWAP1 POP SWAP1 JUMP JUMPDEST PUSH1 0x0 PUSH2 0x20A2 PUSH2 0x2E4A JUMP JUMPDEST PUSH1 0x1 JUMPDEST SWAP1 POP JUMPDEST SWAP2 SWAP1 POP JUMP JUMPDEST PUSH1 0x0 PUSH2 0x20B7 PUSH2 0x2E4A JUMP JUMPDEST PUSH2 0x20A5 DUP3 CALLVALUE PUSH2 0x2E93 JUMP JUMPDEST PUSH1 0x9 SLOAD PUSH1 0xFF AND ISZERO PUSH2 0x20E4 JUMPI PUSH1 0x40 MLOAD PUSH3 0x461BCD PUSH1 0xE5 SHL DUP2 MSTORE PUSH1 0x4 ADD PUSH2 0x6F7 SWAP1 PUSH2 0x4C92 JUMP JUMPDEST PUSH2 0x20F9 DUP8 DUP8 DUP8 DUP8 DUP8 DUP8 PUSH1 0x0 DUP1 DUP10 PUSH1 0x0 DUP1 PUSH2 0x2388 JUMP JUMPDEST POP POP POP POP POP POP POP JUMP JUMPDEST PUSH2 0x210A PUSH2 0x217B JUMP JUMPDEST PUSH1 0x1 PUSH1 0x1 PUSH1 0xA0 SHL SUB DUP2 AND PUSH2 0x216F JUMPI PUSH1 0x40 MLOAD PUSH3 0x461BCD PUSH1 0xE5 SHL DUP2 MSTORE PUSH1 0x20 PUSH1 0x4 DUP3 ADD MSTORE PUSH1 0x26 PUSH1 0x24 DUP3 ADD MSTORE PUSH32 0x4F776E61626C653A206E6577206F776E657220697320746865207A65726F2061 PUSH1 0x44 DUP3 ADD MSTORE PUSH6 0x646472657373 PUSH1 0xD0 SHL PUSH1 0x64 DUP3 ADD MSTORE PUSH1 0x84 ADD PUSH2 0x6F7 JUMP JUMPDEST PUSH2 0x2178 DUP2 PUSH2 0x2DFA JUMP JUMPDEST POP JUMP JUMPDEST PUSH1 0x0 SLOAD PUSH1 0x1 PUSH1 0x1 PUSH1 0xA0 SHL SUB AND CALLER EQ PUSH2 0x91E JUMPI PUSH1 0x40 MLOAD PUSH3 0x461BCD PUSH1 0xE5 SHL DUP2 MSTORE PUSH1 0x20 PUSH1 0x4 DUP3 ADD DUP2 SWAP1 MSTORE PUSH1 0x24 DUP3 ADD MSTORE PUSH32 0x4F776E61626C653A2063616C6C6572206973206E6F7420746865206F776E6572 PUSH1 0x44 DUP3 ADD MSTORE PUSH1 0x64 ADD PUSH2 0x6F7 JUMP JUMPDEST PUSH1 0x0 DUP1 JUMPDEST PUSH1 0x3 DUP4 PUSH1 0x40 MLOAD PUSH2 0x21E9 SWAP2 SWAP1 PUSH2 0x4D18 JUMP JUMPDEST SWAP1 DUP2 MSTORE PUSH1 0x40 MLOAD SWAP1 DUP2 SWAP1 SUB PUSH1 0x20 ADD SWAP1 KECCAK256 PUSH1 0x1 ADD SLOAD DUP2 LT ISZERO PUSH2 0x2275 JUMPI DUP4 PUSH1 0x1 PUSH1 0x1 PUSH1 0xA0 SHL SUB AND PUSH1 0x3 DUP5 PUSH1 0x40 MLOAD PUSH2 0x221D SWAP2 SWAP1 PUSH2 0x4D18 JUMP JUMPDEST SWAP1 DUP2 MSTORE PUSH1 0x20 ADD PUSH1 0x40 MLOAD DUP1 SWAP2 SUB SWAP1 KECCAK256 PUSH1 0x1 ADD DUP3 DUP2 SLOAD DUP2 LT PUSH2 0x223F JUMPI PUSH2 0x223F PUSH2 0x4D6E JUMP JUMPDEST PUSH1 0x0 SWAP2 DUP3 MSTORE PUSH1 0x20 SWAP1 SWAP2 KECCAK256 ADD SLOAD PUSH1 0x1 PUSH1 0x1 PUSH1 0xA0 SHL SUB AND SUB PUSH2 0x2263 JUMPI PUSH1 0x1 SWAP2 POP POP PUSH2 0x6CE JUMP JUMPDEST DUP1 PUSH2 0x226D DUP2 PUSH2 0x4E27 JUMP JUMPDEST SWAP2 POP POP PUSH2 0x21D9 JUMP JUMPDEST POP PUSH1 0x0 JUMPDEST PUSH1 0x3 DUP4 PUSH1 0x40 MLOAD PUSH2 0x2289 SWAP2 SWAP1 PUSH2 0x4D18 JUMP JUMPDEST SWAP1 DUP2 MSTORE PUSH1 0x40 MLOAD SWAP1 DUP2 SWAP1 SUB PUSH1 0x20 ADD SWAP1 KECCAK256 PUSH1 0x2 ADD SLOAD DUP2 LT ISZERO PUSH2 0x237E JUMPI PUSH1 0x0 PUSH1 0x3 DUP5 PUSH1 0x40 MLOAD PUSH2 0x22B5 SWAP2 SWAP1 PUSH2 0x4D18 JUMP JUMPDEST SWAP1 DUP2 MSTORE PUSH1 0x20 ADD PUSH1 0x40 MLOAD DUP1 SWAP2 SUB SWAP1 KECCAK256 PUSH1 0x2 ADD DUP3 DUP2 SLOAD DUP2 LT PUSH2 0x22D7 JUMPI PUSH2 0x22D7 PUSH2 0x4D6E JUMP JUMPDEST PUSH1 0x0 SWAP2 DUP3 MSTORE PUSH1 0x20 SWAP1 SWAP2 KECCAK256 ADD SLOAD PUSH1 0x40 MLOAD PUSH4 0x70A08231 PUSH1 0xE0 SHL DUP2 MSTORE PUSH1 0x1 PUSH1 0x1 PUSH1 0xA0 SHL SUB DUP8 DUP2 AND PUSH1 0x4 DUP4 ADD MSTORE SWAP1 SWAP2 AND SWAP2 POP DUP2 SWAP1 PUSH4 0x70A08231 SWAP1 PUSH1 0x24 ADD PUSH1 0x20 PUSH1 0x40 MLOAD DUP1 DUP4 SUB DUP2 DUP7 GAS STATICCALL SWAP3 POP POP POP DUP1 ISZERO PUSH2 0x2349 JUMPI POP PUSH1 0x40 DUP1 MLOAD PUSH1 0x1F RETURNDATASIZE SWAP1 DUP2 ADD PUSH1 0x1F NOT AND DUP3 ADD SWAP1 SWAP3 MSTORE PUSH2 0x2346 SWAP2 DUP2 ADD SWAP1 PUSH2 0x4F77 JUMP JUMPDEST PUSH1 0x1 JUMPDEST PUSH2 0x2358 JUMPI PUSH1 0x0 SWAP3 POP POP POP PUSH2 0x6CE JUMP JUMPDEST DUP1 ISZERO PUSH2 0x236A JUMPI PUSH1 0x1 SWAP4 POP POP POP POP PUSH2 0x6CE JUMP JUMPDEST POP POP DUP1 PUSH2 0x2376 DUP2 PUSH2 0x4E27 JUMP JUMPDEST SWAP2 POP POP PUSH2 0x2279 JUMP JUMPDEST POP PUSH1 0x0 SWAP4 SWAP3 POP POP POP JUMP JUMPDEST PUSH1 0x0 DUP12 MLOAD GT PUSH2 0x23ED JUMPI PUSH1 0x40 MLOAD PUSH3 0x461BCD PUSH1 0xE5 SHL DUP2 MSTORE PUSH1 0x20 PUSH1 0x4 DUP3 ADD MSTORE PUSH1 0x2B PUSH1 0x24 DUP3 ADD MSTORE PUSH32 0x4465726573793A20526571756573744E616D652063616E6E6F74206265206E75 PUSH1 0x44 DUP3 ADD MSTORE PUSH11 0x6C6C206F7220656D707479 PUSH1 0xA8 SHL PUSH1 0x64 DUP3 ADD MSTORE PUSH1 0x84 ADD PUSH2 0x6F7 JUMP JUMPDEST PUSH1 0x0 DUP11 MLOAD GT DUP1 PUSH2 0x23FE JUMPI POP PUSH1 0x0 DUP10 MLOAD GT JUMPDEST PUSH2 0x244A JUMPI PUSH1 0x40 MLOAD PUSH3 0x461BCD PUSH1 0xE5 SHL DUP2 MSTORE PUSH1 0x20 PUSH1 0x4 DUP3 ADD DUP2 SWAP1 MSTORE PUSH1 0x24 DUP3 ADD MSTORE PUSH32 0x4465726573793A205265766965776572732063616E6E6F74206265206E756C6C PUSH1 0x44 DUP3 ADD MSTORE PUSH1 0x64 ADD PUSH2 0x6F7 JUMP JUMPDEST PUSH1 0x0 DUP9 MLOAD GT PUSH2 0x24A7 JUMPI PUSH1 0x40 MLOAD PUSH3 0x461BCD PUSH1 0xE5 SHL DUP2 MSTORE PUSH1 0x20 PUSH1 0x4 DUP3 ADD MSTORE PUSH1 0x24 DUP1 DUP3 ADD MSTORE PUSH32 0x4465726573793A20487970657263657274204944732063616E6E6F7420626520 PUSH1 0x44 DUP3 ADD MSTORE PUSH4 0x1B9D5B1B PUSH1 0xE2 SHL PUSH1 0x64 DUP3 ADD MSTORE PUSH1 0x84 ADD PUSH2 0x6F7 JUMP JUMPDEST PUSH1 0x0 DUP8 MLOAD GT PUSH2 0x250E JUMPI PUSH1 0x40 MLOAD PUSH3 0x461BCD PUSH1 0xE5 SHL DUP2 MSTORE PUSH1 0x20 PUSH1 0x4 DUP3 ADD MSTORE PUSH1 0x2D PUSH1 0x24 DUP3 ADD MSTORE PUSH32 0x4465726573793A20487970657263657274732049504653206861736865732063 PUSH1 0x44 DUP3 ADD MSTORE PUSH13 0x185B9B9BDD081899481B9D5B1B PUSH1 0x9A SHL PUSH1 0x64 DUP3 ADD MSTORE PUSH1 0x84 ADD PUSH2 0x6F7 JUMP JUMPDEST DUP7 MLOAD DUP9 MLOAD EQ PUSH2 0x259A JUMPI PUSH1 0x40 MLOAD PUSH3 0x461BCD PUSH1 0xE5 SHL DUP2 MSTORE PUSH1 0x20 PUSH1 0x4 DUP3 ADD MSTORE PUSH1 0x4C PUSH1 0x24 DUP3 ADD MSTORE PUSH32 0x4465726573793A2048797065726365727449447320616E642048797065726365 PUSH1 0x44 DUP3 ADD MSTORE PUSH32 0x727449504653486173686573206172726179206D757374206861766520746865 PUSH1 0x64 DUP3 ADD MSTORE PUSH12 0x40E6C2DACA40D8CADCCEE8D PUSH1 0xA3 SHL PUSH1 0x84 DUP3 ADD MSTORE PUSH1 0xA4 ADD PUSH2 0x6F7 JUMP JUMPDEST PUSH1 0x0 PUSH1 0xA DUP5 PUSH1 0x40 MLOAD PUSH2 0x25AC SWAP2 SWAP1 PUSH2 0x4D18 JUMP JUMPDEST SWAP1 DUP2 MSTORE PUSH1 0x40 MLOAD SWAP1 DUP2 SWAP1 SUB PUSH1 0x20 ADD SWAP1 KECCAK256 SLOAD GT PUSH2 0x2617 JUMPI PUSH1 0x40 MLOAD PUSH3 0x461BCD PUSH1 0xE5 SHL DUP2 MSTORE PUSH1 0x20 PUSH1 0x4 DUP3 ADD MSTORE PUSH1 0x25 PUSH1 0x24 DUP3 ADD MSTORE PUSH32 0x4465726573793A20526576696577466F726D4E616D6520646F6573206E6F7420 PUSH1 0x44 DUP3 ADD MSTORE PUSH5 0x195E1A5CDD PUSH1 0xDA SHL PUSH1 0x64 DUP3 ADD MSTORE PUSH1 0x84 ADD PUSH2 0x6F7 JUMP JUMPDEST PUSH1 0x0 PUSH1 0x1 PUSH1 0x1 PUSH1 0xA0 SHL SUB AND PUSH1 0x3 DUP13 PUSH1 0x40 MLOAD PUSH2 0x2632 SWAP2 SWAP1 PUSH2 0x4D18 JUMP JUMPDEST SWAP1 DUP2 MSTORE PUSH1 0x40 MLOAD SWAP1 DUP2 SWAP1 SUB PUSH1 0x20 ADD SWAP1 KECCAK256 SLOAD PUSH1 0x1 PUSH1 0x1 PUSH1 0xA0 SHL SUB AND EQ PUSH2 0x2698 JUMPI PUSH1 0x40 MLOAD PUSH3 0x461BCD PUSH1 0xE5 SHL DUP2 MSTORE PUSH1 0x20 PUSH1 0x4 DUP3 ADD MSTORE PUSH1 0x17 PUSH1 0x24 DUP3 ADD MSTORE PUSH32 0x4465726573793A204E616D65206475706C696361746564000000000000000000 PUSH1 0x44 DUP3 ADD MSTORE PUSH1 0x64 ADD PUSH2 0x6F7 JUMP JUMPDEST PUSH2 0x26A1 DUP3 PUSH2 0x1704 JUMP JUMPDEST PUSH2 0x26ED JUMPI PUSH1 0x40 MLOAD PUSH3 0x461BCD PUSH1 0xE5 SHL DUP2 MSTORE PUSH1 0x20 PUSH1 0x4 DUP3 ADD DUP2 SWAP1 MSTORE PUSH1 0x24 DUP3 ADD MSTORE PUSH32 0x4465726573793A20546F6B656E206973206E6F742077686974656C6973746564 PUSH1 0x44 DUP3 ADD MSTORE PUSH1 0x64 ADD PUSH2 0x6F7 JUMP JUMPDEST PUSH2 0x26F6 DUP9 PUSH2 0x2EF4 JUMP JUMPDEST PUSH2 0x2757 JUMPI PUSH1 0x40 MLOAD PUSH3 0x461BCD PUSH1 0xE5 SHL DUP2 MSTORE PUSH1 0x20 PUSH1 0x4 DUP3 ADD MSTORE PUSH1 0x2C PUSH1 0x24 DUP3 ADD MSTORE PUSH32 0x4465726573793A204F6E65206F72206D6F726520687970657263657274732061 PUSH1 0x44 DUP3 ADD MSTORE PUSH12 0x1C99481B9BDD081D985B1A59 PUSH1 0xA2 SHL PUSH1 0x64 DUP3 ADD MSTORE PUSH1 0x84 ADD PUSH2 0x6F7 JUMP JUMPDEST PUSH2 0x2760 DUP10 PUSH2 0x2FDC JUMP JUMPDEST PUSH2 0x27D2 JUMPI PUSH1 0x40 MLOAD PUSH3 0x461BCD PUSH1 0xE5 SHL DUP2 MSTORE PUSH1 0x20 PUSH1 0x4 DUP3 ADD MSTORE PUSH1 0x37 PUSH1 0x24 DUP3 ADD MSTORE PUSH32 0x4465726573793A204E6F7420616C6C20726576696577657220636F6E74726163 PUSH1 0x44 DUP3 ADD MSTORE PUSH32 0x7473206172652045524337323120636F6E747261637473000000000000000000 PUSH1 0x64 DUP3 ADD MSTORE PUSH1 0x84 ADD PUSH2 0x6F7 JUMP JUMPDEST PUSH1 0x0 DUP2 ISZERO PUSH2 0x29E1 JUMPI PUSH1 0x0 DUP7 GT PUSH2 0x285E JUMPI PUSH1 0x40 MLOAD PUSH3 0x461BCD PUSH1 0xE5 SHL DUP2 MSTORE PUSH1 0x20 PUSH1 0x4 DUP3 ADD MSTORE PUSH1 0x45 PUSH1 0x24 DUP3 ADD MSTORE PUSH32 0x4465726573793A20726577617264506572526576696577206D75737420626520 PUSH1 0x44 DUP3 ADD MSTORE PUSH32 0x67726561746572207468616E207A65726F20666F722070617961626C65207265 PUSH1 0x64 DUP3 ADD MSTORE PUSH5 0x1C5D595CDD PUSH1 0xDA SHL PUSH1 0x84 DUP3 ADD MSTORE PUSH1 0xA4 ADD PUSH2 0x6F7 JUMP JUMPDEST PUSH1 0x1 PUSH1 0x1 PUSH1 0xA0 SHL SUB DUP4 AND PUSH2 0x28DD JUMPI DUP6 DUP10 MLOAD DUP7 PUSH1 0xFF AND PUSH2 0x287D SWAP2 SWAP1 PUSH2 0x4F90 JUMP JUMPDEST PUSH2 0x2887 SWAP2 SWAP1 PUSH2 0x4F90 JUMP JUMPDEST CALLVALUE LT ISZERO PUSH2 0x28D6 JUMPI PUSH1 0x40 MLOAD PUSH3 0x461BCD PUSH1 0xE5 SHL DUP2 MSTORE PUSH1 0x20 PUSH1 0x4 DUP3 ADD MSTORE PUSH1 0x19 PUSH1 0x24 DUP3 ADD MSTORE PUSH32 0x4465726573793A206D73672E76616C756520696E76616C696400000000000000 PUSH1 0x44 DUP3 ADD MSTORE PUSH1 0x64 ADD PUSH2 0x6F7 JUMP JUMPDEST POP CALLVALUE PUSH2 0x2A55 JUMP JUMPDEST CALLVALUE ISZERO PUSH2 0x292B JUMPI PUSH1 0x40 MLOAD PUSH3 0x461BCD PUSH1 0xE5 SHL DUP2 MSTORE PUSH1 0x20 PUSH1 0x4 DUP3 ADD MSTORE PUSH1 0x1C PUSH1 0x24 DUP3 ADD MSTORE PUSH32 0x4465726573793A206D73672E76616C756520697320696E76616C696400000000 PUSH1 0x44 DUP3 ADD MSTORE PUSH1 0x64 ADD PUSH2 0x6F7 JUMP JUMPDEST DUP6 DUP10 MLOAD DUP7 PUSH1 0xFF AND PUSH2 0x293C SWAP2 SWAP1 PUSH2 0x4F90 JUMP JUMPDEST PUSH2 0x2946 SWAP2 SWAP1 PUSH2 0x4F90 JUMP JUMPDEST PUSH1 0x40 MLOAD PUSH4 0x23B872DD PUSH1 0xE0 SHL DUP2 MSTORE CALLER PUSH1 0x4 DUP3 ADD MSTORE ADDRESS PUSH1 0x24 DUP3 ADD MSTORE PUSH1 0x44 DUP2 ADD DUP3 SWAP1 MSTORE SWAP1 SWAP2 POP PUSH1 0x1 PUSH1 0x1 PUSH1 0xA0 SHL SUB DUP5 AND SWAP1 PUSH4 0x23B872DD SWAP1 PUSH1 0x64 ADD PUSH1 0x20 PUSH1 0x40 MLOAD DUP1 DUP4 SUB DUP2 PUSH1 0x0 DUP8 GAS CALL ISZERO DUP1 ISZERO PUSH2 0x299C JUMPI RETURNDATASIZE PUSH1 0x0 DUP1 RETURNDATACOPY RETURNDATASIZE PUSH1 0x0 REVERT JUMPDEST POP POP POP POP PUSH1 0x40 MLOAD RETURNDATASIZE PUSH1 0x1F NOT PUSH1 0x1F DUP3 ADD AND DUP3 ADD DUP1 PUSH1 0x40 MSTORE POP DUP2 ADD SWAP1 PUSH2 0x29C0 SWAP2 SWAP1 PUSH2 0x4FA7 JUMP JUMPDEST PUSH2 0x29DC JUMPI PUSH1 0x40 MLOAD PUSH3 0x461BCD PUSH1 0xE5 SHL DUP2 MSTORE PUSH1 0x4 ADD PUSH2 0x6F7 SWAP1 PUSH2 0x4FC4 JUMP JUMPDEST PUSH2 0x2A55 JUMP JUMPDEST DUP6 ISZERO PUSH2 0x2A55 JUMPI PUSH1 0x40 MLOAD PUSH3 0x461BCD PUSH1 0xE5 SHL DUP2 MSTORE PUSH1 0x20 PUSH1 0x4 DUP3 ADD MSTORE PUSH1 0x3C PUSH1 0x24 DUP3 ADD MSTORE PUSH32 0x4465726573793A20726577617264506572526576696577206D75737420626520 PUSH1 0x44 DUP3 ADD MSTORE PUSH32 0x7A65726F20666F72206E6F6E2D70617961626C65207265717565737400000000 PUSH1 0x64 DUP3 ADD MSTORE PUSH1 0x84 ADD PUSH2 0x6F7 JUMP JUMPDEST CALLER PUSH1 0x3 DUP14 PUSH1 0x40 MLOAD PUSH2 0x2A66 SWAP2 SWAP1 PUSH2 0x4D18 JUMP JUMPDEST SWAP1 DUP2 MSTORE PUSH1 0x40 MLOAD SWAP1 DUP2 SWAP1 SUB PUSH1 0x20 ADD DUP2 KECCAK256 DUP1 SLOAD PUSH1 0x1 PUSH1 0x1 PUSH1 0xA0 SHL SUB SWAP4 SWAP1 SWAP4 AND PUSH1 0x1 PUSH1 0x1 PUSH1 0xA0 SHL SUB NOT SWAP1 SWAP4 AND SWAP3 SWAP1 SWAP3 OR SWAP1 SWAP2 SSTORE DUP12 SWAP1 PUSH1 0x3 SWAP1 PUSH2 0x2AA6 SWAP1 DUP16 SWAP1 PUSH2 0x4D18 JUMP JUMPDEST SWAP1 DUP2 MSTORE PUSH1 0x20 ADD PUSH1 0x40 MLOAD DUP1 SWAP2 SUB SWAP1 KECCAK256 PUSH1 0x1 ADD SWAP1 DUP1 MLOAD SWAP1 PUSH1 0x20 ADD SWAP1 PUSH2 0x2ACA SWAP3 SWAP2 SWAP1 PUSH2 0x3EC6 JUMP JUMPDEST POP DUP10 PUSH1 0x3 DUP14 PUSH1 0x40 MLOAD PUSH2 0x2ADC SWAP2 SWAP1 PUSH2 0x4D18 JUMP JUMPDEST SWAP1 DUP2 MSTORE PUSH1 0x20 ADD PUSH1 0x40 MLOAD DUP1 SWAP2 SUB SWAP1 KECCAK256 PUSH1 0x2 ADD SWAP1 DUP1 MLOAD SWAP1 PUSH1 0x20 ADD SWAP1 PUSH2 0x2B00 SWAP3 SWAP2 SWAP1 PUSH2 0x3EC6 JUMP JUMPDEST POP DUP9 PUSH1 0x3 DUP14 PUSH1 0x40 MLOAD PUSH2 0x2B12 SWAP2 SWAP1 PUSH2 0x4D18 JUMP JUMPDEST SWAP1 DUP2 MSTORE PUSH1 0x20 ADD PUSH1 0x40 MLOAD DUP1 SWAP2 SUB SWAP1 KECCAK256 PUSH1 0x3 ADD SWAP1 DUP1 MLOAD SWAP1 PUSH1 0x20 ADD SWAP1 PUSH2 0x2B36 SWAP3 SWAP2 SWAP1 PUSH2 0x3F1B JUMP JUMPDEST POP DUP8 PUSH1 0x3 DUP14 PUSH1 0x40 MLOAD PUSH2 0x2B48 SWAP2 SWAP1 PUSH2 0x4D18 JUMP JUMPDEST SWAP1 DUP2 MSTORE PUSH1 0x20 ADD PUSH1 0x40 MLOAD DUP1 SWAP2 SUB SWAP1 KECCAK256 PUSH1 0x4 ADD SWAP1 DUP1 MLOAD SWAP1 PUSH1 0x20 ADD SWAP1 PUSH2 0x2B6C SWAP3 SWAP2 SWAP1 PUSH2 0x3D67 JUMP JUMPDEST POP DUP7 PUSH1 0x3 DUP14 PUSH1 0x40 MLOAD PUSH2 0x2B7E SWAP2 SWAP1 PUSH2 0x4D18 JUMP JUMPDEST SWAP1 DUP2 MSTORE PUSH1 0x20 ADD PUSH1 0x40 MLOAD DUP1 SWAP2 SUB SWAP1 KECCAK256 PUSH1 0x5 ADD SWAP1 DUP2 PUSH2 0x2B9B SWAP2 SWAP1 PUSH2 0x4E8F JUMP JUMPDEST POP DUP2 PUSH2 0x2BA8 JUMPI PUSH1 0x0 PUSH2 0x2BAA JUMP JUMPDEST DUP6 JUMPDEST PUSH1 0x3 DUP14 PUSH1 0x40 MLOAD PUSH2 0x2BBA SWAP2 SWAP1 PUSH2 0x4D18 JUMP JUMPDEST SWAP1 DUP2 MSTORE PUSH1 0x20 ADD PUSH1 0x40 MLOAD DUP1 SWAP2 SUB SWAP1 KECCAK256 PUSH1 0x6 ADD DUP2 SWAP1 SSTORE POP DUP5 PUSH1 0x3 DUP14 PUSH1 0x40 MLOAD PUSH2 0x2BE0 SWAP2 SWAP1 PUSH2 0x4D18 JUMP JUMPDEST SWAP1 DUP2 MSTORE PUSH1 0x20 ADD PUSH1 0x40 MLOAD DUP1 SWAP2 SUB SWAP1 KECCAK256 PUSH1 0x7 ADD PUSH1 0x0 PUSH2 0x100 EXP DUP2 SLOAD DUP2 PUSH1 0xFF MUL NOT AND SWAP1 DUP4 PUSH1 0xFF AND MUL OR SWAP1 SSTORE POP PUSH1 0x0 PUSH1 0x3 DUP14 PUSH1 0x40 MLOAD PUSH2 0x2C1B SWAP2 SWAP1 PUSH2 0x4D18 JUMP JUMPDEST SWAP1 DUP2 MSTORE PUSH1 0x40 MLOAD SWAP1 DUP2 SWAP1 SUB PUSH1 0x20 ADD DUP2 KECCAK256 PUSH1 0x9 ADD DUP1 SLOAD SWAP3 ISZERO ISZERO PUSH1 0xFF NOT SWAP1 SWAP4 AND SWAP3 SWAP1 SWAP3 OR SWAP1 SWAP2 SSTORE DUP4 SWAP1 PUSH1 0x3 SWAP1 PUSH2 0x2C4F SWAP1 DUP16 SWAP1 PUSH2 0x4D18 JUMP JUMPDEST SWAP1 DUP2 MSTORE PUSH1 0x20 ADD PUSH1 0x40 MLOAD DUP1 SWAP2 SUB SWAP1 KECCAK256 PUSH1 0x9 ADD PUSH1 0x1 PUSH2 0x100 EXP DUP2 SLOAD DUP2 PUSH1 0x1 PUSH1 0x1 PUSH1 0xA0 SHL SUB MUL NOT AND SWAP1 DUP4 PUSH1 0x1 PUSH1 0x1 PUSH1 0xA0 SHL SUB AND MUL OR SWAP1 SSTORE POP DUP2 PUSH2 0x2C90 JUMPI PUSH1 0x0 PUSH2 0x2C92 JUMP JUMPDEST DUP1 JUMPDEST PUSH1 0x3 DUP14 PUSH1 0x40 MLOAD PUSH2 0x2CA2 SWAP2 SWAP1 PUSH2 0x4D18 JUMP JUMPDEST SWAP1 DUP2 MSTORE PUSH1 0x20 ADD PUSH1 0x40 MLOAD DUP1 SWAP2 SUB SWAP1 KECCAK256 PUSH1 0xA ADD DUP2 SWAP1 SSTORE POP DUP4 PUSH1 0x3 DUP14 PUSH1 0x40 MLOAD PUSH2 0x2CC8 SWAP2 SWAP1 PUSH2 0x4D18 JUMP JUMPDEST SWAP1 DUP2 MSTORE PUSH1 0x20 ADD PUSH1 0x40 MLOAD DUP1 SWAP2 SUB SWAP1 KECCAK256 PUSH1 0xB ADD SWAP1 DUP2 PUSH2 0x2CE5 SWAP2 SWAP1 PUSH2 0x4E8F JUMP JUMPDEST POP PUSH1 0x7 DUP1 SLOAD PUSH1 0x1 DUP2 ADD DUP3 SSTORE PUSH1 0x0 SWAP2 SWAP1 SWAP2 MSTORE PUSH32 0xA66CC928B5EDB82AF9BD49922954155AB7B0942694BEA4CE44661D9A8736C688 ADD PUSH2 0x2D22 DUP14 DUP3 PUSH2 0x4E8F JUMP JUMPDEST POP PUSH32 0x448FEABBF5BB385EB3EA2CB16D90B1CB3B4C8936E399CF7A10E7B8946EEC667 DUP13 PUSH1 0x40 MLOAD PUSH2 0x2D52 SWAP2 SWAP1 PUSH2 0x4473 JUMP JUMPDEST PUSH1 0x40 MLOAD DUP1 SWAP2 SUB SWAP1 LOG1 POP POP POP POP POP POP POP POP POP POP POP POP JUMP JUMPDEST PUSH1 0x60 PUSH1 0x0 PUSH2 0x2D75 DUP4 PUSH2 0x302A JUMP JUMPDEST PUSH1 0x1 ADD SWAP1 POP PUSH1 0x0 DUP2 PUSH1 0x1 PUSH1 0x1 PUSH1 0x40 SHL SUB DUP2 GT ISZERO PUSH2 0x2D94 JUMPI PUSH2 0x2D94 PUSH2 0x4051 JUMP JUMPDEST PUSH1 0x40 MLOAD SWAP1 DUP1 DUP3 MSTORE DUP1 PUSH1 0x1F ADD PUSH1 0x1F NOT AND PUSH1 0x20 ADD DUP3 ADD PUSH1 0x40 MSTORE DUP1 ISZERO PUSH2 0x2DBE JUMPI PUSH1 0x20 DUP3 ADD DUP2 DUP1 CALLDATASIZE DUP4 CALLDATACOPY ADD SWAP1 POP JUMPDEST POP SWAP1 POP DUP2 DUP2 ADD PUSH1 0x20 ADD JUMPDEST PUSH1 0x0 NOT ADD PUSH16 0x181899199A1A9B1B9C1CB0B131B232B3 PUSH1 0x81 SHL PUSH1 0xA DUP7 MOD BYTE DUP2 MSTORE8 PUSH1 0xA DUP6 DIV SWAP5 POP DUP5 PUSH2 0x2DC8 JUMPI POP SWAP4 SWAP3 POP POP POP JUMP JUMPDEST PUSH1 0x0 DUP1 SLOAD PUSH1 0x1 PUSH1 0x1 PUSH1 0xA0 SHL SUB DUP4 DUP2 AND PUSH1 0x1 PUSH1 0x1 PUSH1 0xA0 SHL SUB NOT DUP4 AND DUP2 OR DUP5 SSTORE PUSH1 0x40 MLOAD SWAP2 SWAP1 SWAP3 AND SWAP3 DUP4 SWAP2 PUSH32 0x8BE0079C531659141344CD1FD0A4F28419497F9722A3DAAFE3B4186F6B6457E0 SWAP2 SWAP1 LOG3 POP POP JUMP JUMPDEST CALLER PUSH1 0x1 PUSH1 0x1 PUSH1 0xA0 SHL SUB PUSH32 0x0 AND EQ PUSH2 0x91E JUMPI PUSH1 0x40 MLOAD PUSH4 0x4CA88867 PUSH1 0xE0 SHL DUP2 MSTORE PUSH1 0x4 ADD PUSH1 0x40 MLOAD DUP1 SWAP2 SUB SWAP1 REVERT JUMPDEST PUSH1 0x9 SLOAD PUSH1 0x0 SWAP1 PUSH1 0xFF AND ISZERO PUSH2 0x2EB9 JUMPI PUSH1 0x40 MLOAD PUSH3 0x461BCD PUSH1 0xE5 SHL DUP2 MSTORE PUSH1 0x4 ADD PUSH2 0x6F7 SWAP1 PUSH2 0x4C92 JUMP JUMPDEST PUSH1 0x4 SLOAD DUP4 PUSH1 0x20 ADD CALLDATALOAD SUB PUSH2 0x2ED6 JUMPI PUSH2 0x2ECF DUP4 PUSH2 0x3102 JUMP JUMPDEST SWAP1 POP PUSH2 0x6CE JUMP JUMPDEST PUSH1 0x5 SLOAD DUP4 PUSH1 0x20 ADD CALLDATALOAD SUB PUSH2 0x2EEC JUMPI PUSH2 0x2ECF DUP4 PUSH2 0x35BF JUMP JUMPDEST POP PUSH1 0x0 PUSH2 0x6CE JUMP JUMPDEST PUSH1 0x9 SLOAD PUSH1 0x0 SWAP1 PUSH2 0x100 SWAP1 DIV PUSH1 0xFF AND ISZERO PUSH2 0x2FD4 JUMPI PUSH1 0x0 JUMPDEST DUP3 MLOAD DUP2 LT ISZERO PUSH2 0x2FD2 JUMPI PUSH1 0x2 SLOAD DUP4 MLOAD PUSH1 0x0 SWAP2 PUSH1 0x1 PUSH1 0x1 PUSH1 0xA0 SHL SUB AND SWAP1 PUSH4 0xE89341C SWAP1 DUP7 SWAP1 DUP6 SWAP1 DUP2 LT PUSH2 0x2F3D JUMPI PUSH2 0x2F3D PUSH2 0x4D6E JUMP JUMPDEST PUSH1 0x20 MUL PUSH1 0x20 ADD ADD MLOAD PUSH1 0x40 MLOAD DUP3 PUSH4 0xFFFFFFFF AND PUSH1 0xE0 SHL DUP2 MSTORE PUSH1 0x4 ADD PUSH2 0x2F63 SWAP2 DUP2 MSTORE PUSH1 0x20 ADD SWAP1 JUMP JUMPDEST PUSH1 0x0 PUSH1 0x40 MLOAD DUP1 DUP4 SUB DUP2 PUSH1 0x0 DUP8 GAS CALL ISZERO DUP1 ISZERO PUSH2 0x2F82 JUMPI RETURNDATASIZE PUSH1 0x0 DUP1 RETURNDATACOPY RETURNDATASIZE PUSH1 0x0 REVERT JUMPDEST POP POP POP POP PUSH1 0x40 MLOAD RETURNDATASIZE PUSH1 0x0 DUP3 RETURNDATACOPY PUSH1 0x1F RETURNDATASIZE SWAP1 DUP2 ADD PUSH1 0x1F NOT AND DUP3 ADD PUSH1 0x40 MSTORE PUSH2 0x2FAA SWAP2 SWAP1 DUP2 ADD SWAP1 PUSH2 0x5007 JUMP JUMPDEST SWAP1 POP DUP1 MLOAD PUSH1 0x0 SUB PUSH2 0x2FBF JUMPI POP PUSH1 0x0 SWAP4 SWAP3 POP POP POP JUMP JUMPDEST POP DUP1 PUSH2 0x2FCA DUP2 PUSH2 0x4E27 JUMP JUMPDEST SWAP2 POP POP PUSH2 0x2F0A JUMP JUMPDEST POP JUMPDEST POP PUSH1 0x1 SWAP2 SWAP1 POP JUMP JUMPDEST PUSH1 0x0 DUP1 JUMPDEST DUP3 MLOAD DUP2 LT ISZERO PUSH2 0x2FD2 JUMPI PUSH2 0x300B DUP4 DUP3 DUP2 MLOAD DUP2 LT PUSH2 0x2FFE JUMPI PUSH2 0x2FFE PUSH2 0x4D6E JUMP JUMPDEST PUSH1 0x20 MUL PUSH1 0x20 ADD ADD MLOAD PUSH2 0x382A JUMP JUMPDEST PUSH2 0x3018 JUMPI POP PUSH1 0x0 SWAP3 SWAP2 POP POP JUMP JUMPDEST DUP1 PUSH2 0x3022 DUP2 PUSH2 0x4E27 JUMP JUMPDEST SWAP2 POP POP PUSH2 0x2FE0 JUMP JUMPDEST PUSH1 0x0 DUP1 PUSH19 0x184F03E93FF9F4DAA797ED6E38ED64BF6A1F01 PUSH1 0x40 SHL DUP4 LT PUSH2 0x3069 JUMPI PUSH19 0x184F03E93FF9F4DAA797ED6E38ED64BF6A1F01 PUSH1 0x40 SHL DUP4 DIV SWAP3 POP PUSH1 0x40 ADD JUMPDEST PUSH14 0x4EE2D6D415B85ACEF8100000000 DUP4 LT PUSH2 0x3095 JUMPI PUSH14 0x4EE2D6D415B85ACEF8100000000 DUP4 DIV SWAP3 POP PUSH1 0x20 ADD JUMPDEST PUSH7 0x2386F26FC10000 DUP4 LT PUSH2 0x30B3 JUMPI PUSH7 0x2386F26FC10000 DUP4 DIV SWAP3 POP PUSH1 0x10 ADD JUMPDEST PUSH4 0x5F5E100 DUP4 LT PUSH2 0x30CB JUMPI PUSH4 0x5F5E100 DUP4 DIV SWAP3 POP PUSH1 0x8 ADD JUMPDEST PUSH2 0x2710 DUP4 LT PUSH2 0x30DF JUMPI PUSH2 0x2710 DUP4 DIV SWAP3 POP PUSH1 0x4 ADD JUMPDEST PUSH1 0x64 DUP4 LT PUSH2 0x30F1 JUMPI PUSH1 0x64 DUP4 DIV SWAP3 POP PUSH1 0x2 ADD JUMPDEST PUSH1 0xA DUP4 LT PUSH2 0x6CE JUMPI PUSH1 0x1 ADD SWAP3 SWAP2 POP POP JUMP JUMPDEST PUSH1 0x0 DUP1 DUP1 DUP1 PUSH2 0x3115 PUSH2 0x120 DUP7 ADD DUP7 PUSH2 0x507D JUMP JUMPDEST DUP2 ADD SWAP1 PUSH2 0x3122 SWAP2 SWAP1 PUSH2 0x50C3 JUMP JUMPDEST POP POP POP POP POP POP POP POP SWAP3 POP SWAP3 POP SWAP3 POP PUSH1 0x0 PUSH1 0x3 DUP5 PUSH1 0x40 MLOAD PUSH2 0x3142 SWAP2 SWAP1 PUSH2 0x4D18 JUMP JUMPDEST SWAP1 DUP2 MSTORE PUSH1 0x20 ADD PUSH1 0x40 MLOAD DUP1 SWAP2 SUB SWAP1 KECCAK256 SWAP1 POP PUSH1 0x0 PUSH1 0xA DUP3 PUSH1 0xB ADD PUSH1 0x40 MLOAD PUSH2 0x3167 SWAP2 SWAP1 PUSH2 0x4D9B JUMP JUMPDEST SWAP1 DUP2 MSTORE PUSH1 0x40 MLOAD SWAP1 DUP2 SWAP1 SUB PUSH1 0x20 ADD SWAP1 KECCAK256 SWAP1 POP PUSH1 0x0 PUSH2 0x318B PUSH2 0x100 DUP10 ADD PUSH1 0xE0 DUP11 ADD PUSH2 0x4486 JUMP JUMPDEST PUSH1 0x6 DUP5 ADD SLOAD SWAP1 SWAP2 POP DUP9 CALLDATALOAD SWAP1 ISZERO PUSH2 0x320D JUMPI PUSH1 0x7 DUP5 ADD SLOAD PUSH1 0xFF AND PUSH2 0x31AD DUP9 DUP9 PUSH2 0x38A0 JUMP JUMPDEST LT PUSH2 0x320D JUMPI PUSH1 0x40 MLOAD PUSH3 0x461BCD PUSH1 0xE5 SHL DUP2 MSTORE PUSH1 0x20 PUSH1 0x4 DUP3 ADD MSTORE PUSH1 0x2A PUSH1 0x24 DUP3 ADD MSTORE PUSH32 0x4465726573793A204D6178207265766965777320706572206879706572636572 PUSH1 0x44 DUP3 ADD MSTORE PUSH10 0x1D08195E18D959591959 PUSH1 0xB2 SHL PUSH1 0x64 DUP3 ADD MSTORE PUSH1 0x84 ADD PUSH2 0x6F7 JUMP JUMPDEST PUSH1 0x9 DUP5 ADD SLOAD PUSH1 0x0 SWAP1 PUSH1 0xFF AND ISZERO DUP1 ISZERO PUSH2 0x327C JUMPI POP PUSH2 0x327C DUP6 PUSH1 0x3 ADD DUP1 SLOAD DUP1 PUSH1 0x20 MUL PUSH1 0x20 ADD PUSH1 0x40 MLOAD SWAP1 DUP2 ADD PUSH1 0x40 MSTORE DUP1 SWAP3 SWAP2 SWAP1 DUP2 DUP2 MSTORE PUSH1 0x20 ADD DUP3 DUP1 SLOAD DUP1 ISZERO PUSH2 0x3271 JUMPI PUSH1 0x20 MUL DUP3 ADD SWAP2 SWAP1 PUSH1 0x0 MSTORE PUSH1 0x20 PUSH1 0x0 KECCAK256 SWAP1 JUMPDEST DUP2 SLOAD DUP2 MSTORE PUSH1 0x20 ADD SWAP1 PUSH1 0x1 ADD SWAP1 DUP1 DUP4 GT PUSH2 0x325D JUMPI JUMPDEST POP POP POP POP POP DUP9 PUSH2 0x3941 JUMP JUMPDEST DUP1 ISZERO PUSH2 0x3289 JUMPI POP DUP6 MLOAD DUP5 SLOAD EQ JUMPDEST DUP1 ISZERO PUSH2 0x329A JUMPI POP PUSH2 0x329A DUP4 DUP10 PUSH2 0x21D5 JUMP JUMPDEST DUP1 ISZERO PUSH2 0x32AC JUMPI POP PUSH2 0x32AC DUP4 DUP10 DUP10 PUSH2 0x398A JUMP JUMPDEST DUP1 ISZERO PUSH2 0x32BD JUMPI POP PUSH2 0x32BD DUP5 DUP8 PUSH2 0x3A84 JUMP JUMPDEST SWAP1 POP DUP1 ISZERO PUSH2 0x35B2 JUMPI DUP5 PUSH1 0x8 ADD PUSH1 0x40 MLOAD DUP1 PUSH1 0x80 ADD PUSH1 0x40 MSTORE DUP1 DUP6 PUSH1 0x1 PUSH1 0x1 PUSH1 0xA0 SHL SUB AND DUP2 MSTORE PUSH1 0x20 ADD DUP10 DUP2 MSTORE PUSH1 0x20 ADD DUP5 DUP2 MSTORE PUSH1 0x20 ADD PUSH1 0x0 PUSH1 0x1 PUSH1 0x1 PUSH1 0x40 SHL SUB DUP2 GT ISZERO PUSH2 0x3308 JUMPI PUSH2 0x3308 PUSH2 0x4051 JUMP JUMPDEST PUSH1 0x40 MLOAD SWAP1 DUP1 DUP3 MSTORE DUP1 PUSH1 0x20 MUL PUSH1 0x20 ADD DUP3 ADD PUSH1 0x40 MSTORE DUP1 ISZERO PUSH2 0x3331 JUMPI DUP2 PUSH1 0x20 ADD PUSH1 0x20 DUP3 MUL DUP1 CALLDATASIZE DUP4 CALLDATACOPY ADD SWAP1 POP JUMPDEST POP SWAP1 MSTORE DUP2 SLOAD PUSH1 0x1 DUP1 DUP3 ADD DUP5 SSTORE PUSH1 0x0 SWAP4 DUP5 MSTORE PUSH1 0x20 SWAP4 DUP5 SWAP1 KECCAK256 DUP4 MLOAD PUSH1 0x4 SWAP1 SWAP4 MUL ADD DUP1 SLOAD PUSH1 0x1 PUSH1 0x1 PUSH1 0xA0 SHL SUB NOT AND PUSH1 0x1 PUSH1 0x1 PUSH1 0xA0 SHL SUB SWAP1 SWAP4 AND SWAP3 SWAP1 SWAP3 OR DUP3 SSTORE DUP3 DUP5 ADD MLOAD SWAP1 DUP3 ADD SSTORE PUSH1 0x40 DUP3 ADD MLOAD PUSH1 0x2 DUP3 ADD SSTORE PUSH1 0x60 DUP3 ADD MLOAD DUP1 MLOAD SWAP3 SWAP4 SWAP2 SWAP3 PUSH2 0x339A SWAP3 PUSH1 0x3 DUP6 ADD SWAP3 ADD SWAP1 PUSH2 0x3F1B JUMP JUMPDEST POP POP POP PUSH1 0x6 DUP6 ADD SLOAD ISZERO PUSH2 0x34B9 JUMPI DUP5 PUSH1 0x6 ADD SLOAD DUP6 PUSH1 0xA ADD PUSH1 0x0 DUP3 DUP3 SLOAD PUSH2 0x33BF SWAP2 SWAP1 PUSH2 0x4F4E JUMP JUMPDEST SWAP1 SWAP2 SSTORE POP POP PUSH1 0x9 DUP6 ADD SLOAD PUSH2 0x100 SWAP1 DIV PUSH1 0x1 PUSH1 0x1 PUSH1 0xA0 SHL SUB AND PUSH2 0x341A JUMPI PUSH1 0x6 DUP6 ADD SLOAD PUSH1 0x40 MLOAD PUSH1 0x1 PUSH1 0x1 PUSH1 0xA0 SHL SUB DUP6 AND SWAP2 DUP1 ISZERO PUSH2 0x8FC MUL SWAP2 PUSH1 0x0 DUP2 DUP2 DUP2 DUP6 DUP9 DUP9 CALL SWAP4 POP POP POP POP ISZERO DUP1 ISZERO PUSH2 0x3414 JUMPI RETURNDATASIZE PUSH1 0x0 DUP1 RETURNDATACOPY RETURNDATASIZE PUSH1 0x0 REVERT JUMPDEST POP PUSH2 0x34B9 JUMP JUMPDEST PUSH1 0x9 DUP6 ADD SLOAD PUSH1 0x6 DUP7 ADD SLOAD PUSH1 0x40 MLOAD PUSH4 0xA9059CBB PUSH1 0xE0 SHL DUP2 MSTORE PUSH1 0x1 PUSH1 0x1 PUSH1 0xA0 SHL SUB DUP7 DUP2 AND PUSH1 0x4 DUP4 ADD MSTORE PUSH1 0x24 DUP3 ADD SWAP3 SWAP1 SWAP3 MSTORE PUSH2 0x100 SWAP1 SWAP3 DIV AND SWAP1 PUSH4 0xA9059CBB SWAP1 PUSH1 0x44 ADD PUSH1 0x20 PUSH1 0x40 MLOAD DUP1 DUP4 SUB DUP2 PUSH1 0x0 DUP8 GAS CALL ISZERO DUP1 ISZERO PUSH2 0x3479 JUMPI RETURNDATASIZE PUSH1 0x0 DUP1 RETURNDATACOPY RETURNDATASIZE PUSH1 0x0 REVERT JUMPDEST POP POP POP POP PUSH1 0x40 MLOAD RETURNDATASIZE PUSH1 0x1F NOT PUSH1 0x1F DUP3 ADD AND DUP3 ADD DUP1 PUSH1 0x40 MSTORE POP DUP2 ADD SWAP1 PUSH2 0x349D SWAP2 SWAP1 PUSH2 0x4FA7 JUMP JUMPDEST PUSH2 0x34B9 JUMPI PUSH1 0x40 MLOAD PUSH3 0x461BCD PUSH1 0xE5 SHL DUP2 MSTORE PUSH1 0x4 ADD PUSH2 0x6F7 SWAP1 PUSH2 0x4FC4 JUMP JUMPDEST PUSH1 0x1 SLOAD PUSH1 0x1 PUSH1 0x1 PUSH1 0xA0 SHL SUB AND ISZERO PUSH2 0x357A JUMPI PUSH1 0x1 SLOAD PUSH1 0x40 MLOAD PUSH4 0xBB69AB33 PUSH1 0xE0 SHL DUP2 MSTORE PUSH1 0x1 PUSH1 0x1 PUSH1 0xA0 SHL SUB SWAP1 SWAP2 AND SWAP1 PUSH4 0xBB69AB33 SWAP1 PUSH2 0x34FC SWAP1 DUP14 SWAP1 DUP13 SWAP1 PUSH1 0x4 ADD PUSH2 0x52E8 JUMP JUMPDEST PUSH1 0x20 PUSH1 0x40 MLOAD DUP1 DUP4 SUB DUP2 PUSH1 0x0 DUP8 GAS CALL ISZERO DUP1 ISZERO PUSH2 0x351B JUMPI RETURNDATASIZE PUSH1 0x0 DUP1 RETURNDATACOPY RETURNDATASIZE PUSH1 0x0 REVERT JUMPDEST POP POP POP POP PUSH1 0x40 MLOAD RETURNDATASIZE PUSH1 0x1F NOT PUSH1 0x1F DUP3 ADD AND DUP3 ADD DUP1 PUSH1 0x40 MSTORE POP DUP2 ADD SWAP1 PUSH2 0x353F SWAP2 SWAP1 PUSH2 0x4FA7 JUMP JUMPDEST POP PUSH32 0x253A8677ADAEC417DAE20224E9F7EB1182AED5A01B1938114CB310CD5C5D954D DUP11 DUP10 PUSH1 0x40 MLOAD PUSH2 0x3571 SWAP3 SWAP2 SWAP1 PUSH2 0x52E8 JUMP JUMPDEST PUSH1 0x40 MLOAD DUP1 SWAP2 SUB SWAP1 LOG1 JUMPDEST PUSH32 0x4D6DD501DF538F815F442947C933FC2F545525E75F909B918A6D0701ACC7904C DUP9 PUSH1 0x40 MLOAD PUSH2 0x35A9 SWAP2 SWAP1 PUSH2 0x4473 JUMP JUMPDEST PUSH1 0x40 MLOAD DUP1 SWAP2 SUB SWAP1 LOG1 JUMPDEST SWAP10 SWAP9 POP POP POP POP POP POP POP POP POP JUMP JUMPDEST PUSH1 0x0 DUP1 DUP1 DUP1 PUSH2 0x35D2 PUSH2 0x120 DUP7 ADD DUP7 PUSH2 0x507D JUMP JUMPDEST DUP2 ADD SWAP1 PUSH2 0x35DF SWAP2 SWAP1 PUSH2 0x53FC JUMP JUMPDEST POP POP SWAP3 POP SWAP3 POP SWAP3 POP PUSH1 0x0 PUSH1 0x3 DUP5 PUSH1 0x40 MLOAD PUSH2 0x35F9 SWAP2 SWAP1 PUSH2 0x4D18 JUMP JUMPDEST SWAP1 DUP2 MSTORE PUSH1 0x40 MLOAD SWAP1 DUP2 SWAP1 SUB PUSH1 0x20 ADD SWAP1 KECCAK256 PUSH1 0x8 DUP2 ADD SLOAD SWAP1 SWAP2 POP ISZERO PUSH2 0x381E JUMPI PUSH1 0x0 JUMPDEST PUSH1 0x8 DUP3 ADD SLOAD DUP2 LT ISZERO PUSH2 0x381C JUMPI DUP7 PUSH1 0xA0 ADD CALLDATALOAD DUP3 PUSH1 0x8 ADD DUP3 DUP2 SLOAD DUP2 LT PUSH2 0x363E JUMPI PUSH2 0x363E PUSH2 0x4D6E JUMP JUMPDEST SWAP1 PUSH1 0x0 MSTORE PUSH1 0x20 PUSH1 0x0 KECCAK256 SWAP1 PUSH1 0x4 MUL ADD PUSH1 0x2 ADD SLOAD EQ DUP1 ISZERO PUSH2 0x36A3 JUMPI POP PUSH2 0x3669 PUSH2 0x100 DUP9 ADD PUSH1 0xE0 DUP10 ADD PUSH2 0x4486 JUMP JUMPDEST PUSH1 0x1 PUSH1 0x1 PUSH1 0xA0 SHL SUB AND DUP3 PUSH1 0x8 ADD DUP3 DUP2 SLOAD DUP2 LT PUSH2 0x3687 JUMPI PUSH2 0x3687 PUSH2 0x4D6E JUMP JUMPDEST PUSH1 0x0 SWAP2 DUP3 MSTORE PUSH1 0x20 SWAP1 SWAP2 KECCAK256 PUSH1 0x4 SWAP1 SWAP2 MUL ADD SLOAD PUSH1 0x1 PUSH1 0x1 PUSH1 0xA0 SHL SUB AND EQ JUMPDEST DUP1 ISZERO PUSH2 0x36B0 JUMPI POP PUSH1 0x0 DUP4 MLOAD GT JUMPDEST DUP1 ISZERO PUSH2 0x36E1 JUMPI POP DUP4 DUP3 PUSH1 0x8 ADD DUP3 DUP2 SLOAD DUP2 LT PUSH2 0x36CD JUMPI PUSH2 0x36CD PUSH2 0x4D6E JUMP JUMPDEST SWAP1 PUSH1 0x0 MSTORE PUSH1 0x20 PUSH1 0x0 KECCAK256 SWAP1 PUSH1 0x4 MUL ADD PUSH1 0x1 ADD SLOAD EQ JUMPDEST ISZERO PUSH2 0x380A JUMPI PUSH1 0x0 DUP1 JUMPDEST DUP4 PUSH1 0x8 ADD DUP4 DUP2 SLOAD DUP2 LT PUSH2 0x36FF JUMPI PUSH2 0x36FF PUSH2 0x4D6E JUMP JUMPDEST SWAP1 PUSH1 0x0 MSTORE PUSH1 0x20 PUSH1 0x0 KECCAK256 SWAP1 PUSH1 0x4 MUL ADD PUSH1 0x3 ADD DUP1 SLOAD SWAP1 POP DUP2 LT ISZERO PUSH2 0x3782 JUMPI DUP9 PUSH1 0x0 ADD CALLDATALOAD DUP5 PUSH1 0x8 ADD DUP5 DUP2 SLOAD DUP2 LT PUSH2 0x3735 JUMPI PUSH2 0x3735 PUSH2 0x4D6E JUMP JUMPDEST SWAP1 PUSH1 0x0 MSTORE PUSH1 0x20 PUSH1 0x0 KECCAK256 SWAP1 PUSH1 0x4 MUL ADD PUSH1 0x3 ADD DUP3 DUP2 SLOAD DUP2 LT PUSH2 0x3757 JUMPI PUSH2 0x3757 PUSH2 0x4D6E JUMP JUMPDEST SWAP1 PUSH1 0x0 MSTORE PUSH1 0x20 PUSH1 0x0 KECCAK256 ADD SLOAD SUB PUSH2 0x3770 JUMPI PUSH1 0x1 SWAP2 POP PUSH2 0x3782 JUMP JUMPDEST DUP1 PUSH2 0x377A DUP2 PUSH2 0x4E27 JUMP JUMPDEST SWAP2 POP POP PUSH2 0x36EA JUMP JUMPDEST POP DUP1 PUSH2 0x3808 JUMPI DUP3 PUSH1 0x8 ADD DUP3 DUP2 SLOAD DUP2 LT PUSH2 0x379D JUMPI PUSH2 0x379D PUSH2 0x4D6E JUMP JUMPDEST PUSH1 0x0 SWAP2 DUP3 MSTORE PUSH1 0x20 DUP1 DUP4 KECCAK256 PUSH1 0x4 SWAP3 SWAP1 SWAP3 MUL SWAP1 SWAP2 ADD PUSH1 0x3 ADD DUP1 SLOAD PUSH1 0x1 DUP2 ADD DUP3 SSTORE SWAP1 DUP4 MSTORE SWAP2 DUP2 SWAP1 KECCAK256 DUP11 CALLDATALOAD SWAP3 ADD DUP3 SWAP1 SSTORE PUSH1 0x40 MLOAD SWAP2 DUP3 MSTORE PUSH32 0xEE28E94AC55844F79E4A8805659E8F6DED6BFE24B7EBE0570DEB71C158EC9433 SWAP2 ADD PUSH1 0x40 MLOAD DUP1 SWAP2 SUB SWAP1 LOG1 POP PUSH1 0x1 SWAP8 SWAP7 POP POP POP POP POP POP POP JUMP JUMPDEST POP JUMPDEST DUP1 PUSH2 0x3814 DUP2 PUSH2 0x4E27 JUMP JUMPDEST SWAP2 POP POP PUSH2 0x3618 JUMP JUMPDEST POP JUMPDEST POP PUSH1 0x0 SWAP6 SWAP5 POP POP POP POP POP JUMP JUMPDEST PUSH1 0x40 MLOAD PUSH4 0x1FFC9A7 PUSH1 0xE0 SHL DUP2 MSTORE PUSH4 0x80AC58CD PUSH1 0xE0 SHL PUSH1 0x4 DUP3 ADD MSTORE PUSH1 0x0 SWAP1 PUSH1 0x1 PUSH1 0x1 PUSH1 0xA0 SHL SUB DUP4 AND SWAP1 PUSH4 0x1FFC9A7 SWAP1 PUSH1 0x24 ADD PUSH1 0x20 PUSH1 0x40 MLOAD DUP1 DUP4 SUB DUP2 DUP7 GAS STATICCALL SWAP3 POP POP POP DUP1 ISZERO PUSH2 0x3894 JUMPI POP PUSH1 0x40 DUP1 MLOAD PUSH1 0x1F RETURNDATASIZE SWAP1 DUP2 ADD PUSH1 0x1F NOT AND DUP3 ADD SWAP1 SWAP3 MSTORE PUSH2 0x3891 SWAP2 DUP2 ADD SWAP1 PUSH2 0x4FA7 JUMP JUMPDEST PUSH1 0x1 JUMPDEST PUSH2 0x6CE JUMPI POP PUSH1 0x0 SWAP2 SWAP1 POP JUMP JUMPDEST PUSH1 0x0 DUP1 DUP1 JUMPDEST PUSH1 0x3 DUP6 PUSH1 0x40 MLOAD PUSH2 0x38B5 SWAP2 SWAP1 PUSH2 0x4D18 JUMP JUMPDEST SWAP1 DUP2 MSTORE PUSH1 0x40 MLOAD SWAP1 DUP2 SWAP1 SUB PUSH1 0x20 ADD SWAP1 KECCAK256 PUSH1 0x8 ADD SLOAD DUP2 LT ISZERO PUSH2 0x3939 JUMPI DUP4 PUSH1 0x3 DUP7 PUSH1 0x40 MLOAD PUSH2 0x38E0 SWAP2 SWAP1 PUSH2 0x4D18 JUMP JUMPDEST SWAP1 DUP2 MSTORE PUSH1 0x20 ADD PUSH1 0x40 MLOAD DUP1 SWAP2 SUB SWAP1 KECCAK256 PUSH1 0x8 ADD DUP3 DUP2 SLOAD DUP2 LT PUSH2 0x3902 JUMPI PUSH2 0x3902 PUSH2 0x4D6E JUMP JUMPDEST SWAP1 PUSH1 0x0 MSTORE PUSH1 0x20 PUSH1 0x0 KECCAK256 SWAP1 PUSH1 0x4 MUL ADD PUSH1 0x1 ADD SLOAD SUB PUSH2 0x3927 JUMPI DUP2 PUSH2 0x3923 DUP2 PUSH2 0x4E27 JUMP JUMPDEST SWAP3 POP POP JUMPDEST DUP1 PUSH2 0x3931 DUP2 PUSH2 0x4E27 JUMP JUMPDEST SWAP2 POP POP PUSH2 0x38A5 JUMP JUMPDEST POP SWAP4 SWAP3 POP POP POP JUMP JUMPDEST PUSH1 0x0 DUP1 JUMPDEST DUP4 MLOAD DUP2 LT ISZERO PUSH2 0x237E JUMPI DUP3 DUP5 DUP3 DUP2 MLOAD DUP2 LT PUSH2 0x3961 JUMPI PUSH2 0x3961 PUSH2 0x4D6E JUMP JUMPDEST PUSH1 0x20 MUL PUSH1 0x20 ADD ADD MLOAD SUB PUSH2 0x3978 JUMPI PUSH1 0x1 SWAP2 POP POP PUSH2 0x6CE JUMP JUMPDEST DUP1 PUSH2 0x3982 DUP2 PUSH2 0x4E27 JUMP JUMPDEST SWAP2 POP POP PUSH2 0x3945 JUMP JUMPDEST PUSH1 0x0 PUSH1 0x1 DUP2 JUMPDEST PUSH1 0x3 DUP6 PUSH1 0x40 MLOAD PUSH2 0x39A0 SWAP2 SWAP1 PUSH2 0x4D18 JUMP JUMPDEST SWAP1 DUP2 MSTORE PUSH1 0x40 MLOAD SWAP1 DUP2 SWAP1 SUB PUSH1 0x20 ADD SWAP1 KECCAK256 PUSH1 0x8 ADD SLOAD DUP2 LT ISZERO PUSH2 0x3A7B JUMPI DUP4 PUSH1 0x3 DUP7 PUSH1 0x40 MLOAD PUSH2 0x39CB SWAP2 SWAP1 PUSH2 0x4D18 JUMP JUMPDEST SWAP1 DUP2 MSTORE PUSH1 0x20 ADD PUSH1 0x40 MLOAD DUP1 SWAP2 SUB SWAP1 KECCAK256 PUSH1 0x8 ADD DUP3 DUP2 SLOAD DUP2 LT PUSH2 0x39ED JUMPI PUSH2 0x39ED PUSH2 0x4D6E JUMP JUMPDEST SWAP1 PUSH1 0x0 MSTORE PUSH1 0x20 PUSH1 0x0 KECCAK256 SWAP1 PUSH1 0x4 MUL ADD PUSH1 0x1 ADD SLOAD EQ DUP1 ISZERO PUSH2 0x3A5F JUMPI POP DUP6 PUSH1 0x1 PUSH1 0x1 PUSH1 0xA0 SHL SUB AND PUSH1 0x3 DUP7 PUSH1 0x40 MLOAD PUSH2 0x3A21 SWAP2 SWAP1 PUSH2 0x4D18 JUMP JUMPDEST SWAP1 DUP2 MSTORE PUSH1 0x20 ADD PUSH1 0x40 MLOAD DUP1 SWAP2 SUB SWAP1 KECCAK256 PUSH1 0x8 ADD DUP3 DUP2 SLOAD DUP2 LT PUSH2 0x3A43 JUMPI PUSH2 0x3A43 PUSH2 0x4D6E JUMP JUMPDEST PUSH1 0x0 SWAP2 DUP3 MSTORE PUSH1 0x20 SWAP1 SWAP2 KECCAK256 PUSH1 0x4 SWAP1 SWAP2 MUL ADD SLOAD PUSH1 0x1 PUSH1 0x1 PUSH1 0xA0 SHL SUB AND EQ JUMPDEST ISZERO PUSH2 0x3A69 JUMPI PUSH1 0x0 SWAP2 POP JUMPDEST DUP1 PUSH2 0x3A73 DUP2 PUSH2 0x4E27 JUMP JUMPDEST SWAP2 POP POP PUSH2 0x3990 JUMP JUMPDEST POP SWAP5 SWAP4 POP POP POP POP JUMP JUMPDEST PUSH1 0x0 DUP1 JUMPDEST DUP3 MLOAD DUP2 LT ISZERO PUSH2 0x3D5D JUMPI PUSH1 0x2 DUP5 PUSH1 0x1 ADD DUP3 DUP2 SLOAD DUP2 LT PUSH2 0x3AA8 JUMPI PUSH2 0x3AA8 PUSH2 0x4D6E JUMP JUMPDEST SWAP1 PUSH1 0x0 MSTORE PUSH1 0x20 PUSH1 0x0 KECCAK256 SWAP1 PUSH1 0x20 SWAP2 DUP3 DUP3 DIV ADD SWAP2 SWAP1 MOD SWAP1 SLOAD SWAP1 PUSH2 0x100 EXP SWAP1 DIV PUSH1 0xFF AND PUSH1 0x2 DUP2 GT ISZERO PUSH2 0x3AD9 JUMPI PUSH2 0x3AD9 PUSH2 0x452A JUMP JUMPDEST SUB PUSH2 0x3BE1 JUMPI PUSH1 0x0 DUP1 JUMPDEST DUP6 PUSH1 0x2 ADD DUP4 DUP2 SLOAD DUP2 LT PUSH2 0x3AF7 JUMPI PUSH2 0x3AF7 PUSH2 0x4D6E JUMP JUMPDEST PUSH1 0x0 SWAP2 DUP3 MSTORE PUSH1 0x20 SWAP1 SWAP2 KECCAK256 ADD SLOAD DUP2 LT ISZERO PUSH2 0x3BCA JUMPI DUP5 DUP4 DUP2 MLOAD DUP2 LT PUSH2 0x3B1C JUMPI PUSH2 0x3B1C PUSH2 0x4D6E JUMP JUMPDEST PUSH1 0x20 MUL PUSH1 0x20 ADD ADD MLOAD PUSH1 0x40 MLOAD PUSH1 0x20 ADD PUSH2 0x3B34 SWAP2 SWAP1 PUSH2 0x4D18 JUMP JUMPDEST PUSH1 0x40 MLOAD PUSH1 0x20 DUP2 DUP4 SUB SUB DUP2 MSTORE SWAP1 PUSH1 0x40 MSTORE DUP1 MLOAD SWAP1 PUSH1 0x20 ADD KECCAK256 DUP7 PUSH1 0x2 ADD DUP5 DUP2 SLOAD DUP2 LT PUSH2 0x3B5F JUMPI PUSH2 0x3B5F PUSH2 0x4D6E JUMP JUMPDEST SWAP1 PUSH1 0x0 MSTORE PUSH1 0x20 PUSH1 0x0 KECCAK256 ADD DUP3 DUP2 SLOAD DUP2 LT PUSH2 0x3B7A JUMPI PUSH2 0x3B7A PUSH2 0x4D6E JUMP JUMPDEST SWAP1 PUSH1 0x0 MSTORE PUSH1 0x20 PUSH1 0x0 KECCAK256 ADD PUSH1 0x40 MLOAD PUSH1 0x20 ADD PUSH2 0x3B94 SWAP2 SWAP1 PUSH2 0x4D9B JUMP JUMPDEST PUSH1 0x40 MLOAD PUSH1 0x20 DUP2 DUP4 SUB SUB DUP2 MSTORE SWAP1 PUSH1 0x40 MSTORE DUP1 MLOAD SWAP1 PUSH1 0x20 ADD KECCAK256 SUB PUSH2 0x3BB8 JUMPI PUSH1 0x1 SWAP2 POP PUSH2 0x3BCA JUMP JUMPDEST DUP1 PUSH2 0x3BC2 DUP2 PUSH2 0x4E27 JUMP JUMPDEST SWAP2 POP POP PUSH2 0x3AE2 JUMP JUMPDEST POP DUP1 PUSH2 0x3BDB JUMPI PUSH1 0x0 SWAP3 POP POP POP PUSH2 0x6CE JUMP JUMPDEST POP PUSH2 0x3D4B JUMP JUMPDEST PUSH1 0x1 DUP5 PUSH1 0x1 ADD DUP3 DUP2 SLOAD DUP2 LT PUSH2 0x3BF8 JUMPI PUSH2 0x3BF8 PUSH2 0x4D6E JUMP JUMPDEST SWAP1 PUSH1 0x0 MSTORE PUSH1 0x20 PUSH1 0x0 KECCAK256 SWAP1 PUSH1 0x20 SWAP2 DUP3 DUP3 DIV ADD SWAP2 SWAP1 MOD SWAP1 SLOAD SWAP1 PUSH2 0x100 EXP SWAP1 DIV PUSH1 0xFF AND PUSH1 0x2 DUP2 GT ISZERO PUSH2 0x3C29 JUMPI PUSH2 0x3C29 PUSH2 0x452A JUMP JUMPDEST SUB PUSH2 0x3D1F JUMPI PUSH1 0x40 MLOAD PUSH3 0x596573 PUSH1 0xE8 SHL PUSH1 0x20 DUP3 ADD MSTORE PUSH1 0x23 ADD PUSH1 0x40 MLOAD PUSH1 0x20 DUP2 DUP4 SUB SUB DUP2 MSTORE SWAP1 PUSH1 0x40 MSTORE DUP1 MLOAD SWAP1 PUSH1 0x20 ADD KECCAK256 DUP4 DUP3 DUP2 MLOAD DUP2 LT PUSH2 0x3C68 JUMPI PUSH2 0x3C68 PUSH2 0x4D6E JUMP JUMPDEST PUSH1 0x20 MUL PUSH1 0x20 ADD ADD MLOAD PUSH1 0x40 MLOAD PUSH1 0x20 ADD PUSH2 0x3C80 SWAP2 SWAP1 PUSH2 0x4D18 JUMP JUMPDEST PUSH1 0x40 MLOAD PUSH1 0x20 DUP2 DUP4 SUB SUB DUP2 MSTORE SWAP1 PUSH1 0x40 MSTORE DUP1 MLOAD SWAP1 PUSH1 0x20 ADD KECCAK256 EQ DUP1 PUSH2 0x3D06 JUMPI POP PUSH1 0x40 MLOAD PUSH2 0x4E6F PUSH1 0xF0 SHL PUSH1 0x20 DUP3 ADD MSTORE PUSH1 0x22 ADD PUSH1 0x40 MLOAD PUSH1 0x20 DUP2 DUP4 SUB SUB DUP2 MSTORE SWAP1 PUSH1 0x40 MSTORE DUP1 MLOAD SWAP1 PUSH1 0x20 ADD KECCAK256 DUP4 DUP3 DUP2 MLOAD DUP2 LT PUSH2 0x3CD6 JUMPI PUSH2 0x3CD6 PUSH2 0x4D6E JUMP JUMPDEST PUSH1 0x20 MUL PUSH1 0x20 ADD ADD MLOAD PUSH1 0x40 MLOAD PUSH1 0x20 ADD PUSH2 0x3CEE SWAP2 SWAP1 PUSH2 0x4D18 JUMP JUMPDEST PUSH1 0x40 MLOAD PUSH1 0x20 DUP2 DUP4 SUB SUB DUP2 MSTORE SWAP1 PUSH1 0x40 MSTORE DUP1 MLOAD SWAP1 PUSH1 0x20 ADD KECCAK256 EQ JUMPDEST ISZERO PUSH2 0x3D15 JUMPI PUSH1 0x1 SWAP2 POP POP PUSH2 0x6CE JUMP JUMPDEST PUSH1 0x0 SWAP2 POP POP PUSH2 0x6CE JUMP JUMPDEST DUP3 DUP2 DUP2 MLOAD DUP2 LT PUSH2 0x3D31 JUMPI PUSH2 0x3D31 PUSH2 0x4D6E JUMP JUMPDEST PUSH1 0x20 MUL PUSH1 0x20 ADD ADD MLOAD MLOAD PUSH1 0x0 SUB PUSH2 0x3D4B JUMPI PUSH1 0x0 SWAP2 POP POP PUSH2 0x6CE JUMP JUMPDEST DUP1 PUSH2 0x3D55 DUP2 PUSH2 0x4E27 JUMP JUMPDEST SWAP2 POP POP PUSH2 0x3A88 JUMP JUMPDEST POP PUSH1 0x1 SWAP4 SWAP3 POP POP POP JUMP JUMPDEST DUP3 DUP1 SLOAD DUP3 DUP3 SSTORE SWAP1 PUSH1 0x0 MSTORE PUSH1 0x20 PUSH1 0x0 KECCAK256 SWAP1 DUP2 ADD SWAP3 DUP3 ISZERO PUSH2 0x3DAD JUMPI SWAP2 PUSH1 0x20 MUL DUP3 ADD JUMPDEST DUP3 DUP2 GT ISZERO PUSH2 0x3DAD JUMPI DUP3 MLOAD DUP3 SWAP1 PUSH2 0x3D9D SWAP1 DUP3 PUSH2 0x4E8F JUMP JUMPDEST POP SWAP2 PUSH1 0x20 ADD SWAP2 SWAP1 PUSH1 0x1 ADD SWAP1 PUSH2 0x3D87 JUMP JUMPDEST POP PUSH2 0x3DB9 SWAP3 SWAP2 POP PUSH2 0x3F56 JUMP JUMPDEST POP SWAP1 JUMP JUMPDEST DUP3 DUP1 SLOAD DUP3 DUP3 SSTORE SWAP1 PUSH1 0x0 MSTORE PUSH1 0x20 PUSH1 0x0 KECCAK256 SWAP1 PUSH1 0x1F ADD PUSH1 0x20 SWAP1 DIV DUP2 ADD SWAP3 DUP3 ISZERO PUSH2 0x3E61 JUMPI SWAP2 PUSH1 0x20 MUL DUP3 ADD PUSH1 0x0 JUMPDEST DUP4 DUP3 GT ISZERO PUSH2 0x3E32 JUMPI DUP4 MLOAD DUP4 DUP3 PUSH2 0x100 EXP DUP2 SLOAD DUP2 PUSH1 0xFF MUL NOT AND SWAP1 DUP4 PUSH1 0x2 DUP2 GT ISZERO PUSH2 0x3E11 JUMPI PUSH2 0x3E11 PUSH2 0x452A JUMP JUMPDEST MUL OR SWAP1 SSTORE POP SWAP3 PUSH1 0x20 ADD SWAP3 PUSH1 0x1 ADD PUSH1 0x20 DUP2 PUSH1 0x0 ADD DIV SWAP3 DUP4 ADD SWAP3 PUSH1 0x1 SUB MUL PUSH2 0x3DE6 JUMP JUMPDEST DUP1 ISZERO PUSH2 0x3E5F JUMPI DUP3 DUP2 PUSH2 0x100 EXP DUP2 SLOAD SWAP1 PUSH1 0xFF MUL NOT AND SWAP1 SSTORE PUSH1 0x1 ADD PUSH1 0x20 DUP2 PUSH1 0x0 ADD DIV SWAP3 DUP4 ADD SWAP3 PUSH1 0x1 SUB MUL PUSH2 0x3E32 JUMP JUMPDEST POP JUMPDEST POP PUSH2 0x3DB9 SWAP3 SWAP2 POP PUSH2 0x3F73 JUMP JUMPDEST DUP3 DUP1 SLOAD DUP3 DUP3 SSTORE SWAP1 PUSH1 0x0 MSTORE PUSH1 0x20 PUSH1 0x0 KECCAK256 SWAP1 DUP2 ADD SWAP3 DUP3 ISZERO PUSH2 0x3EBA JUMPI SWAP2 PUSH1 0x20 MUL DUP3 ADD JUMPDEST DUP3 DUP2 GT ISZERO PUSH2 0x3EBA JUMPI DUP3 MLOAD DUP1 MLOAD PUSH2 0x3EAA SWAP2 DUP5 SWAP2 PUSH1 0x20 SWAP1 SWAP2 ADD SWAP1 PUSH2 0x3D67 JUMP JUMPDEST POP SWAP2 PUSH1 0x20 ADD SWAP2 SWAP1 PUSH1 0x1 ADD SWAP1 PUSH2 0x3E8D JUMP JUMPDEST POP PUSH2 0x3DB9 SWAP3 SWAP2 POP PUSH2 0x3F88 JUMP JUMPDEST DUP3 DUP1 SLOAD DUP3 DUP3 SSTORE SWAP1 PUSH1 0x0 MSTORE PUSH1 0x20 PUSH1 0x0 KECCAK256 SWAP1 DUP2 ADD SWAP3 DUP3 ISZERO PUSH2 0x3E61 JUMPI SWAP2 PUSH1 0x20 MUL DUP3 ADD JUMPDEST DUP3 DUP2 GT ISZERO PUSH2 0x3E61 JUMPI DUP3 MLOAD DUP3 SLOAD PUSH1 0x1 PUSH1 0x1 PUSH1 0xA0 SHL SUB NOT AND PUSH1 0x1 PUSH1 0x1 PUSH1 0xA0 SHL SUB SWAP1 SWAP2 AND OR DUP3 SSTORE PUSH1 0x20 SWAP1 SWAP3 ADD SWAP2 PUSH1 0x1 SWAP1 SWAP2 ADD SWAP1 PUSH2 0x3EE6 JUMP JUMPDEST DUP3 DUP1 SLOAD DUP3 DUP3 SSTORE SWAP1 PUSH1 0x0 MSTORE PUSH1 0x20 PUSH1 0x0 KECCAK256 SWAP1 DUP2 ADD SWAP3 DUP3 ISZERO PUSH2 0x3E61 JUMPI SWAP2 PUSH1 0x20 MUL DUP3 ADD JUMPDEST DUP3 DUP2 GT ISZERO PUSH2 0x3E61 JUMPI DUP3 MLOAD DUP3 SSTORE SWAP2 PUSH1 0x20 ADD SWAP2 SWAP1 PUSH1 0x1 ADD SWAP1 PUSH2 0x3F3B JUMP JUMPDEST DUP1 DUP3 GT ISZERO PUSH2 0x3DB9 JUMPI PUSH1 0x0 PUSH2 0x3F6A DUP3 DUP3 PUSH2 0x3FA5 JUMP JUMPDEST POP PUSH1 0x1 ADD PUSH2 0x3F56 JUMP JUMPDEST JUMPDEST DUP1 DUP3 GT ISZERO PUSH2 0x3DB9 JUMPI PUSH1 0x0 DUP2 SSTORE PUSH1 0x1 ADD PUSH2 0x3F74 JUMP JUMPDEST DUP1 DUP3 GT ISZERO PUSH2 0x3DB9 JUMPI PUSH1 0x0 PUSH2 0x3F9C DUP3 DUP3 PUSH2 0x3FDF JUMP JUMPDEST POP PUSH1 0x1 ADD PUSH2 0x3F88 JUMP JUMPDEST POP DUP1 SLOAD PUSH2 0x3FB1 SWAP1 PUSH2 0x4D34 JUMP JUMPDEST PUSH1 0x0 DUP3 SSTORE DUP1 PUSH1 0x1F LT PUSH2 0x3FC1 JUMPI POP POP JUMP JUMPDEST PUSH1 0x1F ADD PUSH1 0x20 SWAP1 DIV SWAP1 PUSH1 0x0 MSTORE PUSH1 0x20 PUSH1 0x0 KECCAK256 SWAP1 DUP2 ADD SWAP1 PUSH2 0x2178 SWAP2 SWAP1 PUSH2 0x3F73 JUMP JUMPDEST POP DUP1 SLOAD PUSH1 0x0 DUP3 SSTORE SWAP1 PUSH1 0x0 MSTORE PUSH1 0x20 PUSH1 0x0 KECCAK256 SWAP1 DUP2 ADD SWAP1 PUSH2 0x2178 SWAP2 SWAP1 PUSH2 0x3F56 JUMP JUMPDEST DUP1 ISZERO ISZERO DUP2 EQ PUSH2 0x2178 JUMPI PUSH1 0x0 DUP1 REVERT JUMPDEST DUP1 CALLDATALOAD PUSH2 0x20A8 DUP2 PUSH2 0x3FFD JUMP JUMPDEST PUSH1 0x0 PUSH1 0x20 DUP3 DUP5 SUB SLT ISZERO PUSH2 0x4028 JUMPI PUSH1 0x0 DUP1 REVERT JUMPDEST DUP2 CALLDATALOAD PUSH2 0x4033 DUP2 PUSH2 0x3FFD JUMP JUMPDEST SWAP4 SWAP3 POP POP POP JUMP JUMPDEST DUP1 CALLDATALOAD PUSH1 0x1 PUSH1 0x1 PUSH1 0xA0 SHL SUB DUP2 AND DUP2 EQ PUSH2 0x20A8 JUMPI PUSH1 0x0 DUP1 REVERT JUMPDEST PUSH4 0x4E487B71 PUSH1 0xE0 SHL PUSH1 0x0 MSTORE PUSH1 0x41 PUSH1 0x4 MSTORE PUSH1 0x24 PUSH1 0x0 REVERT JUMPDEST PUSH1 0x40 MLOAD PUSH1 0x1F DUP3 ADD PUSH1 0x1F NOT AND DUP2 ADD PUSH1 0x1 PUSH1 0x1 PUSH1 0x40 SHL SUB DUP2 GT DUP3 DUP3 LT OR ISZERO PUSH2 0x408F JUMPI PUSH2 0x408F PUSH2 0x4051 JUMP JUMPDEST PUSH1 0x40 MSTORE SWAP2 SWAP1 POP JUMP JUMPDEST PUSH1 0x0 PUSH1 0x1 PUSH1 0x1 PUSH1 0x40 SHL SUB DUP3 GT ISZERO PUSH2 0x40B0 JUMPI PUSH2 0x40B0 PUSH2 0x4051 JUMP JUMPDEST POP PUSH1 0x1F ADD PUSH1 0x1F NOT AND PUSH1 0x20 ADD SWAP1 JUMP JUMPDEST PUSH1 0x0 DUP3 PUSH1 0x1F DUP4 ADD SLT PUSH2 0x40CF JUMPI PUSH1 0x0 DUP1 REVERT JUMPDEST DUP2 CALLDATALOAD PUSH2 0x40E2 PUSH2 0x40DD DUP3 PUSH2 0x4097 JUMP JUMPDEST PUSH2 0x4067 JUMP JUMPDEST DUP2 DUP2 MSTORE DUP5 PUSH1 0x20 DUP4 DUP7 ADD ADD GT ISZERO PUSH2 0x40F7 JUMPI PUSH1 0x0 DUP1 REVERT JUMPDEST DUP2 PUSH1 0x20 DUP6 ADD PUSH1 0x20 DUP4 ADD CALLDATACOPY PUSH1 0x0 SWAP2 DUP2 ADD PUSH1 0x20 ADD SWAP2 SWAP1 SWAP2 MSTORE SWAP4 SWAP3 POP POP POP JUMP JUMPDEST PUSH1 0x0 DUP1 PUSH1 0x40 DUP4 DUP6 SUB SLT ISZERO PUSH2 0x4127 JUMPI PUSH1 0x0 DUP1 REVERT JUMPDEST PUSH2 0x4130 DUP4 PUSH2 0x403A JUMP JUMPDEST SWAP2 POP PUSH1 0x20 DUP4 ADD CALLDATALOAD PUSH1 0x1 PUSH1 0x1 PUSH1 0x40 SHL SUB DUP2 GT ISZERO PUSH2 0x414B JUMPI PUSH1 0x0 DUP1 REVERT JUMPDEST PUSH2 0x4157 DUP6 DUP3 DUP7 ADD PUSH2 0x40BE JUMP JUMPDEST SWAP2 POP POP SWAP3 POP SWAP3 SWAP1 POP JUMP JUMPDEST PUSH1 0x0 PUSH1 0x1 PUSH1 0x1 PUSH1 0x40 SHL SUB DUP3 GT ISZERO PUSH2 0x417A JUMPI PUSH2 0x417A PUSH2 0x4051 JUMP JUMPDEST POP PUSH1 0x5 SHL PUSH1 0x20 ADD SWAP1 JUMP JUMPDEST PUSH1 0x0 DUP3 PUSH1 0x1F DUP4 ADD SLT PUSH2 0x4195 JUMPI PUSH1 0x0 DUP1 REVERT JUMPDEST DUP2 CALLDATALOAD PUSH1 0x20 PUSH2 0x41A5 PUSH2 0x40DD DUP4 PUSH2 0x4161 JUMP JUMPDEST DUP3 DUP2 MSTORE PUSH1 0x5 SWAP3 SWAP1 SWAP3 SHL DUP5 ADD DUP2 ADD SWAP2 DUP2 DUP2 ADD SWAP1 DUP7 DUP5 GT ISZERO PUSH2 0x41C4 JUMPI PUSH1 0x0 DUP1 REVERT JUMPDEST DUP3 DUP7 ADD JUMPDEST DUP5 DUP2 LT ISZERO PUSH2 0x41E6 JUMPI PUSH2 0x41D9 DUP2 PUSH2 0x403A JUMP JUMPDEST DUP4 MSTORE SWAP2 DUP4 ADD SWAP2 DUP4 ADD PUSH2 0x41C8 JUMP JUMPDEST POP SWAP7 SWAP6 POP POP POP POP POP POP JUMP JUMPDEST PUSH1 0x0 DUP3 PUSH1 0x1F DUP4 ADD SLT PUSH2 0x4202 JUMPI PUSH1 0x0 DUP1 REVERT JUMPDEST DUP2 CALLDATALOAD PUSH1 0x20 PUSH2 0x4212 PUSH2 0x40DD DUP4 PUSH2 0x4161 JUMP JUMPDEST DUP3 DUP2 MSTORE PUSH1 0x5 SWAP3 SWAP1 SWAP3 SHL DUP5 ADD DUP2 ADD SWAP2 DUP2 DUP2 ADD SWAP1 DUP7 DUP5 GT ISZERO PUSH2 0x4231 JUMPI PUSH1 0x0 DUP1 REVERT JUMPDEST DUP3 DUP7 ADD JUMPDEST DUP5 DUP2 LT ISZERO PUSH2 0x41E6 JUMPI DUP1 CALLDATALOAD DUP4 MSTORE SWAP2 DUP4 ADD SWAP2 DUP4 ADD PUSH2 0x4235 JUMP JUMPDEST PUSH1 0x0 DUP3 PUSH1 0x1F DUP4 ADD SLT PUSH2 0x425D JUMPI PUSH1 0x0 DUP1 REVERT JUMPDEST DUP2 CALLDATALOAD PUSH1 0x20 PUSH2 0x426D PUSH2 0x40DD DUP4 PUSH2 0x4161 JUMP JUMPDEST DUP3 DUP2 MSTORE PUSH1 0x5 SWAP3 SWAP1 SWAP3 SHL DUP5 ADD DUP2 ADD SWAP2 DUP2 DUP2 ADD SWAP1 DUP7 DUP5 GT ISZERO PUSH2 0x428C JUMPI PUSH1 0x0 DUP1 REVERT JUMPDEST DUP3 DUP7 ADD JUMPDEST DUP5 DUP2 LT ISZERO PUSH2 0x41E6 JUMPI DUP1 CALLDATALOAD PUSH1 0x1 PUSH1 0x1 PUSH1 0x40 SHL SUB DUP2 GT ISZERO PUSH2 0x42AF JUMPI PUSH1 0x0 DUP1 DUP2 REVERT JUMPDEST PUSH2 0x42BD DUP10 DUP7 DUP4 DUP12 ADD ADD PUSH2 0x40BE JUMP JUMPDEST DUP5 MSTORE POP SWAP2 DUP4 ADD SWAP2 DUP4 ADD PUSH2 0x4290 JUMP JUMPDEST DUP1 CALLDATALOAD PUSH1 0xFF DUP2 AND DUP2 EQ PUSH2 0x20A8 JUMPI PUSH1 0x0 DUP1 REVERT JUMPDEST PUSH1 0x0 DUP1 PUSH1 0x0 DUP1 PUSH1 0x0 DUP1 PUSH1 0x0 DUP1 PUSH1 0x0 DUP1 PUSH2 0x140 DUP12 DUP14 SUB SLT ISZERO PUSH2 0x42FC JUMPI PUSH1 0x0 DUP1 REVERT JUMPDEST DUP11 CALLDATALOAD PUSH1 0x1 PUSH1 0x1 PUSH1 0x40 SHL SUB DUP1 DUP3 GT ISZERO PUSH2 0x4313 JUMPI PUSH1 0x0 DUP1 REVERT JUMPDEST PUSH2 0x431F DUP15 DUP4 DUP16 ADD PUSH2 0x40BE JUMP JUMPDEST SWAP12 POP PUSH1 0x20 DUP14 ADD CALLDATALOAD SWAP2 POP DUP1 DUP3 GT ISZERO PUSH2 0x4335 JUMPI PUSH1 0x0 DUP1 REVERT JUMPDEST PUSH2 0x4341 DUP15 DUP4 DUP16 ADD PUSH2 0x4184 JUMP JUMPDEST SWAP11 POP PUSH1 0x40 DUP14 ADD CALLDATALOAD SWAP2 POP DUP1 DUP3 GT ISZERO PUSH2 0x4357 JUMPI PUSH1 0x0 DUP1 REVERT JUMPDEST PUSH2 0x4363 DUP15 DUP4 DUP16 ADD PUSH2 0x4184 JUMP JUMPDEST SWAP10 POP PUSH1 0x60 DUP14 ADD CALLDATALOAD SWAP2 POP DUP1 DUP3 GT ISZERO PUSH2 0x4379 JUMPI PUSH1 0x0 DUP1 REVERT JUMPDEST PUSH2 0x4385 DUP15 DUP4 DUP16 ADD PUSH2 0x41F1 JUMP JUMPDEST SWAP9 POP PUSH1 0x80 DUP14 ADD CALLDATALOAD SWAP2 POP DUP1 DUP3 GT ISZERO PUSH2 0x439B JUMPI PUSH1 0x0 DUP1 REVERT JUMPDEST PUSH2 0x43A7 DUP15 DUP4 DUP16 ADD PUSH2 0x424C JUMP JUMPDEST SWAP8 POP PUSH1 0xA0 DUP14 ADD CALLDATALOAD SWAP2 POP DUP1 DUP3 GT ISZERO PUSH2 0x43BD JUMPI PUSH1 0x0 DUP1 REVERT JUMPDEST PUSH2 0x43C9 DUP15 DUP4 DUP16 ADD PUSH2 0x40BE JUMP JUMPDEST SWAP7 POP PUSH1 0xC0 DUP14 ADD CALLDATALOAD SWAP6 POP PUSH2 0x43DE PUSH1 0xE0 DUP15 ADD PUSH2 0x42CB JUMP JUMPDEST SWAP5 POP PUSH2 0x43ED PUSH2 0x100 DUP15 ADD PUSH2 0x403A JUMP JUMPDEST SWAP4 POP PUSH2 0x120 DUP14 ADD CALLDATALOAD SWAP2 POP DUP1 DUP3 GT ISZERO PUSH2 0x4404 JUMPI PUSH1 0x0 DUP1 REVERT JUMPDEST POP PUSH2 0x4411 DUP14 DUP3 DUP15 ADD PUSH2 0x40BE JUMP JUMPDEST SWAP2 POP POP SWAP3 SWAP6 SWAP9 SWAP12 SWAP2 SWAP5 SWAP8 SWAP11 POP SWAP3 SWAP6 SWAP9 POP JUMP JUMPDEST PUSH1 0x0 JUMPDEST DUP4 DUP2 LT ISZERO PUSH2 0x443E JUMPI DUP2 DUP2 ADD MLOAD DUP4 DUP3 ADD MSTORE PUSH1 0x20 ADD PUSH2 0x4426 JUMP JUMPDEST POP POP PUSH1 0x0 SWAP2 ADD MSTORE JUMP JUMPDEST PUSH1 0x0 DUP2 MLOAD DUP1 DUP5 MSTORE PUSH2 0x445F DUP2 PUSH1 0x20 DUP7 ADD PUSH1 0x20 DUP7 ADD PUSH2 0x4423 JUMP JUMPDEST PUSH1 0x1F ADD PUSH1 0x1F NOT AND SWAP3 SWAP1 SWAP3 ADD PUSH1 0x20 ADD SWAP3 SWAP2 POP POP JUMP JUMPDEST PUSH1 0x20 DUP2 MSTORE PUSH1 0x0 PUSH2 0x6CB PUSH1 0x20 DUP4 ADD DUP5 PUSH2 0x4447 JUMP JUMPDEST PUSH1 0x0 PUSH1 0x20 DUP3 DUP5 SUB SLT ISZERO PUSH2 0x4498 JUMPI PUSH1 0x0 DUP1 REVERT JUMPDEST PUSH2 0x6CB DUP3 PUSH2 0x403A JUMP JUMPDEST PUSH1 0x0 PUSH1 0x20 DUP3 DUP5 SUB SLT ISZERO PUSH2 0x44B3 JUMPI PUSH1 0x0 DUP1 REVERT JUMPDEST DUP2 CALLDATALOAD PUSH1 0x1 PUSH1 0x1 PUSH1 0x40 SHL SUB DUP2 GT ISZERO PUSH2 0x44C9 JUMPI PUSH1 0x0 DUP1 REVERT JUMPDEST PUSH2 0x12B2 DUP5 DUP3 DUP6 ADD PUSH2 0x40BE JUMP JUMPDEST PUSH1 0x0 DUP2 MLOAD DUP1 DUP5 MSTORE PUSH1 0x20 DUP1 DUP6 ADD DUP1 DUP2 SWAP7 POP DUP4 PUSH1 0x5 SHL DUP2 ADD SWAP2 POP DUP3 DUP7 ADD PUSH1 0x0 JUMPDEST DUP6 DUP2 LT ISZERO PUSH2 0x451D JUMPI DUP3 DUP5 SUB DUP10 MSTORE PUSH2 0x450B DUP5 DUP4 MLOAD PUSH2 0x4447 JUMP JUMPDEST SWAP9 DUP6 ADD SWAP9 SWAP4 POP SWAP1 DUP5 ADD SWAP1 PUSH1 0x1 ADD PUSH2 0x44F3 JUMP JUMPDEST POP SWAP2 SWAP8 SWAP7 POP POP POP POP POP POP POP JUMP JUMPDEST PUSH4 0x4E487B71 PUSH1 0xE0 SHL PUSH1 0x0 MSTORE PUSH1 0x21 PUSH1 0x4 MSTORE PUSH1 0x24 PUSH1 0x0 REVERT JUMPDEST PUSH1 0x0 DUP2 MLOAD DUP1 DUP5 MSTORE PUSH1 0x20 DUP1 DUP6 ADD DUP1 DUP2 SWAP7 POP DUP4 PUSH1 0x5 SHL DUP2 ADD SWAP2 POP DUP3 DUP7 ADD PUSH1 0x0 JUMPDEST DUP6 DUP2 LT ISZERO PUSH2 0x451D JUMPI DUP3 DUP5 SUB DUP10 MSTORE PUSH2 0x4576 DUP5 DUP4 MLOAD PUSH2 0x44D5 JUMP JUMPDEST SWAP9 DUP6 ADD SWAP9 SWAP4 POP SWAP1 DUP5 ADD SWAP1 PUSH1 0x1 ADD PUSH2 0x455E JUMP JUMPDEST PUSH1 0x0 PUSH1 0x20 DUP1 DUP4 MSTORE DUP4 MLOAD PUSH1 0x60 DUP3 DUP6 ADD MSTORE PUSH2 0x45A4 PUSH1 0x80 DUP6 ADD DUP3 PUSH2 0x44D5 JUMP JUMPDEST DUP3 DUP7 ADD MLOAD PUSH1 0x1F NOT DUP7 DUP4 SUB DUP2 ADD PUSH1 0x40 DUP9 ADD MSTORE DUP2 MLOAD DUP1 DUP5 MSTORE SWAP2 DUP6 ADD SWAP4 POP PUSH1 0x0 SWAP3 SWAP1 SWAP2 SWAP1 DUP6 ADD SWAP1 DUP4 JUMPDEST DUP2 DUP2 LT ISZERO PUSH2 0x4602 JUMPI DUP6 MLOAD PUSH1 0x3 DUP2 LT PUSH2 0x45F0 JUMPI PUSH4 0x4E487B71 PUSH1 0xE0 SHL DUP7 MSTORE PUSH1 0x21 PUSH1 0x4 MSTORE PUSH1 0x24 DUP7 REVERT JUMPDEST DUP4 MSTORE SWAP5 DUP7 ADD SWAP5 SWAP2 DUP7 ADD SWAP2 PUSH1 0x1 ADD PUSH2 0x45CA JUMP JUMPDEST POP POP PUSH1 0x40 DUP9 ADD MLOAD SWAP5 POP DUP2 DUP8 DUP3 SUB ADD PUSH1 0x60 DUP9 ADD MSTORE PUSH2 0x461F DUP2 DUP7 PUSH2 0x4540 JUMP JUMPDEST SWAP9 SWAP8 POP POP POP POP POP POP POP POP JUMP JUMPDEST PUSH1 0x0 DUP2 MLOAD DUP1 DUP5 MSTORE PUSH1 0x20 DUP1 DUP6 ADD SWAP5 POP DUP1 DUP5 ADD PUSH1 0x0 JUMPDEST DUP4 DUP2 LT ISZERO PUSH2 0x4664 JUMPI DUP2 MLOAD PUSH1 0x1 PUSH1 0x1 PUSH1 0xA0 SHL SUB AND DUP8 MSTORE SWAP6 DUP3 ADD SWAP6 SWAP1 DUP3 ADD SWAP1 PUSH1 0x1 ADD PUSH2 0x463F JUMP JUMPDEST POP SWAP5 SWAP6 SWAP5 POP POP POP POP POP JUMP JUMPDEST PUSH1 0x0 DUP2 MLOAD DUP1 DUP5 MSTORE PUSH1 0x20 DUP1 DUP6 ADD SWAP5 POP DUP1 DUP5 ADD PUSH1 0x0 JUMPDEST DUP4 DUP2 LT ISZERO PUSH2 0x4664 JUMPI DUP2 MLOAD DUP8 MSTORE SWAP6 DUP3 ADD SWAP6 SWAP1 DUP3 ADD SWAP1 PUSH1 0x1 ADD PUSH2 0x4683 JUMP JUMPDEST PUSH1 0x0 DUP2 MLOAD DUP1 DUP5 MSTORE PUSH1 0x20 DUP1 DUP6 ADD DUP1 DUP2 SWAP7 POP DUP4 PUSH1 0x5 SHL DUP2 ADD SWAP2 POP DUP3 DUP7 ADD PUSH1 0x0 DUP1 JUMPDEST DUP7 DUP2 LT ISZERO PUSH2 0x4742 JUMPI DUP4 DUP6 SUB DUP11 MSTORE DUP3 MLOAD DUP1 MLOAD PUSH1 0x1 PUSH1 0x1 PUSH1 0xA0 SHL SUB AND DUP7 MSTORE DUP7 DUP2 ADD MLOAD DUP8 DUP8 ADD MSTORE PUSH1 0x40 DUP1 DUP3 ADD MLOAD SWAP1 DUP8 ADD MSTORE PUSH1 0x60 SWAP1 DUP2 ADD MLOAD PUSH1 0x80 SWAP2 DUP8 ADD DUP3 SWAP1 MSTORE DUP1 MLOAD SWAP2 DUP8 ADD DUP3 SWAP1 MSTORE DUP8 ADD SWAP1 PUSH1 0xA0 DUP8 ADD SWAP1 DUP5 SWAP1 JUMPDEST DUP1 DUP3 LT ISZERO PUSH2 0x472D JUMPI DUP4 MLOAD DUP4 MSTORE SWAP3 DUP10 ADD SWAP3 SWAP2 DUP10 ADD SWAP2 PUSH1 0x1 SWAP2 SWAP1 SWAP2 ADD SWAP1 PUSH2 0x470D JUMP JUMPDEST POP POP SWAP11 DUP8 ADD SWAP11 SWAP6 POP POP SWAP2 DUP6 ADD SWAP2 PUSH1 0x1 ADD PUSH2 0x46BE JUMP JUMPDEST POP SWAP3 SWAP9 SWAP8 POP POP POP POP POP POP POP POP JUMP JUMPDEST PUSH1 0x20 DUP2 MSTORE PUSH2 0x476A PUSH1 0x20 DUP3 ADD DUP4 MLOAD PUSH1 0x1 PUSH1 0x1 PUSH1 0xA0 SHL SUB AND SWAP1 MSTORE JUMP JUMPDEST PUSH1 0x0 PUSH1 0x20 DUP4 ADD MLOAD PUSH2 0x1C0 DUP1 PUSH1 0x40 DUP6 ADD MSTORE PUSH2 0x4788 PUSH2 0x1E0 DUP6 ADD DUP4 PUSH2 0x462B JUMP JUMPDEST SWAP2 POP PUSH1 0x40 DUP6 ADD MLOAD PUSH1 0x1F NOT DUP1 DUP7 DUP6 SUB ADD PUSH1 0x60 DUP8 ADD MSTORE PUSH2 0x47A6 DUP5 DUP4 PUSH2 0x462B JUMP JUMPDEST SWAP4 POP PUSH1 0x60 DUP8 ADD MLOAD SWAP2 POP DUP1 DUP7 DUP6 SUB ADD PUSH1 0x80 DUP8 ADD MSTORE PUSH2 0x47C3 DUP5 DUP4 PUSH2 0x466F JUMP JUMPDEST SWAP4 POP PUSH1 0x80 DUP8 ADD MLOAD SWAP2 POP DUP1 DUP7 DUP6 SUB ADD PUSH1 0xA0 DUP8 ADD MSTORE PUSH2 0x47E0 DUP5 DUP4 PUSH2 0x44D5 JUMP JUMPDEST SWAP4 POP PUSH1 0xA0 DUP8 ADD MLOAD SWAP2 POP DUP1 DUP7 DUP6 SUB ADD PUSH1 0xC0 DUP8 ADD MSTORE PUSH2 0x47FD DUP5 DUP4 PUSH2 0x4447 JUMP JUMPDEST SWAP4 POP PUSH1 0xC0 DUP8 ADD MLOAD PUSH1 0xE0 DUP8 ADD MSTORE PUSH1 0xE0 DUP8 ADD MLOAD SWAP2 POP PUSH2 0x100 PUSH2 0x4821 DUP2 DUP9 ADD DUP5 PUSH1 0xFF AND SWAP1 MSTORE JUMP JUMPDEST DUP1 DUP9 ADD MLOAD SWAP3 POP POP PUSH2 0x120 DUP2 DUP8 DUP7 SUB ADD DUP2 DUP9 ADD MSTORE PUSH2 0x483E DUP6 DUP5 PUSH2 0x469F JUMP JUMPDEST SWAP5 POP DUP1 DUP9 ADD MLOAD SWAP3 POP POP PUSH2 0x140 PUSH2 0x4857 DUP2 DUP9 ADD DUP5 ISZERO ISZERO SWAP1 MSTORE JUMP JUMPDEST DUP8 ADD MLOAD SWAP2 POP PUSH2 0x160 PUSH2 0x4873 DUP8 DUP3 ADD DUP5 PUSH1 0x1 PUSH1 0x1 PUSH1 0xA0 SHL SUB AND SWAP1 MSTORE JUMP JUMPDEST DUP1 DUP9 ADD MLOAD SWAP3 POP POP PUSH2 0x180 DUP3 DUP2 DUP9 ADD MSTORE DUP1 DUP9 ADD MLOAD SWAP3 POP POP PUSH2 0x1A0 DUP2 DUP8 DUP7 SUB ADD DUP2 DUP9 ADD MSTORE PUSH2 0x489F DUP6 DUP5 PUSH2 0x4447 JUMP JUMPDEST SWAP1 DUP9 ADD MLOAD DUP8 DUP3 SUB SWAP1 SWAP3 ADD DUP5 DUP9 ADD MSTORE SWAP4 POP SWAP1 POP PUSH2 0x48BB DUP4 DUP3 PUSH2 0x4447 JUMP JUMPDEST SWAP7 SWAP6 POP POP POP POP POP POP JUMP JUMPDEST PUSH1 0x0 DUP1 DUP4 PUSH1 0x1F DUP5 ADD SLT PUSH2 0x48D7 JUMPI PUSH1 0x0 DUP1 REVERT JUMPDEST POP DUP2 CALLDATALOAD PUSH1 0x1 PUSH1 0x1 PUSH1 0x40 SHL SUB DUP2 GT ISZERO PUSH2 0x48EE JUMPI PUSH1 0x0 DUP1 REVERT JUMPDEST PUSH1 0x20 DUP4 ADD SWAP2 POP DUP4 PUSH1 0x20 DUP3 PUSH1 0x5 SHL DUP6 ADD ADD GT ISZERO PUSH2 0x4909 JUMPI PUSH1 0x0 DUP1 REVERT JUMPDEST SWAP3 POP SWAP3 SWAP1 POP JUMP JUMPDEST PUSH1 0x0 DUP1 PUSH1 0x0 DUP1 PUSH1 0x40 DUP6 DUP8 SUB SLT ISZERO PUSH2 0x4926 JUMPI PUSH1 0x0 DUP1 REVERT JUMPDEST DUP5 CALLDATALOAD PUSH1 0x1 PUSH1 0x1 PUSH1 0x40 SHL SUB DUP1 DUP3 GT ISZERO PUSH2 0x493D JUMPI PUSH1 0x0 DUP1 REVERT JUMPDEST PUSH2 0x4949 DUP9 DUP4 DUP10 ADD PUSH2 0x48C5 JUMP JUMPDEST SWAP1 SWAP7 POP SWAP5 POP PUSH1 0x20 DUP8 ADD CALLDATALOAD SWAP2 POP DUP1 DUP3 GT ISZERO PUSH2 0x4962 JUMPI PUSH1 0x0 DUP1 REVERT JUMPDEST POP PUSH2 0x496F DUP8 DUP3 DUP9 ADD PUSH2 0x48C5 JUMP JUMPDEST SWAP6 SWAP9 SWAP5 SWAP8 POP SWAP6 POP POP POP POP JUMP JUMPDEST PUSH1 0x0 PUSH1 0x20 DUP3 DUP5 SUB SLT ISZERO PUSH2 0x498D JUMPI PUSH1 0x0 DUP1 REVERT JUMPDEST POP CALLDATALOAD SWAP2 SWAP1 POP JUMP JUMPDEST PUSH1 0x0 DUP3 PUSH1 0x1F DUP4 ADD SLT PUSH2 0x49A5 JUMPI PUSH1 0x0 DUP1 REVERT JUMPDEST DUP2 CALLDATALOAD PUSH1 0x20 PUSH2 0x49B5 PUSH2 0x40DD DUP4 PUSH2 0x4161 JUMP JUMPDEST DUP3 DUP2 MSTORE PUSH1 0x5 SWAP3 SWAP1 SWAP3 SHL DUP5 ADD DUP2 ADD SWAP2 DUP2 DUP2 ADD SWAP1 DUP7 DUP5 GT ISZERO PUSH2 0x49D4 JUMPI PUSH1 0x0 DUP1 REVERT JUMPDEST DUP3 DUP7 ADD JUMPDEST DUP5 DUP2 LT ISZERO PUSH2 0x41E6 JUMPI DUP1 CALLDATALOAD PUSH1 0x3 DUP2 LT PUSH2 0x49F0 JUMPI PUSH1 0x0 DUP1 DUP2 REVERT JUMPDEST DUP4 MSTORE SWAP2 DUP4 ADD SWAP2 DUP4 ADD PUSH2 0x49D8 JUMP JUMPDEST PUSH1 0x0 DUP1 PUSH1 0x0 DUP1 PUSH1 0x80 DUP6 DUP8 SUB SLT ISZERO PUSH2 0x4A13 JUMPI PUSH1 0x0 DUP1 REVERT JUMPDEST DUP5 CALLDATALOAD PUSH1 0x1 PUSH1 0x1 PUSH1 0x40 SHL SUB DUP1 DUP3 GT ISZERO PUSH2 0x4A2A JUMPI PUSH1 0x0 DUP1 REVERT JUMPDEST PUSH2 0x4A36 DUP9 DUP4 DUP10 ADD PUSH2 0x40BE JUMP JUMPDEST SWAP6 POP PUSH1 0x20 SWAP2 POP DUP2 DUP8 ADD CALLDATALOAD DUP2 DUP2 GT ISZERO PUSH2 0x4A4D JUMPI PUSH1 0x0 DUP1 REVERT JUMPDEST PUSH2 0x4A59 DUP10 DUP3 DUP11 ADD PUSH2 0x424C JUMP JUMPDEST SWAP6 POP POP PUSH1 0x40 DUP8 ADD CALLDATALOAD DUP2 DUP2 GT ISZERO PUSH2 0x4A6E JUMPI PUSH1 0x0 DUP1 REVERT JUMPDEST DUP8 ADD PUSH1 0x1F DUP2 ADD DUP10 SGT PUSH2 0x4A7F JUMPI PUSH1 0x0 DUP1 REVERT JUMPDEST DUP1 CALLDATALOAD PUSH2 0x4A8D PUSH2 0x40DD DUP3 PUSH2 0x4161 JUMP JUMPDEST DUP2 DUP2 MSTORE PUSH1 0x5 SWAP2 SWAP1 SWAP2 SHL DUP3 ADD DUP5 ADD SWAP1 DUP5 DUP2 ADD SWAP1 DUP12 DUP4 GT ISZERO PUSH2 0x4AAC JUMPI PUSH1 0x0 DUP1 REVERT JUMPDEST DUP6 DUP5 ADD JUMPDEST DUP4 DUP2 LT ISZERO PUSH2 0x4AE4 JUMPI DUP1 CALLDATALOAD DUP7 DUP2 GT ISZERO PUSH2 0x4AC8 JUMPI PUSH1 0x0 DUP1 DUP2 REVERT JUMPDEST PUSH2 0x4AD6 DUP15 DUP10 DUP4 DUP10 ADD ADD PUSH2 0x424C JUMP JUMPDEST DUP5 MSTORE POP SWAP2 DUP7 ADD SWAP2 DUP7 ADD PUSH2 0x4AB0 JUMP JUMPDEST POP SWAP7 POP POP POP POP PUSH1 0x60 DUP8 ADD CALLDATALOAD SWAP2 POP DUP1 DUP3 GT ISZERO PUSH2 0x4AFE JUMPI PUSH1 0x0 DUP1 REVERT JUMPDEST POP PUSH2 0x4B0B DUP8 DUP3 DUP9 ADD PUSH2 0x4994 JUMP JUMPDEST SWAP2 POP POP SWAP3 SWAP6 SWAP2 SWAP5 POP SWAP3 POP JUMP JUMPDEST PUSH1 0x20 DUP2 MSTORE PUSH1 0x0 PUSH2 0x6CB PUSH1 0x20 DUP4 ADD DUP5 PUSH2 0x44D5 JUMP JUMPDEST PUSH1 0x20 DUP2 MSTORE PUSH1 0x0 PUSH2 0x6CB PUSH1 0x20 DUP4 ADD DUP5 PUSH2 0x462B JUMP JUMPDEST PUSH1 0x0 PUSH1 0x20 DUP3 DUP5 SUB SLT ISZERO PUSH2 0x4B4F JUMPI PUSH1 0x0 DUP1 REVERT JUMPDEST DUP2 CALLDATALOAD PUSH1 0x1 PUSH1 0x1 PUSH1 0x40 SHL SUB DUP2 GT ISZERO PUSH2 0x4B65 JUMPI PUSH1 0x0 DUP1 REVERT JUMPDEST DUP3 ADD PUSH2 0x140 DUP2 DUP6 SUB SLT ISZERO PUSH2 0x4033 JUMPI PUSH1 0x0 DUP1 REVERT JUMPDEST PUSH1 0x0 DUP1 PUSH1 0x0 DUP1 PUSH1 0x0 DUP1 PUSH1 0x0 PUSH1 0xE0 DUP9 DUP11 SUB SLT ISZERO PUSH2 0x4B93 JUMPI PUSH1 0x0 DUP1 REVERT JUMPDEST DUP8 CALLDATALOAD PUSH1 0x1 PUSH1 0x1 PUSH1 0x40 SHL SUB DUP1 DUP3 GT ISZERO PUSH2 0x4BAA JUMPI PUSH1 0x0 DUP1 REVERT JUMPDEST PUSH2 0x4BB6 DUP12 DUP4 DUP13 ADD PUSH2 0x40BE JUMP JUMPDEST SWAP9 POP PUSH1 0x20 DUP11 ADD CALLDATALOAD SWAP2 POP DUP1 DUP3 GT ISZERO PUSH2 0x4BCC JUMPI PUSH1 0x0 DUP1 REVERT JUMPDEST PUSH2 0x4BD8 DUP12 DUP4 DUP13 ADD PUSH2 0x4184 JUMP JUMPDEST SWAP8 POP PUSH1 0x40 DUP11 ADD CALLDATALOAD SWAP2 POP DUP1 DUP3 GT ISZERO PUSH2 0x4BEE JUMPI PUSH1 0x0 DUP1 REVERT JUMPDEST PUSH2 0x4BFA DUP12 DUP4 DUP13 ADD PUSH2 0x4184 JUMP JUMPDEST SWAP7 POP PUSH1 0x60 DUP11 ADD CALLDATALOAD SWAP2 POP DUP1 DUP3 GT ISZERO PUSH2 0x4C10 JUMPI PUSH1 0x0 DUP1 REVERT JUMPDEST PUSH2 0x4C1C DUP12 DUP4 DUP13 ADD PUSH2 0x41F1 JUMP JUMPDEST SWAP6 POP PUSH1 0x80 DUP11 ADD CALLDATALOAD SWAP2 POP DUP1 DUP3 GT ISZERO PUSH2 0x4C32 JUMPI PUSH1 0x0 DUP1 REVERT JUMPDEST PUSH2 0x4C3E DUP12 DUP4 DUP13 ADD PUSH2 0x424C JUMP JUMPDEST SWAP5 POP PUSH1 0xA0 DUP11 ADD CALLDATALOAD SWAP2 POP DUP1 DUP3 GT ISZERO PUSH2 0x4C54 JUMPI PUSH1 0x0 DUP1 REVERT JUMPDEST PUSH2 0x4C60 DUP12 DUP4 DUP13 ADD PUSH2 0x40BE JUMP JUMPDEST SWAP4 POP PUSH1 0xC0 DUP11 ADD CALLDATALOAD SWAP2 POP DUP1 DUP3 GT ISZERO PUSH2 0x4C76 JUMPI PUSH1 0x0 DUP1 REVERT JUMPDEST POP PUSH2 0x4C83 DUP11 DUP3 DUP12 ADD PUSH2 0x40BE JUMP JUMPDEST SWAP2 POP POP SWAP3 SWAP6 SWAP9 SWAP2 SWAP5 SWAP8 POP SWAP3 SWAP6 POP JUMP JUMPDEST PUSH1 0x20 DUP1 DUP3 MSTORE PUSH1 0x12 SWAP1 DUP3 ADD MSTORE PUSH18 0x10DBDB9D1C9858DD081A5CC81C185D5CD959 PUSH1 0x72 SHL PUSH1 0x40 DUP3 ADD MSTORE PUSH1 0x60 ADD SWAP1 JUMP JUMPDEST PUSH1 0x0 DUP5 MLOAD PUSH2 0x4CD0 DUP2 DUP5 PUSH1 0x20 DUP10 ADD PUSH2 0x4423 JUMP JUMPDEST DUP1 DUP4 ADD SWAP1 POP PUSH1 0x17 PUSH1 0xF9 SHL DUP1 DUP3 MSTORE DUP6 MLOAD PUSH2 0x4CF0 DUP2 PUSH1 0x1 DUP6 ADD PUSH1 0x20 DUP11 ADD PUSH2 0x4423 JUMP JUMPDEST PUSH1 0x1 SWAP3 ADD SWAP2 DUP3 ADD MSTORE DUP4 MLOAD PUSH2 0x4D0B DUP2 PUSH1 0x2 DUP5 ADD PUSH1 0x20 DUP9 ADD PUSH2 0x4423 JUMP JUMPDEST ADD PUSH1 0x2 ADD SWAP6 SWAP5 POP POP POP POP POP JUMP JUMPDEST PUSH1 0x0 DUP3 MLOAD PUSH2 0x4D2A DUP2 DUP5 PUSH1 0x20 DUP8 ADD PUSH2 0x4423 JUMP JUMPDEST SWAP2 SWAP1 SWAP2 ADD SWAP3 SWAP2 POP POP JUMP JUMPDEST PUSH1 0x1 DUP2 DUP2 SHR SWAP1 DUP3 AND DUP1 PUSH2 0x4D48 JUMPI PUSH1 0x7F DUP3 AND SWAP2 POP JUMPDEST PUSH1 0x20 DUP3 LT DUP2 SUB PUSH2 0x4D68 JUMPI PUSH4 0x4E487B71 PUSH1 0xE0 SHL PUSH1 0x0 MSTORE PUSH1 0x22 PUSH1 0x4 MSTORE PUSH1 0x24 PUSH1 0x0 REVERT JUMPDEST POP SWAP2 SWAP1 POP JUMP JUMPDEST PUSH4 0x4E487B71 PUSH1 0xE0 SHL PUSH1 0x0 MSTORE PUSH1 0x32 PUSH1 0x4 MSTORE PUSH1 0x24 PUSH1 0x0 REVERT JUMPDEST PUSH1 0x0 DUP3 CALLDATALOAD PUSH2 0x13E NOT DUP4 CALLDATASIZE SUB ADD DUP2 SLT PUSH2 0x4D2A JUMPI PUSH1 0x0 DUP1 REVERT JUMPDEST PUSH1 0x0 DUP1 DUP4 SLOAD PUSH2 0x4DA9 DUP2 PUSH2 0x4D34 JUMP JUMPDEST PUSH1 0x1 DUP3 DUP2 AND DUP1 ISZERO PUSH2 0x4DC1 JUMPI PUSH1 0x1 DUP2 EQ PUSH2 0x4DD6 JUMPI PUSH2 0x4E05 JUMP JUMPDEST PUSH1 0xFF NOT DUP5 AND DUP8 MSTORE DUP3 ISZERO ISZERO DUP4 MUL DUP8 ADD SWAP5 POP PUSH2 0x4E05 JUMP JUMPDEST DUP8 PUSH1 0x0 MSTORE PUSH1 0x20 DUP1 PUSH1 0x0 KECCAK256 PUSH1 0x0 JUMPDEST DUP6 DUP2 LT ISZERO PUSH2 0x4DFC JUMPI DUP2 SLOAD DUP11 DUP3 ADD MSTORE SWAP1 DUP5 ADD SWAP1 DUP3 ADD PUSH2 0x4DE3 JUMP JUMPDEST POP POP POP DUP3 DUP8 ADD SWAP5 POP JUMPDEST POP SWAP3 SWAP7 SWAP6 POP POP POP POP POP POP JUMP JUMPDEST PUSH4 0x4E487B71 PUSH1 0xE0 SHL PUSH1 0x0 MSTORE PUSH1 0x11 PUSH1 0x4 MSTORE PUSH1 0x24 PUSH1 0x0 REVERT JUMPDEST PUSH1 0x0 PUSH1 0x1 DUP3 ADD PUSH2 0x4E39 JUMPI PUSH2 0x4E39 PUSH2 0x4E11 JUMP JUMPDEST POP PUSH1 0x1 ADD SWAP1 JUMP JUMPDEST PUSH1 0x1F DUP3 GT ISZERO PUSH2 0x4E8A JUMPI PUSH1 0x0 DUP2 DUP2 MSTORE PUSH1 0x20 DUP2 KECCAK256 PUSH1 0x1F DUP6 ADD PUSH1 0x5 SHR DUP2 ADD PUSH1 0x20 DUP7 LT ISZERO PUSH2 0x4E67 JUMPI POP DUP1 JUMPDEST PUSH1 0x1F DUP6 ADD PUSH1 0x5 SHR DUP3 ADD SWAP2 POP JUMPDEST DUP2 DUP2 LT ISZERO PUSH2 0x4E86 JUMPI DUP3 DUP2 SSTORE PUSH1 0x1 ADD PUSH2 0x4E73 JUMP JUMPDEST POP POP POP JUMPDEST POP POP POP JUMP JUMPDEST DUP2 MLOAD PUSH1 0x1 PUSH1 0x1 PUSH1 0x40 SHL SUB DUP2 GT ISZERO PUSH2 0x4EA8 JUMPI PUSH2 0x4EA8 PUSH2 0x4051 JUMP JUMPDEST PUSH2 0x4EBC DUP2 PUSH2 0x4EB6 DUP5 SLOAD PUSH2 0x4D34 JUMP JUMPDEST DUP5 PUSH2 0x4E40 JUMP JUMPDEST PUSH1 0x20 DUP1 PUSH1 0x1F DUP4 GT PUSH1 0x1 DUP2 EQ PUSH2 0x4EF1 JUMPI PUSH1 0x0 DUP5 ISZERO PUSH2 0x4ED9 JUMPI POP DUP6 DUP4 ADD MLOAD JUMPDEST PUSH1 0x0 NOT PUSH1 0x3 DUP7 SWAP1 SHL SHR NOT AND PUSH1 0x1 DUP6 SWAP1 SHL OR DUP6 SSTORE PUSH2 0x4E86 JUMP JUMPDEST PUSH1 0x0 DUP6 DUP2 MSTORE PUSH1 0x20 DUP2 KECCAK256 PUSH1 0x1F NOT DUP7 AND SWAP2 JUMPDEST DUP3 DUP2 LT ISZERO PUSH2 0x4F20 JUMPI DUP9 DUP7 ADD MLOAD DUP3 SSTORE SWAP5 DUP5 ADD SWAP5 PUSH1 0x1 SWAP1 SWAP2 ADD SWAP1 DUP5 ADD PUSH2 0x4F01 JUMP JUMPDEST POP DUP6 DUP3 LT ISZERO PUSH2 0x4F3E JUMPI DUP8 DUP6 ADD MLOAD PUSH1 0x0 NOT PUSH1 0x3 DUP9 SWAP1 SHL PUSH1 0xF8 AND SHR NOT AND DUP2 SSTORE JUMPDEST POP POP POP POP POP PUSH1 0x1 SWAP1 DUP2 SHL ADD SWAP1 SSTORE POP JUMP JUMPDEST DUP2 DUP2 SUB DUP2 DUP2 GT ISZERO PUSH2 0x6CE JUMPI PUSH2 0x6CE PUSH2 0x4E11 JUMP JUMPDEST PUSH4 0x4E487B71 PUSH1 0xE0 SHL PUSH1 0x0 MSTORE PUSH1 0x31 PUSH1 0x4 MSTORE PUSH1 0x24 PUSH1 0x0 REVERT JUMPDEST PUSH1 0x0 PUSH1 0x20 DUP3 DUP5 SUB SLT ISZERO PUSH2 0x4F89 JUMPI PUSH1 0x0 DUP1 REVERT JUMPDEST POP MLOAD SWAP2 SWAP1 POP JUMP JUMPDEST DUP1 DUP3 MUL DUP2 ISZERO DUP3 DUP3 DIV DUP5 EQ OR PUSH2 0x6CE JUMPI PUSH2 0x6CE PUSH2 0x4E11 JUMP JUMPDEST PUSH1 0x0 PUSH1 0x20 DUP3 DUP5 SUB SLT ISZERO PUSH2 0x4FB9 JUMPI PUSH1 0x0 DUP1 REVERT JUMPDEST DUP2 MLOAD PUSH2 0x4033 DUP2 PUSH2 0x3FFD JUMP JUMPDEST PUSH1 0x20 DUP1 DUP3 MSTORE PUSH1 0x23 SWAP1 DUP3 ADD MSTORE PUSH32 0x4465726573793A20455243323020746F6B656E207472616E7366657220666169 PUSH1 0x40 DUP3 ADD MSTORE PUSH3 0x1B1959 PUSH1 0xEA SHL PUSH1 0x60 DUP3 ADD MSTORE PUSH1 0x80 ADD SWAP1 JUMP JUMPDEST PUSH1 0x0 PUSH1 0x20 DUP3 DUP5 SUB SLT ISZERO PUSH2 0x5019 JUMPI PUSH1 0x0 DUP1 REVERT JUMPDEST DUP2 MLOAD PUSH1 0x1 PUSH1 0x1 PUSH1 0x40 SHL SUB DUP2 GT ISZERO PUSH2 0x502F JUMPI PUSH1 0x0 DUP1 REVERT JUMPDEST DUP3 ADD PUSH1 0x1F DUP2 ADD DUP5 SGT PUSH2 0x5040 JUMPI PUSH1 0x0 DUP1 REVERT JUMPDEST DUP1 MLOAD PUSH2 0x504E PUSH2 0x40DD DUP3 PUSH2 0x4097 JUMP JUMPDEST DUP2 DUP2 MSTORE DUP6 PUSH1 0x20 DUP4 DUP6 ADD ADD GT ISZERO PUSH2 0x5063 JUMPI PUSH1 0x0 DUP1 REVERT JUMPDEST PUSH2 0x5074 DUP3 PUSH1 0x20 DUP4 ADD PUSH1 0x20 DUP7 ADD PUSH2 0x4423 JUMP JUMPDEST SWAP6 SWAP5 POP POP POP POP POP JUMP JUMPDEST PUSH1 0x0 DUP1 DUP4 CALLDATALOAD PUSH1 0x1E NOT DUP5 CALLDATASIZE SUB ADD DUP2 SLT PUSH2 0x5094 JUMPI PUSH1 0x0 DUP1 REVERT JUMPDEST DUP4 ADD DUP1 CALLDATALOAD SWAP2 POP PUSH1 0x1 PUSH1 0x1 PUSH1 0x40 SHL SUB DUP3 GT ISZERO PUSH2 0x50AE JUMPI PUSH1 0x0 DUP1 REVERT JUMPDEST PUSH1 0x20 ADD SWAP2 POP CALLDATASIZE DUP2 SWAP1 SUB DUP3 SGT ISZERO PUSH2 0x4909 JUMPI PUSH1 0x0 DUP1 REVERT JUMPDEST PUSH1 0x0 DUP1 PUSH1 0x0 DUP1 PUSH1 0x0 DUP1 PUSH1 0x0 DUP1 PUSH1 0x0 DUP1 PUSH1 0x0 PUSH2 0x160 DUP13 DUP15 SUB SLT ISZERO PUSH2 0x50E5 JUMPI PUSH1 0x0 DUP1 REVERT JUMPDEST PUSH1 0x1 PUSH1 0x1 PUSH1 0x40 SHL SUB DUP1 DUP14 CALLDATALOAD GT ISZERO PUSH2 0x50FB JUMPI PUSH1 0x0 DUP1 REVERT JUMPDEST PUSH2 0x5108 DUP15 DUP15 CALLDATALOAD DUP16 ADD PUSH2 0x40BE JUMP JUMPDEST SWAP12 POP PUSH1 0x20 DUP14 ADD CALLDATALOAD SWAP11 POP DUP1 PUSH1 0x40 DUP15 ADD CALLDATALOAD GT ISZERO PUSH2 0x5122 JUMPI PUSH1 0x0 DUP1 REVERT JUMPDEST PUSH2 0x5132 DUP15 PUSH1 0x40 DUP16 ADD CALLDATALOAD DUP16 ADD PUSH2 0x424C JUMP JUMPDEST SWAP10 POP DUP1 PUSH1 0x60 DUP15 ADD CALLDATALOAD GT ISZERO PUSH2 0x5145 JUMPI PUSH1 0x0 DUP1 REVERT JUMPDEST PUSH2 0x5155 DUP15 PUSH1 0x60 DUP16 ADD CALLDATALOAD DUP16 ADD PUSH2 0x424C JUMP JUMPDEST SWAP9 POP DUP1 PUSH1 0x80 DUP15 ADD CALLDATALOAD GT ISZERO PUSH2 0x5168 JUMPI PUSH1 0x0 DUP1 REVERT JUMPDEST PUSH2 0x5178 DUP15 PUSH1 0x80 DUP16 ADD CALLDATALOAD DUP16 ADD PUSH2 0x424C JUMP JUMPDEST SWAP8 POP DUP1 PUSH1 0xA0 DUP15 ADD CALLDATALOAD GT ISZERO PUSH2 0x518B JUMPI PUSH1 0x0 DUP1 REVERT JUMPDEST PUSH2 0x519B DUP15 PUSH1 0xA0 DUP16 ADD CALLDATALOAD DUP16 ADD PUSH2 0x40BE JUMP JUMPDEST SWAP7 POP DUP1 PUSH1 0xC0 DUP15 ADD CALLDATALOAD GT ISZERO PUSH2 0x51AE JUMPI PUSH1 0x0 DUP1 REVERT JUMPDEST PUSH2 0x51BE DUP15 PUSH1 0xC0 DUP16 ADD CALLDATALOAD DUP16 ADD PUSH2 0x424C JUMP JUMPDEST SWAP6 POP DUP1 PUSH1 0xE0 DUP15 ADD CALLDATALOAD GT ISZERO PUSH2 0x51D1 JUMPI PUSH1 0x0 DUP1 REVERT JUMPDEST PUSH2 0x51E1 DUP15 PUSH1 0xE0 DUP16 ADD CALLDATALOAD DUP16 ADD PUSH2 0x40BE JUMP JUMPDEST SWAP5 POP DUP1 PUSH2 0x100 DUP15 ADD CALLDATALOAD GT ISZERO PUSH2 0x51F5 JUMPI PUSH1 0x0 DUP1 REVERT JUMPDEST PUSH2 0x5206 DUP15 PUSH2 0x100 DUP16 ADD CALLDATALOAD DUP16 ADD PUSH2 0x40BE JUMP JUMPDEST SWAP4 POP DUP1 PUSH2 0x120 DUP15 ADD CALLDATALOAD GT ISZERO PUSH2 0x521A JUMPI PUSH1 0x0 DUP1 REVERT JUMPDEST PUSH2 0x522B DUP15 PUSH2 0x120 DUP16 ADD CALLDATALOAD DUP16 ADD PUSH2 0x424C JUMP JUMPDEST SWAP3 POP DUP1 PUSH2 0x140 DUP15 ADD CALLDATALOAD GT ISZERO PUSH2 0x523F JUMPI PUSH1 0x0 DUP1 REVERT JUMPDEST POP PUSH2 0x5251 DUP14 PUSH2 0x140 DUP15 ADD CALLDATALOAD DUP15 ADD PUSH2 0x424C JUMP JUMPDEST SWAP1 POP SWAP3 SWAP6 SWAP9 SWAP12 POP SWAP3 SWAP6 SWAP9 SWAP12 SWAP1 SWAP4 SWAP7 SWAP10 POP JUMP JUMPDEST DUP1 CALLDATALOAD PUSH1 0x1 PUSH1 0x1 PUSH1 0x40 SHL SUB DUP2 AND DUP2 EQ PUSH2 0x20A8 JUMPI PUSH1 0x0 DUP1 REVERT JUMPDEST PUSH1 0x0 DUP1 DUP4 CALLDATALOAD PUSH1 0x1E NOT DUP5 CALLDATASIZE SUB ADD DUP2 SLT PUSH2 0x5291 JUMPI PUSH1 0x0 DUP1 REVERT JUMPDEST DUP4 ADD PUSH1 0x20 DUP2 ADD SWAP3 POP CALLDATALOAD SWAP1 POP PUSH1 0x1 PUSH1 0x1 PUSH1 0x40 SHL SUB DUP2 GT ISZERO PUSH2 0x52B0 JUMPI PUSH1 0x0 DUP1 REVERT JUMPDEST DUP1 CALLDATASIZE SUB DUP3 SGT ISZERO PUSH2 0x4909 JUMPI PUSH1 0x0 DUP1 REVERT JUMPDEST DUP2 DUP4 MSTORE DUP2 DUP2 PUSH1 0x20 DUP6 ADD CALLDATACOPY POP PUSH1 0x0 DUP3 DUP3 ADD PUSH1 0x20 SWAP1 DUP2 ADD SWAP2 SWAP1 SWAP2 MSTORE PUSH1 0x1F SWAP1 SWAP2 ADD PUSH1 0x1F NOT AND SWAP1 SWAP2 ADD ADD SWAP1 JUMP JUMPDEST PUSH1 0x40 DUP2 MSTORE DUP3 CALLDATALOAD PUSH1 0x40 DUP3 ADD MSTORE PUSH1 0x20 DUP4 ADD CALLDATALOAD PUSH1 0x60 DUP3 ADD MSTORE PUSH1 0x0 PUSH2 0x530B PUSH1 0x40 DUP6 ADD PUSH2 0x5263 JUMP JUMPDEST PUSH1 0x1 PUSH1 0x1 PUSH1 0x40 SHL SUB AND PUSH1 0x80 DUP4 ADD MSTORE PUSH2 0x5325 PUSH1 0x60 DUP6 ADD PUSH2 0x5263 JUMP JUMPDEST PUSH1 0x1 PUSH1 0x1 PUSH1 0x40 SHL SUB AND PUSH1 0xA0 DUP4 ADD MSTORE PUSH2 0x533F PUSH1 0x80 DUP6 ADD PUSH2 0x5263 JUMP JUMPDEST PUSH1 0x1 PUSH1 0x1 PUSH1 0x40 SHL SUB DUP2 AND PUSH1 0xC0 DUP5 ADD MSTORE POP PUSH1 0xA0 DUP5 ADD CALLDATALOAD PUSH1 0xE0 DUP4 ADD MSTORE PUSH2 0x5365 PUSH1 0xC0 DUP6 ADD PUSH2 0x403A JUMP JUMPDEST PUSH2 0x100 PUSH2 0x537C DUP2 DUP6 ADD DUP4 PUSH1 0x1 PUSH1 0x1 PUSH1 0xA0 SHL SUB AND SWAP1 MSTORE JUMP JUMPDEST PUSH2 0x5388 PUSH1 0xE0 DUP8 ADD PUSH2 0x403A JUMP JUMPDEST SWAP2 POP PUSH2 0x120 PUSH2 0x53A1 DUP2 DUP7 ADD DUP5 PUSH1 0x1 PUSH1 0x1 PUSH1 0xA0 SHL SUB AND SWAP1 MSTORE JUMP JUMPDEST PUSH2 0x53AC DUP3 DUP9 ADD PUSH2 0x400B JUMP JUMPDEST SWAP3 POP PUSH2 0x140 SWAP2 POP PUSH2 0x53C0 DUP3 DUP7 ADD DUP5 ISZERO ISZERO SWAP1 MSTORE JUMP JUMPDEST PUSH2 0x53CC DUP2 DUP9 ADD DUP9 PUSH2 0x527A JUMP JUMPDEST SWAP4 POP SWAP1 POP DUP2 PUSH2 0x160 DUP7 ADD MSTORE PUSH2 0x53E6 PUSH2 0x180 DUP7 ADD DUP5 DUP4 PUSH2 0x52BF JUMP JUMPDEST SWAP3 POP POP POP DUP3 DUP2 SUB PUSH1 0x20 DUP5 ADD MSTORE PUSH2 0x5074 DUP2 DUP6 PUSH2 0x4447 JUMP JUMPDEST PUSH1 0x0 DUP1 PUSH1 0x0 DUP1 PUSH1 0x0 PUSH1 0xA0 DUP7 DUP9 SUB SLT ISZERO PUSH2 0x5414 JUMPI PUSH1 0x0 DUP1 REVERT JUMPDEST DUP6 CALLDATALOAD PUSH1 0x1 PUSH1 0x1 PUSH1 0x40 SHL SUB DUP1 DUP3 GT ISZERO PUSH2 0x542B JUMPI PUSH1 0x0 DUP1 REVERT JUMPDEST PUSH2 0x5437 DUP10 DUP4 DUP11 ADD PUSH2 0x40BE JUMP JUMPDEST SWAP7 POP PUSH1 0x20 DUP9 ADD CALLDATALOAD SWAP6 POP PUSH1 0x40 DUP9 ADD CALLDATALOAD SWAP2 POP DUP1 DUP3 GT ISZERO PUSH2 0x5454 JUMPI PUSH1 0x0 DUP1 REVERT JUMPDEST PUSH2 0x5460 DUP10 DUP4 DUP11 ADD PUSH2 0x40BE JUMP JUMPDEST SWAP5 POP PUSH1 0x60 DUP9 ADD CALLDATALOAD SWAP2 POP DUP1 DUP3 GT ISZERO PUSH2 0x5476 JUMPI PUSH1 0x0 DUP1 REVERT JUMPDEST PUSH2 0x5482 DUP10 DUP4 DUP11 ADD PUSH2 0x40BE JUMP JUMPDEST SWAP4 POP PUSH1 0x80 DUP9 ADD CALLDATALOAD SWAP2 POP DUP1 DUP3 GT ISZERO PUSH2 0x5498 JUMPI PUSH1 0x0 DUP1 REVERT JUMPDEST POP PUSH2 0x54A5 DUP9 DUP3 DUP10 ADD PUSH2 0x424C JUMP JUMPDEST SWAP2 POP POP SWAP3 SWAP6 POP SWAP3 SWAP6 SWAP1 SWAP4 POP JUMP INVALID LOG2 PUSH5 0x6970667358 0x22 SLT KECCAK256 0xDB DUP5 0xDE 0xA7 PUSH26 0x6F4F52279E4B882BBEA02A22E857A6CCD6790C7E0BEEFEAE2026 0xC3 PUSH5 0x736F6C6343 STOP ADDMOD SGT STOP CALLER "
		},
		"gasEstimates": {
			"creation": {
				"codeDepositCost": "4347200",
				"executionCost": "infinite",
				"totalCost": "infinite"
			},
			"external": {
				"amendmentsSchemaID()": "2341",
				"attest((bytes32,bytes32,uint64,uint64,uint64,bytes32,address,address,bool,bytes))": "infinite",
				"callbackContract()": "2426",
				"closeReviewRequest(string)": "infinite",
				"contractVersion()": "infinite",
				"createNonPayableRequest(string,address[],address[],uint256[],string[],string,string)": "infinite",
				"createRequest(string,address[],address[],uint256[],string[],string,uint256,uint8,address,string)": "infinite",
				"createReviewForm(string,string[],string[][],uint8[])": "infinite",
				"getRequest(string)": "infinite",
				"getRequestReviewForm(string)": "infinite",
				"getReviewForm(string)": "infinite",
				"getReviewFormsNames()": "infinite",
				"getReviewRequestsNames()": "infinite",
				"getWhitelistedTokens()": "infinite",
				"hypercertContract()": "2383",
				"isPayable()": "254",
				"isReviewer(address,string)": "infinite",
				"isTokenWhitelisted(address)": "infinite",
				"multiAttest((bytes32,bytes32,uint64,uint64,uint64,bytes32,address,address,bool,bytes)[],uint256[])": "infinite",
				"multiRevoke((bytes32,bytes32,uint64,uint64,uint64,bytes32,address,address,bool,bytes)[],uint256[])": "infinite",
				"owner()": "2420",
				"pause()": "28770",
				"paused()": "2389",
				"renounceOwnership()": "infinite",
				"reviewsSchemaID()": "2406",
				"revoke((bytes32,bytes32,uint64,uint64,uint64,bytes32,address,address,bool,bytes))": "infinite",
				"setAmendmentsSchemaID(bytes32)": "24556",
				"setCallbackContract(address)": "26807",
				"setHypercertContract(address)": "26784",
				"setReviewsSchemaID(bytes32)": "24555",
				"setValidateHypercertIDs(bool)": "26748",
				"transferOwnership(address)": "28469",
				"unpause()": "26639",
				"unwhitelistToken(address)": "infinite",
				"validateHypercertIDs()": "2420",
				"version()": "infinite",
				"whitelistToken(address)": "infinite"
			},
			"internal": {
				"_isReviewer(address,string memory)": "infinite",
				"allReviewerContractsERC721(address[] memory)": "infinite",
				"createReviewRequestCommon(string memory,address[] memory,address[] memory,uint256[] memory,string memory[] memory,string memory,uint256,uint8,string memory,address,bool)": "infinite",
				"getNumberOfReviewsForHypercert(string memory,uint256)": "infinite",
				"hasSubmittedReview(address,string memory,uint256)": "infinite",
				"isERC721Contract(address)": "infinite",
				"onAttest(struct Attestation calldata,uint256)": "infinite",
				"onRevoke(struct Attestation calldata,uint256)": "infinite",
				"processAmendment(struct Attestation calldata)": "infinite",
				"processReview(struct Attestation calldata)": "infinite",
				"validateAnswers(struct DeresyResolver.ReviewForm storage pointer,string memory[] memory)": "infinite",
				"validateHypercertID(uint256[] memory,uint256)": "infinite",
				"validateRequestHypercerts(uint256[] memory)": "infinite"
			}
		},
		"methodIdentifiers": {
			"amendmentsSchemaID()": "74987060",
			"attest((bytes32,bytes32,uint64,uint64,uint64,bytes32,address,address,bool,bytes))": "e60c3505",
			"callbackContract()": "bd7e2aa4",
			"closeReviewRequest(string)": "be2761d0",
			"contractVersion()": "a0a8e460",
			"createNonPayableRequest(string,address[],address[],uint256[],string[],string,string)": "e9c06f0e",
			"createRequest(string,address[],address[],uint256[],string[],string,uint256,uint8,address,string)": "37b8f29d",
			"createReviewForm(string,string[],string[][],uint8[])": "b759dc72",
			"getRequest(string)": "85b92413",
			"getRequestReviewForm(string)": "b4e137cd",
			"getReviewForm(string)": "80a43d70",
			"getReviewFormsNames()": "c480fe48",
			"getReviewRequestsNames()": "dd526054",
			"getWhitelistedTokens()": "e26f7900",
			"hypercertContract()": "418f4400",
			"isPayable()": "ce46e046",
			"isReviewer(address,string)": "270530ca",
			"isTokenWhitelisted(address)": "b5af090f",
			"multiAttest((bytes32,bytes32,uint64,uint64,uint64,bytes32,address,address,bool,bytes)[],uint256[])": "91db0b7e",
			"multiRevoke((bytes32,bytes32,uint64,uint64,uint64,bytes32,address,address,bool,bytes)[],uint256[])": "88e5b2d9",
			"owner()": "8da5cb5b",
			"pause()": "8456cb59",
			"paused()": "5c975abb",
			"renounceOwnership()": "715018a6",
			"reviewsSchemaID()": "9128b0d8",
			"revoke((bytes32,bytes32,uint64,uint64,uint64,bytes32,address,address,bool,bytes))": "e49617e1",
			"setAmendmentsSchemaID(bytes32)": "abe1d7f3",
			"setCallbackContract(address)": "7a35aaa9",
			"setHypercertContract(address)": "c74b1340",
			"setReviewsSchemaID(bytes32)": "b8b23c17",
			"setValidateHypercertIDs(bool)": "02615536",
			"transferOwnership(address)": "f2fde38b",
			"unpause()": "3f4ba83a",
			"unwhitelistToken(address)": "d627d25e",
			"validateHypercertIDs()": "f1e47e92",
			"version()": "54fd4d50",
			"whitelistToken(address)": "6247f6f2"
		}
	},
	"abi": [
		{
			"inputs": [
				{
					"internalType": "contract IEAS",
					"name": "eas",
					"type": "address"
				}
			],
			"stateMutability": "nonpayable",
			"type": "constructor"
		},
		{
			"inputs": [],
			"name": "AccessDenied",
			"type": "error"
		},
		{
			"inputs": [],
			"name": "InsufficientValue",
			"type": "error"
		},
		{
			"inputs": [],
			"name": "InvalidEAS",
			"type": "error"
		},
		{
			"inputs": [],
			"name": "InvalidLength",
			"type": "error"
		},
		{
			"inputs": [],
			"name": "NotPayable",
			"type": "error"
		},
		{
			"anonymous": false,
			"inputs": [
				{
					"indexed": false,
					"internalType": "string",
					"name": "_requestName",
					"type": "string"
				}
			],
			"name": "ClosedReviewRequest",
			"type": "event"
		},
		{
			"anonymous": false,
			"inputs": [
				{
					"indexed": false,
					"internalType": "string",
					"name": "_formName",
					"type": "string"
				}
			],
			"name": "CreatedReviewForm",
			"type": "event"
		},
		{
			"anonymous": false,
			"inputs": [
				{
					"indexed": false,
					"internalType": "string",
					"name": "_requestName",
					"type": "string"
				}
			],
			"name": "CreatedReviewRequest",
			"type": "event"
		},
		{
			"anonymous": false,
			"inputs": [
				{
					"components": [
						{
							"internalType": "bytes32",
							"name": "uid",
							"type": "bytes32"
						},
						{
							"internalType": "bytes32",
							"name": "schema",
							"type": "bytes32"
						},
						{
							"internalType": "uint64",
							"name": "time",
							"type": "uint64"
						},
						{
							"internalType": "uint64",
							"name": "expirationTime",
							"type": "uint64"
						},
						{
							"internalType": "uint64",
							"name": "revocationTime",
							"type": "uint64"
						},
						{
							"internalType": "bytes32",
							"name": "refUID",
							"type": "bytes32"
						},
						{
							"internalType": "address",
							"name": "recipient",
							"type": "address"
						},
						{
							"internalType": "address",
							"name": "attester",
							"type": "address"
						},
						{
							"internalType": "bool",
							"name": "revocable",
							"type": "bool"
						},
						{
							"internalType": "bytes",
							"name": "data",
							"type": "bytes"
						}
					],
					"indexed": false,
					"internalType": "struct Attestation",
					"name": "_attestation",
					"type": "tuple"
				},
				{
					"indexed": false,
					"internalType": "string",
					"name": "_requestName",
					"type": "string"
				}
			],
			"name": "OnReviewCallback",
			"type": "event"
		},
		{
			"anonymous": false,
			"inputs": [
				{
					"indexed": true,
					"internalType": "address",
					"name": "previousOwner",
					"type": "address"
				},
				{
					"indexed": true,
					"internalType": "address",
					"name": "newOwner",
					"type": "address"
				}
			],
			"name": "OwnershipTransferred",
			"type": "event"
		},
		{
			"anonymous": false,
			"inputs": [
				{
					"indexed": false,
					"internalType": "bytes32",
					"name": "_uid",
					"type": "bytes32"
				}
			],
			"name": "SubmittedAmendment",
			"type": "event"
		},
		{
			"anonymous": false,
			"inputs": [
				{
					"indexed": false,
					"internalType": "string",
					"name": "_requestName",
					"type": "string"
				}
			],
			"name": "SubmittedReview",
			"type": "event"
		},
		{
			"inputs": [],
			"name": "amendmentsSchemaID",
			"outputs": [
				{
					"internalType": "bytes32",
					"name": "",
					"type": "bytes32"
				}
			],
			"stateMutability": "view",
			"type": "function"
		},
		{
			"inputs": [
				{
					"components": [
						{
							"internalType": "bytes32",
							"name": "uid",
							"type": "bytes32"
						},
						{
							"internalType": "bytes32",
							"name": "schema",
							"type": "bytes32"
						},
						{
							"internalType": "uint64",
							"name": "time",
							"type": "uint64"
						},
						{
							"internalType": "uint64",
							"name": "expirationTime",
							"type": "uint64"
						},
						{
							"internalType": "uint64",
							"name": "revocationTime",
							"type": "uint64"
						},
						{
							"internalType": "bytes32",
							"name": "refUID",
							"type": "bytes32"
						},
						{
							"internalType": "address",
							"name": "recipient",
							"type": "address"
						},
						{
							"internalType": "address",
							"name": "attester",
							"type": "address"
						},
						{
							"internalType": "bool",
							"name": "revocable",
							"type": "bool"
						},
						{
							"internalType": "bytes",
							"name": "data",
							"type": "bytes"
						}
					],
					"internalType": "struct Attestation",
					"name": "attestation",
					"type": "tuple"
				}
			],
			"name": "attest",
			"outputs": [
				{
					"internalType": "bool",
					"name": "",
					"type": "bool"
				}
			],
			"stateMutability": "payable",
			"type": "function"
		},
		{
			"inputs": [],
			"name": "callbackContract",
			"outputs": [
				{
					"internalType": "contract IOnReviewable",
					"name": "",
					"type": "address"
				}
			],
			"stateMutability": "view",
			"type": "function"
		},
		{
			"inputs": [
				{
					"internalType": "string",
					"name": "_name",
					"type": "string"
				}
			],
			"name": "closeReviewRequest",
			"outputs": [],
			"stateMutability": "nonpayable",
			"type": "function"
		},
		{
			"inputs": [],
			"name": "contractVersion",
			"outputs": [
				{
					"internalType": "string",
					"name": "",
					"type": "string"
				}
			],
			"stateMutability": "view",
			"type": "function"
		},
		{
			"inputs": [
				{
					"internalType": "string",
					"name": "_name",
					"type": "string"
				},
				{
					"internalType": "address[]",
					"name": "reviewers",
					"type": "address[]"
				},
				{
					"internalType": "address[]",
					"name": "reviewerContracts",
					"type": "address[]"
				},
				{
					"internalType": "uint256[]",
					"name": "hypercertIDs",
					"type": "uint256[]"
				},
				{
					"internalType": "string[]",
					"name": "hypercertIPFSHashes",
					"type": "string[]"
				},
				{
					"internalType": "string",
					"name": "formIpfsHash",
					"type": "string"
				},
				{
					"internalType": "string",
					"name": "reviewFormName",
					"type": "string"
				}
			],
			"name": "createNonPayableRequest",
			"outputs": [],
			"stateMutability": "nonpayable",
			"type": "function"
		},
		{
			"inputs": [
				{
					"internalType": "string",
					"name": "_name",
					"type": "string"
				},
				{
					"internalType": "address[]",
					"name": "reviewers",
					"type": "address[]"
				},
				{
					"internalType": "address[]",
					"name": "reviewerContracts",
					"type": "address[]"
				},
				{
					"internalType": "uint256[]",
					"name": "hypercertIDs",
					"type": "uint256[]"
				},
				{
					"internalType": "string[]",
					"name": "hypercertIPFSHashes",
					"type": "string[]"
				},
				{
					"internalType": "string",
					"name": "formIpfsHash",
					"type": "string"
				},
				{
					"internalType": "uint256",
					"name": "rewardPerReview",
					"type": "uint256"
				},
				{
					"internalType": "uint8",
					"name": "reviewsPerHypercert",
					"type": "uint8"
				},
				{
					"internalType": "address",
					"name": "paymentTokenAddress",
					"type": "address"
				},
				{
					"internalType": "string",
					"name": "reviewFormName",
					"type": "string"
				}
			],
			"name": "createRequest",
			"outputs": [],
			"stateMutability": "payable",
			"type": "function"
		},
		{
			"inputs": [
				{
					"internalType": "string",
					"name": "_name",
					"type": "string"
				},
				{
					"internalType": "string[]",
					"name": "questions",
					"type": "string[]"
				},
				{
					"internalType": "string[][]",
					"name": "choices",
					"type": "string[][]"
				},
				{
					"internalType": "enum DeresyResolver.QuestionType[]",
					"name": "questionTypes",
					"type": "uint8[]"
				}
			],
			"name": "createReviewForm",
			"outputs": [],
			"stateMutability": "nonpayable",
			"type": "function"
		},
		{
			"inputs": [
				{
					"internalType": "string",
					"name": "_name",
					"type": "string"
				}
			],
			"name": "getRequest",
			"outputs": [
				{
					"components": [
						{
							"internalType": "address",
							"name": "sponsor",
							"type": "address"
						},
						{
							"internalType": "address[]",
							"name": "reviewers",
							"type": "address[]"
						},
						{
							"internalType": "address[]",
							"name": "reviewerContracts",
							"type": "address[]"
						},
						{
							"internalType": "uint256[]",
							"name": "hypercertIDs",
							"type": "uint256[]"
						},
						{
							"internalType": "string[]",
							"name": "hypercertIPFSHashes",
							"type": "string[]"
						},
						{
							"internalType": "string",
							"name": "formIpfsHash",
							"type": "string"
						},
						{
							"internalType": "uint256",
							"name": "rewardPerReview",
							"type": "uint256"
						},
						{
							"internalType": "uint8",
							"name": "reviewsPerHypercert",
							"type": "uint8"
						},
						{
							"components": [
								{
									"internalType": "address",
									"name": "reviewer",
									"type": "address"
								},
								{
									"internalType": "uint256",
									"name": "hypercertID",
									"type": "uint256"
								},
								{
									"internalType": "bytes32",
									"name": "attestationID",
									"type": "bytes32"
								},
								{
									"internalType": "bytes32[]",
									"name": "amendmentsUIDs",
									"type": "bytes32[]"
								}
							],
							"internalType": "struct DeresyResolver.Review[]",
							"name": "reviews",
							"type": "tuple[]"
						},
						{
							"internalType": "bool",
							"name": "isClosed",
							"type": "bool"
						},
						{
							"internalType": "address",
							"name": "paymentTokenAddress",
							"type": "address"
						},
						{
							"internalType": "uint256",
							"name": "fundsLeft",
							"type": "uint256"
						},
						{
							"internalType": "string",
							"name": "reviewFormName",
							"type": "string"
						},
						{
							"internalType": "string",
							"name": "name",
							"type": "string"
						}
					],
					"internalType": "struct DeresyResolver.ReviewRequest",
					"name": "reviewRequest",
					"type": "tuple"
				}
			],
			"stateMutability": "view",
			"type": "function"
		},
		{
			"inputs": [
				{
					"internalType": "string",
					"name": "_name",
					"type": "string"
				}
			],
			"name": "getRequestReviewForm",
			"outputs": [
				{
					"components": [
						{
							"internalType": "string[]",
							"name": "questions",
							"type": "string[]"
						},
						{
							"internalType": "enum DeresyResolver.QuestionType[]",
							"name": "questionTypes",
							"type": "uint8[]"
						},
						{
							"internalType": "string[][]",
							"name": "choices",
							"type": "string[][]"
						}
					],
					"internalType": "struct DeresyResolver.ReviewForm",
					"name": "requestReviewForm",
					"type": "tuple"
				}
			],
			"stateMutability": "view",
			"type": "function"
		},
		{
			"inputs": [
				{
					"internalType": "string",
					"name": "_reviewFormName",
					"type": "string"
				}
			],
			"name": "getReviewForm",
			"outputs": [
				{
					"components": [
						{
							"internalType": "string[]",
							"name": "questions",
							"type": "string[]"
						},
						{
							"internalType": "enum DeresyResolver.QuestionType[]",
							"name": "questionTypes",
							"type": "uint8[]"
						},
						{
							"internalType": "string[][]",
							"name": "choices",
							"type": "string[][]"
						}
					],
					"internalType": "struct DeresyResolver.ReviewForm",
					"name": "reviewForm",
					"type": "tuple"
				}
			],
			"stateMutability": "view",
			"type": "function"
		},
		{
			"inputs": [],
			"name": "getReviewFormsNames",
			"outputs": [
				{
					"internalType": "string[]",
					"name": "",
					"type": "string[]"
				}
			],
			"stateMutability": "view",
			"type": "function"
		},
		{
			"inputs": [],
			"name": "getReviewRequestsNames",
			"outputs": [
				{
					"internalType": "string[]",
					"name": "",
					"type": "string[]"
				}
			],
			"stateMutability": "view",
			"type": "function"
		},
		{
			"inputs": [],
			"name": "getWhitelistedTokens",
			"outputs": [
				{
					"internalType": "address[]",
					"name": "",
					"type": "address[]"
				}
			],
			"stateMutability": "view",
			"type": "function"
		},
		{
			"inputs": [],
			"name": "hypercertContract",
			"outputs": [
				{
					"internalType": "contract IHypercertable",
					"name": "",
					"type": "address"
				}
			],
			"stateMutability": "view",
			"type": "function"
		},
		{
			"inputs": [],
			"name": "isPayable",
			"outputs": [
				{
					"internalType": "bool",
					"name": "",
					"type": "bool"
				}
			],
			"stateMutability": "pure",
			"type": "function"
		},
		{
			"inputs": [
				{
					"internalType": "address",
					"name": "reviewerAddress",
					"type": "address"
				},
				{
					"internalType": "string",
					"name": "_name",
					"type": "string"
				}
			],
			"name": "isReviewer",
			"outputs": [
				{
					"internalType": "bool",
					"name": "",
					"type": "bool"
				}
			],
			"stateMutability": "view",
			"type": "function"
		},
		{
			"inputs": [
				{
					"internalType": "address",
					"name": "tokenAddress",
					"type": "address"
				}
			],
			"name": "isTokenWhitelisted",
			"outputs": [
				{
					"internalType": "bool",
					"name": "",
					"type": "bool"
				}
			],
			"stateMutability": "view",
			"type": "function"
		},
		{
			"inputs": [
				{
					"components": [
						{
							"internalType": "bytes32",
							"name": "uid",
							"type": "bytes32"
						},
						{
							"internalType": "bytes32",
							"name": "schema",
							"type": "bytes32"
						},
						{
							"internalType": "uint64",
							"name": "time",
							"type": "uint64"
						},
						{
							"internalType": "uint64",
							"name": "expirationTime",
							"type": "uint64"
						},
						{
							"internalType": "uint64",
							"name": "revocationTime",
							"type": "uint64"
						},
						{
							"internalType": "bytes32",
							"name": "refUID",
							"type": "bytes32"
						},
						{
							"internalType": "address",
							"name": "recipient",
							"type": "address"
						},
						{
							"internalType": "address",
							"name": "attester",
							"type": "address"
						},
						{
							"internalType": "bool",
							"name": "revocable",
							"type": "bool"
						},
						{
							"internalType": "bytes",
							"name": "data",
							"type": "bytes"
						}
					],
					"internalType": "struct Attestation[]",
					"name": "attestations",
					"type": "tuple[]"
				},
				{
					"internalType": "uint256[]",
					"name": "values",
					"type": "uint256[]"
				}
			],
			"name": "multiAttest",
			"outputs": [
				{
					"internalType": "bool",
					"name": "",
					"type": "bool"
				}
			],
			"stateMutability": "payable",
			"type": "function"
		},
		{
			"inputs": [
				{
					"components": [
						{
							"internalType": "bytes32",
							"name": "uid",
							"type": "bytes32"
						},
						{
							"internalType": "bytes32",
							"name": "schema",
							"type": "bytes32"
						},
						{
							"internalType": "uint64",
							"name": "time",
							"type": "uint64"
						},
						{
							"internalType": "uint64",
							"name": "expirationTime",
							"type": "uint64"
						},
						{
							"internalType": "uint64",
							"name": "revocationTime",
							"type": "uint64"
						},
						{
							"internalType": "bytes32",
							"name": "refUID",
							"type": "bytes32"
						},
						{
							"internalType": "address",
							"name": "recipient",
							"type": "address"
						},
						{
							"internalType": "address",
							"name": "attester",
							"type": "address"
						},
						{
							"internalType": "bool",
							"name": "revocable",
							"type": "bool"
						},
						{
							"internalType": "bytes",
							"name": "data",
							"type": "bytes"
						}
					],
					"internalType": "struct Attestation[]",
					"name": "attestations",
					"type": "tuple[]"
				},
				{
					"internalType": "uint256[]",
					"name": "values",
					"type": "uint256[]"
				}
			],
			"name": "multiRevoke",
			"outputs": [
				{
					"internalType": "bool",
					"name": "",
					"type": "bool"
				}
			],
			"stateMutability": "payable",
			"type": "function"
		},
		{
			"inputs": [],
			"name": "owner",
			"outputs": [
				{
					"internalType": "address",
					"name": "",
					"type": "address"
				}
			],
			"stateMutability": "view",
			"type": "function"
		},
		{
			"inputs": [],
			"name": "pause",
			"outputs": [],
			"stateMutability": "nonpayable",
			"type": "function"
		},
		{
			"inputs": [],
			"name": "paused",
			"outputs": [
				{
					"internalType": "bool",
					"name": "",
					"type": "bool"
				}
			],
			"stateMutability": "view",
			"type": "function"
		},
		{
			"inputs": [],
			"name": "renounceOwnership",
			"outputs": [],
			"stateMutability": "nonpayable",
			"type": "function"
		},
		{
			"inputs": [],
			"name": "reviewsSchemaID",
			"outputs": [
				{
					"internalType": "bytes32",
					"name": "",
					"type": "bytes32"
				}
			],
			"stateMutability": "view",
			"type": "function"
		},
		{
			"inputs": [
				{
					"components": [
						{
							"internalType": "bytes32",
							"name": "uid",
							"type": "bytes32"
						},
						{
							"internalType": "bytes32",
							"name": "schema",
							"type": "bytes32"
						},
						{
							"internalType": "uint64",
							"name": "time",
							"type": "uint64"
						},
						{
							"internalType": "uint64",
							"name": "expirationTime",
							"type": "uint64"
						},
						{
							"internalType": "uint64",
							"name": "revocationTime",
							"type": "uint64"
						},
						{
							"internalType": "bytes32",
							"name": "refUID",
							"type": "bytes32"
						},
						{
							"internalType": "address",
							"name": "recipient",
							"type": "address"
						},
						{
							"internalType": "address",
							"name": "attester",
							"type": "address"
						},
						{
							"internalType": "bool",
							"name": "revocable",
							"type": "bool"
						},
						{
							"internalType": "bytes",
							"name": "data",
							"type": "bytes"
						}
					],
					"internalType": "struct Attestation",
					"name": "attestation",
					"type": "tuple"
				}
			],
			"name": "revoke",
			"outputs": [
				{
					"internalType": "bool",
					"name": "",
					"type": "bool"
				}
			],
			"stateMutability": "payable",
			"type": "function"
		},
		{
			"inputs": [
				{
					"internalType": "bytes32",
					"name": "_amendmentsSchemaID",
					"type": "bytes32"
				}
			],
			"name": "setAmendmentsSchemaID",
			"outputs": [],
			"stateMutability": "nonpayable",
			"type": "function"
		},
		{
			"inputs": [
				{
					"internalType": "address",
					"name": "_callbackContractAddress",
					"type": "address"
				}
			],
			"name": "setCallbackContract",
			"outputs": [],
			"stateMutability": "nonpayable",
			"type": "function"
		},
		{
			"inputs": [
				{
					"internalType": "address",
					"name": "_hypercertContractAddress",
					"type": "address"
				}
			],
			"name": "setHypercertContract",
			"outputs": [],
			"stateMutability": "nonpayable",
			"type": "function"
		},
		{
			"inputs": [
				{
					"internalType": "bytes32",
					"name": "_reviewsSchemaID",
					"type": "bytes32"
				}
			],
			"name": "setReviewsSchemaID",
			"outputs": [],
			"stateMutability": "nonpayable",
			"type": "function"
		},
		{
			"inputs": [
				{
					"internalType": "bool",
					"name": "_validateHypercertIDs",
					"type": "bool"
				}
			],
			"name": "setValidateHypercertIDs",
			"outputs": [],
			"stateMutability": "nonpayable",
			"type": "function"
		},
		{
			"inputs": [
				{
					"internalType": "address",
					"name": "newOwner",
					"type": "address"
				}
			],
			"name": "transferOwnership",
			"outputs": [],
			"stateMutability": "nonpayable",
			"type": "function"
		},
		{
			"inputs": [],
			"name": "unpause",
			"outputs": [],
			"stateMutability": "nonpayable",
			"type": "function"
		},
		{
			"inputs": [
				{
					"internalType": "address",
					"name": "tokenAddress",
					"type": "address"
				}
			],
			"name": "unwhitelistToken",
			"outputs": [],
			"stateMutability": "nonpayable",
			"type": "function"
		},
		{
			"inputs": [],
			"name": "validateHypercertIDs",
			"outputs": [
				{
					"internalType": "bool",
					"name": "",
					"type": "bool"
				}
			],
			"stateMutability": "view",
			"type": "function"
		},
		{
			"inputs": [],
			"name": "version",
			"outputs": [
				{
					"internalType": "string",
					"name": "",
					"type": "string"
				}
			],
			"stateMutability": "view",
			"type": "function"
		},
		{
			"inputs": [
				{
					"internalType": "address",
					"name": "tokenAddress",
					"type": "address"
				}
			],
			"name": "whitelistToken",
			"outputs": [],
			"stateMutability": "nonpayable",
			"type": "function"
		},
		{
			"stateMutability": "payable",
			"type": "receive"
		}
	]
}