{
	"data": {
		"bytecode": {
			"linkReferences": {},
			"object": "61014060405260036101009081526218171960e91b61012052600690620000279082620001e5565b506007805460ff191660011790553480156200004257600080fd5b50604051620042a4380380620042a48339810160408190526200006591620002b1565b6001608052600060a081905260c052806001600160a01b0381166200009d576040516341bc07ff60e11b815260040160405180910390fd5b6001600160a01b031660e052620000b433620000f0565b506000805260036020527f3617319a054d772f909f7c479a2cebe5066e836a939412e32403c99029b92eff805460ff19166001179055620002e3565b600080546001600160a01b038381166001600160a01b0319831681178455604051919092169283917f8be0079c531659141344cd1fd0a4f28419497f9722a3daafe3b4186f6b6457e09190a35050565b634e487b7160e01b600052604160045260246000fd5b600181811c908216806200016b57607f821691505b6020821081036200018c57634e487b7160e01b600052602260045260246000fd5b50919050565b601f821115620001e057600081815260208120601f850160051c81016020861015620001bb5750805b601f850160051c820191505b81811015620001dc57828155600101620001c7565b5050505b505050565b81516001600160401b0381111562000201576200020162000140565b620002198162000212845462000156565b8462000192565b602080601f831160018114620002515760008415620002385750858301515b600019600386901b1c1916600185901b178555620001dc565b600085815260208120601f198616915b82811015620002825788860151825594840194600190910190840162000261565b5085821015620002a15787850151600019600388901b60f8161c191681555b5050505050600190811b01905550565b600060208284031215620002c457600080fd5b81516001600160a01b0381168114620002dc57600080fd5b9392505050565b60805160a05160c05160e051613f876200031d60003960006123300152600061091a015260006108f1015260006108c80152613f876000f3fe6080604052600436106101a05760003560e01c806391db0b7e116100ec578063be2761d01161008a578063dd52605411610064578063dd526054146104a1578063e49617e1146104c3578063e60c3505146104d6578063f2fde38b146104e957600080fd5b8063be2761d01461044d578063ce46e0461461046d578063d627d25e1461048157600080fd5b8063b4e137cd116100c6578063b4e137cd146103ad578063b5af090f146103dd578063b6fc76af1461040d578063bd7e2aa41461042d57600080fd5b806391db0b7e14610365578063a0a8e46014610378578063a940b8741461038d57600080fd5b8063715018a61161015957806385b924131161013357806385b92413146102d657806386be6d511461030a57806388e5b2d9146103205780638da5cb5b1461033357600080fd5b8063715018a61461028c5780637a35aaa9146102a15780638456cb59146102c157600080fd5b806320de0462146101c557806330940523146101d85780633f4ba83a1461020b57806354fd4d50146102205780635c975abb146102425780636247f6f21461026c57600080fd5b366101c057604051631574f9f360e01b815260040160405180910390fd5b005b600080fd5b6101be6101d3366004613214565b610509565b3480156101e457600080fd5b506101f86101f3366004613372565b610551565b6040519081526020015b60405180910390f35b34801561021757600080fd5b506101be6108ad565b34801561022c57600080fd5b506102356108c1565b60405161020291906134c5565b34801561024e57600080fd5b5060075461025c9060ff1681565b6040519015158152602001610202565b34801561027857600080fd5b506101be6102873660046134df565b610964565b34801561029857600080fd5b506101be610990565b3480156102ad57600080fd5b506101be6102bc3660046134df565b6109a4565b3480156102cd57600080fd5b506101be6109ce565b3480156102e257600080fd5b506102f66102f13660046134fa565b610a08565b60405161020298979695949392919061360a565b34801561031657600080fd5b506101f860055481565b61025c61032e366004613713565b610e10565b34801561033f57600080fd5b506000546001600160a01b03165b6040516001600160a01b039091168152602001610202565b61025c610373366004613713565b610ebd565b34801561038457600080fd5b50610235610f5c565b34801561039957600080fd5b506101be6103a836600461377e565b610fea565b3480156103b957600080fd5b506103cd6103c83660046134fa565b611028565b60405161020294939291906138c2565b3480156103e957600080fd5b5061025c6103f83660046134df565b60036020526000908152604090205460ff1681565b34801561041957600080fd5b506103cd610428366004613952565b61130a565b34801561043957600080fd5b5060015461034d906001600160a01b031681565b34801561045957600080fd5b506101be6104683660046134fa565b611620565b34801561047957600080fd5b50600061025c565b34801561048d57600080fd5b506101be61049c3660046134df565b611811565b3480156104ad57600080fd5b506104b661183a565b604051610202919061396b565b61025c6104d136600461397e565b611913565b61025c6104e436600461397e565b61192f565b3480156104f557600080fd5b506101be6105043660046134df565b611943565b60075460ff16156105355760405162461bcd60e51b815260040161052c906139b9565b60405180910390fd5b610547888888888888878960016119bc565b5050505050505050565b60075460009060ff16156105775760405162461bcd60e51b815260040161052c906139b9565b846105d05760405162461bcd60e51b815260206004820152602360248201527f4465726573793a2045415320536368656d612049442063616e2774206265206e6044820152621d5b1b60ea1b606482015260840161052c565b60008451116106215760405162461bcd60e51b815260206004820152601f60248201527f4465726573793a205175657374696f6e732063616e2774206265206e756c6c00604482015260640161052c565b600082511161067e5760405162461bcd60e51b8152602060048201526024808201527f4465726573793a205175657374696f6e2054797065732063616e2774206265206044820152631b9d5b1b60e21b606482015260840161052c565b83518251146106ed5760405162461bcd60e51b815260206004820152603560248201527f4465726573793a205175657374696f6e7320616e64207479706573206d757374604482015274040d0c2ecca40e8d0ca40e6c2daca40d8cadccee8d605b1b606482015260840161052c565b82518451146107645760405162461bcd60e51b815260206004820152603760248201527f4465726573793a205175657374696f6e7320616e642063686f69636573206d7560448201527f73742068617665207468652073616d65206c656e677468000000000000000000606482015260840161052c565b6040805160808101825286815260208082018781529282018590526060820186905260088054600181018255600091909152825160049091027ff3f7a9fe364faab93b216da50a3214154f22a0a2b415b23a84c8169e8b636ee3810191825593518051939491936107fe937ff3f7a9fe364faab93b216da50a3214154f22a0a2b415b23a84c8169e8b636ee4909301929190910190612d43565b506040820151805161081a916002840191602090910190612d99565b5060608201518051610836916003840191602090910190612e49565b50505060016005600082825461084c91906139fb565b90915550506008547f2ca1c706b776fc626b1e93b556d8968577908c5fee79ca88376ade10b781019c9061088290600190613a0e565b60405190815260200160405180910390a16008546108a290600190613a0e565b90505b949350505050565b6108b56121e9565b6007805460ff19169055565b60606108ec7f0000000000000000000000000000000000000000000000000000000000000000612243565b6109157f0000000000000000000000000000000000000000000000000000000000000000612243565b61093e7f0000000000000000000000000000000000000000000000000000000000000000612243565b60405160200161095093929190613a21565b604051602081830303815290604052905090565b61096c6121e9565b6001600160a01b03166000908152600360205260409020805460ff19166001179055565b6109986121e9565b6109a260006122d5565b565b6109ac6121e9565b600180546001600160a01b0319166001600160a01b0392909216919091179055565b6109d66121e9565b60075460ff16156109f95760405162461bcd60e51b815260040161052c906139b9565b6007805460ff19166001179055565b60608060608060006060600080600060028a604051610a279190613a7b565b9081526040805191829003602090810183206101808401835280546001600160a01b03168452600181018054845181850281018501909552808552919385840193909290830182828015610aa457602002820191906000526020600020905b81546001600160a01b03168152600190910190602001808311610a86575b5050505050815260200160028201805480602002602001604051908101604052809291908181526020018280548015610afc57602002820191906000526020600020905b815481526020019060010190808311610ae8575b5050505050815260200160038201805480602002602001604051908101604052809291908181526020016000905b82821015610bd6578382906000526020600020018054610b4990613a97565b80601f0160208091040260200160405190810160405280929190818152602001828054610b7590613a97565b8015610bc25780601f10610b9757610100808354040283529160200191610bc2565b820191906000526020600020905b815481529060010190602001808311610ba557829003601f168201915b505050505081526020019060010190610b2a565b505050508152602001600482018054610bee90613a97565b80601f0160208091040260200160405190810160405280929190818152602001828054610c1a90613a97565b8015610c675780601f10610c3c57610100808354040283529160200191610c67565b820191906000526020600020905b815481529060010190602001808311610c4a57829003601f168201915b505050505081526020016005820154815260200160068201805480602002602001604051908101604052809291908181526020016000905b82821015610cf4576000848152602090819020604080516060810182526003860290920180546001600160a01b0316835260018082015484860152600290910154918301919091529083529092019101610c9f565b50505090825250600782015460ff81161515602083015261010090046001600160a01b031660408201526008820154606082015260098201546080820152600a8201805460a090920191610d4790613a97565b80601f0160208091040260200160405190810160405280929190818152602001828054610d7390613a97565b8015610dc05780601f10610d9557610100808354040283529160200191610dc0565b820191906000526020600020905b815481529060010190602001808311610da357829003601f168201915b505050505081525050905080602001518160400151826060015183608001518460a001518560c001518661014001518760e001519850985098509850985098509850985050919395975091939597565b6000610e1a612325565b833460005b82811015610eaf576000868683818110610e3b57610e3b613ad1565b90506020020135905082811115610e655760405163044044a560e21b815260040160405180910390fd5b610e92898984818110610e7a57610e7a613ad1565b9050602002810190610e8c9190613ae7565b8261236e565b610ea35760009450505050506108a5565b90910390600101610e1f565b506001979650505050505050565b6000610ec7612325565b833460005b82811015610eaf576000868683818110610ee857610ee8613ad1565b90506020020135905082811115610f125760405163044044a560e21b815260040160405180910390fd5b610f3f898984818110610f2757610f27613ad1565b9050602002810190610f399190613ae7565b82612377565b610f505760009450505050506108a5565b90910390600101610ecc565b60068054610f6990613a97565b80601f0160208091040260200160405190810160405280929190818152602001828054610f9590613a97565b8015610fe25780601f10610fb757610100808354040283529160200191610fe2565b820191906000526020600020905b815481529060010190602001808311610fc557829003601f168201915b505050505081565b60075460ff161561100d5760405162461bcd60e51b815260040161052c906139b9565b61102086868686866000876000806119bc565b505050505050565b60608060606000806002866040516110409190613a7b565b908152602001604051809103902090506000600882600901548154811061106957611069613ad1565b90600052602060002090600402019050806001018160020182600301836000015483805480602002602001604051908101604052809291908181526020016000905b828210156111575783829060005260206000200180546110ca90613a97565b80601f01602080910402602001604051908101604052809291908181526020018280546110f690613a97565b80156111435780601f1061111857610100808354040283529160200191611143565b820191906000526020600020905b81548152906001019060200180831161112657829003601f168201915b5050505050815260200190600101906110ab565b505050509350828054806020026020016040519081016040528092919081815260200182805480156111d857602002820191906000526020600020906000905b82829054906101000a900460ff1660028111156111b6576111b6613857565b8152602060019283018181049485019490930390920291018084116111975790505b5050505050925081805480602002602001604051908101604052809291908181526020016000905b828210156112f357838290600052602060002001805480602002602001604051908101604052809291908181526020016000905b828210156112e057838290600052602060002001805461125390613a97565b80601f016020809104026020016040519081016040528092919081815260200182805461127f90613a97565b80156112cc5780601f106112a1576101008083540402835291602001916112cc565b820191906000526020600020905b8154815290600101906020018083116112af57829003601f168201915b505050505081526020019060010190611234565b5050505081526020019060010190611200565b505050509150955095509550955050509193509193565b606080606060006008858154811061132457611324613ad1565b90600052602060002090600402016001016008868154811061134857611348613ad1565b90600052602060002090600402016002016008878154811061136c5761136c613ad1565b90600052602060002090600402016003016008888154811061139057611390613ad1565b90600052602060002090600402016000015483805480602002602001604051908101604052809291908181526020016000905b8282101561146f5783829060005260206000200180546113e290613a97565b80601f016020809104026020016040519081016040528092919081815260200182805461140e90613a97565b801561145b5780601f106114305761010080835404028352916020019161145b565b820191906000526020600020905b81548152906001019060200180831161143e57829003601f168201915b5050505050815260200190600101906113c3565b505050509350828054806020026020016040519081016040528092919081815260200182805480156114f057602002820191906000526020600020906000905b82829054906101000a900460ff1660028111156114ce576114ce613857565b8152602060019283018181049485019490930390920291018084116114af5790505b5050505050925081805480602002602001604051908101604052809291908181526020016000905b8282101561160b57838290600052602060002001805480602002602001604051908101604052809291908181526020016000905b828210156115f857838290600052602060002001805461156b90613a97565b80601f016020809104026020016040519081016040528092919081815260200182805461159790613a97565b80156115e45780601f106115b9576101008083540402835291602001916115e4565b820191906000526020600020905b8154815290600101906020018083116115c757829003601f168201915b50505050508152602001906001019061154c565b5050505081526020019060010190611518565b50505050915093509350935093509193509193565b6002816040516116309190613a7b565b90815260405190819003602001902054336001600160a01b03909116146116995760405162461bcd60e51b815260206004820152601d60248201527f4465726573793a204974206973206e6f74207468652073706f6e736f72000000604482015260640161052c565b6002816040516116a99190613a7b565b9081526040519081900360200190206007015460ff16156117055760405162461bcd60e51b815260206004820152601660248201527511195c995cde4e881c995c5d595cdd0818db1bdcd95960521b604482015260640161052c565b6002816040516117159190613a7b565b908152604051908190036020018120546001600160a01b0316906108fc90600290611741908590613a7b565b90815260405190819003602001812060080154801590920291906000818181858888f1935050505015801561177a573d6000803e3d6000fd5b50600160028260405161178d9190613a7b565b908152604051908190036020018120600701805492151560ff19909316929092179091556000906002906117c2908490613a7b565b9081526020016040518091039020600801819055507fbc5c8cb2024ed254e024e37b09895ecaa07948dd0fd7a08e30b80f559888f2cf8160405161180691906134c5565b60405180910390a150565b6118196121e9565b6001600160a01b03166000908152600360205260409020805460ff19169055565b60606004805480602002602001604051908101604052809291908181526020016000905b8282101561190a57838290600052602060002001805461187d90613a97565b80601f01602080910402602001604051908101604052809291908181526020018280546118a990613a97565b80156118f65780601f106118cb576101008083540402835291602001916118f6565b820191906000526020600020905b8154815290600101906020018083116118d957829003601f168201915b50505050508152602001906001019061185e565b50505050905090565b600061191d612325565b611927823461236e565b90505b919050565b6000611939612325565b6119278234612377565b61194b6121e9565b6001600160a01b0381166119b05760405162461bcd60e51b815260206004820152602660248201527f4f776e61626c653a206e6577206f776e657220697320746865207a65726f206160448201526564647265737360d01b606482015260840161052c565b6119b9816122d5565b50565b6000885111611a0d5760405162461bcd60e51b815260206004820181905260248201527f4465726573793a205265766965776572732063616e6e6f74206265206e756c6c604482015260640161052c565b6000875111611a6a5760405162461bcd60e51b8152602060048201526024808201527f4465726573793a20487970657263657274204944732063616e6e6f74206265206044820152631b9d5b1b60e21b606482015260840161052c565b6000865111611ad15760405162461bcd60e51b815260206004820152602d60248201527f4465726573793a2048797065726365727473204950465320686173686573206360448201526c185b9b9bdd081899481b9d5b1b609a1b606482015260840161052c565b8551875114611b5d5760405162461bcd60e51b815260206004820152604c60248201527f4465726573793a2048797065726365727449447320616e64204879706572636560448201527f727449504653486173686573206172726179206d75737420686176652074686560648201526b040e6c2daca40d8cadccee8d60a31b608482015260a40161052c565b600854611b6c90600190613a0e565b831115611bbb5760405162461bcd60e51b815260206004820152601f60248201527f4465726573793a20526576696577466f726d496e64657820696e76616c696400604482015260640161052c565b60006001600160a01b031660028a604051611bd69190613a7b565b908152604051908190036020019020546001600160a01b031614611c3c5760405162461bcd60e51b815260206004820152601760248201527f4465726573793a204e616d65206475706c696361746564000000000000000000604482015260640161052c565b6001600160a01b03821660009081526003602052604090205460ff16611ca45760405162461bcd60e51b815260206004820181905260248201527f4465726573793a20546f6b656e206973206e6f742077686974656c6973746564604482015260640161052c565b60008115611edf5760008511611d305760405162461bcd60e51b815260206004820152604560248201527f4465726573793a20726577617264506572526576696577206d7573742062652060448201527f67726561746572207468616e207a65726f20666f722070617961626c652072656064820152641c5d595cdd60da1b608482015260a40161052c565b6001600160a01b038316611dad578488518a51611d4d9190613afe565b611d579190613afe565b341015611da65760405162461bcd60e51b815260206004820152601960248201527f4465726573793a206d73672e76616c756520696e76616c696400000000000000604482015260640161052c565b5034611f53565b3415611dfb5760405162461bcd60e51b815260206004820152601c60248201527f4465726573793a206d73672e76616c756520697320696e76616c696400000000604482015260640161052c565b8488518a51611e0a9190613afe565b611e149190613afe565b6040516323b872dd60e01b8152336004820152306024820152604481018290529091506001600160a01b038416906323b872dd906064016020604051808303816000875af1158015611e6a573d6000803e3d6000fd5b505050506040513d601f19601f82011682018060405250810190611e8e9190613b23565b611eda5760405162461bcd60e51b815260206004820152601d60248201527f4465726573793a20546f6b656e207472616e73666572206661696c6564000000604482015260640161052c565b611f53565b8415611f535760405162461bcd60e51b815260206004820152603c60248201527f4465726573793a20726577617264506572526576696577206d7573742062652060448201527f7a65726f20666f72206e6f6e2d70617961626c65207265717565737400000000606482015260840161052c565b3360028b604051611f649190613a7b565b90815260405190819003602001812080546001600160a01b03939093166001600160a01b0319909316929092179091558990600290611fa4908d90613a7b565b90815260200160405180910390206001019080519060200190611fc8929190612ea2565b508760028b604051611fda9190613a7b565b90815260200160405180910390206002019080519060200190611ffe929190612ef7565b508660028b6040516120109190613a7b565b90815260200160405180910390206003019080519060200190612034929190612d43565b508560028b6040516120469190613a7b565b908152602001604051809103902060040190816120639190613b8b565b5081612070576000612072565b845b60028b6040516120829190613a7b565b908152602001604051809103902060050181905550600060028b6040516120a99190613a7b565b908152604051908190036020018120600701805492151560ff199093169290921790915583906002906120dd908d90613a7b565b908152602001604051809103902060070160016101000a8154816001600160a01b0302191690836001600160a01b031602179055508161211e576000612120565b805b60028b6040516121309190613a7b565b9081526020016040518091039020600801819055508360028b6040516121569190613a7b565b90815260405190819003602001902060090155600480546001810182556000919091527f8a35acfbc15ff81a39ae7d344fd709f28e8600b4aa8c65c6b64bfe7fe36bd19b016121a58b82613b8b565b507f0448feabbf5bb385eb3ea2cb16d90b1cb3b4c8936e399cf7a10e7b8946eec6678a6040516121d591906134c5565b60405180910390a150505050505050505050565b6000546001600160a01b031633146109a25760405162461bcd60e51b815260206004820181905260248201527f4f776e61626c653a2063616c6c6572206973206e6f7420746865206f776e6572604482015260640161052c565b6060600061225083612797565b60010190506000816001600160401b0381111561226f5761226f612fd9565b6040519080825280601f01601f191660200182016040528015612299576020820181803683370190505b5090508181016020015b600019016f181899199a1a9b1b9c1cb0b131b232b360811b600a86061a8153600a85049450846122a357509392505050565b600080546001600160a01b038381166001600160a01b0319831681178455604051919092169283917f8be0079c531659141344cd1fd0a4f28419497f9722a3daafe3b4186f6b6457e09190a35050565b336001600160a01b037f000000000000000000000000000000000000000000000000000000000000000016146109a257604051634ca8886760e01b815260040160405180910390fd5b60015b92915050565b60075460009060ff161561239d5760405162461bcd60e51b815260040161052c906139b9565b600080806123af610120870187613c4a565b8101906123bc9190613c90565b5092509250925060006002846040516123d59190613a7b565b90815260200160405180910390209050600060088260090154815481106123fe576123fe613ad1565b60009182526020822060049091020191506124206101008a0160e08b016134df565b600784015490915089359060009060ff1615801561249557506124958560020180548060200260200160405190810160405280929190818152602001828054801561248a57602002820191906000526020600020905b815481526020019060010190808311612476575b50505050508861286f565b80156124a5575085516001850154145b80156124b657506124b683896128c2565b80156124c857506124c8838989612966565b80156124d957506124d98487612a60565b9050801561278957604080516060810182526001600160a01b03858116825260208083018b815293830186815260068a018054600180820183556000928352939091209451600390910290940180546001600160a01b031916949093169390931782559251928101929092555160029091015560058501541561269057846005015485600801600082825461256e9190613a0e565b9091555050600785015461010090046001600160a01b03166125c95760058501546040516001600160a01b0385169180156108fc02916000818181858888f193505050501580156125c3573d6000803e3d6000fd5b50612690565b6007850154600586015460405163a9059cbb60e01b81526001600160a01b0386811660048301526024820192909252610100909204169063a9059cbb906044016020604051808303816000875af1158015612628573d6000803e3d6000fd5b505050506040513d601f19601f8201168201806040525081019061264c9190613b23565b6126905760405162461bcd60e51b8152602060048201526015602482015274151bdad95b881d1c985b9cd9995c8819985a5b1959605a1b604482015260640161052c565b6001546001600160a01b0316156127515760015460405163bb69ab3360e01b81526001600160a01b039091169063bb69ab33906126d3908e908c90600401613da5565b6020604051808303816000875af11580156126f2573d6000803e3d6000fd5b505050506040513d601f19601f820116820180604052508101906127169190613b23565b507f253a8677adaec417dae20224e9f7eb1182aed5a01b1938114cb310cd5c5d954d8b89604051612748929190613da5565b60405180910390a15b7f4d6dd501df538f815f442947c933fc2f545525e75f909b918a6d0701acc7904c8860405161278091906134c5565b60405180910390a15b9a9950505050505050505050565b60008072184f03e93ff9f4daa797ed6e38ed64bf6a1f0160401b83106127d65772184f03e93ff9f4daa797ed6e38ed64bf6a1f0160401b830492506040015b6d04ee2d6d415b85acef81000000008310612802576d04ee2d6d415b85acef8100000000830492506020015b662386f26fc10000831061282057662386f26fc10000830492506010015b6305f5e1008310612838576305f5e100830492506008015b612710831061284c57612710830492506004015b6064831061285e576064830492506002015b600a83106123715760010192915050565b6000805b83518110156128b8578284828151811061288f5761288f613ad1565b6020026020010151036128a6576001915050612371565b806128b081613ec2565b915050612873565b5060009392505050565b600080805b6002846040516128d79190613a7b565b9081526040519081900360200190206001015481101561295e57846001600160a01b031660028560405161290b9190613a7b565b9081526020016040518091039020600101828154811061292d5761292d613ad1565b6000918252602090912001546001600160a01b03160361294c57600191505b8061295681613ec2565b9150506128c7565b509392505050565b60006001815b60028560405161297c9190613a7b565b90815260405190819003602001902060060154811015612a5757836002866040516129a79190613a7b565b908152602001604051809103902060060182815481106129c9576129c9613ad1565b906000526020600020906003020160010154148015612a3b5750856001600160a01b03166002866040516129fd9190613a7b565b90815260200160405180910390206006018281548110612a1f57612a1f613ad1565b60009182526020909120600390910201546001600160a01b0316145b15612a4557600091505b80612a4f81613ec2565b91505061296c565b50949350505050565b6000805b8251811015612d39576002846002018281548110612a8457612a84613ad1565b90600052602060002090602091828204019190069054906101000a900460ff166002811115612ab557612ab5613857565b03612bbd576000805b856003018381548110612ad357612ad3613ad1565b600091825260209091200154811015612ba657848381518110612af857612af8613ad1565b6020026020010151604051602001612b109190613a7b565b60405160208183030381529060405280519060200120866003018481548110612b3b57612b3b613ad1565b906000526020600020018281548110612b5657612b56613ad1565b90600052602060002001604051602001612b709190613edb565b6040516020818303038152906040528051906020012003612b945760019150612ba6565b80612b9e81613ec2565b915050612abe565b5080612bb757600092505050612371565b50612d27565b6001846002018281548110612bd457612bd4613ad1565b90600052602060002090602091828204019190069054906101000a900460ff166002811115612c0557612c05613857565b03612cfb576040516259657360e81b602082015260230160405160208183030381529060405280519060200120838281518110612c4457612c44613ad1565b6020026020010151604051602001612c5c9190613a7b565b604051602081830303815290604052805190602001201480612ce25750604051614e6f60f01b602082015260220160405160208183030381529060405280519060200120838281518110612cb257612cb2613ad1565b6020026020010151604051602001612cca9190613a7b565b60405160208183030381529060405280519060200120145b15612cf1576001915050612371565b6000915050612371565b828181518110612d0d57612d0d613ad1565b602002602001015151600003612d27576000915050612371565b80612d3181613ec2565b915050612a64565b5060019392505050565b828054828255906000526020600020908101928215612d89579160200282015b82811115612d895782518290612d799082613b8b565b5091602001919060010190612d63565b50612d95929150612f32565b5090565b82805482825590600052602060002090601f01602090048101928215612e3d5791602002820160005b83821115612e0e57835183826101000a81548160ff02191690836002811115612ded57612ded613857565b02179055509260200192600101602081600001049283019260010302612dc2565b8015612e3b5782816101000a81549060ff0219169055600101602081600001049283019260010302612e0e565b505b50612d95929150612f4f565b828054828255906000526020600020908101928215612e96579160200282015b82811115612e965782518051612e86918491602090910190612d43565b5091602001919060010190612e69565b50612d95929150612f64565b828054828255906000526020600020908101928215612e3d579160200282015b82811115612e3d57825182546001600160a01b0319166001600160a01b03909116178255602090920191600190910190612ec2565b828054828255906000526020600020908101928215612e3d579160200282015b82811115612e3d578251825591602001919060010190612f17565b80821115612d95576000612f468282612f81565b50600101612f32565b5b80821115612d955760008155600101612f50565b80821115612d95576000612f788282612fbb565b50600101612f64565b508054612f8d90613a97565b6000825580601f10612f9d575050565b601f0160209004906000526020600020908101906119b99190612f4f565b50805460008255906000526020600020908101906119b99190612f32565b634e487b7160e01b600052604160045260246000fd5b604051601f8201601f191681016001600160401b038111828210171561301757613017612fd9565b604052919050565b600082601f83011261303057600080fd5b81356001600160401b0381111561304957613049612fd9565b61305c601f8201601f1916602001612fef565b81815284602083860101111561307157600080fd5b816020850160208301376000918101602001919091529392505050565b60006001600160401b038211156130a7576130a7612fd9565b5060051b60200190565b80356001600160a01b038116811461192a57600080fd5b600082601f8301126130d957600080fd5b813560206130ee6130e98361308e565b612fef565b82815260059290921b8401810191818101908684111561310d57600080fd5b8286015b8481101561312f57613122816130b1565b8352918301918301613111565b509695505050505050565b600082601f83011261314b57600080fd5b8135602061315b6130e98361308e565b82815260059290921b8401810191818101908684111561317a57600080fd5b8286015b8481101561312f578035835291830191830161317e565b600082601f8301126131a657600080fd5b813560206131b66130e98361308e565b82815260059290921b840181019181810190868411156131d557600080fd5b8286015b8481101561312f5780356001600160401b038111156131f85760008081fd5b6132068986838b010161301f565b8452509183019183016131d9565b600080600080600080600080610100898b03121561323157600080fd5b88356001600160401b038082111561324857600080fd5b6132548c838d0161301f565b995060208b013591508082111561326a57600080fd5b6132768c838d016130c8565b985060408b013591508082111561328c57600080fd5b6132988c838d0161313a565b975060608b01359150808211156132ae57600080fd5b6132ba8c838d01613195565b965060808b01359150808211156132d057600080fd5b506132dd8b828c0161301f565b94505060a089013592506132f360c08a016130b1565b915060e089013590509295985092959890939650565b600082601f83011261331a57600080fd5b8135602061332a6130e98361308e565b82815260059290921b8401810191818101908684111561334957600080fd5b8286015b8481101561312f578035600381106133655760008081fd5b835291830191830161334d565b6000806000806080858703121561338857600080fd5b843593506020808601356001600160401b03808211156133a757600080fd5b6133b389838a01613195565b955060408801359150808211156133c957600080fd5b818801915088601f8301126133dd57600080fd5b81356133eb6130e98261308e565b81815260059190911b8301840190848101908b83111561340a57600080fd5b8585015b83811015613442578035858111156134265760008081fd5b6134348e89838a0101613195565b84525091860191860161340e565b5096505050606088013592508083111561345b57600080fd5b505061346987828801613309565b91505092959194509250565b60005b83811015613490578181015183820152602001613478565b50506000910152565b600081518084526134b1816020860160208601613475565b601f01601f19169290920160200192915050565b6020815260006134d86020830184613499565b9392505050565b6000602082840312156134f157600080fd5b6134d8826130b1565b60006020828403121561350c57600080fd5b81356001600160401b0381111561352257600080fd5b6108a58482850161301f565b600081518084526020808501945080840160005b8381101561355e57815187529582019590820190600101613542565b509495945050505050565b6000815180845260208085019450848260051b860182860160005b858110156135ae57838303895261359c838351613499565b98850198925090840190600101613584565b5090979650505050505050565b600081518084526020808501945080840160005b8381101561355e57815180516001600160a01b03168852838101518489015260409081015190880152606090960195908201906001016135cf565b6101008082528951908201819052600090610120830190602090818d01845b8281101561364e5781516001600160a01b031685529383019390830190600101613629565b50505083820390840152613662818b61352e565b90508281036040840152613676818a613569565b9050828103606084015261368a8189613499565b905086608084015282810360a08401526136a481876135bb565b9150508360c08301526136bb60e083018415159052565b9998505050505050505050565b60008083601f8401126136da57600080fd5b5081356001600160401b038111156136f157600080fd5b6020830191508360208260051b850101111561370c57600080fd5b9250929050565b6000806000806040858703121561372957600080fd5b84356001600160401b038082111561374057600080fd5b61374c888389016136c8565b9096509450602087013591508082111561376557600080fd5b50613772878288016136c8565b95989497509550505050565b60008060008060008060c0878903121561379757600080fd5b86356001600160401b03808211156137ae57600080fd5b6137ba8a838b0161301f565b975060208901359150808211156137d057600080fd5b6137dc8a838b016130c8565b965060408901359150808211156137f257600080fd5b6137fe8a838b0161313a565b9550606089013591508082111561381457600080fd5b6138208a838b01613195565b9450608089013591508082111561383657600080fd5b5061384389828a0161301f565b92505060a087013590509295509295509295565b634e487b7160e01b600052602160045260246000fd5b600081518084526020808501808196508360051b8101915082860160005b858110156138b55782840389526138a3848351613569565b9885019893509084019060010161388b565b5091979650505050505050565b6080815260006138d56080830187613569565b8281036020848101919091528651808352878201928201906000805b828110156139295785516003811061391757634e487b7160e01b83526021600452602483fd5b845294840194928401926001016138f1565b505050848103604086015261393e818861386d565b935050505082606083015295945050505050565b60006020828403121561396457600080fd5b5035919050565b6020815260006134d86020830184613569565b60006020828403121561399057600080fd5b81356001600160401b038111156139a657600080fd5b820161014081850312156134d857600080fd5b60208082526012908201527110dbdb9d1c9858dd081a5cc81c185d5cd95960721b604082015260600190565b634e487b7160e01b600052601160045260246000fd5b80820180821115612371576123716139e5565b81810381811115612371576123716139e5565b60008451613a33818460208901613475565b8083019050601760f91b8082528551613a53816001850160208a01613475565b60019201918201528351613a6e816002840160208801613475565b0160020195945050505050565b60008251613a8d818460208701613475565b9190910192915050565b600181811c90821680613aab57607f821691505b602082108103613acb57634e487b7160e01b600052602260045260246000fd5b50919050565b634e487b7160e01b600052603260045260246000fd5b6000823561013e19833603018112613a8d57600080fd5b8082028115828204841417612371576123716139e5565b80151581146119b957600080fd5b600060208284031215613b3557600080fd5b81516134d881613b15565b601f821115613b8657600081815260208120601f850160051c81016020861015613b675750805b601f850160051c820191505b8181101561102057828155600101613b73565b505050565b81516001600160401b03811115613ba457613ba4612fd9565b613bb881613bb28454613a97565b84613b40565b602080601f831160018114613bed5760008415613bd55750858301515b600019600386901b1c1916600185901b178555611020565b600085815260208120601f198616915b82811015613c1c57888601518255948401946001909101908401613bfd565b5085821015613c3a5787850151600019600388901b60f8161c191681555b5050505050600190811b01905550565b6000808335601e19843603018112613c6157600080fd5b8301803591506001600160401b03821115613c7b57600080fd5b60200191503681900382131561370c57600080fd5b60008060008060808587031215613ca657600080fd5b84356001600160401b0380821115613cbd57600080fd5b613cc98883890161301f565b9550602087013594506040870135915080821115613ce657600080fd5b613cf288838901613195565b93506060870135915080821115613d0857600080fd5b506134698782880161301f565b80356001600160401b038116811461192a57600080fd5b803561192a81613b15565b6000808335601e19843603018112613d4e57600080fd5b83016020810192503590506001600160401b03811115613d6d57600080fd5b80360382131561370c57600080fd5b81835281816020850137506000828201602090810191909152601f909101601f19169091010190565b6040815282356040820152602083013560608201526000613dc860408501613d15565b6001600160401b03166080830152613de260608501613d15565b6001600160401b031660a0830152613dfc60808501613d15565b6001600160401b03811660c08401525060a084013560e0830152613e2260c085016130b1565b610100613e39818501836001600160a01b03169052565b613e4560e087016130b1565b9150610120613e5e818601846001600160a01b03169052565b613e69828801613d2c565b92506101409150613e7d8286018415159052565b613e8981880188613d37565b9350905081610160860152613ea361018086018483613d7c565b925050508281036020840152613eb98185613499565b95945050505050565b600060018201613ed457613ed46139e5565b5060010190565b6000808354613ee981613a97565b60018281168015613f015760018114613f1657613f45565b60ff1984168752821515830287019450613f45565b8760005260208060002060005b85811015613f3c5781548a820152908401908201613f23565b50505082870194505b5092969550505050505056fea2646970667358221220d4241300b4411ab17060d12dc2aa643536ab27d0993fe2012d00f3374f425bac64736f6c63430008130033",
			"opcodes": "PUSH2 0x140 PUSH1 0x40 MSTORE PUSH1 0x3 PUSH2 0x100 SWAP1 DUP2 MSTORE PUSH3 0x181719 PUSH1 0xE9 SHL PUSH2 0x120 MSTORE PUSH1 0x6 SWAP1 PUSH3 0x27 SWAP1 DUP3 PUSH3 0x1E5 JUMP JUMPDEST POP PUSH1 0x7 DUP1 SLOAD PUSH1 0xFF NOT AND PUSH1 0x1 OR SWAP1 SSTORE CALLVALUE DUP1 ISZERO PUSH3 0x42 JUMPI PUSH1 0x0 DUP1 REVERT JUMPDEST POP PUSH1 0x40 MLOAD PUSH3 0x42A4 CODESIZE SUB DUP1 PUSH3 0x42A4 DUP4 CODECOPY DUP2 ADD PUSH1 0x40 DUP2 SWAP1 MSTORE PUSH3 0x65 SWAP2 PUSH3 0x2B1 JUMP JUMPDEST PUSH1 0x1 PUSH1 0x80 MSTORE PUSH1 0x0 PUSH1 0xA0 DUP2 SWAP1 MSTORE PUSH1 0xC0 MSTORE DUP1 PUSH1 0x1 PUSH1 0x1 PUSH1 0xA0 SHL SUB DUP2 AND PUSH3 0x9D JUMPI PUSH1 0x40 MLOAD PUSH4 0x41BC07FF PUSH1 0xE1 SHL DUP2 MSTORE PUSH1 0x4 ADD PUSH1 0x40 MLOAD DUP1 SWAP2 SUB SWAP1 REVERT JUMPDEST PUSH1 0x1 PUSH1 0x1 PUSH1 0xA0 SHL SUB AND PUSH1 0xE0 MSTORE PUSH3 0xB4 CALLER PUSH3 0xF0 JUMP JUMPDEST POP PUSH1 0x0 DUP1 MSTORE PUSH1 0x3 PUSH1 0x20 MSTORE PUSH32 0x3617319A054D772F909F7C479A2CEBE5066E836A939412E32403C99029B92EFF DUP1 SLOAD PUSH1 0xFF NOT AND PUSH1 0x1 OR SWAP1 SSTORE PUSH3 0x2E3 JUMP JUMPDEST PUSH1 0x0 DUP1 SLOAD PUSH1 0x1 PUSH1 0x1 PUSH1 0xA0 SHL SUB DUP4 DUP2 AND PUSH1 0x1 PUSH1 0x1 PUSH1 0xA0 SHL SUB NOT DUP4 AND DUP2 OR DUP5 SSTORE PUSH1 0x40 MLOAD SWAP2 SWAP1 SWAP3 AND SWAP3 DUP4 SWAP2 PUSH32 0x8BE0079C531659141344CD1FD0A4F28419497F9722A3DAAFE3B4186F6B6457E0 SWAP2 SWAP1 LOG3 POP POP JUMP JUMPDEST PUSH4 0x4E487B71 PUSH1 0xE0 SHL PUSH1 0x0 MSTORE PUSH1 0x41 PUSH1 0x4 MSTORE PUSH1 0x24 PUSH1 0x0 REVERT JUMPDEST PUSH1 0x1 DUP2 DUP2 SHR SWAP1 DUP3 AND DUP1 PUSH3 0x16B JUMPI PUSH1 0x7F DUP3 AND SWAP2 POP JUMPDEST PUSH1 0x20 DUP3 LT DUP2 SUB PUSH3 0x18C JUMPI PUSH4 0x4E487B71 PUSH1 0xE0 SHL PUSH1 0x0 MSTORE PUSH1 0x22 PUSH1 0x4 MSTORE PUSH1 0x24 PUSH1 0x0 REVERT JUMPDEST POP SWAP2 SWAP1 POP JUMP JUMPDEST PUSH1 0x1F DUP3 GT ISZERO PUSH3 0x1E0 JUMPI PUSH1 0x0 DUP2 DUP2 MSTORE PUSH1 0x20 DUP2 KECCAK256 PUSH1 0x1F DUP6 ADD PUSH1 0x5 SHR DUP2 ADD PUSH1 0x20 DUP7 LT ISZERO PUSH3 0x1BB JUMPI POP DUP1 JUMPDEST PUSH1 0x1F DUP6 ADD PUSH1 0x5 SHR DUP3 ADD SWAP2 POP JUMPDEST DUP2 DUP2 LT ISZERO PUSH3 0x1DC JUMPI DUP3 DUP2 SSTORE PUSH1 0x1 ADD PUSH3 0x1C7 JUMP JUMPDEST POP POP POP JUMPDEST POP POP POP JUMP JUMPDEST DUP2 MLOAD PUSH1 0x1 PUSH1 0x1 PUSH1 0x40 SHL SUB DUP2 GT ISZERO PUSH3 0x201 JUMPI PUSH3 0x201 PUSH3 0x140 JUMP JUMPDEST PUSH3 0x219 DUP2 PUSH3 0x212 DUP5 SLOAD PUSH3 0x156 JUMP JUMPDEST DUP5 PUSH3 0x192 JUMP JUMPDEST PUSH1 0x20 DUP1 PUSH1 0x1F DUP4 GT PUSH1 0x1 DUP2 EQ PUSH3 0x251 JUMPI PUSH1 0x0 DUP5 ISZERO PUSH3 0x238 JUMPI POP DUP6 DUP4 ADD MLOAD JUMPDEST PUSH1 0x0 NOT PUSH1 0x3 DUP7 SWAP1 SHL SHR NOT AND PUSH1 0x1 DUP6 SWAP1 SHL OR DUP6 SSTORE PUSH3 0x1DC JUMP JUMPDEST PUSH1 0x0 DUP6 DUP2 MSTORE PUSH1 0x20 DUP2 KECCAK256 PUSH1 0x1F NOT DUP7 AND SWAP2 JUMPDEST DUP3 DUP2 LT ISZERO PUSH3 0x282 JUMPI DUP9 DUP7 ADD MLOAD DUP3 SSTORE SWAP5 DUP5 ADD SWAP5 PUSH1 0x1 SWAP1 SWAP2 ADD SWAP1 DUP5 ADD PUSH3 0x261 JUMP JUMPDEST POP DUP6 DUP3 LT ISZERO PUSH3 0x2A1 JUMPI DUP8 DUP6 ADD MLOAD PUSH1 0x0 NOT PUSH1 0x3 DUP9 SWAP1 SHL PUSH1 0xF8 AND SHR NOT AND DUP2 SSTORE JUMPDEST POP POP POP POP POP PUSH1 0x1 SWAP1 DUP2 SHL ADD SWAP1 SSTORE POP JUMP JUMPDEST PUSH1 0x0 PUSH1 0x20 DUP3 DUP5 SUB SLT ISZERO PUSH3 0x2C4 JUMPI PUSH1 0x0 DUP1 REVERT JUMPDEST DUP2 MLOAD PUSH1 0x1 PUSH1 0x1 PUSH1 0xA0 SHL SUB DUP2 AND DUP2 EQ PUSH3 0x2DC JUMPI PUSH1 0x0 DUP1 REVERT JUMPDEST SWAP4 SWAP3 POP POP POP JUMP JUMPDEST PUSH1 0x80 MLOAD PUSH1 0xA0 MLOAD PUSH1 0xC0 MLOAD PUSH1 0xE0 MLOAD PUSH2 0x3F87 PUSH3 0x31D PUSH1 0x0 CODECOPY PUSH1 0x0 PUSH2 0x2330 ADD MSTORE PUSH1 0x0 PUSH2 0x91A ADD MSTORE PUSH1 0x0 PUSH2 0x8F1 ADD MSTORE PUSH1 0x0 PUSH2 0x8C8 ADD MSTORE PUSH2 0x3F87 PUSH1 0x0 RETURN INVALID PUSH1 0x80 PUSH1 0x40 MSTORE PUSH1 0x4 CALLDATASIZE LT PUSH2 0x1A0 JUMPI PUSH1 0x0 CALLDATALOAD PUSH1 0xE0 SHR DUP1 PUSH4 0x91DB0B7E GT PUSH2 0xEC JUMPI DUP1 PUSH4 0xBE2761D0 GT PUSH2 0x8A JUMPI DUP1 PUSH4 0xDD526054 GT PUSH2 0x64 JUMPI DUP1 PUSH4 0xDD526054 EQ PUSH2 0x4A1 JUMPI DUP1 PUSH4 0xE49617E1 EQ PUSH2 0x4C3 JUMPI DUP1 PUSH4 0xE60C3505 EQ PUSH2 0x4D6 JUMPI DUP1 PUSH4 0xF2FDE38B EQ PUSH2 0x4E9 JUMPI PUSH1 0x0 DUP1 REVERT JUMPDEST DUP1 PUSH4 0xBE2761D0 EQ PUSH2 0x44D JUMPI DUP1 PUSH4 0xCE46E046 EQ PUSH2 0x46D JUMPI DUP1 PUSH4 0xD627D25E EQ PUSH2 0x481 JUMPI PUSH1 0x0 DUP1 REVERT JUMPDEST DUP1 PUSH4 0xB4E137CD GT PUSH2 0xC6 JUMPI DUP1 PUSH4 0xB4E137CD EQ PUSH2 0x3AD JUMPI DUP1 PUSH4 0xB5AF090F EQ PUSH2 0x3DD JUMPI DUP1 PUSH4 0xB6FC76AF EQ PUSH2 0x40D JUMPI DUP1 PUSH4 0xBD7E2AA4 EQ PUSH2 0x42D JUMPI PUSH1 0x0 DUP1 REVERT JUMPDEST DUP1 PUSH4 0x91DB0B7E EQ PUSH2 0x365 JUMPI DUP1 PUSH4 0xA0A8E460 EQ PUSH2 0x378 JUMPI DUP1 PUSH4 0xA940B874 EQ PUSH2 0x38D JUMPI PUSH1 0x0 DUP1 REVERT JUMPDEST DUP1 PUSH4 0x715018A6 GT PUSH2 0x159 JUMPI DUP1 PUSH4 0x85B92413 GT PUSH2 0x133 JUMPI DUP1 PUSH4 0x85B92413 EQ PUSH2 0x2D6 JUMPI DUP1 PUSH4 0x86BE6D51 EQ PUSH2 0x30A JUMPI DUP1 PUSH4 0x88E5B2D9 EQ PUSH2 0x320 JUMPI DUP1 PUSH4 0x8DA5CB5B EQ PUSH2 0x333 JUMPI PUSH1 0x0 DUP1 REVERT JUMPDEST DUP1 PUSH4 0x715018A6 EQ PUSH2 0x28C JUMPI DUP1 PUSH4 0x7A35AAA9 EQ PUSH2 0x2A1 JUMPI DUP1 PUSH4 0x8456CB59 EQ PUSH2 0x2C1 JUMPI PUSH1 0x0 DUP1 REVERT JUMPDEST DUP1 PUSH4 0x20DE0462 EQ PUSH2 0x1C5 JUMPI DUP1 PUSH4 0x30940523 EQ PUSH2 0x1D8 JUMPI DUP1 PUSH4 0x3F4BA83A EQ PUSH2 0x20B JUMPI DUP1 PUSH4 0x54FD4D50 EQ PUSH2 0x220 JUMPI DUP1 PUSH4 0x5C975ABB EQ PUSH2 0x242 JUMPI DUP1 PUSH4 0x6247F6F2 EQ PUSH2 0x26C JUMPI PUSH1 0x0 DUP1 REVERT JUMPDEST CALLDATASIZE PUSH2 0x1C0 JUMPI PUSH1 0x40 MLOAD PUSH4 0x1574F9F3 PUSH1 0xE0 SHL DUP2 MSTORE PUSH1 0x4 ADD PUSH1 0x40 MLOAD DUP1 SWAP2 SUB SWAP1 REVERT JUMPDEST STOP JUMPDEST PUSH1 0x0 DUP1 REVERT JUMPDEST PUSH2 0x1BE PUSH2 0x1D3 CALLDATASIZE PUSH1 0x4 PUSH2 0x3214 JUMP JUMPDEST PUSH2 0x509 JUMP JUMPDEST CALLVALUE DUP1 ISZERO PUSH2 0x1E4 JUMPI PUSH1 0x0 DUP1 REVERT JUMPDEST POP PUSH2 0x1F8 PUSH2 0x1F3 CALLDATASIZE PUSH1 0x4 PUSH2 0x3372 JUMP JUMPDEST PUSH2 0x551 JUMP JUMPDEST PUSH1 0x40 MLOAD SWAP1 DUP2 MSTORE PUSH1 0x20 ADD JUMPDEST PUSH1 0x40 MLOAD DUP1 SWAP2 SUB SWAP1 RETURN JUMPDEST CALLVALUE DUP1 ISZERO PUSH2 0x217 JUMPI PUSH1 0x0 DUP1 REVERT JUMPDEST POP PUSH2 0x1BE PUSH2 0x8AD JUMP JUMPDEST CALLVALUE DUP1 ISZERO PUSH2 0x22C JUMPI PUSH1 0x0 DUP1 REVERT JUMPDEST POP PUSH2 0x235 PUSH2 0x8C1 JUMP JUMPDEST PUSH1 0x40 MLOAD PUSH2 0x202 SWAP2 SWAP1 PUSH2 0x34C5 JUMP JUMPDEST CALLVALUE DUP1 ISZERO PUSH2 0x24E JUMPI PUSH1 0x0 DUP1 REVERT JUMPDEST POP PUSH1 0x7 SLOAD PUSH2 0x25C SWAP1 PUSH1 0xFF AND DUP2 JUMP JUMPDEST PUSH1 0x40 MLOAD SWAP1 ISZERO ISZERO DUP2 MSTORE PUSH1 0x20 ADD PUSH2 0x202 JUMP JUMPDEST CALLVALUE DUP1 ISZERO PUSH2 0x278 JUMPI PUSH1 0x0 DUP1 REVERT JUMPDEST POP PUSH2 0x1BE PUSH2 0x287 CALLDATASIZE PUSH1 0x4 PUSH2 0x34DF JUMP JUMPDEST PUSH2 0x964 JUMP JUMPDEST CALLVALUE DUP1 ISZERO PUSH2 0x298 JUMPI PUSH1 0x0 DUP1 REVERT JUMPDEST POP PUSH2 0x1BE PUSH2 0x990 JUMP JUMPDEST CALLVALUE DUP1 ISZERO PUSH2 0x2AD JUMPI PUSH1 0x0 DUP1 REVERT JUMPDEST POP PUSH2 0x1BE PUSH2 0x2BC CALLDATASIZE PUSH1 0x4 PUSH2 0x34DF JUMP JUMPDEST PUSH2 0x9A4 JUMP JUMPDEST CALLVALUE DUP1 ISZERO PUSH2 0x2CD JUMPI PUSH1 0x0 DUP1 REVERT JUMPDEST POP PUSH2 0x1BE PUSH2 0x9CE JUMP JUMPDEST CALLVALUE DUP1 ISZERO PUSH2 0x2E2 JUMPI PUSH1 0x0 DUP1 REVERT JUMPDEST POP PUSH2 0x2F6 PUSH2 0x2F1 CALLDATASIZE PUSH1 0x4 PUSH2 0x34FA JUMP JUMPDEST PUSH2 0xA08 JUMP JUMPDEST PUSH1 0x40 MLOAD PUSH2 0x202 SWAP9 SWAP8 SWAP7 SWAP6 SWAP5 SWAP4 SWAP3 SWAP2 SWAP1 PUSH2 0x360A JUMP JUMPDEST CALLVALUE DUP1 ISZERO PUSH2 0x316 JUMPI PUSH1 0x0 DUP1 REVERT JUMPDEST POP PUSH2 0x1F8 PUSH1 0x5 SLOAD DUP2 JUMP JUMPDEST PUSH2 0x25C PUSH2 0x32E CALLDATASIZE PUSH1 0x4 PUSH2 0x3713 JUMP JUMPDEST PUSH2 0xE10 JUMP JUMPDEST CALLVALUE DUP1 ISZERO PUSH2 0x33F JUMPI PUSH1 0x0 DUP1 REVERT JUMPDEST POP PUSH1 0x0 SLOAD PUSH1 0x1 PUSH1 0x1 PUSH1 0xA0 SHL SUB AND JUMPDEST PUSH1 0x40 MLOAD PUSH1 0x1 PUSH1 0x1 PUSH1 0xA0 SHL SUB SWAP1 SWAP2 AND DUP2 MSTORE PUSH1 0x20 ADD PUSH2 0x202 JUMP JUMPDEST PUSH2 0x25C PUSH2 0x373 CALLDATASIZE PUSH1 0x4 PUSH2 0x3713 JUMP JUMPDEST PUSH2 0xEBD JUMP JUMPDEST CALLVALUE DUP1 ISZERO PUSH2 0x384 JUMPI PUSH1 0x0 DUP1 REVERT JUMPDEST POP PUSH2 0x235 PUSH2 0xF5C JUMP JUMPDEST CALLVALUE DUP1 ISZERO PUSH2 0x399 JUMPI PUSH1 0x0 DUP1 REVERT JUMPDEST POP PUSH2 0x1BE PUSH2 0x3A8 CALLDATASIZE PUSH1 0x4 PUSH2 0x377E JUMP JUMPDEST PUSH2 0xFEA JUMP JUMPDEST CALLVALUE DUP1 ISZERO PUSH2 0x3B9 JUMPI PUSH1 0x0 DUP1 REVERT JUMPDEST POP PUSH2 0x3CD PUSH2 0x3C8 CALLDATASIZE PUSH1 0x4 PUSH2 0x34FA JUMP JUMPDEST PUSH2 0x1028 JUMP JUMPDEST PUSH1 0x40 MLOAD PUSH2 0x202 SWAP5 SWAP4 SWAP3 SWAP2 SWAP1 PUSH2 0x38C2 JUMP JUMPDEST CALLVALUE DUP1 ISZERO PUSH2 0x3E9 JUMPI PUSH1 0x0 DUP1 REVERT JUMPDEST POP PUSH2 0x25C PUSH2 0x3F8 CALLDATASIZE PUSH1 0x4 PUSH2 0x34DF JUMP JUMPDEST PUSH1 0x3 PUSH1 0x20 MSTORE PUSH1 0x0 SWAP1 DUP2 MSTORE PUSH1 0x40 SWAP1 KECCAK256 SLOAD PUSH1 0xFF AND DUP2 JUMP JUMPDEST CALLVALUE DUP1 ISZERO PUSH2 0x419 JUMPI PUSH1 0x0 DUP1 REVERT JUMPDEST POP PUSH2 0x3CD PUSH2 0x428 CALLDATASIZE PUSH1 0x4 PUSH2 0x3952 JUMP JUMPDEST PUSH2 0x130A JUMP JUMPDEST CALLVALUE DUP1 ISZERO PUSH2 0x439 JUMPI PUSH1 0x0 DUP1 REVERT JUMPDEST POP PUSH1 0x1 SLOAD PUSH2 0x34D SWAP1 PUSH1 0x1 PUSH1 0x1 PUSH1 0xA0 SHL SUB AND DUP2 JUMP JUMPDEST CALLVALUE DUP1 ISZERO PUSH2 0x459 JUMPI PUSH1 0x0 DUP1 REVERT JUMPDEST POP PUSH2 0x1BE PUSH2 0x468 CALLDATASIZE PUSH1 0x4 PUSH2 0x34FA JUMP JUMPDEST PUSH2 0x1620 JUMP JUMPDEST CALLVALUE DUP1 ISZERO PUSH2 0x479 JUMPI PUSH1 0x0 DUP1 REVERT JUMPDEST POP PUSH1 0x0 PUSH2 0x25C JUMP JUMPDEST CALLVALUE DUP1 ISZERO PUSH2 0x48D JUMPI PUSH1 0x0 DUP1 REVERT JUMPDEST POP PUSH2 0x1BE PUSH2 0x49C CALLDATASIZE PUSH1 0x4 PUSH2 0x34DF JUMP JUMPDEST PUSH2 0x1811 JUMP JUMPDEST CALLVALUE DUP1 ISZERO PUSH2 0x4AD JUMPI PUSH1 0x0 DUP1 REVERT JUMPDEST POP PUSH2 0x4B6 PUSH2 0x183A JUMP JUMPDEST PUSH1 0x40 MLOAD PUSH2 0x202 SWAP2 SWAP1 PUSH2 0x396B JUMP JUMPDEST PUSH2 0x25C PUSH2 0x4D1 CALLDATASIZE PUSH1 0x4 PUSH2 0x397E JUMP JUMPDEST PUSH2 0x1913 JUMP JUMPDEST PUSH2 0x25C PUSH2 0x4E4 CALLDATASIZE PUSH1 0x4 PUSH2 0x397E JUMP JUMPDEST PUSH2 0x192F JUMP JUMPDEST CALLVALUE DUP1 ISZERO PUSH2 0x4F5 JUMPI PUSH1 0x0 DUP1 REVERT JUMPDEST POP PUSH2 0x1BE PUSH2 0x504 CALLDATASIZE PUSH1 0x4 PUSH2 0x34DF JUMP JUMPDEST PUSH2 0x1943 JUMP JUMPDEST PUSH1 0x7 SLOAD PUSH1 0xFF AND ISZERO PUSH2 0x535 JUMPI PUSH1 0x40 MLOAD PUSH3 0x461BCD PUSH1 0xE5 SHL DUP2 MSTORE PUSH1 0x4 ADD PUSH2 0x52C SWAP1 PUSH2 0x39B9 JUMP JUMPDEST PUSH1 0x40 MLOAD DUP1 SWAP2 SUB SWAP1 REVERT JUMPDEST PUSH2 0x547 DUP9 DUP9 DUP9 DUP9 DUP9 DUP9 DUP8 DUP10 PUSH1 0x1 PUSH2 0x19BC JUMP JUMPDEST POP POP POP POP POP POP POP POP JUMP JUMPDEST PUSH1 0x7 SLOAD PUSH1 0x0 SWAP1 PUSH1 0xFF AND ISZERO PUSH2 0x577 JUMPI PUSH1 0x40 MLOAD PUSH3 0x461BCD PUSH1 0xE5 SHL DUP2 MSTORE PUSH1 0x4 ADD PUSH2 0x52C SWAP1 PUSH2 0x39B9 JUMP JUMPDEST DUP5 PUSH2 0x5D0 JUMPI PUSH1 0x40 MLOAD PUSH3 0x461BCD PUSH1 0xE5 SHL DUP2 MSTORE PUSH1 0x20 PUSH1 0x4 DUP3 ADD MSTORE PUSH1 0x23 PUSH1 0x24 DUP3 ADD MSTORE PUSH32 0x4465726573793A2045415320536368656D612049442063616E2774206265206E PUSH1 0x44 DUP3 ADD MSTORE PUSH3 0x1D5B1B PUSH1 0xEA SHL PUSH1 0x64 DUP3 ADD MSTORE PUSH1 0x84 ADD PUSH2 0x52C JUMP JUMPDEST PUSH1 0x0 DUP5 MLOAD GT PUSH2 0x621 JUMPI PUSH1 0x40 MLOAD PUSH3 0x461BCD PUSH1 0xE5 SHL DUP2 MSTORE PUSH1 0x20 PUSH1 0x4 DUP3 ADD MSTORE PUSH1 0x1F PUSH1 0x24 DUP3 ADD MSTORE PUSH32 0x4465726573793A205175657374696F6E732063616E2774206265206E756C6C00 PUSH1 0x44 DUP3 ADD MSTORE PUSH1 0x64 ADD PUSH2 0x52C JUMP JUMPDEST PUSH1 0x0 DUP3 MLOAD GT PUSH2 0x67E JUMPI PUSH1 0x40 MLOAD PUSH3 0x461BCD PUSH1 0xE5 SHL DUP2 MSTORE PUSH1 0x20 PUSH1 0x4 DUP3 ADD MSTORE PUSH1 0x24 DUP1 DUP3 ADD MSTORE PUSH32 0x4465726573793A205175657374696F6E2054797065732063616E277420626520 PUSH1 0x44 DUP3 ADD MSTORE PUSH4 0x1B9D5B1B PUSH1 0xE2 SHL PUSH1 0x64 DUP3 ADD MSTORE PUSH1 0x84 ADD PUSH2 0x52C JUMP JUMPDEST DUP4 MLOAD DUP3 MLOAD EQ PUSH2 0x6ED JUMPI PUSH1 0x40 MLOAD PUSH3 0x461BCD PUSH1 0xE5 SHL DUP2 MSTORE PUSH1 0x20 PUSH1 0x4 DUP3 ADD MSTORE PUSH1 0x35 PUSH1 0x24 DUP3 ADD MSTORE PUSH32 0x4465726573793A205175657374696F6E7320616E64207479706573206D757374 PUSH1 0x44 DUP3 ADD MSTORE PUSH21 0x40D0C2ECCA40E8D0CA40E6C2DACA40D8CADCCEE8D PUSH1 0x5B SHL PUSH1 0x64 DUP3 ADD MSTORE PUSH1 0x84 ADD PUSH2 0x52C JUMP JUMPDEST DUP3 MLOAD DUP5 MLOAD EQ PUSH2 0x764 JUMPI PUSH1 0x40 MLOAD PUSH3 0x461BCD PUSH1 0xE5 SHL DUP2 MSTORE PUSH1 0x20 PUSH1 0x4 DUP3 ADD MSTORE PUSH1 0x37 PUSH1 0x24 DUP3 ADD MSTORE PUSH32 0x4465726573793A205175657374696F6E7320616E642063686F69636573206D75 PUSH1 0x44 DUP3 ADD MSTORE PUSH32 0x73742068617665207468652073616D65206C656E677468000000000000000000 PUSH1 0x64 DUP3 ADD MSTORE PUSH1 0x84 ADD PUSH2 0x52C JUMP JUMPDEST PUSH1 0x40 DUP1 MLOAD PUSH1 0x80 DUP2 ADD DUP3 MSTORE DUP7 DUP2 MSTORE PUSH1 0x20 DUP1 DUP3 ADD DUP8 DUP2 MSTORE SWAP3 DUP3 ADD DUP6 SWAP1 MSTORE PUSH1 0x60 DUP3 ADD DUP7 SWAP1 MSTORE PUSH1 0x8 DUP1 SLOAD PUSH1 0x1 DUP2 ADD DUP3 SSTORE PUSH1 0x0 SWAP2 SWAP1 SWAP2 MSTORE DUP3 MLOAD PUSH1 0x4 SWAP1 SWAP2 MUL PUSH32 0xF3F7A9FE364FAAB93B216DA50A3214154F22A0A2B415B23A84C8169E8B636EE3 DUP2 ADD SWAP2 DUP3 SSTORE SWAP4 MLOAD DUP1 MLOAD SWAP4 SWAP5 SWAP2 SWAP4 PUSH2 0x7FE SWAP4 PUSH32 0xF3F7A9FE364FAAB93B216DA50A3214154F22A0A2B415B23A84C8169E8B636EE4 SWAP1 SWAP4 ADD SWAP3 SWAP2 SWAP1 SWAP2 ADD SWAP1 PUSH2 0x2D43 JUMP JUMPDEST POP PUSH1 0x40 DUP3 ADD MLOAD DUP1 MLOAD PUSH2 0x81A SWAP2 PUSH1 0x2 DUP5 ADD SWAP2 PUSH1 0x20 SWAP1 SWAP2 ADD SWAP1 PUSH2 0x2D99 JUMP JUMPDEST POP PUSH1 0x60 DUP3 ADD MLOAD DUP1 MLOAD PUSH2 0x836 SWAP2 PUSH1 0x3 DUP5 ADD SWAP2 PUSH1 0x20 SWAP1 SWAP2 ADD SWAP1 PUSH2 0x2E49 JUMP JUMPDEST POP POP POP PUSH1 0x1 PUSH1 0x5 PUSH1 0x0 DUP3 DUP3 SLOAD PUSH2 0x84C SWAP2 SWAP1 PUSH2 0x39FB JUMP JUMPDEST SWAP1 SWAP2 SSTORE POP POP PUSH1 0x8 SLOAD PUSH32 0x2CA1C706B776FC626B1E93B556D8968577908C5FEE79CA88376ADE10B781019C SWAP1 PUSH2 0x882 SWAP1 PUSH1 0x1 SWAP1 PUSH2 0x3A0E JUMP JUMPDEST PUSH1 0x40 MLOAD SWAP1 DUP2 MSTORE PUSH1 0x20 ADD PUSH1 0x40 MLOAD DUP1 SWAP2 SUB SWAP1 LOG1 PUSH1 0x8 SLOAD PUSH2 0x8A2 SWAP1 PUSH1 0x1 SWAP1 PUSH2 0x3A0E JUMP JUMPDEST SWAP1 POP JUMPDEST SWAP5 SWAP4 POP POP POP POP JUMP JUMPDEST PUSH2 0x8B5 PUSH2 0x21E9 JUMP JUMPDEST PUSH1 0x7 DUP1 SLOAD PUSH1 0xFF NOT AND SWAP1 SSTORE JUMP JUMPDEST PUSH1 0x60 PUSH2 0x8EC PUSH32 0x0 PUSH2 0x2243 JUMP JUMPDEST PUSH2 0x915 PUSH32 0x0 PUSH2 0x2243 JUMP JUMPDEST PUSH2 0x93E PUSH32 0x0 PUSH2 0x2243 JUMP JUMPDEST PUSH1 0x40 MLOAD PUSH1 0x20 ADD PUSH2 0x950 SWAP4 SWAP3 SWAP2 SWAP1 PUSH2 0x3A21 JUMP JUMPDEST PUSH1 0x40 MLOAD PUSH1 0x20 DUP2 DUP4 SUB SUB DUP2 MSTORE SWAP1 PUSH1 0x40 MSTORE SWAP1 POP SWAP1 JUMP JUMPDEST PUSH2 0x96C PUSH2 0x21E9 JUMP JUMPDEST PUSH1 0x1 PUSH1 0x1 PUSH1 0xA0 SHL SUB AND PUSH1 0x0 SWAP1 DUP2 MSTORE PUSH1 0x3 PUSH1 0x20 MSTORE PUSH1 0x40 SWAP1 KECCAK256 DUP1 SLOAD PUSH1 0xFF NOT AND PUSH1 0x1 OR SWAP1 SSTORE JUMP JUMPDEST PUSH2 0x998 PUSH2 0x21E9 JUMP JUMPDEST PUSH2 0x9A2 PUSH1 0x0 PUSH2 0x22D5 JUMP JUMPDEST JUMP JUMPDEST PUSH2 0x9AC PUSH2 0x21E9 JUMP JUMPDEST PUSH1 0x1 DUP1 SLOAD PUSH1 0x1 PUSH1 0x1 PUSH1 0xA0 SHL SUB NOT AND PUSH1 0x1 PUSH1 0x1 PUSH1 0xA0 SHL SUB SWAP3 SWAP1 SWAP3 AND SWAP2 SWAP1 SWAP2 OR SWAP1 SSTORE JUMP JUMPDEST PUSH2 0x9D6 PUSH2 0x21E9 JUMP JUMPDEST PUSH1 0x7 SLOAD PUSH1 0xFF AND ISZERO PUSH2 0x9F9 JUMPI PUSH1 0x40 MLOAD PUSH3 0x461BCD PUSH1 0xE5 SHL DUP2 MSTORE PUSH1 0x4 ADD PUSH2 0x52C SWAP1 PUSH2 0x39B9 JUMP JUMPDEST PUSH1 0x7 DUP1 SLOAD PUSH1 0xFF NOT AND PUSH1 0x1 OR SWAP1 SSTORE JUMP JUMPDEST PUSH1 0x60 DUP1 PUSH1 0x60 DUP1 PUSH1 0x0 PUSH1 0x60 PUSH1 0x0 DUP1 PUSH1 0x0 PUSH1 0x2 DUP11 PUSH1 0x40 MLOAD PUSH2 0xA27 SWAP2 SWAP1 PUSH2 0x3A7B JUMP JUMPDEST SWAP1 DUP2 MSTORE PUSH1 0x40 DUP1 MLOAD SWAP2 DUP3 SWAP1 SUB PUSH1 0x20 SWAP1 DUP2 ADD DUP4 KECCAK256 PUSH2 0x180 DUP5 ADD DUP4 MSTORE DUP1 SLOAD PUSH1 0x1 PUSH1 0x1 PUSH1 0xA0 SHL SUB AND DUP5 MSTORE PUSH1 0x1 DUP2 ADD DUP1 SLOAD DUP5 MLOAD DUP2 DUP6 MUL DUP2 ADD DUP6 ADD SWAP1 SWAP6 MSTORE DUP1 DUP6 MSTORE SWAP2 SWAP4 DUP6 DUP5 ADD SWAP4 SWAP1 SWAP3 SWAP1 DUP4 ADD DUP3 DUP3 DUP1 ISZERO PUSH2 0xAA4 JUMPI PUSH1 0x20 MUL DUP3 ADD SWAP2 SWAP1 PUSH1 0x0 MSTORE PUSH1 0x20 PUSH1 0x0 KECCAK256 SWAP1 JUMPDEST DUP2 SLOAD PUSH1 0x1 PUSH1 0x1 PUSH1 0xA0 SHL SUB AND DUP2 MSTORE PUSH1 0x1 SWAP1 SWAP2 ADD SWAP1 PUSH1 0x20 ADD DUP1 DUP4 GT PUSH2 0xA86 JUMPI JUMPDEST POP POP POP POP POP DUP2 MSTORE PUSH1 0x20 ADD PUSH1 0x2 DUP3 ADD DUP1 SLOAD DUP1 PUSH1 0x20 MUL PUSH1 0x20 ADD PUSH1 0x40 MLOAD SWAP1 DUP2 ADD PUSH1 0x40 MSTORE DUP1 SWAP3 SWAP2 SWAP1 DUP2 DUP2 MSTORE PUSH1 0x20 ADD DUP3 DUP1 SLOAD DUP1 ISZERO PUSH2 0xAFC JUMPI PUSH1 0x20 MUL DUP3 ADD SWAP2 SWAP1 PUSH1 0x0 MSTORE PUSH1 0x20 PUSH1 0x0 KECCAK256 SWAP1 JUMPDEST DUP2 SLOAD DUP2 MSTORE PUSH1 0x20 ADD SWAP1 PUSH1 0x1 ADD SWAP1 DUP1 DUP4 GT PUSH2 0xAE8 JUMPI JUMPDEST POP POP POP POP POP DUP2 MSTORE PUSH1 0x20 ADD PUSH1 0x3 DUP3 ADD DUP1 SLOAD DUP1 PUSH1 0x20 MUL PUSH1 0x20 ADD PUSH1 0x40 MLOAD SWAP1 DUP2 ADD PUSH1 0x40 MSTORE DUP1 SWAP3 SWAP2 SWAP1 DUP2 DUP2 MSTORE PUSH1 0x20 ADD PUSH1 0x0 SWAP1 JUMPDEST DUP3 DUP3 LT ISZERO PUSH2 0xBD6 JUMPI DUP4 DUP3 SWAP1 PUSH1 0x0 MSTORE PUSH1 0x20 PUSH1 0x0 KECCAK256 ADD DUP1 SLOAD PUSH2 0xB49 SWAP1 PUSH2 0x3A97 JUMP JUMPDEST DUP1 PUSH1 0x1F ADD PUSH1 0x20 DUP1 SWAP2 DIV MUL PUSH1 0x20 ADD PUSH1 0x40 MLOAD SWAP1 DUP2 ADD PUSH1 0x40 MSTORE DUP1 SWAP3 SWAP2 SWAP1 DUP2 DUP2 MSTORE PUSH1 0x20 ADD DUP3 DUP1 SLOAD PUSH2 0xB75 SWAP1 PUSH2 0x3A97 JUMP JUMPDEST DUP1 ISZERO PUSH2 0xBC2 JUMPI DUP1 PUSH1 0x1F LT PUSH2 0xB97 JUMPI PUSH2 0x100 DUP1 DUP4 SLOAD DIV MUL DUP4 MSTORE SWAP2 PUSH1 0x20 ADD SWAP2 PUSH2 0xBC2 JUMP JUMPDEST DUP3 ADD SWAP2 SWAP1 PUSH1 0x0 MSTORE PUSH1 0x20 PUSH1 0x0 KECCAK256 SWAP1 JUMPDEST DUP2 SLOAD DUP2 MSTORE SWAP1 PUSH1 0x1 ADD SWAP1 PUSH1 0x20 ADD DUP1 DUP4 GT PUSH2 0xBA5 JUMPI DUP3 SWAP1 SUB PUSH1 0x1F AND DUP3 ADD SWAP2 JUMPDEST POP POP POP POP POP DUP2 MSTORE PUSH1 0x20 ADD SWAP1 PUSH1 0x1 ADD SWAP1 PUSH2 0xB2A JUMP JUMPDEST POP POP POP POP DUP2 MSTORE PUSH1 0x20 ADD PUSH1 0x4 DUP3 ADD DUP1 SLOAD PUSH2 0xBEE SWAP1 PUSH2 0x3A97 JUMP JUMPDEST DUP1 PUSH1 0x1F ADD PUSH1 0x20 DUP1 SWAP2 DIV MUL PUSH1 0x20 ADD PUSH1 0x40 MLOAD SWAP1 DUP2 ADD PUSH1 0x40 MSTORE DUP1 SWAP3 SWAP2 SWAP1 DUP2 DUP2 MSTORE PUSH1 0x20 ADD DUP3 DUP1 SLOAD PUSH2 0xC1A SWAP1 PUSH2 0x3A97 JUMP JUMPDEST DUP1 ISZERO PUSH2 0xC67 JUMPI DUP1 PUSH1 0x1F LT PUSH2 0xC3C JUMPI PUSH2 0x100 DUP1 DUP4 SLOAD DIV MUL DUP4 MSTORE SWAP2 PUSH1 0x20 ADD SWAP2 PUSH2 0xC67 JUMP JUMPDEST DUP3 ADD SWAP2 SWAP1 PUSH1 0x0 MSTORE PUSH1 0x20 PUSH1 0x0 KECCAK256 SWAP1 JUMPDEST DUP2 SLOAD DUP2 MSTORE SWAP1 PUSH1 0x1 ADD SWAP1 PUSH1 0x20 ADD DUP1 DUP4 GT PUSH2 0xC4A JUMPI DUP3 SWAP1 SUB PUSH1 0x1F AND DUP3 ADD SWAP2 JUMPDEST POP POP POP POP POP DUP2 MSTORE PUSH1 0x20 ADD PUSH1 0x5 DUP3 ADD SLOAD DUP2 MSTORE PUSH1 0x20 ADD PUSH1 0x6 DUP3 ADD DUP1 SLOAD DUP1 PUSH1 0x20 MUL PUSH1 0x20 ADD PUSH1 0x40 MLOAD SWAP1 DUP2 ADD PUSH1 0x40 MSTORE DUP1 SWAP3 SWAP2 SWAP1 DUP2 DUP2 MSTORE PUSH1 0x20 ADD PUSH1 0x0 SWAP1 JUMPDEST DUP3 DUP3 LT ISZERO PUSH2 0xCF4 JUMPI PUSH1 0x0 DUP5 DUP2 MSTORE PUSH1 0x20 SWAP1 DUP2 SWAP1 KECCAK256 PUSH1 0x40 DUP1 MLOAD PUSH1 0x60 DUP2 ADD DUP3 MSTORE PUSH1 0x3 DUP7 MUL SWAP1 SWAP3 ADD DUP1 SLOAD PUSH1 0x1 PUSH1 0x1 PUSH1 0xA0 SHL SUB AND DUP4 MSTORE PUSH1 0x1 DUP1 DUP3 ADD SLOAD DUP5 DUP7 ADD MSTORE PUSH1 0x2 SWAP1 SWAP2 ADD SLOAD SWAP2 DUP4 ADD SWAP2 SWAP1 SWAP2 MSTORE SWAP1 DUP4 MSTORE SWAP1 SWAP3 ADD SWAP2 ADD PUSH2 0xC9F JUMP JUMPDEST POP POP POP SWAP1 DUP3 MSTORE POP PUSH1 0x7 DUP3 ADD SLOAD PUSH1 0xFF DUP2 AND ISZERO ISZERO PUSH1 0x20 DUP4 ADD MSTORE PUSH2 0x100 SWAP1 DIV PUSH1 0x1 PUSH1 0x1 PUSH1 0xA0 SHL SUB AND PUSH1 0x40 DUP3 ADD MSTORE PUSH1 0x8 DUP3 ADD SLOAD PUSH1 0x60 DUP3 ADD MSTORE PUSH1 0x9 DUP3 ADD SLOAD PUSH1 0x80 DUP3 ADD MSTORE PUSH1 0xA DUP3 ADD DUP1 SLOAD PUSH1 0xA0 SWAP1 SWAP3 ADD SWAP2 PUSH2 0xD47 SWAP1 PUSH2 0x3A97 JUMP JUMPDEST DUP1 PUSH1 0x1F ADD PUSH1 0x20 DUP1 SWAP2 DIV MUL PUSH1 0x20 ADD PUSH1 0x40 MLOAD SWAP1 DUP2 ADD PUSH1 0x40 MSTORE DUP1 SWAP3 SWAP2 SWAP1 DUP2 DUP2 MSTORE PUSH1 0x20 ADD DUP3 DUP1 SLOAD PUSH2 0xD73 SWAP1 PUSH2 0x3A97 JUMP JUMPDEST DUP1 ISZERO PUSH2 0xDC0 JUMPI DUP1 PUSH1 0x1F LT PUSH2 0xD95 JUMPI PUSH2 0x100 DUP1 DUP4 SLOAD DIV MUL DUP4 MSTORE SWAP2 PUSH1 0x20 ADD SWAP2 PUSH2 0xDC0 JUMP JUMPDEST DUP3 ADD SWAP2 SWAP1 PUSH1 0x0 MSTORE PUSH1 0x20 PUSH1 0x0 KECCAK256 SWAP1 JUMPDEST DUP2 SLOAD DUP2 MSTORE SWAP1 PUSH1 0x1 ADD SWAP1 PUSH1 0x20 ADD DUP1 DUP4 GT PUSH2 0xDA3 JUMPI DUP3 SWAP1 SUB PUSH1 0x1F AND DUP3 ADD SWAP2 JUMPDEST POP POP POP POP POP DUP2 MSTORE POP POP SWAP1 POP DUP1 PUSH1 0x20 ADD MLOAD DUP2 PUSH1 0x40 ADD MLOAD DUP3 PUSH1 0x60 ADD MLOAD DUP4 PUSH1 0x80 ADD MLOAD DUP5 PUSH1 0xA0 ADD MLOAD DUP6 PUSH1 0xC0 ADD MLOAD DUP7 PUSH2 0x140 ADD MLOAD DUP8 PUSH1 0xE0 ADD MLOAD SWAP9 POP SWAP9 POP SWAP9 POP SWAP9 POP SWAP9 POP SWAP9 POP SWAP9 POP SWAP9 POP POP SWAP2 SWAP4 SWAP6 SWAP8 POP SWAP2 SWAP4 SWAP6 SWAP8 JUMP JUMPDEST PUSH1 0x0 PUSH2 0xE1A PUSH2 0x2325 JUMP JUMPDEST DUP4 CALLVALUE PUSH1 0x0 JUMPDEST DUP3 DUP2 LT ISZERO PUSH2 0xEAF JUMPI PUSH1 0x0 DUP7 DUP7 DUP4 DUP2 DUP2 LT PUSH2 0xE3B JUMPI PUSH2 0xE3B PUSH2 0x3AD1 JUMP JUMPDEST SWAP1 POP PUSH1 0x20 MUL ADD CALLDATALOAD SWAP1 POP DUP3 DUP2 GT ISZERO PUSH2 0xE65 JUMPI PUSH1 0x40 MLOAD PUSH4 0x44044A5 PUSH1 0xE2 SHL DUP2 MSTORE PUSH1 0x4 ADD PUSH1 0x40 MLOAD DUP1 SWAP2 SUB SWAP1 REVERT JUMPDEST PUSH2 0xE92 DUP10 DUP10 DUP5 DUP2 DUP2 LT PUSH2 0xE7A JUMPI PUSH2 0xE7A PUSH2 0x3AD1 JUMP JUMPDEST SWAP1 POP PUSH1 0x20 MUL DUP2 ADD SWAP1 PUSH2 0xE8C SWAP2 SWAP1 PUSH2 0x3AE7 JUMP JUMPDEST DUP3 PUSH2 0x236E JUMP JUMPDEST PUSH2 0xEA3 JUMPI PUSH1 0x0 SWAP5 POP POP POP POP POP PUSH2 0x8A5 JUMP JUMPDEST SWAP1 SWAP2 SUB SWAP1 PUSH1 0x1 ADD PUSH2 0xE1F JUMP JUMPDEST POP PUSH1 0x1 SWAP8 SWAP7 POP POP POP POP POP POP POP JUMP JUMPDEST PUSH1 0x0 PUSH2 0xEC7 PUSH2 0x2325 JUMP JUMPDEST DUP4 CALLVALUE PUSH1 0x0 JUMPDEST DUP3 DUP2 LT ISZERO PUSH2 0xEAF JUMPI PUSH1 0x0 DUP7 DUP7 DUP4 DUP2 DUP2 LT PUSH2 0xEE8 JUMPI PUSH2 0xEE8 PUSH2 0x3AD1 JUMP JUMPDEST SWAP1 POP PUSH1 0x20 MUL ADD CALLDATALOAD SWAP1 POP DUP3 DUP2 GT ISZERO PUSH2 0xF12 JUMPI PUSH1 0x40 MLOAD PUSH4 0x44044A5 PUSH1 0xE2 SHL DUP2 MSTORE PUSH1 0x4 ADD PUSH1 0x40 MLOAD DUP1 SWAP2 SUB SWAP1 REVERT JUMPDEST PUSH2 0xF3F DUP10 DUP10 DUP5 DUP2 DUP2 LT PUSH2 0xF27 JUMPI PUSH2 0xF27 PUSH2 0x3AD1 JUMP JUMPDEST SWAP1 POP PUSH1 0x20 MUL DUP2 ADD SWAP1 PUSH2 0xF39 SWAP2 SWAP1 PUSH2 0x3AE7 JUMP JUMPDEST DUP3 PUSH2 0x2377 JUMP JUMPDEST PUSH2 0xF50 JUMPI PUSH1 0x0 SWAP5 POP POP POP POP POP PUSH2 0x8A5 JUMP JUMPDEST SWAP1 SWAP2 SUB SWAP1 PUSH1 0x1 ADD PUSH2 0xECC JUMP JUMPDEST PUSH1 0x6 DUP1 SLOAD PUSH2 0xF69 SWAP1 PUSH2 0x3A97 JUMP JUMPDEST DUP1 PUSH1 0x1F ADD PUSH1 0x20 DUP1 SWAP2 DIV MUL PUSH1 0x20 ADD PUSH1 0x40 MLOAD SWAP1 DUP2 ADD PUSH1 0x40 MSTORE DUP1 SWAP3 SWAP2 SWAP1 DUP2 DUP2 MSTORE PUSH1 0x20 ADD DUP3 DUP1 SLOAD PUSH2 0xF95 SWAP1 PUSH2 0x3A97 JUMP JUMPDEST DUP1 ISZERO PUSH2 0xFE2 JUMPI DUP1 PUSH1 0x1F LT PUSH2 0xFB7 JUMPI PUSH2 0x100 DUP1 DUP4 SLOAD DIV MUL DUP4 MSTORE SWAP2 PUSH1 0x20 ADD SWAP2 PUSH2 0xFE2 JUMP JUMPDEST DUP3 ADD SWAP2 SWAP1 PUSH1 0x0 MSTORE PUSH1 0x20 PUSH1 0x0 KECCAK256 SWAP1 JUMPDEST DUP2 SLOAD DUP2 MSTORE SWAP1 PUSH1 0x1 ADD SWAP1 PUSH1 0x20 ADD DUP1 DUP4 GT PUSH2 0xFC5 JUMPI DUP3 SWAP1 SUB PUSH1 0x1F AND DUP3 ADD SWAP2 JUMPDEST POP POP POP POP POP DUP2 JUMP JUMPDEST PUSH1 0x7 SLOAD PUSH1 0xFF AND ISZERO PUSH2 0x100D JUMPI PUSH1 0x40 MLOAD PUSH3 0x461BCD PUSH1 0xE5 SHL DUP2 MSTORE PUSH1 0x4 ADD PUSH2 0x52C SWAP1 PUSH2 0x39B9 JUMP JUMPDEST PUSH2 0x1020 DUP7 DUP7 DUP7 DUP7 DUP7 PUSH1 0x0 DUP8 PUSH1 0x0 DUP1 PUSH2 0x19BC JUMP JUMPDEST POP POP POP POP POP POP JUMP JUMPDEST PUSH1 0x60 DUP1 PUSH1 0x60 PUSH1 0x0 DUP1 PUSH1 0x2 DUP7 PUSH1 0x40 MLOAD PUSH2 0x1040 SWAP2 SWAP1 PUSH2 0x3A7B JUMP JUMPDEST SWAP1 DUP2 MSTORE PUSH1 0x20 ADD PUSH1 0x40 MLOAD DUP1 SWAP2 SUB SWAP1 KECCAK256 SWAP1 POP PUSH1 0x0 PUSH1 0x8 DUP3 PUSH1 0x9 ADD SLOAD DUP2 SLOAD DUP2 LT PUSH2 0x1069 JUMPI PUSH2 0x1069 PUSH2 0x3AD1 JUMP JUMPDEST SWAP1 PUSH1 0x0 MSTORE PUSH1 0x20 PUSH1 0x0 KECCAK256 SWAP1 PUSH1 0x4 MUL ADD SWAP1 POP DUP1 PUSH1 0x1 ADD DUP2 PUSH1 0x2 ADD DUP3 PUSH1 0x3 ADD DUP4 PUSH1 0x0 ADD SLOAD DUP4 DUP1 SLOAD DUP1 PUSH1 0x20 MUL PUSH1 0x20 ADD PUSH1 0x40 MLOAD SWAP1 DUP2 ADD PUSH1 0x40 MSTORE DUP1 SWAP3 SWAP2 SWAP1 DUP2 DUP2 MSTORE PUSH1 0x20 ADD PUSH1 0x0 SWAP1 JUMPDEST DUP3 DUP3 LT ISZERO PUSH2 0x1157 JUMPI DUP4 DUP3 SWAP1 PUSH1 0x0 MSTORE PUSH1 0x20 PUSH1 0x0 KECCAK256 ADD DUP1 SLOAD PUSH2 0x10CA SWAP1 PUSH2 0x3A97 JUMP JUMPDEST DUP1 PUSH1 0x1F ADD PUSH1 0x20 DUP1 SWAP2 DIV MUL PUSH1 0x20 ADD PUSH1 0x40 MLOAD SWAP1 DUP2 ADD PUSH1 0x40 MSTORE DUP1 SWAP3 SWAP2 SWAP1 DUP2 DUP2 MSTORE PUSH1 0x20 ADD DUP3 DUP1 SLOAD PUSH2 0x10F6 SWAP1 PUSH2 0x3A97 JUMP JUMPDEST DUP1 ISZERO PUSH2 0x1143 JUMPI DUP1 PUSH1 0x1F LT PUSH2 0x1118 JUMPI PUSH2 0x100 DUP1 DUP4 SLOAD DIV MUL DUP4 MSTORE SWAP2 PUSH1 0x20 ADD SWAP2 PUSH2 0x1143 JUMP JUMPDEST DUP3 ADD SWAP2 SWAP1 PUSH1 0x0 MSTORE PUSH1 0x20 PUSH1 0x0 KECCAK256 SWAP1 JUMPDEST DUP2 SLOAD DUP2 MSTORE SWAP1 PUSH1 0x1 ADD SWAP1 PUSH1 0x20 ADD DUP1 DUP4 GT PUSH2 0x1126 JUMPI DUP3 SWAP1 SUB PUSH1 0x1F AND DUP3 ADD SWAP2 JUMPDEST POP POP POP POP POP DUP2 MSTORE PUSH1 0x20 ADD SWAP1 PUSH1 0x1 ADD SWAP1 PUSH2 0x10AB JUMP JUMPDEST POP POP POP POP SWAP4 POP DUP3 DUP1 SLOAD DUP1 PUSH1 0x20 MUL PUSH1 0x20 ADD PUSH1 0x40 MLOAD SWAP1 DUP2 ADD PUSH1 0x40 MSTORE DUP1 SWAP3 SWAP2 SWAP1 DUP2 DUP2 MSTORE PUSH1 0x20 ADD DUP3 DUP1 SLOAD DUP1 ISZERO PUSH2 0x11D8 JUMPI PUSH1 0x20 MUL DUP3 ADD SWAP2 SWAP1 PUSH1 0x0 MSTORE PUSH1 0x20 PUSH1 0x0 KECCAK256 SWAP1 PUSH1 0x0 SWAP1 JUMPDEST DUP3 DUP3 SWAP1 SLOAD SWAP1 PUSH2 0x100 EXP SWAP1 DIV PUSH1 0xFF AND PUSH1 0x2 DUP2 GT ISZERO PUSH2 0x11B6 JUMPI PUSH2 0x11B6 PUSH2 0x3857 JUMP JUMPDEST DUP2 MSTORE PUSH1 0x20 PUSH1 0x1 SWAP3 DUP4 ADD DUP2 DUP2 DIV SWAP5 DUP6 ADD SWAP5 SWAP1 SWAP4 SUB SWAP1 SWAP3 MUL SWAP2 ADD DUP1 DUP5 GT PUSH2 0x1197 JUMPI SWAP1 POP JUMPDEST POP POP POP POP POP SWAP3 POP DUP2 DUP1 SLOAD DUP1 PUSH1 0x20 MUL PUSH1 0x20 ADD PUSH1 0x40 MLOAD SWAP1 DUP2 ADD PUSH1 0x40 MSTORE DUP1 SWAP3 SWAP2 SWAP1 DUP2 DUP2 MSTORE PUSH1 0x20 ADD PUSH1 0x0 SWAP1 JUMPDEST DUP3 DUP3 LT ISZERO PUSH2 0x12F3 JUMPI DUP4 DUP3 SWAP1 PUSH1 0x0 MSTORE PUSH1 0x20 PUSH1 0x0 KECCAK256 ADD DUP1 SLOAD DUP1 PUSH1 0x20 MUL PUSH1 0x20 ADD PUSH1 0x40 MLOAD SWAP1 DUP2 ADD PUSH1 0x40 MSTORE DUP1 SWAP3 SWAP2 SWAP1 DUP2 DUP2 MSTORE PUSH1 0x20 ADD PUSH1 0x0 SWAP1 JUMPDEST DUP3 DUP3 LT ISZERO PUSH2 0x12E0 JUMPI DUP4 DUP3 SWAP1 PUSH1 0x0 MSTORE PUSH1 0x20 PUSH1 0x0 KECCAK256 ADD DUP1 SLOAD PUSH2 0x1253 SWAP1 PUSH2 0x3A97 JUMP JUMPDEST DUP1 PUSH1 0x1F ADD PUSH1 0x20 DUP1 SWAP2 DIV MUL PUSH1 0x20 ADD PUSH1 0x40 MLOAD SWAP1 DUP2 ADD PUSH1 0x40 MSTORE DUP1 SWAP3 SWAP2 SWAP1 DUP2 DUP2 MSTORE PUSH1 0x20 ADD DUP3 DUP1 SLOAD PUSH2 0x127F SWAP1 PUSH2 0x3A97 JUMP JUMPDEST DUP1 ISZERO PUSH2 0x12CC JUMPI DUP1 PUSH1 0x1F LT PUSH2 0x12A1 JUMPI PUSH2 0x100 DUP1 DUP4 SLOAD DIV MUL DUP4 MSTORE SWAP2 PUSH1 0x20 ADD SWAP2 PUSH2 0x12CC JUMP JUMPDEST DUP3 ADD SWAP2 SWAP1 PUSH1 0x0 MSTORE PUSH1 0x20 PUSH1 0x0 KECCAK256 SWAP1 JUMPDEST DUP2 SLOAD DUP2 MSTORE SWAP1 PUSH1 0x1 ADD SWAP1 PUSH1 0x20 ADD DUP1 DUP4 GT PUSH2 0x12AF JUMPI DUP3 SWAP1 SUB PUSH1 0x1F AND DUP3 ADD SWAP2 JUMPDEST POP POP POP POP POP DUP2 MSTORE PUSH1 0x20 ADD SWAP1 PUSH1 0x1 ADD SWAP1 PUSH2 0x1234 JUMP JUMPDEST POP POP POP POP DUP2 MSTORE PUSH1 0x20 ADD SWAP1 PUSH1 0x1 ADD SWAP1 PUSH2 0x1200 JUMP JUMPDEST POP POP POP POP SWAP2 POP SWAP6 POP SWAP6 POP SWAP6 POP SWAP6 POP POP POP SWAP2 SWAP4 POP SWAP2 SWAP4 JUMP JUMPDEST PUSH1 0x60 DUP1 PUSH1 0x60 PUSH1 0x0 PUSH1 0x8 DUP6 DUP2 SLOAD DUP2 LT PUSH2 0x1324 JUMPI PUSH2 0x1324 PUSH2 0x3AD1 JUMP JUMPDEST SWAP1 PUSH1 0x0 MSTORE PUSH1 0x20 PUSH1 0x0 KECCAK256 SWAP1 PUSH1 0x4 MUL ADD PUSH1 0x1 ADD PUSH1 0x8 DUP7 DUP2 SLOAD DUP2 LT PUSH2 0x1348 JUMPI PUSH2 0x1348 PUSH2 0x3AD1 JUMP JUMPDEST SWAP1 PUSH1 0x0 MSTORE PUSH1 0x20 PUSH1 0x0 KECCAK256 SWAP1 PUSH1 0x4 MUL ADD PUSH1 0x2 ADD PUSH1 0x8 DUP8 DUP2 SLOAD DUP2 LT PUSH2 0x136C JUMPI PUSH2 0x136C PUSH2 0x3AD1 JUMP JUMPDEST SWAP1 PUSH1 0x0 MSTORE PUSH1 0x20 PUSH1 0x0 KECCAK256 SWAP1 PUSH1 0x4 MUL ADD PUSH1 0x3 ADD PUSH1 0x8 DUP9 DUP2 SLOAD DUP2 LT PUSH2 0x1390 JUMPI PUSH2 0x1390 PUSH2 0x3AD1 JUMP JUMPDEST SWAP1 PUSH1 0x0 MSTORE PUSH1 0x20 PUSH1 0x0 KECCAK256 SWAP1 PUSH1 0x4 MUL ADD PUSH1 0x0 ADD SLOAD DUP4 DUP1 SLOAD DUP1 PUSH1 0x20 MUL PUSH1 0x20 ADD PUSH1 0x40 MLOAD SWAP1 DUP2 ADD PUSH1 0x40 MSTORE DUP1 SWAP3 SWAP2 SWAP1 DUP2 DUP2 MSTORE PUSH1 0x20 ADD PUSH1 0x0 SWAP1 JUMPDEST DUP3 DUP3 LT ISZERO PUSH2 0x146F JUMPI DUP4 DUP3 SWAP1 PUSH1 0x0 MSTORE PUSH1 0x20 PUSH1 0x0 KECCAK256 ADD DUP1 SLOAD PUSH2 0x13E2 SWAP1 PUSH2 0x3A97 JUMP JUMPDEST DUP1 PUSH1 0x1F ADD PUSH1 0x20 DUP1 SWAP2 DIV MUL PUSH1 0x20 ADD PUSH1 0x40 MLOAD SWAP1 DUP2 ADD PUSH1 0x40 MSTORE DUP1 SWAP3 SWAP2 SWAP1 DUP2 DUP2 MSTORE PUSH1 0x20 ADD DUP3 DUP1 SLOAD PUSH2 0x140E SWAP1 PUSH2 0x3A97 JUMP JUMPDEST DUP1 ISZERO PUSH2 0x145B JUMPI DUP1 PUSH1 0x1F LT PUSH2 0x1430 JUMPI PUSH2 0x100 DUP1 DUP4 SLOAD DIV MUL DUP4 MSTORE SWAP2 PUSH1 0x20 ADD SWAP2 PUSH2 0x145B JUMP JUMPDEST DUP3 ADD SWAP2 SWAP1 PUSH1 0x0 MSTORE PUSH1 0x20 PUSH1 0x0 KECCAK256 SWAP1 JUMPDEST DUP2 SLOAD DUP2 MSTORE SWAP1 PUSH1 0x1 ADD SWAP1 PUSH1 0x20 ADD DUP1 DUP4 GT PUSH2 0x143E JUMPI DUP3 SWAP1 SUB PUSH1 0x1F AND DUP3 ADD SWAP2 JUMPDEST POP POP POP POP POP DUP2 MSTORE PUSH1 0x20 ADD SWAP1 PUSH1 0x1 ADD SWAP1 PUSH2 0x13C3 JUMP JUMPDEST POP POP POP POP SWAP4 POP DUP3 DUP1 SLOAD DUP1 PUSH1 0x20 MUL PUSH1 0x20 ADD PUSH1 0x40 MLOAD SWAP1 DUP2 ADD PUSH1 0x40 MSTORE DUP1 SWAP3 SWAP2 SWAP1 DUP2 DUP2 MSTORE PUSH1 0x20 ADD DUP3 DUP1 SLOAD DUP1 ISZERO PUSH2 0x14F0 JUMPI PUSH1 0x20 MUL DUP3 ADD SWAP2 SWAP1 PUSH1 0x0 MSTORE PUSH1 0x20 PUSH1 0x0 KECCAK256 SWAP1 PUSH1 0x0 SWAP1 JUMPDEST DUP3 DUP3 SWAP1 SLOAD SWAP1 PUSH2 0x100 EXP SWAP1 DIV PUSH1 0xFF AND PUSH1 0x2 DUP2 GT ISZERO PUSH2 0x14CE JUMPI PUSH2 0x14CE PUSH2 0x3857 JUMP JUMPDEST DUP2 MSTORE PUSH1 0x20 PUSH1 0x1 SWAP3 DUP4 ADD DUP2 DUP2 DIV SWAP5 DUP6 ADD SWAP5 SWAP1 SWAP4 SUB SWAP1 SWAP3 MUL SWAP2 ADD DUP1 DUP5 GT PUSH2 0x14AF JUMPI SWAP1 POP JUMPDEST POP POP POP POP POP SWAP3 POP DUP2 DUP1 SLOAD DUP1 PUSH1 0x20 MUL PUSH1 0x20 ADD PUSH1 0x40 MLOAD SWAP1 DUP2 ADD PUSH1 0x40 MSTORE DUP1 SWAP3 SWAP2 SWAP1 DUP2 DUP2 MSTORE PUSH1 0x20 ADD PUSH1 0x0 SWAP1 JUMPDEST DUP3 DUP3 LT ISZERO PUSH2 0x160B JUMPI DUP4 DUP3 SWAP1 PUSH1 0x0 MSTORE PUSH1 0x20 PUSH1 0x0 KECCAK256 ADD DUP1 SLOAD DUP1 PUSH1 0x20 MUL PUSH1 0x20 ADD PUSH1 0x40 MLOAD SWAP1 DUP2 ADD PUSH1 0x40 MSTORE DUP1 SWAP3 SWAP2 SWAP1 DUP2 DUP2 MSTORE PUSH1 0x20 ADD PUSH1 0x0 SWAP1 JUMPDEST DUP3 DUP3 LT ISZERO PUSH2 0x15F8 JUMPI DUP4 DUP3 SWAP1 PUSH1 0x0 MSTORE PUSH1 0x20 PUSH1 0x0 KECCAK256 ADD DUP1 SLOAD PUSH2 0x156B SWAP1 PUSH2 0x3A97 JUMP JUMPDEST DUP1 PUSH1 0x1F ADD PUSH1 0x20 DUP1 SWAP2 DIV MUL PUSH1 0x20 ADD PUSH1 0x40 MLOAD SWAP1 DUP2 ADD PUSH1 0x40 MSTORE DUP1 SWAP3 SWAP2 SWAP1 DUP2 DUP2 MSTORE PUSH1 0x20 ADD DUP3 DUP1 SLOAD PUSH2 0x1597 SWAP1 PUSH2 0x3A97 JUMP JUMPDEST DUP1 ISZERO PUSH2 0x15E4 JUMPI DUP1 PUSH1 0x1F LT PUSH2 0x15B9 JUMPI PUSH2 0x100 DUP1 DUP4 SLOAD DIV MUL DUP4 MSTORE SWAP2 PUSH1 0x20 ADD SWAP2 PUSH2 0x15E4 JUMP JUMPDEST DUP3 ADD SWAP2 SWAP1 PUSH1 0x0 MSTORE PUSH1 0x20 PUSH1 0x0 KECCAK256 SWAP1 JUMPDEST DUP2 SLOAD DUP2 MSTORE SWAP1 PUSH1 0x1 ADD SWAP1 PUSH1 0x20 ADD DUP1 DUP4 GT PUSH2 0x15C7 JUMPI DUP3 SWAP1 SUB PUSH1 0x1F AND DUP3 ADD SWAP2 JUMPDEST POP POP POP POP POP DUP2 MSTORE PUSH1 0x20 ADD SWAP1 PUSH1 0x1 ADD SWAP1 PUSH2 0x154C JUMP JUMPDEST POP POP POP POP DUP2 MSTORE PUSH1 0x20 ADD SWAP1 PUSH1 0x1 ADD SWAP1 PUSH2 0x1518 JUMP JUMPDEST POP POP POP POP SWAP2 POP SWAP4 POP SWAP4 POP SWAP4 POP SWAP4 POP SWAP2 SWAP4 POP SWAP2 SWAP4 JUMP JUMPDEST PUSH1 0x2 DUP2 PUSH1 0x40 MLOAD PUSH2 0x1630 SWAP2 SWAP1 PUSH2 0x3A7B JUMP JUMPDEST SWAP1 DUP2 MSTORE PUSH1 0x40 MLOAD SWAP1 DUP2 SWAP1 SUB PUSH1 0x20 ADD SWAP1 KECCAK256 SLOAD CALLER PUSH1 0x1 PUSH1 0x1 PUSH1 0xA0 SHL SUB SWAP1 SWAP2 AND EQ PUSH2 0x1699 JUMPI PUSH1 0x40 MLOAD PUSH3 0x461BCD PUSH1 0xE5 SHL DUP2 MSTORE PUSH1 0x20 PUSH1 0x4 DUP3 ADD MSTORE PUSH1 0x1D PUSH1 0x24 DUP3 ADD MSTORE PUSH32 0x4465726573793A204974206973206E6F74207468652073706F6E736F72000000 PUSH1 0x44 DUP3 ADD MSTORE PUSH1 0x64 ADD PUSH2 0x52C JUMP JUMPDEST PUSH1 0x2 DUP2 PUSH1 0x40 MLOAD PUSH2 0x16A9 SWAP2 SWAP1 PUSH2 0x3A7B JUMP JUMPDEST SWAP1 DUP2 MSTORE PUSH1 0x40 MLOAD SWAP1 DUP2 SWAP1 SUB PUSH1 0x20 ADD SWAP1 KECCAK256 PUSH1 0x7 ADD SLOAD PUSH1 0xFF AND ISZERO PUSH2 0x1705 JUMPI PUSH1 0x40 MLOAD PUSH3 0x461BCD PUSH1 0xE5 SHL DUP2 MSTORE PUSH1 0x20 PUSH1 0x4 DUP3 ADD MSTORE PUSH1 0x16 PUSH1 0x24 DUP3 ADD MSTORE PUSH22 0x11195C995CDE4E881C995C5D595CDD0818DB1BDCD959 PUSH1 0x52 SHL PUSH1 0x44 DUP3 ADD MSTORE PUSH1 0x64 ADD PUSH2 0x52C JUMP JUMPDEST PUSH1 0x2 DUP2 PUSH1 0x40 MLOAD PUSH2 0x1715 SWAP2 SWAP1 PUSH2 0x3A7B JUMP JUMPDEST SWAP1 DUP2 MSTORE PUSH1 0x40 MLOAD SWAP1 DUP2 SWAP1 SUB PUSH1 0x20 ADD DUP2 KECCAK256 SLOAD PUSH1 0x1 PUSH1 0x1 PUSH1 0xA0 SHL SUB AND SWAP1 PUSH2 0x8FC SWAP1 PUSH1 0x2 SWAP1 PUSH2 0x1741 SWAP1 DUP6 SWAP1 PUSH2 0x3A7B JUMP JUMPDEST SWAP1 DUP2 MSTORE PUSH1 0x40 MLOAD SWAP1 DUP2 SWAP1 SUB PUSH1 0x20 ADD DUP2 KECCAK256 PUSH1 0x8 ADD SLOAD DUP1 ISZERO SWAP1 SWAP3 MUL SWAP2 SWAP1 PUSH1 0x0 DUP2 DUP2 DUP2 DUP6 DUP9 DUP9 CALL SWAP4 POP POP POP POP ISZERO DUP1 ISZERO PUSH2 0x177A JUMPI RETURNDATASIZE PUSH1 0x0 DUP1 RETURNDATACOPY RETURNDATASIZE PUSH1 0x0 REVERT JUMPDEST POP PUSH1 0x1 PUSH1 0x2 DUP3 PUSH1 0x40 MLOAD PUSH2 0x178D SWAP2 SWAP1 PUSH2 0x3A7B JUMP JUMPDEST SWAP1 DUP2 MSTORE PUSH1 0x40 MLOAD SWAP1 DUP2 SWAP1 SUB PUSH1 0x20 ADD DUP2 KECCAK256 PUSH1 0x7 ADD DUP1 SLOAD SWAP3 ISZERO ISZERO PUSH1 0xFF NOT SWAP1 SWAP4 AND SWAP3 SWAP1 SWAP3 OR SWAP1 SWAP2 SSTORE PUSH1 0x0 SWAP1 PUSH1 0x2 SWAP1 PUSH2 0x17C2 SWAP1 DUP5 SWAP1 PUSH2 0x3A7B JUMP JUMPDEST SWAP1 DUP2 MSTORE PUSH1 0x20 ADD PUSH1 0x40 MLOAD DUP1 SWAP2 SUB SWAP1 KECCAK256 PUSH1 0x8 ADD DUP2 SWAP1 SSTORE POP PUSH32 0xBC5C8CB2024ED254E024E37B09895ECAA07948DD0FD7A08E30B80F559888F2CF DUP2 PUSH1 0x40 MLOAD PUSH2 0x1806 SWAP2 SWAP1 PUSH2 0x34C5 JUMP JUMPDEST PUSH1 0x40 MLOAD DUP1 SWAP2 SUB SWAP1 LOG1 POP JUMP JUMPDEST PUSH2 0x1819 PUSH2 0x21E9 JUMP JUMPDEST PUSH1 0x1 PUSH1 0x1 PUSH1 0xA0 SHL SUB AND PUSH1 0x0 SWAP1 DUP2 MSTORE PUSH1 0x3 PUSH1 0x20 MSTORE PUSH1 0x40 SWAP1 KECCAK256 DUP1 SLOAD PUSH1 0xFF NOT AND SWAP1 SSTORE JUMP JUMPDEST PUSH1 0x60 PUSH1 0x4 DUP1 SLOAD DUP1 PUSH1 0x20 MUL PUSH1 0x20 ADD PUSH1 0x40 MLOAD SWAP1 DUP2 ADD PUSH1 0x40 MSTORE DUP1 SWAP3 SWAP2 SWAP1 DUP2 DUP2 MSTORE PUSH1 0x20 ADD PUSH1 0x0 SWAP1 JUMPDEST DUP3 DUP3 LT ISZERO PUSH2 0x190A JUMPI DUP4 DUP3 SWAP1 PUSH1 0x0 MSTORE PUSH1 0x20 PUSH1 0x0 KECCAK256 ADD DUP1 SLOAD PUSH2 0x187D SWAP1 PUSH2 0x3A97 JUMP JUMPDEST DUP1 PUSH1 0x1F ADD PUSH1 0x20 DUP1 SWAP2 DIV MUL PUSH1 0x20 ADD PUSH1 0x40 MLOAD SWAP1 DUP2 ADD PUSH1 0x40 MSTORE DUP1 SWAP3 SWAP2 SWAP1 DUP2 DUP2 MSTORE PUSH1 0x20 ADD DUP3 DUP1 SLOAD PUSH2 0x18A9 SWAP1 PUSH2 0x3A97 JUMP JUMPDEST DUP1 ISZERO PUSH2 0x18F6 JUMPI DUP1 PUSH1 0x1F LT PUSH2 0x18CB JUMPI PUSH2 0x100 DUP1 DUP4 SLOAD DIV MUL DUP4 MSTORE SWAP2 PUSH1 0x20 ADD SWAP2 PUSH2 0x18F6 JUMP JUMPDEST DUP3 ADD SWAP2 SWAP1 PUSH1 0x0 MSTORE PUSH1 0x20 PUSH1 0x0 KECCAK256 SWAP1 JUMPDEST DUP2 SLOAD DUP2 MSTORE SWAP1 PUSH1 0x1 ADD SWAP1 PUSH1 0x20 ADD DUP1 DUP4 GT PUSH2 0x18D9 JUMPI DUP3 SWAP1 SUB PUSH1 0x1F AND DUP3 ADD SWAP2 JUMPDEST POP POP POP POP POP DUP2 MSTORE PUSH1 0x20 ADD SWAP1 PUSH1 0x1 ADD SWAP1 PUSH2 0x185E JUMP JUMPDEST POP POP POP POP SWAP1 POP SWAP1 JUMP JUMPDEST PUSH1 0x0 PUSH2 0x191D PUSH2 0x2325 JUMP JUMPDEST PUSH2 0x1927 DUP3 CALLVALUE PUSH2 0x236E JUMP JUMPDEST SWAP1 POP JUMPDEST SWAP2 SWAP1 POP JUMP JUMPDEST PUSH1 0x0 PUSH2 0x1939 PUSH2 0x2325 JUMP JUMPDEST PUSH2 0x1927 DUP3 CALLVALUE PUSH2 0x2377 JUMP JUMPDEST PUSH2 0x194B PUSH2 0x21E9 JUMP JUMPDEST PUSH1 0x1 PUSH1 0x1 PUSH1 0xA0 SHL SUB DUP2 AND PUSH2 0x19B0 JUMPI PUSH1 0x40 MLOAD PUSH3 0x461BCD PUSH1 0xE5 SHL DUP2 MSTORE PUSH1 0x20 PUSH1 0x4 DUP3 ADD MSTORE PUSH1 0x26 PUSH1 0x24 DUP3 ADD MSTORE PUSH32 0x4F776E61626C653A206E6577206F776E657220697320746865207A65726F2061 PUSH1 0x44 DUP3 ADD MSTORE PUSH6 0x646472657373 PUSH1 0xD0 SHL PUSH1 0x64 DUP3 ADD MSTORE PUSH1 0x84 ADD PUSH2 0x52C JUMP JUMPDEST PUSH2 0x19B9 DUP2 PUSH2 0x22D5 JUMP JUMPDEST POP JUMP JUMPDEST PUSH1 0x0 DUP9 MLOAD GT PUSH2 0x1A0D JUMPI PUSH1 0x40 MLOAD PUSH3 0x461BCD PUSH1 0xE5 SHL DUP2 MSTORE PUSH1 0x20 PUSH1 0x4 DUP3 ADD DUP2 SWAP1 MSTORE PUSH1 0x24 DUP3 ADD MSTORE PUSH32 0x4465726573793A205265766965776572732063616E6E6F74206265206E756C6C PUSH1 0x44 DUP3 ADD MSTORE PUSH1 0x64 ADD PUSH2 0x52C JUMP JUMPDEST PUSH1 0x0 DUP8 MLOAD GT PUSH2 0x1A6A JUMPI PUSH1 0x40 MLOAD PUSH3 0x461BCD PUSH1 0xE5 SHL DUP2 MSTORE PUSH1 0x20 PUSH1 0x4 DUP3 ADD MSTORE PUSH1 0x24 DUP1 DUP3 ADD MSTORE PUSH32 0x4465726573793A20487970657263657274204944732063616E6E6F7420626520 PUSH1 0x44 DUP3 ADD MSTORE PUSH4 0x1B9D5B1B PUSH1 0xE2 SHL PUSH1 0x64 DUP3 ADD MSTORE PUSH1 0x84 ADD PUSH2 0x52C JUMP JUMPDEST PUSH1 0x0 DUP7 MLOAD GT PUSH2 0x1AD1 JUMPI PUSH1 0x40 MLOAD PUSH3 0x461BCD PUSH1 0xE5 SHL DUP2 MSTORE PUSH1 0x20 PUSH1 0x4 DUP3 ADD MSTORE PUSH1 0x2D PUSH1 0x24 DUP3 ADD MSTORE PUSH32 0x4465726573793A20487970657263657274732049504653206861736865732063 PUSH1 0x44 DUP3 ADD MSTORE PUSH13 0x185B9B9BDD081899481B9D5B1B PUSH1 0x9A SHL PUSH1 0x64 DUP3 ADD MSTORE PUSH1 0x84 ADD PUSH2 0x52C JUMP JUMPDEST DUP6 MLOAD DUP8 MLOAD EQ PUSH2 0x1B5D JUMPI PUSH1 0x40 MLOAD PUSH3 0x461BCD PUSH1 0xE5 SHL DUP2 MSTORE PUSH1 0x20 PUSH1 0x4 DUP3 ADD MSTORE PUSH1 0x4C PUSH1 0x24 DUP3 ADD MSTORE PUSH32 0x4465726573793A2048797065726365727449447320616E642048797065726365 PUSH1 0x44 DUP3 ADD MSTORE PUSH32 0x727449504653486173686573206172726179206D757374206861766520746865 PUSH1 0x64 DUP3 ADD MSTORE PUSH12 0x40E6C2DACA40D8CADCCEE8D PUSH1 0xA3 SHL PUSH1 0x84 DUP3 ADD MSTORE PUSH1 0xA4 ADD PUSH2 0x52C JUMP JUMPDEST PUSH1 0x8 SLOAD PUSH2 0x1B6C SWAP1 PUSH1 0x1 SWAP1 PUSH2 0x3A0E JUMP JUMPDEST DUP4 GT ISZERO PUSH2 0x1BBB JUMPI PUSH1 0x40 MLOAD PUSH3 0x461BCD PUSH1 0xE5 SHL DUP2 MSTORE PUSH1 0x20 PUSH1 0x4 DUP3 ADD MSTORE PUSH1 0x1F PUSH1 0x24 DUP3 ADD MSTORE PUSH32 0x4465726573793A20526576696577466F726D496E64657820696E76616C696400 PUSH1 0x44 DUP3 ADD MSTORE PUSH1 0x64 ADD PUSH2 0x52C JUMP JUMPDEST PUSH1 0x0 PUSH1 0x1 PUSH1 0x1 PUSH1 0xA0 SHL SUB AND PUSH1 0x2 DUP11 PUSH1 0x40 MLOAD PUSH2 0x1BD6 SWAP2 SWAP1 PUSH2 0x3A7B JUMP JUMPDEST SWAP1 DUP2 MSTORE PUSH1 0x40 MLOAD SWAP1 DUP2 SWAP1 SUB PUSH1 0x20 ADD SWAP1 KECCAK256 SLOAD PUSH1 0x1 PUSH1 0x1 PUSH1 0xA0 SHL SUB AND EQ PUSH2 0x1C3C JUMPI PUSH1 0x40 MLOAD PUSH3 0x461BCD PUSH1 0xE5 SHL DUP2 MSTORE PUSH1 0x20 PUSH1 0x4 DUP3 ADD MSTORE PUSH1 0x17 PUSH1 0x24 DUP3 ADD MSTORE PUSH32 0x4465726573793A204E616D65206475706C696361746564000000000000000000 PUSH1 0x44 DUP3 ADD MSTORE PUSH1 0x64 ADD PUSH2 0x52C JUMP JUMPDEST PUSH1 0x1 PUSH1 0x1 PUSH1 0xA0 SHL SUB DUP3 AND PUSH1 0x0 SWAP1 DUP2 MSTORE PUSH1 0x3 PUSH1 0x20 MSTORE PUSH1 0x40 SWAP1 KECCAK256 SLOAD PUSH1 0xFF AND PUSH2 0x1CA4 JUMPI PUSH1 0x40 MLOAD PUSH3 0x461BCD PUSH1 0xE5 SHL DUP2 MSTORE PUSH1 0x20 PUSH1 0x4 DUP3 ADD DUP2 SWAP1 MSTORE PUSH1 0x24 DUP3 ADD MSTORE PUSH32 0x4465726573793A20546F6B656E206973206E6F742077686974656C6973746564 PUSH1 0x44 DUP3 ADD MSTORE PUSH1 0x64 ADD PUSH2 0x52C JUMP JUMPDEST PUSH1 0x0 DUP2 ISZERO PUSH2 0x1EDF JUMPI PUSH1 0x0 DUP6 GT PUSH2 0x1D30 JUMPI PUSH1 0x40 MLOAD PUSH3 0x461BCD PUSH1 0xE5 SHL DUP2 MSTORE PUSH1 0x20 PUSH1 0x4 DUP3 ADD MSTORE PUSH1 0x45 PUSH1 0x24 DUP3 ADD MSTORE PUSH32 0x4465726573793A20726577617264506572526576696577206D75737420626520 PUSH1 0x44 DUP3 ADD MSTORE PUSH32 0x67726561746572207468616E207A65726F20666F722070617961626C65207265 PUSH1 0x64 DUP3 ADD MSTORE PUSH5 0x1C5D595CDD PUSH1 0xDA SHL PUSH1 0x84 DUP3 ADD MSTORE PUSH1 0xA4 ADD PUSH2 0x52C JUMP JUMPDEST PUSH1 0x1 PUSH1 0x1 PUSH1 0xA0 SHL SUB DUP4 AND PUSH2 0x1DAD JUMPI DUP5 DUP9 MLOAD DUP11 MLOAD PUSH2 0x1D4D SWAP2 SWAP1 PUSH2 0x3AFE JUMP JUMPDEST PUSH2 0x1D57 SWAP2 SWAP1 PUSH2 0x3AFE JUMP JUMPDEST CALLVALUE LT ISZERO PUSH2 0x1DA6 JUMPI PUSH1 0x40 MLOAD PUSH3 0x461BCD PUSH1 0xE5 SHL DUP2 MSTORE PUSH1 0x20 PUSH1 0x4 DUP3 ADD MSTORE PUSH1 0x19 PUSH1 0x24 DUP3 ADD MSTORE PUSH32 0x4465726573793A206D73672E76616C756520696E76616C696400000000000000 PUSH1 0x44 DUP3 ADD MSTORE PUSH1 0x64 ADD PUSH2 0x52C JUMP JUMPDEST POP CALLVALUE PUSH2 0x1F53 JUMP JUMPDEST CALLVALUE ISZERO PUSH2 0x1DFB JUMPI PUSH1 0x40 MLOAD PUSH3 0x461BCD PUSH1 0xE5 SHL DUP2 MSTORE PUSH1 0x20 PUSH1 0x4 DUP3 ADD MSTORE PUSH1 0x1C PUSH1 0x24 DUP3 ADD MSTORE PUSH32 0x4465726573793A206D73672E76616C756520697320696E76616C696400000000 PUSH1 0x44 DUP3 ADD MSTORE PUSH1 0x64 ADD PUSH2 0x52C JUMP JUMPDEST DUP5 DUP9 MLOAD DUP11 MLOAD PUSH2 0x1E0A SWAP2 SWAP1 PUSH2 0x3AFE JUMP JUMPDEST PUSH2 0x1E14 SWAP2 SWAP1 PUSH2 0x3AFE JUMP JUMPDEST PUSH1 0x40 MLOAD PUSH4 0x23B872DD PUSH1 0xE0 SHL DUP2 MSTORE CALLER PUSH1 0x4 DUP3 ADD MSTORE ADDRESS PUSH1 0x24 DUP3 ADD MSTORE PUSH1 0x44 DUP2 ADD DUP3 SWAP1 MSTORE SWAP1 SWAP2 POP PUSH1 0x1 PUSH1 0x1 PUSH1 0xA0 SHL SUB DUP5 AND SWAP1 PUSH4 0x23B872DD SWAP1 PUSH1 0x64 ADD PUSH1 0x20 PUSH1 0x40 MLOAD DUP1 DUP4 SUB DUP2 PUSH1 0x0 DUP8 GAS CALL ISZERO DUP1 ISZERO PUSH2 0x1E6A JUMPI RETURNDATASIZE PUSH1 0x0 DUP1 RETURNDATACOPY RETURNDATASIZE PUSH1 0x0 REVERT JUMPDEST POP POP POP POP PUSH1 0x40 MLOAD RETURNDATASIZE PUSH1 0x1F NOT PUSH1 0x1F DUP3 ADD AND DUP3 ADD DUP1 PUSH1 0x40 MSTORE POP DUP2 ADD SWAP1 PUSH2 0x1E8E SWAP2 SWAP1 PUSH2 0x3B23 JUMP JUMPDEST PUSH2 0x1EDA JUMPI PUSH1 0x40 MLOAD PUSH3 0x461BCD PUSH1 0xE5 SHL DUP2 MSTORE PUSH1 0x20 PUSH1 0x4 DUP3 ADD MSTORE PUSH1 0x1D PUSH1 0x24 DUP3 ADD MSTORE PUSH32 0x4465726573793A20546F6B656E207472616E73666572206661696C6564000000 PUSH1 0x44 DUP3 ADD MSTORE PUSH1 0x64 ADD PUSH2 0x52C JUMP JUMPDEST PUSH2 0x1F53 JUMP JUMPDEST DUP5 ISZERO PUSH2 0x1F53 JUMPI PUSH1 0x40 MLOAD PUSH3 0x461BCD PUSH1 0xE5 SHL DUP2 MSTORE PUSH1 0x20 PUSH1 0x4 DUP3 ADD MSTORE PUSH1 0x3C PUSH1 0x24 DUP3 ADD MSTORE PUSH32 0x4465726573793A20726577617264506572526576696577206D75737420626520 PUSH1 0x44 DUP3 ADD MSTORE PUSH32 0x7A65726F20666F72206E6F6E2D70617961626C65207265717565737400000000 PUSH1 0x64 DUP3 ADD MSTORE PUSH1 0x84 ADD PUSH2 0x52C JUMP JUMPDEST CALLER PUSH1 0x2 DUP12 PUSH1 0x40 MLOAD PUSH2 0x1F64 SWAP2 SWAP1 PUSH2 0x3A7B JUMP JUMPDEST SWAP1 DUP2 MSTORE PUSH1 0x40 MLOAD SWAP1 DUP2 SWAP1 SUB PUSH1 0x20 ADD DUP2 KECCAK256 DUP1 SLOAD PUSH1 0x1 PUSH1 0x1 PUSH1 0xA0 SHL SUB SWAP4 SWAP1 SWAP4 AND PUSH1 0x1 PUSH1 0x1 PUSH1 0xA0 SHL SUB NOT SWAP1 SWAP4 AND SWAP3 SWAP1 SWAP3 OR SWAP1 SWAP2 SSTORE DUP10 SWAP1 PUSH1 0x2 SWAP1 PUSH2 0x1FA4 SWAP1 DUP14 SWAP1 PUSH2 0x3A7B JUMP JUMPDEST SWAP1 DUP2 MSTORE PUSH1 0x20 ADD PUSH1 0x40 MLOAD DUP1 SWAP2 SUB SWAP1 KECCAK256 PUSH1 0x1 ADD SWAP1 DUP1 MLOAD SWAP1 PUSH1 0x20 ADD SWAP1 PUSH2 0x1FC8 SWAP3 SWAP2 SWAP1 PUSH2 0x2EA2 JUMP JUMPDEST POP DUP8 PUSH1 0x2 DUP12 PUSH1 0x40 MLOAD PUSH2 0x1FDA SWAP2 SWAP1 PUSH2 0x3A7B JUMP JUMPDEST SWAP1 DUP2 MSTORE PUSH1 0x20 ADD PUSH1 0x40 MLOAD DUP1 SWAP2 SUB SWAP1 KECCAK256 PUSH1 0x2 ADD SWAP1 DUP1 MLOAD SWAP1 PUSH1 0x20 ADD SWAP1 PUSH2 0x1FFE SWAP3 SWAP2 SWAP1 PUSH2 0x2EF7 JUMP JUMPDEST POP DUP7 PUSH1 0x2 DUP12 PUSH1 0x40 MLOAD PUSH2 0x2010 SWAP2 SWAP1 PUSH2 0x3A7B JUMP JUMPDEST SWAP1 DUP2 MSTORE PUSH1 0x20 ADD PUSH1 0x40 MLOAD DUP1 SWAP2 SUB SWAP1 KECCAK256 PUSH1 0x3 ADD SWAP1 DUP1 MLOAD SWAP1 PUSH1 0x20 ADD SWAP1 PUSH2 0x2034 SWAP3 SWAP2 SWAP1 PUSH2 0x2D43 JUMP JUMPDEST POP DUP6 PUSH1 0x2 DUP12 PUSH1 0x40 MLOAD PUSH2 0x2046 SWAP2 SWAP1 PUSH2 0x3A7B JUMP JUMPDEST SWAP1 DUP2 MSTORE PUSH1 0x20 ADD PUSH1 0x40 MLOAD DUP1 SWAP2 SUB SWAP1 KECCAK256 PUSH1 0x4 ADD SWAP1 DUP2 PUSH2 0x2063 SWAP2 SWAP1 PUSH2 0x3B8B JUMP JUMPDEST POP DUP2 PUSH2 0x2070 JUMPI PUSH1 0x0 PUSH2 0x2072 JUMP JUMPDEST DUP5 JUMPDEST PUSH1 0x2 DUP12 PUSH1 0x40 MLOAD PUSH2 0x2082 SWAP2 SWAP1 PUSH2 0x3A7B JUMP JUMPDEST SWAP1 DUP2 MSTORE PUSH1 0x20 ADD PUSH1 0x40 MLOAD DUP1 SWAP2 SUB SWAP1 KECCAK256 PUSH1 0x5 ADD DUP2 SWAP1 SSTORE POP PUSH1 0x0 PUSH1 0x2 DUP12 PUSH1 0x40 MLOAD PUSH2 0x20A9 SWAP2 SWAP1 PUSH2 0x3A7B JUMP JUMPDEST SWAP1 DUP2 MSTORE PUSH1 0x40 MLOAD SWAP1 DUP2 SWAP1 SUB PUSH1 0x20 ADD DUP2 KECCAK256 PUSH1 0x7 ADD DUP1 SLOAD SWAP3 ISZERO ISZERO PUSH1 0xFF NOT SWAP1 SWAP4 AND SWAP3 SWAP1 SWAP3 OR SWAP1 SWAP2 SSTORE DUP4 SWAP1 PUSH1 0x2 SWAP1 PUSH2 0x20DD SWAP1 DUP14 SWAP1 PUSH2 0x3A7B JUMP JUMPDEST SWAP1 DUP2 MSTORE PUSH1 0x20 ADD PUSH1 0x40 MLOAD DUP1 SWAP2 SUB SWAP1 KECCAK256 PUSH1 0x7 ADD PUSH1 0x1 PUSH2 0x100 EXP DUP2 SLOAD DUP2 PUSH1 0x1 PUSH1 0x1 PUSH1 0xA0 SHL SUB MUL NOT AND SWAP1 DUP4 PUSH1 0x1 PUSH1 0x1 PUSH1 0xA0 SHL SUB AND MUL OR SWAP1 SSTORE POP DUP2 PUSH2 0x211E JUMPI PUSH1 0x0 PUSH2 0x2120 JUMP JUMPDEST DUP1 JUMPDEST PUSH1 0x2 DUP12 PUSH1 0x40 MLOAD PUSH2 0x2130 SWAP2 SWAP1 PUSH2 0x3A7B JUMP JUMPDEST SWAP1 DUP2 MSTORE PUSH1 0x20 ADD PUSH1 0x40 MLOAD DUP1 SWAP2 SUB SWAP1 KECCAK256 PUSH1 0x8 ADD DUP2 SWAP1 SSTORE POP DUP4 PUSH1 0x2 DUP12 PUSH1 0x40 MLOAD PUSH2 0x2156 SWAP2 SWAP1 PUSH2 0x3A7B JUMP JUMPDEST SWAP1 DUP2 MSTORE PUSH1 0x40 MLOAD SWAP1 DUP2 SWAP1 SUB PUSH1 0x20 ADD SWAP1 KECCAK256 PUSH1 0x9 ADD SSTORE PUSH1 0x4 DUP1 SLOAD PUSH1 0x1 DUP2 ADD DUP3 SSTORE PUSH1 0x0 SWAP2 SWAP1 SWAP2 MSTORE PUSH32 0x8A35ACFBC15FF81A39AE7D344FD709F28E8600B4AA8C65C6B64BFE7FE36BD19B ADD PUSH2 0x21A5 DUP12 DUP3 PUSH2 0x3B8B JUMP JUMPDEST POP PUSH32 0x448FEABBF5BB385EB3EA2CB16D90B1CB3B4C8936E399CF7A10E7B8946EEC667 DUP11 PUSH1 0x40 MLOAD PUSH2 0x21D5 SWAP2 SWAP1 PUSH2 0x34C5 JUMP JUMPDEST PUSH1 0x40 MLOAD DUP1 SWAP2 SUB SWAP1 LOG1 POP POP POP POP POP POP POP POP POP POP JUMP JUMPDEST PUSH1 0x0 SLOAD PUSH1 0x1 PUSH1 0x1 PUSH1 0xA0 SHL SUB AND CALLER EQ PUSH2 0x9A2 JUMPI PUSH1 0x40 MLOAD PUSH3 0x461BCD PUSH1 0xE5 SHL DUP2 MSTORE PUSH1 0x20 PUSH1 0x4 DUP3 ADD DUP2 SWAP1 MSTORE PUSH1 0x24 DUP3 ADD MSTORE PUSH32 0x4F776E61626C653A2063616C6C6572206973206E6F7420746865206F776E6572 PUSH1 0x44 DUP3 ADD MSTORE PUSH1 0x64 ADD PUSH2 0x52C JUMP JUMPDEST PUSH1 0x60 PUSH1 0x0 PUSH2 0x2250 DUP4 PUSH2 0x2797 JUMP JUMPDEST PUSH1 0x1 ADD SWAP1 POP PUSH1 0x0 DUP2 PUSH1 0x1 PUSH1 0x1 PUSH1 0x40 SHL SUB DUP2 GT ISZERO PUSH2 0x226F JUMPI PUSH2 0x226F PUSH2 0x2FD9 JUMP JUMPDEST PUSH1 0x40 MLOAD SWAP1 DUP1 DUP3 MSTORE DUP1 PUSH1 0x1F ADD PUSH1 0x1F NOT AND PUSH1 0x20 ADD DUP3 ADD PUSH1 0x40 MSTORE DUP1 ISZERO PUSH2 0x2299 JUMPI PUSH1 0x20 DUP3 ADD DUP2 DUP1 CALLDATASIZE DUP4 CALLDATACOPY ADD SWAP1 POP JUMPDEST POP SWAP1 POP DUP2 DUP2 ADD PUSH1 0x20 ADD JUMPDEST PUSH1 0x0 NOT ADD PUSH16 0x181899199A1A9B1B9C1CB0B131B232B3 PUSH1 0x81 SHL PUSH1 0xA DUP7 MOD BYTE DUP2 MSTORE8 PUSH1 0xA DUP6 DIV SWAP5 POP DUP5 PUSH2 0x22A3 JUMPI POP SWAP4 SWAP3 POP POP POP JUMP JUMPDEST PUSH1 0x0 DUP1 SLOAD PUSH1 0x1 PUSH1 0x1 PUSH1 0xA0 SHL SUB DUP4 DUP2 AND PUSH1 0x1 PUSH1 0x1 PUSH1 0xA0 SHL SUB NOT DUP4 AND DUP2 OR DUP5 SSTORE PUSH1 0x40 MLOAD SWAP2 SWAP1 SWAP3 AND SWAP3 DUP4 SWAP2 PUSH32 0x8BE0079C531659141344CD1FD0A4F28419497F9722A3DAAFE3B4186F6B6457E0 SWAP2 SWAP1 LOG3 POP POP JUMP JUMPDEST CALLER PUSH1 0x1 PUSH1 0x1 PUSH1 0xA0 SHL SUB PUSH32 0x0 AND EQ PUSH2 0x9A2 JUMPI PUSH1 0x40 MLOAD PUSH4 0x4CA88867 PUSH1 0xE0 SHL DUP2 MSTORE PUSH1 0x4 ADD PUSH1 0x40 MLOAD DUP1 SWAP2 SUB SWAP1 REVERT JUMPDEST PUSH1 0x1 JUMPDEST SWAP3 SWAP2 POP POP JUMP JUMPDEST PUSH1 0x7 SLOAD PUSH1 0x0 SWAP1 PUSH1 0xFF AND ISZERO PUSH2 0x239D JUMPI PUSH1 0x40 MLOAD PUSH3 0x461BCD PUSH1 0xE5 SHL DUP2 MSTORE PUSH1 0x4 ADD PUSH2 0x52C SWAP1 PUSH2 0x39B9 JUMP JUMPDEST PUSH1 0x0 DUP1 DUP1 PUSH2 0x23AF PUSH2 0x120 DUP8 ADD DUP8 PUSH2 0x3C4A JUMP JUMPDEST DUP2 ADD SWAP1 PUSH2 0x23BC SWAP2 SWAP1 PUSH2 0x3C90 JUMP JUMPDEST POP SWAP3 POP SWAP3 POP SWAP3 POP PUSH1 0x0 PUSH1 0x2 DUP5 PUSH1 0x40 MLOAD PUSH2 0x23D5 SWAP2 SWAP1 PUSH2 0x3A7B JUMP JUMPDEST SWAP1 DUP2 MSTORE PUSH1 0x20 ADD PUSH1 0x40 MLOAD DUP1 SWAP2 SUB SWAP1 KECCAK256 SWAP1 POP PUSH1 0x0 PUSH1 0x8 DUP3 PUSH1 0x9 ADD SLOAD DUP2 SLOAD DUP2 LT PUSH2 0x23FE JUMPI PUSH2 0x23FE PUSH2 0x3AD1 JUMP JUMPDEST PUSH1 0x0 SWAP2 DUP3 MSTORE PUSH1 0x20 DUP3 KECCAK256 PUSH1 0x4 SWAP1 SWAP2 MUL ADD SWAP2 POP PUSH2 0x2420 PUSH2 0x100 DUP11 ADD PUSH1 0xE0 DUP12 ADD PUSH2 0x34DF JUMP JUMPDEST PUSH1 0x7 DUP5 ADD SLOAD SWAP1 SWAP2 POP DUP10 CALLDATALOAD SWAP1 PUSH1 0x0 SWAP1 PUSH1 0xFF AND ISZERO DUP1 ISZERO PUSH2 0x2495 JUMPI POP PUSH2 0x2495 DUP6 PUSH1 0x2 ADD DUP1 SLOAD DUP1 PUSH1 0x20 MUL PUSH1 0x20 ADD PUSH1 0x40 MLOAD SWAP1 DUP2 ADD PUSH1 0x40 MSTORE DUP1 SWAP3 SWAP2 SWAP1 DUP2 DUP2 MSTORE PUSH1 0x20 ADD DUP3 DUP1 SLOAD DUP1 ISZERO PUSH2 0x248A JUMPI PUSH1 0x20 MUL DUP3 ADD SWAP2 SWAP1 PUSH1 0x0 MSTORE PUSH1 0x20 PUSH1 0x0 KECCAK256 SWAP1 JUMPDEST DUP2 SLOAD DUP2 MSTORE PUSH1 0x20 ADD SWAP1 PUSH1 0x1 ADD SWAP1 DUP1 DUP4 GT PUSH2 0x2476 JUMPI JUMPDEST POP POP POP POP POP DUP9 PUSH2 0x286F JUMP JUMPDEST DUP1 ISZERO PUSH2 0x24A5 JUMPI POP DUP6 MLOAD PUSH1 0x1 DUP6 ADD SLOAD EQ JUMPDEST DUP1 ISZERO PUSH2 0x24B6 JUMPI POP PUSH2 0x24B6 DUP4 DUP10 PUSH2 0x28C2 JUMP JUMPDEST DUP1 ISZERO PUSH2 0x24C8 JUMPI POP PUSH2 0x24C8 DUP4 DUP10 DUP10 PUSH2 0x2966 JUMP JUMPDEST DUP1 ISZERO PUSH2 0x24D9 JUMPI POP PUSH2 0x24D9 DUP5 DUP8 PUSH2 0x2A60 JUMP JUMPDEST SWAP1 POP DUP1 ISZERO PUSH2 0x2789 JUMPI PUSH1 0x40 DUP1 MLOAD PUSH1 0x60 DUP2 ADD DUP3 MSTORE PUSH1 0x1 PUSH1 0x1 PUSH1 0xA0 SHL SUB DUP6 DUP2 AND DUP3 MSTORE PUSH1 0x20 DUP1 DUP4 ADD DUP12 DUP2 MSTORE SWAP4 DUP4 ADD DUP7 DUP2 MSTORE PUSH1 0x6 DUP11 ADD DUP1 SLOAD PUSH1 0x1 DUP1 DUP3 ADD DUP4 SSTORE PUSH1 0x0 SWAP3 DUP4 MSTORE SWAP4 SWAP1 SWAP2 KECCAK256 SWAP5 MLOAD PUSH1 0x3 SWAP1 SWAP2 MUL SWAP1 SWAP5 ADD DUP1 SLOAD PUSH1 0x1 PUSH1 0x1 PUSH1 0xA0 SHL SUB NOT AND SWAP5 SWAP1 SWAP4 AND SWAP4 SWAP1 SWAP4 OR DUP3 SSTORE SWAP3 MLOAD SWAP3 DUP2 ADD SWAP3 SWAP1 SWAP3 SSTORE MLOAD PUSH1 0x2 SWAP1 SWAP2 ADD SSTORE PUSH1 0x5 DUP6 ADD SLOAD ISZERO PUSH2 0x2690 JUMPI DUP5 PUSH1 0x5 ADD SLOAD DUP6 PUSH1 0x8 ADD PUSH1 0x0 DUP3 DUP3 SLOAD PUSH2 0x256E SWAP2 SWAP1 PUSH2 0x3A0E JUMP JUMPDEST SWAP1 SWAP2 SSTORE POP POP PUSH1 0x7 DUP6 ADD SLOAD PUSH2 0x100 SWAP1 DIV PUSH1 0x1 PUSH1 0x1 PUSH1 0xA0 SHL SUB AND PUSH2 0x25C9 JUMPI PUSH1 0x5 DUP6 ADD SLOAD PUSH1 0x40 MLOAD PUSH1 0x1 PUSH1 0x1 PUSH1 0xA0 SHL SUB DUP6 AND SWAP2 DUP1 ISZERO PUSH2 0x8FC MUL SWAP2 PUSH1 0x0 DUP2 DUP2 DUP2 DUP6 DUP9 DUP9 CALL SWAP4 POP POP POP POP ISZERO DUP1 ISZERO PUSH2 0x25C3 JUMPI RETURNDATASIZE PUSH1 0x0 DUP1 RETURNDATACOPY RETURNDATASIZE PUSH1 0x0 REVERT JUMPDEST POP PUSH2 0x2690 JUMP JUMPDEST PUSH1 0x7 DUP6 ADD SLOAD PUSH1 0x5 DUP7 ADD SLOAD PUSH1 0x40 MLOAD PUSH4 0xA9059CBB PUSH1 0xE0 SHL DUP2 MSTORE PUSH1 0x1 PUSH1 0x1 PUSH1 0xA0 SHL SUB DUP7 DUP2 AND PUSH1 0x4 DUP4 ADD MSTORE PUSH1 0x24 DUP3 ADD SWAP3 SWAP1 SWAP3 MSTORE PUSH2 0x100 SWAP1 SWAP3 DIV AND SWAP1 PUSH4 0xA9059CBB SWAP1 PUSH1 0x44 ADD PUSH1 0x20 PUSH1 0x40 MLOAD DUP1 DUP4 SUB DUP2 PUSH1 0x0 DUP8 GAS CALL ISZERO DUP1 ISZERO PUSH2 0x2628 JUMPI RETURNDATASIZE PUSH1 0x0 DUP1 RETURNDATACOPY RETURNDATASIZE PUSH1 0x0 REVERT JUMPDEST POP POP POP POP PUSH1 0x40 MLOAD RETURNDATASIZE PUSH1 0x1F NOT PUSH1 0x1F DUP3 ADD AND DUP3 ADD DUP1 PUSH1 0x40 MSTORE POP DUP2 ADD SWAP1 PUSH2 0x264C SWAP2 SWAP1 PUSH2 0x3B23 JUMP JUMPDEST PUSH2 0x2690 JUMPI PUSH1 0x40 MLOAD PUSH3 0x461BCD PUSH1 0xE5 SHL DUP2 MSTORE PUSH1 0x20 PUSH1 0x4 DUP3 ADD MSTORE PUSH1 0x15 PUSH1 0x24 DUP3 ADD MSTORE PUSH21 0x151BDAD95B881D1C985B9CD9995C8819985A5B1959 PUSH1 0x5A SHL PUSH1 0x44 DUP3 ADD MSTORE PUSH1 0x64 ADD PUSH2 0x52C JUMP JUMPDEST PUSH1 0x1 SLOAD PUSH1 0x1 PUSH1 0x1 PUSH1 0xA0 SHL SUB AND ISZERO PUSH2 0x2751 JUMPI PUSH1 0x1 SLOAD PUSH1 0x40 MLOAD PUSH4 0xBB69AB33 PUSH1 0xE0 SHL DUP2 MSTORE PUSH1 0x1 PUSH1 0x1 PUSH1 0xA0 SHL SUB SWAP1 SWAP2 AND SWAP1 PUSH4 0xBB69AB33 SWAP1 PUSH2 0x26D3 SWAP1 DUP15 SWAP1 DUP13 SWAP1 PUSH1 0x4 ADD PUSH2 0x3DA5 JUMP JUMPDEST PUSH1 0x20 PUSH1 0x40 MLOAD DUP1 DUP4 SUB DUP2 PUSH1 0x0 DUP8 GAS CALL ISZERO DUP1 ISZERO PUSH2 0x26F2 JUMPI RETURNDATASIZE PUSH1 0x0 DUP1 RETURNDATACOPY RETURNDATASIZE PUSH1 0x0 REVERT JUMPDEST POP POP POP POP PUSH1 0x40 MLOAD RETURNDATASIZE PUSH1 0x1F NOT PUSH1 0x1F DUP3 ADD AND DUP3 ADD DUP1 PUSH1 0x40 MSTORE POP DUP2 ADD SWAP1 PUSH2 0x2716 SWAP2 SWAP1 PUSH2 0x3B23 JUMP JUMPDEST POP PUSH32 0x253A8677ADAEC417DAE20224E9F7EB1182AED5A01B1938114CB310CD5C5D954D DUP12 DUP10 PUSH1 0x40 MLOAD PUSH2 0x2748 SWAP3 SWAP2 SWAP1 PUSH2 0x3DA5 JUMP JUMPDEST PUSH1 0x40 MLOAD DUP1 SWAP2 SUB SWAP1 LOG1 JUMPDEST PUSH32 0x4D6DD501DF538F815F442947C933FC2F545525E75F909B918A6D0701ACC7904C DUP9 PUSH1 0x40 MLOAD PUSH2 0x2780 SWAP2 SWAP1 PUSH2 0x34C5 JUMP JUMPDEST PUSH1 0x40 MLOAD DUP1 SWAP2 SUB SWAP1 LOG1 JUMPDEST SWAP11 SWAP10 POP POP POP POP POP POP POP POP POP POP JUMP JUMPDEST PUSH1 0x0 DUP1 PUSH19 0x184F03E93FF9F4DAA797ED6E38ED64BF6A1F01 PUSH1 0x40 SHL DUP4 LT PUSH2 0x27D6 JUMPI PUSH19 0x184F03E93FF9F4DAA797ED6E38ED64BF6A1F01 PUSH1 0x40 SHL DUP4 DIV SWAP3 POP PUSH1 0x40 ADD JUMPDEST PUSH14 0x4EE2D6D415B85ACEF8100000000 DUP4 LT PUSH2 0x2802 JUMPI PUSH14 0x4EE2D6D415B85ACEF8100000000 DUP4 DIV SWAP3 POP PUSH1 0x20 ADD JUMPDEST PUSH7 0x2386F26FC10000 DUP4 LT PUSH2 0x2820 JUMPI PUSH7 0x2386F26FC10000 DUP4 DIV SWAP3 POP PUSH1 0x10 ADD JUMPDEST PUSH4 0x5F5E100 DUP4 LT PUSH2 0x2838 JUMPI PUSH4 0x5F5E100 DUP4 DIV SWAP3 POP PUSH1 0x8 ADD JUMPDEST PUSH2 0x2710 DUP4 LT PUSH2 0x284C JUMPI PUSH2 0x2710 DUP4 DIV SWAP3 POP PUSH1 0x4 ADD JUMPDEST PUSH1 0x64 DUP4 LT PUSH2 0x285E JUMPI PUSH1 0x64 DUP4 DIV SWAP3 POP PUSH1 0x2 ADD JUMPDEST PUSH1 0xA DUP4 LT PUSH2 0x2371 JUMPI PUSH1 0x1 ADD SWAP3 SWAP2 POP POP JUMP JUMPDEST PUSH1 0x0 DUP1 JUMPDEST DUP4 MLOAD DUP2 LT ISZERO PUSH2 0x28B8 JUMPI DUP3 DUP5 DUP3 DUP2 MLOAD DUP2 LT PUSH2 0x288F JUMPI PUSH2 0x288F PUSH2 0x3AD1 JUMP JUMPDEST PUSH1 0x20 MUL PUSH1 0x20 ADD ADD MLOAD SUB PUSH2 0x28A6 JUMPI PUSH1 0x1 SWAP2 POP POP PUSH2 0x2371 JUMP JUMPDEST DUP1 PUSH2 0x28B0 DUP2 PUSH2 0x3EC2 JUMP JUMPDEST SWAP2 POP POP PUSH2 0x2873 JUMP JUMPDEST POP PUSH1 0x0 SWAP4 SWAP3 POP POP POP JUMP JUMPDEST PUSH1 0x0 DUP1 DUP1 JUMPDEST PUSH1 0x2 DUP5 PUSH1 0x40 MLOAD PUSH2 0x28D7 SWAP2 SWAP1 PUSH2 0x3A7B JUMP JUMPDEST SWAP1 DUP2 MSTORE PUSH1 0x40 MLOAD SWAP1 DUP2 SWAP1 SUB PUSH1 0x20 ADD SWAP1 KECCAK256 PUSH1 0x1 ADD SLOAD DUP2 LT ISZERO PUSH2 0x295E JUMPI DUP5 PUSH1 0x1 PUSH1 0x1 PUSH1 0xA0 SHL SUB AND PUSH1 0x2 DUP6 PUSH1 0x40 MLOAD PUSH2 0x290B SWAP2 SWAP1 PUSH2 0x3A7B JUMP JUMPDEST SWAP1 DUP2 MSTORE PUSH1 0x20 ADD PUSH1 0x40 MLOAD DUP1 SWAP2 SUB SWAP1 KECCAK256 PUSH1 0x1 ADD DUP3 DUP2 SLOAD DUP2 LT PUSH2 0x292D JUMPI PUSH2 0x292D PUSH2 0x3AD1 JUMP JUMPDEST PUSH1 0x0 SWAP2 DUP3 MSTORE PUSH1 0x20 SWAP1 SWAP2 KECCAK256 ADD SLOAD PUSH1 0x1 PUSH1 0x1 PUSH1 0xA0 SHL SUB AND SUB PUSH2 0x294C JUMPI PUSH1 0x1 SWAP2 POP JUMPDEST DUP1 PUSH2 0x2956 DUP2 PUSH2 0x3EC2 JUMP JUMPDEST SWAP2 POP POP PUSH2 0x28C7 JUMP JUMPDEST POP SWAP4 SWAP3 POP POP POP JUMP JUMPDEST PUSH1 0x0 PUSH1 0x1 DUP2 JUMPDEST PUSH1 0x2 DUP6 PUSH1 0x40 MLOAD PUSH2 0x297C SWAP2 SWAP1 PUSH2 0x3A7B JUMP JUMPDEST SWAP1 DUP2 MSTORE PUSH1 0x40 MLOAD SWAP1 DUP2 SWAP1 SUB PUSH1 0x20 ADD SWAP1 KECCAK256 PUSH1 0x6 ADD SLOAD DUP2 LT ISZERO PUSH2 0x2A57 JUMPI DUP4 PUSH1 0x2 DUP7 PUSH1 0x40 MLOAD PUSH2 0x29A7 SWAP2 SWAP1 PUSH2 0x3A7B JUMP JUMPDEST SWAP1 DUP2 MSTORE PUSH1 0x20 ADD PUSH1 0x40 MLOAD DUP1 SWAP2 SUB SWAP1 KECCAK256 PUSH1 0x6 ADD DUP3 DUP2 SLOAD DUP2 LT PUSH2 0x29C9 JUMPI PUSH2 0x29C9 PUSH2 0x3AD1 JUMP JUMPDEST SWAP1 PUSH1 0x0 MSTORE PUSH1 0x20 PUSH1 0x0 KECCAK256 SWAP1 PUSH1 0x3 MUL ADD PUSH1 0x1 ADD SLOAD EQ DUP1 ISZERO PUSH2 0x2A3B JUMPI POP DUP6 PUSH1 0x1 PUSH1 0x1 PUSH1 0xA0 SHL SUB AND PUSH1 0x2 DUP7 PUSH1 0x40 MLOAD PUSH2 0x29FD SWAP2 SWAP1 PUSH2 0x3A7B JUMP JUMPDEST SWAP1 DUP2 MSTORE PUSH1 0x20 ADD PUSH1 0x40 MLOAD DUP1 SWAP2 SUB SWAP1 KECCAK256 PUSH1 0x6 ADD DUP3 DUP2 SLOAD DUP2 LT PUSH2 0x2A1F JUMPI PUSH2 0x2A1F PUSH2 0x3AD1 JUMP JUMPDEST PUSH1 0x0 SWAP2 DUP3 MSTORE PUSH1 0x20 SWAP1 SWAP2 KECCAK256 PUSH1 0x3 SWAP1 SWAP2 MUL ADD SLOAD PUSH1 0x1 PUSH1 0x1 PUSH1 0xA0 SHL SUB AND EQ JUMPDEST ISZERO PUSH2 0x2A45 JUMPI PUSH1 0x0 SWAP2 POP JUMPDEST DUP1 PUSH2 0x2A4F DUP2 PUSH2 0x3EC2 JUMP JUMPDEST SWAP2 POP POP PUSH2 0x296C JUMP JUMPDEST POP SWAP5 SWAP4 POP POP POP POP JUMP JUMPDEST PUSH1 0x0 DUP1 JUMPDEST DUP3 MLOAD DUP2 LT ISZERO PUSH2 0x2D39 JUMPI PUSH1 0x2 DUP5 PUSH1 0x2 ADD DUP3 DUP2 SLOAD DUP2 LT PUSH2 0x2A84 JUMPI PUSH2 0x2A84 PUSH2 0x3AD1 JUMP JUMPDEST SWAP1 PUSH1 0x0 MSTORE PUSH1 0x20 PUSH1 0x0 KECCAK256 SWAP1 PUSH1 0x20 SWAP2 DUP3 DUP3 DIV ADD SWAP2 SWAP1 MOD SWAP1 SLOAD SWAP1 PUSH2 0x100 EXP SWAP1 DIV PUSH1 0xFF AND PUSH1 0x2 DUP2 GT ISZERO PUSH2 0x2AB5 JUMPI PUSH2 0x2AB5 PUSH2 0x3857 JUMP JUMPDEST SUB PUSH2 0x2BBD JUMPI PUSH1 0x0 DUP1 JUMPDEST DUP6 PUSH1 0x3 ADD DUP4 DUP2 SLOAD DUP2 LT PUSH2 0x2AD3 JUMPI PUSH2 0x2AD3 PUSH2 0x3AD1 JUMP JUMPDEST PUSH1 0x0 SWAP2 DUP3 MSTORE PUSH1 0x20 SWAP1 SWAP2 KECCAK256 ADD SLOAD DUP2 LT ISZERO PUSH2 0x2BA6 JUMPI DUP5 DUP4 DUP2 MLOAD DUP2 LT PUSH2 0x2AF8 JUMPI PUSH2 0x2AF8 PUSH2 0x3AD1 JUMP JUMPDEST PUSH1 0x20 MUL PUSH1 0x20 ADD ADD MLOAD PUSH1 0x40 MLOAD PUSH1 0x20 ADD PUSH2 0x2B10 SWAP2 SWAP1 PUSH2 0x3A7B JUMP JUMPDEST PUSH1 0x40 MLOAD PUSH1 0x20 DUP2 DUP4 SUB SUB DUP2 MSTORE SWAP1 PUSH1 0x40 MSTORE DUP1 MLOAD SWAP1 PUSH1 0x20 ADD KECCAK256 DUP7 PUSH1 0x3 ADD DUP5 DUP2 SLOAD DUP2 LT PUSH2 0x2B3B JUMPI PUSH2 0x2B3B PUSH2 0x3AD1 JUMP JUMPDEST SWAP1 PUSH1 0x0 MSTORE PUSH1 0x20 PUSH1 0x0 KECCAK256 ADD DUP3 DUP2 SLOAD DUP2 LT PUSH2 0x2B56 JUMPI PUSH2 0x2B56 PUSH2 0x3AD1 JUMP JUMPDEST SWAP1 PUSH1 0x0 MSTORE PUSH1 0x20 PUSH1 0x0 KECCAK256 ADD PUSH1 0x40 MLOAD PUSH1 0x20 ADD PUSH2 0x2B70 SWAP2 SWAP1 PUSH2 0x3EDB JUMP JUMPDEST PUSH1 0x40 MLOAD PUSH1 0x20 DUP2 DUP4 SUB SUB DUP2 MSTORE SWAP1 PUSH1 0x40 MSTORE DUP1 MLOAD SWAP1 PUSH1 0x20 ADD KECCAK256 SUB PUSH2 0x2B94 JUMPI PUSH1 0x1 SWAP2 POP PUSH2 0x2BA6 JUMP JUMPDEST DUP1 PUSH2 0x2B9E DUP2 PUSH2 0x3EC2 JUMP JUMPDEST SWAP2 POP POP PUSH2 0x2ABE JUMP JUMPDEST POP DUP1 PUSH2 0x2BB7 JUMPI PUSH1 0x0 SWAP3 POP POP POP PUSH2 0x2371 JUMP JUMPDEST POP PUSH2 0x2D27 JUMP JUMPDEST PUSH1 0x1 DUP5 PUSH1 0x2 ADD DUP3 DUP2 SLOAD DUP2 LT PUSH2 0x2BD4 JUMPI PUSH2 0x2BD4 PUSH2 0x3AD1 JUMP JUMPDEST SWAP1 PUSH1 0x0 MSTORE PUSH1 0x20 PUSH1 0x0 KECCAK256 SWAP1 PUSH1 0x20 SWAP2 DUP3 DUP3 DIV ADD SWAP2 SWAP1 MOD SWAP1 SLOAD SWAP1 PUSH2 0x100 EXP SWAP1 DIV PUSH1 0xFF AND PUSH1 0x2 DUP2 GT ISZERO PUSH2 0x2C05 JUMPI PUSH2 0x2C05 PUSH2 0x3857 JUMP JUMPDEST SUB PUSH2 0x2CFB JUMPI PUSH1 0x40 MLOAD PUSH3 0x596573 PUSH1 0xE8 SHL PUSH1 0x20 DUP3 ADD MSTORE PUSH1 0x23 ADD PUSH1 0x40 MLOAD PUSH1 0x20 DUP2 DUP4 SUB SUB DUP2 MSTORE SWAP1 PUSH1 0x40 MSTORE DUP1 MLOAD SWAP1 PUSH1 0x20 ADD KECCAK256 DUP4 DUP3 DUP2 MLOAD DUP2 LT PUSH2 0x2C44 JUMPI PUSH2 0x2C44 PUSH2 0x3AD1 JUMP JUMPDEST PUSH1 0x20 MUL PUSH1 0x20 ADD ADD MLOAD PUSH1 0x40 MLOAD PUSH1 0x20 ADD PUSH2 0x2C5C SWAP2 SWAP1 PUSH2 0x3A7B JUMP JUMPDEST PUSH1 0x40 MLOAD PUSH1 0x20 DUP2 DUP4 SUB SUB DUP2 MSTORE SWAP1 PUSH1 0x40 MSTORE DUP1 MLOAD SWAP1 PUSH1 0x20 ADD KECCAK256 EQ DUP1 PUSH2 0x2CE2 JUMPI POP PUSH1 0x40 MLOAD PUSH2 0x4E6F PUSH1 0xF0 SHL PUSH1 0x20 DUP3 ADD MSTORE PUSH1 0x22 ADD PUSH1 0x40 MLOAD PUSH1 0x20 DUP2 DUP4 SUB SUB DUP2 MSTORE SWAP1 PUSH1 0x40 MSTORE DUP1 MLOAD SWAP1 PUSH1 0x20 ADD KECCAK256 DUP4 DUP3 DUP2 MLOAD DUP2 LT PUSH2 0x2CB2 JUMPI PUSH2 0x2CB2 PUSH2 0x3AD1 JUMP JUMPDEST PUSH1 0x20 MUL PUSH1 0x20 ADD ADD MLOAD PUSH1 0x40 MLOAD PUSH1 0x20 ADD PUSH2 0x2CCA SWAP2 SWAP1 PUSH2 0x3A7B JUMP JUMPDEST PUSH1 0x40 MLOAD PUSH1 0x20 DUP2 DUP4 SUB SUB DUP2 MSTORE SWAP1 PUSH1 0x40 MSTORE DUP1 MLOAD SWAP1 PUSH1 0x20 ADD KECCAK256 EQ JUMPDEST ISZERO PUSH2 0x2CF1 JUMPI PUSH1 0x1 SWAP2 POP POP PUSH2 0x2371 JUMP JUMPDEST PUSH1 0x0 SWAP2 POP POP PUSH2 0x2371 JUMP JUMPDEST DUP3 DUP2 DUP2 MLOAD DUP2 LT PUSH2 0x2D0D JUMPI PUSH2 0x2D0D PUSH2 0x3AD1 JUMP JUMPDEST PUSH1 0x20 MUL PUSH1 0x20 ADD ADD MLOAD MLOAD PUSH1 0x0 SUB PUSH2 0x2D27 JUMPI PUSH1 0x0 SWAP2 POP POP PUSH2 0x2371 JUMP JUMPDEST DUP1 PUSH2 0x2D31 DUP2 PUSH2 0x3EC2 JUMP JUMPDEST SWAP2 POP POP PUSH2 0x2A64 JUMP JUMPDEST POP PUSH1 0x1 SWAP4 SWAP3 POP POP POP JUMP JUMPDEST DUP3 DUP1 SLOAD DUP3 DUP3 SSTORE SWAP1 PUSH1 0x0 MSTORE PUSH1 0x20 PUSH1 0x0 KECCAK256 SWAP1 DUP2 ADD SWAP3 DUP3 ISZERO PUSH2 0x2D89 JUMPI SWAP2 PUSH1 0x20 MUL DUP3 ADD JUMPDEST DUP3 DUP2 GT ISZERO PUSH2 0x2D89 JUMPI DUP3 MLOAD DUP3 SWAP1 PUSH2 0x2D79 SWAP1 DUP3 PUSH2 0x3B8B JUMP JUMPDEST POP SWAP2 PUSH1 0x20 ADD SWAP2 SWAP1 PUSH1 0x1 ADD SWAP1 PUSH2 0x2D63 JUMP JUMPDEST POP PUSH2 0x2D95 SWAP3 SWAP2 POP PUSH2 0x2F32 JUMP JUMPDEST POP SWAP1 JUMP JUMPDEST DUP3 DUP1 SLOAD DUP3 DUP3 SSTORE SWAP1 PUSH1 0x0 MSTORE PUSH1 0x20 PUSH1 0x0 KECCAK256 SWAP1 PUSH1 0x1F ADD PUSH1 0x20 SWAP1 DIV DUP2 ADD SWAP3 DUP3 ISZERO PUSH2 0x2E3D JUMPI SWAP2 PUSH1 0x20 MUL DUP3 ADD PUSH1 0x0 JUMPDEST DUP4 DUP3 GT ISZERO PUSH2 0x2E0E JUMPI DUP4 MLOAD DUP4 DUP3 PUSH2 0x100 EXP DUP2 SLOAD DUP2 PUSH1 0xFF MUL NOT AND SWAP1 DUP4 PUSH1 0x2 DUP2 GT ISZERO PUSH2 0x2DED JUMPI PUSH2 0x2DED PUSH2 0x3857 JUMP JUMPDEST MUL OR SWAP1 SSTORE POP SWAP3 PUSH1 0x20 ADD SWAP3 PUSH1 0x1 ADD PUSH1 0x20 DUP2 PUSH1 0x0 ADD DIV SWAP3 DUP4 ADD SWAP3 PUSH1 0x1 SUB MUL PUSH2 0x2DC2 JUMP JUMPDEST DUP1 ISZERO PUSH2 0x2E3B JUMPI DUP3 DUP2 PUSH2 0x100 EXP DUP2 SLOAD SWAP1 PUSH1 0xFF MUL NOT AND SWAP1 SSTORE PUSH1 0x1 ADD PUSH1 0x20 DUP2 PUSH1 0x0 ADD DIV SWAP3 DUP4 ADD SWAP3 PUSH1 0x1 SUB MUL PUSH2 0x2E0E JUMP JUMPDEST POP JUMPDEST POP PUSH2 0x2D95 SWAP3 SWAP2 POP PUSH2 0x2F4F JUMP JUMPDEST DUP3 DUP1 SLOAD DUP3 DUP3 SSTORE SWAP1 PUSH1 0x0 MSTORE PUSH1 0x20 PUSH1 0x0 KECCAK256 SWAP1 DUP2 ADD SWAP3 DUP3 ISZERO PUSH2 0x2E96 JUMPI SWAP2 PUSH1 0x20 MUL DUP3 ADD JUMPDEST DUP3 DUP2 GT ISZERO PUSH2 0x2E96 JUMPI DUP3 MLOAD DUP1 MLOAD PUSH2 0x2E86 SWAP2 DUP5 SWAP2 PUSH1 0x20 SWAP1 SWAP2 ADD SWAP1 PUSH2 0x2D43 JUMP JUMPDEST POP SWAP2 PUSH1 0x20 ADD SWAP2 SWAP1 PUSH1 0x1 ADD SWAP1 PUSH2 0x2E69 JUMP JUMPDEST POP PUSH2 0x2D95 SWAP3 SWAP2 POP PUSH2 0x2F64 JUMP JUMPDEST DUP3 DUP1 SLOAD DUP3 DUP3 SSTORE SWAP1 PUSH1 0x0 MSTORE PUSH1 0x20 PUSH1 0x0 KECCAK256 SWAP1 DUP2 ADD SWAP3 DUP3 ISZERO PUSH2 0x2E3D JUMPI SWAP2 PUSH1 0x20 MUL DUP3 ADD JUMPDEST DUP3 DUP2 GT ISZERO PUSH2 0x2E3D JUMPI DUP3 MLOAD DUP3 SLOAD PUSH1 0x1 PUSH1 0x1 PUSH1 0xA0 SHL SUB NOT AND PUSH1 0x1 PUSH1 0x1 PUSH1 0xA0 SHL SUB SWAP1 SWAP2 AND OR DUP3 SSTORE PUSH1 0x20 SWAP1 SWAP3 ADD SWAP2 PUSH1 0x1 SWAP1 SWAP2 ADD SWAP1 PUSH2 0x2EC2 JUMP JUMPDEST DUP3 DUP1 SLOAD DUP3 DUP3 SSTORE SWAP1 PUSH1 0x0 MSTORE PUSH1 0x20 PUSH1 0x0 KECCAK256 SWAP1 DUP2 ADD SWAP3 DUP3 ISZERO PUSH2 0x2E3D JUMPI SWAP2 PUSH1 0x20 MUL DUP3 ADD JUMPDEST DUP3 DUP2 GT ISZERO PUSH2 0x2E3D JUMPI DUP3 MLOAD DUP3 SSTORE SWAP2 PUSH1 0x20 ADD SWAP2 SWAP1 PUSH1 0x1 ADD SWAP1 PUSH2 0x2F17 JUMP JUMPDEST DUP1 DUP3 GT ISZERO PUSH2 0x2D95 JUMPI PUSH1 0x0 PUSH2 0x2F46 DUP3 DUP3 PUSH2 0x2F81 JUMP JUMPDEST POP PUSH1 0x1 ADD PUSH2 0x2F32 JUMP JUMPDEST JUMPDEST DUP1 DUP3 GT ISZERO PUSH2 0x2D95 JUMPI PUSH1 0x0 DUP2 SSTORE PUSH1 0x1 ADD PUSH2 0x2F50 JUMP JUMPDEST DUP1 DUP3 GT ISZERO PUSH2 0x2D95 JUMPI PUSH1 0x0 PUSH2 0x2F78 DUP3 DUP3 PUSH2 0x2FBB JUMP JUMPDEST POP PUSH1 0x1 ADD PUSH2 0x2F64 JUMP JUMPDEST POP DUP1 SLOAD PUSH2 0x2F8D SWAP1 PUSH2 0x3A97 JUMP JUMPDEST PUSH1 0x0 DUP3 SSTORE DUP1 PUSH1 0x1F LT PUSH2 0x2F9D JUMPI POP POP JUMP JUMPDEST PUSH1 0x1F ADD PUSH1 0x20 SWAP1 DIV SWAP1 PUSH1 0x0 MSTORE PUSH1 0x20 PUSH1 0x0 KECCAK256 SWAP1 DUP2 ADD SWAP1 PUSH2 0x19B9 SWAP2 SWAP1 PUSH2 0x2F4F JUMP JUMPDEST POP DUP1 SLOAD PUSH1 0x0 DUP3 SSTORE SWAP1 PUSH1 0x0 MSTORE PUSH1 0x20 PUSH1 0x0 KECCAK256 SWAP1 DUP2 ADD SWAP1 PUSH2 0x19B9 SWAP2 SWAP1 PUSH2 0x2F32 JUMP JUMPDEST PUSH4 0x4E487B71 PUSH1 0xE0 SHL PUSH1 0x0 MSTORE PUSH1 0x41 PUSH1 0x4 MSTORE PUSH1 0x24 PUSH1 0x0 REVERT JUMPDEST PUSH1 0x40 MLOAD PUSH1 0x1F DUP3 ADD PUSH1 0x1F NOT AND DUP2 ADD PUSH1 0x1 PUSH1 0x1 PUSH1 0x40 SHL SUB DUP2 GT DUP3 DUP3 LT OR ISZERO PUSH2 0x3017 JUMPI PUSH2 0x3017 PUSH2 0x2FD9 JUMP JUMPDEST PUSH1 0x40 MSTORE SWAP2 SWAP1 POP JUMP JUMPDEST PUSH1 0x0 DUP3 PUSH1 0x1F DUP4 ADD SLT PUSH2 0x3030 JUMPI PUSH1 0x0 DUP1 REVERT JUMPDEST DUP2 CALLDATALOAD PUSH1 0x1 PUSH1 0x1 PUSH1 0x40 SHL SUB DUP2 GT ISZERO PUSH2 0x3049 JUMPI PUSH2 0x3049 PUSH2 0x2FD9 JUMP JUMPDEST PUSH2 0x305C PUSH1 0x1F DUP3 ADD PUSH1 0x1F NOT AND PUSH1 0x20 ADD PUSH2 0x2FEF JUMP JUMPDEST DUP2 DUP2 MSTORE DUP5 PUSH1 0x20 DUP4 DUP7 ADD ADD GT ISZERO PUSH2 0x3071 JUMPI PUSH1 0x0 DUP1 REVERT JUMPDEST DUP2 PUSH1 0x20 DUP6 ADD PUSH1 0x20 DUP4 ADD CALLDATACOPY PUSH1 0x0 SWAP2 DUP2 ADD PUSH1 0x20 ADD SWAP2 SWAP1 SWAP2 MSTORE SWAP4 SWAP3 POP POP POP JUMP JUMPDEST PUSH1 0x0 PUSH1 0x1 PUSH1 0x1 PUSH1 0x40 SHL SUB DUP3 GT ISZERO PUSH2 0x30A7 JUMPI PUSH2 0x30A7 PUSH2 0x2FD9 JUMP JUMPDEST POP PUSH1 0x5 SHL PUSH1 0x20 ADD SWAP1 JUMP JUMPDEST DUP1 CALLDATALOAD PUSH1 0x1 PUSH1 0x1 PUSH1 0xA0 SHL SUB DUP2 AND DUP2 EQ PUSH2 0x192A JUMPI PUSH1 0x0 DUP1 REVERT JUMPDEST PUSH1 0x0 DUP3 PUSH1 0x1F DUP4 ADD SLT PUSH2 0x30D9 JUMPI PUSH1 0x0 DUP1 REVERT JUMPDEST DUP2 CALLDATALOAD PUSH1 0x20 PUSH2 0x30EE PUSH2 0x30E9 DUP4 PUSH2 0x308E JUMP JUMPDEST PUSH2 0x2FEF JUMP JUMPDEST DUP3 DUP2 MSTORE PUSH1 0x5 SWAP3 SWAP1 SWAP3 SHL DUP5 ADD DUP2 ADD SWAP2 DUP2 DUP2 ADD SWAP1 DUP7 DUP5 GT ISZERO PUSH2 0x310D JUMPI PUSH1 0x0 DUP1 REVERT JUMPDEST DUP3 DUP7 ADD JUMPDEST DUP5 DUP2 LT ISZERO PUSH2 0x312F JUMPI PUSH2 0x3122 DUP2 PUSH2 0x30B1 JUMP JUMPDEST DUP4 MSTORE SWAP2 DUP4 ADD SWAP2 DUP4 ADD PUSH2 0x3111 JUMP JUMPDEST POP SWAP7 SWAP6 POP POP POP POP POP POP JUMP JUMPDEST PUSH1 0x0 DUP3 PUSH1 0x1F DUP4 ADD SLT PUSH2 0x314B JUMPI PUSH1 0x0 DUP1 REVERT JUMPDEST DUP2 CALLDATALOAD PUSH1 0x20 PUSH2 0x315B PUSH2 0x30E9 DUP4 PUSH2 0x308E JUMP JUMPDEST DUP3 DUP2 MSTORE PUSH1 0x5 SWAP3 SWAP1 SWAP3 SHL DUP5 ADD DUP2 ADD SWAP2 DUP2 DUP2 ADD SWAP1 DUP7 DUP5 GT ISZERO PUSH2 0x317A JUMPI PUSH1 0x0 DUP1 REVERT JUMPDEST DUP3 DUP7 ADD JUMPDEST DUP5 DUP2 LT ISZERO PUSH2 0x312F JUMPI DUP1 CALLDATALOAD DUP4 MSTORE SWAP2 DUP4 ADD SWAP2 DUP4 ADD PUSH2 0x317E JUMP JUMPDEST PUSH1 0x0 DUP3 PUSH1 0x1F DUP4 ADD SLT PUSH2 0x31A6 JUMPI PUSH1 0x0 DUP1 REVERT JUMPDEST DUP2 CALLDATALOAD PUSH1 0x20 PUSH2 0x31B6 PUSH2 0x30E9 DUP4 PUSH2 0x308E JUMP JUMPDEST DUP3 DUP2 MSTORE PUSH1 0x5 SWAP3 SWAP1 SWAP3 SHL DUP5 ADD DUP2 ADD SWAP2 DUP2 DUP2 ADD SWAP1 DUP7 DUP5 GT ISZERO PUSH2 0x31D5 JUMPI PUSH1 0x0 DUP1 REVERT JUMPDEST DUP3 DUP7 ADD JUMPDEST DUP5 DUP2 LT ISZERO PUSH2 0x312F JUMPI DUP1 CALLDATALOAD PUSH1 0x1 PUSH1 0x1 PUSH1 0x40 SHL SUB DUP2 GT ISZERO PUSH2 0x31F8 JUMPI PUSH1 0x0 DUP1 DUP2 REVERT JUMPDEST PUSH2 0x3206 DUP10 DUP7 DUP4 DUP12 ADD ADD PUSH2 0x301F JUMP JUMPDEST DUP5 MSTORE POP SWAP2 DUP4 ADD SWAP2 DUP4 ADD PUSH2 0x31D9 JUMP JUMPDEST PUSH1 0x0 DUP1 PUSH1 0x0 DUP1 PUSH1 0x0 DUP1 PUSH1 0x0 DUP1 PUSH2 0x100 DUP10 DUP12 SUB SLT ISZERO PUSH2 0x3231 JUMPI PUSH1 0x0 DUP1 REVERT JUMPDEST DUP9 CALLDATALOAD PUSH1 0x1 PUSH1 0x1 PUSH1 0x40 SHL SUB DUP1 DUP3 GT ISZERO PUSH2 0x3248 JUMPI PUSH1 0x0 DUP1 REVERT JUMPDEST PUSH2 0x3254 DUP13 DUP4 DUP14 ADD PUSH2 0x301F JUMP JUMPDEST SWAP10 POP PUSH1 0x20 DUP12 ADD CALLDATALOAD SWAP2 POP DUP1 DUP3 GT ISZERO PUSH2 0x326A JUMPI PUSH1 0x0 DUP1 REVERT JUMPDEST PUSH2 0x3276 DUP13 DUP4 DUP14 ADD PUSH2 0x30C8 JUMP JUMPDEST SWAP9 POP PUSH1 0x40 DUP12 ADD CALLDATALOAD SWAP2 POP DUP1 DUP3 GT ISZERO PUSH2 0x328C JUMPI PUSH1 0x0 DUP1 REVERT JUMPDEST PUSH2 0x3298 DUP13 DUP4 DUP14 ADD PUSH2 0x313A JUMP JUMPDEST SWAP8 POP PUSH1 0x60 DUP12 ADD CALLDATALOAD SWAP2 POP DUP1 DUP3 GT ISZERO PUSH2 0x32AE JUMPI PUSH1 0x0 DUP1 REVERT JUMPDEST PUSH2 0x32BA DUP13 DUP4 DUP14 ADD PUSH2 0x3195 JUMP JUMPDEST SWAP7 POP PUSH1 0x80 DUP12 ADD CALLDATALOAD SWAP2 POP DUP1 DUP3 GT ISZERO PUSH2 0x32D0 JUMPI PUSH1 0x0 DUP1 REVERT JUMPDEST POP PUSH2 0x32DD DUP12 DUP3 DUP13 ADD PUSH2 0x301F JUMP JUMPDEST SWAP5 POP POP PUSH1 0xA0 DUP10 ADD CALLDATALOAD SWAP3 POP PUSH2 0x32F3 PUSH1 0xC0 DUP11 ADD PUSH2 0x30B1 JUMP JUMPDEST SWAP2 POP PUSH1 0xE0 DUP10 ADD CALLDATALOAD SWAP1 POP SWAP3 SWAP6 SWAP9 POP SWAP3 SWAP6 SWAP9 SWAP1 SWAP4 SWAP7 POP JUMP JUMPDEST PUSH1 0x0 DUP3 PUSH1 0x1F DUP4 ADD SLT PUSH2 0x331A JUMPI PUSH1 0x0 DUP1 REVERT JUMPDEST DUP2 CALLDATALOAD PUSH1 0x20 PUSH2 0x332A PUSH2 0x30E9 DUP4 PUSH2 0x308E JUMP JUMPDEST DUP3 DUP2 MSTORE PUSH1 0x5 SWAP3 SWAP1 SWAP3 SHL DUP5 ADD DUP2 ADD SWAP2 DUP2 DUP2 ADD SWAP1 DUP7 DUP5 GT ISZERO PUSH2 0x3349 JUMPI PUSH1 0x0 DUP1 REVERT JUMPDEST DUP3 DUP7 ADD JUMPDEST DUP5 DUP2 LT ISZERO PUSH2 0x312F JUMPI DUP1 CALLDATALOAD PUSH1 0x3 DUP2 LT PUSH2 0x3365 JUMPI PUSH1 0x0 DUP1 DUP2 REVERT JUMPDEST DUP4 MSTORE SWAP2 DUP4 ADD SWAP2 DUP4 ADD PUSH2 0x334D JUMP JUMPDEST PUSH1 0x0 DUP1 PUSH1 0x0 DUP1 PUSH1 0x80 DUP6 DUP8 SUB SLT ISZERO PUSH2 0x3388 JUMPI PUSH1 0x0 DUP1 REVERT JUMPDEST DUP5 CALLDATALOAD SWAP4 POP PUSH1 0x20 DUP1 DUP7 ADD CALLDATALOAD PUSH1 0x1 PUSH1 0x1 PUSH1 0x40 SHL SUB DUP1 DUP3 GT ISZERO PUSH2 0x33A7 JUMPI PUSH1 0x0 DUP1 REVERT JUMPDEST PUSH2 0x33B3 DUP10 DUP4 DUP11 ADD PUSH2 0x3195 JUMP JUMPDEST SWAP6 POP PUSH1 0x40 DUP9 ADD CALLDATALOAD SWAP2 POP DUP1 DUP3 GT ISZERO PUSH2 0x33C9 JUMPI PUSH1 0x0 DUP1 REVERT JUMPDEST DUP2 DUP9 ADD SWAP2 POP DUP9 PUSH1 0x1F DUP4 ADD SLT PUSH2 0x33DD JUMPI PUSH1 0x0 DUP1 REVERT JUMPDEST DUP2 CALLDATALOAD PUSH2 0x33EB PUSH2 0x30E9 DUP3 PUSH2 0x308E JUMP JUMPDEST DUP2 DUP2 MSTORE PUSH1 0x5 SWAP2 SWAP1 SWAP2 SHL DUP4 ADD DUP5 ADD SWAP1 DUP5 DUP2 ADD SWAP1 DUP12 DUP4 GT ISZERO PUSH2 0x340A JUMPI PUSH1 0x0 DUP1 REVERT JUMPDEST DUP6 DUP6 ADD JUMPDEST DUP4 DUP2 LT ISZERO PUSH2 0x3442 JUMPI DUP1 CALLDATALOAD DUP6 DUP2 GT ISZERO PUSH2 0x3426 JUMPI PUSH1 0x0 DUP1 DUP2 REVERT JUMPDEST PUSH2 0x3434 DUP15 DUP10 DUP4 DUP11 ADD ADD PUSH2 0x3195 JUMP JUMPDEST DUP5 MSTORE POP SWAP2 DUP7 ADD SWAP2 DUP7 ADD PUSH2 0x340E JUMP JUMPDEST POP SWAP7 POP POP POP PUSH1 0x60 DUP9 ADD CALLDATALOAD SWAP3 POP DUP1 DUP4 GT ISZERO PUSH2 0x345B JUMPI PUSH1 0x0 DUP1 REVERT JUMPDEST POP POP PUSH2 0x3469 DUP8 DUP3 DUP9 ADD PUSH2 0x3309 JUMP JUMPDEST SWAP2 POP POP SWAP3 SWAP6 SWAP2 SWAP5 POP SWAP3 POP JUMP JUMPDEST PUSH1 0x0 JUMPDEST DUP4 DUP2 LT ISZERO PUSH2 0x3490 JUMPI DUP2 DUP2 ADD MLOAD DUP4 DUP3 ADD MSTORE PUSH1 0x20 ADD PUSH2 0x3478 JUMP JUMPDEST POP POP PUSH1 0x0 SWAP2 ADD MSTORE JUMP JUMPDEST PUSH1 0x0 DUP2 MLOAD DUP1 DUP5 MSTORE PUSH2 0x34B1 DUP2 PUSH1 0x20 DUP7 ADD PUSH1 0x20 DUP7 ADD PUSH2 0x3475 JUMP JUMPDEST PUSH1 0x1F ADD PUSH1 0x1F NOT AND SWAP3 SWAP1 SWAP3 ADD PUSH1 0x20 ADD SWAP3 SWAP2 POP POP JUMP JUMPDEST PUSH1 0x20 DUP2 MSTORE PUSH1 0x0 PUSH2 0x34D8 PUSH1 0x20 DUP4 ADD DUP5 PUSH2 0x3499 JUMP JUMPDEST SWAP4 SWAP3 POP POP POP JUMP JUMPDEST PUSH1 0x0 PUSH1 0x20 DUP3 DUP5 SUB SLT ISZERO PUSH2 0x34F1 JUMPI PUSH1 0x0 DUP1 REVERT JUMPDEST PUSH2 0x34D8 DUP3 PUSH2 0x30B1 JUMP JUMPDEST PUSH1 0x0 PUSH1 0x20 DUP3 DUP5 SUB SLT ISZERO PUSH2 0x350C JUMPI PUSH1 0x0 DUP1 REVERT JUMPDEST DUP2 CALLDATALOAD PUSH1 0x1 PUSH1 0x1 PUSH1 0x40 SHL SUB DUP2 GT ISZERO PUSH2 0x3522 JUMPI PUSH1 0x0 DUP1 REVERT JUMPDEST PUSH2 0x8A5 DUP5 DUP3 DUP6 ADD PUSH2 0x301F JUMP JUMPDEST PUSH1 0x0 DUP2 MLOAD DUP1 DUP5 MSTORE PUSH1 0x20 DUP1 DUP6 ADD SWAP5 POP DUP1 DUP5 ADD PUSH1 0x0 JUMPDEST DUP4 DUP2 LT ISZERO PUSH2 0x355E JUMPI DUP2 MLOAD DUP8 MSTORE SWAP6 DUP3 ADD SWAP6 SWAP1 DUP3 ADD SWAP1 PUSH1 0x1 ADD PUSH2 0x3542 JUMP JUMPDEST POP SWAP5 SWAP6 SWAP5 POP POP POP POP POP JUMP JUMPDEST PUSH1 0x0 DUP2 MLOAD DUP1 DUP5 MSTORE PUSH1 0x20 DUP1 DUP6 ADD SWAP5 POP DUP5 DUP3 PUSH1 0x5 SHL DUP7 ADD DUP3 DUP7 ADD PUSH1 0x0 JUMPDEST DUP6 DUP2 LT ISZERO PUSH2 0x35AE JUMPI DUP4 DUP4 SUB DUP10 MSTORE PUSH2 0x359C DUP4 DUP4 MLOAD PUSH2 0x3499 JUMP JUMPDEST SWAP9 DUP6 ADD SWAP9 SWAP3 POP SWAP1 DUP5 ADD SWAP1 PUSH1 0x1 ADD PUSH2 0x3584 JUMP JUMPDEST POP SWAP1 SWAP8 SWAP7 POP POP POP POP POP POP POP JUMP JUMPDEST PUSH1 0x0 DUP2 MLOAD DUP1 DUP5 MSTORE PUSH1 0x20 DUP1 DUP6 ADD SWAP5 POP DUP1 DUP5 ADD PUSH1 0x0 JUMPDEST DUP4 DUP2 LT ISZERO PUSH2 0x355E JUMPI DUP2 MLOAD DUP1 MLOAD PUSH1 0x1 PUSH1 0x1 PUSH1 0xA0 SHL SUB AND DUP9 MSTORE DUP4 DUP2 ADD MLOAD DUP5 DUP10 ADD MSTORE PUSH1 0x40 SWAP1 DUP2 ADD MLOAD SWAP1 DUP9 ADD MSTORE PUSH1 0x60 SWAP1 SWAP7 ADD SWAP6 SWAP1 DUP3 ADD SWAP1 PUSH1 0x1 ADD PUSH2 0x35CF JUMP JUMPDEST PUSH2 0x100 DUP1 DUP3 MSTORE DUP10 MLOAD SWAP1 DUP3 ADD DUP2 SWAP1 MSTORE PUSH1 0x0 SWAP1 PUSH2 0x120 DUP4 ADD SWAP1 PUSH1 0x20 SWAP1 DUP2 DUP14 ADD DUP5 JUMPDEST DUP3 DUP2 LT ISZERO PUSH2 0x364E JUMPI DUP2 MLOAD PUSH1 0x1 PUSH1 0x1 PUSH1 0xA0 SHL SUB AND DUP6 MSTORE SWAP4 DUP4 ADD SWAP4 SWAP1 DUP4 ADD SWAP1 PUSH1 0x1 ADD PUSH2 0x3629 JUMP JUMPDEST POP POP POP DUP4 DUP3 SUB SWAP1 DUP5 ADD MSTORE PUSH2 0x3662 DUP2 DUP12 PUSH2 0x352E JUMP JUMPDEST SWAP1 POP DUP3 DUP2 SUB PUSH1 0x40 DUP5 ADD MSTORE PUSH2 0x3676 DUP2 DUP11 PUSH2 0x3569 JUMP JUMPDEST SWAP1 POP DUP3 DUP2 SUB PUSH1 0x60 DUP5 ADD MSTORE PUSH2 0x368A DUP2 DUP10 PUSH2 0x3499 JUMP JUMPDEST SWAP1 POP DUP7 PUSH1 0x80 DUP5 ADD MSTORE DUP3 DUP2 SUB PUSH1 0xA0 DUP5 ADD MSTORE PUSH2 0x36A4 DUP2 DUP8 PUSH2 0x35BB JUMP JUMPDEST SWAP2 POP POP DUP4 PUSH1 0xC0 DUP4 ADD MSTORE PUSH2 0x36BB PUSH1 0xE0 DUP4 ADD DUP5 ISZERO ISZERO SWAP1 MSTORE JUMP JUMPDEST SWAP10 SWAP9 POP POP POP POP POP POP POP POP POP JUMP JUMPDEST PUSH1 0x0 DUP1 DUP4 PUSH1 0x1F DUP5 ADD SLT PUSH2 0x36DA JUMPI PUSH1 0x0 DUP1 REVERT JUMPDEST POP DUP2 CALLDATALOAD PUSH1 0x1 PUSH1 0x1 PUSH1 0x40 SHL SUB DUP2 GT ISZERO PUSH2 0x36F1 JUMPI PUSH1 0x0 DUP1 REVERT JUMPDEST PUSH1 0x20 DUP4 ADD SWAP2 POP DUP4 PUSH1 0x20 DUP3 PUSH1 0x5 SHL DUP6 ADD ADD GT ISZERO PUSH2 0x370C JUMPI PUSH1 0x0 DUP1 REVERT JUMPDEST SWAP3 POP SWAP3 SWAP1 POP JUMP JUMPDEST PUSH1 0x0 DUP1 PUSH1 0x0 DUP1 PUSH1 0x40 DUP6 DUP8 SUB SLT ISZERO PUSH2 0x3729 JUMPI PUSH1 0x0 DUP1 REVERT JUMPDEST DUP5 CALLDATALOAD PUSH1 0x1 PUSH1 0x1 PUSH1 0x40 SHL SUB DUP1 DUP3 GT ISZERO PUSH2 0x3740 JUMPI PUSH1 0x0 DUP1 REVERT JUMPDEST PUSH2 0x374C DUP9 DUP4 DUP10 ADD PUSH2 0x36C8 JUMP JUMPDEST SWAP1 SWAP7 POP SWAP5 POP PUSH1 0x20 DUP8 ADD CALLDATALOAD SWAP2 POP DUP1 DUP3 GT ISZERO PUSH2 0x3765 JUMPI PUSH1 0x0 DUP1 REVERT JUMPDEST POP PUSH2 0x3772 DUP8 DUP3 DUP9 ADD PUSH2 0x36C8 JUMP JUMPDEST SWAP6 SWAP9 SWAP5 SWAP8 POP SWAP6 POP POP POP POP JUMP JUMPDEST PUSH1 0x0 DUP1 PUSH1 0x0 DUP1 PUSH1 0x0 DUP1 PUSH1 0xC0 DUP8 DUP10 SUB SLT ISZERO PUSH2 0x3797 JUMPI PUSH1 0x0 DUP1 REVERT JUMPDEST DUP7 CALLDATALOAD PUSH1 0x1 PUSH1 0x1 PUSH1 0x40 SHL SUB DUP1 DUP3 GT ISZERO PUSH2 0x37AE JUMPI PUSH1 0x0 DUP1 REVERT JUMPDEST PUSH2 0x37BA DUP11 DUP4 DUP12 ADD PUSH2 0x301F JUMP JUMPDEST SWAP8 POP PUSH1 0x20 DUP10 ADD CALLDATALOAD SWAP2 POP DUP1 DUP3 GT ISZERO PUSH2 0x37D0 JUMPI PUSH1 0x0 DUP1 REVERT JUMPDEST PUSH2 0x37DC DUP11 DUP4 DUP12 ADD PUSH2 0x30C8 JUMP JUMPDEST SWAP7 POP PUSH1 0x40 DUP10 ADD CALLDATALOAD SWAP2 POP DUP1 DUP3 GT ISZERO PUSH2 0x37F2 JUMPI PUSH1 0x0 DUP1 REVERT JUMPDEST PUSH2 0x37FE DUP11 DUP4 DUP12 ADD PUSH2 0x313A JUMP JUMPDEST SWAP6 POP PUSH1 0x60 DUP10 ADD CALLDATALOAD SWAP2 POP DUP1 DUP3 GT ISZERO PUSH2 0x3814 JUMPI PUSH1 0x0 DUP1 REVERT JUMPDEST PUSH2 0x3820 DUP11 DUP4 DUP12 ADD PUSH2 0x3195 JUMP JUMPDEST SWAP5 POP PUSH1 0x80 DUP10 ADD CALLDATALOAD SWAP2 POP DUP1 DUP3 GT ISZERO PUSH2 0x3836 JUMPI PUSH1 0x0 DUP1 REVERT JUMPDEST POP PUSH2 0x3843 DUP10 DUP3 DUP11 ADD PUSH2 0x301F JUMP JUMPDEST SWAP3 POP POP PUSH1 0xA0 DUP8 ADD CALLDATALOAD SWAP1 POP SWAP3 SWAP6 POP SWAP3 SWAP6 POP SWAP3 SWAP6 JUMP JUMPDEST PUSH4 0x4E487B71 PUSH1 0xE0 SHL PUSH1 0x0 MSTORE PUSH1 0x21 PUSH1 0x4 MSTORE PUSH1 0x24 PUSH1 0x0 REVERT JUMPDEST PUSH1 0x0 DUP2 MLOAD DUP1 DUP5 MSTORE PUSH1 0x20 DUP1 DUP6 ADD DUP1 DUP2 SWAP7 POP DUP4 PUSH1 0x5 SHL DUP2 ADD SWAP2 POP DUP3 DUP7 ADD PUSH1 0x0 JUMPDEST DUP6 DUP2 LT ISZERO PUSH2 0x38B5 JUMPI DUP3 DUP5 SUB DUP10 MSTORE PUSH2 0x38A3 DUP5 DUP4 MLOAD PUSH2 0x3569 JUMP JUMPDEST SWAP9 DUP6 ADD SWAP9 SWAP4 POP SWAP1 DUP5 ADD SWAP1 PUSH1 0x1 ADD PUSH2 0x388B JUMP JUMPDEST POP SWAP2 SWAP8 SWAP7 POP POP POP POP POP POP POP JUMP JUMPDEST PUSH1 0x80 DUP2 MSTORE PUSH1 0x0 PUSH2 0x38D5 PUSH1 0x80 DUP4 ADD DUP8 PUSH2 0x3569 JUMP JUMPDEST DUP3 DUP2 SUB PUSH1 0x20 DUP5 DUP2 ADD SWAP2 SWAP1 SWAP2 MSTORE DUP7 MLOAD DUP1 DUP4 MSTORE DUP8 DUP3 ADD SWAP3 DUP3 ADD SWAP1 PUSH1 0x0 DUP1 JUMPDEST DUP3 DUP2 LT ISZERO PUSH2 0x3929 JUMPI DUP6 MLOAD PUSH1 0x3 DUP2 LT PUSH2 0x3917 JUMPI PUSH4 0x4E487B71 PUSH1 0xE0 SHL DUP4 MSTORE PUSH1 0x21 PUSH1 0x4 MSTORE PUSH1 0x24 DUP4 REVERT JUMPDEST DUP5 MSTORE SWAP5 DUP5 ADD SWAP5 SWAP3 DUP5 ADD SWAP3 PUSH1 0x1 ADD PUSH2 0x38F1 JUMP JUMPDEST POP POP POP DUP5 DUP2 SUB PUSH1 0x40 DUP7 ADD MSTORE PUSH2 0x393E DUP2 DUP9 PUSH2 0x386D JUMP JUMPDEST SWAP4 POP POP POP POP DUP3 PUSH1 0x60 DUP4 ADD MSTORE SWAP6 SWAP5 POP POP POP POP POP JUMP JUMPDEST PUSH1 0x0 PUSH1 0x20 DUP3 DUP5 SUB SLT ISZERO PUSH2 0x3964 JUMPI PUSH1 0x0 DUP1 REVERT JUMPDEST POP CALLDATALOAD SWAP2 SWAP1 POP JUMP JUMPDEST PUSH1 0x20 DUP2 MSTORE PUSH1 0x0 PUSH2 0x34D8 PUSH1 0x20 DUP4 ADD DUP5 PUSH2 0x3569 JUMP JUMPDEST PUSH1 0x0 PUSH1 0x20 DUP3 DUP5 SUB SLT ISZERO PUSH2 0x3990 JUMPI PUSH1 0x0 DUP1 REVERT JUMPDEST DUP2 CALLDATALOAD PUSH1 0x1 PUSH1 0x1 PUSH1 0x40 SHL SUB DUP2 GT ISZERO PUSH2 0x39A6 JUMPI PUSH1 0x0 DUP1 REVERT JUMPDEST DUP3 ADD PUSH2 0x140 DUP2 DUP6 SUB SLT ISZERO PUSH2 0x34D8 JUMPI PUSH1 0x0 DUP1 REVERT JUMPDEST PUSH1 0x20 DUP1 DUP3 MSTORE PUSH1 0x12 SWAP1 DUP3 ADD MSTORE PUSH18 0x10DBDB9D1C9858DD081A5CC81C185D5CD959 PUSH1 0x72 SHL PUSH1 0x40 DUP3 ADD MSTORE PUSH1 0x60 ADD SWAP1 JUMP JUMPDEST PUSH4 0x4E487B71 PUSH1 0xE0 SHL PUSH1 0x0 MSTORE PUSH1 0x11 PUSH1 0x4 MSTORE PUSH1 0x24 PUSH1 0x0 REVERT JUMPDEST DUP1 DUP3 ADD DUP1 DUP3 GT ISZERO PUSH2 0x2371 JUMPI PUSH2 0x2371 PUSH2 0x39E5 JUMP JUMPDEST DUP2 DUP2 SUB DUP2 DUP2 GT ISZERO PUSH2 0x2371 JUMPI PUSH2 0x2371 PUSH2 0x39E5 JUMP JUMPDEST PUSH1 0x0 DUP5 MLOAD PUSH2 0x3A33 DUP2 DUP5 PUSH1 0x20 DUP10 ADD PUSH2 0x3475 JUMP JUMPDEST DUP1 DUP4 ADD SWAP1 POP PUSH1 0x17 PUSH1 0xF9 SHL DUP1 DUP3 MSTORE DUP6 MLOAD PUSH2 0x3A53 DUP2 PUSH1 0x1 DUP6 ADD PUSH1 0x20 DUP11 ADD PUSH2 0x3475 JUMP JUMPDEST PUSH1 0x1 SWAP3 ADD SWAP2 DUP3 ADD MSTORE DUP4 MLOAD PUSH2 0x3A6E DUP2 PUSH1 0x2 DUP5 ADD PUSH1 0x20 DUP9 ADD PUSH2 0x3475 JUMP JUMPDEST ADD PUSH1 0x2 ADD SWAP6 SWAP5 POP POP POP POP POP JUMP JUMPDEST PUSH1 0x0 DUP3 MLOAD PUSH2 0x3A8D DUP2 DUP5 PUSH1 0x20 DUP8 ADD PUSH2 0x3475 JUMP JUMPDEST SWAP2 SWAP1 SWAP2 ADD SWAP3 SWAP2 POP POP JUMP JUMPDEST PUSH1 0x1 DUP2 DUP2 SHR SWAP1 DUP3 AND DUP1 PUSH2 0x3AAB JUMPI PUSH1 0x7F DUP3 AND SWAP2 POP JUMPDEST PUSH1 0x20 DUP3 LT DUP2 SUB PUSH2 0x3ACB JUMPI PUSH4 0x4E487B71 PUSH1 0xE0 SHL PUSH1 0x0 MSTORE PUSH1 0x22 PUSH1 0x4 MSTORE PUSH1 0x24 PUSH1 0x0 REVERT JUMPDEST POP SWAP2 SWAP1 POP JUMP JUMPDEST PUSH4 0x4E487B71 PUSH1 0xE0 SHL PUSH1 0x0 MSTORE PUSH1 0x32 PUSH1 0x4 MSTORE PUSH1 0x24 PUSH1 0x0 REVERT JUMPDEST PUSH1 0x0 DUP3 CALLDATALOAD PUSH2 0x13E NOT DUP4 CALLDATASIZE SUB ADD DUP2 SLT PUSH2 0x3A8D JUMPI PUSH1 0x0 DUP1 REVERT JUMPDEST DUP1 DUP3 MUL DUP2 ISZERO DUP3 DUP3 DIV DUP5 EQ OR PUSH2 0x2371 JUMPI PUSH2 0x2371 PUSH2 0x39E5 JUMP JUMPDEST DUP1 ISZERO ISZERO DUP2 EQ PUSH2 0x19B9 JUMPI PUSH1 0x0 DUP1 REVERT JUMPDEST PUSH1 0x0 PUSH1 0x20 DUP3 DUP5 SUB SLT ISZERO PUSH2 0x3B35 JUMPI PUSH1 0x0 DUP1 REVERT JUMPDEST DUP2 MLOAD PUSH2 0x34D8 DUP2 PUSH2 0x3B15 JUMP JUMPDEST PUSH1 0x1F DUP3 GT ISZERO PUSH2 0x3B86 JUMPI PUSH1 0x0 DUP2 DUP2 MSTORE PUSH1 0x20 DUP2 KECCAK256 PUSH1 0x1F DUP6 ADD PUSH1 0x5 SHR DUP2 ADD PUSH1 0x20 DUP7 LT ISZERO PUSH2 0x3B67 JUMPI POP DUP1 JUMPDEST PUSH1 0x1F DUP6 ADD PUSH1 0x5 SHR DUP3 ADD SWAP2 POP JUMPDEST DUP2 DUP2 LT ISZERO PUSH2 0x1020 JUMPI DUP3 DUP2 SSTORE PUSH1 0x1 ADD PUSH2 0x3B73 JUMP JUMPDEST POP POP POP JUMP JUMPDEST DUP2 MLOAD PUSH1 0x1 PUSH1 0x1 PUSH1 0x40 SHL SUB DUP2 GT ISZERO PUSH2 0x3BA4 JUMPI PUSH2 0x3BA4 PUSH2 0x2FD9 JUMP JUMPDEST PUSH2 0x3BB8 DUP2 PUSH2 0x3BB2 DUP5 SLOAD PUSH2 0x3A97 JUMP JUMPDEST DUP5 PUSH2 0x3B40 JUMP JUMPDEST PUSH1 0x20 DUP1 PUSH1 0x1F DUP4 GT PUSH1 0x1 DUP2 EQ PUSH2 0x3BED JUMPI PUSH1 0x0 DUP5 ISZERO PUSH2 0x3BD5 JUMPI POP DUP6 DUP4 ADD MLOAD JUMPDEST PUSH1 0x0 NOT PUSH1 0x3 DUP7 SWAP1 SHL SHR NOT AND PUSH1 0x1 DUP6 SWAP1 SHL OR DUP6 SSTORE PUSH2 0x1020 JUMP JUMPDEST PUSH1 0x0 DUP6 DUP2 MSTORE PUSH1 0x20 DUP2 KECCAK256 PUSH1 0x1F NOT DUP7 AND SWAP2 JUMPDEST DUP3 DUP2 LT ISZERO PUSH2 0x3C1C JUMPI DUP9 DUP7 ADD MLOAD DUP3 SSTORE SWAP5 DUP5 ADD SWAP5 PUSH1 0x1 SWAP1 SWAP2 ADD SWAP1 DUP5 ADD PUSH2 0x3BFD JUMP JUMPDEST POP DUP6 DUP3 LT ISZERO PUSH2 0x3C3A JUMPI DUP8 DUP6 ADD MLOAD PUSH1 0x0 NOT PUSH1 0x3 DUP9 SWAP1 SHL PUSH1 0xF8 AND SHR NOT AND DUP2 SSTORE JUMPDEST POP POP POP POP POP PUSH1 0x1 SWAP1 DUP2 SHL ADD SWAP1 SSTORE POP JUMP JUMPDEST PUSH1 0x0 DUP1 DUP4 CALLDATALOAD PUSH1 0x1E NOT DUP5 CALLDATASIZE SUB ADD DUP2 SLT PUSH2 0x3C61 JUMPI PUSH1 0x0 DUP1 REVERT JUMPDEST DUP4 ADD DUP1 CALLDATALOAD SWAP2 POP PUSH1 0x1 PUSH1 0x1 PUSH1 0x40 SHL SUB DUP3 GT ISZERO PUSH2 0x3C7B JUMPI PUSH1 0x0 DUP1 REVERT JUMPDEST PUSH1 0x20 ADD SWAP2 POP CALLDATASIZE DUP2 SWAP1 SUB DUP3 SGT ISZERO PUSH2 0x370C JUMPI PUSH1 0x0 DUP1 REVERT JUMPDEST PUSH1 0x0 DUP1 PUSH1 0x0 DUP1 PUSH1 0x80 DUP6 DUP8 SUB SLT ISZERO PUSH2 0x3CA6 JUMPI PUSH1 0x0 DUP1 REVERT JUMPDEST DUP5 CALLDATALOAD PUSH1 0x1 PUSH1 0x1 PUSH1 0x40 SHL SUB DUP1 DUP3 GT ISZERO PUSH2 0x3CBD JUMPI PUSH1 0x0 DUP1 REVERT JUMPDEST PUSH2 0x3CC9 DUP9 DUP4 DUP10 ADD PUSH2 0x301F JUMP JUMPDEST SWAP6 POP PUSH1 0x20 DUP8 ADD CALLDATALOAD SWAP5 POP PUSH1 0x40 DUP8 ADD CALLDATALOAD SWAP2 POP DUP1 DUP3 GT ISZERO PUSH2 0x3CE6 JUMPI PUSH1 0x0 DUP1 REVERT JUMPDEST PUSH2 0x3CF2 DUP9 DUP4 DUP10 ADD PUSH2 0x3195 JUMP JUMPDEST SWAP4 POP PUSH1 0x60 DUP8 ADD CALLDATALOAD SWAP2 POP DUP1 DUP3 GT ISZERO PUSH2 0x3D08 JUMPI PUSH1 0x0 DUP1 REVERT JUMPDEST POP PUSH2 0x3469 DUP8 DUP3 DUP9 ADD PUSH2 0x301F JUMP JUMPDEST DUP1 CALLDATALOAD PUSH1 0x1 PUSH1 0x1 PUSH1 0x40 SHL SUB DUP2 AND DUP2 EQ PUSH2 0x192A JUMPI PUSH1 0x0 DUP1 REVERT JUMPDEST DUP1 CALLDATALOAD PUSH2 0x192A DUP2 PUSH2 0x3B15 JUMP JUMPDEST PUSH1 0x0 DUP1 DUP4 CALLDATALOAD PUSH1 0x1E NOT DUP5 CALLDATASIZE SUB ADD DUP2 SLT PUSH2 0x3D4E JUMPI PUSH1 0x0 DUP1 REVERT JUMPDEST DUP4 ADD PUSH1 0x20 DUP2 ADD SWAP3 POP CALLDATALOAD SWAP1 POP PUSH1 0x1 PUSH1 0x1 PUSH1 0x40 SHL SUB DUP2 GT ISZERO PUSH2 0x3D6D JUMPI PUSH1 0x0 DUP1 REVERT JUMPDEST DUP1 CALLDATASIZE SUB DUP3 SGT ISZERO PUSH2 0x370C JUMPI PUSH1 0x0 DUP1 REVERT JUMPDEST DUP2 DUP4 MSTORE DUP2 DUP2 PUSH1 0x20 DUP6 ADD CALLDATACOPY POP PUSH1 0x0 DUP3 DUP3 ADD PUSH1 0x20 SWAP1 DUP2 ADD SWAP2 SWAP1 SWAP2 MSTORE PUSH1 0x1F SWAP1 SWAP2 ADD PUSH1 0x1F NOT AND SWAP1 SWAP2 ADD ADD SWAP1 JUMP JUMPDEST PUSH1 0x40 DUP2 MSTORE DUP3 CALLDATALOAD PUSH1 0x40 DUP3 ADD MSTORE PUSH1 0x20 DUP4 ADD CALLDATALOAD PUSH1 0x60 DUP3 ADD MSTORE PUSH1 0x0 PUSH2 0x3DC8 PUSH1 0x40 DUP6 ADD PUSH2 0x3D15 JUMP JUMPDEST PUSH1 0x1 PUSH1 0x1 PUSH1 0x40 SHL SUB AND PUSH1 0x80 DUP4 ADD MSTORE PUSH2 0x3DE2 PUSH1 0x60 DUP6 ADD PUSH2 0x3D15 JUMP JUMPDEST PUSH1 0x1 PUSH1 0x1 PUSH1 0x40 SHL SUB AND PUSH1 0xA0 DUP4 ADD MSTORE PUSH2 0x3DFC PUSH1 0x80 DUP6 ADD PUSH2 0x3D15 JUMP JUMPDEST PUSH1 0x1 PUSH1 0x1 PUSH1 0x40 SHL SUB DUP2 AND PUSH1 0xC0 DUP5 ADD MSTORE POP PUSH1 0xA0 DUP5 ADD CALLDATALOAD PUSH1 0xE0 DUP4 ADD MSTORE PUSH2 0x3E22 PUSH1 0xC0 DUP6 ADD PUSH2 0x30B1 JUMP JUMPDEST PUSH2 0x100 PUSH2 0x3E39 DUP2 DUP6 ADD DUP4 PUSH1 0x1 PUSH1 0x1 PUSH1 0xA0 SHL SUB AND SWAP1 MSTORE JUMP JUMPDEST PUSH2 0x3E45 PUSH1 0xE0 DUP8 ADD PUSH2 0x30B1 JUMP JUMPDEST SWAP2 POP PUSH2 0x120 PUSH2 0x3E5E DUP2 DUP7 ADD DUP5 PUSH1 0x1 PUSH1 0x1 PUSH1 0xA0 SHL SUB AND SWAP1 MSTORE JUMP JUMPDEST PUSH2 0x3E69 DUP3 DUP9 ADD PUSH2 0x3D2C JUMP JUMPDEST SWAP3 POP PUSH2 0x140 SWAP2 POP PUSH2 0x3E7D DUP3 DUP7 ADD DUP5 ISZERO ISZERO SWAP1 MSTORE JUMP JUMPDEST PUSH2 0x3E89 DUP2 DUP9 ADD DUP9 PUSH2 0x3D37 JUMP JUMPDEST SWAP4 POP SWAP1 POP DUP2 PUSH2 0x160 DUP7 ADD MSTORE PUSH2 0x3EA3 PUSH2 0x180 DUP7 ADD DUP5 DUP4 PUSH2 0x3D7C JUMP JUMPDEST SWAP3 POP POP POP DUP3 DUP2 SUB PUSH1 0x20 DUP5 ADD MSTORE PUSH2 0x3EB9 DUP2 DUP6 PUSH2 0x3499 JUMP JUMPDEST SWAP6 SWAP5 POP POP POP POP POP JUMP JUMPDEST PUSH1 0x0 PUSH1 0x1 DUP3 ADD PUSH2 0x3ED4 JUMPI PUSH2 0x3ED4 PUSH2 0x39E5 JUMP JUMPDEST POP PUSH1 0x1 ADD SWAP1 JUMP JUMPDEST PUSH1 0x0 DUP1 DUP4 SLOAD PUSH2 0x3EE9 DUP2 PUSH2 0x3A97 JUMP JUMPDEST PUSH1 0x1 DUP3 DUP2 AND DUP1 ISZERO PUSH2 0x3F01 JUMPI PUSH1 0x1 DUP2 EQ PUSH2 0x3F16 JUMPI PUSH2 0x3F45 JUMP JUMPDEST PUSH1 0xFF NOT DUP5 AND DUP8 MSTORE DUP3 ISZERO ISZERO DUP4 MUL DUP8 ADD SWAP5 POP PUSH2 0x3F45 JUMP JUMPDEST DUP8 PUSH1 0x0 MSTORE PUSH1 0x20 DUP1 PUSH1 0x0 KECCAK256 PUSH1 0x0 JUMPDEST DUP6 DUP2 LT ISZERO PUSH2 0x3F3C JUMPI DUP2 SLOAD DUP11 DUP3 ADD MSTORE SWAP1 DUP5 ADD SWAP1 DUP3 ADD PUSH2 0x3F23 JUMP JUMPDEST POP POP POP DUP3 DUP8 ADD SWAP5 POP JUMPDEST POP SWAP3 SWAP7 SWAP6 POP POP POP POP POP POP JUMP INVALID LOG2 PUSH5 0x6970667358 0x22 SLT KECCAK256 0xD4 0x24 SGT STOP 0xB4 COINBASE BYTE 0xB1 PUSH17 0x60D12DC2AA643536AB27D0993FE2012D00 RETURN CALLDATACOPY 0x4F TIMESTAMP JUMPDEST 0xAC PUSH5 0x736F6C6343 STOP ADDMOD SGT STOP CALLER "
		},
		"gasEstimates": {
			"creation": {
				"codeDepositCost": "3252600",
				"executionCost": "infinite",
				"totalCost": "infinite"
			},
			"external": {
				"attest((bytes32,bytes32,uint64,uint64,uint64,bytes32,address,address,bool,bytes))": "infinite",
				"callbackContract()": "2448",
				"closeReviewRequest(string)": "infinite",
				"contractVersion()": "infinite",
				"createNonPayableRequest(string,address[],uint256[],string[],string,uint256)": "infinite",
				"createRequest(string,address[],uint256[],string[],string,uint256,address,uint256)": "infinite",
				"createReviewForm(bytes32,string[],string[][],uint8[])": "infinite",
				"getRequest(string)": "infinite",
				"getRequestReviewForm(string)": "infinite",
				"getReviewForm(uint256)": "infinite",
				"getReviewRequestsNames()": "infinite",
				"isPayable()": "265",
				"isTokenWhitelisted(address)": "2598",
				"multiAttest((bytes32,bytes32,uint64,uint64,uint64,bytes32,address,address,bool,bytes)[],uint256[])": "infinite",
				"multiRevoke((bytes32,bytes32,uint64,uint64,uint64,bytes32,address,address,bool,bytes)[],uint256[])": "infinite",
				"owner()": "2431",
				"pause()": "28748",
				"paused()": "2422",
				"renounceOwnership()": "infinite",
				"reviewFormsTotal()": "2351",
				"revoke((bytes32,bytes32,uint64,uint64,uint64,bytes32,address,address,bool,bytes))": "infinite",
				"setCallbackContract(address)": "26803",
				"transferOwnership(address)": "28443",
				"unpause()": "26594",
				"unwhitelistToken(address)": "26857",
				"version()": "infinite",
				"whitelistToken(address)": "26908"
			},
			"internal": {
				"createReviewRequestCommon(string memory,address[] memory,uint256[] memory,string memory[] memory,string memory,uint256,uint256,address,bool)": "infinite",
				"hasSubmittedReview(address,string memory,uint256)": "infinite",
				"isReviewer(address,string memory)": "infinite",
				"onAttest(struct Attestation calldata,uint256)": "infinite",
				"onRevoke(struct Attestation calldata,uint256)": "23",
				"validateAnswers(struct DeresyResolver.reviewForm storage pointer,string memory[] memory)": "infinite",
				"validateHypercertID(uint256[] memory,uint256)": "infinite"
			}
		},
		"methodIdentifiers": {
			"attest((bytes32,bytes32,uint64,uint64,uint64,bytes32,address,address,bool,bytes))": "e60c3505",
			"callbackContract()": "bd7e2aa4",
			"closeReviewRequest(string)": "be2761d0",
			"contractVersion()": "a0a8e460",
			"createNonPayableRequest(string,address[],uint256[],string[],string,uint256)": "a940b874",
			"createRequest(string,address[],uint256[],string[],string,uint256,address,uint256)": "20de0462",
			"createReviewForm(bytes32,string[],string[][],uint8[])": "30940523",
			"getRequest(string)": "85b92413",
			"getRequestReviewForm(string)": "b4e137cd",
			"getReviewForm(uint256)": "b6fc76af",
			"getReviewRequestsNames()": "dd526054",
			"isPayable()": "ce46e046",
			"isTokenWhitelisted(address)": "b5af090f",
			"multiAttest((bytes32,bytes32,uint64,uint64,uint64,bytes32,address,address,bool,bytes)[],uint256[])": "91db0b7e",
			"multiRevoke((bytes32,bytes32,uint64,uint64,uint64,bytes32,address,address,bool,bytes)[],uint256[])": "88e5b2d9",
			"owner()": "8da5cb5b",
			"pause()": "8456cb59",
			"paused()": "5c975abb",
			"renounceOwnership()": "715018a6",
			"reviewFormsTotal()": "86be6d51",
			"revoke((bytes32,bytes32,uint64,uint64,uint64,bytes32,address,address,bool,bytes))": "e49617e1",
			"setCallbackContract(address)": "7a35aaa9",
			"transferOwnership(address)": "f2fde38b",
			"unpause()": "3f4ba83a",
			"unwhitelistToken(address)": "d627d25e",
			"version()": "54fd4d50",
			"whitelistToken(address)": "6247f6f2"
		}
	},
	"abi": [
		{
			"inputs": [
				{
					"internalType": "contract IEAS",
					"name": "eas",
					"type": "address"
				}
			],
			"stateMutability": "nonpayable",
			"type": "constructor"
		},
		{
			"inputs": [],
			"name": "AccessDenied",
			"type": "error"
		},
		{
			"inputs": [],
			"name": "InsufficientValue",
			"type": "error"
		},
		{
			"inputs": [],
			"name": "InvalidEAS",
			"type": "error"
		},
		{
			"inputs": [],
			"name": "NotPayable",
			"type": "error"
		},
		{
			"anonymous": false,
			"inputs": [
				{
					"indexed": false,
					"internalType": "string",
					"name": "_requestName",
					"type": "string"
				}
			],
			"name": "ClosedReviewRequest",
			"type": "event"
		},
		{
			"anonymous": false,
			"inputs": [
				{
					"indexed": false,
					"internalType": "uint256",
					"name": "_formId",
					"type": "uint256"
				}
			],
			"name": "CreatedReviewForm",
			"type": "event"
		},
		{
			"anonymous": false,
			"inputs": [
				{
					"indexed": false,
					"internalType": "string",
					"name": "_requestName",
					"type": "string"
				}
			],
			"name": "CreatedReviewRequest",
			"type": "event"
		},
		{
			"anonymous": false,
			"inputs": [
				{
					"components": [
						{
							"internalType": "bytes32",
							"name": "uid",
							"type": "bytes32"
						},
						{
							"internalType": "bytes32",
							"name": "schema",
							"type": "bytes32"
						},
						{
							"internalType": "uint64",
							"name": "time",
							"type": "uint64"
						},
						{
							"internalType": "uint64",
							"name": "expirationTime",
							"type": "uint64"
						},
						{
							"internalType": "uint64",
							"name": "revocationTime",
							"type": "uint64"
						},
						{
							"internalType": "bytes32",
							"name": "refUID",
							"type": "bytes32"
						},
						{
							"internalType": "address",
							"name": "recipient",
							"type": "address"
						},
						{
							"internalType": "address",
							"name": "attester",
							"type": "address"
						},
						{
							"internalType": "bool",
							"name": "revocable",
							"type": "bool"
						},
						{
							"internalType": "bytes",
							"name": "data",
							"type": "bytes"
						}
					],
					"indexed": false,
					"internalType": "struct Attestation",
					"name": "_attestation",
					"type": "tuple"
				},
				{
					"indexed": false,
					"internalType": "string",
					"name": "_requestName",
					"type": "string"
				}
			],
			"name": "OnReviewCallback",
			"type": "event"
		},
		{
			"anonymous": false,
			"inputs": [
				{
					"indexed": true,
					"internalType": "address",
					"name": "previousOwner",
					"type": "address"
				},
				{
					"indexed": true,
					"internalType": "address",
					"name": "newOwner",
					"type": "address"
				}
			],
			"name": "OwnershipTransferred",
			"type": "event"
		},
		{
			"anonymous": false,
			"inputs": [
				{
					"indexed": false,
					"internalType": "string",
					"name": "_requestName",
					"type": "string"
				}
			],
			"name": "SubmittedReview",
			"type": "event"
		},
		{
			"inputs": [
				{
					"components": [
						{
							"internalType": "bytes32",
							"name": "uid",
							"type": "bytes32"
						},
						{
							"internalType": "bytes32",
							"name": "schema",
							"type": "bytes32"
						},
						{
							"internalType": "uint64",
							"name": "time",
							"type": "uint64"
						},
						{
							"internalType": "uint64",
							"name": "expirationTime",
							"type": "uint64"
						},
						{
							"internalType": "uint64",
							"name": "revocationTime",
							"type": "uint64"
						},
						{
							"internalType": "bytes32",
							"name": "refUID",
							"type": "bytes32"
						},
						{
							"internalType": "address",
							"name": "recipient",
							"type": "address"
						},
						{
							"internalType": "address",
							"name": "attester",
							"type": "address"
						},
						{
							"internalType": "bool",
							"name": "revocable",
							"type": "bool"
						},
						{
							"internalType": "bytes",
							"name": "data",
							"type": "bytes"
						}
					],
					"internalType": "struct Attestation",
					"name": "attestation",
					"type": "tuple"
				}
			],
			"name": "attest",
			"outputs": [
				{
					"internalType": "bool",
					"name": "",
					"type": "bool"
				}
			],
			"stateMutability": "payable",
			"type": "function"
		},
		{
			"inputs": [],
			"name": "callbackContract",
			"outputs": [
				{
					"internalType": "contract IOnReviewable",
					"name": "",
					"type": "address"
				}
			],
			"stateMutability": "view",
			"type": "function"
		},
		{
			"inputs": [
				{
					"internalType": "string",
					"name": "_name",
					"type": "string"
				}
			],
			"name": "closeReviewRequest",
			"outputs": [],
			"stateMutability": "nonpayable",
			"type": "function"
		},
		{
			"inputs": [],
			"name": "contractVersion",
			"outputs": [
				{
					"internalType": "string",
					"name": "",
					"type": "string"
				}
			],
			"stateMutability": "view",
			"type": "function"
		},
		{
			"inputs": [
				{
					"internalType": "string",
					"name": "_name",
					"type": "string"
				},
				{
					"internalType": "address[]",
					"name": "reviewers",
					"type": "address[]"
				},
				{
					"internalType": "uint256[]",
					"name": "hypercertIDs",
					"type": "uint256[]"
				},
				{
					"internalType": "string[]",
					"name": "hypercertIPFSHashes",
					"type": "string[]"
				},
				{
					"internalType": "string",
					"name": "formIpfsHash",
					"type": "string"
				},
				{
					"internalType": "uint256",
					"name": "reviewFormIndex",
					"type": "uint256"
				}
			],
			"name": "createNonPayableRequest",
			"outputs": [],
			"stateMutability": "nonpayable",
			"type": "function"
		},
		{
			"inputs": [
				{
					"internalType": "string",
					"name": "_name",
					"type": "string"
				},
				{
					"internalType": "address[]",
					"name": "reviewers",
					"type": "address[]"
				},
				{
					"internalType": "uint256[]",
					"name": "hypercertIDs",
					"type": "uint256[]"
				},
				{
					"internalType": "string[]",
					"name": "hypercertIPFSHashes",
					"type": "string[]"
				},
				{
					"internalType": "string",
					"name": "formIpfsHash",
					"type": "string"
				},
				{
					"internalType": "uint256",
					"name": "rewardPerReview",
					"type": "uint256"
				},
				{
					"internalType": "address",
					"name": "paymentTokenAddress",
					"type": "address"
				},
				{
					"internalType": "uint256",
					"name": "reviewFormIndex",
					"type": "uint256"
				}
			],
			"name": "createRequest",
			"outputs": [],
			"stateMutability": "payable",
			"type": "function"
		},
		{
			"inputs": [
				{
					"internalType": "bytes32",
					"name": "easSchemaID",
					"type": "bytes32"
				},
				{
					"internalType": "string[]",
					"name": "questions",
					"type": "string[]"
				},
				{
					"internalType": "string[][]",
					"name": "choices",
					"type": "string[][]"
				},
				{
					"internalType": "enum DeresyResolver.QuestionType[]",
					"name": "questionTypes",
					"type": "uint8[]"
				}
			],
			"name": "createReviewForm",
			"outputs": [
				{
					"internalType": "uint256",
					"name": "",
					"type": "uint256"
				}
			],
			"stateMutability": "nonpayable",
			"type": "function"
		},
		{
			"inputs": [
				{
					"internalType": "string",
					"name": "_name",
					"type": "string"
				}
			],
			"name": "getRequest",
			"outputs": [
				{
					"internalType": "address[]",
					"name": "reviewers",
					"type": "address[]"
				},
				{
					"internalType": "uint256[]",
					"name": "hypercertIDs",
					"type": "uint256[]"
				},
				{
					"internalType": "string[]",
					"name": "hypercertIPFSHashes",
					"type": "string[]"
				},
				{
					"internalType": "string",
					"name": "formIpfsHash",
					"type": "string"
				},
				{
					"internalType": "uint256",
					"name": "rewardPerReview",
					"type": "uint256"
				},
				{
					"components": [
						{
							"internalType": "address",
							"name": "reviewer",
							"type": "address"
						},
						{
							"internalType": "uint256",
							"name": "hypercertID",
							"type": "uint256"
						},
						{
							"internalType": "bytes32",
							"name": "attestationID",
							"type": "bytes32"
						}
					],
					"internalType": "struct DeresyResolver.Review[]",
					"name": "reviews",
					"type": "tuple[]"
				},
				{
					"internalType": "uint256",
					"name": "reviewFormIndex",
					"type": "uint256"
				},
				{
					"internalType": "bool",
					"name": "isClosed",
					"type": "bool"
				}
			],
			"stateMutability": "view",
			"type": "function"
		},
		{
			"inputs": [
				{
					"internalType": "string",
					"name": "_name",
					"type": "string"
				}
			],
			"name": "getRequestReviewForm",
			"outputs": [
				{
					"internalType": "string[]",
					"name": "",
					"type": "string[]"
				},
				{
					"internalType": "enum DeresyResolver.QuestionType[]",
					"name": "",
					"type": "uint8[]"
				},
				{
					"internalType": "string[][]",
					"name": "choices",
					"type": "string[][]"
				},
				{
					"internalType": "bytes32",
					"name": "",
					"type": "bytes32"
				}
			],
			"stateMutability": "view",
			"type": "function"
		},
		{
			"inputs": [
				{
					"internalType": "uint256",
					"name": "_reviewFormIndex",
					"type": "uint256"
				}
			],
			"name": "getReviewForm",
			"outputs": [
				{
					"internalType": "string[]",
					"name": "questions",
					"type": "string[]"
				},
				{
					"internalType": "enum DeresyResolver.QuestionType[]",
					"name": "questionTypes",
					"type": "uint8[]"
				},
				{
					"internalType": "string[][]",
					"name": "choices",
					"type": "string[][]"
				},
				{
					"internalType": "bytes32",
					"name": "easSchemaID",
					"type": "bytes32"
				}
			],
			"stateMutability": "view",
			"type": "function"
		},
		{
			"inputs": [],
			"name": "getReviewRequestsNames",
			"outputs": [
				{
					"internalType": "string[]",
					"name": "",
					"type": "string[]"
				}
			],
			"stateMutability": "view",
			"type": "function"
		},
		{
			"inputs": [],
			"name": "isPayable",
			"outputs": [
				{
					"internalType": "bool",
					"name": "",
					"type": "bool"
				}
			],
			"stateMutability": "pure",
			"type": "function"
		},
		{
			"inputs": [
				{
					"internalType": "address",
					"name": "",
					"type": "address"
				}
			],
			"name": "isTokenWhitelisted",
			"outputs": [
				{
					"internalType": "bool",
					"name": "",
					"type": "bool"
				}
			],
			"stateMutability": "view",
			"type": "function"
		},
		{
			"inputs": [
				{
					"components": [
						{
							"internalType": "bytes32",
							"name": "uid",
							"type": "bytes32"
						},
						{
							"internalType": "bytes32",
							"name": "schema",
							"type": "bytes32"
						},
						{
							"internalType": "uint64",
							"name": "time",
							"type": "uint64"
						},
						{
							"internalType": "uint64",
							"name": "expirationTime",
							"type": "uint64"
						},
						{
							"internalType": "uint64",
							"name": "revocationTime",
							"type": "uint64"
						},
						{
							"internalType": "bytes32",
							"name": "refUID",
							"type": "bytes32"
						},
						{
							"internalType": "address",
							"name": "recipient",
							"type": "address"
						},
						{
							"internalType": "address",
							"name": "attester",
							"type": "address"
						},
						{
							"internalType": "bool",
							"name": "revocable",
							"type": "bool"
						},
						{
							"internalType": "bytes",
							"name": "data",
							"type": "bytes"
						}
					],
					"internalType": "struct Attestation[]",
					"name": "attestations",
					"type": "tuple[]"
				},
				{
					"internalType": "uint256[]",
					"name": "values",
					"type": "uint256[]"
				}
			],
			"name": "multiAttest",
			"outputs": [
				{
					"internalType": "bool",
					"name": "",
					"type": "bool"
				}
			],
			"stateMutability": "payable",
			"type": "function"
		},
		{
			"inputs": [
				{
					"components": [
						{
							"internalType": "bytes32",
							"name": "uid",
							"type": "bytes32"
						},
						{
							"internalType": "bytes32",
							"name": "schema",
							"type": "bytes32"
						},
						{
							"internalType": "uint64",
							"name": "time",
							"type": "uint64"
						},
						{
							"internalType": "uint64",
							"name": "expirationTime",
							"type": "uint64"
						},
						{
							"internalType": "uint64",
							"name": "revocationTime",
							"type": "uint64"
						},
						{
							"internalType": "bytes32",
							"name": "refUID",
							"type": "bytes32"
						},
						{
							"internalType": "address",
							"name": "recipient",
							"type": "address"
						},
						{
							"internalType": "address",
							"name": "attester",
							"type": "address"
						},
						{
							"internalType": "bool",
							"name": "revocable",
							"type": "bool"
						},
						{
							"internalType": "bytes",
							"name": "data",
							"type": "bytes"
						}
					],
					"internalType": "struct Attestation[]",
					"name": "attestations",
					"type": "tuple[]"
				},
				{
					"internalType": "uint256[]",
					"name": "values",
					"type": "uint256[]"
				}
			],
			"name": "multiRevoke",
			"outputs": [
				{
					"internalType": "bool",
					"name": "",
					"type": "bool"
				}
			],
			"stateMutability": "payable",
			"type": "function"
		},
		{
			"inputs": [],
			"name": "owner",
			"outputs": [
				{
					"internalType": "address",
					"name": "",
					"type": "address"
				}
			],
			"stateMutability": "view",
			"type": "function"
		},
		{
			"inputs": [],
			"name": "pause",
			"outputs": [],
			"stateMutability": "nonpayable",
			"type": "function"
		},
		{
			"inputs": [],
			"name": "paused",
			"outputs": [
				{
					"internalType": "bool",
					"name": "",
					"type": "bool"
				}
			],
			"stateMutability": "view",
			"type": "function"
		},
		{
			"inputs": [],
			"name": "renounceOwnership",
			"outputs": [],
			"stateMutability": "nonpayable",
			"type": "function"
		},
		{
			"inputs": [],
			"name": "reviewFormsTotal",
			"outputs": [
				{
					"internalType": "uint256",
					"name": "",
					"type": "uint256"
				}
			],
			"stateMutability": "view",
			"type": "function"
		},
		{
			"inputs": [
				{
					"components": [
						{
							"internalType": "bytes32",
							"name": "uid",
							"type": "bytes32"
						},
						{
							"internalType": "bytes32",
							"name": "schema",
							"type": "bytes32"
						},
						{
							"internalType": "uint64",
							"name": "time",
							"type": "uint64"
						},
						{
							"internalType": "uint64",
							"name": "expirationTime",
							"type": "uint64"
						},
						{
							"internalType": "uint64",
							"name": "revocationTime",
							"type": "uint64"
						},
						{
							"internalType": "bytes32",
							"name": "refUID",
							"type": "bytes32"
						},
						{
							"internalType": "address",
							"name": "recipient",
							"type": "address"
						},
						{
							"internalType": "address",
							"name": "attester",
							"type": "address"
						},
						{
							"internalType": "bool",
							"name": "revocable",
							"type": "bool"
						},
						{
							"internalType": "bytes",
							"name": "data",
							"type": "bytes"
						}
					],
					"internalType": "struct Attestation",
					"name": "attestation",
					"type": "tuple"
				}
			],
			"name": "revoke",
			"outputs": [
				{
					"internalType": "bool",
					"name": "",
					"type": "bool"
				}
			],
			"stateMutability": "payable",
			"type": "function"
		},
		{
			"inputs": [
				{
					"internalType": "address",
					"name": "_callbackContractAddress",
					"type": "address"
				}
			],
			"name": "setCallbackContract",
			"outputs": [],
			"stateMutability": "nonpayable",
			"type": "function"
		},
		{
			"inputs": [
				{
					"internalType": "address",
					"name": "newOwner",
					"type": "address"
				}
			],
			"name": "transferOwnership",
			"outputs": [],
			"stateMutability": "nonpayable",
			"type": "function"
		},
		{
			"inputs": [],
			"name": "unpause",
			"outputs": [],
			"stateMutability": "nonpayable",
			"type": "function"
		},
		{
			"inputs": [
				{
					"internalType": "address",
					"name": "tokenAddress",
					"type": "address"
				}
			],
			"name": "unwhitelistToken",
			"outputs": [],
			"stateMutability": "nonpayable",
			"type": "function"
		},
		{
			"inputs": [],
			"name": "version",
			"outputs": [
				{
					"internalType": "string",
					"name": "",
					"type": "string"
				}
			],
			"stateMutability": "view",
			"type": "function"
		},
		{
			"inputs": [
				{
					"internalType": "address",
					"name": "tokenAddress",
					"type": "address"
				}
			],
			"name": "whitelistToken",
			"outputs": [],
			"stateMutability": "nonpayable",
			"type": "function"
		},
		{
			"stateMutability": "payable",
			"type": "receive"
		}
	]
}