{
  "contractName": "AttesterResolver",
  "abi": [
    {
      "inputs": [
        {
          "internalType": "contract IEAS",
          "name": "eas",
          "type": "address"
        },
        {
          "internalType": "address",
          "name": "targetAttester",
          "type": "address"
        }
      ],
      "stateMutability": "nonpayable",
      "type": "constructor"
    },
    {
      "inputs": [],
      "name": "AccessDenied",
      "type": "error"
    },
    {
      "inputs": [],
      "name": "InsufficientValue",
      "type": "error"
    },
    {
      "inputs": [],
      "name": "InvalidEAS",
      "type": "error"
    },
    {
      "inputs": [],
      "name": "NotPayable",
      "type": "error"
    },
    {
      "inputs": [
        {
          "components": [
            {
              "internalType": "bytes32",
              "name": "uid",
              "type": "bytes32"
            },
            {
              "internalType": "bytes32",
              "name": "schema",
              "type": "bytes32"
            },
            {
              "internalType": "uint64",
              "name": "time",
              "type": "uint64"
            },
            {
              "internalType": "uint64",
              "name": "expirationTime",
              "type": "uint64"
            },
            {
              "internalType": "uint64",
              "name": "revocationTime",
              "type": "uint64"
            },
            {
              "internalType": "bytes32",
              "name": "refUID",
              "type": "bytes32"
            },
            {
              "internalType": "address",
              "name": "recipient",
              "type": "address"
            },
            {
              "internalType": "address",
              "name": "attester",
              "type": "address"
            },
            {
              "internalType": "bool",
              "name": "revocable",
              "type": "bool"
            },
            {
              "internalType": "bytes",
              "name": "data",
              "type": "bytes"
            }
          ],
          "internalType": "struct Attestation",
          "name": "attestation",
          "type": "tuple"
        }
      ],
      "name": "attest",
      "outputs": [
        {
          "internalType": "bool",
          "name": "",
          "type": "bool"
        }
      ],
      "stateMutability": "payable",
      "type": "function",
      "payable": true
    },
    {
      "inputs": [],
      "name": "isPayable",
      "outputs": [
        {
          "internalType": "bool",
          "name": "",
          "type": "bool"
        }
      ],
      "stateMutability": "pure",
      "type": "function",
      "constant": true
    },
    {
      "inputs": [
        {
          "components": [
            {
              "internalType": "bytes32",
              "name": "uid",
              "type": "bytes32"
            },
            {
              "internalType": "bytes32",
              "name": "schema",
              "type": "bytes32"
            },
            {
              "internalType": "uint64",
              "name": "time",
              "type": "uint64"
            },
            {
              "internalType": "uint64",
              "name": "expirationTime",
              "type": "uint64"
            },
            {
              "internalType": "uint64",
              "name": "revocationTime",
              "type": "uint64"
            },
            {
              "internalType": "bytes32",
              "name": "refUID",
              "type": "bytes32"
            },
            {
              "internalType": "address",
              "name": "recipient",
              "type": "address"
            },
            {
              "internalType": "address",
              "name": "attester",
              "type": "address"
            },
            {
              "internalType": "bool",
              "name": "revocable",
              "type": "bool"
            },
            {
              "internalType": "bytes",
              "name": "data",
              "type": "bytes"
            }
          ],
          "internalType": "struct Attestation[]",
          "name": "attestations",
          "type": "tuple[]"
        },
        {
          "internalType": "uint256[]",
          "name": "values",
          "type": "uint256[]"
        }
      ],
      "name": "multiAttest",
      "outputs": [
        {
          "internalType": "bool",
          "name": "",
          "type": "bool"
        }
      ],
      "stateMutability": "payable",
      "type": "function",
      "payable": true
    },
    {
      "inputs": [
        {
          "components": [
            {
              "internalType": "bytes32",
              "name": "uid",
              "type": "bytes32"
            },
            {
              "internalType": "bytes32",
              "name": "schema",
              "type": "bytes32"
            },
            {
              "internalType": "uint64",
              "name": "time",
              "type": "uint64"
            },
            {
              "internalType": "uint64",
              "name": "expirationTime",
              "type": "uint64"
            },
            {
              "internalType": "uint64",
              "name": "revocationTime",
              "type": "uint64"
            },
            {
              "internalType": "bytes32",
              "name": "refUID",
              "type": "bytes32"
            },
            {
              "internalType": "address",
              "name": "recipient",
              "type": "address"
            },
            {
              "internalType": "address",
              "name": "attester",
              "type": "address"
            },
            {
              "internalType": "bool",
              "name": "revocable",
              "type": "bool"
            },
            {
              "internalType": "bytes",
              "name": "data",
              "type": "bytes"
            }
          ],
          "internalType": "struct Attestation[]",
          "name": "attestations",
          "type": "tuple[]"
        },
        {
          "internalType": "uint256[]",
          "name": "values",
          "type": "uint256[]"
        }
      ],
      "name": "multiRevoke",
      "outputs": [
        {
          "internalType": "bool",
          "name": "",
          "type": "bool"
        }
      ],
      "stateMutability": "payable",
      "type": "function",
      "payable": true
    },
    {
      "inputs": [
        {
          "components": [
            {
              "internalType": "bytes32",
              "name": "uid",
              "type": "bytes32"
            },
            {
              "internalType": "bytes32",
              "name": "schema",
              "type": "bytes32"
            },
            {
              "internalType": "uint64",
              "name": "time",
              "type": "uint64"
            },
            {
              "internalType": "uint64",
              "name": "expirationTime",
              "type": "uint64"
            },
            {
              "internalType": "uint64",
              "name": "revocationTime",
              "type": "uint64"
            },
            {
              "internalType": "bytes32",
              "name": "refUID",
              "type": "bytes32"
            },
            {
              "internalType": "address",
              "name": "recipient",
              "type": "address"
            },
            {
              "internalType": "address",
              "name": "attester",
              "type": "address"
            },
            {
              "internalType": "bool",
              "name": "revocable",
              "type": "bool"
            },
            {
              "internalType": "bytes",
              "name": "data",
              "type": "bytes"
            }
          ],
          "internalType": "struct Attestation",
          "name": "attestation",
          "type": "tuple"
        }
      ],
      "name": "revoke",
      "outputs": [
        {
          "internalType": "bool",
          "name": "",
          "type": "bool"
        }
      ],
      "stateMutability": "payable",
      "type": "function",
      "payable": true
    },
    {
      "inputs": [],
      "name": "version",
      "outputs": [
        {
          "internalType": "string",
          "name": "",
          "type": "string"
        }
      ],
      "stateMutability": "view",
      "type": "function",
      "constant": true
    },
    {
      "stateMutability": "payable",
      "type": "receive",
      "payable": true
    },
    {
      "inputs": [
        {
          "internalType": "bytes32",
          "name": "attestationUid",
          "type": "bytes32"
        }
      ],
      "name": "getRequest",
      "outputs": [
        {
          "components": [
            {
              "internalType": "bytes32",
              "name": "uid",
              "type": "bytes32"
            },
            {
              "internalType": "bytes32",
              "name": "schema",
              "type": "bytes32"
            },
            {
              "internalType": "uint64",
              "name": "time",
              "type": "uint64"
            },
            {
              "internalType": "uint64",
              "name": "expirationTime",
              "type": "uint64"
            },
            {
              "internalType": "uint64",
              "name": "revocationTime",
              "type": "uint64"
            },
            {
              "internalType": "bytes32",
              "name": "refUID",
              "type": "bytes32"
            },
            {
              "internalType": "address",
              "name": "recipient",
              "type": "address"
            },
            {
              "internalType": "address",
              "name": "attester",
              "type": "address"
            },
            {
              "internalType": "bool",
              "name": "revocable",
              "type": "bool"
            },
            {
              "internalType": "bytes",
              "name": "data",
              "type": "bytes"
            }
          ],
          "internalType": "struct Attestation",
          "name": "",
          "type": "tuple"
        }
      ],
      "stateMutability": "view",
      "type": "function",
      "constant": true
    }
  ],
  "bytecode": "0x6101206040523480156200001257600080fd5b5060405162001c9f38038062001c9f8339818101604052810190620000389190620001e1565b81600160008082608081815250508160a081815250508060c08181525050505050600073ffffffffffffffffffffffffffffffffffffffff168173ffffffffffffffffffffffffffffffffffffffff1603620000c0576040517f83780ffe00000000000000000000000000000000000000000000000000000000815260040160405180910390fd5b8073ffffffffffffffffffffffffffffffffffffffff1660e08173ffffffffffffffffffffffffffffffffffffffff1681525050508073ffffffffffffffffffffffffffffffffffffffff166101008173ffffffffffffffffffffffffffffffffffffffff1681525050505062000228565b600080fd5b600073ffffffffffffffffffffffffffffffffffffffff82169050919050565b6000620001648262000137565b9050919050565b6000620001788262000157565b9050919050565b6200018a816200016b565b81146200019657600080fd5b50565b600081519050620001aa816200017f565b92915050565b620001bb8162000157565b8114620001c757600080fd5b50565b600081519050620001db81620001b0565b92915050565b60008060408385031215620001fb57620001fa62000132565b5b60006200020b8582860162000199565b92505060206200021e85828601620001ca565b9150509250929050565b60805160a05160c05160e05161010051611a326200026d600039600061087f015260006107b70152600061026f015260006102460152600061021d0152611a326000f3fe6080604052600436106100745760003560e01c8063ce46e0461161004e578063ce46e04614610149578063e49617e114610174578063e60c3505146101a4578063fb1e61ca146101d4576100b9565b806354fd4d50146100be57806388e5b2d9146100e957806391db0b7e14610119576100b9565b366100b957610081610211565b6100b7576040517f1574f9f300000000000000000000000000000000000000000000000000000000815260040160405180910390fd5b005b600080fd5b3480156100ca57600080fd5b506100d3610216565b6040516100e09190610b71565b60405180910390f35b61010360048036038101906100fe9190610c58565b6102b9565b6040516101109190610cf4565b60405180910390f35b610133600480360381019061012e9190610c58565b610398565b6040516101409190610cf4565b60405180910390f35b34801561015557600080fd5b5061015e610211565b60405161016b9190610cf4565b60405180910390f35b61018e60048036038101906101899190610d34565b610477565b60405161019b9190610cf4565b60405180910390f35b6101be60048036038101906101b99190610d34565b610492565b6040516101cb9190610cf4565b60405180910390f35b3480156101e057600080fd5b506101fb60048036038101906101f69190610db3565b6104ad565b6040516102089190610f91565b60405180910390f35b600090565b60606102417f00000000000000000000000000000000000000000000000000000000000000006106e7565b61026a7f00000000000000000000000000000000000000000000000000000000000000006106e7565b6102937f00000000000000000000000000000000000000000000000000000000000000006106e7565b6040516020016102a59392919061103b565b604051602081830303815290604052905090565b60006102c36107b5565b6000858590509050600034905060005b828110156103885760008686838181106102f0576102ef611082565b5b90506020020135905082811115610333576040517f1101129400000000000000000000000000000000000000000000000000000000815260040160405180910390fd5b61036189898481811061034957610348611082565b5b905060200281019061035b91906110c0565b8261083c565b610372576000945050505050610390565b80830392505061038181610848565b90506102d3565b506001925050505b949350505050565b60006103a26107b5565b6000858590509050600034905060005b828110156104675760008686838181106103cf576103ce611082565b5b90506020020135905082811115610412576040517f1101129400000000000000000000000000000000000000000000000000000000815260040160405180910390fd5b61044089898481811061042857610427611082565b5b905060200281019061043a91906110c0565b82610855565b61045157600094505050505061046f565b80830392505061046081610848565b90506103b2565b506001925050505b949350505050565b60006104816107b5565b61048b823461083c565b9050919050565b600061049c6107b5565b6104a68234610855565b9050919050565b6104b5610a39565b6000808381526020019081526020016000206040518061014001604052908160008201548152602001600182015481526020016002820160009054906101000a900467ffffffffffffffff1667ffffffffffffffff1667ffffffffffffffff1681526020016002820160089054906101000a900467ffffffffffffffff1667ffffffffffffffff1667ffffffffffffffff1681526020016002820160109054906101000a900467ffffffffffffffff1667ffffffffffffffff1667ffffffffffffffff168152602001600382015481526020016004820160009054906101000a900473ffffffffffffffffffffffffffffffffffffffff1673ffffffffffffffffffffffffffffffffffffffff1673ffffffffffffffffffffffffffffffffffffffff1681526020016005820160009054906101000a900473ffffffffffffffffffffffffffffffffffffffff1673ffffffffffffffffffffffffffffffffffffffff1673ffffffffffffffffffffffffffffffffffffffff1681526020016005820160149054906101000a900460ff1615151515815260200160068201805461065e90611118565b80601f016020809104026020016040519081016040528092919081815260200182805461068a90611118565b80156106d75780601f106106ac576101008083540402835291602001916106d7565b820191906000526020600020905b8154815290600101906020018083116106ba57829003601f168201915b5050505050815250509050919050565b6060600060016106f6846108e6565b01905060008167ffffffffffffffff81111561071557610714611149565b5b6040519080825280601f01601f1916602001820160405280156107475781602001600182028036833780820191505090505b509050600082602001820190505b6001156107aa578080600190039150507f3031323334353637383961626364656600000000000000000000000000000000600a86061a8153600a858161079e5761079d611178565b5b04945060008503610755575b819350505050919050565b7f000000000000000000000000000000000000000000000000000000000000000073ffffffffffffffffffffffffffffffffffffffff163373ffffffffffffffffffffffffffffffffffffffff161461083a576040517f4ca8886700000000000000000000000000000000000000000000000000000000815260040160405180910390fd5b565b60006001905092915050565b6000600182019050919050565b60008260008085600001358152602001908152602001600020818161087a91906119ac565b9050507f000000000000000000000000000000000000000000000000000000000000000073ffffffffffffffffffffffffffffffffffffffff168360e00160208101906108c791906119cf565b73ffffffffffffffffffffffffffffffffffffffff1614905092915050565b600080600090507a184f03e93ff9f4daa797ed6e38ed64bf6a1f0100000000000000008310610944577a184f03e93ff9f4daa797ed6e38ed64bf6a1f010000000000000000838161093a57610939611178565b5b0492506040810190505b6d04ee2d6d415b85acef81000000008310610981576d04ee2d6d415b85acef8100000000838161097757610976611178565b5b0492506020810190505b662386f26fc1000083106109b057662386f26fc1000083816109a6576109a5611178565b5b0492506010810190505b6305f5e10083106109d9576305f5e10083816109cf576109ce611178565b5b0492506008810190505b61271083106109fe5761271083816109f4576109f3611178565b5b0492506004810190505b60648310610a215760648381610a1757610a16611178565b5b0492506002810190505b600a8310610a30576001810190505b80915050919050565b6040518061014001604052806000801916815260200160008019168152602001600067ffffffffffffffff168152602001600067ffffffffffffffff168152602001600067ffffffffffffffff16815260200160008019168152602001600073ffffffffffffffffffffffffffffffffffffffff168152602001600073ffffffffffffffffffffffffffffffffffffffff168152602001600015158152602001606081525090565b600081519050919050565b600082825260208201905092915050565b60005b83811015610b1b578082015181840152602081019050610b00565b60008484015250505050565b6000601f19601f8301169050919050565b6000610b4382610ae1565b610b4d8185610aec565b9350610b5d818560208601610afd565b610b6681610b27565b840191505092915050565b60006020820190508181036000830152610b8b8184610b38565b905092915050565b600080fd5b600080fd5b600080fd5b600080fd5b600080fd5b60008083601f840112610bc257610bc1610b9d565b5b8235905067ffffffffffffffff811115610bdf57610bde610ba2565b5b602083019150836020820283011115610bfb57610bfa610ba7565b5b9250929050565b60008083601f840112610c1857610c17610b9d565b5b8235905067ffffffffffffffff811115610c3557610c34610ba2565b5b602083019150836020820283011115610c5157610c50610ba7565b5b9250929050565b60008060008060408587031215610c7257610c71610b93565b5b600085013567ffffffffffffffff811115610c9057610c8f610b98565b5b610c9c87828801610bac565b9450945050602085013567ffffffffffffffff811115610cbf57610cbe610b98565b5b610ccb87828801610c02565b925092505092959194509250565b60008115159050919050565b610cee81610cd9565b82525050565b6000602082019050610d096000830184610ce5565b92915050565b600080fd5b60006101408284031215610d2b57610d2a610d0f565b5b81905092915050565b600060208284031215610d4a57610d49610b93565b5b600082013567ffffffffffffffff811115610d6857610d67610b98565b5b610d7484828501610d14565b91505092915050565b6000819050919050565b610d9081610d7d565b8114610d9b57600080fd5b50565b600081359050610dad81610d87565b92915050565b600060208284031215610dc957610dc8610b93565b5b6000610dd784828501610d9e565b91505092915050565b610de981610d7d565b82525050565b600067ffffffffffffffff82169050919050565b610e0c81610def565b82525050565b600073ffffffffffffffffffffffffffffffffffffffff82169050919050565b6000610e3d82610e12565b9050919050565b610e4d81610e32565b82525050565b610e5c81610cd9565b82525050565b600081519050919050565b600082825260208201905092915050565b6000610e8982610e62565b610e938185610e6d565b9350610ea3818560208601610afd565b610eac81610b27565b840191505092915050565b600061014083016000830151610ed06000860182610de0565b506020830151610ee36020860182610de0565b506040830151610ef66040860182610e03565b506060830151610f096060860182610e03565b506080830151610f1c6080860182610e03565b5060a0830151610f2f60a0860182610de0565b5060c0830151610f4260c0860182610e44565b5060e0830151610f5560e0860182610e44565b50610100830151610f6a610100860182610e53565b50610120830151848203610120860152610f848282610e7e565b9150508091505092915050565b60006020820190508181036000830152610fab8184610eb7565b905092915050565b600081905092915050565b6000610fc982610ae1565b610fd38185610fb3565b9350610fe3818560208601610afd565b80840191505092915050565b7f2e00000000000000000000000000000000000000000000000000000000000000600082015250565b6000611025600183610fb3565b915061103082610fef565b600182019050919050565b60006110478286610fbe565b915061105282611018565b915061105e8285610fbe565b915061106982611018565b91506110758284610fbe565b9150819050949350505050565b7f4e487b7100000000000000000000000000000000000000000000000000000000600052603260045260246000fd5b600080fd5b600080fd5b600080fd5b600082356001610140038336030381126110dd576110dc6110b1565b5b80830191505092915050565b7f4e487b7100000000000000000000000000000000000000000000000000000000600052602260045260246000fd5b6000600282049050600182168061113057607f821691505b602082108103611143576111426110e9565b5b50919050565b7f4e487b7100000000000000000000000000000000000000000000000000000000600052604160045260246000fd5b7f4e487b7100000000000000000000000000000000000000000000000000000000600052601260045260246000fd5b600081356111b481610d87565b80915050919050565b60008160001b9050919050565b60007fffffffffffffffffffffffffffffffffffffffffffffffffffffffffffffffff6111f6846111bd565b9350801983169250808416831791505092915050565b600061121782610d7d565b9050919050565b60008160001c9050919050565b60006112368261121e565b9050919050565b6112468261120c565b6112596112528261122b565b83546111ca565b8255505050565b61126981610def565b811461127457600080fd5b50565b6000813561128481611260565b80915050919050565b600067ffffffffffffffff6112a1846111bd565b9350801983169250808416831791505092915050565b6000819050919050565b60006112dc6112d76112d284610def565b6112b7565b610def565b9050919050565b6000819050919050565b6112f6826112c1565b611309611302826112e3565b835461128d565b8255505050565b60008160401b9050919050565b60006fffffffffffffffff000000000000000061133984611310565b9350801983169250808416831791505092915050565b611358826112c1565b61136b611364826112e3565b835461131d565b8255505050565b60008160801b9050919050565b600077ffffffffffffffff000000000000000000000000000000006113a384611372565b9350801983169250808416831791505092915050565b6113c2826112c1565b6113d56113ce826112e3565b835461137f565b8255505050565b6113e581610e32565b81146113f057600080fd5b50565b60008135611400816113dc565b80915050919050565b600073ffffffffffffffffffffffffffffffffffffffff611429846111bd565b9350801983169250808416831791505092915050565b600061145a61145561145084610e12565b6112b7565b610e12565b9050919050565b600061146c8261143f565b9050919050565b600061147e82611461565b9050919050565b6000819050919050565b61149882611473565b6114ab6114a482611485565b8354611409565b8255505050565b6114bb81610cd9565b81146114c657600080fd5b50565b600081356114d6816114b2565b80915050919050565b60008160a01b9050919050565b600074ff000000000000000000000000000000000000000061150d846114df565b9350801983169250808416831791505092915050565b600061152e82610cd9565b9050919050565b6000819050919050565b61154882611523565b61155b61155482611535565b83546114ec565b8255505050565b6000808335600160200384360303811261157f5761157e6110b1565b5b80840192508235915067ffffffffffffffff8211156115a1576115a06110b6565b5b6020830192506001820236038313156115bd576115bc6110bb565b5b509250929050565b600082905092915050565b60008190508160005260206000209050919050565b60006020601f8301049050919050565b600082821b905092915050565b6000600883026116327fffffffffffffffffffffffffffffffffffffffffffffffffffffffffffffffff826115f5565b61163c86836115f5565b95508019841693508086168417925050509392505050565b6000819050919050565b600061167961167461166f84611654565b6112b7565b611654565b9050919050565b6000819050919050565b6116938361165e565b6116a761169f82611680565b848454611602565b825550505050565b600090565b6116bc6116af565b6116c781848461168a565b505050565b5b818110156116eb576116e06000826116b4565b6001810190506116cd565b5050565b601f82111561173057611701816115d0565b61170a846115e5565b81016020851015611719578190505b61172d611725856115e5565b8301826116cc565b50505b505050565b600082821c905092915050565b600061175360001984600802611735565b1980831691505092915050565b600061176c8383611742565b9150826002028217905092915050565b61178683836115c5565b67ffffffffffffffff81111561179f5761179e611149565b5b6117a98254611118565b6117b48282856116ef565b6000601f8311600181146117e357600084156117d1578287013590505b6117db8582611760565b865550611843565b601f1984166117f1866115d0565b60005b82811015611819578489013582556001820191506020850194506020810190506117f4565b868310156118365784890135611832601f891682611742565b8355505b6001600288020188555050505b50505050505050565b61185783838361177c565b505050565b60008101600083018061186e816111a7565b905061187a818461123d565b50505060018101602083018061188f816111a7565b905061189b818461123d565b5050506002810160408301806118b081611277565b90506118bc81846112ed565b5050506002810160608301806118d181611277565b90506118dd818461134f565b5050506002810160808301806118f281611277565b90506118fe81846113b9565b5050506003810160a0830180611913816111a7565b905061191f818461123d565b5050506004810160c0830180611934816113f3565b9050611940818461148f565b5050506005810160e0830180611955816113f3565b9050611961818461148f565b50505060058101610100830180611977816114c9565b9050611983818461153f565b5050506006810161012083016119998185611562565b6119a481838661184c565b505050505050565b6119b6828261185c565b5050565b6000813590506119c9816113dc565b92915050565b6000602082840312156119e5576119e4610b93565b5b60006119f3848285016119ba565b9150509291505056fea2646970667358221220abe730a555e272c5536346a78ded68821a0120a5fbfca8fa50899da71dda735364736f6c63430008130033",
  "immutableReferences": {
    "398": [
      {
        "length": 32,
        "start": 541
      }
    ],
    "400": [
      {
        "length": 32,
        "start": 582
      }
    ],
    "402": [
      {
        "length": 32,
        "start": 623
      }
    ],
    "536": [
      {
        "length": 32,
        "start": 1975
      }
    ],
    "2031": [
      {
        "length": 32,
        "start": 2175
      }
    ]
  },
  "source": "// SPDX-License-Identifier: MIT\n\npragma solidity 0.8.19;\n\nimport { SchemaResolver } from \"@ethereum-attestation-service/eas-contracts/contracts/resolver/SchemaResolver.sol\";\nimport { IEAS, Attestation } from \"@ethereum-attestation-service/eas-contracts/contracts/IEAS.sol\";\n\n/**\n * @title A sample schema resolver that checks whether the attestation is from a specific attester.\n */\ncontract AttesterResolver is SchemaResolver {\n  address private immutable _targetAttester;\n\n  mapping(bytes32 => Attestation) private attestations;\n\n  constructor(IEAS eas, address targetAttester) SchemaResolver(eas) {\n      _targetAttester = targetAttester;\n  }\n\n  function onAttest(Attestation calldata attestation, uint256 /*value*/) internal override returns (bool) {\n      attestations[attestation.uid] = attestation;\n      return attestation.attester == _targetAttester;\n  }\n\n  function onRevoke(Attestation calldata /*attestation*/, uint256 /*value*/) internal pure override returns (bool) {\n      return true;\n  }\n\n  function getRequest(bytes32 attestationUid) public view returns (Attestation memory) {\n    return attestations[attestationUid];\n  }\n}",
  "sourcePath": "/Users/jimmy/Documents/deresy/deresy-v2-smart-contracts/contracts/AttesterResolver.sol",
  "compiler": {
    "name": "solc",
    "version": "0.8.19+commit.7dd6d404.Emscripten.clang"
  },
  "schemaVersion": "3.4.14",
  "updatedAt": "2023-07-31T20:22:45.449Z",
  "networkType": "ethereum",
  "devdoc": {
    "kind": "dev",
    "methods": {
      "attest((bytes32,bytes32,uint64,uint64,uint64,bytes32,address,address,bool,bytes))": {
        "details": "Processes an attestation and verifies whether it's valid.",
        "params": {
          "attestation": "The new attestation."
        },
        "returns": {
          "_0": "Whether the attestation is valid."
        }
      },
      "isPayable()": {
        "details": "Returns whether the resolver supports ETH transfers."
      },
      "multiAttest((bytes32,bytes32,uint64,uint64,uint64,bytes32,address,address,bool,bytes)[],uint256[])": {
        "details": "Processes multiple attestations and verifies whether they are valid.",
        "params": {
          "attestations": "The new attestations.",
          "values": "Explicit ETH amounts which were sent with each attestation."
        },
        "returns": {
          "_0": "Whether all the attestations are valid."
        }
      },
      "multiRevoke((bytes32,bytes32,uint64,uint64,uint64,bytes32,address,address,bool,bytes)[],uint256[])": {
        "details": "Processes revocation of multiple attestation and verifies they can be revoked.",
        "params": {
          "attestations": "The existing attestations to be revoked.",
          "values": "Explicit ETH amounts which were sent with each revocation."
        },
        "returns": {
          "_0": "Whether the attestations can be revoked."
        }
      },
      "revoke((bytes32,bytes32,uint64,uint64,uint64,bytes32,address,address,bool,bytes))": {
        "details": "Processes an attestation revocation and verifies if it can be revoked.",
        "params": {
          "attestation": "The existing attestation to be revoked."
        },
        "returns": {
          "_0": "Whether the attestation can be revoked."
        }
      },
      "version()": {
        "returns": {
          "_0": "Semver contract version as a string."
        }
      }
    },
    "title": "A sample schema resolver that checks whether the attestation is from a specific attester.",
    "version": 1
  },
  "userdoc": {
    "kind": "user",
    "methods": {
      "version()": {
        "notice": "Returns the full semver contract version."
      }
    },
    "version": 1
  }
}