{
  "contractName": "DeresyResolver",
  "abi": [
    {
      "inputs": [
        {
          "internalType": "contract IEAS",
          "name": "eas",
          "type": "address"
        }
      ],
      "stateMutability": "nonpayable",
      "type": "constructor"
    },
    {
      "inputs": [],
      "name": "AccessDenied",
      "type": "error"
    },
    {
      "inputs": [],
      "name": "InsufficientValue",
      "type": "error"
    },
    {
      "inputs": [],
      "name": "InvalidEAS",
      "type": "error"
    },
    {
      "inputs": [],
      "name": "NotPayable",
      "type": "error"
    },
    {
      "anonymous": false,
      "inputs": [
        {
          "indexed": false,
          "internalType": "string",
          "name": "_requestName",
          "type": "string"
        }
      ],
      "name": "ClosedReviewRequest",
      "type": "event"
    },
    {
      "anonymous": false,
      "inputs": [
        {
          "indexed": false,
          "internalType": "uint256",
          "name": "_formId",
          "type": "uint256"
        }
      ],
      "name": "CreatedReviewForm",
      "type": "event"
    },
    {
      "anonymous": false,
      "inputs": [
        {
          "indexed": false,
          "internalType": "string",
          "name": "_requestName",
          "type": "string"
        }
      ],
      "name": "CreatedReviewRequest",
      "type": "event"
    },
    {
      "anonymous": false,
      "inputs": [
        {
          "indexed": false,
          "internalType": "string",
          "name": "_requestName",
          "type": "string"
        }
      ],
      "name": "SubmittedReview",
      "type": "event"
    },
    {
      "inputs": [
        {
          "components": [
            {
              "internalType": "bytes32",
              "name": "uid",
              "type": "bytes32"
            },
            {
              "internalType": "bytes32",
              "name": "schema",
              "type": "bytes32"
            },
            {
              "internalType": "uint64",
              "name": "time",
              "type": "uint64"
            },
            {
              "internalType": "uint64",
              "name": "expirationTime",
              "type": "uint64"
            },
            {
              "internalType": "uint64",
              "name": "revocationTime",
              "type": "uint64"
            },
            {
              "internalType": "bytes32",
              "name": "refUID",
              "type": "bytes32"
            },
            {
              "internalType": "address",
              "name": "recipient",
              "type": "address"
            },
            {
              "internalType": "address",
              "name": "attester",
              "type": "address"
            },
            {
              "internalType": "bool",
              "name": "revocable",
              "type": "bool"
            },
            {
              "internalType": "bytes",
              "name": "data",
              "type": "bytes"
            }
          ],
          "internalType": "struct Attestation",
          "name": "attestation",
          "type": "tuple"
        }
      ],
      "name": "attest",
      "outputs": [
        {
          "internalType": "bool",
          "name": "",
          "type": "bool"
        }
      ],
      "stateMutability": "payable",
      "type": "function"
    },
    {
      "inputs": [],
      "name": "contractVersion",
      "outputs": [
        {
          "internalType": "string",
          "name": "",
          "type": "string"
        }
      ],
      "stateMutability": "view",
      "type": "function"
    },
    {
      "inputs": [],
      "name": "isPayable",
      "outputs": [
        {
          "internalType": "bool",
          "name": "",
          "type": "bool"
        }
      ],
      "stateMutability": "pure",
      "type": "function"
    },
    {
      "inputs": [
        {
          "components": [
            {
              "internalType": "bytes32",
              "name": "uid",
              "type": "bytes32"
            },
            {
              "internalType": "bytes32",
              "name": "schema",
              "type": "bytes32"
            },
            {
              "internalType": "uint64",
              "name": "time",
              "type": "uint64"
            },
            {
              "internalType": "uint64",
              "name": "expirationTime",
              "type": "uint64"
            },
            {
              "internalType": "uint64",
              "name": "revocationTime",
              "type": "uint64"
            },
            {
              "internalType": "bytes32",
              "name": "refUID",
              "type": "bytes32"
            },
            {
              "internalType": "address",
              "name": "recipient",
              "type": "address"
            },
            {
              "internalType": "address",
              "name": "attester",
              "type": "address"
            },
            {
              "internalType": "bool",
              "name": "revocable",
              "type": "bool"
            },
            {
              "internalType": "bytes",
              "name": "data",
              "type": "bytes"
            }
          ],
          "internalType": "struct Attestation[]",
          "name": "attestations",
          "type": "tuple[]"
        },
        {
          "internalType": "uint256[]",
          "name": "values",
          "type": "uint256[]"
        }
      ],
      "name": "multiAttest",
      "outputs": [
        {
          "internalType": "bool",
          "name": "",
          "type": "bool"
        }
      ],
      "stateMutability": "payable",
      "type": "function"
    },
    {
      "inputs": [
        {
          "components": [
            {
              "internalType": "bytes32",
              "name": "uid",
              "type": "bytes32"
            },
            {
              "internalType": "bytes32",
              "name": "schema",
              "type": "bytes32"
            },
            {
              "internalType": "uint64",
              "name": "time",
              "type": "uint64"
            },
            {
              "internalType": "uint64",
              "name": "expirationTime",
              "type": "uint64"
            },
            {
              "internalType": "uint64",
              "name": "revocationTime",
              "type": "uint64"
            },
            {
              "internalType": "bytes32",
              "name": "refUID",
              "type": "bytes32"
            },
            {
              "internalType": "address",
              "name": "recipient",
              "type": "address"
            },
            {
              "internalType": "address",
              "name": "attester",
              "type": "address"
            },
            {
              "internalType": "bool",
              "name": "revocable",
              "type": "bool"
            },
            {
              "internalType": "bytes",
              "name": "data",
              "type": "bytes"
            }
          ],
          "internalType": "struct Attestation[]",
          "name": "attestations",
          "type": "tuple[]"
        },
        {
          "internalType": "uint256[]",
          "name": "values",
          "type": "uint256[]"
        }
      ],
      "name": "multiRevoke",
      "outputs": [
        {
          "internalType": "bool",
          "name": "",
          "type": "bool"
        }
      ],
      "stateMutability": "payable",
      "type": "function"
    },
    {
      "inputs": [],
      "name": "reviewFormsTotal",
      "outputs": [
        {
          "internalType": "uint256",
          "name": "",
          "type": "uint256"
        }
      ],
      "stateMutability": "view",
      "type": "function"
    },
    {
      "inputs": [
        {
          "components": [
            {
              "internalType": "bytes32",
              "name": "uid",
              "type": "bytes32"
            },
            {
              "internalType": "bytes32",
              "name": "schema",
              "type": "bytes32"
            },
            {
              "internalType": "uint64",
              "name": "time",
              "type": "uint64"
            },
            {
              "internalType": "uint64",
              "name": "expirationTime",
              "type": "uint64"
            },
            {
              "internalType": "uint64",
              "name": "revocationTime",
              "type": "uint64"
            },
            {
              "internalType": "bytes32",
              "name": "refUID",
              "type": "bytes32"
            },
            {
              "internalType": "address",
              "name": "recipient",
              "type": "address"
            },
            {
              "internalType": "address",
              "name": "attester",
              "type": "address"
            },
            {
              "internalType": "bool",
              "name": "revocable",
              "type": "bool"
            },
            {
              "internalType": "bytes",
              "name": "data",
              "type": "bytes"
            }
          ],
          "internalType": "struct Attestation",
          "name": "attestation",
          "type": "tuple"
        }
      ],
      "name": "revoke",
      "outputs": [
        {
          "internalType": "bool",
          "name": "",
          "type": "bool"
        }
      ],
      "stateMutability": "payable",
      "type": "function"
    },
    {
      "inputs": [],
      "name": "version",
      "outputs": [
        {
          "internalType": "string",
          "name": "",
          "type": "string"
        }
      ],
      "stateMutability": "view",
      "type": "function"
    },
    {
      "stateMutability": "payable",
      "type": "receive"
    },
    {
      "inputs": [
        {
          "internalType": "bytes32",
          "name": "easSchemaID",
          "type": "bytes32"
        },
        {
          "internalType": "string[]",
          "name": "questions",
          "type": "string[]"
        },
        {
          "internalType": "string[][]",
          "name": "choices",
          "type": "string[][]"
        },
        {
          "internalType": "enum DeresyResolver.QuestionType[]",
          "name": "questionTypes",
          "type": "uint8[]"
        }
      ],
      "name": "createReviewForm",
      "outputs": [
        {
          "internalType": "uint256",
          "name": "",
          "type": "uint256"
        }
      ],
      "stateMutability": "nonpayable",
      "type": "function"
    },
    {
      "inputs": [
        {
          "internalType": "string",
          "name": "_name",
          "type": "string"
        },
        {
          "internalType": "address[]",
          "name": "reviewers",
          "type": "address[]"
        },
        {
          "internalType": "uint256[]",
          "name": "hypercertTargetIDs",
          "type": "uint256[]"
        },
        {
          "internalType": "string[]",
          "name": "targetsIPFSHashes",
          "type": "string[]"
        },
        {
          "internalType": "string",
          "name": "formIpfsHash",
          "type": "string"
        },
        {
          "internalType": "uint256",
          "name": "rewardPerReview",
          "type": "uint256"
        },
        {
          "internalType": "uint256",
          "name": "reviewFormIndex",
          "type": "uint256"
        }
      ],
      "name": "createRequest",
      "outputs": [],
      "stateMutability": "payable",
      "type": "function"
    },
    {
      "inputs": [
        {
          "internalType": "string",
          "name": "_name",
          "type": "string"
        }
      ],
      "name": "closeReviewRequest",
      "outputs": [],
      "stateMutability": "nonpayable",
      "type": "function"
    },
    {
      "inputs": [
        {
          "internalType": "string",
          "name": "_name",
          "type": "string"
        }
      ],
      "name": "getRequest",
      "outputs": [
        {
          "internalType": "address[]",
          "name": "reviewers",
          "type": "address[]"
        },
        {
          "internalType": "uint256[]",
          "name": "hypercertTargetIDs",
          "type": "uint256[]"
        },
        {
          "internalType": "string[]",
          "name": "targetsIPFSHashes",
          "type": "string[]"
        },
        {
          "internalType": "string",
          "name": "formIpfsHash",
          "type": "string"
        },
        {
          "internalType": "uint256",
          "name": "rewardPerReview",
          "type": "uint256"
        },
        {
          "components": [
            {
              "internalType": "address",
              "name": "reviewer",
              "type": "address"
            },
            {
              "internalType": "uint256",
              "name": "hypercertID",
              "type": "uint256"
            },
            {
              "internalType": "bytes32",
              "name": "attestationID",
              "type": "bytes32"
            }
          ],
          "internalType": "struct DeresyResolver.Review[]",
          "name": "reviews",
          "type": "tuple[]"
        },
        {
          "internalType": "uint256",
          "name": "reviewFormIndex",
          "type": "uint256"
        },
        {
          "internalType": "bool",
          "name": "isClosed",
          "type": "bool"
        }
      ],
      "stateMutability": "view",
      "type": "function"
    },
    {
      "inputs": [
        {
          "internalType": "uint256",
          "name": "_reviewFormIndex",
          "type": "uint256"
        }
      ],
      "name": "getReviewForm",
      "outputs": [
        {
          "internalType": "string[]",
          "name": "",
          "type": "string[]"
        },
        {
          "internalType": "enum DeresyResolver.QuestionType[]",
          "name": "",
          "type": "uint8[]"
        },
        {
          "internalType": "string[][]",
          "name": "choices",
          "type": "string[][]"
        },
        {
          "internalType": "bytes32",
          "name": "",
          "type": "bytes32"
        }
      ],
      "stateMutability": "view",
      "type": "function"
    },
    {
      "inputs": [
        {
          "internalType": "string",
          "name": "_name",
          "type": "string"
        }
      ],
      "name": "getRequestReviewForm",
      "outputs": [
        {
          "internalType": "string[]",
          "name": "",
          "type": "string[]"
        },
        {
          "internalType": "enum DeresyResolver.QuestionType[]",
          "name": "",
          "type": "uint8[]"
        },
        {
          "internalType": "string[][]",
          "name": "choices",
          "type": "string[][]"
        },
        {
          "internalType": "bytes32",
          "name": "",
          "type": "bytes32"
        }
      ],
      "stateMutability": "view",
      "type": "function"
    },
    {
      "inputs": [],
      "name": "getReviewRequestsNames",
      "outputs": [
        {
          "internalType": "string[]",
          "name": "",
          "type": "string[]"
        }
      ],
      "stateMutability": "view",
      "type": "function"
    }
  ],
  "bytecode": "0x6101006040526040518060400160405280600381526020017f302e320000000000000000000000000000000000000000000000000000000000815250600390816200004b9190620003bd565b503480156200005957600080fd5b5060405162004ff138038062004ff183398181016040528101906200007f919062000522565b80600160008082608081815250508160a081815250508060c08181525050505050600073ffffffffffffffffffffffffffffffffffffffff168173ffffffffffffffffffffffffffffffffffffffff160362000107576040517f83780ffe00000000000000000000000000000000000000000000000000000000815260040160405180910390fd5b8073ffffffffffffffffffffffffffffffffffffffff1660e08173ffffffffffffffffffffffffffffffffffffffff1681525050505062000554565b600081519050919050565b7f4e487b7100000000000000000000000000000000000000000000000000000000600052604160045260246000fd5b7f4e487b7100000000000000000000000000000000000000000000000000000000600052602260045260246000fd5b60006002820490506001821680620001c557607f821691505b602082108103620001db57620001da6200017d565b5b50919050565b60008190508160005260206000209050919050565b60006020601f8301049050919050565b600082821b905092915050565b600060088302620002457fffffffffffffffffffffffffffffffffffffffffffffffffffffffffffffffff8262000206565b62000251868362000206565b95508019841693508086168417925050509392505050565b6000819050919050565b6000819050919050565b60006200029e62000298620002928462000269565b62000273565b62000269565b9050919050565b6000819050919050565b620002ba836200027d565b620002d2620002c982620002a5565b84845462000213565b825550505050565b600090565b620002e9620002da565b620002f6818484620002af565b505050565b5b818110156200031e5762000312600082620002df565b600181019050620002fc565b5050565b601f8211156200036d576200033781620001e1565b6200034284620001f6565b8101602085101562000352578190505b6200036a6200036185620001f6565b830182620002fb565b50505b505050565b600082821c905092915050565b6000620003926000198460080262000372565b1980831691505092915050565b6000620003ad83836200037f565b9150826002028217905092915050565b620003c88262000143565b67ffffffffffffffff811115620003e457620003e36200014e565b5b620003f08254620001ac565b620003fd82828562000322565b600060209050601f83116001811462000435576000841562000420578287015190505b6200042c85826200039f565b8655506200049c565b601f1984166200044586620001e1565b60005b828110156200046f5784890151825560018201915060208501945060208101905062000448565b868310156200048f57848901516200048b601f8916826200037f565b8355505b6001600288020188555050505b505050505050565b600080fd5b600073ffffffffffffffffffffffffffffffffffffffff82169050919050565b6000620004d682620004a9565b9050919050565b6000620004ea82620004c9565b9050919050565b620004fc81620004dd565b81146200050857600080fd5b50565b6000815190506200051c81620004f1565b92915050565b6000602082840312156200053b576200053a620004a4565b5b60006200054b848285016200050b565b91505092915050565b60805160a05160c05160e051614a636200058e6000396000611d55015260006106af015260006106860152600061065d0152614a636000f3fe6080604052600436106100ec5760003560e01c8063a8cb0d871161008a578063ce46e04611610059578063ce46e0461461035d578063dd52605414610388578063e49617e1146103b3578063e60c3505146103e357610131565b8063a8cb0d8714610298578063b4e137cd146102b4578063b6fc76af146102f4578063be2761d01461033457610131565b806386be6d51116100c657806386be6d51146101e257806388e5b2d91461020d57806391db0b7e1461023d578063a0a8e4601461026d57610131565b8063309405231461013657806354fd4d501461017357806385b924131461019e57610131565b36610131576100f9610413565b61012f576040517f1574f9f300000000000000000000000000000000000000000000000000000000815260040160405180910390fd5b005b600080fd5b34801561014257600080fd5b5061015d60048036038101906101589190612d9f565b610418565b60405161016a9190612e73565b60405180910390f35b34801561017f57600080fd5b50610188610656565b6040516101959190612f0d565b60405180910390f35b3480156101aa57600080fd5b506101c560048036038101906101c09190612f2f565b6106f9565b6040516101d998979695949392919061334d565b60405180910390f35b3480156101ee57600080fd5b506101f7610bb3565b6040516102049190612e73565b60405180910390f35b6102276004803603810190610222919061349f565b610bb9565b6040516102349190613520565b60405180910390f35b6102576004803603810190610252919061349f565b610c98565b6040516102649190613520565b60405180910390f35b34801561027957600080fd5b50610282610d77565b60405161028f9190612f0d565b60405180910390f35b6102b260048036038101906102ad9190613719565b610e05565b005b3480156102c057600080fd5b506102db60048036038101906102d69190612f2f565b611308565b6040516102eb9493929190613ac4565b60405180910390f35b34801561030057600080fd5b5061031b60048036038101906103169190613b1e565b6115f0565b60405161032b9493929190613ac4565b60405180910390f35b34801561034057600080fd5b5061035b60048036038101906103569190612f2f565b61190f565b005b34801561036957600080fd5b50610372610413565b60405161037f9190613520565b60405180910390f35b34801561039457600080fd5b5061039d611b76565b6040516103aa9190613b4b565b60405180910390f35b6103cd60048036038101906103c89190613b92565b611c4f565b6040516103da9190613520565b60405180910390f35b6103fd60048036038101906103f89190613b92565b611c6a565b60405161040a9190613520565b60405180910390f35b600090565b60008084511161045d576040517f08c379a000000000000000000000000000000000000000000000000000000000815260040161045490613c27565b60405180910390fd5b60008251116104a1576040517f08c379a000000000000000000000000000000000000000000000000000000000815260040161049890613cb9565b60405180910390fd5b83518251146104e5576040517f08c379a00000000000000000000000000000000000000000000000000000000081526004016104dc90613d4b565b60405180910390fd5b8251845114610529576040517f08c379a000000000000000000000000000000000000000000000000000000000815260040161052090613ddd565b60405180910390fd5b6004604051806080016040528087815260200186815260200184815260200185815250908060018154018082558091505060019003906000526020600020906004020160009091909190915060008201518160000155602082015181600101908051906020019061059b929190612654565b5060408201518160020190805190602001906105b89291906126ad565b5060608201518160030190805190602001906105d5929190612763565b5050506001600260008282546105eb9190613e2c565b925050819055507f2ca1c706b776fc626b1e93b556d8968577908c5fee79ca88376ade10b781019c60016004805490506106259190613e60565b6040516106329190612e73565b60405180910390a1600160048054905061064c9190613e60565b9050949350505050565b60606106817f0000000000000000000000000000000000000000000000000000000000000000611c85565b6106aa7f0000000000000000000000000000000000000000000000000000000000000000611c85565b6106d37f0000000000000000000000000000000000000000000000000000000000000000611c85565b6040516020016106e593929190613f1c565b604051602081830303815290604052905090565b606080606080600060606000806000808a6040516107179190613f63565b9081526020016040518091039020604051806101600160405290816000820160009054906101000a900473ffffffffffffffffffffffffffffffffffffffff1673ffffffffffffffffffffffffffffffffffffffff1673ffffffffffffffffffffffffffffffffffffffff1681526020016001820180548060200260200160405190810160405280929190818152602001828054801561080c57602002820191906000526020600020905b8160009054906101000a900473ffffffffffffffffffffffffffffffffffffffff1673ffffffffffffffffffffffffffffffffffffffff16815260200190600101908083116107c2575b505050505081526020016002820180548060200260200160405190810160405280929190818152602001828054801561086457602002820191906000526020600020905b815481526020019060010190808311610850575b5050505050815260200160038201805480602002602001604051908101604052809291908181526020016000905b8282101561093e5783829060005260206000200180546108b190613fa9565b80601f01602080910402602001604051908101604052809291908181526020018280546108dd90613fa9565b801561092a5780601f106108ff5761010080835404028352916020019161092a565b820191906000526020600020905b81548152906001019060200180831161090d57829003601f168201915b505050505081526020019060010190610892565b50505050815260200160048201805461095690613fa9565b80601f016020809104026020016040519081016040528092919081815260200182805461098290613fa9565b80156109cf5780601f106109a4576101008083540402835291602001916109cf565b820191906000526020600020905b8154815290600101906020018083116109b257829003601f168201915b505050505081526020016005820154815260200160068201805480602002602001604051908101604052809291908181526020016000905b82821015610aa357838290600052602060002090600302016040518060600160405290816000820160009054906101000a900473ffffffffffffffffffffffffffffffffffffffff1673ffffffffffffffffffffffffffffffffffffffff1673ffffffffffffffffffffffffffffffffffffffff1681526020016001820154815260200160028201548152505081526020019060010190610a07565b5050505081526020016007820160009054906101000a900460ff161515151581526020016008820154815260200160098201548152602001600a82018054610aea90613fa9565b80601f0160208091040260200160405190810160405280929190818152602001828054610b1690613fa9565b8015610b635780601f10610b3857610100808354040283529160200191610b63565b820191906000526020600020905b815481529060010190602001808311610b4657829003601f168201915b505050505081525050905080602001518160400151826060015183608001518460a001518560c001518661012001518760e001519850985098509850985098509850985050919395975091939597565b60025481565b6000610bc3611d53565b6000858590509050600034905060005b82811015610c88576000868683818110610bf057610bef613fda565b5b90506020020135905082811115610c33576040517f1101129400000000000000000000000000000000000000000000000000000000815260040160405180910390fd5b610c61898984818110610c4957610c48613fda565b5b9050602002810190610c5b9190614018565b82611dda565b610c72576000945050505050610c90565b808303925050610c8181611de6565b9050610bd3565b506001925050505b949350505050565b6000610ca2611d53565b6000858590509050600034905060005b82811015610d67576000868683818110610ccf57610cce613fda565b5b90506020020135905082811115610d12576040517f1101129400000000000000000000000000000000000000000000000000000000815260040160405180910390fd5b610d40898984818110610d2857610d27613fda565b5b9050602002810190610d3a9190614018565b82611df3565b610d51576000945050505050610d6f565b808303925050610d6081611de6565b9050610cb2565b506001925050505b949350505050565b60038054610d8490613fa9565b80601f0160208091040260200160405190810160405280929190818152602001828054610db090613fa9565b8015610dfd5780601f10610dd257610100808354040283529160200191610dfd565b820191906000526020600020905b815481529060010190602001808311610de057829003601f168201915b505050505081565b6000865111610e49576040517f08c379a0000000000000000000000000000000000000000000000000000000008152600401610e409061408d565b60405180910390fd5b6000855111610e8d576040517f08c379a0000000000000000000000000000000000000000000000000000000008152600401610e84906140f9565b60405180910390fd5b6000845111610ed1576040517f08c379a0000000000000000000000000000000000000000000000000000000008152600401610ec89061418b565b60405180910390fd5b8351855114610f15576040517f08c379a0000000000000000000000000000000000000000000000000000000008152600401610f0c90614243565b60405180910390fd5b6001600480549050610f279190613e60565b811115610f69576040517f08c379a0000000000000000000000000000000000000000000000000000000008152600401610f60906142af565b60405180910390fd5b60008211610fac576040517f08c379a0000000000000000000000000000000000000000000000000000000008152600401610fa390614341565b60405180910390fd5b600073ffffffffffffffffffffffffffffffffffffffff16600088604051610fd49190613f63565b908152602001604051809103902060000160009054906101000a900473ffffffffffffffffffffffffffffffffffffffff1673ffffffffffffffffffffffffffffffffffffffff161461105c576040517f08c379a0000000000000000000000000000000000000000000000000000000008152600401611053906143ad565b60405180910390fd5b818551875161106b91906143cd565b61107591906143cd565b3410156110b7576040517f08c379a00000000000000000000000000000000000000000000000000000000081526004016110ae9061445b565b60405180910390fd5b336000886040516110c89190613f63565b908152602001604051809103902060000160006101000a81548173ffffffffffffffffffffffffffffffffffffffff021916908373ffffffffffffffffffffffffffffffffffffffff160217905550856000886040516111289190613f63565b9081526020016040518091039020600101908051906020019061114c9291906127c3565b508460008860405161115e9190613f63565b9081526020016040518091039020600201908051906020019061118292919061284d565b50836000886040516111949190613f63565b908152602001604051809103902060030190805190602001906111b8929190612654565b50826000886040516111ca9190613f63565b908152602001604051809103902060040190816111e79190614627565b50816000886040516111f99190613f63565b9081526020016040518091039020600501819055506000808860405161121f9190613f63565b908152602001604051809103902060070160006101000a81548160ff021916908315150217905550346000886040516112589190613f63565b9081526020016040518091039020600801819055508060008860405161127e9190613f63565b9081526020016040518091039020600901819055506001879080600181540180825580915050600190039060005260206000200160009091909190915090816112c79190614627565b507f0448feabbf5bb385eb3ea2cb16d90b1cb3b4c8936e399cf7a10e7b8946eec667876040516112f79190612f0d565b60405180910390a150505050505050565b60608060606000806000866040516113209190613f63565b908152602001604051809103902090506000600482600901548154811061134a57611349613fda565b5b90600052602060002090600402019050806001018160020182600301836000015483805480602002602001604051908101604052809291908181526020016000905b828210156114385783829060005260206000200180546113ab90613fa9565b80601f01602080910402602001604051908101604052809291908181526020018280546113d790613fa9565b80156114245780601f106113f957610100808354040283529160200191611424565b820191906000526020600020905b81548152906001019060200180831161140757829003601f168201915b50505050508152602001906001019061138c565b505050509350828054806020026020016040519081016040528092919081815260200182805480156114be57602002820191906000526020600020906000905b82829054906101000a900460ff16600281111561149857611497613873565b5b815260200190600101906020826000010492830192600103820291508084116114785790505b5050505050925081805480602002602001604051908101604052809291908181526020016000905b828210156115d957838290600052602060002001805480602002602001604051908101604052809291908181526020016000905b828210156115c657838290600052602060002001805461153990613fa9565b80601f016020809104026020016040519081016040528092919081815260200182805461156590613fa9565b80156115b25780601f10611587576101008083540402835291602001916115b2565b820191906000526020600020905b81548152906001019060200180831161159557829003601f168201915b50505050508152602001906001019061151a565b50505050815260200190600101906114e6565b505050509150955095509550955050509193509193565b606080606060006004858154811061160b5761160a613fda565b5b9060005260206000209060040201600101600486815481106116305761162f613fda565b5b90600052602060002090600402016002016004878154811061165557611654613fda565b5b90600052602060002090600402016003016004888154811061167a57611679613fda565b5b90600052602060002090600402016000015483805480602002602001604051908101604052809291908181526020016000905b828210156117595783829060005260206000200180546116cc90613fa9565b80601f01602080910402602001604051908101604052809291908181526020018280546116f890613fa9565b80156117455780601f1061171a57610100808354040283529160200191611745565b820191906000526020600020905b81548152906001019060200180831161172857829003601f168201915b5050505050815260200190600101906116ad565b505050509350828054806020026020016040519081016040528092919081815260200182805480156117df57602002820191906000526020600020906000905b82829054906101000a900460ff1660028111156117b9576117b8613873565b5b815260200190600101906020826000010492830192600103820291508084116117995790505b5050505050925081805480602002602001604051908101604052809291908181526020016000905b828210156118fa57838290600052602060002001805480602002602001604051908101604052809291908181526020016000905b828210156118e757838290600052602060002001805461185a90613fa9565b80601f016020809104026020016040519081016040528092919081815260200182805461188690613fa9565b80156118d35780601f106118a8576101008083540402835291602001916118d3565b820191906000526020600020905b8154815290600101906020018083116118b657829003601f168201915b50505050508152602001906001019061183b565b5050505081526020019060010190611807565b50505050915093509350935093509193509193565b60008160405161191f9190613f63565b908152602001604051809103902060000160009054906101000a900473ffffffffffffffffffffffffffffffffffffffff1673ffffffffffffffffffffffffffffffffffffffff163373ffffffffffffffffffffffffffffffffffffffff16146119be576040517f08c379a00000000000000000000000000000000000000000000000000000000081526004016119b590614745565b60405180910390fd5b600015156000826040516119d29190613f63565b908152602001604051809103902060070160009054906101000a900460ff16151514611a33576040517f08c379a0000000000000000000000000000000000000000000000000000000008152600401611a2a906147b1565b60405180910390fd5b600081604051611a439190613f63565b908152602001604051809103902060000160009054906101000a900473ffffffffffffffffffffffffffffffffffffffff1673ffffffffffffffffffffffffffffffffffffffff166108fc600083604051611a9e9190613f63565b9081526020016040518091039020600801549081150290604051600060405180830381858888f19350505050158015611adb573d6000803e3d6000fd5b506001600082604051611aee9190613f63565b908152602001604051809103902060070160006101000a81548160ff02191690831515021790555060008082604051611b279190613f63565b9081526020016040518091039020600801819055507fbc5c8cb2024ed254e024e37b09895ecaa07948dd0fd7a08e30b80f559888f2cf81604051611b6b9190612f0d565b60405180910390a150565b60606001805480602002602001604051908101604052809291908181526020016000905b82821015611c46578382906000526020600020018054611bb990613fa9565b80601f0160208091040260200160405190810160405280929190818152602001828054611be590613fa9565b8015611c325780601f10611c0757610100808354040283529160200191611c32565b820191906000526020600020905b815481529060010190602001808311611c1557829003601f168201915b505050505081526020019060010190611b9a565b50505050905090565b6000611c59611d53565b611c638234611dda565b9050919050565b6000611c74611d53565b611c7e8234611df3565b9050919050565b606060006001611c94846120e6565b01905060008167ffffffffffffffff811115611cb357611cb26129c0565b5b6040519080825280601f01601f191660200182016040528015611ce55781602001600182028036833780820191505090505b509050600082602001820190505b600115611d48578080600190039150507f3031323334353637383961626364656600000000000000000000000000000000600a86061a8153600a8581611d3c57611d3b6147d1565b5b04945060008503611cf3575b819350505050919050565b7f000000000000000000000000000000000000000000000000000000000000000073ffffffffffffffffffffffffffffffffffffffff163373ffffffffffffffffffffffffffffffffffffffff1614611dd8576040517f4ca8886700000000000000000000000000000000000000000000000000000000815260040160405180910390fd5b565b60006001905092915050565b6000600182019050919050565b60008060008085806101200190611e0a9190614800565b810190611e179190614863565b5092509250925060008084604051611e2f9190613f63565b9081526020016040518091039020905060006004826009015481548110611e5957611e58613fda565b5b9060005260206000209060040201905060008860e0016020810190611e7e919061491e565b905060008960000135905060008460070160009054906101000a900460ff161590506000611efe86600201805480602002602001604051908101604052809291908181526020018280548015611ef357602002820191906000526020600020905b815481526020019060010190808311611edf575b505050505089612239565b90506000875186600101805490501490506000611f1b868c612294565b90506000611f2a878d8d61237d565b90506000611f38898c6124be565b90506000868015611f465750855b8015611f4f5750845b8015611f585750835b8015611f615750825b8015611f6a5750815b905080156120cf578a60060160405180606001604052808b73ffffffffffffffffffffffffffffffffffffffff1681526020018f81526020018a815250908060018154018082558091505060019003906000526020600020906003020160009091909190915060008201518160000160006101000a81548173ffffffffffffffffffffffffffffffffffffffff021916908373ffffffffffffffffffffffffffffffffffffffff160217905550602082015181600101556040820151816002015550508a600501548b60080160008282546120459190613e60565b925050819055508873ffffffffffffffffffffffffffffffffffffffff166108fc8c600501549081150290604051600060405180830381858888f19350505050158015612096573d6000803e3d6000fd5b507f4d6dd501df538f815f442947c933fc2f545525e75f909b918a6d0701acc7904c8e6040516120c69190612f0d565b60405180910390a15b809e50505050505050505050505050505092915050565b600080600090507a184f03e93ff9f4daa797ed6e38ed64bf6a1f0100000000000000008310612144577a184f03e93ff9f4daa797ed6e38ed64bf6a1f010000000000000000838161213a576121396147d1565b5b0492506040810190505b6d04ee2d6d415b85acef81000000008310612181576d04ee2d6d415b85acef81000000008381612177576121766147d1565b5b0492506020810190505b662386f26fc1000083106121b057662386f26fc1000083816121a6576121a56147d1565b5b0492506010810190505b6305f5e10083106121d9576305f5e10083816121cf576121ce6147d1565b5b0492506008810190505b61271083106121fe5761271083816121f4576121f36147d1565b5b0492506004810190505b606483106122215760648381612217576122166147d1565b5b0492506002810190505b600a8310612230576001810190505b80915050919050565b600080600090505b8351811015612288578284828151811061225e5761225d613fda565b5b60200260200101510361227557600191505061228e565b80806122809061494b565b915050612241565b50600090505b92915050565b6000806000905060005b6000846040516122ae9190613f63565b908152602001604051809103902060010180549050811015612372578473ffffffffffffffffffffffffffffffffffffffff166000856040516122f19190613f63565b9081526020016040518091039020600101828154811061231457612313613fda565b5b9060005260206000200160009054906101000a900473ffffffffffffffffffffffffffffffffffffffff1673ffffffffffffffffffffffffffffffffffffffff160361235f57600191505b808061236a9061494b565b91505061229e565b508091505092915050565b6000806001905060005b6000856040516123979190613f63565b9081526020016040518091039020600601805490508110156124b257836000866040516123c49190613f63565b908152602001604051809103902060060182815481106123e7576123e6613fda565b5b90600052602060002090600302016001015414801561249557508573ffffffffffffffffffffffffffffffffffffffff166000866040516124289190613f63565b9081526020016040518091039020600601828154811061244b5761244a613fda565b5b906000526020600020906003020160000160009054906101000a900473ffffffffffffffffffffffffffffffffffffffff1673ffffffffffffffffffffffffffffffffffffffff16145b1561249f57600091505b80806124aa9061494b565b915050612387565b50809150509392505050565b600080600090505b8251811015612648576002808111156124e2576124e1613873565b5b8460020182815481106124f8576124f7613fda565b5b90600052602060002090602091828204019190069054906101000a900460ff16600281111561252a57612529613873565b5b03612635576000805b85600301838154811061254957612548613fda565b5b90600052602060002001805490508110156126225784838151811061257157612570613fda565b5b60200260200101516040516020016125899190613f63565b604051602081830303815290604052805190602001208660030184815481106125b5576125b4613fda565b5b9060005260206000200182815481106125d1576125d0613fda565b5b906000526020600020016040516020016125eb9190614a16565b604051602081830303815290604052805190602001200361260f5760019150612622565b808061261a9061494b565b915050612533565b50806126335760009250505061264e565b505b80806126409061494b565b9150506124c6565b50600190505b92915050565b82805482825590600052602060002090810192821561269c579160200282015b8281111561269b57825182908161268b9190614627565b5091602001919060010190612674565b5b5090506126a9919061289a565b5090565b82805482825590600052602060002090601f016020900481019282156127525791602002820160005b8382111561272357835183826101000a81548160ff0219169083600281111561270257612701613873565b5b021790555092602001926001016020816000010492830192600103026126d6565b80156127505782816101000a81549060ff0219169055600101602081600001049283019260010302612723565b505b50905061275f91906128be565b5090565b8280548282559060005260206000209081019282156127b2579160200282015b828111156127b15782518290805190602001906127a1929190612654565b5091602001919060010190612783565b5b5090506127bf91906128db565b5090565b82805482825590600052602060002090810192821561283c579160200282015b8281111561283b5782518260006101000a81548173ffffffffffffffffffffffffffffffffffffffff021916908373ffffffffffffffffffffffffffffffffffffffff160217905550916020019190600101906127e3565b5b50905061284991906128be565b5090565b828054828255906000526020600020908101928215612889579160200282015b8281111561288857825182559160200191906001019061286d565b5b50905061289691906128be565b5090565b5b808211156128ba57600081816128b191906128ff565b5060010161289b565b5090565b5b808211156128d75760008160009055506001016128bf565b5090565b5b808211156128fb57600081816128f2919061293f565b506001016128dc565b5090565b50805461290b90613fa9565b6000825580601f1061291d575061293c565b601f01602090049060005260206000209081019061293b91906128be565b5b50565b508054600082559060005260206000209081019061295d919061289a565b50565b6000604051905090565b600080fd5b600080fd5b6000819050919050565b61298781612974565b811461299257600080fd5b50565b6000813590506129a48161297e565b92915050565b600080fd5b6000601f19601f8301169050919050565b7f4e487b7100000000000000000000000000000000000000000000000000000000600052604160045260246000fd5b6129f8826129af565b810181811067ffffffffffffffff82111715612a1757612a166129c0565b5b80604052505050565b6000612a2a612960565b9050612a3682826129ef565b919050565b600067ffffffffffffffff821115612a5657612a556129c0565b5b602082029050602081019050919050565b600080fd5b600080fd5b600067ffffffffffffffff821115612a8c57612a8b6129c0565b5b612a95826129af565b9050602081019050919050565b82818337600083830152505050565b6000612ac4612abf84612a71565b612a20565b905082815260208101848484011115612ae057612adf612a6c565b5b612aeb848285612aa2565b509392505050565b600082601f830112612b0857612b076129aa565b5b8135612b18848260208601612ab1565b91505092915050565b6000612b34612b2f84612a3b565b612a20565b90508083825260208201905060208402830185811115612b5757612b56612a67565b5b835b81811015612b9e57803567ffffffffffffffff811115612b7c57612b7b6129aa565b5b808601612b898982612af3565b85526020850194505050602081019050612b59565b5050509392505050565b600082601f830112612bbd57612bbc6129aa565b5b8135612bcd848260208601612b21565b91505092915050565b600067ffffffffffffffff821115612bf157612bf06129c0565b5b602082029050602081019050919050565b6000612c15612c1084612bd6565b612a20565b90508083825260208201905060208402830185811115612c3857612c37612a67565b5b835b81811015612c7f57803567ffffffffffffffff811115612c5d57612c5c6129aa565b5b808601612c6a8982612ba8565b85526020850194505050602081019050612c3a565b5050509392505050565b600082601f830112612c9e57612c9d6129aa565b5b8135612cae848260208601612c02565b91505092915050565b600067ffffffffffffffff821115612cd257612cd16129c0565b5b602082029050602081019050919050565b60038110612cf057600080fd5b50565b600081359050612d0281612ce3565b92915050565b6000612d1b612d1684612cb7565b612a20565b90508083825260208201905060208402830185811115612d3e57612d3d612a67565b5b835b81811015612d675780612d538882612cf3565b845260208401935050602081019050612d40565b5050509392505050565b600082601f830112612d8657612d856129aa565b5b8135612d96848260208601612d08565b91505092915050565b60008060008060808587031215612db957612db861296a565b5b6000612dc787828801612995565b945050602085013567ffffffffffffffff811115612de857612de761296f565b5b612df487828801612ba8565b935050604085013567ffffffffffffffff811115612e1557612e1461296f565b5b612e2187828801612c89565b925050606085013567ffffffffffffffff811115612e4257612e4161296f565b5b612e4e87828801612d71565b91505092959194509250565b6000819050919050565b612e6d81612e5a565b82525050565b6000602082019050612e886000830184612e64565b92915050565b600081519050919050565b600082825260208201905092915050565b60005b83811015612ec8578082015181840152602081019050612ead565b60008484015250505050565b6000612edf82612e8e565b612ee98185612e99565b9350612ef9818560208601612eaa565b612f02816129af565b840191505092915050565b60006020820190508181036000830152612f278184612ed4565b905092915050565b600060208284031215612f4557612f4461296a565b5b600082013567ffffffffffffffff811115612f6357612f6261296f565b5b612f6f84828501612af3565b91505092915050565b600081519050919050565b600082825260208201905092915050565b6000819050602082019050919050565b600073ffffffffffffffffffffffffffffffffffffffff82169050919050565b6000612fcf82612fa4565b9050919050565b612fdf81612fc4565b82525050565b6000612ff18383612fd6565b60208301905092915050565b6000602082019050919050565b600061301582612f78565b61301f8185612f83565b935061302a83612f94565b8060005b8381101561305b5781516130428882612fe5565b975061304d83612ffd565b92505060018101905061302e565b5085935050505092915050565b600081519050919050565b600082825260208201905092915050565b6000819050602082019050919050565b61309d81612e5a565b82525050565b60006130af8383613094565b60208301905092915050565b6000602082019050919050565b60006130d382613068565b6130dd8185613073565b93506130e883613084565b8060005b8381101561311957815161310088826130a3565b975061310b836130bb565b9250506001810190506130ec565b5085935050505092915050565b600081519050919050565b600082825260208201905092915050565b6000819050602082019050919050565b600082825260208201905092915050565b600061316e82612e8e565b6131788185613152565b9350613188818560208601612eaa565b613191816129af565b840191505092915050565b60006131a88383613163565b905092915050565b6000602082019050919050565b60006131c882613126565b6131d28185613131565b9350836020820285016131e485613142565b8060005b858110156132205784840389528151613201858261319c565b945061320c836131b0565b925060208a019950506001810190506131e8565b50829750879550505050505092915050565b600081519050919050565b600082825260208201905092915050565b6000819050602082019050919050565b61326781612974565b82525050565b6060820160008201516132836000850182612fd6565b5060208201516132966020850182613094565b5060408201516132a9604085018261325e565b50505050565b60006132bb838361326d565b60608301905092915050565b6000602082019050919050565b60006132df82613232565b6132e9818561323d565b93506132f48361324e565b8060005b8381101561332557815161330c88826132af565b9750613317836132c7565b9250506001810190506132f8565b5085935050505092915050565b60008115159050919050565b61334781613332565b82525050565b6000610100820190508181036000830152613368818b61300a565b9050818103602083015261337c818a6130c8565b9050818103604083015261339081896131bd565b905081810360608301526133a48188612ed4565b90506133b36080830187612e64565b81810360a08301526133c581866132d4565b90506133d460c0830185612e64565b6133e160e083018461333e565b9998505050505050505050565b600080fd5b60008083601f840112613409576134086129aa565b5b8235905067ffffffffffffffff811115613426576134256133ee565b5b60208301915083602082028301111561344257613441612a67565b5b9250929050565b60008083601f84011261345f5761345e6129aa565b5b8235905067ffffffffffffffff81111561347c5761347b6133ee565b5b60208301915083602082028301111561349857613497612a67565b5b9250929050565b600080600080604085870312156134b9576134b861296a565b5b600085013567ffffffffffffffff8111156134d7576134d661296f565b5b6134e3878288016133f3565b9450945050602085013567ffffffffffffffff8111156135065761350561296f565b5b61351287828801613449565b925092505092959194509250565b6000602082019050613535600083018461333e565b92915050565b600067ffffffffffffffff821115613556576135556129c0565b5b602082029050602081019050919050565b61357081612fc4565b811461357b57600080fd5b50565b60008135905061358d81613567565b92915050565b60006135a66135a18461353b565b612a20565b905080838252602082019050602084028301858111156135c9576135c8612a67565b5b835b818110156135f257806135de888261357e565b8452602084019350506020810190506135cb565b5050509392505050565b600082601f830112613611576136106129aa565b5b8135613621848260208601613593565b91505092915050565b600067ffffffffffffffff821115613645576136446129c0565b5b602082029050602081019050919050565b61365f81612e5a565b811461366a57600080fd5b50565b60008135905061367c81613656565b92915050565b60006136956136908461362a565b612a20565b905080838252602082019050602084028301858111156136b8576136b7612a67565b5b835b818110156136e157806136cd888261366d565b8452602084019350506020810190506136ba565b5050509392505050565b600082601f830112613700576136ff6129aa565b5b8135613710848260208601613682565b91505092915050565b600080600080600080600060e0888a0312156137385761373761296a565b5b600088013567ffffffffffffffff8111156137565761375561296f565b5b6137628a828b01612af3565b975050602088013567ffffffffffffffff8111156137835761378261296f565b5b61378f8a828b016135fc565b965050604088013567ffffffffffffffff8111156137b0576137af61296f565b5b6137bc8a828b016136eb565b955050606088013567ffffffffffffffff8111156137dd576137dc61296f565b5b6137e98a828b01612ba8565b945050608088013567ffffffffffffffff81111561380a5761380961296f565b5b6138168a828b01612af3565b93505060a06138278a828b0161366d565b92505060c06138388a828b0161366d565b91505092959891949750929550565b600081519050919050565b600082825260208201905092915050565b6000819050602082019050919050565b7f4e487b7100000000000000000000000000000000000000000000000000000000600052602160045260246000fd5b600381106138b3576138b2613873565b5b50565b60008190506138c4826138a2565b919050565b60006138d4826138b6565b9050919050565b6138e4816138c9565b82525050565b60006138f683836138db565b60208301905092915050565b6000602082019050919050565b600061391a82613847565b6139248185613852565b935061392f83613863565b8060005b8381101561396057815161394788826138ea565b975061395283613902565b925050600181019050613933565b5085935050505092915050565b600081519050919050565b600082825260208201905092915050565b6000819050602082019050919050565b600082825260208201905092915050565b60006139b582613126565b6139bf8185613999565b9350836020820285016139d185613142565b8060005b85811015613a0d57848403895281516139ee858261319c565b94506139f9836131b0565b925060208a019950506001810190506139d5565b50829750879550505050505092915050565b6000613a2b83836139aa565b905092915050565b6000602082019050919050565b6000613a4b8261396d565b613a558185613978565b935083602082028501613a6785613989565b8060005b85811015613aa35784840389528151613a848582613a1f565b9450613a8f83613a33565b925060208a01995050600181019050613a6b565b50829750879550505050505092915050565b613abe81612974565b82525050565b60006080820190508181036000830152613ade81876131bd565b90508181036020830152613af2818661390f565b90508181036040830152613b068185613a40565b9050613b156060830184613ab5565b95945050505050565b600060208284031215613b3457613b3361296a565b5b6000613b428482850161366d565b91505092915050565b60006020820190508181036000830152613b6581846131bd565b905092915050565b600080fd5b60006101408284031215613b8957613b88613b6d565b5b81905092915050565b600060208284031215613ba857613ba761296a565b5b600082013567ffffffffffffffff811115613bc657613bc561296f565b5b613bd284828501613b72565b91505092915050565b7f4465726573793a205175657374696f6e732063616e2774206265206e756c6c00600082015250565b6000613c11601f83612e99565b9150613c1c82613bdb565b602082019050919050565b60006020820190508181036000830152613c4081613c04565b9050919050565b7f4465726573793a205175657374696f6e2054797065732063616e27742062652060008201527f6e756c6c00000000000000000000000000000000000000000000000000000000602082015250565b6000613ca3602483612e99565b9150613cae82613c47565b604082019050919050565b60006020820190508181036000830152613cd281613c96565b9050919050565b7f4465726573793a205175657374696f6e7320616e64207479706573206d75737460008201527f2068617665207468652073616d65206c656e6774680000000000000000000000602082015250565b6000613d35603583612e99565b9150613d4082613cd9565b604082019050919050565b60006020820190508181036000830152613d6481613d28565b9050919050565b7f4465726573793a205175657374696f6e7320616e642063686f69636573206d7560008201527f73742068617665207468652073616d65206c656e677468000000000000000000602082015250565b6000613dc7603783612e99565b9150613dd282613d6b565b604082019050919050565b60006020820190508181036000830152613df681613dba565b9050919050565b7f4e487b7100000000000000000000000000000000000000000000000000000000600052601160045260246000fd5b6000613e3782612e5a565b9150613e4283612e5a565b9250828201905080821115613e5a57613e59613dfd565b5b92915050565b6000613e6b82612e5a565b9150613e7683612e5a565b9250828203905081811115613e8e57613e8d613dfd565b5b92915050565b600081905092915050565b6000613eaa82612e8e565b613eb48185613e94565b9350613ec4818560208601612eaa565b80840191505092915050565b7f2e00000000000000000000000000000000000000000000000000000000000000600082015250565b6000613f06600183613e94565b9150613f1182613ed0565b600182019050919050565b6000613f288286613e9f565b9150613f3382613ef9565b9150613f3f8285613e9f565b9150613f4a82613ef9565b9150613f568284613e9f565b9150819050949350505050565b6000613f6f8284613e9f565b915081905092915050565b7f4e487b7100000000000000000000000000000000000000000000000000000000600052602260045260246000fd5b60006002820490506001821680613fc157607f821691505b602082108103613fd457613fd3613f7a565b5b50919050565b7f4e487b7100000000000000000000000000000000000000000000000000000000600052603260045260246000fd5b600080fd5b600080fd5b600080fd5b6000823560016101400383360303811261403557614034614009565b5b80830191505092915050565b7f4465726573793a205265766965776572732063616e6e6f74206265206e756c6c600082015250565b6000614077602083612e99565b915061408282614041565b602082019050919050565b600060208201905081810360008301526140a68161406a565b9050919050565b7f4465726573793a20546172676574732063616e6e6f74206265206e756c6c0000600082015250565b60006140e3601e83612e99565b91506140ee826140ad565b602082019050919050565b60006020820190508181036000830152614112816140d6565b9050919050565b7f4465726573793a20546172676574732049504653206861736865732063616e6e60008201527f6f74206265206e756c6c00000000000000000000000000000000000000000000602082015250565b6000614175602a83612e99565b915061418082614119565b604082019050919050565b600060208201905081810360008301526141a481614168565b9050919050565b7f4465726573793a205461726765747320616e642074617267657473495046534860008201527f6173686573206172726179206d7573742068617665207468652073616d65206c60208201527f656e677468000000000000000000000000000000000000000000000000000000604082015250565b600061422d604583612e99565b9150614238826141ab565b606082019050919050565b6000602082019050818103600083015261425c81614220565b9050919050565b7f4465726573793a20526576696577466f726d496e64657820696e76616c696400600082015250565b6000614299601f83612e99565b91506142a482614263565b602082019050919050565b600060208201905081810360008301526142c88161428c565b9050919050565b7f4465726573793a207265776172645065725265766965772063616e6e6f74206260008201527f6520656d70747900000000000000000000000000000000000000000000000000602082015250565b600061432b602783612e99565b9150614336826142cf565b604082019050919050565b6000602082019050818103600083015261435a8161431e565b9050919050565b7f4465726573793a204e616d65206475706c696361746564000000000000000000600082015250565b6000614397601783612e99565b91506143a282614361565b602082019050919050565b600060208201905081810360008301526143c68161438a565b9050919050565b60006143d882612e5a565b91506143e383612e5a565b92508282026143f181612e5a565b9150828204841483151761440857614407613dfd565b5b5092915050565b7f4465726573793a206d73672e76616c756520696e76616c696400000000000000600082015250565b6000614445601983612e99565b91506144508261440f565b602082019050919050565b6000602082019050818103600083015261447481614438565b9050919050565b60008190508160005260206000209050919050565b60006020601f8301049050919050565b600082821b905092915050565b6000600883026144dd7fffffffffffffffffffffffffffffffffffffffffffffffffffffffffffffffff826144a0565b6144e786836144a0565b95508019841693508086168417925050509392505050565b6000819050919050565b600061452461451f61451a84612e5a565b6144ff565b612e5a565b9050919050565b6000819050919050565b61453e83614509565b61455261454a8261452b565b8484546144ad565b825550505050565b600090565b61456761455a565b614572818484614535565b505050565b5b818110156145965761458b60008261455f565b600181019050614578565b5050565b601f8211156145db576145ac8161447b565b6145b584614490565b810160208510156145c4578190505b6145d86145d085614490565b830182614577565b50505b505050565b600082821c905092915050565b60006145fe600019846008026145e0565b1980831691505092915050565b600061461783836145ed565b9150826002028217905092915050565b61463082612e8e565b67ffffffffffffffff811115614649576146486129c0565b5b6146538254613fa9565b61465e82828561459a565b600060209050601f831160018114614691576000841561467f578287015190505b614689858261460b565b8655506146f1565b601f19841661469f8661447b565b60005b828110156146c7578489015182556001820191506020850194506020810190506146a2565b868310156146e457848901516146e0601f8916826145ed565b8355505b6001600288020188555050505b505050505050565b7f4465726573793a204974206973206e6f74207468652073706f6e736f72000000600082015250565b600061472f601d83612e99565b915061473a826146f9565b602082019050919050565b6000602082019050818103600083015261475e81614722565b9050919050565b7f4465726573793a207265717565737420636c6f73656400000000000000000000600082015250565b600061479b601683612e99565b91506147a682614765565b602082019050919050565b600060208201905081810360008301526147ca8161478e565b9050919050565b7f4e487b7100000000000000000000000000000000000000000000000000000000600052601260045260246000fd5b6000808335600160200384360303811261481d5761481c614009565b5b80840192508235915067ffffffffffffffff82111561483f5761483e61400e565b5b60208301925060018202360383131561485b5761485a614013565b5b509250929050565b6000806000806080858703121561487d5761487c61296a565b5b600085013567ffffffffffffffff81111561489b5761489a61296f565b5b6148a787828801612af3565b94505060206148b88782880161366d565b935050604085013567ffffffffffffffff8111156148d9576148d861296f565b5b6148e587828801612ba8565b925050606085013567ffffffffffffffff8111156149065761490561296f565b5b61491287828801612af3565b91505092959194509250565b6000602082840312156149345761493361296a565b5b60006149428482850161357e565b91505092915050565b600061495682612e5a565b91507fffffffffffffffffffffffffffffffffffffffffffffffffffffffffffffffff820361498857614987613dfd565b5b600182019050919050565b600081546149a081613fa9565b6149aa8186613e94565b945060018216600081146149c557600181146149da57614a0d565b60ff1983168652811515820286019350614a0d565b6149e38561447b565b60005b83811015614a05578154818901526001820191506020810190506149e6565b838801955050505b50505092915050565b6000614a228284614993565b91508190509291505056fea264697066735822122092c1b8b24a15964fa9218ffd3841f826f44246c20f9b07f3f933530ae0cb6c0a64736f6c63430008130033",
  "immutableReferences": {
    "398": [
      {
        "length": 32,
        "start": 1629
      }
    ],
    "400": [
      {
        "length": 32,
        "start": 1670
      }
    ],
    "402": [
      {
        "length": 32,
        "start": 1711
      }
    ],
    "536": [
      {
        "length": 32,
        "start": 7509
      }
    ]
  },
  "source": "// SPDX-License-Identifier: MIT\npragma solidity 0.8.19;\nimport { SchemaResolver } from \"@ethereum-attestation-service/eas-contracts/contracts/resolver/SchemaResolver.sol\";\nimport { IEAS, Attestation } from \"@ethereum-attestation-service/eas-contracts/contracts/IEAS.sol\";\n\ncontract DeresyResolver is SchemaResolver{\n  enum QuestionType {Text, Checkbox, SingleChoice}\n\n  struct reviewForm {\n    bytes32 easSchemaID ;\n    string[] questions;\n    QuestionType[] questionTypes;\n    string[][] choices;\n  }\n\n  struct Review {\n    address reviewer;\n    uint256 hypercertID;\n    bytes32 attestationID;\n  }\n    \n  struct ReviewRequest {\n    address sponsor;\n    address[] reviewers;\n    uint256[] hypercertTargetIDs;\n    string[] targetsIPFSHashes;\n    string formIpfsHash;\n    uint256 rewardPerReview;\n    Review[] reviews;\n    bool isClosed;\n    uint256 fundsLeft;\n    uint256 reviewFormIndex;\n    string name;\n  }\n\n  mapping(string => ReviewRequest) private reviewRequests;\n\n  string[] reviewRequestNames;\n  uint256 public reviewFormsTotal;\n  \n  string public contractVersion = \"0.2\";\n\n  reviewForm[] reviewForms;\n\n  event CreatedReviewForm(uint256 _formId);\n  event CreatedReviewRequest(string _requestName);\n  event ClosedReviewRequest(string _requestName);\n  event SubmittedReview(string _requestName);\n\n  constructor(IEAS eas) SchemaResolver(eas) {}\n\n  function onAttest(Attestation calldata attestation, uint256 /*value*/) internal override returns (bool) {\n    (string memory requestName, uint256 hypercertID, string[] memory answers,) = abi.decode(attestation.data, (string, uint256, string[], string));\n    ReviewRequest storage request = reviewRequests[requestName];\n    reviewForm storage requestForm = reviewForms[request.reviewFormIndex];\n    address attester = attestation.attester;\n    bytes32 attestationID = attestation.uid;\n\n    bool isRequestOpen = !request.isClosed;\n    bool isValidHypercert = validateHypercertID(request.hypercertTargetIDs, hypercertID);\n    bool hasMatchingAnswerCount = requestForm.questions.length == answers.length;\n    bool isUserReviewer = isReviewer(attester, requestName);\n    bool hasSubmitted = hasSubmittedReview(attester, requestName, hypercertID);\n    bool validSingleChoiceAnswers = validateSingleChoiceAnswers(requestForm, answers);\n\n    bool isValid = isRequestOpen && isValidHypercert && hasMatchingAnswerCount && isUserReviewer && hasSubmitted && validSingleChoiceAnswers;\n\n    if(isValid){\n      request.reviews.push(Review(attester,hypercertID, attestationID));\n      request.fundsLeft -= request.rewardPerReview;\n      payable(attester).transfer(request.rewardPerReview);\n      emit SubmittedReview(requestName);\n    }\n    return isValid;\n  }\n\n  function onRevoke(Attestation calldata /*attestation*/, uint256 /*value*/) internal pure override returns (bool) {\n    return true;\n  }\n\n  function createReviewForm(bytes32 easSchemaID, string[] memory questions, string[][] memory choices, QuestionType[] memory questionTypes) external  returns (uint256){\n    require(questions.length > 0, \"Deresy: Questions can't be null\");\n    require(questionTypes.length > 0, \"Deresy: Question Types can't be null\");\n    require(questionTypes.length == questions.length, \"Deresy: Questions and types must have the same length\");\n    require(questions.length == choices.length, \"Deresy: Questions and choices must have the same length\");\n    reviewForms.push(reviewForm(easSchemaID, questions, questionTypes, choices));\n    reviewFormsTotal += 1;\n    emit CreatedReviewForm(reviewForms.length - 1);\n    return reviewForms.length - 1;\n  }\n\n  function createRequest(string memory _name, address[] memory reviewers, uint256[] memory hypercertTargetIDs, string[] memory targetsIPFSHashes, string memory formIpfsHash, uint256 rewardPerReview, uint256 reviewFormIndex) external payable{\n    require(reviewers.length > 0,\"Deresy: Reviewers cannot be null\");\n    require(hypercertTargetIDs.length > 0,\"Deresy: Targets cannot be null\");\n    require(targetsIPFSHashes.length > 0, \"Deresy: Targets IPFS hashes cannot be null\");\n    require(hypercertTargetIDs.length == targetsIPFSHashes.length, \"Deresy: Targets and targetsIPFSHashes array must have the same length\");\n    require(reviewFormIndex <= reviewForms.length - 1,\"Deresy: ReviewFormIndex invalid\");\n    require(rewardPerReview > 0,\"Deresy: rewardPerReview cannot be empty\");\n    require(reviewRequests[_name].sponsor == address(0),\"Deresy: Name duplicated\");\n    require(msg.value >= ((reviewers.length * hypercertTargetIDs.length) * rewardPerReview),\"Deresy: msg.value invalid\");\n    reviewRequests[_name].sponsor = msg.sender;\n    reviewRequests[_name].reviewers = reviewers;\n    reviewRequests[_name].hypercertTargetIDs = hypercertTargetIDs;\n    reviewRequests[_name].targetsIPFSHashes = targetsIPFSHashes;\n    reviewRequests[_name].formIpfsHash = formIpfsHash;\n    reviewRequests[_name].rewardPerReview = rewardPerReview;\n    reviewRequests[_name].isClosed = false;\n    reviewRequests[_name].fundsLeft = msg.value;\n    reviewRequests[_name].reviewFormIndex = reviewFormIndex;\n    reviewRequestNames.push(_name);\n    emit CreatedReviewRequest(_name);\n  }\n\n  function closeReviewRequest(string memory _name) external{\n    require(msg.sender == reviewRequests[_name].sponsor, \"Deresy: It is not the sponsor\");\n    require(reviewRequests[_name].isClosed == false,\"Deresy: request closed\");\n    payable(reviewRequests[_name].sponsor).transfer(reviewRequests[_name].fundsLeft);\n    reviewRequests[_name].isClosed = true;\n    reviewRequests[_name].fundsLeft = 0;\n    emit ClosedReviewRequest(_name);\n  }\n\n  function getRequest(string memory _name) public view returns (address[] memory reviewers, uint256[] memory hypercertTargetIDs, string[] memory targetsIPFSHashes, string memory formIpfsHash, uint256 rewardPerReview,Review[] memory reviews, uint256 reviewFormIndex,bool isClosed){\n    ReviewRequest memory request = reviewRequests[_name];\n    return (request.reviewers, request.hypercertTargetIDs, request.targetsIPFSHashes, request.formIpfsHash, request.rewardPerReview, request.reviews, request.reviewFormIndex, request.isClosed);\n  }\n\n  function getReviewForm(uint256 _reviewFormIndex) public view returns(string[] memory, QuestionType[] memory, string[][] memory choices, bytes32){\n    return (reviewForms[_reviewFormIndex].questions, reviewForms[_reviewFormIndex].questionTypes, reviewForms[_reviewFormIndex].choices, reviewForms[_reviewFormIndex].easSchemaID);\n  }\n\n  function getRequestReviewForm(string memory _name) public view returns(string[] memory, QuestionType[] memory, string[][] memory choices, bytes32){\n    ReviewRequest storage request = reviewRequests[_name];\n    reviewForm storage requestForm = reviewForms[request.reviewFormIndex];\n     return (requestForm.questions, requestForm.questionTypes, requestForm.choices, requestForm.easSchemaID);\n  }\n\n  function getReviewRequestsNames() public view returns(string[] memory){\n    return reviewRequestNames;\n  }\n\n  function isReviewer(address reviewerAddress, string memory _name) internal view returns (bool) {\n    bool reviewerFound = false;\n    for (uint i = 0; i < reviewRequests[_name].reviewers.length; i++){\n      if(reviewRequests[_name].reviewers[i] == reviewerAddress){\n        reviewerFound = true;\n      }\n    }\n    return reviewerFound;\n  }\n\n  function hasSubmittedReview(address reviewerAddress, string memory _name, uint256 hypercertID) internal view returns (bool) {\n    bool notReviewed = true;\n    for(uint i = 0; i < reviewRequests[_name].reviews.length; i++) {\n      if(reviewRequests[_name].reviews[i].hypercertID == hypercertID && reviewRequests[_name].reviews[i].reviewer == reviewerAddress) {\n        notReviewed = false;\n      }\n    }\n    return notReviewed;\n  }\n\n  function validateSingleChoiceAnswers(reviewForm storage form, string[] memory answers) internal view returns (bool) {\n    for (uint256 i = 0; i < answers.length; i++) {\n      if (form.questionTypes[i] == QuestionType.SingleChoice) {\n        bool isValidAnswer = false;\n        for (uint256 j = 0; j < form.choices[i].length; j++) {\n          if (keccak256(abi.encodePacked(form.choices[i][j])) == keccak256(abi.encodePacked(answers[i]))) {\n            isValidAnswer = true;\n            break;\n          }\n        }\n        \n        if (!isValidAnswer) {\n          return false;\n        }\n      }\n    }\n    return true;\n  }\n\n  function validateHypercertID(uint256[] memory requestHypercertIDs, uint256 hypercertID) internal pure returns (bool) {\n    for (uint256 i = 0; i < requestHypercertIDs.length; i++) {\n      if (uint256(requestHypercertIDs[i]) == uint256(hypercertID)) {\n        return true;\n      }\n    }\n    return false;\n  }\n}\n",
  "sourcePath": "/home/ozzlopz/chimi/deresy/deresy-v2-smart-contracts/contracts/DeresyResolver.sol",
  "compiler": {
    "name": "solc",
    "version": "0.8.19+commit.7dd6d404.Emscripten.clang"
  },
  "schemaVersion": "3.4.16",
  "updatedAt": "2023-09-14T23:08:22.354Z",
  "devdoc": {
    "kind": "dev",
    "methods": {
      "attest((bytes32,bytes32,uint64,uint64,uint64,bytes32,address,address,bool,bytes))": {
        "details": "Processes an attestation and verifies whether it's valid.",
        "params": {
          "attestation": "The new attestation."
        },
        "returns": {
          "_0": "Whether the attestation is valid."
        }
      },
      "isPayable()": {
        "details": "Returns whether the resolver supports ETH transfers."
      },
      "multiAttest((bytes32,bytes32,uint64,uint64,uint64,bytes32,address,address,bool,bytes)[],uint256[])": {
        "details": "Processes multiple attestations and verifies whether they are valid.",
        "params": {
          "attestations": "The new attestations.",
          "values": "Explicit ETH amounts which were sent with each attestation."
        },
        "returns": {
          "_0": "Whether all the attestations are valid."
        }
      },
      "multiRevoke((bytes32,bytes32,uint64,uint64,uint64,bytes32,address,address,bool,bytes)[],uint256[])": {
        "details": "Processes revocation of multiple attestation and verifies they can be revoked.",
        "params": {
          "attestations": "The existing attestations to be revoked.",
          "values": "Explicit ETH amounts which were sent with each revocation."
        },
        "returns": {
          "_0": "Whether the attestations can be revoked."
        }
      },
      "revoke((bytes32,bytes32,uint64,uint64,uint64,bytes32,address,address,bool,bytes))": {
        "details": "Processes an attestation revocation and verifies if it can be revoked.",
        "params": {
          "attestation": "The existing attestation to be revoked."
        },
        "returns": {
          "_0": "Whether the attestation can be revoked."
        }
      },
      "version()": {
        "returns": {
          "_0": "Semver contract version as a string."
        }
      }
    },
    "version": 1
  },
  "userdoc": {
    "kind": "user",
    "methods": {
      "version()": {
        "notice": "Returns the full semver contract version."
      }
    },
    "version": 1
  }
}