{
  "contractName": "DeresyAttestations",
  "abi": [
    {
      "inputs": [
        {
          "internalType": "contract IEAS",
          "name": "eas",
          "type": "address"
        }
      ],
      "stateMutability": "nonpayable",
      "type": "constructor"
    },
    {
      "inputs": [],
      "name": "AccessDenied",
      "type": "error"
    },
    {
      "inputs": [],
      "name": "InsufficientValue",
      "type": "error"
    },
    {
      "inputs": [],
      "name": "InvalidEAS",
      "type": "error"
    },
    {
      "inputs": [],
      "name": "InvalidLength",
      "type": "error"
    },
    {
      "inputs": [],
      "name": "NotPayable",
      "type": "error"
    },
    {
      "anonymous": false,
      "inputs": [
        {
          "indexed": false,
          "internalType": "string",
          "name": "_requestName",
          "type": "string"
        }
      ],
      "name": "ClosedReviewRequest",
      "type": "event"
    },
    {
      "anonymous": false,
      "inputs": [
        {
          "indexed": false,
          "internalType": "string",
          "name": "_formName",
          "type": "string"
        }
      ],
      "name": "CreatedReviewForm",
      "type": "event"
    },
    {
      "anonymous": false,
      "inputs": [
        {
          "indexed": false,
          "internalType": "string",
          "name": "_requestName",
          "type": "string"
        }
      ],
      "name": "CreatedReviewRequest",
      "type": "event"
    },
    {
      "anonymous": false,
      "inputs": [
        {
          "components": [
            {
              "internalType": "bytes32",
              "name": "uid",
              "type": "bytes32"
            },
            {
              "internalType": "bytes32",
              "name": "schema",
              "type": "bytes32"
            },
            {
              "internalType": "uint64",
              "name": "time",
              "type": "uint64"
            },
            {
              "internalType": "uint64",
              "name": "expirationTime",
              "type": "uint64"
            },
            {
              "internalType": "uint64",
              "name": "revocationTime",
              "type": "uint64"
            },
            {
              "internalType": "bytes32",
              "name": "refUID",
              "type": "bytes32"
            },
            {
              "internalType": "address",
              "name": "recipient",
              "type": "address"
            },
            {
              "internalType": "address",
              "name": "attester",
              "type": "address"
            },
            {
              "internalType": "bool",
              "name": "revocable",
              "type": "bool"
            },
            {
              "internalType": "bytes",
              "name": "data",
              "type": "bytes"
            }
          ],
          "indexed": false,
          "internalType": "struct Attestation",
          "name": "_attestation",
          "type": "tuple"
        },
        {
          "indexed": false,
          "internalType": "string",
          "name": "_requestName",
          "type": "string"
        }
      ],
      "name": "OnReviewCallback",
      "type": "event"
    },
    {
      "anonymous": false,
      "inputs": [
        {
          "indexed": true,
          "internalType": "address",
          "name": "previousOwner",
          "type": "address"
        },
        {
          "indexed": true,
          "internalType": "address",
          "name": "newOwner",
          "type": "address"
        }
      ],
      "name": "OwnershipTransferred",
      "type": "event"
    },
    {
      "anonymous": false,
      "inputs": [
        {
          "indexed": false,
          "internalType": "bytes32",
          "name": "_uid",
          "type": "bytes32"
        }
      ],
      "name": "SubmittedAmendment",
      "type": "event"
    },
    {
      "anonymous": false,
      "inputs": [
        {
          "indexed": false,
          "internalType": "string",
          "name": "_requestName",
          "type": "string"
        }
      ],
      "name": "SubmittedReview",
      "type": "event"
    },
    {
      "inputs": [],
      "name": "amendmentsSchemaID",
      "outputs": [
        {
          "internalType": "bytes32",
          "name": "",
          "type": "bytes32"
        }
      ],
      "stateMutability": "view",
      "type": "function"
    },
    {
      "inputs": [
        {
          "components": [
            {
              "internalType": "bytes32",
              "name": "uid",
              "type": "bytes32"
            },
            {
              "internalType": "bytes32",
              "name": "schema",
              "type": "bytes32"
            },
            {
              "internalType": "uint64",
              "name": "time",
              "type": "uint64"
            },
            {
              "internalType": "uint64",
              "name": "expirationTime",
              "type": "uint64"
            },
            {
              "internalType": "uint64",
              "name": "revocationTime",
              "type": "uint64"
            },
            {
              "internalType": "bytes32",
              "name": "refUID",
              "type": "bytes32"
            },
            {
              "internalType": "address",
              "name": "recipient",
              "type": "address"
            },
            {
              "internalType": "address",
              "name": "attester",
              "type": "address"
            },
            {
              "internalType": "bool",
              "name": "revocable",
              "type": "bool"
            },
            {
              "internalType": "bytes",
              "name": "data",
              "type": "bytes"
            }
          ],
          "internalType": "struct Attestation",
          "name": "attestation",
          "type": "tuple"
        }
      ],
      "name": "attest",
      "outputs": [
        {
          "internalType": "bool",
          "name": "",
          "type": "bool"
        }
      ],
      "stateMutability": "payable",
      "type": "function"
    },
    {
      "inputs": [],
      "name": "callbackContract",
      "outputs": [
        {
          "internalType": "contract IOnReviewable",
          "name": "",
          "type": "address"
        }
      ],
      "stateMutability": "view",
      "type": "function"
    },
    {
      "inputs": [
        {
          "internalType": "string",
          "name": "_name",
          "type": "string"
        }
      ],
      "name": "closeReviewRequest",
      "outputs": [],
      "stateMutability": "nonpayable",
      "type": "function"
    },
    {
      "inputs": [],
      "name": "contractVersion",
      "outputs": [
        {
          "internalType": "string",
          "name": "",
          "type": "string"
        }
      ],
      "stateMutability": "view",
      "type": "function"
    },
    {
      "inputs": [
        {
          "internalType": "string",
          "name": "_name",
          "type": "string"
        },
        {
          "internalType": "address[]",
          "name": "reviewers",
          "type": "address[]"
        },
        {
          "internalType": "address[]",
          "name": "reviewerContracts",
          "type": "address[]"
        },
        {
          "internalType": "uint256[]",
          "name": "hypercertIDs",
          "type": "uint256[]"
        },
        {
          "internalType": "string[]",
          "name": "hypercertIPFSHashes",
          "type": "string[]"
        },
        {
          "internalType": "string",
          "name": "formIpfsHash",
          "type": "string"
        },
        {
          "internalType": "string",
          "name": "reviewFormName",
          "type": "string"
        }
      ],
      "name": "createNonPayableRequest",
      "outputs": [],
      "stateMutability": "nonpayable",
      "type": "function"
    },
    {
      "inputs": [
        {
          "internalType": "string",
          "name": "_name",
          "type": "string"
        },
        {
          "internalType": "address[]",
          "name": "reviewers",
          "type": "address[]"
        },
        {
          "internalType": "address[]",
          "name": "reviewerContracts",
          "type": "address[]"
        },
        {
          "internalType": "uint256[]",
          "name": "hypercertIDs",
          "type": "uint256[]"
        },
        {
          "internalType": "string[]",
          "name": "hypercertIPFSHashes",
          "type": "string[]"
        },
        {
          "internalType": "string",
          "name": "formIpfsHash",
          "type": "string"
        },
        {
          "internalType": "uint256",
          "name": "rewardPerReview",
          "type": "uint256"
        },
        {
          "internalType": "address",
          "name": "paymentTokenAddress",
          "type": "address"
        },
        {
          "internalType": "string",
          "name": "reviewFormName",
          "type": "string"
        }
      ],
      "name": "createRequest",
      "outputs": [],
      "stateMutability": "payable",
      "type": "function"
    },
    {
      "inputs": [
        {
          "internalType": "string",
          "name": "_name",
          "type": "string"
        },
        {
          "internalType": "string[]",
          "name": "questions",
          "type": "string[]"
        },
        {
          "internalType": "string[][]",
          "name": "choices",
          "type": "string[][]"
        },
        {
          "internalType": "enum DeresyResolver.QuestionType[]",
          "name": "questionTypes",
          "type": "uint8[]"
        }
      ],
      "name": "createReviewForm",
      "outputs": [],
      "stateMutability": "nonpayable",
      "type": "function"
    },
    {
      "inputs": [
        {
          "internalType": "string",
          "name": "_name",
          "type": "string"
        }
      ],
      "name": "getRequest",
      "outputs": [
        {
          "components": [
            {
              "internalType": "address",
              "name": "sponsor",
              "type": "address"
            },
            {
              "internalType": "address[]",
              "name": "reviewers",
              "type": "address[]"
            },
            {
              "internalType": "address[]",
              "name": "reviewerContracts",
              "type": "address[]"
            },
            {
              "internalType": "uint256[]",
              "name": "hypercertIDs",
              "type": "uint256[]"
            },
            {
              "internalType": "string[]",
              "name": "hypercertIPFSHashes",
              "type": "string[]"
            },
            {
              "internalType": "string",
              "name": "formIpfsHash",
              "type": "string"
            },
            {
              "internalType": "uint256",
              "name": "rewardPerReview",
              "type": "uint256"
            },
            {
              "components": [
                {
                  "internalType": "address",
                  "name": "reviewer",
                  "type": "address"
                },
                {
                  "internalType": "uint256",
                  "name": "hypercertID",
                  "type": "uint256"
                },
                {
                  "internalType": "bytes32",
                  "name": "attestationID",
                  "type": "bytes32"
                },
                {
                  "internalType": "bytes32[]",
                  "name": "amendmentsUIDs",
                  "type": "bytes32[]"
                }
              ],
              "internalType": "struct DeresyResolver.Review[]",
              "name": "reviews",
              "type": "tuple[]"
            },
            {
              "internalType": "bool",
              "name": "isClosed",
              "type": "bool"
            },
            {
              "internalType": "address",
              "name": "paymentTokenAddress",
              "type": "address"
            },
            {
              "internalType": "uint256",
              "name": "fundsLeft",
              "type": "uint256"
            },
            {
              "internalType": "string",
              "name": "reviewFormName",
              "type": "string"
            },
            {
              "internalType": "string",
              "name": "name",
              "type": "string"
            }
          ],
          "internalType": "struct DeresyResolver.ReviewRequest",
          "name": "reviewRequest",
          "type": "tuple"
        }
      ],
      "stateMutability": "view",
      "type": "function"
    },
    {
      "inputs": [
        {
          "internalType": "string",
          "name": "_name",
          "type": "string"
        }
      ],
      "name": "getRequestReviewForm",
      "outputs": [
        {
          "components": [
            {
              "internalType": "string[]",
              "name": "questions",
              "type": "string[]"
            },
            {
              "internalType": "enum DeresyResolver.QuestionType[]",
              "name": "questionTypes",
              "type": "uint8[]"
            },
            {
              "internalType": "string[][]",
              "name": "choices",
              "type": "string[][]"
            }
          ],
          "internalType": "struct DeresyResolver.ReviewForm",
          "name": "requestReviewForm",
          "type": "tuple"
        }
      ],
      "stateMutability": "view",
      "type": "function"
    },
    {
      "inputs": [
        {
          "internalType": "string",
          "name": "_reviewFormName",
          "type": "string"
        }
      ],
      "name": "getReviewForm",
      "outputs": [
        {
          "components": [
            {
              "internalType": "string[]",
              "name": "questions",
              "type": "string[]"
            },
            {
              "internalType": "enum DeresyResolver.QuestionType[]",
              "name": "questionTypes",
              "type": "uint8[]"
            },
            {
              "internalType": "string[][]",
              "name": "choices",
              "type": "string[][]"
            }
          ],
          "internalType": "struct DeresyResolver.ReviewForm",
          "name": "reviewForm",
          "type": "tuple"
        }
      ],
      "stateMutability": "view",
      "type": "function"
    },
    {
      "inputs": [],
      "name": "getReviewFormsNames",
      "outputs": [
        {
          "internalType": "string[]",
          "name": "",
          "type": "string[]"
        }
      ],
      "stateMutability": "view",
      "type": "function"
    },
    {
      "inputs": [],
      "name": "getReviewRequestsNames",
      "outputs": [
        {
          "internalType": "string[]",
          "name": "",
          "type": "string[]"
        }
      ],
      "stateMutability": "view",
      "type": "function"
    },
    {
      "inputs": [],
      "name": "getWhitelistedTokens",
      "outputs": [
        {
          "internalType": "address[]",
          "name": "",
          "type": "address[]"
        }
      ],
      "stateMutability": "view",
      "type": "function"
    },
    {
      "inputs": [],
      "name": "hypercertContract",
      "outputs": [
        {
          "internalType": "contract IHypercertable",
          "name": "",
          "type": "address"
        }
      ],
      "stateMutability": "view",
      "type": "function"
    },
    {
      "inputs": [],
      "name": "isPayable",
      "outputs": [
        {
          "internalType": "bool",
          "name": "",
          "type": "bool"
        }
      ],
      "stateMutability": "pure",
      "type": "function"
    },
    {
      "inputs": [
        {
          "internalType": "address",
          "name": "tokenAddress",
          "type": "address"
        }
      ],
      "name": "isTokenWhitelisted",
      "outputs": [
        {
          "internalType": "bool",
          "name": "",
          "type": "bool"
        }
      ],
      "stateMutability": "view",
      "type": "function"
    },
    {
      "inputs": [
        {
          "components": [
            {
              "internalType": "bytes32",
              "name": "uid",
              "type": "bytes32"
            },
            {
              "internalType": "bytes32",
              "name": "schema",
              "type": "bytes32"
            },
            {
              "internalType": "uint64",
              "name": "time",
              "type": "uint64"
            },
            {
              "internalType": "uint64",
              "name": "expirationTime",
              "type": "uint64"
            },
            {
              "internalType": "uint64",
              "name": "revocationTime",
              "type": "uint64"
            },
            {
              "internalType": "bytes32",
              "name": "refUID",
              "type": "bytes32"
            },
            {
              "internalType": "address",
              "name": "recipient",
              "type": "address"
            },
            {
              "internalType": "address",
              "name": "attester",
              "type": "address"
            },
            {
              "internalType": "bool",
              "name": "revocable",
              "type": "bool"
            },
            {
              "internalType": "bytes",
              "name": "data",
              "type": "bytes"
            }
          ],
          "internalType": "struct Attestation[]",
          "name": "attestations",
          "type": "tuple[]"
        },
        {
          "internalType": "uint256[]",
          "name": "values",
          "type": "uint256[]"
        }
      ],
      "name": "multiAttest",
      "outputs": [
        {
          "internalType": "bool",
          "name": "",
          "type": "bool"
        }
      ],
      "stateMutability": "payable",
      "type": "function"
    },
    {
      "inputs": [
        {
          "components": [
            {
              "internalType": "bytes32",
              "name": "uid",
              "type": "bytes32"
            },
            {
              "internalType": "bytes32",
              "name": "schema",
              "type": "bytes32"
            },
            {
              "internalType": "uint64",
              "name": "time",
              "type": "uint64"
            },
            {
              "internalType": "uint64",
              "name": "expirationTime",
              "type": "uint64"
            },
            {
              "internalType": "uint64",
              "name": "revocationTime",
              "type": "uint64"
            },
            {
              "internalType": "bytes32",
              "name": "refUID",
              "type": "bytes32"
            },
            {
              "internalType": "address",
              "name": "recipient",
              "type": "address"
            },
            {
              "internalType": "address",
              "name": "attester",
              "type": "address"
            },
            {
              "internalType": "bool",
              "name": "revocable",
              "type": "bool"
            },
            {
              "internalType": "bytes",
              "name": "data",
              "type": "bytes"
            }
          ],
          "internalType": "struct Attestation[]",
          "name": "attestations",
          "type": "tuple[]"
        },
        {
          "internalType": "uint256[]",
          "name": "values",
          "type": "uint256[]"
        }
      ],
      "name": "multiRevoke",
      "outputs": [
        {
          "internalType": "bool",
          "name": "",
          "type": "bool"
        }
      ],
      "stateMutability": "payable",
      "type": "function"
    },
    {
      "inputs": [],
      "name": "owner",
      "outputs": [
        {
          "internalType": "address",
          "name": "",
          "type": "address"
        }
      ],
      "stateMutability": "view",
      "type": "function"
    },
    {
      "inputs": [],
      "name": "pause",
      "outputs": [],
      "stateMutability": "nonpayable",
      "type": "function"
    },
    {
      "inputs": [],
      "name": "paused",
      "outputs": [
        {
          "internalType": "bool",
          "name": "",
          "type": "bool"
        }
      ],
      "stateMutability": "view",
      "type": "function"
    },
    {
      "inputs": [],
      "name": "renounceOwnership",
      "outputs": [],
      "stateMutability": "nonpayable",
      "type": "function"
    },
    {
      "inputs": [],
      "name": "reviewsSchemaID",
      "outputs": [
        {
          "internalType": "bytes32",
          "name": "",
          "type": "bytes32"
        }
      ],
      "stateMutability": "view",
      "type": "function"
    },
    {
      "inputs": [
        {
          "components": [
            {
              "internalType": "bytes32",
              "name": "uid",
              "type": "bytes32"
            },
            {
              "internalType": "bytes32",
              "name": "schema",
              "type": "bytes32"
            },
            {
              "internalType": "uint64",
              "name": "time",
              "type": "uint64"
            },
            {
              "internalType": "uint64",
              "name": "expirationTime",
              "type": "uint64"
            },
            {
              "internalType": "uint64",
              "name": "revocationTime",
              "type": "uint64"
            },
            {
              "internalType": "bytes32",
              "name": "refUID",
              "type": "bytes32"
            },
            {
              "internalType": "address",
              "name": "recipient",
              "type": "address"
            },
            {
              "internalType": "address",
              "name": "attester",
              "type": "address"
            },
            {
              "internalType": "bool",
              "name": "revocable",
              "type": "bool"
            },
            {
              "internalType": "bytes",
              "name": "data",
              "type": "bytes"
            }
          ],
          "internalType": "struct Attestation",
          "name": "attestation",
          "type": "tuple"
        }
      ],
      "name": "revoke",
      "outputs": [
        {
          "internalType": "bool",
          "name": "",
          "type": "bool"
        }
      ],
      "stateMutability": "payable",
      "type": "function"
    },
    {
      "inputs": [
        {
          "internalType": "bytes32",
          "name": "_amendmentsSchemaID",
          "type": "bytes32"
        }
      ],
      "name": "setAmendmentsSchemaID",
      "outputs": [],
      "stateMutability": "nonpayable",
      "type": "function"
    },
    {
      "inputs": [
        {
          "internalType": "address",
          "name": "_callbackContractAddress",
          "type": "address"
        }
      ],
      "name": "setCallbackContract",
      "outputs": [],
      "stateMutability": "nonpayable",
      "type": "function"
    },
    {
      "inputs": [
        {
          "internalType": "address",
          "name": "_hypercertContractAddress",
          "type": "address"
        }
      ],
      "name": "setHypercertContract",
      "outputs": [],
      "stateMutability": "nonpayable",
      "type": "function"
    },
    {
      "inputs": [
        {
          "internalType": "bytes32",
          "name": "_reviewsSchemaID",
          "type": "bytes32"
        }
      ],
      "name": "setReviewsSchemaID",
      "outputs": [],
      "stateMutability": "nonpayable",
      "type": "function"
    },
    {
      "inputs": [
        {
          "internalType": "bool",
          "name": "_validateHypercertIDs",
          "type": "bool"
        }
      ],
      "name": "setValidateHypercertIDs",
      "outputs": [],
      "stateMutability": "nonpayable",
      "type": "function"
    },
    {
      "inputs": [
        {
          "internalType": "address",
          "name": "newOwner",
          "type": "address"
        }
      ],
      "name": "transferOwnership",
      "outputs": [],
      "stateMutability": "nonpayable",
      "type": "function"
    },
    {
      "inputs": [],
      "name": "unpause",
      "outputs": [],
      "stateMutability": "nonpayable",
      "type": "function"
    },
    {
      "inputs": [
        {
          "internalType": "address",
          "name": "tokenAddress",
          "type": "address"
        }
      ],
      "name": "unwhitelistToken",
      "outputs": [],
      "stateMutability": "nonpayable",
      "type": "function"
    },
    {
      "inputs": [],
      "name": "validateHypercertIDs",
      "outputs": [
        {
          "internalType": "bool",
          "name": "",
          "type": "bool"
        }
      ],
      "stateMutability": "view",
      "type": "function"
    },
    {
      "inputs": [],
      "name": "version",
      "outputs": [
        {
          "internalType": "string",
          "name": "",
          "type": "string"
        }
      ],
      "stateMutability": "view",
      "type": "function"
    },
    {
      "inputs": [
        {
          "internalType": "address",
          "name": "tokenAddress",
          "type": "address"
        }
      ],
      "name": "whitelistToken",
      "outputs": [],
      "stateMutability": "nonpayable",
      "type": "function"
    },
    {
      "stateMutability": "payable",
      "type": "receive"
    },
    {
      "inputs": [
        {
          "components": [
            {
              "internalType": "bytes32",
              "name": "uid",
              "type": "bytes32"
            },
            {
              "internalType": "bytes32",
              "name": "schema",
              "type": "bytes32"
            },
            {
              "internalType": "uint64",
              "name": "time",
              "type": "uint64"
            },
            {
              "internalType": "uint64",
              "name": "expirationTime",
              "type": "uint64"
            },
            {
              "internalType": "uint64",
              "name": "revocationTime",
              "type": "uint64"
            },
            {
              "internalType": "bytes32",
              "name": "refUID",
              "type": "bytes32"
            },
            {
              "internalType": "address",
              "name": "recipient",
              "type": "address"
            },
            {
              "internalType": "address",
              "name": "attester",
              "type": "address"
            },
            {
              "internalType": "bool",
              "name": "revocable",
              "type": "bool"
            },
            {
              "internalType": "bytes",
              "name": "data",
              "type": "bytes"
            }
          ],
          "internalType": "struct Attestation",
          "name": "attestation",
          "type": "tuple"
        }
      ],
      "name": "deresyAttestation",
      "outputs": [
        {
          "internalType": "bool",
          "name": "",
          "type": "bool"
        }
      ],
      "stateMutability": "nonpayable",
      "type": "function"
    }
  ],
  "bytecode": "0x61014060405260036101009081526218171960e91b61012052600890620000279082620001f4565b506009805461ffff19166101011790553480156200004457600080fd5b50604051620053b3380380620053b38339810160408190526200006791620002c0565b6001608052600360a052600060c05280806001600160a01b038116620000a0576040516341bc07ff60e11b815260040160405180910390fd5b6001600160a01b031660e052620000b733620000ff565b5050600680546001810182556000919091527ff652222313e28459528d920b65115c16c04f3efc82aaedc97be59f3f377c0d3f0180546001600160a01b0319169055620002f2565b600080546001600160a01b038381166001600160a01b0319831681178455604051919092169283917f8be0079c531659141344cd1fd0a4f28419497f9722a3daafe3b4186f6b6457e09190a35050565b634e487b7160e01b600052604160045260246000fd5b600181811c908216806200017a57607f821691505b6020821081036200019b57634e487b7160e01b600052602260045260246000fd5b50919050565b601f821115620001ef57600081815260208120601f850160051c81016020861015620001ca5750805b601f850160051c820191505b81811015620001eb57828155600101620001d6565b5050505b505050565b81516001600160401b038111156200021057620002106200014f565b620002288162000221845462000165565b84620001a1565b602080601f831160018114620002605760008415620002475750858301515b600019600386901b1c1916600185901b178555620001eb565b600085815260208120601f198616915b82811015620002915788860151825594840194600190910190840162000270565b5085821015620002b05787850151600019600388901b60f8161c191681555b5050505050600190811b01905550565b600060208284031215620002d357600080fd5b81516001600160a01b0381168114620002eb57600080fd5b9392505050565b60805160a05160c05160e0516150876200032c6000396000612b68015260006107760152600061074d0152600061072401526150876000f3fe60806040526004361061021e5760003560e01c8063a0a8e46011610123578063c74b1340116100ab578063e49617e11161006f578063e49617e114610618578063e60c35051461062b578063e9c06f0e1461063e578063f1e47e921461065e578063f2fde38b1461067d57600080fd5b8063c74b13401461058d578063ce46e046146105ad578063d627d25e146105c1578063dd526054146105e1578063e26f7900146105f657600080fd5b8063b759dc72116100f2578063b759dc72146104eb578063b8b23c171461050b578063bd7e2aa41461052b578063be2761d01461054b578063c480fe481461056b57600080fd5b8063a0a8e46014610476578063abe1d7f31461048b578063b4e137cd146104ab578063b5af090f146104cb57600080fd5b80637a35aaa9116101a657806388e5b2d91161017557806388e5b2d9146103fc5780638da5cb5b1461040f5780639128b0d81461042d57806391db0b7e146104435780639d210b321461045657600080fd5b80637a35aaa91461036d57806380a43d701461038d5780638456cb59146103ba57806385b92413146103cf57600080fd5b806354fd4d50116101ed57806354fd4d50146102c85780635c975abb146102ea5780636247f6f214610314578063715018a614610334578063749870601461034957600080fd5b806302615536146102435780630ac81006146102635780633f4ba83a14610276578063418f44001461028b57600080fd5b3661023e57604051631574f9f360e01b815260040160405180910390fd5b005b600080fd5b34801561024f57600080fd5b5061023c61025e366004613d4a565b61069d565b61023c610271366004613fb2565b6106bf565b34801561028257600080fd5b5061023c610709565b34801561029757600080fd5b506002546102ab906001600160a01b031681565b6040516001600160a01b0390911681526020015b60405180910390f35b3480156102d457600080fd5b506102dd61071d565b6040516102bf9190614137565b3480156102f657600080fd5b506009546103049060ff1681565b60405190151581526020016102bf565b34801561032057600080fd5b5061023c61032f36600461414a565b6107c0565b34801561034057600080fd5b5061023c610870565b34801561035557600080fd5b5061035f60055481565b6040519081526020016102bf565b34801561037957600080fd5b5061023c61038836600461414a565b610884565b34801561039957600080fd5b506103ad6103a8366004614165565b6108ae565b6040516102bf919061424c565b3480156103c657600080fd5b5061023c610b78565b3480156103db57600080fd5b506103ef6103ea366004614165565b610bb2565b6040516102bf9190614411565b61030461040a3660046145b9565b611128565b34801561041b57600080fd5b506000546001600160a01b03166102ab565b34801561043957600080fd5b5061035f60045481565b6103046104513660046145b9565b6111f7565b34801561046257600080fd5b50610304610471366004614624565b6112b6565b34801561048257600080fd5b506102dd6112c9565b34801561049757600080fd5b5061023c6104a636600461465f565b611357565b3480156104b757600080fd5b506103ad6104c6366004614165565b611364565b3480156104d757600080fd5b506103046104e636600461414a565b611654565b3480156104f757600080fd5b5061023c6105063660046146e1565b6116bd565b34801561051757600080fd5b5061023c61052636600461465f565b611a54565b34801561053757600080fd5b506001546102ab906001600160a01b031681565b34801561055757600080fd5b5061023c610566366004614165565b611a61565b34801561057757600080fd5b50610580611c52565b6040516102bf91906147fb565b34801561059957600080fd5b5061023c6105a836600461414a565b611d2b565b3480156105b957600080fd5b506000610304565b3480156105cd57600080fd5b5061023c6105dc36600461414a565b611d55565b3480156105ed57600080fd5b50610580611eb6565b34801561060257600080fd5b5061060b611f86565b6040516102bf919061480e565b610304610626366004614624565b611fe8565b610304610639366004614624565b611ffe565b34801561064a57600080fd5b5061023c610659366004614821565b612012565b34801561066a57600080fd5b5060095461030490610100900460ff1681565b34801561068957600080fd5b5061023c61069836600461414a565b612052565b6106a56120cb565b600980549115156101000261ff0019909216919091179055565b60095460ff16156106eb5760405162461bcd60e51b81526004016106e29061493b565b60405180910390fd5b6106fe89898989898989888a6001612125565b505050505050505050565b6107116120cb565b6009805460ff19169055565b60606107487f0000000000000000000000000000000000000000000000000000000000000000612a7b565b6107717f0000000000000000000000000000000000000000000000000000000000000000612a7b565b61079a7f0000000000000000000000000000000000000000000000000000000000000000612a7b565b6040516020016107ac93929190614967565b604051602081830303815290604052905090565b6107c86120cb565b6107d181611654565b1561081e5760405162461bcd60e51b815260206004820152601960248201527f546f6b656e20616c72656164792077686974656c69737465640000000000000060448201526064016106e2565b600680546001810182556000919091527ff652222313e28459528d920b65115c16c04f3efc82aaedc97be59f3f377c0d3f0180546001600160a01b0319166001600160a01b0392909216919091179055565b6108786120cb565b6108826000612b0d565b565b61088c6120cb565b600180546001600160a01b0319166001600160a01b0392909216919091179055565b6108d260405180606001604052806060815260200160608152602001606081525090565b600a826040516108e291906149c1565b9081526040805191829003602090810183208054608092810285018301909352606084018381529092849284919060009085015b828210156109c2578382906000526020600020018054610935906149dd565b80601f0160208091040260200160405190810160405280929190818152602001828054610961906149dd565b80156109ae5780601f10610983576101008083540402835291602001916109ae565b820191906000526020600020905b81548152906001019060200180831161099157829003601f168201915b505050505081526020019060010190610916565b50505050815260200160018201805480602002602001604051908101604052809291908181526020018280548015610a4957602002820191906000526020600020906000905b82829054906101000a900460ff166002811115610a2757610a276141f1565b815260206001928301818104948501949093039092029101808411610a085790505b5050505050815260200160028201805480602002602001604051908101604052809291908181526020016000905b82821015610b6a57838290600052602060002001805480602002602001604051908101604052809291908181526020016000905b82821015610b57578382906000526020600020018054610aca906149dd565b80601f0160208091040260200160405190810160405280929190818152602001828054610af6906149dd565b8015610b435780601f10610b1857610100808354040283529160200191610b43565b820191906000526020600020905b815481529060010190602001808311610b2657829003601f168201915b505050505081526020019060010190610aab565b5050505081526020019060010190610a77565b505050915250909392505050565b610b806120cb565b60095460ff1615610ba35760405162461bcd60e51b81526004016106e29061493b565b6009805460ff19166001179055565b610c31604051806101a0016040528060006001600160a01b031681526020016060815260200160608152602001606081526020016060815260200160608152602001600081526020016060815260200160001515815260200160006001600160a01b031681526020016000815260200160608152602001606081525090565b600382604051610c4191906149c1565b9081526040805191829003602090810183206101a08401835280546001600160a01b03168452600181018054845181850281018501909552808552919385840193909290830182828015610cbe57602002820191906000526020600020905b81546001600160a01b03168152600190910190602001808311610ca0575b5050505050815260200160028201805480602002602001604051908101604052809291908181526020018280548015610d2057602002820191906000526020600020905b81546001600160a01b03168152600190910190602001808311610d02575b5050505050815260200160038201805480602002602001604051908101604052809291908181526020018280548015610d7857602002820191906000526020600020905b815481526020019060010190808311610d64575b5050505050815260200160048201805480602002602001604051908101604052809291908181526020016000905b82821015610e52578382906000526020600020018054610dc5906149dd565b80601f0160208091040260200160405190810160405280929190818152602001828054610df1906149dd565b8015610e3e5780601f10610e1357610100808354040283529160200191610e3e565b820191906000526020600020905b815481529060010190602001808311610e2157829003601f168201915b505050505081526020019060010190610da6565b505050508152602001600582018054610e6a906149dd565b80601f0160208091040260200160405190810160405280929190818152602001828054610e96906149dd565b8015610ee35780601f10610eb857610100808354040283529160200191610ee3565b820191906000526020600020905b815481529060010190602001808311610ec657829003601f168201915b505050505081526020016006820154815260200160078201805480602002602001604051908101604052809291908181526020016000905b82821015610fc4576000848152602090819020604080516080810182526004860290920180546001600160a01b0316835260018101548385015260028101548383015260038101805483518187028101870190945280845293949193606086019392830182828015610fac57602002820191906000526020600020905b815481526020019060010190808311610f98575b50505050508152505081526020019060010190610f1b565b50505090825250600882015460ff81161515602083015261010090046001600160a01b0316604082015260098201546060820152600a8201805460809092019161100d906149dd565b80601f0160208091040260200160405190810160405280929190818152602001828054611039906149dd565b80156110865780601f1061105b57610100808354040283529160200191611086565b820191906000526020600020905b81548152906001019060200180831161106957829003601f168201915b50505050508152602001600b8201805461109f906149dd565b80601f01602080910402602001604051908101604052809291908181526020018280546110cb906149dd565b80156111185780601f106110ed57610100808354040283529160200191611118565b820191906000526020600020905b8154815290600101906020018083116110fb57829003601f168201915b5050505050815250509050919050565b6000611132612b5d565b838281146111535760405163251f56a160e21b815260040160405180910390fd5b3460005b828110156111e757600086868381811061117357611173614a17565b9050602002013590508281111561119d5760405163044044a560e21b815260040160405180910390fd5b6111ca8989848181106111b2576111b2614a17565b90506020028101906111c49190614a2d565b50600190565b6111db5760009450505050506111ef565b90910390600101611157565b506001925050505b949350505050565b6000611201612b5d565b838281146112225760405163251f56a160e21b815260040160405180910390fd5b3460005b828110156111e757600086868381811061124257611242614a17565b9050602002013590508281111561126c5760405163044044a560e21b815260040160405180910390fd5b61129989898481811061128157611281614a17565b90506020028101906112939190614a2d565b82612ba6565b6112aa5760009450505050506111ef565b90910390600101611226565b60006112c3826000612ba6565b92915050565b600880546112d6906149dd565b80601f0160208091040260200160405190810160405280929190818152602001828054611302906149dd565b801561134f5780601f106113245761010080835404028352916020019161134f565b820191906000526020600020905b81548152906001019060200180831161133257829003601f168201915b505050505081565b61135f6120cb565b600555565b61138860405180606001604052806060815260200160608152602001606081525090565b600060038360405161139a91906149c1565b90815260200160405180910390209050600a81600a016040516113bd9190614a44565b9081526040805191829003602090810183208054608092810285018301909352606084018381529092849284919060009085015b8282101561149d578382906000526020600020018054611410906149dd565b80601f016020809104026020016040519081016040528092919081815260200182805461143c906149dd565b80156114895780601f1061145e57610100808354040283529160200191611489565b820191906000526020600020905b81548152906001019060200180831161146c57829003601f168201915b5050505050815260200190600101906113f1565b5050505081526020016001820180548060200260200160405190810160405280929190818152602001828054801561152457602002820191906000526020600020906000905b82829054906101000a900460ff166002811115611502576115026141f1565b8152602060019283018181049485019490930390920291018084116114e35790505b5050505050815260200160028201805480602002602001604051908101604052809291908181526020016000905b8282101561164557838290600052602060002001805480602002602001604051908101604052809291908181526020016000905b828210156116325783829060005260206000200180546115a5906149dd565b80601f01602080910402602001604051908101604052809291908181526020018280546115d1906149dd565b801561161e5780601f106115f35761010080835404028352916020019161161e565b820191906000526020600020905b81548152906001019060200180831161160157829003601f168201915b505050505081526020019060010190611586565b5050505081526020019060010190611552565b50505091525090949350505050565b6000805b6006548110156116b457826001600160a01b03166006828154811061167f5761167f614a17565b6000918252602090912001546001600160a01b0316036116a25750600192915050565b806116ac81614ad0565b915050611658565b50600092915050565b60095460ff16156116e05760405162461bcd60e51b81526004016106e29061493b565b600084511161173d5760405162461bcd60e51b8152602060048201526024808201527f4465726573793a204e616d652063616e6e6f74206265206e756c6c206f7220656044820152636d70747960e01b60648201526084016106e2565b600a8460405161174d91906149c1565b90815260405190819003602001902054156117b85760405162461bcd60e51b815260206004820152602560248201527f4465726573793a20526576696577466f726d4e616d6520616c72656164792065604482015264786973747360d81b60648201526084016106e2565b60008351116118095760405162461bcd60e51b815260206004820152601f60248201527f4465726573793a205175657374696f6e732063616e2774206265206e756c6c0060448201526064016106e2565b60008151116118665760405162461bcd60e51b8152602060048201526024808201527f4465726573793a205175657374696f6e2054797065732063616e2774206265206044820152631b9d5b1b60e21b60648201526084016106e2565b82518151146118d55760405162461bcd60e51b815260206004820152603560248201527f4465726573793a205175657374696f6e7320616e64207479706573206d757374604482015274040d0c2ecca40e8d0ca40e6c2daca40d8cadccee8d605b1b60648201526084016106e2565b815183511461194c5760405162461bcd60e51b815260206004820152603760248201527f4465726573793a205175657374696f6e7320616e642063686f69636573206d7560448201527f73742068617665207468652073616d65206c656e67746800000000000000000060648201526084016106e2565b604051806060016040528084815260200182815260200183815250600a8560405161197791906149c1565b908152602001604051809103902060008201518160000190805190602001906119a1929190613a9b565b5060208281015180516119ba9260018501920190613af1565b50604082015180516119d6916002840191602090910190613ba1565b5050600b80546001810182556000919091527f0175b7a638427703f0dbe7bb9bbf987a2551717b34e79f33b5b1008d1fa01db9019050611a168582614b38565b507fcb1290a8b5a51fbd31ad1afbab070c3ca5be2b36c9b3e3eaad9f1187d5d6e62784604051611a469190614137565b60405180910390a150505050565b611a5c6120cb565b600455565b600381604051611a7191906149c1565b90815260405190819003602001902054336001600160a01b0390911614611ada5760405162461bcd60e51b815260206004820152601d60248201527f4465726573793a204974206973206e6f74207468652073706f6e736f7200000060448201526064016106e2565b600381604051611aea91906149c1565b9081526040519081900360200190206008015460ff1615611b465760405162461bcd60e51b815260206004820152601660248201527511195c995cde4e881c995c5d595cdd0818db1bdcd95960521b60448201526064016106e2565b600381604051611b5691906149c1565b908152604051908190036020018120546001600160a01b0316906108fc90600390611b829085906149c1565b90815260405190819003602001812060090154801590920291906000818181858888f19350505050158015611bbb573d6000803e3d6000fd5b506001600382604051611bce91906149c1565b908152604051908190036020018120600801805492151560ff1990931692909217909155600090600390611c039084906149c1565b9081526020016040518091039020600901819055507fbc5c8cb2024ed254e024e37b09895ecaa07948dd0fd7a08e30b80f559888f2cf81604051611c479190614137565b60405180910390a150565b6060600b805480602002602001604051908101604052809291908181526020016000905b82821015611d22578382906000526020600020018054611c95906149dd565b80601f0160208091040260200160405190810160405280929190818152602001828054611cc1906149dd565b8015611d0e5780601f10611ce357610100808354040283529160200191611d0e565b820191906000526020600020905b815481529060010190602001808311611cf157829003601f168201915b505050505081526020019060010190611c76565b50505050905090565b611d336120cb565b600280546001600160a01b0319166001600160a01b0392909216919091179055565b611d5d6120cb565b611d6681611654565b611dab5760405162461bcd60e51b8152602060048201526016602482015275151bdad95b881b9bdd081a5b881dda1a5d195b1a5cdd60521b60448201526064016106e2565b60005b600654811015611eb257816001600160a01b031660068281548110611dd557611dd5614a17565b6000918252602090912001546001600160a01b031603611ea05760068054611dff90600190614bf7565b81548110611e0f57611e0f614a17565b600091825260209091200154600680546001600160a01b039092169183908110611e3b57611e3b614a17565b9060005260206000200160006101000a8154816001600160a01b0302191690836001600160a01b031602179055506006805480611e7a57611e7a614c0a565b600082815260209020810160001990810180546001600160a01b03191690550190555050565b80611eaa81614ad0565b915050611dae565b5050565b60606007805480602002602001604051908101604052809291908181526020016000905b82821015611d22578382906000526020600020018054611ef9906149dd565b80601f0160208091040260200160405190810160405280929190818152602001828054611f25906149dd565b8015611f725780601f10611f4757610100808354040283529160200191611f72565b820191906000526020600020905b815481529060010190602001808311611f5557829003601f168201915b505050505081526020019060010190611eda565b60606006805480602002602001604051908101604052809291908181526020018280548015611fde57602002820191906000526020600020905b81546001600160a01b03168152600190910190602001808311611fc0575b5050505050905090565b6000611ff2612b5d565b60016112c3565b919050565b6000612008612b5d565b6112c38234612ba6565b60095460ff16156120355760405162461bcd60e51b81526004016106e29061493b565b612049878787878787600088600080612125565b50505050505050565b61205a6120cb565b6001600160a01b0381166120bf5760405162461bcd60e51b815260206004820152602660248201527f4f776e61626c653a206e6577206f776e657220697320746865207a65726f206160448201526564647265737360d01b60648201526084016106e2565b6120c881612b0d565b50565b6000546001600160a01b031633146108825760405162461bcd60e51b815260206004820181905260248201527f4f776e61626c653a2063616c6c6572206973206e6f7420746865206f776e657260448201526064016106e2565b60008a511161218a5760405162461bcd60e51b815260206004820152602b60248201527f4465726573793a20526571756573744e616d652063616e6e6f74206265206e7560448201526a6c6c206f7220656d70747960a81b60648201526084016106e2565b60008951118061219b575060008851115b6121e75760405162461bcd60e51b815260206004820181905260248201527f4465726573793a205265766965776572732063616e6e6f74206265206e756c6c60448201526064016106e2565b60008751116122445760405162461bcd60e51b8152602060048201526024808201527f4465726573793a20487970657263657274204944732063616e6e6f74206265206044820152631b9d5b1b60e21b60648201526084016106e2565b60008651116122ab5760405162461bcd60e51b815260206004820152602d60248201527f4465726573793a2048797065726365727473204950465320686173686573206360448201526c185b9b9bdd081899481b9d5b1b609a1b60648201526084016106e2565b85518751146123375760405162461bcd60e51b815260206004820152604c60248201527f4465726573793a2048797065726365727449447320616e64204879706572636560448201527f727449504653486173686573206172726179206d75737420686176652074686560648201526b040e6c2daca40d8cadccee8d60a31b608482015260a4016106e2565b6000600a8460405161234991906149c1565b90815260405190819003602001902054116123b45760405162461bcd60e51b815260206004820152602560248201527f4465726573793a20526576696577466f726d4e616d6520646f6573206e6f7420604482015264195e1a5cdd60da1b60648201526084016106e2565b60006001600160a01b031660038b6040516123cf91906149c1565b908152604051908190036020019020546001600160a01b0316146124355760405162461bcd60e51b815260206004820152601760248201527f4465726573793a204e616d65206475706c69636174656400000000000000000060448201526064016106e2565b61243e82611654565b61248a5760405162461bcd60e51b815260206004820181905260248201527f4465726573793a20546f6b656e206973206e6f742077686974656c697374656460448201526064016106e2565b61249387612c07565b6124f45760405162461bcd60e51b815260206004820152602c60248201527f4465726573793a204f6e65206f72206d6f72652068797065726365727473206160448201526b1c99481b9bdd081d985b1a5960a21b60648201526084016106e2565b6000811561272f57600085116125805760405162461bcd60e51b815260206004820152604560248201527f4465726573793a20726577617264506572526576696577206d7573742062652060448201527f67726561746572207468616e207a65726f20666f722070617961626c652072656064820152641c5d595cdd60da1b608482015260a4016106e2565b6001600160a01b0383166125fd578488518b5161259d9190614c20565b6125a79190614c20565b3410156125f65760405162461bcd60e51b815260206004820152601960248201527f4465726573793a206d73672e76616c756520696e76616c69640000000000000060448201526064016106e2565b50346127a3565b341561264b5760405162461bcd60e51b815260206004820152601c60248201527f4465726573793a206d73672e76616c756520697320696e76616c69640000000060448201526064016106e2565b8488518b5161265a9190614c20565b6126649190614c20565b6040516323b872dd60e01b8152336004820152306024820152604481018290529091506001600160a01b038416906323b872dd906064016020604051808303816000875af11580156126ba573d6000803e3d6000fd5b505050506040513d601f19601f820116820180604052508101906126de9190614c37565b61272a5760405162461bcd60e51b815260206004820152601d60248201527f4465726573793a20546f6b656e207472616e73666572206661696c656400000060448201526064016106e2565b6127a3565b84156127a35760405162461bcd60e51b815260206004820152603c60248201527f4465726573793a20726577617264506572526576696577206d7573742062652060448201527f7a65726f20666f72206e6f6e2d70617961626c6520726571756573740000000060648201526084016106e2565b3360038c6040516127b491906149c1565b90815260405190819003602001812080546001600160a01b03939093166001600160a01b0319909316929092179091558a906003906127f4908e906149c1565b90815260200160405180910390206001019080519060200190612818929190613bfa565b508860038c60405161282a91906149c1565b9081526020016040518091039020600201908051906020019061284e929190613bfa565b508760038c60405161286091906149c1565b90815260200160405180910390206003019080519060200190612884929190613c4f565b508660038c60405161289691906149c1565b908152602001604051809103902060040190805190602001906128ba929190613a9b565b508560038c6040516128cc91906149c1565b908152602001604051809103902060050190816128e99190614b38565b50816128f65760006128f8565b845b60038c60405161290891906149c1565b908152602001604051809103902060060181905550600060038c60405161292f91906149c1565b908152604051908190036020018120600801805492151560ff19909316929092179091558390600390612963908e906149c1565b908152602001604051809103902060080160016101000a8154816001600160a01b0302191690836001600160a01b03160217905550816129a45760006129a6565b805b60038c6040516129b691906149c1565b9081526020016040518091039020600901819055508360038c6040516129dc91906149c1565b9081526020016040518091039020600a0190816129f99190614b38565b50600780546001810182556000919091527fa66cc928b5edb82af9bd49922954155ab7b0942694bea4ce44661d9a8736c68801612a368c82614b38565b507f0448feabbf5bb385eb3ea2cb16d90b1cb3b4c8936e399cf7a10e7b8946eec6678b604051612a669190614137565b60405180910390a15050505050505050505050565b60606000612a8883612cef565b60010190506000816001600160401b03811115612aa757612aa7613d6e565b6040519080825280601f01601f191660200182016040528015612ad1576020820181803683370190505b5090508181016020015b600019016f181899199a1a9b1b9c1cb0b131b232b360811b600a86061a8153600a8504945084612adb57509392505050565b600080546001600160a01b038381166001600160a01b0319831681178455604051919092169283917f8be0079c531659141344cd1fd0a4f28419497f9722a3daafe3b4186f6b6457e09190a35050565b336001600160a01b037f0000000000000000000000000000000000000000000000000000000000000000161461088257604051634ca8886760e01b815260040160405180910390fd5b60095460009060ff1615612bcc5760405162461bcd60e51b81526004016106e29061493b565b600454836020013503612be957612be283612dc7565b90506112c3565b600554836020013503612bff57612be28361322b565b5060006112c3565b600954600090610100900460ff1615612ce75760005b8251811015612ce55760025483516000916001600160a01b031690630e89341c90869085908110612c5057612c50614a17565b60200260200101516040518263ffffffff1660e01b8152600401612c7691815260200190565b6000604051808303816000875af1158015612c95573d6000803e3d6000fd5b505050506040513d6000823e601f3d908101601f19168201604052612cbd9190810190614c54565b90508051600014612cd2575060009392505050565b5080612cdd81614ad0565b915050612c1d565b505b506001919050565b60008072184f03e93ff9f4daa797ed6e38ed64bf6a1f0160401b8310612d2e5772184f03e93ff9f4daa797ed6e38ed64bf6a1f0160401b830492506040015b6d04ee2d6d415b85acef81000000008310612d5a576d04ee2d6d415b85acef8100000000830492506020015b662386f26fc100008310612d7857662386f26fc10000830492506010015b6305f5e1008310612d90576305f5e100830492506008015b6127108310612da457612710830492506004015b60648310612db6576064830492506002015b600a83106112c35760010192915050565b6000808080612dda610120860186614cca565b810190612de79190614d10565b5050509250925092506000600384604051612e0291906149c1565b908152602001604051809103902090506000600a82600a01604051612e279190614a44565b90815260405190819003602001902090506000612e4b610100890160e08a0161414a565b600884015490915088359060009060ff16158015612ec05750612ec085600301805480602002602001604051908101604052809291908181526020018280548015612eb557602002820191906000526020600020905b815481526020019060010190808311612ea1575b505050505088613496565b8015612ecd575085518454145b8015612ede5750612ede83896134e9565b8015612ef05750612ef08389896136be565b8015612f015750612f0184876137b8565b9050801561321e57846007016040518060800160405280856001600160a01b0316815260200189815260200184815260200160006001600160401b03811115612f4c57612f4c613d6e565b604051908082528060200260200182016040528015612f75578160200160208202803683370190505b5090528154600180820184556000938452602093849020835160049093020180546001600160a01b0319166001600160a01b039093169290921782558284015190820155604082015160028201556060820151805192939192612fde9260038501920190613c4f565b5050506006850154156131255784600601548560090160008282546130039190614bf7565b9091555050600885015461010090046001600160a01b031661305e5760068501546040516001600160a01b0385169180156108fc02916000818181858888f19350505050158015613058573d6000803e3d6000fd5b50613125565b6008850154600686015460405163a9059cbb60e01b81526001600160a01b0386811660048301526024820192909252610100909204169063a9059cbb906044016020604051808303816000875af11580156130bd573d6000803e3d6000fd5b505050506040513d601f19601f820116820180604052508101906130e19190614c37565b6131255760405162461bcd60e51b8152602060048201526015602482015274151bdad95b881d1c985b9cd9995c8819985a5b1959605a1b60448201526064016106e2565b6001546001600160a01b0316156131e65760015460405163bb69ab3360e01b81526001600160a01b039091169063bb69ab3390613168908d908c90600401614e6e565b6020604051808303816000875af1158015613187573d6000803e3d6000fd5b505050506040513d601f19601f820116820180604052508101906131ab9190614c37565b507f253a8677adaec417dae20224e9f7eb1182aed5a01b1938114cb310cd5c5d954d8a896040516131dd929190614e6e565b60405180910390a15b7f4d6dd501df538f815f442947c933fc2f545525e75f909b918a6d0701acc7904c886040516132159190614137565b60405180910390a15b9998505050505050505050565b600080808061323e610120860186614cca565b81019061324b9190614f82565b5050925092509250600060038460405161326591906149c1565b90815260405190819003602001902060078101549091501561348a5760005b6007820154811015613488578660a001358260070182815481106132aa576132aa614a17565b90600052602060002090600402016002015414801561330f57506132d5610100880160e0890161414a565b6001600160a01b03168260070182815481106132f3576132f3614a17565b60009182526020909120600490910201546001600160a01b0316145b801561331c575060008351115b801561334d57508382600701828154811061333957613339614a17565b906000526020600020906004020160010154145b15613476576000805b83600701838154811061336b5761336b614a17565b9060005260206000209060040201600301805490508110156133ee5788600001358460070184815481106133a1576133a1614a17565b906000526020600020906004020160030182815481106133c3576133c3614a17565b9060005260206000200154036133dc57600191506133ee565b806133e681614ad0565b915050613356565b50806134745782600701828154811061340957613409614a17565b600091825260208083206004929092029091016003018054600181018255908352918190208a3592018290556040519182527fee28e94ac55844f79e4a8805659e8f6ded6bfe24b7ebe0570deb71c158ec9433910160405180910390a1506001979650505050505050565b505b8061348081614ad0565b915050613284565b505b50600095945050505050565b6000805b83518110156134df57828482815181106134b6576134b6614a17565b6020026020010151036134cd5760019150506112c3565b806134d781614ad0565b91505061349a565b5060009392505050565b6000806003836040516134fc91906149c1565b90815260405190819003602001902060020154111561361f5760005b60038360405161352891906149c1565b9081526040519081900360200190206002015481101561361957600060038460405161355491906149c1565b9081526020016040518091039020600201828154811061357657613576614a17565b60009182526020822001546040516370a0823160e01b81526001600160a01b038881166004830152909116925082919082906370a0823190602401602060405180830381865afa1580156135ce573d6000803e3d6000fd5b505050506040513d601f19601f820116820180604052508101906135f29190615038565b111561360457600193505050506112c3565b5050808061361190614ad0565b915050613518565b506116b4565b60005b60038360405161363291906149c1565b908152604051908190036020019020600101548110156134df57836001600160a01b031660038460405161366691906149c1565b9081526020016040518091039020600101828154811061368857613688614a17565b6000918252602090912001546001600160a01b0316036136ac5760019150506112c3565b806136b681614ad0565b915050613622565b60006001815b6003856040516136d491906149c1565b908152604051908190036020019020600701548110156137af57836003866040516136ff91906149c1565b9081526020016040518091039020600701828154811061372157613721614a17565b9060005260206000209060040201600101541480156137935750856001600160a01b031660038660405161375591906149c1565b9081526020016040518091039020600701828154811061377757613777614a17565b60009182526020909120600490910201546001600160a01b0316145b1561379d57600091505b806137a781614ad0565b9150506136c4565b50949350505050565b6000805b8251811015613a915760028460010182815481106137dc576137dc614a17565b90600052602060002090602091828204019190069054906101000a900460ff16600281111561380d5761380d6141f1565b03613915576000805b85600201838154811061382b5761382b614a17565b6000918252602090912001548110156138fe5784838151811061385057613850614a17565b602002602001015160405160200161386891906149c1565b6040516020818303038152906040528051906020012086600201848154811061389357613893614a17565b9060005260206000200182815481106138ae576138ae614a17565b906000526020600020016040516020016138c89190614a44565b60405160208183030381529060405280519060200120036138ec57600191506138fe565b806138f681614ad0565b915050613816565b508061390f576000925050506112c3565b50613a7f565b600184600101828154811061392c5761392c614a17565b90600052602060002090602091828204019190069054906101000a900460ff16600281111561395d5761395d6141f1565b03613a53576040516259657360e81b60208201526023016040516020818303038152906040528051906020012083828151811061399c5761399c614a17565b60200260200101516040516020016139b491906149c1565b604051602081830303815290604052805190602001201480613a3a5750604051614e6f60f01b602082015260220160405160208183030381529060405280519060200120838281518110613a0a57613a0a614a17565b6020026020010151604051602001613a2291906149c1565b60405160208183030381529060405280519060200120145b15613a495760019150506112c3565b60009150506112c3565b828181518110613a6557613a65614a17565b602002602001015151600003613a7f5760009150506112c3565b80613a8981614ad0565b9150506137bc565b5060019392505050565b828054828255906000526020600020908101928215613ae1579160200282015b82811115613ae15782518290613ad19082614b38565b5091602001919060010190613abb565b50613aed929150613c8a565b5090565b82805482825590600052602060002090601f01602090048101928215613b955791602002820160005b83821115613b6657835183826101000a81548160ff02191690836002811115613b4557613b456141f1565b02179055509260200192600101602081600001049283019260010302613b1a565b8015613b935782816101000a81549060ff0219169055600101602081600001049283019260010302613b66565b505b50613aed929150613ca7565b828054828255906000526020600020908101928215613bee579160200282015b82811115613bee5782518051613bde918491602090910190613a9b565b5091602001919060010190613bc1565b50613aed929150613cbc565b828054828255906000526020600020908101928215613b95579160200282015b82811115613b9557825182546001600160a01b0319166001600160a01b03909116178255602090920191600190910190613c1a565b828054828255906000526020600020908101928215613b95579160200282015b82811115613b95578251825591602001919060010190613c6f565b80821115613aed576000613c9e8282613cd9565b50600101613c8a565b5b80821115613aed5760008155600101613ca8565b80821115613aed576000613cd08282613d13565b50600101613cbc565b508054613ce5906149dd565b6000825580601f10613cf5575050565b601f0160209004906000526020600020908101906120c89190613ca7565b50805460008255906000526020600020908101906120c89190613c8a565b80151581146120c857600080fd5b8035611ff981613d31565b600060208284031215613d5c57600080fd5b8135613d6781613d31565b9392505050565b634e487b7160e01b600052604160045260246000fd5b604051601f8201601f191681016001600160401b0381118282101715613dac57613dac613d6e565b604052919050565b60006001600160401b03821115613dcd57613dcd613d6e565b50601f01601f191660200190565b600082601f830112613dec57600080fd5b8135613dff613dfa82613db4565b613d84565b818152846020838601011115613e1457600080fd5b816020850160208301376000918101602001919091529392505050565b60006001600160401b03821115613e4a57613e4a613d6e565b5060051b60200190565b80356001600160a01b0381168114611ff957600080fd5b600082601f830112613e7c57600080fd5b81356020613e8c613dfa83613e31565b82815260059290921b84018101918181019086841115613eab57600080fd5b8286015b84811015613ecd57613ec081613e54565b8352918301918301613eaf565b509695505050505050565b600082601f830112613ee957600080fd5b81356020613ef9613dfa83613e31565b82815260059290921b84018101918181019086841115613f1857600080fd5b8286015b84811015613ecd5780358352918301918301613f1c565b600082601f830112613f4457600080fd5b81356020613f54613dfa83613e31565b82815260059290921b84018101918181019086841115613f7357600080fd5b8286015b84811015613ecd5780356001600160401b03811115613f965760008081fd5b613fa48986838b0101613ddb565b845250918301918301613f77565b60008060008060008060008060006101208a8c031215613fd157600080fd5b89356001600160401b0380821115613fe857600080fd5b613ff48d838e01613ddb565b9a5060208c013591508082111561400a57600080fd5b6140168d838e01613e6b565b995060408c013591508082111561402c57600080fd5b6140388d838e01613e6b565b985060608c013591508082111561404e57600080fd5b61405a8d838e01613ed8565b975060808c013591508082111561407057600080fd5b61407c8d838e01613f33565b965060a08c013591508082111561409257600080fd5b61409e8d838e01613ddb565b955060c08c013594506140b360e08d01613e54565b93506101008c01359150808211156140ca57600080fd5b506140d78c828d01613ddb565b9150509295985092959850929598565b60005b838110156141025781810151838201526020016140ea565b50506000910152565b600081518084526141238160208601602086016140e7565b601f01601f19169290920160200192915050565b602081526000613d67602083018461410b565b60006020828403121561415c57600080fd5b613d6782613e54565b60006020828403121561417757600080fd5b81356001600160401b0381111561418d57600080fd5b6111ef84828501613ddb565b600082825180855260208086019550808260051b84010181860160005b848110156141e457601f198684030189526141d283835161410b565b988401989250908301906001016141b6565b5090979650505050505050565b634e487b7160e01b600052602160045260246000fd5b6000815180845260208085019450848260051b860182860160005b858110156141e457838303895261423a838351614199565b98850198925090840190600101614222565b6000602080835283516060828501526142686080850182614199565b82860151601f198683038101604088015281518084529185019350600092909190850190835b818110156142c6578551600381106142b457634e487b7160e01b86526021600452602486fd5b8352948601949186019160010161428e565b505060408801519450818782030160608801526142e38186614207565b98975050505050505050565b600081518084526020808501945080840160005b838110156143285781516001600160a01b031687529582019590820190600101614303565b509495945050505050565b600081518084526020808501945080840160005b8381101561432857815187529582019590820190600101614347565b6000815180845260208085019450848260051b86018286016000805b86811015614403578484038a52825180516001600160a01b031685528681015187860152604080820151908601526060908101516080918601829052805191860182905287019060a086019084905b808210156143ee57835183529289019291890191600191909101906143ce565b50509a87019a9450509185019160010161437f565b509198975050505050505050565b6020815261442b6020820183516001600160a01b03169052565b600060208301516101a08060408501526144496101c08501836142ef565b91506040850151601f198086850301606087015261446784836142ef565b935060608701519150808685030160808701526144848483614333565b935060808701519150808685030160a08701526144a18483614199565b935060a08701519150808685030160c08701526144be848361410b565b935060c087015160e087015260e087015191506101008187860301818801526144e78584614363565b9450808801519250506101206145008188018415159052565b870151915061014061451c878201846001600160a01b03169052565b80880151925050610160828188015280880151925050610180818786030181880152614548858461410b565b908801518782039092018488015293509050614564838261410b565b9695505050505050565b60008083601f84011261458057600080fd5b5081356001600160401b0381111561459757600080fd5b6020830191508360208260051b85010111156145b257600080fd5b9250929050565b600080600080604085870312156145cf57600080fd5b84356001600160401b03808211156145e657600080fd5b6145f28883890161456e565b9096509450602087013591508082111561460b57600080fd5b506146188782880161456e565b95989497509550505050565b60006020828403121561463657600080fd5b81356001600160401b0381111561464c57600080fd5b82016101408185031215613d6757600080fd5b60006020828403121561467157600080fd5b5035919050565b600082601f83011261468957600080fd5b81356020614699613dfa83613e31565b82815260059290921b840181019181810190868411156146b857600080fd5b8286015b84811015613ecd578035600381106146d45760008081fd5b83529183019183016146bc565b600080600080608085870312156146f757600080fd5b84356001600160401b038082111561470e57600080fd5b61471a88838901613ddb565b955060209150818701358181111561473157600080fd5b61473d89828a01613f33565b95505060408701358181111561475257600080fd5b8701601f8101891361476357600080fd5b8035614771613dfa82613e31565b81815260059190911b8201840190848101908b83111561479057600080fd5b8584015b838110156147c8578035868111156147ac5760008081fd5b6147ba8e8983890101613f33565b845250918601918601614794565b50965050505060608701359150808211156147e257600080fd5b506147ef87828801614678565b91505092959194509250565b602081526000613d676020830184614199565b602081526000613d6760208301846142ef565b600080600080600080600060e0888a03121561483c57600080fd5b87356001600160401b038082111561485357600080fd5b61485f8b838c01613ddb565b985060208a013591508082111561487557600080fd5b6148818b838c01613e6b565b975060408a013591508082111561489757600080fd5b6148a38b838c01613e6b565b965060608a01359150808211156148b957600080fd5b6148c58b838c01613ed8565b955060808a01359150808211156148db57600080fd5b6148e78b838c01613f33565b945060a08a01359150808211156148fd57600080fd5b6149098b838c01613ddb565b935060c08a013591508082111561491f57600080fd5b5061492c8a828b01613ddb565b91505092959891949750929550565b60208082526012908201527110dbdb9d1c9858dd081a5cc81c185d5cd95960721b604082015260600190565b600084516149798184602089016140e7565b8083019050601760f91b8082528551614999816001850160208a016140e7565b600192019182015283516149b48160028401602088016140e7565b0160020195945050505050565b600082516149d38184602087016140e7565b9190910192915050565b600181811c908216806149f157607f821691505b602082108103614a1157634e487b7160e01b600052602260045260246000fd5b50919050565b634e487b7160e01b600052603260045260246000fd5b6000823561013e198336030181126149d357600080fd5b6000808354614a52816149dd565b60018281168015614a6a5760018114614a7f57614aae565b60ff1984168752821515830287019450614aae565b8760005260208060002060005b85811015614aa55781548a820152908401908201614a8c565b50505082870194505b50929695505050505050565b634e487b7160e01b600052601160045260246000fd5b600060018201614ae257614ae2614aba565b5060010190565b601f821115614b3357600081815260208120601f850160051c81016020861015614b105750805b601f850160051c820191505b81811015614b2f57828155600101614b1c565b5050505b505050565b81516001600160401b03811115614b5157614b51613d6e565b614b6581614b5f84546149dd565b84614ae9565b602080601f831160018114614b9a5760008415614b825750858301515b600019600386901b1c1916600185901b178555614b2f565b600085815260208120601f198616915b82811015614bc957888601518255948401946001909101908401614baa565b5085821015614be75787850151600019600388901b60f8161c191681555b5050505050600190811b01905550565b818103818111156112c3576112c3614aba565b634e487b7160e01b600052603160045260246000fd5b80820281158282048414176112c3576112c3614aba565b600060208284031215614c4957600080fd5b8151613d6781613d31565b600060208284031215614c6657600080fd5b81516001600160401b03811115614c7c57600080fd5b8201601f81018413614c8d57600080fd5b8051614c9b613dfa82613db4565b818152856020838501011115614cb057600080fd5b614cc18260208301602086016140e7565b95945050505050565b6000808335601e19843603018112614ce157600080fd5b8301803591506001600160401b03821115614cfb57600080fd5b6020019150368190038213156145b257600080fd5b60008060008060008060c08789031215614d2957600080fd5b86356001600160401b0380821115614d4057600080fd5b614d4c8a838b01613ddb565b9750602089013596506040890135915080821115614d6957600080fd5b614d758a838b01613f33565b95506060890135915080821115614d8b57600080fd5b614d978a838b01613f33565b94506080890135915080821115614dad57600080fd5b614db98a838b01613ddb565b935060a0890135915080821115614dcf57600080fd5b50614ddc89828a01613f33565b9150509295509295509295565b80356001600160401b0381168114611ff957600080fd5b6000808335601e19843603018112614e1757600080fd5b83016020810192503590506001600160401b03811115614e3657600080fd5b8036038213156145b257600080fd5b81835281816020850137506000828201602090810191909152601f909101601f19169091010190565b6040815282356040820152602083013560608201526000614e9160408501614de9565b6001600160401b03166080830152614eab60608501614de9565b6001600160401b031660a0830152614ec560808501614de9565b6001600160401b03811660c08401525060a084013560e0830152614eeb60c08501613e54565b610100614f02818501836001600160a01b03169052565b614f0e60e08701613e54565b9150610120614f27818601846001600160a01b03169052565b614f32828801613d3f565b92506101409150614f468286018415159052565b614f5281880188614e00565b9350905081610160860152614f6c61018086018483614e45565b925050508281036020840152614cc1818561410b565b600080600080600060a08688031215614f9a57600080fd5b85356001600160401b0380821115614fb157600080fd5b614fbd89838a01613ddb565b9650602088013595506040880135915080821115614fda57600080fd5b614fe689838a01613ddb565b94506060880135915080821115614ffc57600080fd5b61500889838a01613ddb565b9350608088013591508082111561501e57600080fd5b5061502b88828901613f33565b9150509295509295909350565b60006020828403121561504a57600080fd5b505191905056fea2646970667358221220dd96a22ddc7700af2d8383693481cdcd00b204baa70edd3b285912dec6fab47164736f6c63430008130033",
  "immutableReferences": {
    "411": [
      {
        "length": 32,
        "start": 1828
      }
    ],
    "413": [
      {
        "length": 32,
        "start": 1869
      }
    ],
    "415": [
      {
        "length": 32,
        "start": 1910
      }
    ],
    "549": [
      {
        "length": 32,
        "start": 11112
      }
    ]
  },
  "source": "// SPDX-License-Identifier: MIT\npragma solidity 0.8.19;\n\nimport \"./DeresyResolver.sol\"; // Import your original contract\n\ncontract DeresyAttestations is DeresyResolver {\n    constructor(IEAS eas) DeresyResolver(eas) {} // Constructor should match the original contract\n    function deresyAttestation(\n        Attestation calldata attestation\n    ) external returns (bool) {\n        // Call the internal function you want to test\n        return onAttest(attestation, 0);\n    }\n}",
  "sourcePath": "/home/ozzlopz/chimi/deresy/deresy-v2-smart-contracts/contracts/AttestationsDeresyResolver.sol",
  "compiler": {
    "name": "solc",
    "version": "0.8.19+commit.7dd6d404.Emscripten.clang"
  },
  "schemaVersion": "3.4.16",
  "updatedAt": "2024-04-17T18:38:38.291Z",
  "devdoc": {
    "kind": "dev",
    "methods": {
      "attest((bytes32,bytes32,uint64,uint64,uint64,bytes32,address,address,bool,bytes))": {
        "params": {
          "attestation": "The new attestation."
        },
        "returns": {
          "_0": "Whether the attestation is valid."
        }
      },
      "closeReviewRequest(string)": {
        "custom:requires": "msg.sender must be the sponsor of the review requestThe review request must not already be closed",
        "details": "Transfers remaining funds back to the sponsor and marks the request as closed",
        "params": {
          "_name": "The name of the review request to close"
        }
      },
      "createNonPayableRequest(string,address[],address[],uint256[],string[],string,string)": {
        "custom:requires": "The contract should not be paused",
        "details": "This function creates a review request without allocating any funds",
        "params": {
          "_name": "The name of the review request",
          "formIpfsHash": "IPFS hash of the review form",
          "hypercertIDs": "Array of hypercert IDs associated with the review",
          "hypercertIPFSHashes": "Array of IPFS hashes for the hypercerts",
          "reviewFormName": "Name of the review form",
          "reviewers": "Array of addresses of the reviewers"
        }
      },
      "createRequest(string,address[],address[],uint256[],string[],string,uint256,address,string)": {
        "custom:requires": "The contract should not be paused",
        "details": "This function creates a review request and allocates funds for it",
        "params": {
          "_name": "The name of the review request",
          "formIpfsHash": "IPFS hash of the review form",
          "hypercertIDs": "Array of hypercert IDs associated with the review",
          "hypercertIPFSHashes": "Array of IPFS hashes for the hypercerts",
          "paymentTokenAddress": "Address of the payment token",
          "reviewFormName": "Name of the review form",
          "reviewers": "Array of addresses of the reviewers",
          "rewardPerReview": "Amount of reward per review"
        }
      },
      "createReviewForm(string,string[],string[][],uint8[])": {
        "custom:requires": "Name must not be null or emptyReview form name must be uniqueQuestions array cannot be emptyQuestionTypes array cannot be emptyQuestions and types must have the same lengthQuestions and choices must have the same length",
        "details": "Only callable when the contract is not paused",
        "params": {
          "_name": "The name of the review form",
          "choices": "Array of choices for each question",
          "questionTypes": "Array of types for each question",
          "questions": "Array of questions for the review form"
        }
      },
      "getRequest(string)": {
        "params": {
          "_name": "The name of the review request"
        },
        "returns": {
          "reviewRequest": "Returns the review request struct"
        }
      },
      "getRequestReviewForm(string)": {
        "params": {
          "_name": "The name of the review request"
        },
        "returns": {
          "requestReviewForm": "Returns the review form struct"
        }
      },
      "getReviewForm(string)": {
        "params": {
          "_reviewFormName": "The name of the review form"
        },
        "returns": {
          "reviewForm": "Returns the review form struct"
        }
      },
      "getReviewFormsNames()": {
        "returns": {
          "_0": "An array of review form names"
        }
      },
      "getReviewRequestsNames()": {
        "returns": {
          "_0": "An array of review request names"
        }
      },
      "getWhitelistedTokens()": {
        "returns": {
          "_0": "An array of addresses of the whitelisted tokens"
        }
      },
      "isPayable()": {
        "returns": {
          "_0": "Whether the resolver supports ETH transfers."
        }
      },
      "isTokenWhitelisted(address)": {
        "params": {
          "tokenAddress": "The address of the token to check"
        },
        "returns": {
          "_0": "Returns true if the token is whitelisted, false otherwise"
        }
      },
      "multiAttest((bytes32,bytes32,uint64,uint64,uint64,bytes32,address,address,bool,bytes)[],uint256[])": {
        "params": {
          "attestations": "The new attestations.",
          "values": "Explicit ETH amounts which were sent with each attestation."
        },
        "returns": {
          "_0": "Whether all the attestations are valid."
        }
      },
      "multiRevoke((bytes32,bytes32,uint64,uint64,uint64,bytes32,address,address,bool,bytes)[],uint256[])": {
        "params": {
          "attestations": "The existing attestations to be revoked.",
          "values": "Explicit ETH amounts which were sent with each revocation."
        },
        "returns": {
          "_0": "Whether the attestations can be revoked."
        }
      },
      "owner()": {
        "details": "Returns the address of the current owner."
      },
      "pause()": {
        "details": "Only callable by the contract owner and when the contract is not paused"
      },
      "renounceOwnership()": {
        "details": "Leaves the contract without owner. It will not be possible to call `onlyOwner` functions. Can only be called by the current owner. NOTE: Renouncing ownership will leave the contract without an owner, thereby disabling any functionality that is only available to the owner."
      },
      "revoke((bytes32,bytes32,uint64,uint64,uint64,bytes32,address,address,bool,bytes))": {
        "params": {
          "attestation": "The existing attestation to be revoked."
        },
        "returns": {
          "_0": "Whether the attestation can be revoked."
        }
      },
      "setAmendmentsSchemaID(bytes32)": {
        "custom:requires": "Only callable by the owner",
        "params": {
          "_amendmentsSchemaID": "The new schema ID"
        }
      },
      "setCallbackContract(address)": {
        "custom:requires": "Only callable by the ownerContract should not be paused",
        "params": {
          "_callbackContractAddress": "The address of the callback contract"
        }
      },
      "setHypercertContract(address)": {
        "custom:requires": "Only callable by the owner",
        "params": {
          "_hypercertContractAddress": "The address of the hypercert contract"
        }
      },
      "setReviewsSchemaID(bytes32)": {
        "custom:requires": "Only callable by the owner",
        "params": {
          "_reviewsSchemaID": "The new schema ID"
        }
      },
      "setValidateHypercertIDs(bool)": {
        "custom:requires": "Only callable by the owner",
        "params": {
          "_validateHypercertIDs": "Boolean flag to enable or disable validation"
        }
      },
      "transferOwnership(address)": {
        "details": "Transfers ownership of the contract to a new account (`newOwner`). Can only be called by the current owner."
      },
      "unpause()": {
        "details": "Only callable by the contract owner"
      },
      "unwhitelistToken(address)": {
        "custom:requires": "Token must be in the whitelist",
        "details": "Only callable by the contract owner",
        "params": {
          "tokenAddress": "The address of the token to be removed from the whitelist"
        }
      },
      "version()": {
        "returns": {
          "_0": "Semver contract version as a string."
        }
      },
      "whitelistToken(address)": {
        "custom:requires": "Token must not already be whitelisted",
        "details": "Only callable by the contract owner",
        "params": {
          "tokenAddress": "The address of the token to be whitelisted"
        }
      }
    },
    "version": 1
  },
  "userdoc": {
    "kind": "user",
    "methods": {
      "attest((bytes32,bytes32,uint64,uint64,uint64,bytes32,address,address,bool,bytes))": {
        "notice": "Processes an attestation and verifies whether it's valid."
      },
      "closeReviewRequest(string)": {
        "notice": "Closes an existing review request"
      },
      "createNonPayableRequest(string,address[],address[],uint256[],string[],string,string)": {
        "notice": "Creates a new non-payable review request"
      },
      "createRequest(string,address[],address[],uint256[],string[],string,uint256,address,string)": {
        "notice": "Creates a new payable review request"
      },
      "createReviewForm(string,string[],string[][],uint8[])": {
        "notice": "Creates a new review form"
      },
      "getRequest(string)": {
        "notice": "Retrieves details of a specific review request"
      },
      "getRequestReviewForm(string)": {
        "notice": "Retrieves the review form associated with a specific review request"
      },
      "getReviewForm(string)": {
        "notice": "Retrieves a specific review form by name"
      },
      "getReviewFormsNames()": {
        "notice": "Retrieves the names of all review forms"
      },
      "getReviewRequestsNames()": {
        "notice": "Retrieves the names of all review requests"
      },
      "getWhitelistedTokens()": {
        "notice": "Retrieves all whitelisted tokens"
      },
      "isPayable()": {
        "notice": "Checks if the resolver can be sent ETH."
      },
      "isTokenWhitelisted(address)": {
        "notice": "Checks if a token is whitelisted"
      },
      "multiAttest((bytes32,bytes32,uint64,uint64,uint64,bytes32,address,address,bool,bytes)[],uint256[])": {
        "notice": "Processes multiple attestations and verifies whether they are valid."
      },
      "multiRevoke((bytes32,bytes32,uint64,uint64,uint64,bytes32,address,address,bool,bytes)[],uint256[])": {
        "notice": "Processes revocation of multiple attestation and verifies they can be revoked."
      },
      "pause()": {
        "notice": "Pauses the contract"
      },
      "revoke((bytes32,bytes32,uint64,uint64,uint64,bytes32,address,address,bool,bytes))": {
        "notice": "Processes an attestation revocation and verifies if it can be revoked."
      },
      "setAmendmentsSchemaID(bytes32)": {
        "notice": "Sets the schema ID for amendments"
      },
      "setCallbackContract(address)": {
        "notice": "Sets the callback contract address"
      },
      "setHypercertContract(address)": {
        "notice": "Sets the hypercert contract address"
      },
      "setReviewsSchemaID(bytes32)": {
        "notice": "Sets the schema ID for reviews"
      },
      "setValidateHypercertIDs(bool)": {
        "notice": "Enables or disables hypercert ID validation"
      },
      "unpause()": {
        "notice": "Unpauses the contract"
      },
      "unwhitelistToken(address)": {
        "notice": "Removes a token from the whitelist"
      },
      "version()": {
        "notice": "Returns the full semver contract version."
      },
      "whitelistToken(address)": {
        "notice": "Adds a token to the whitelist"
      }
    },
    "version": 1
  }
}