{
  "contractName": "DeresyResolver",
  "abi": [
    {
      "inputs": [
        {
          "internalType": "contract IEAS",
          "name": "eas",
          "type": "address"
        }
      ],
      "stateMutability": "nonpayable",
      "type": "constructor"
    },
    {
      "inputs": [],
      "name": "AccessDenied",
      "type": "error"
    },
    {
      "inputs": [],
      "name": "InsufficientValue",
      "type": "error"
    },
    {
      "inputs": [],
      "name": "InvalidEAS",
      "type": "error"
    },
    {
      "inputs": [],
      "name": "InvalidLength",
      "type": "error"
    },
    {
      "inputs": [],
      "name": "NotPayable",
      "type": "error"
    },
    {
      "anonymous": false,
      "inputs": [
        {
          "indexed": false,
          "internalType": "string",
          "name": "_requestName",
          "type": "string"
        }
      ],
      "name": "ClosedReviewRequest",
      "type": "event"
    },
    {
      "anonymous": false,
      "inputs": [
        {
          "indexed": false,
          "internalType": "string",
          "name": "_formName",
          "type": "string"
        }
      ],
      "name": "CreatedReviewForm",
      "type": "event"
    },
    {
      "anonymous": false,
      "inputs": [
        {
          "indexed": false,
          "internalType": "string",
          "name": "_requestName",
          "type": "string"
        }
      ],
      "name": "CreatedReviewRequest",
      "type": "event"
    },
    {
      "anonymous": false,
      "inputs": [
        {
          "components": [
            {
              "internalType": "bytes32",
              "name": "uid",
              "type": "bytes32"
            },
            {
              "internalType": "bytes32",
              "name": "schema",
              "type": "bytes32"
            },
            {
              "internalType": "uint64",
              "name": "time",
              "type": "uint64"
            },
            {
              "internalType": "uint64",
              "name": "expirationTime",
              "type": "uint64"
            },
            {
              "internalType": "uint64",
              "name": "revocationTime",
              "type": "uint64"
            },
            {
              "internalType": "bytes32",
              "name": "refUID",
              "type": "bytes32"
            },
            {
              "internalType": "address",
              "name": "recipient",
              "type": "address"
            },
            {
              "internalType": "address",
              "name": "attester",
              "type": "address"
            },
            {
              "internalType": "bool",
              "name": "revocable",
              "type": "bool"
            },
            {
              "internalType": "bytes",
              "name": "data",
              "type": "bytes"
            }
          ],
          "indexed": false,
          "internalType": "struct Attestation",
          "name": "_attestation",
          "type": "tuple"
        },
        {
          "indexed": false,
          "internalType": "string",
          "name": "_requestName",
          "type": "string"
        }
      ],
      "name": "OnReviewCallback",
      "type": "event"
    },
    {
      "anonymous": false,
      "inputs": [
        {
          "indexed": true,
          "internalType": "address",
          "name": "previousOwner",
          "type": "address"
        },
        {
          "indexed": true,
          "internalType": "address",
          "name": "newOwner",
          "type": "address"
        }
      ],
      "name": "OwnershipTransferred",
      "type": "event"
    },
    {
      "anonymous": false,
      "inputs": [
        {
          "indexed": false,
          "internalType": "bytes32",
          "name": "_uid",
          "type": "bytes32"
        }
      ],
      "name": "SubmittedAmendment",
      "type": "event"
    },
    {
      "anonymous": false,
      "inputs": [
        {
          "indexed": false,
          "internalType": "string",
          "name": "_requestName",
          "type": "string"
        }
      ],
      "name": "SubmittedReview",
      "type": "event"
    },
    {
      "inputs": [],
      "name": "amendmentsSchemaID",
      "outputs": [
        {
          "internalType": "bytes32",
          "name": "",
          "type": "bytes32"
        }
      ],
      "stateMutability": "view",
      "type": "function"
    },
    {
      "inputs": [
        {
          "components": [
            {
              "internalType": "bytes32",
              "name": "uid",
              "type": "bytes32"
            },
            {
              "internalType": "bytes32",
              "name": "schema",
              "type": "bytes32"
            },
            {
              "internalType": "uint64",
              "name": "time",
              "type": "uint64"
            },
            {
              "internalType": "uint64",
              "name": "expirationTime",
              "type": "uint64"
            },
            {
              "internalType": "uint64",
              "name": "revocationTime",
              "type": "uint64"
            },
            {
              "internalType": "bytes32",
              "name": "refUID",
              "type": "bytes32"
            },
            {
              "internalType": "address",
              "name": "recipient",
              "type": "address"
            },
            {
              "internalType": "address",
              "name": "attester",
              "type": "address"
            },
            {
              "internalType": "bool",
              "name": "revocable",
              "type": "bool"
            },
            {
              "internalType": "bytes",
              "name": "data",
              "type": "bytes"
            }
          ],
          "internalType": "struct Attestation",
          "name": "attestation",
          "type": "tuple"
        }
      ],
      "name": "attest",
      "outputs": [
        {
          "internalType": "bool",
          "name": "",
          "type": "bool"
        }
      ],
      "stateMutability": "payable",
      "type": "function"
    },
    {
      "inputs": [],
      "name": "callbackContract",
      "outputs": [
        {
          "internalType": "contract IOnReviewable",
          "name": "",
          "type": "address"
        }
      ],
      "stateMutability": "view",
      "type": "function"
    },
    {
      "inputs": [],
      "name": "contractVersion",
      "outputs": [
        {
          "internalType": "string",
          "name": "",
          "type": "string"
        }
      ],
      "stateMutability": "view",
      "type": "function"
    },
    {
      "inputs": [],
      "name": "hypercertContract",
      "outputs": [
        {
          "internalType": "contract IHypercertable",
          "name": "",
          "type": "address"
        }
      ],
      "stateMutability": "view",
      "type": "function"
    },
    {
      "inputs": [],
      "name": "isPayable",
      "outputs": [
        {
          "internalType": "bool",
          "name": "",
          "type": "bool"
        }
      ],
      "stateMutability": "pure",
      "type": "function"
    },
    {
      "inputs": [
        {
          "components": [
            {
              "internalType": "bytes32",
              "name": "uid",
              "type": "bytes32"
            },
            {
              "internalType": "bytes32",
              "name": "schema",
              "type": "bytes32"
            },
            {
              "internalType": "uint64",
              "name": "time",
              "type": "uint64"
            },
            {
              "internalType": "uint64",
              "name": "expirationTime",
              "type": "uint64"
            },
            {
              "internalType": "uint64",
              "name": "revocationTime",
              "type": "uint64"
            },
            {
              "internalType": "bytes32",
              "name": "refUID",
              "type": "bytes32"
            },
            {
              "internalType": "address",
              "name": "recipient",
              "type": "address"
            },
            {
              "internalType": "address",
              "name": "attester",
              "type": "address"
            },
            {
              "internalType": "bool",
              "name": "revocable",
              "type": "bool"
            },
            {
              "internalType": "bytes",
              "name": "data",
              "type": "bytes"
            }
          ],
          "internalType": "struct Attestation[]",
          "name": "attestations",
          "type": "tuple[]"
        },
        {
          "internalType": "uint256[]",
          "name": "values",
          "type": "uint256[]"
        }
      ],
      "name": "multiAttest",
      "outputs": [
        {
          "internalType": "bool",
          "name": "",
          "type": "bool"
        }
      ],
      "stateMutability": "payable",
      "type": "function"
    },
    {
      "inputs": [
        {
          "components": [
            {
              "internalType": "bytes32",
              "name": "uid",
              "type": "bytes32"
            },
            {
              "internalType": "bytes32",
              "name": "schema",
              "type": "bytes32"
            },
            {
              "internalType": "uint64",
              "name": "time",
              "type": "uint64"
            },
            {
              "internalType": "uint64",
              "name": "expirationTime",
              "type": "uint64"
            },
            {
              "internalType": "uint64",
              "name": "revocationTime",
              "type": "uint64"
            },
            {
              "internalType": "bytes32",
              "name": "refUID",
              "type": "bytes32"
            },
            {
              "internalType": "address",
              "name": "recipient",
              "type": "address"
            },
            {
              "internalType": "address",
              "name": "attester",
              "type": "address"
            },
            {
              "internalType": "bool",
              "name": "revocable",
              "type": "bool"
            },
            {
              "internalType": "bytes",
              "name": "data",
              "type": "bytes"
            }
          ],
          "internalType": "struct Attestation[]",
          "name": "attestations",
          "type": "tuple[]"
        },
        {
          "internalType": "uint256[]",
          "name": "values",
          "type": "uint256[]"
        }
      ],
      "name": "multiRevoke",
      "outputs": [
        {
          "internalType": "bool",
          "name": "",
          "type": "bool"
        }
      ],
      "stateMutability": "payable",
      "type": "function"
    },
    {
      "inputs": [],
      "name": "owner",
      "outputs": [
        {
          "internalType": "address",
          "name": "",
          "type": "address"
        }
      ],
      "stateMutability": "view",
      "type": "function"
    },
    {
      "inputs": [],
      "name": "paused",
      "outputs": [
        {
          "internalType": "bool",
          "name": "",
          "type": "bool"
        }
      ],
      "stateMutability": "view",
      "type": "function"
    },
    {
      "inputs": [],
      "name": "renounceOwnership",
      "outputs": [],
      "stateMutability": "nonpayable",
      "type": "function"
    },
    {
      "inputs": [],
      "name": "reviewsSchemaID",
      "outputs": [
        {
          "internalType": "bytes32",
          "name": "",
          "type": "bytes32"
        }
      ],
      "stateMutability": "view",
      "type": "function"
    },
    {
      "inputs": [
        {
          "components": [
            {
              "internalType": "bytes32",
              "name": "uid",
              "type": "bytes32"
            },
            {
              "internalType": "bytes32",
              "name": "schema",
              "type": "bytes32"
            },
            {
              "internalType": "uint64",
              "name": "time",
              "type": "uint64"
            },
            {
              "internalType": "uint64",
              "name": "expirationTime",
              "type": "uint64"
            },
            {
              "internalType": "uint64",
              "name": "revocationTime",
              "type": "uint64"
            },
            {
              "internalType": "bytes32",
              "name": "refUID",
              "type": "bytes32"
            },
            {
              "internalType": "address",
              "name": "recipient",
              "type": "address"
            },
            {
              "internalType": "address",
              "name": "attester",
              "type": "address"
            },
            {
              "internalType": "bool",
              "name": "revocable",
              "type": "bool"
            },
            {
              "internalType": "bytes",
              "name": "data",
              "type": "bytes"
            }
          ],
          "internalType": "struct Attestation",
          "name": "attestation",
          "type": "tuple"
        }
      ],
      "name": "revoke",
      "outputs": [
        {
          "internalType": "bool",
          "name": "",
          "type": "bool"
        }
      ],
      "stateMutability": "payable",
      "type": "function"
    },
    {
      "inputs": [
        {
          "internalType": "address",
          "name": "newOwner",
          "type": "address"
        }
      ],
      "name": "transferOwnership",
      "outputs": [],
      "stateMutability": "nonpayable",
      "type": "function"
    },
    {
      "inputs": [],
      "name": "validateHypercertIDs",
      "outputs": [
        {
          "internalType": "bool",
          "name": "",
          "type": "bool"
        }
      ],
      "stateMutability": "view",
      "type": "function"
    },
    {
      "inputs": [],
      "name": "version",
      "outputs": [
        {
          "internalType": "string",
          "name": "",
          "type": "string"
        }
      ],
      "stateMutability": "view",
      "type": "function"
    },
    {
      "stateMutability": "payable",
      "type": "receive"
    },
    {
      "inputs": [
        {
          "internalType": "address",
          "name": "tokenAddress",
          "type": "address"
        }
      ],
      "name": "isTokenWhitelisted",
      "outputs": [
        {
          "internalType": "bool",
          "name": "",
          "type": "bool"
        }
      ],
      "stateMutability": "view",
      "type": "function"
    },
    {
      "inputs": [
        {
          "internalType": "address",
          "name": "tokenAddress",
          "type": "address"
        }
      ],
      "name": "whitelistToken",
      "outputs": [],
      "stateMutability": "nonpayable",
      "type": "function"
    },
    {
      "inputs": [
        {
          "internalType": "address",
          "name": "tokenAddress",
          "type": "address"
        }
      ],
      "name": "unwhitelistToken",
      "outputs": [],
      "stateMutability": "nonpayable",
      "type": "function"
    },
    {
      "inputs": [],
      "name": "pause",
      "outputs": [],
      "stateMutability": "nonpayable",
      "type": "function"
    },
    {
      "inputs": [],
      "name": "unpause",
      "outputs": [],
      "stateMutability": "nonpayable",
      "type": "function"
    },
    {
      "inputs": [
        {
          "internalType": "string",
          "name": "_name",
          "type": "string"
        },
        {
          "internalType": "string[]",
          "name": "questions",
          "type": "string[]"
        },
        {
          "internalType": "string[][]",
          "name": "choices",
          "type": "string[][]"
        },
        {
          "internalType": "enum DeresyResolver.QuestionType[]",
          "name": "questionTypes",
          "type": "uint8[]"
        }
      ],
      "name": "createReviewForm",
      "outputs": [],
      "stateMutability": "nonpayable",
      "type": "function"
    },
    {
      "inputs": [
        {
          "internalType": "string",
          "name": "_name",
          "type": "string"
        },
        {
          "internalType": "address[]",
          "name": "reviewers",
          "type": "address[]"
        },
        {
          "internalType": "address[]",
          "name": "reviewerContracts",
          "type": "address[]"
        },
        {
          "internalType": "uint256[]",
          "name": "hypercertIDs",
          "type": "uint256[]"
        },
        {
          "internalType": "string[]",
          "name": "hypercertIPFSHashes",
          "type": "string[]"
        },
        {
          "internalType": "string",
          "name": "formIpfsHash",
          "type": "string"
        },
        {
          "internalType": "uint256",
          "name": "rewardPerReview",
          "type": "uint256"
        },
        {
          "internalType": "address",
          "name": "paymentTokenAddress",
          "type": "address"
        },
        {
          "internalType": "string",
          "name": "reviewFormName",
          "type": "string"
        }
      ],
      "name": "createRequest",
      "outputs": [],
      "stateMutability": "payable",
      "type": "function"
    },
    {
      "inputs": [
        {
          "internalType": "string",
          "name": "_name",
          "type": "string"
        },
        {
          "internalType": "address[]",
          "name": "reviewers",
          "type": "address[]"
        },
        {
          "internalType": "address[]",
          "name": "reviewerContracts",
          "type": "address[]"
        },
        {
          "internalType": "uint256[]",
          "name": "hypercertIDs",
          "type": "uint256[]"
        },
        {
          "internalType": "string[]",
          "name": "hypercertIPFSHashes",
          "type": "string[]"
        },
        {
          "internalType": "string",
          "name": "formIpfsHash",
          "type": "string"
        },
        {
          "internalType": "string",
          "name": "reviewFormName",
          "type": "string"
        }
      ],
      "name": "createNonPayableRequest",
      "outputs": [],
      "stateMutability": "nonpayable",
      "type": "function"
    },
    {
      "inputs": [
        {
          "internalType": "string",
          "name": "_name",
          "type": "string"
        }
      ],
      "name": "closeReviewRequest",
      "outputs": [],
      "stateMutability": "nonpayable",
      "type": "function"
    },
    {
      "inputs": [
        {
          "internalType": "string",
          "name": "_name",
          "type": "string"
        }
      ],
      "name": "getRequest",
      "outputs": [
        {
          "components": [
            {
              "internalType": "address",
              "name": "sponsor",
              "type": "address"
            },
            {
              "internalType": "address[]",
              "name": "reviewers",
              "type": "address[]"
            },
            {
              "internalType": "address[]",
              "name": "reviewerContracts",
              "type": "address[]"
            },
            {
              "internalType": "uint256[]",
              "name": "hypercertIDs",
              "type": "uint256[]"
            },
            {
              "internalType": "string[]",
              "name": "hypercertIPFSHashes",
              "type": "string[]"
            },
            {
              "internalType": "string",
              "name": "formIpfsHash",
              "type": "string"
            },
            {
              "internalType": "uint256",
              "name": "rewardPerReview",
              "type": "uint256"
            },
            {
              "components": [
                {
                  "internalType": "address",
                  "name": "reviewer",
                  "type": "address"
                },
                {
                  "internalType": "uint256",
                  "name": "hypercertID",
                  "type": "uint256"
                },
                {
                  "internalType": "bytes32",
                  "name": "attestationID",
                  "type": "bytes32"
                },
                {
                  "internalType": "bytes32[]",
                  "name": "amendmentsUIDs",
                  "type": "bytes32[]"
                }
              ],
              "internalType": "struct DeresyResolver.Review[]",
              "name": "reviews",
              "type": "tuple[]"
            },
            {
              "internalType": "bool",
              "name": "isClosed",
              "type": "bool"
            },
            {
              "internalType": "address",
              "name": "paymentTokenAddress",
              "type": "address"
            },
            {
              "internalType": "uint256",
              "name": "fundsLeft",
              "type": "uint256"
            },
            {
              "internalType": "string",
              "name": "reviewFormName",
              "type": "string"
            },
            {
              "internalType": "string",
              "name": "name",
              "type": "string"
            }
          ],
          "internalType": "struct DeresyResolver.ReviewRequest",
          "name": "reviewRequest",
          "type": "tuple"
        }
      ],
      "stateMutability": "view",
      "type": "function"
    },
    {
      "inputs": [
        {
          "internalType": "string",
          "name": "_name",
          "type": "string"
        }
      ],
      "name": "getRequestReviewForm",
      "outputs": [
        {
          "components": [
            {
              "internalType": "string[]",
              "name": "questions",
              "type": "string[]"
            },
            {
              "internalType": "enum DeresyResolver.QuestionType[]",
              "name": "questionTypes",
              "type": "uint8[]"
            },
            {
              "internalType": "string[][]",
              "name": "choices",
              "type": "string[][]"
            }
          ],
          "internalType": "struct DeresyResolver.ReviewForm",
          "name": "requestReviewForm",
          "type": "tuple"
        }
      ],
      "stateMutability": "view",
      "type": "function"
    },
    {
      "inputs": [
        {
          "internalType": "string",
          "name": "_reviewFormName",
          "type": "string"
        }
      ],
      "name": "getReviewForm",
      "outputs": [
        {
          "components": [
            {
              "internalType": "string[]",
              "name": "questions",
              "type": "string[]"
            },
            {
              "internalType": "enum DeresyResolver.QuestionType[]",
              "name": "questionTypes",
              "type": "uint8[]"
            },
            {
              "internalType": "string[][]",
              "name": "choices",
              "type": "string[][]"
            }
          ],
          "internalType": "struct DeresyResolver.ReviewForm",
          "name": "reviewForm",
          "type": "tuple"
        }
      ],
      "stateMutability": "view",
      "type": "function"
    },
    {
      "inputs": [],
      "name": "getReviewRequestsNames",
      "outputs": [
        {
          "internalType": "string[]",
          "name": "",
          "type": "string[]"
        }
      ],
      "stateMutability": "view",
      "type": "function"
    },
    {
      "inputs": [],
      "name": "getWhitelistedTokens",
      "outputs": [
        {
          "internalType": "address[]",
          "name": "",
          "type": "address[]"
        }
      ],
      "stateMutability": "view",
      "type": "function"
    },
    {
      "inputs": [],
      "name": "getReviewFormsNames",
      "outputs": [
        {
          "internalType": "string[]",
          "name": "",
          "type": "string[]"
        }
      ],
      "stateMutability": "view",
      "type": "function"
    },
    {
      "inputs": [
        {
          "internalType": "address",
          "name": "_callbackContractAddress",
          "type": "address"
        }
      ],
      "name": "setCallbackContract",
      "outputs": [],
      "stateMutability": "nonpayable",
      "type": "function"
    },
    {
      "inputs": [
        {
          "internalType": "address",
          "name": "_hypercertContractAddress",
          "type": "address"
        }
      ],
      "name": "setHypercertContract",
      "outputs": [],
      "stateMutability": "nonpayable",
      "type": "function"
    },
    {
      "inputs": [
        {
          "internalType": "bool",
          "name": "_validateHypercertIDs",
          "type": "bool"
        }
      ],
      "name": "setValidateHypercertIDs",
      "outputs": [],
      "stateMutability": "nonpayable",
      "type": "function"
    },
    {
      "inputs": [
        {
          "internalType": "bytes32",
          "name": "_reviewsSchemaID",
          "type": "bytes32"
        }
      ],
      "name": "setReviewsSchemaID",
      "outputs": [],
      "stateMutability": "nonpayable",
      "type": "function"
    },
    {
      "inputs": [
        {
          "internalType": "bytes32",
          "name": "_amendmentsSchemaID",
          "type": "bytes32"
        }
      ],
      "name": "setAmendmentsSchemaID",
      "outputs": [],
      "stateMutability": "nonpayable",
      "type": "function"
    }
  ],
  "bytecode": "0x61014060405260036101009081526218171960e91b61012052600890620000279082620001f2565b506009805461ffff19166101011790553480156200004457600080fd5b5060405162005382380380620053828339810160408190526200006791620002be565b6001608052600360a052600060c052806001600160a01b0381166200009f576040516341bc07ff60e11b815260040160405180910390fd5b6001600160a01b031660e052620000b633620000fd565b50600680546001810182556000919091527ff652222313e28459528d920b65115c16c04f3efc82aaedc97be59f3f377c0d3f0180546001600160a01b0319169055620002f0565b600080546001600160a01b038381166001600160a01b0319831681178455604051919092169283917f8be0079c531659141344cd1fd0a4f28419497f9722a3daafe3b4186f6b6457e09190a35050565b634e487b7160e01b600052604160045260246000fd5b600181811c908216806200017857607f821691505b6020821081036200019957634e487b7160e01b600052602260045260246000fd5b50919050565b601f821115620001ed57600081815260208120601f850160051c81016020861015620001c85750805b601f850160051c820191505b81811015620001e957828155600101620001d4565b5050505b505050565b81516001600160401b038111156200020e576200020e6200014d565b62000226816200021f845462000163565b846200019f565b602080601f8311600181146200025e5760008415620002455750858301515b600019600386901b1c1916600185901b178555620001e9565b600085815260208120601f198616915b828110156200028f578886015182559484019460019091019084016200026e565b5085821015620002ae5787850151600019600388901b60f8161c191681555b5050505050600190811b01905550565b600060208284031215620002d157600080fd5b81516001600160a01b0381168114620002e957600080fd5b9392505050565b60805160a05160c05160e0516150586200032a6000396000612b300152600061074b01526000610722015260006106f901526150586000f3fe6080604052600436106102135760003560e01c8063abe1d7f311610118578063ce46e046116100a0578063e49617e11161006f578063e49617e1146105ed578063e60c350514610600578063e9c06f0e14610613578063f1e47e9214610633578063f2fde38b1461065257600080fd5b8063ce46e04614610582578063d627d25e14610596578063dd526054146105b6578063e26f7900146105cb57600080fd5b8063b8b23c17116100e7578063b8b23c17146104e0578063bd7e2aa414610500578063be2761d014610520578063c480fe4814610540578063c74b13401461056257600080fd5b8063abe1d7f314610460578063b4e137cd14610480578063b5af090f146104a0578063b759dc72146104c057600080fd5b80637a35aaa91161019b57806388e5b2d91161016a57806388e5b2d9146103f15780638da5cb5b146104045780639128b0d81461042257806391db0b7e14610438578063a0a8e4601461044b57600080fd5b80637a35aaa91461036257806380a43d70146103825780638456cb59146103af57806385b92413146103c457600080fd5b806354fd4d50116101e257806354fd4d50146102bd5780635c975abb146102df5780636247f6f214610309578063715018a614610329578063749870601461033e57600080fd5b806302615536146102385780630ac81006146102585780633f4ba83a1461026b578063418f44001461028057600080fd5b3661023357604051631574f9f360e01b815260040160405180910390fd5b005b600080fd5b34801561024457600080fd5b50610231610253366004613d1b565b610672565b610231610266366004613f83565b610694565b34801561027757600080fd5b506102316106de565b34801561028c57600080fd5b506002546102a0906001600160a01b031681565b6040516001600160a01b0390911681526020015b60405180910390f35b3480156102c957600080fd5b506102d26106f2565b6040516102b49190614108565b3480156102eb57600080fd5b506009546102f99060ff1681565b60405190151581526020016102b4565b34801561031557600080fd5b5061023161032436600461411b565b610795565b34801561033557600080fd5b50610231610845565b34801561034a57600080fd5b5061035460055481565b6040519081526020016102b4565b34801561036e57600080fd5b5061023161037d36600461411b565b610859565b34801561038e57600080fd5b506103a261039d366004614136565b610883565b6040516102b4919061421d565b3480156103bb57600080fd5b50610231610b4d565b3480156103d057600080fd5b506103e46103df366004614136565b610b87565b6040516102b491906143e2565b6102f96103ff36600461458a565b6110fd565b34801561041057600080fd5b506000546001600160a01b03166102a0565b34801561042e57600080fd5b5061035460045481565b6102f961044636600461458a565b6111cc565b34801561045757600080fd5b506102d261128b565b34801561046c57600080fd5b5061023161047b3660046145f5565b611319565b34801561048c57600080fd5b506103a261049b366004614136565b611326565b3480156104ac57600080fd5b506102f96104bb36600461411b565b611616565b3480156104cc57600080fd5b506102316104db366004614677565b61167f565b3480156104ec57600080fd5b506102316104fb3660046145f5565b611a16565b34801561050c57600080fd5b506001546102a0906001600160a01b031681565b34801561052c57600080fd5b5061023161053b366004614136565b611a23565b34801561054c57600080fd5b50610555611c14565b6040516102b49190614791565b34801561056e57600080fd5b5061023161057d36600461411b565b611ced565b34801561058e57600080fd5b5060006102f9565b3480156105a257600080fd5b506102316105b136600461411b565b611d17565b3480156105c257600080fd5b50610555611e78565b3480156105d757600080fd5b506105e0611f48565b6040516102b491906147a4565b6102f96105fb3660046147b7565b611faa565b6102f961060e3660046147b7565b611fc6565b34801561061f57600080fd5b5061023161062e3660046147f2565b611fda565b34801561063f57600080fd5b506009546102f990610100900460ff1681565b34801561065e57600080fd5b5061023161066d36600461411b565b61201a565b61067a612093565b600980549115156101000261ff0019909216919091179055565b60095460ff16156106c05760405162461bcd60e51b81526004016106b79061490c565b60405180910390fd5b6106d389898989898989888a60016120ed565b505050505050505050565b6106e6612093565b6009805460ff19169055565b606061071d7f0000000000000000000000000000000000000000000000000000000000000000612a43565b6107467f0000000000000000000000000000000000000000000000000000000000000000612a43565b61076f7f0000000000000000000000000000000000000000000000000000000000000000612a43565b60405160200161078193929190614938565b604051602081830303815290604052905090565b61079d612093565b6107a681611616565b156107f35760405162461bcd60e51b815260206004820152601960248201527f546f6b656e20616c72656164792077686974656c69737465640000000000000060448201526064016106b7565b600680546001810182556000919091527ff652222313e28459528d920b65115c16c04f3efc82aaedc97be59f3f377c0d3f0180546001600160a01b0319166001600160a01b0392909216919091179055565b61084d612093565b6108576000612ad5565b565b610861612093565b600180546001600160a01b0319166001600160a01b0392909216919091179055565b6108a760405180606001604052806060815260200160608152602001606081525090565b600a826040516108b79190614992565b9081526040805191829003602090810183208054608092810285018301909352606084018381529092849284919060009085015b8282101561099757838290600052602060002001805461090a906149ae565b80601f0160208091040260200160405190810160405280929190818152602001828054610936906149ae565b80156109835780601f1061095857610100808354040283529160200191610983565b820191906000526020600020905b81548152906001019060200180831161096657829003601f168201915b5050505050815260200190600101906108eb565b50505050815260200160018201805480602002602001604051908101604052809291908181526020018280548015610a1e57602002820191906000526020600020906000905b82829054906101000a900460ff1660028111156109fc576109fc6141c2565b8152602060019283018181049485019490930390920291018084116109dd5790505b5050505050815260200160028201805480602002602001604051908101604052809291908181526020016000905b82821015610b3f57838290600052602060002001805480602002602001604051908101604052809291908181526020016000905b82821015610b2c578382906000526020600020018054610a9f906149ae565b80601f0160208091040260200160405190810160405280929190818152602001828054610acb906149ae565b8015610b185780601f10610aed57610100808354040283529160200191610b18565b820191906000526020600020905b815481529060010190602001808311610afb57829003601f168201915b505050505081526020019060010190610a80565b5050505081526020019060010190610a4c565b505050915250909392505050565b610b55612093565b60095460ff1615610b785760405162461bcd60e51b81526004016106b79061490c565b6009805460ff19166001179055565b610c06604051806101a0016040528060006001600160a01b031681526020016060815260200160608152602001606081526020016060815260200160608152602001600081526020016060815260200160001515815260200160006001600160a01b031681526020016000815260200160608152602001606081525090565b600382604051610c169190614992565b9081526040805191829003602090810183206101a08401835280546001600160a01b03168452600181018054845181850281018501909552808552919385840193909290830182828015610c9357602002820191906000526020600020905b81546001600160a01b03168152600190910190602001808311610c75575b5050505050815260200160028201805480602002602001604051908101604052809291908181526020018280548015610cf557602002820191906000526020600020905b81546001600160a01b03168152600190910190602001808311610cd7575b5050505050815260200160038201805480602002602001604051908101604052809291908181526020018280548015610d4d57602002820191906000526020600020905b815481526020019060010190808311610d39575b5050505050815260200160048201805480602002602001604051908101604052809291908181526020016000905b82821015610e27578382906000526020600020018054610d9a906149ae565b80601f0160208091040260200160405190810160405280929190818152602001828054610dc6906149ae565b8015610e135780601f10610de857610100808354040283529160200191610e13565b820191906000526020600020905b815481529060010190602001808311610df657829003601f168201915b505050505081526020019060010190610d7b565b505050508152602001600582018054610e3f906149ae565b80601f0160208091040260200160405190810160405280929190818152602001828054610e6b906149ae565b8015610eb85780601f10610e8d57610100808354040283529160200191610eb8565b820191906000526020600020905b815481529060010190602001808311610e9b57829003601f168201915b505050505081526020016006820154815260200160078201805480602002602001604051908101604052809291908181526020016000905b82821015610f99576000848152602090819020604080516080810182526004860290920180546001600160a01b0316835260018101548385015260028101548383015260038101805483518187028101870190945280845293949193606086019392830182828015610f8157602002820191906000526020600020905b815481526020019060010190808311610f6d575b50505050508152505081526020019060010190610ef0565b50505090825250600882015460ff81161515602083015261010090046001600160a01b0316604082015260098201546060820152600a82018054608090920191610fe2906149ae565b80601f016020809104026020016040519081016040528092919081815260200182805461100e906149ae565b801561105b5780601f106110305761010080835404028352916020019161105b565b820191906000526020600020905b81548152906001019060200180831161103e57829003601f168201915b50505050508152602001600b82018054611074906149ae565b80601f01602080910402602001604051908101604052809291908181526020018280546110a0906149ae565b80156110ed5780601f106110c2576101008083540402835291602001916110ed565b820191906000526020600020905b8154815290600101906020018083116110d057829003601f168201915b5050505050815250509050919050565b6000611107612b25565b838281146111285760405163251f56a160e21b815260040160405180910390fd5b3460005b828110156111bc576000868683818110611148576111486149e8565b905060200201359050828111156111725760405163044044a560e21b815260040160405180910390fd5b61119f898984818110611187576111876149e8565b905060200281019061119991906149fe565b82612b6e565b6111b05760009450505050506111c4565b9091039060010161112c565b506001925050505b949350505050565b60006111d6612b25565b838281146111f75760405163251f56a160e21b815260040160405180910390fd5b3460005b828110156111bc576000868683818110611217576112176149e8565b905060200201359050828111156112415760405163044044a560e21b815260040160405180910390fd5b61126e898984818110611256576112566149e8565b905060200281019061126891906149fe565b82612b77565b61127f5760009450505050506111c4565b909103906001016111fb565b60088054611298906149ae565b80601f01602080910402602001604051908101604052809291908181526020018280546112c4906149ae565b80156113115780601f106112e657610100808354040283529160200191611311565b820191906000526020600020905b8154815290600101906020018083116112f457829003601f168201915b505050505081565b611321612093565b600555565b61134a60405180606001604052806060815260200160608152602001606081525090565b600060038360405161135c9190614992565b90815260200160405180910390209050600a81600a0160405161137f9190614a15565b9081526040805191829003602090810183208054608092810285018301909352606084018381529092849284919060009085015b8282101561145f5783829060005260206000200180546113d2906149ae565b80601f01602080910402602001604051908101604052809291908181526020018280546113fe906149ae565b801561144b5780601f106114205761010080835404028352916020019161144b565b820191906000526020600020905b81548152906001019060200180831161142e57829003601f168201915b5050505050815260200190600101906113b3565b505050508152602001600182018054806020026020016040519081016040528092919081815260200182805480156114e657602002820191906000526020600020906000905b82829054906101000a900460ff1660028111156114c4576114c46141c2565b8152602060019283018181049485019490930390920291018084116114a55790505b5050505050815260200160028201805480602002602001604051908101604052809291908181526020016000905b8282101561160757838290600052602060002001805480602002602001604051908101604052809291908181526020016000905b828210156115f4578382906000526020600020018054611567906149ae565b80601f0160208091040260200160405190810160405280929190818152602001828054611593906149ae565b80156115e05780601f106115b5576101008083540402835291602001916115e0565b820191906000526020600020905b8154815290600101906020018083116115c357829003601f168201915b505050505081526020019060010190611548565b5050505081526020019060010190611514565b50505091525090949350505050565b6000805b60065481101561167657826001600160a01b031660068281548110611641576116416149e8565b6000918252602090912001546001600160a01b0316036116645750600192915050565b8061166e81614aa1565b91505061161a565b50600092915050565b60095460ff16156116a25760405162461bcd60e51b81526004016106b79061490c565b60008451116116ff5760405162461bcd60e51b8152602060048201526024808201527f4465726573793a204e616d652063616e6e6f74206265206e756c6c206f7220656044820152636d70747960e01b60648201526084016106b7565b600a8460405161170f9190614992565b908152604051908190036020019020541561177a5760405162461bcd60e51b815260206004820152602560248201527f4465726573793a20526576696577466f726d4e616d6520616c72656164792065604482015264786973747360d81b60648201526084016106b7565b60008351116117cb5760405162461bcd60e51b815260206004820152601f60248201527f4465726573793a205175657374696f6e732063616e2774206265206e756c6c0060448201526064016106b7565b60008151116118285760405162461bcd60e51b8152602060048201526024808201527f4465726573793a205175657374696f6e2054797065732063616e2774206265206044820152631b9d5b1b60e21b60648201526084016106b7565b82518151146118975760405162461bcd60e51b815260206004820152603560248201527f4465726573793a205175657374696f6e7320616e64207479706573206d757374604482015274040d0c2ecca40e8d0ca40e6c2daca40d8cadccee8d605b1b60648201526084016106b7565b815183511461190e5760405162461bcd60e51b815260206004820152603760248201527f4465726573793a205175657374696f6e7320616e642063686f69636573206d7560448201527f73742068617665207468652073616d65206c656e67746800000000000000000060648201526084016106b7565b604051806060016040528084815260200182815260200183815250600a856040516119399190614992565b90815260200160405180910390206000820151816000019080519060200190611963929190613a6c565b50602082810151805161197c9260018501920190613ac2565b5060408201518051611998916002840191602090910190613b72565b5050600b80546001810182556000919091527f0175b7a638427703f0dbe7bb9bbf987a2551717b34e79f33b5b1008d1fa01db90190506119d88582614b09565b507fcb1290a8b5a51fbd31ad1afbab070c3ca5be2b36c9b3e3eaad9f1187d5d6e62784604051611a089190614108565b60405180910390a150505050565b611a1e612093565b600455565b600381604051611a339190614992565b90815260405190819003602001902054336001600160a01b0390911614611a9c5760405162461bcd60e51b815260206004820152601d60248201527f4465726573793a204974206973206e6f74207468652073706f6e736f7200000060448201526064016106b7565b600381604051611aac9190614992565b9081526040519081900360200190206008015460ff1615611b085760405162461bcd60e51b815260206004820152601660248201527511195c995cde4e881c995c5d595cdd0818db1bdcd95960521b60448201526064016106b7565b600381604051611b189190614992565b908152604051908190036020018120546001600160a01b0316906108fc90600390611b44908590614992565b90815260405190819003602001812060090154801590920291906000818181858888f19350505050158015611b7d573d6000803e3d6000fd5b506001600382604051611b909190614992565b908152604051908190036020018120600801805492151560ff1990931692909217909155600090600390611bc5908490614992565b9081526020016040518091039020600901819055507fbc5c8cb2024ed254e024e37b09895ecaa07948dd0fd7a08e30b80f559888f2cf81604051611c099190614108565b60405180910390a150565b6060600b805480602002602001604051908101604052809291908181526020016000905b82821015611ce4578382906000526020600020018054611c57906149ae565b80601f0160208091040260200160405190810160405280929190818152602001828054611c83906149ae565b8015611cd05780601f10611ca557610100808354040283529160200191611cd0565b820191906000526020600020905b815481529060010190602001808311611cb357829003601f168201915b505050505081526020019060010190611c38565b50505050905090565b611cf5612093565b600280546001600160a01b0319166001600160a01b0392909216919091179055565b611d1f612093565b611d2881611616565b611d6d5760405162461bcd60e51b8152602060048201526016602482015275151bdad95b881b9bdd081a5b881dda1a5d195b1a5cdd60521b60448201526064016106b7565b60005b600654811015611e7457816001600160a01b031660068281548110611d9757611d976149e8565b6000918252602090912001546001600160a01b031603611e625760068054611dc190600190614bc8565b81548110611dd157611dd16149e8565b600091825260209091200154600680546001600160a01b039092169183908110611dfd57611dfd6149e8565b9060005260206000200160006101000a8154816001600160a01b0302191690836001600160a01b031602179055506006805480611e3c57611e3c614bdb565b600082815260209020810160001990810180546001600160a01b03191690550190555050565b80611e6c81614aa1565b915050611d70565b5050565b60606007805480602002602001604051908101604052809291908181526020016000905b82821015611ce4578382906000526020600020018054611ebb906149ae565b80601f0160208091040260200160405190810160405280929190818152602001828054611ee7906149ae565b8015611f345780601f10611f0957610100808354040283529160200191611f34565b820191906000526020600020905b815481529060010190602001808311611f1757829003601f168201915b505050505081526020019060010190611e9c565b60606006805480602002602001604051908101604052809291908181526020018280548015611fa057602002820191906000526020600020905b81546001600160a01b03168152600190910190602001808311611f82575b5050505050905090565b6000611fb4612b25565b611fbe8234612b6e565b90505b919050565b6000611fd0612b25565b611fbe8234612b77565b60095460ff1615611ffd5760405162461bcd60e51b81526004016106b79061490c565b6120118787878787876000886000806120ed565b50505050505050565b612022612093565b6001600160a01b0381166120875760405162461bcd60e51b815260206004820152602660248201527f4f776e61626c653a206e6577206f776e657220697320746865207a65726f206160448201526564647265737360d01b60648201526084016106b7565b61209081612ad5565b50565b6000546001600160a01b031633146108575760405162461bcd60e51b815260206004820181905260248201527f4f776e61626c653a2063616c6c6572206973206e6f7420746865206f776e657260448201526064016106b7565b60008a51116121525760405162461bcd60e51b815260206004820152602b60248201527f4465726573793a20526571756573744e616d652063616e6e6f74206265206e7560448201526a6c6c206f7220656d70747960a81b60648201526084016106b7565b600089511180612163575060008851115b6121af5760405162461bcd60e51b815260206004820181905260248201527f4465726573793a205265766965776572732063616e6e6f74206265206e756c6c60448201526064016106b7565b600087511161220c5760405162461bcd60e51b8152602060048201526024808201527f4465726573793a20487970657263657274204944732063616e6e6f74206265206044820152631b9d5b1b60e21b60648201526084016106b7565b60008651116122735760405162461bcd60e51b815260206004820152602d60248201527f4465726573793a2048797065726365727473204950465320686173686573206360448201526c185b9b9bdd081899481b9d5b1b609a1b60648201526084016106b7565b85518751146122ff5760405162461bcd60e51b815260206004820152604c60248201527f4465726573793a2048797065726365727449447320616e64204879706572636560448201527f727449504653486173686573206172726179206d75737420686176652074686560648201526b040e6c2daca40d8cadccee8d60a31b608482015260a4016106b7565b6000600a846040516123119190614992565b908152604051908190036020019020541161237c5760405162461bcd60e51b815260206004820152602560248201527f4465726573793a20526576696577466f726d4e616d6520646f6573206e6f7420604482015264195e1a5cdd60da1b60648201526084016106b7565b60006001600160a01b031660038b6040516123979190614992565b908152604051908190036020019020546001600160a01b0316146123fd5760405162461bcd60e51b815260206004820152601760248201527f4465726573793a204e616d65206475706c69636174656400000000000000000060448201526064016106b7565b61240682611616565b6124525760405162461bcd60e51b815260206004820181905260248201527f4465726573793a20546f6b656e206973206e6f742077686974656c697374656460448201526064016106b7565b61245b87612bd8565b6124bc5760405162461bcd60e51b815260206004820152602c60248201527f4465726573793a204f6e65206f72206d6f72652068797065726365727473206160448201526b1c99481b9bdd081d985b1a5960a21b60648201526084016106b7565b600081156126f757600085116125485760405162461bcd60e51b815260206004820152604560248201527f4465726573793a20726577617264506572526576696577206d7573742062652060448201527f67726561746572207468616e207a65726f20666f722070617961626c652072656064820152641c5d595cdd60da1b608482015260a4016106b7565b6001600160a01b0383166125c5578488518b516125659190614bf1565b61256f9190614bf1565b3410156125be5760405162461bcd60e51b815260206004820152601960248201527f4465726573793a206d73672e76616c756520696e76616c69640000000000000060448201526064016106b7565b503461276b565b34156126135760405162461bcd60e51b815260206004820152601c60248201527f4465726573793a206d73672e76616c756520697320696e76616c69640000000060448201526064016106b7565b8488518b516126229190614bf1565b61262c9190614bf1565b6040516323b872dd60e01b8152336004820152306024820152604481018290529091506001600160a01b038416906323b872dd906064016020604051808303816000875af1158015612682573d6000803e3d6000fd5b505050506040513d601f19601f820116820180604052508101906126a69190614c08565b6126f25760405162461bcd60e51b815260206004820152601d60248201527f4465726573793a20546f6b656e207472616e73666572206661696c656400000060448201526064016106b7565b61276b565b841561276b5760405162461bcd60e51b815260206004820152603c60248201527f4465726573793a20726577617264506572526576696577206d7573742062652060448201527f7a65726f20666f72206e6f6e2d70617961626c6520726571756573740000000060648201526084016106b7565b3360038c60405161277c9190614992565b90815260405190819003602001812080546001600160a01b03939093166001600160a01b0319909316929092179091558a906003906127bc908e90614992565b908152602001604051809103902060010190805190602001906127e0929190613bcb565b508860038c6040516127f29190614992565b90815260200160405180910390206002019080519060200190612816929190613bcb565b508760038c6040516128289190614992565b9081526020016040518091039020600301908051906020019061284c929190613c20565b508660038c60405161285e9190614992565b90815260200160405180910390206004019080519060200190612882929190613a6c565b508560038c6040516128949190614992565b908152602001604051809103902060050190816128b19190614b09565b50816128be5760006128c0565b845b60038c6040516128d09190614992565b908152602001604051809103902060060181905550600060038c6040516128f79190614992565b908152604051908190036020018120600801805492151560ff1990931692909217909155839060039061292b908e90614992565b908152602001604051809103902060080160016101000a8154816001600160a01b0302191690836001600160a01b031602179055508161296c57600061296e565b805b60038c60405161297e9190614992565b9081526020016040518091039020600901819055508360038c6040516129a49190614992565b9081526020016040518091039020600a0190816129c19190614b09565b50600780546001810182556000919091527fa66cc928b5edb82af9bd49922954155ab7b0942694bea4ce44661d9a8736c688016129fe8c82614b09565b507f0448feabbf5bb385eb3ea2cb16d90b1cb3b4c8936e399cf7a10e7b8946eec6678b604051612a2e9190614108565b60405180910390a15050505050505050505050565b60606000612a5083612cc0565b60010190506000816001600160401b03811115612a6f57612a6f613d3f565b6040519080825280601f01601f191660200182016040528015612a99576020820181803683370190505b5090508181016020015b600019016f181899199a1a9b1b9c1cb0b131b232b360811b600a86061a8153600a8504945084612aa357509392505050565b600080546001600160a01b038381166001600160a01b0319831681178455604051919092169283917f8be0079c531659141344cd1fd0a4f28419497f9722a3daafe3b4186f6b6457e09190a35050565b336001600160a01b037f0000000000000000000000000000000000000000000000000000000000000000161461085757604051634ca8886760e01b815260040160405180910390fd5b60015b92915050565b60095460009060ff1615612b9d5760405162461bcd60e51b81526004016106b79061490c565b600454836020013503612bba57612bb383612d98565b9050612b71565b600554836020013503612bd057612bb3836131fc565b506000612b71565b600954600090610100900460ff1615612cb85760005b8251811015612cb65760025483516000916001600160a01b031690630e89341c90869085908110612c2157612c216149e8565b60200260200101516040518263ffffffff1660e01b8152600401612c4791815260200190565b6000604051808303816000875af1158015612c66573d6000803e3d6000fd5b505050506040513d6000823e601f3d908101601f19168201604052612c8e9190810190614c25565b90508051600014612ca3575060009392505050565b5080612cae81614aa1565b915050612bee565b505b506001919050565b60008072184f03e93ff9f4daa797ed6e38ed64bf6a1f0160401b8310612cff5772184f03e93ff9f4daa797ed6e38ed64bf6a1f0160401b830492506040015b6d04ee2d6d415b85acef81000000008310612d2b576d04ee2d6d415b85acef8100000000830492506020015b662386f26fc100008310612d4957662386f26fc10000830492506010015b6305f5e1008310612d61576305f5e100830492506008015b6127108310612d7557612710830492506004015b60648310612d87576064830492506002015b600a8310612b715760010192915050565b6000808080612dab610120860186614c9b565b810190612db89190614ce1565b5050509250925092506000600384604051612dd39190614992565b908152602001604051809103902090506000600a82600a01604051612df89190614a15565b90815260405190819003602001902090506000612e1c610100890160e08a0161411b565b600884015490915088359060009060ff16158015612e915750612e9185600301805480602002602001604051908101604052809291908181526020018280548015612e8657602002820191906000526020600020905b815481526020019060010190808311612e72575b505050505088613467565b8015612e9e575085518454145b8015612eaf5750612eaf83896134ba565b8015612ec15750612ec183898961368f565b8015612ed25750612ed28487613789565b905080156131ef57846007016040518060800160405280856001600160a01b0316815260200189815260200184815260200160006001600160401b03811115612f1d57612f1d613d3f565b604051908082528060200260200182016040528015612f46578160200160208202803683370190505b5090528154600180820184556000938452602093849020835160049093020180546001600160a01b0319166001600160a01b039093169290921782558284015190820155604082015160028201556060820151805192939192612faf9260038501920190613c20565b5050506006850154156130f6578460060154856009016000828254612fd49190614bc8565b9091555050600885015461010090046001600160a01b031661302f5760068501546040516001600160a01b0385169180156108fc02916000818181858888f19350505050158015613029573d6000803e3d6000fd5b506130f6565b6008850154600686015460405163a9059cbb60e01b81526001600160a01b0386811660048301526024820192909252610100909204169063a9059cbb906044016020604051808303816000875af115801561308e573d6000803e3d6000fd5b505050506040513d601f19601f820116820180604052508101906130b29190614c08565b6130f65760405162461bcd60e51b8152602060048201526015602482015274151bdad95b881d1c985b9cd9995c8819985a5b1959605a1b60448201526064016106b7565b6001546001600160a01b0316156131b75760015460405163bb69ab3360e01b81526001600160a01b039091169063bb69ab3390613139908d908c90600401614e3f565b6020604051808303816000875af1158015613158573d6000803e3d6000fd5b505050506040513d601f19601f8201168201806040525081019061317c9190614c08565b507f253a8677adaec417dae20224e9f7eb1182aed5a01b1938114cb310cd5c5d954d8a896040516131ae929190614e3f565b60405180910390a15b7f4d6dd501df538f815f442947c933fc2f545525e75f909b918a6d0701acc7904c886040516131e69190614108565b60405180910390a15b9998505050505050505050565b600080808061320f610120860186614c9b565b81019061321c9190614f53565b505092509250925060006003846040516132369190614992565b90815260405190819003602001902060078101549091501561345b5760005b6007820154811015613459578660a0013582600701828154811061327b5761327b6149e8565b9060005260206000209060040201600201541480156132e057506132a6610100880160e0890161411b565b6001600160a01b03168260070182815481106132c4576132c46149e8565b60009182526020909120600490910201546001600160a01b0316145b80156132ed575060008351115b801561331e57508382600701828154811061330a5761330a6149e8565b906000526020600020906004020160010154145b15613447576000805b83600701838154811061333c5761333c6149e8565b9060005260206000209060040201600301805490508110156133bf578860000135846007018481548110613372576133726149e8565b90600052602060002090600402016003018281548110613394576133946149e8565b9060005260206000200154036133ad57600191506133bf565b806133b781614aa1565b915050613327565b5080613445578260070182815481106133da576133da6149e8565b600091825260208083206004929092029091016003018054600181018255908352918190208a3592018290556040519182527fee28e94ac55844f79e4a8805659e8f6ded6bfe24b7ebe0570deb71c158ec9433910160405180910390a1506001979650505050505050565b505b8061345181614aa1565b915050613255565b505b50600095945050505050565b6000805b83518110156134b05782848281518110613487576134876149e8565b60200260200101510361349e576001915050612b71565b806134a881614aa1565b91505061346b565b5060009392505050565b6000806003836040516134cd9190614992565b9081526040519081900360200190206002015411156135f05760005b6003836040516134f99190614992565b908152604051908190036020019020600201548110156135ea5760006003846040516135259190614992565b90815260200160405180910390206002018281548110613547576135476149e8565b60009182526020822001546040516370a0823160e01b81526001600160a01b038881166004830152909116925082919082906370a0823190602401602060405180830381865afa15801561359f573d6000803e3d6000fd5b505050506040513d601f19601f820116820180604052508101906135c39190615009565b11156135d55760019350505050612b71565b505080806135e290614aa1565b9150506134e9565b50611676565b60005b6003836040516136039190614992565b908152604051908190036020019020600101548110156134b057836001600160a01b03166003846040516136379190614992565b90815260200160405180910390206001018281548110613659576136596149e8565b6000918252602090912001546001600160a01b03160361367d576001915050612b71565b8061368781614aa1565b9150506135f3565b60006001815b6003856040516136a59190614992565b9081526040519081900360200190206007015481101561378057836003866040516136d09190614992565b908152602001604051809103902060070182815481106136f2576136f26149e8565b9060005260206000209060040201600101541480156137645750856001600160a01b03166003866040516137269190614992565b90815260200160405180910390206007018281548110613748576137486149e8565b60009182526020909120600490910201546001600160a01b0316145b1561376e57600091505b8061377881614aa1565b915050613695565b50949350505050565b6000805b8251811015613a625760028460010182815481106137ad576137ad6149e8565b90600052602060002090602091828204019190069054906101000a900460ff1660028111156137de576137de6141c2565b036138e6576000805b8560020183815481106137fc576137fc6149e8565b6000918252602090912001548110156138cf57848381518110613821576138216149e8565b60200260200101516040516020016138399190614992565b60405160208183030381529060405280519060200120866002018481548110613864576138646149e8565b90600052602060002001828154811061387f5761387f6149e8565b906000526020600020016040516020016138999190614a15565b60405160208183030381529060405280519060200120036138bd57600191506138cf565b806138c781614aa1565b9150506137e7565b50806138e057600092505050612b71565b50613a50565b60018460010182815481106138fd576138fd6149e8565b90600052602060002090602091828204019190069054906101000a900460ff16600281111561392e5761392e6141c2565b03613a24576040516259657360e81b60208201526023016040516020818303038152906040528051906020012083828151811061396d5761396d6149e8565b60200260200101516040516020016139859190614992565b604051602081830303815290604052805190602001201480613a0b5750604051614e6f60f01b6020820152602201604051602081830303815290604052805190602001208382815181106139db576139db6149e8565b60200260200101516040516020016139f39190614992565b60405160208183030381529060405280519060200120145b15613a1a576001915050612b71565b6000915050612b71565b828181518110613a3657613a366149e8565b602002602001015151600003613a50576000915050612b71565b80613a5a81614aa1565b91505061378d565b5060019392505050565b828054828255906000526020600020908101928215613ab2579160200282015b82811115613ab25782518290613aa29082614b09565b5091602001919060010190613a8c565b50613abe929150613c5b565b5090565b82805482825590600052602060002090601f01602090048101928215613b665791602002820160005b83821115613b3757835183826101000a81548160ff02191690836002811115613b1657613b166141c2565b02179055509260200192600101602081600001049283019260010302613aeb565b8015613b645782816101000a81549060ff0219169055600101602081600001049283019260010302613b37565b505b50613abe929150613c78565b828054828255906000526020600020908101928215613bbf579160200282015b82811115613bbf5782518051613baf918491602090910190613a6c565b5091602001919060010190613b92565b50613abe929150613c8d565b828054828255906000526020600020908101928215613b66579160200282015b82811115613b6657825182546001600160a01b0319166001600160a01b03909116178255602090920191600190910190613beb565b828054828255906000526020600020908101928215613b66579160200282015b82811115613b66578251825591602001919060010190613c40565b80821115613abe576000613c6f8282613caa565b50600101613c5b565b5b80821115613abe5760008155600101613c79565b80821115613abe576000613ca18282613ce4565b50600101613c8d565b508054613cb6906149ae565b6000825580601f10613cc6575050565b601f0160209004906000526020600020908101906120909190613c78565b50805460008255906000526020600020908101906120909190613c5b565b801515811461209057600080fd5b8035611fc181613d02565b600060208284031215613d2d57600080fd5b8135613d3881613d02565b9392505050565b634e487b7160e01b600052604160045260246000fd5b604051601f8201601f191681016001600160401b0381118282101715613d7d57613d7d613d3f565b604052919050565b60006001600160401b03821115613d9e57613d9e613d3f565b50601f01601f191660200190565b600082601f830112613dbd57600080fd5b8135613dd0613dcb82613d85565b613d55565b818152846020838601011115613de557600080fd5b816020850160208301376000918101602001919091529392505050565b60006001600160401b03821115613e1b57613e1b613d3f565b5060051b60200190565b80356001600160a01b0381168114611fc157600080fd5b600082601f830112613e4d57600080fd5b81356020613e5d613dcb83613e02565b82815260059290921b84018101918181019086841115613e7c57600080fd5b8286015b84811015613e9e57613e9181613e25565b8352918301918301613e80565b509695505050505050565b600082601f830112613eba57600080fd5b81356020613eca613dcb83613e02565b82815260059290921b84018101918181019086841115613ee957600080fd5b8286015b84811015613e9e5780358352918301918301613eed565b600082601f830112613f1557600080fd5b81356020613f25613dcb83613e02565b82815260059290921b84018101918181019086841115613f4457600080fd5b8286015b84811015613e9e5780356001600160401b03811115613f675760008081fd5b613f758986838b0101613dac565b845250918301918301613f48565b60008060008060008060008060006101208a8c031215613fa257600080fd5b89356001600160401b0380821115613fb957600080fd5b613fc58d838e01613dac565b9a5060208c0135915080821115613fdb57600080fd5b613fe78d838e01613e3c565b995060408c0135915080821115613ffd57600080fd5b6140098d838e01613e3c565b985060608c013591508082111561401f57600080fd5b61402b8d838e01613ea9565b975060808c013591508082111561404157600080fd5b61404d8d838e01613f04565b965060a08c013591508082111561406357600080fd5b61406f8d838e01613dac565b955060c08c0135945061408460e08d01613e25565b93506101008c013591508082111561409b57600080fd5b506140a88c828d01613dac565b9150509295985092959850929598565b60005b838110156140d35781810151838201526020016140bb565b50506000910152565b600081518084526140f48160208601602086016140b8565b601f01601f19169290920160200192915050565b602081526000613d3860208301846140dc565b60006020828403121561412d57600080fd5b613d3882613e25565b60006020828403121561414857600080fd5b81356001600160401b0381111561415e57600080fd5b6111c484828501613dac565b600082825180855260208086019550808260051b84010181860160005b848110156141b557601f198684030189526141a38383516140dc565b98840198925090830190600101614187565b5090979650505050505050565b634e487b7160e01b600052602160045260246000fd5b6000815180845260208085019450848260051b860182860160005b858110156141b557838303895261420b83835161416a565b988501989250908401906001016141f3565b600060208083528351606082850152614239608085018261416a565b82860151601f198683038101604088015281518084529185019350600092909190850190835b818110156142975785516003811061428557634e487b7160e01b86526021600452602486fd5b8352948601949186019160010161425f565b505060408801519450818782030160608801526142b481866141d8565b98975050505050505050565b600081518084526020808501945080840160005b838110156142f95781516001600160a01b0316875295820195908201906001016142d4565b509495945050505050565b600081518084526020808501945080840160005b838110156142f957815187529582019590820190600101614318565b6000815180845260208085019450848260051b86018286016000805b868110156143d4578484038a52825180516001600160a01b031685528681015187860152604080820151908601526060908101516080918601829052805191860182905287019060a086019084905b808210156143bf578351835292890192918901916001919091019061439f565b50509a87019a94505091850191600101614350565b509198975050505050505050565b602081526143fc6020820183516001600160a01b03169052565b600060208301516101a080604085015261441a6101c08501836142c0565b91506040850151601f198086850301606087015261443884836142c0565b935060608701519150808685030160808701526144558483614304565b935060808701519150808685030160a0870152614472848361416a565b935060a08701519150808685030160c087015261448f84836140dc565b935060c087015160e087015260e087015191506101008187860301818801526144b88584614334565b9450808801519250506101206144d18188018415159052565b87015191506101406144ed878201846001600160a01b03169052565b8088015192505061016082818801528088015192505061018081878603018188015261451985846140dc565b90880151878203909201848801529350905061453583826140dc565b9695505050505050565b60008083601f84011261455157600080fd5b5081356001600160401b0381111561456857600080fd5b6020830191508360208260051b850101111561458357600080fd5b9250929050565b600080600080604085870312156145a057600080fd5b84356001600160401b03808211156145b757600080fd5b6145c38883890161453f565b909650945060208701359150808211156145dc57600080fd5b506145e98782880161453f565b95989497509550505050565b60006020828403121561460757600080fd5b5035919050565b600082601f83011261461f57600080fd5b8135602061462f613dcb83613e02565b82815260059290921b8401810191818101908684111561464e57600080fd5b8286015b84811015613e9e5780356003811061466a5760008081fd5b8352918301918301614652565b6000806000806080858703121561468d57600080fd5b84356001600160401b03808211156146a457600080fd5b6146b088838901613dac565b95506020915081870135818111156146c757600080fd5b6146d389828a01613f04565b9550506040870135818111156146e857600080fd5b8701601f810189136146f957600080fd5b8035614707613dcb82613e02565b81815260059190911b8201840190848101908b83111561472657600080fd5b8584015b8381101561475e578035868111156147425760008081fd5b6147508e8983890101613f04565b84525091860191860161472a565b509650505050606087013591508082111561477857600080fd5b506147858782880161460e565b91505092959194509250565b602081526000613d38602083018461416a565b602081526000613d3860208301846142c0565b6000602082840312156147c957600080fd5b81356001600160401b038111156147df57600080fd5b82016101408185031215613d3857600080fd5b600080600080600080600060e0888a03121561480d57600080fd5b87356001600160401b038082111561482457600080fd5b6148308b838c01613dac565b985060208a013591508082111561484657600080fd5b6148528b838c01613e3c565b975060408a013591508082111561486857600080fd5b6148748b838c01613e3c565b965060608a013591508082111561488a57600080fd5b6148968b838c01613ea9565b955060808a01359150808211156148ac57600080fd5b6148b88b838c01613f04565b945060a08a01359150808211156148ce57600080fd5b6148da8b838c01613dac565b935060c08a01359150808211156148f057600080fd5b506148fd8a828b01613dac565b91505092959891949750929550565b60208082526012908201527110dbdb9d1c9858dd081a5cc81c185d5cd95960721b604082015260600190565b6000845161494a8184602089016140b8565b8083019050601760f91b808252855161496a816001850160208a016140b8565b600192019182015283516149858160028401602088016140b8565b0160020195945050505050565b600082516149a48184602087016140b8565b9190910192915050565b600181811c908216806149c257607f821691505b6020821081036149e257634e487b7160e01b600052602260045260246000fd5b50919050565b634e487b7160e01b600052603260045260246000fd5b6000823561013e198336030181126149a457600080fd5b6000808354614a23816149ae565b60018281168015614a3b5760018114614a5057614a7f565b60ff1984168752821515830287019450614a7f565b8760005260208060002060005b85811015614a765781548a820152908401908201614a5d565b50505082870194505b50929695505050505050565b634e487b7160e01b600052601160045260246000fd5b600060018201614ab357614ab3614a8b565b5060010190565b601f821115614b0457600081815260208120601f850160051c81016020861015614ae15750805b601f850160051c820191505b81811015614b0057828155600101614aed565b5050505b505050565b81516001600160401b03811115614b2257614b22613d3f565b614b3681614b3084546149ae565b84614aba565b602080601f831160018114614b6b5760008415614b535750858301515b600019600386901b1c1916600185901b178555614b00565b600085815260208120601f198616915b82811015614b9a57888601518255948401946001909101908401614b7b565b5085821015614bb85787850151600019600388901b60f8161c191681555b5050505050600190811b01905550565b81810381811115612b7157612b71614a8b565b634e487b7160e01b600052603160045260246000fd5b8082028115828204841417612b7157612b71614a8b565b600060208284031215614c1a57600080fd5b8151613d3881613d02565b600060208284031215614c3757600080fd5b81516001600160401b03811115614c4d57600080fd5b8201601f81018413614c5e57600080fd5b8051614c6c613dcb82613d85565b818152856020838501011115614c8157600080fd5b614c928260208301602086016140b8565b95945050505050565b6000808335601e19843603018112614cb257600080fd5b8301803591506001600160401b03821115614ccc57600080fd5b60200191503681900382131561458357600080fd5b60008060008060008060c08789031215614cfa57600080fd5b86356001600160401b0380821115614d1157600080fd5b614d1d8a838b01613dac565b9750602089013596506040890135915080821115614d3a57600080fd5b614d468a838b01613f04565b95506060890135915080821115614d5c57600080fd5b614d688a838b01613f04565b94506080890135915080821115614d7e57600080fd5b614d8a8a838b01613dac565b935060a0890135915080821115614da057600080fd5b50614dad89828a01613f04565b9150509295509295509295565b80356001600160401b0381168114611fc157600080fd5b6000808335601e19843603018112614de857600080fd5b83016020810192503590506001600160401b03811115614e0757600080fd5b80360382131561458357600080fd5b81835281816020850137506000828201602090810191909152601f909101601f19169091010190565b6040815282356040820152602083013560608201526000614e6260408501614dba565b6001600160401b03166080830152614e7c60608501614dba565b6001600160401b031660a0830152614e9660808501614dba565b6001600160401b03811660c08401525060a084013560e0830152614ebc60c08501613e25565b610100614ed3818501836001600160a01b03169052565b614edf60e08701613e25565b9150610120614ef8818601846001600160a01b03169052565b614f03828801613d10565b92506101409150614f178286018415159052565b614f2381880188614dd1565b9350905081610160860152614f3d61018086018483614e16565b925050508281036020840152614c9281856140dc565b600080600080600060a08688031215614f6b57600080fd5b85356001600160401b0380821115614f8257600080fd5b614f8e89838a01613dac565b9650602088013595506040880135915080821115614fab57600080fd5b614fb789838a01613dac565b94506060880135915080821115614fcd57600080fd5b614fd989838a01613dac565b93506080880135915080821115614fef57600080fd5b50614ffc88828901613f04565b9150509295509295909350565b60006020828403121561501b57600080fd5b505191905056fea2646970667358221220aa1e50aa1887ee1eadc14d9db2b8655a95539dece3dd4aa3d98a6d8a764bd5e564736f6c63430008130033",
  "immutableReferences": {
    "411": [
      {
        "length": 32,
        "start": 1785
      }
    ],
    "413": [
      {
        "length": 32,
        "start": 1826
      }
    ],
    "415": [
      {
        "length": 32,
        "start": 1867
      }
    ],
    "549": [
      {
        "length": 32,
        "start": 11056
      }
    ]
  },
  "source": "// SPDX-License-Identifier: AGPL-3.0-only\npragma solidity 0.8.19;\nimport { SchemaResolver } from \"@ethereum-attestation-service/eas-contracts/contracts/resolver/SchemaResolver.sol\";\nimport { IEAS, Attestation } from \"@ethereum-attestation-service/eas-contracts/contracts/IEAS.sol\";\nimport \"@openzeppelin/contracts/token/ERC20/IERC20.sol\";\nimport \"@openzeppelin/contracts/token/ERC721/IERC721.sol\";\nimport \"@openzeppelin/contracts/access/Ownable.sol\";\nimport \"./interfaces/IOnReviewable.sol\";\nimport \"./interfaces/IHypercertable.sol\";\n\ncontract DeresyResolver is SchemaResolver, Ownable {\n  IOnReviewable public callbackContract;\n  IHypercertable public hypercertContract;\n\n  enum QuestionType {Text, Checkbox, SingleChoice}\n\n  struct ReviewForm {\n    string[] questions;\n    QuestionType[] questionTypes;\n    string[][] choices;\n  }\n\n  struct Review {\n    address reviewer;\n    uint256 hypercertID;\n    bytes32 attestationID;\n\t\tbytes32[] amendmentsUIDs;\n  }\n    \n  struct ReviewRequest {\n    address sponsor;\n    address[] reviewers;\n    address[] reviewerContracts;\n    uint256[] hypercertIDs;\n    string[] hypercertIPFSHashes;\n    string formIpfsHash;\n    uint256 rewardPerReview;\n    Review[] reviews;\n    bool isClosed;\n    address paymentTokenAddress;\n    uint256 fundsLeft;\n    string reviewFormName;\n    string name;\n  }\n\n  mapping(string => ReviewRequest) private reviewRequests;\n\n\tbytes32 public reviewsSchemaID;\n  bytes32 public amendmentsSchemaID;\n  \n  address[] whitelistedTokens;\n\n  string[] reviewRequestNames;\n  \n  string public contractVersion = \"0.2\";\n\n  bool public paused = true;\n\n  bool public validateHypercertIDs = true;\n\n  mapping(string => ReviewForm) private reviewForms;\n  string[] reviewFormsNames;\n\n  event CreatedReviewForm(string _formName);\n  event CreatedReviewRequest(string _requestName);\n  event ClosedReviewRequest(string _requestName);\n  event SubmittedReview(string _requestName);\n  event OnReviewCallback(Attestation _attestation, string _requestName);\n\tevent SubmittedAmendment(bytes32 _uid);\n\n  constructor(IEAS eas) SchemaResolver(eas) {\n    whitelistedTokens.push(address(0));\n  }\n\n  // Interface for ERC721 contract\n\n  /// @notice Checks if a token is whitelisted\n  /// @param tokenAddress The address of the token to check\n  /// @return Returns true if the token is whitelisted, false otherwise\n  function isTokenWhitelisted(address tokenAddress) public view returns (bool) {\n    for (uint i = 0; i < whitelistedTokens.length; i++) {\n      if (whitelistedTokens[i] == tokenAddress) {\n        return true;\n      }\n    }\n\n    return false;\n  }\n\n  /// @notice Adds a token to the whitelist\n  /// @dev Only callable by the contract owner\n  /// @param tokenAddress The address of the token to be whitelisted\n  /// @custom:requires Token must not already be whitelisted\n  function whitelistToken(address tokenAddress) external onlyOwner {\n    require(!isTokenWhitelisted(tokenAddress), \"Token already whitelisted\");\n    whitelistedTokens.push(tokenAddress);\n  }\n\n  /// @notice Removes a token from the whitelist\n  /// @dev Only callable by the contract owner\n  /// @param tokenAddress The address of the token to be removed from the whitelist\n  /// @custom:requires Token must be in the whitelist\n  function unwhitelistToken(address tokenAddress) external onlyOwner {\n    require(isTokenWhitelisted(tokenAddress), \"Token not in whitelist\");\n\n    for (uint i = 0; i < whitelistedTokens.length; i++) {\n      if (whitelistedTokens[i] == tokenAddress) {\n        whitelistedTokens[i] = whitelistedTokens[whitelistedTokens.length - 1];\n        whitelistedTokens.pop();\n        break;\n      }\n    }\n  }\n\n  /// @notice Modifier that requires the contract to not be paused\n  /// @custom:requires Contract must not be paused\n  modifier whenUnpaused {\n    require(!paused, \"Contract is paused\");\n    _;\n  }\n\n  /// @notice Pauses the contract\n  /// @dev Only callable by the contract owner and when the contract is not paused\n  function pause() external onlyOwner whenUnpaused {\n    paused = true;\n  }\n\n  /// @notice Unpauses the contract\n  /// @dev Only callable by the contract owner\n  function unpause() external onlyOwner {\n    paused = false;\n  }\n\n  /// @notice Processes attestations for reviews or amendments\n  /// @dev Called internally, overrides parent function\n  /// @param attestation The attestation data\n  /// @return Returns true if the attestation is processed successfully\n  /// @custom:requires Contract should not be paused\n  function onAttest(\n    Attestation calldata attestation,\n    uint256 /*value*/\n  ) internal override whenUnpaused returns (bool) {\n    if (attestation.schema == reviewsSchemaID) {\n      return processReview(attestation);\n    } else if (attestation.schema == amendmentsSchemaID) {\n      return processAmendment(attestation);\n    } else {\n      return false;\n    }\n  }\n\n  /// @notice Processes a review attestation\n  /// @dev Validates and stores review data\n  /// @param attestation The review attestation data\n  /// @return Returns true if the review is valid and processed, false otherwise\n  /// @custom:visibility internal\n\tfunction processReview(Attestation calldata attestation) internal returns (bool) {\n\t\t(string memory requestName, uint256 hypercertID, string[] memory answers,,,) = abi.decode(attestation.data, (string, uint256, string[], string[], string, string[]));\n    ReviewRequest storage request = reviewRequests[requestName];\n    ReviewForm storage requestForm = reviewForms[request.reviewFormName];\n    address attester = attestation.attester;\n    bytes32 attestationID = attestation.uid;\n\n    bool isValid = !request.isClosed && validateHypercertID(request.hypercertIDs, hypercertID) && requestForm.questions.length == answers.length && isReviewer(attester, requestName) && hasSubmittedReview(attester, requestName, hypercertID) && validateAnswers(requestForm, answers);\n\n    if(isValid){\n      request.reviews.push(Review(attester,hypercertID, attestationID, new bytes32[] (0)));\n      if (request.rewardPerReview > 0) {\n        request.fundsLeft -= request.rewardPerReview;\n\n        if (request.paymentTokenAddress == address(0)) {\n          payable(attester).transfer(request.rewardPerReview);\n        } else {\n          require(IERC20(request.paymentTokenAddress).transfer(attester, request.rewardPerReview), \"Token transfer failed\");\n        }\n      }\n\n      if (address(callbackContract) != address(0)){\n        callbackContract.onReview(attestation, requestName);\n        emit OnReviewCallback(attestation, requestName);\n      }\n      emit SubmittedReview(requestName);\n    }\n    return isValid;\n\t}\n\n  /// @notice Processes an amendment attestation\n  /// @dev Validates and stores amendment data\n  /// @param attestation The amendment attestation data\n  /// @return Returns true if the amendment is valid and processed, false otherwise\n  /// @custom:visibility internal\n\tfunction processAmendment(Attestation calldata attestation) internal returns (bool) {\n    (string memory requestName, uint256 hypercertID, string memory amendment,,) = abi.decode(attestation.data, (string, uint256, string, string, string[]));\n    ReviewRequest storage request = reviewRequests[requestName];\n    if (request.reviews.length > 0) {\n\t\t\tfor (uint i = 0; i < request.reviews.length; i++) {\n\t\t\t\tif (request.reviews[i].attestationID == attestation.refUID &&\n\t\t\t\t\trequest.reviews[i].reviewer == attestation.attester &&\n\t\t\t\t\tbytes(amendment).length > 0 &&\n\t\t\t\t\trequest.reviews[i].hypercertID == hypercertID) {\n\t\t\t\t\tbool uidExists = false;\n\t\t\t\t\tfor (uint j = 0; j < request.reviews[i].amendmentsUIDs.length; j++) {\n\t\t\t\t\t\t\tif (request.reviews[i].amendmentsUIDs[j] == attestation.uid) {\n\t\t\t\t\t\t\t\t\tuidExists = true;\n\t\t\t\t\t\t\t\t\tbreak;\n\t\t\t\t\t\t\t}\n\t\t\t\t\t}\n\n\t\t\t\t\tif (!uidExists) {\n\t\t\t\t\t\t\trequest.reviews[i].amendmentsUIDs.push(attestation.uid);\n\t\t\t\t\t\t\temit SubmittedAmendment(attestation.uid);\n\t\t\t\t\t\t\treturn true;\n\t\t\t\t\t}\n\t\t\t\t}\n\t\t\t}\n    }\n    return false;\n\t}\n\n  /// @notice Handles revocation of attestations\n  /// @dev Currently always returns true, to be implemented further\n  /// @return Always returns true\n  function onRevoke(Attestation calldata /*attestation*/, uint256 /*value*/) internal pure override returns (bool) {\n    return true;\n  }\n\n  /// @notice Creates a new review form\n  /// @dev Only callable when the contract is not paused\n  /// @param _name The name of the review form\n  /// @param questions Array of questions for the review form\n  /// @param choices Array of choices for each question\n  /// @param questionTypes Array of types for each question\n  /// @custom:requires Name must not be null or empty\n  /// @custom:requires Review form name must be unique\n  /// @custom:requires Questions array cannot be empty\n  /// @custom:requires QuestionTypes array cannot be empty\n  /// @custom:requires Questions and types must have the same length\n  /// @custom:requires Questions and choices must have the same length\n  function createReviewForm(string memory _name, string[] memory questions, string[][] memory choices, QuestionType[] memory questionTypes) external whenUnpaused {\n    require(bytes(_name).length > 0, \"Deresy: Name cannot be null or empty\");\n    require(reviewForms[_name].questions.length == 0, \"Deresy: ReviewFormName already exists\");\n    require(questions.length > 0, \"Deresy: Questions can't be null\");\n    require(questionTypes.length > 0, \"Deresy: Question Types can't be null\");\n    require(questionTypes.length == questions.length, \"Deresy: Questions and types must have the same length\");\n    require(questions.length == choices.length, \"Deresy: Questions and choices must have the same length\");\n    reviewForms[_name] = ReviewForm(questions, questionTypes, choices);\n    reviewFormsNames.push(_name);\n    emit CreatedReviewForm(_name);\n  }\n\n  /// @notice Common function to create a review request\n  /// @dev Used internally by public functions to handle review request creation\n  /// @param _name The name of the review request\n  /// @param reviewers Array of reviewer addresses\n  /// @param hypercertIDs Array of hypercert IDs\n  /// @param hypercertIPFSHashes Array of hypercert IPFS hashes\n  /// @param formIpfsHash IPFS hash of the form\n  /// @param rewardPerReview Reward amount per review\n  /// @param reviewFormName Name of the review form\n  /// @param paymentTokenAddress Address of the payment token\n  /// @param isPayable Flag indicating if the request is payable\n  /// @custom:requires Request name must not be null or empty\n  /// @custom:requires Reviewers array cannot be empty\n  /// @custom:requires Hypercert IDs array cannot be empty\n  /// @custom:requires Hypercert IPFS hashes array cannot be empty\n  /// @custom:requires HypercertIDs and IPFS hashes must have the same length\n  /// @custom:requires Review form name must exist\n  /// @custom:requires Request name must be unique\n  /// @custom:requires Token must be whitelisted if used\n  /// @custom:requires Hypercerts must be valid\n  /// @custom:visibility internal\n  function createReviewRequestCommon(\n      string memory _name,\n      address[] memory reviewers,\n      address[] memory reviewerContracts,\n      uint256[] memory hypercertIDs,\n      string[] memory hypercertIPFSHashes,\n      string memory formIpfsHash,\n      uint256 rewardPerReview,\n      string memory reviewFormName,\n      address paymentTokenAddress,\n      bool isPayable\n  ) internal {\n    require(bytes(_name).length > 0, \"Deresy: RequestName cannot be null or empty\");\n    require(reviewers.length > 0 || reviewerContracts.length > 0, \"Deresy: Reviewers cannot be null\");\n    require(hypercertIDs.length > 0, \"Deresy: Hypercert IDs cannot be null\");\n    require(hypercertIPFSHashes.length > 0, \"Deresy: Hypercerts IPFS hashes cannot be null\");\n    require(hypercertIDs.length == hypercertIPFSHashes.length, \"Deresy: HypercertIDs and HypercertIPFSHashes array must have the same length\");\n    require(reviewForms[reviewFormName].questions.length > 0, \"Deresy: ReviewFormName does not exist\");\n    require(reviewRequests[_name].sponsor == address(0),\"Deresy: Name duplicated\");\n    require(isTokenWhitelisted(paymentTokenAddress),\"Deresy: Token is not whitelisted\");\n    require(validateRequestHypercerts(hypercertIDs), \"Deresy: One or more hypercerts are not valid\");\n\n    uint256 tokenFundsAmount;\n\n    if (isPayable) {\n      require(rewardPerReview > 0, \"Deresy: rewardPerReview must be greater than zero for payable request\");\n\n      if (paymentTokenAddress == address(0)) {\n        require(msg.value >= ((reviewers.length * hypercertIDs.length) * rewardPerReview), \"Deresy: msg.value invalid\");\n\n        tokenFundsAmount = msg.value;\n      } else {\n        require(msg.value == 0, \"Deresy: msg.value is invalid\");\n\n        tokenFundsAmount = ((reviewers.length * hypercertIDs.length) * rewardPerReview);\n\n        require(\n            IERC20(paymentTokenAddress).transferFrom(msg.sender, address(this), tokenFundsAmount),\n            \"Deresy: Token transfer failed\"\n        );\n      }\n\n    } else {\n        require(rewardPerReview == 0, \"Deresy: rewardPerReview must be zero for non-payable request\");\n    }\n    \n    reviewRequests[_name].sponsor = msg.sender;\n    reviewRequests[_name].reviewers = reviewers;\n    reviewRequests[_name].reviewerContracts = reviewerContracts;\n    reviewRequests[_name].hypercertIDs = hypercertIDs;\n    reviewRequests[_name].hypercertIPFSHashes = hypercertIPFSHashes;\n    reviewRequests[_name].formIpfsHash = formIpfsHash;\n    reviewRequests[_name].rewardPerReview = isPayable ? rewardPerReview : 0;\n    reviewRequests[_name].isClosed = false;\n    reviewRequests[_name].paymentTokenAddress = paymentTokenAddress;\n    reviewRequests[_name].fundsLeft = isPayable ? tokenFundsAmount : 0;\n    reviewRequests[_name].reviewFormName = reviewFormName;\n    reviewRequestNames.push(_name);\n\n    emit CreatedReviewRequest(_name);\n  }\n\n  /// @notice Creates a new payable review request\n  /// @dev This function creates a review request and allocates funds for it\n  /// @param _name The name of the review request\n  /// @param reviewers Array of addresses of the reviewers\n  /// @param hypercertIDs Array of hypercert IDs associated with the review\n  /// @param hypercertIPFSHashes Array of IPFS hashes for the hypercerts\n  /// @param formIpfsHash IPFS hash of the review form\n  /// @param rewardPerReview Amount of reward per review\n  /// @param paymentTokenAddress Address of the payment token\n  /// @param reviewFormName Name of the review form\n  /// @custom:requires The contract should not be paused\n  function createRequest(\n    string memory _name,\n    address[] memory reviewers,\n    address[] memory reviewerContracts,\n    uint256[] memory hypercertIDs,\n    string[] memory hypercertIPFSHashes,\n    string memory formIpfsHash,\n    uint256 rewardPerReview,\n    address paymentTokenAddress,\n    string memory reviewFormName\n  ) external payable whenUnpaused {\n      createReviewRequestCommon(\n        _name,\n        reviewers,\n        reviewerContracts,\n        hypercertIDs,\n        hypercertIPFSHashes,\n        formIpfsHash,\n        rewardPerReview,\n        reviewFormName,\n        paymentTokenAddress,\n        true\n      );\n  }\n\n  /// @notice Creates a new non-payable review request\n  /// @dev This function creates a review request without allocating any funds\n  /// @param _name The name of the review request\n  /// @param reviewers Array of addresses of the reviewers\n  /// @param hypercertIDs Array of hypercert IDs associated with the review\n  /// @param hypercertIPFSHashes Array of IPFS hashes for the hypercerts\n  /// @param formIpfsHash IPFS hash of the review form\n  /// @param reviewFormName Name of the review form\n  /// @custom:requires The contract should not be paused\n  function createNonPayableRequest(\n    string memory _name, \n    address[] memory reviewers,\n    address[] memory reviewerContracts,\n    uint256[] memory hypercertIDs, \n    string[] memory hypercertIPFSHashes, \n    string memory formIpfsHash,\n    string memory reviewFormName\n  ) external whenUnpaused {\n      createReviewRequestCommon(\n        _name, \n        reviewers,\n        reviewerContracts,\n        hypercertIDs, \n        hypercertIPFSHashes,\n        formIpfsHash,\n        0,\n        reviewFormName,\n        address(0),\n        false\n      );\n  }\n\n  /// @notice Closes an existing review request\n  /// @dev Transfers remaining funds back to the sponsor and marks the request as closed\n  /// @param _name The name of the review request to close\n  /// @custom:requires msg.sender must be the sponsor of the review request\n  /// @custom:requires The review request must not already be closed\n  function closeReviewRequest(string memory _name) external {\n    require(msg.sender == reviewRequests[_name].sponsor, \"Deresy: It is not the sponsor\");\n    require(reviewRequests[_name].isClosed == false,\"Deresy: request closed\");\n    payable(reviewRequests[_name].sponsor).transfer(reviewRequests[_name].fundsLeft);\n    reviewRequests[_name].isClosed = true;\n    reviewRequests[_name].fundsLeft = 0;\n    emit ClosedReviewRequest(_name);\n  }\n  \n  /// @notice Retrieves details of a specific review request\n  /// @param _name The name of the review request\n  /// @return reviewRequest Returns the review request struct\n  function getRequest(string memory _name) public view returns (ReviewRequest memory reviewRequest){\n    return reviewRequests[_name];\n  }\n\n  /// @notice Retrieves the review form associated with a specific review request\n  /// @param _name The name of the review request\n  /// @return requestReviewForm Returns the review form struct\n  function getRequestReviewForm(string memory _name) public view returns(ReviewForm memory requestReviewForm){\n    ReviewRequest storage request = reviewRequests[_name];\n    return reviewForms[request.reviewFormName];\n  }\n\n\n  /// @notice Retrieves a specific review form by name\n  /// @param _reviewFormName The name of the review form\n  /// @return reviewForm Returns the review form struct\n  function getReviewForm(string memory _reviewFormName) public view returns(ReviewForm memory reviewForm){\n    return reviewForms[_reviewFormName];\n  }\n\n  /// @notice Retrieves the names of all review requests\n  /// @return An array of review request names\n  function getReviewRequestsNames() public view returns(string[] memory){\n    return reviewRequestNames;\n  }\n\n  /// @notice Retrieves all whitelisted tokens\n  /// @return An array of addresses of the whitelisted tokens\n  function getWhitelistedTokens() public view returns(address[] memory) {\n    return whitelistedTokens;\n  }\n\n\n  /// @notice Retrieves the names of all review forms\n  /// @return An array of review form names\n  function getReviewFormsNames() public view returns(string[] memory) {\n    return reviewFormsNames;\n  }\n\n  /// @notice Checks if an address is a reviewer for a specific review request\n  /// @param reviewerAddress The address to check\n  /// @param _name The name of the review request\n  /// @return reviewerFound Returns true if the address is a reviewer, false otherwise\n  /// @custom:visibility internal\n  function isReviewer(address reviewerAddress, string memory _name) internal view returns (bool) {\n    if (reviewRequests[_name].reviewerContracts.length > 0){\n      for (uint j = 0; j < reviewRequests[_name].reviewerContracts.length; j++) {\n        address erc721Address = reviewRequests[_name].reviewerContracts[j];\n        IERC721 erc721 = IERC721(erc721Address);\n        // Check if the balance of the address in the ERC721 contract is greater than 0\n        if (erc721.balanceOf(reviewerAddress) > 0) {\n            return true;\n        }\n      }\n    } else {\n      for (uint i = 0; i < reviewRequests[_name].reviewers.length; i++){\n        if(reviewRequests[_name].reviewers[i] == reviewerAddress){\n          return true;\n        }\n      }\n    }\n    return false;\n  }\n\n  /// @notice Checks if a reviewer has already submitted a review for a specific hypercert\n  /// @param reviewerAddress The address of the reviewer\n  /// @param _name The name of the review request\n  /// @param hypercertID The ID of the hypercert\n  /// @return notReviewed Returns true if the review has not been submitted, false otherwise\n  /// @custom:visibility internal\n  function hasSubmittedReview(address reviewerAddress, string memory _name, uint256 hypercertID) internal view returns (bool) {\n    bool notReviewed = true;\n    for(uint i = 0; i < reviewRequests[_name].reviews.length; i++) {\n      if(reviewRequests[_name].reviews[i].hypercertID == hypercertID && reviewRequests[_name].reviews[i].reviewer == reviewerAddress) {\n        notReviewed = false;\n      }\n    }\n    return notReviewed;\n  }\n\n  /// @notice Validates the answers submitted in a review form\n  /// @param form The review form\n  /// @param answers Array of submitted answers\n  /// @return Returns true if all answers are valid, false otherwise\n  /// @custom:visibility internal\n  function validateAnswers(ReviewForm storage form, string[] memory answers) internal view returns (bool) {\n    for (uint256 i = 0; i < answers.length; i++) {\n      if (form.questionTypes[i] == QuestionType.SingleChoice) {\n        bool isValidAnswer = false;\n        for (uint256 j = 0; j < form.choices[i].length; j++) {\n          if (keccak256(abi.encodePacked(form.choices[i][j])) == keccak256(abi.encodePacked(answers[i]))) {\n            isValidAnswer = true;\n            break;\n          }\n        }\n        \n        if (!isValidAnswer) {\n          return false;\n        }\n      } else if(form.questionTypes[i] == QuestionType.Checkbox) {\n        if(keccak256(abi.encodePacked(answers[i])) == keccak256(abi.encodePacked(\"Yes\")) || keccak256(abi.encodePacked(answers[i])) == keccak256(abi.encodePacked(\"No\"))) {\n          return true;\n        } else {\n          return false;\n        }\n      } else{\n        if (bytes(answers[i]).length == 0) {\n          return false;\n        }\n      }\n    }\n    return true;\n  }\n\n  /// @notice Validates a hypercert ID against a list of request hypercert IDs\n  /// @param requestHypercertIDs Array of hypercert IDs from the request\n  /// @param hypercertID The hypercert ID to validate\n  /// @return Returns true if the hypercert ID is valid, false otherwise\n  /// @custom:visibility internal\n  function validateHypercertID(uint256[] memory requestHypercertIDs, uint256 hypercertID) internal pure returns (bool) {\n    for (uint256 i = 0; i < requestHypercertIDs.length; i++) {\n      if (uint256(requestHypercertIDs[i]) == uint256(hypercertID)) {\n        return true;\n      }\n    }\n    return false;\n  }\n\n  /// @notice Validates hypercert IDs for a request against the hypercert contract\n  /// @param hypercertIDs Array of hypercert IDs to validate\n  /// @return Returns true if all hypercert IDs are valid, false otherwise\n  function validateRequestHypercerts(uint256[] memory hypercertIDs) internal returns (bool) {\n    if (validateHypercertIDs) {\n        for (uint256 i = 0; i < hypercertIDs.length; i++) {\n            string memory uri = hypercertContract.uri(hypercertIDs[i]);\n            if (bytes(uri).length != 0) {\n                return false;\n            }\n        }\n    }\n    return true;\n  }\n\n  /// @notice Sets the callback contract address\n  /// @param _callbackContractAddress The address of the callback contract\n  /// @custom:requires Only callable by the owner\n  /// @custom:requires Contract should not be paused\n  function setCallbackContract(address _callbackContractAddress) external onlyOwner {\n    callbackContract = IOnReviewable(_callbackContractAddress);\n  }\n\n  /// @notice Sets the hypercert contract address\n  /// @param _hypercertContractAddress The address of the hypercert contract\n  /// @custom:requires Only callable by the owner\n  function setHypercertContract(address _hypercertContractAddress) external onlyOwner {\n    hypercertContract = IHypercertable(_hypercertContractAddress);\n  }\n\n  /// @notice Enables or disables hypercert ID validation\n  /// @param _validateHypercertIDs Boolean flag to enable or disable validation\n  /// @custom:requires Only callable by the owner\n  function setValidateHypercertIDs(bool _validateHypercertIDs) external onlyOwner {\n    validateHypercertIDs = _validateHypercertIDs;\n  }\n\n  /// @notice Sets the schema ID for reviews\n  /// @param _reviewsSchemaID The new schema ID\n  /// @custom:requires Only callable by the owner\n\tfunction setReviewsSchemaID(bytes32 _reviewsSchemaID) external onlyOwner {\n\t\treviewsSchemaID = _reviewsSchemaID;\n  }\n\n  /// @notice Sets the schema ID for amendments\n  /// @param _amendmentsSchemaID The new schema ID\n  /// @custom:requires Only callable by the owner\n  function setAmendmentsSchemaID(bytes32 _amendmentsSchemaID) external onlyOwner {\n\t\tamendmentsSchemaID = _amendmentsSchemaID;\n  }\n}",
  "sourcePath": "/home/ozzlopz/chimi/deresy/deresy-v2-smart-contracts/contracts/DeresyResolver.sol",
  "compiler": {
    "name": "solc",
    "version": "0.8.19+commit.7dd6d404.Emscripten.clang"
  },
  "schemaVersion": "3.4.16",
  "updatedAt": "2024-04-17T18:38:38.306Z",
  "devdoc": {
    "kind": "dev",
    "methods": {
      "attest((bytes32,bytes32,uint64,uint64,uint64,bytes32,address,address,bool,bytes))": {
        "params": {
          "attestation": "The new attestation."
        },
        "returns": {
          "_0": "Whether the attestation is valid."
        }
      },
      "closeReviewRequest(string)": {
        "custom:requires": "msg.sender must be the sponsor of the review requestThe review request must not already be closed",
        "details": "Transfers remaining funds back to the sponsor and marks the request as closed",
        "params": {
          "_name": "The name of the review request to close"
        }
      },
      "createNonPayableRequest(string,address[],address[],uint256[],string[],string,string)": {
        "custom:requires": "The contract should not be paused",
        "details": "This function creates a review request without allocating any funds",
        "params": {
          "_name": "The name of the review request",
          "formIpfsHash": "IPFS hash of the review form",
          "hypercertIDs": "Array of hypercert IDs associated with the review",
          "hypercertIPFSHashes": "Array of IPFS hashes for the hypercerts",
          "reviewFormName": "Name of the review form",
          "reviewers": "Array of addresses of the reviewers"
        }
      },
      "createRequest(string,address[],address[],uint256[],string[],string,uint256,address,string)": {
        "custom:requires": "The contract should not be paused",
        "details": "This function creates a review request and allocates funds for it",
        "params": {
          "_name": "The name of the review request",
          "formIpfsHash": "IPFS hash of the review form",
          "hypercertIDs": "Array of hypercert IDs associated with the review",
          "hypercertIPFSHashes": "Array of IPFS hashes for the hypercerts",
          "paymentTokenAddress": "Address of the payment token",
          "reviewFormName": "Name of the review form",
          "reviewers": "Array of addresses of the reviewers",
          "rewardPerReview": "Amount of reward per review"
        }
      },
      "createReviewForm(string,string[],string[][],uint8[])": {
        "custom:requires": "Name must not be null or emptyReview form name must be uniqueQuestions array cannot be emptyQuestionTypes array cannot be emptyQuestions and types must have the same lengthQuestions and choices must have the same length",
        "details": "Only callable when the contract is not paused",
        "params": {
          "_name": "The name of the review form",
          "choices": "Array of choices for each question",
          "questionTypes": "Array of types for each question",
          "questions": "Array of questions for the review form"
        }
      },
      "getRequest(string)": {
        "params": {
          "_name": "The name of the review request"
        },
        "returns": {
          "reviewRequest": "Returns the review request struct"
        }
      },
      "getRequestReviewForm(string)": {
        "params": {
          "_name": "The name of the review request"
        },
        "returns": {
          "requestReviewForm": "Returns the review form struct"
        }
      },
      "getReviewForm(string)": {
        "params": {
          "_reviewFormName": "The name of the review form"
        },
        "returns": {
          "reviewForm": "Returns the review form struct"
        }
      },
      "getReviewFormsNames()": {
        "returns": {
          "_0": "An array of review form names"
        }
      },
      "getReviewRequestsNames()": {
        "returns": {
          "_0": "An array of review request names"
        }
      },
      "getWhitelistedTokens()": {
        "returns": {
          "_0": "An array of addresses of the whitelisted tokens"
        }
      },
      "isPayable()": {
        "returns": {
          "_0": "Whether the resolver supports ETH transfers."
        }
      },
      "isTokenWhitelisted(address)": {
        "params": {
          "tokenAddress": "The address of the token to check"
        },
        "returns": {
          "_0": "Returns true if the token is whitelisted, false otherwise"
        }
      },
      "multiAttest((bytes32,bytes32,uint64,uint64,uint64,bytes32,address,address,bool,bytes)[],uint256[])": {
        "params": {
          "attestations": "The new attestations.",
          "values": "Explicit ETH amounts which were sent with each attestation."
        },
        "returns": {
          "_0": "Whether all the attestations are valid."
        }
      },
      "multiRevoke((bytes32,bytes32,uint64,uint64,uint64,bytes32,address,address,bool,bytes)[],uint256[])": {
        "params": {
          "attestations": "The existing attestations to be revoked.",
          "values": "Explicit ETH amounts which were sent with each revocation."
        },
        "returns": {
          "_0": "Whether the attestations can be revoked."
        }
      },
      "owner()": {
        "details": "Returns the address of the current owner."
      },
      "pause()": {
        "details": "Only callable by the contract owner and when the contract is not paused"
      },
      "renounceOwnership()": {
        "details": "Leaves the contract without owner. It will not be possible to call `onlyOwner` functions. Can only be called by the current owner. NOTE: Renouncing ownership will leave the contract without an owner, thereby disabling any functionality that is only available to the owner."
      },
      "revoke((bytes32,bytes32,uint64,uint64,uint64,bytes32,address,address,bool,bytes))": {
        "params": {
          "attestation": "The existing attestation to be revoked."
        },
        "returns": {
          "_0": "Whether the attestation can be revoked."
        }
      },
      "setAmendmentsSchemaID(bytes32)": {
        "custom:requires": "Only callable by the owner",
        "params": {
          "_amendmentsSchemaID": "The new schema ID"
        }
      },
      "setCallbackContract(address)": {
        "custom:requires": "Only callable by the ownerContract should not be paused",
        "params": {
          "_callbackContractAddress": "The address of the callback contract"
        }
      },
      "setHypercertContract(address)": {
        "custom:requires": "Only callable by the owner",
        "params": {
          "_hypercertContractAddress": "The address of the hypercert contract"
        }
      },
      "setReviewsSchemaID(bytes32)": {
        "custom:requires": "Only callable by the owner",
        "params": {
          "_reviewsSchemaID": "The new schema ID"
        }
      },
      "setValidateHypercertIDs(bool)": {
        "custom:requires": "Only callable by the owner",
        "params": {
          "_validateHypercertIDs": "Boolean flag to enable or disable validation"
        }
      },
      "transferOwnership(address)": {
        "details": "Transfers ownership of the contract to a new account (`newOwner`). Can only be called by the current owner."
      },
      "unpause()": {
        "details": "Only callable by the contract owner"
      },
      "unwhitelistToken(address)": {
        "custom:requires": "Token must be in the whitelist",
        "details": "Only callable by the contract owner",
        "params": {
          "tokenAddress": "The address of the token to be removed from the whitelist"
        }
      },
      "version()": {
        "returns": {
          "_0": "Semver contract version as a string."
        }
      },
      "whitelistToken(address)": {
        "custom:requires": "Token must not already be whitelisted",
        "details": "Only callable by the contract owner",
        "params": {
          "tokenAddress": "The address of the token to be whitelisted"
        }
      }
    },
    "version": 1
  },
  "userdoc": {
    "kind": "user",
    "methods": {
      "attest((bytes32,bytes32,uint64,uint64,uint64,bytes32,address,address,bool,bytes))": {
        "notice": "Processes an attestation and verifies whether it's valid."
      },
      "closeReviewRequest(string)": {
        "notice": "Closes an existing review request"
      },
      "createNonPayableRequest(string,address[],address[],uint256[],string[],string,string)": {
        "notice": "Creates a new non-payable review request"
      },
      "createRequest(string,address[],address[],uint256[],string[],string,uint256,address,string)": {
        "notice": "Creates a new payable review request"
      },
      "createReviewForm(string,string[],string[][],uint8[])": {
        "notice": "Creates a new review form"
      },
      "getRequest(string)": {
        "notice": "Retrieves details of a specific review request"
      },
      "getRequestReviewForm(string)": {
        "notice": "Retrieves the review form associated with a specific review request"
      },
      "getReviewForm(string)": {
        "notice": "Retrieves a specific review form by name"
      },
      "getReviewFormsNames()": {
        "notice": "Retrieves the names of all review forms"
      },
      "getReviewRequestsNames()": {
        "notice": "Retrieves the names of all review requests"
      },
      "getWhitelistedTokens()": {
        "notice": "Retrieves all whitelisted tokens"
      },
      "isPayable()": {
        "notice": "Checks if the resolver can be sent ETH."
      },
      "isTokenWhitelisted(address)": {
        "notice": "Checks if a token is whitelisted"
      },
      "multiAttest((bytes32,bytes32,uint64,uint64,uint64,bytes32,address,address,bool,bytes)[],uint256[])": {
        "notice": "Processes multiple attestations and verifies whether they are valid."
      },
      "multiRevoke((bytes32,bytes32,uint64,uint64,uint64,bytes32,address,address,bool,bytes)[],uint256[])": {
        "notice": "Processes revocation of multiple attestation and verifies they can be revoked."
      },
      "pause()": {
        "notice": "Pauses the contract"
      },
      "revoke((bytes32,bytes32,uint64,uint64,uint64,bytes32,address,address,bool,bytes))": {
        "notice": "Processes an attestation revocation and verifies if it can be revoked."
      },
      "setAmendmentsSchemaID(bytes32)": {
        "notice": "Sets the schema ID for amendments"
      },
      "setCallbackContract(address)": {
        "notice": "Sets the callback contract address"
      },
      "setHypercertContract(address)": {
        "notice": "Sets the hypercert contract address"
      },
      "setReviewsSchemaID(bytes32)": {
        "notice": "Sets the schema ID for reviews"
      },
      "setValidateHypercertIDs(bool)": {
        "notice": "Enables or disables hypercert ID validation"
      },
      "unpause()": {
        "notice": "Unpauses the contract"
      },
      "unwhitelistToken(address)": {
        "notice": "Removes a token from the whitelist"
      },
      "version()": {
        "notice": "Returns the full semver contract version."
      },
      "whitelistToken(address)": {
        "notice": "Adds a token to the whitelist"
      }
    },
    "version": 1
  }
}