{
  "contractName": "OnReviewableExample",
  "abi": [
    {
      "inputs": [
        {
          "components": [
            {
              "internalType": "bytes32",
              "name": "uid",
              "type": "bytes32"
            },
            {
              "internalType": "bytes32",
              "name": "schema",
              "type": "bytes32"
            },
            {
              "internalType": "uint64",
              "name": "time",
              "type": "uint64"
            },
            {
              "internalType": "uint64",
              "name": "expirationTime",
              "type": "uint64"
            },
            {
              "internalType": "uint64",
              "name": "revocationTime",
              "type": "uint64"
            },
            {
              "internalType": "bytes32",
              "name": "refUID",
              "type": "bytes32"
            },
            {
              "internalType": "address",
              "name": "recipient",
              "type": "address"
            },
            {
              "internalType": "address",
              "name": "attester",
              "type": "address"
            },
            {
              "internalType": "bool",
              "name": "revocable",
              "type": "bool"
            },
            {
              "internalType": "bytes",
              "name": "data",
              "type": "bytes"
            }
          ],
          "internalType": "struct Attestation",
          "name": "attestation",
          "type": "tuple"
        },
        {
          "internalType": "string",
          "name": "requestName",
          "type": "string"
        }
      ],
      "name": "onReview",
      "outputs": [
        {
          "internalType": "bool",
          "name": "",
          "type": "bool"
        }
      ],
      "stateMutability": "nonpayable",
      "type": "function"
    },
    {
      "inputs": [
        {
          "internalType": "string",
          "name": "requestName",
          "type": "string"
        }
      ],
      "name": "getRequestReviews",
      "outputs": [
        {
          "components": [
            {
              "internalType": "string",
              "name": "name",
              "type": "string"
            },
            {
              "components": [
                {
                  "internalType": "bytes32",
                  "name": "uid",
                  "type": "bytes32"
                },
                {
                  "internalType": "bytes32",
                  "name": "schema",
                  "type": "bytes32"
                },
                {
                  "internalType": "uint64",
                  "name": "time",
                  "type": "uint64"
                },
                {
                  "internalType": "uint64",
                  "name": "expirationTime",
                  "type": "uint64"
                },
                {
                  "internalType": "uint64",
                  "name": "revocationTime",
                  "type": "uint64"
                },
                {
                  "internalType": "bytes32",
                  "name": "refUID",
                  "type": "bytes32"
                },
                {
                  "internalType": "address",
                  "name": "recipient",
                  "type": "address"
                },
                {
                  "internalType": "address",
                  "name": "attester",
                  "type": "address"
                },
                {
                  "internalType": "bool",
                  "name": "revocable",
                  "type": "bool"
                },
                {
                  "internalType": "bytes",
                  "name": "data",
                  "type": "bytes"
                }
              ],
              "internalType": "struct Attestation[]",
              "name": "attestations",
              "type": "tuple[]"
            }
          ],
          "internalType": "struct OnReviewableExample.ReviewRequest",
          "name": "",
          "type": "tuple"
        }
      ],
      "stateMutability": "view",
      "type": "function"
    }
  ],
  "bytecode": "0x608060405234801561001057600080fd5b50610990806100206000396000f3fe608060405234801561001057600080fd5b50600436106100365760003560e01c80631790d93e1461003b578063bb69ab3314610064575b600080fd5b61004e6100493660046103da565b610087565b60405161005b9190610467565b60405180910390f35b610077610072366004610585565b6102e0565b604051901515815260200161005b565b6040805180820190915260608082526020820152600080836040516100ac91906105f2565b90815260200160405180910390206040518060400160405290816000820180546100d59061060e565b80601f01602080910402602001604051908101604052809291908181526020018280546101019061060e565b801561014e5780601f106101235761010080835404028352916020019161014e565b820191906000526020600020905b81548152906001019060200180831161013157829003601f168201915b5050505050815260200160018201805480602002602001604051908101604052809291908181526020016000905b828210156102d157600084815260209081902060408051610140810182526007860290920180548352600181015493830193909352600283015467ffffffffffffffff8082169284019290925268010000000000000000810482166060840152600160801b9004166080820152600382015460a082015260048201546001600160a01b0390811660c0830152600583015490811660e0830152600160a01b900460ff161515610100820152600682018054919291610120840191906102409061060e565b80601f016020809104026020016040519081016040528092919081815260200182805461026c9061060e565b80156102b95780601f1061028e576101008083540402835291602001916102b9565b820191906000526020600020905b81548152906001019060200180831161029c57829003601f168201915b5050505050815250508152602001906001019061017c565b50505091525090949350505050565b6000806000836040516102f391906105f2565b9081526040516020918190038201902060018082018054918201815560009081529290922090925085916007020161032b8282610811565b50600195945050505050565b634e487b7160e01b600052604160045260246000fd5b600082601f83011261035e57600080fd5b813567ffffffffffffffff8082111561037957610379610337565b604051601f8301601f19908116603f011681019082821181831017156103a1576103a1610337565b816040528381528660208588010111156103ba57600080fd5b836020870160208301376000602085830101528094505050505092915050565b6000602082840312156103ec57600080fd5b813567ffffffffffffffff81111561040357600080fd5b61040f8482850161034d565b949350505050565b60005b8381101561043257818101518382015260200161041a565b50506000910152565b60008151808452610453816020860160208601610417565b601f01601f19169290920160200192915050565b6000602080835260608451604080848701526104858387018361043b565b84880151601f198883038101848a015281518084529294509086019184870190600581901b8601880160005b8281101561057557848883030184528551610140815184528b8201518c850152888201516104ea8a86018267ffffffffffffffff169052565b508a82015167ffffffffffffffff908116858d01526080808401519091169085015260a0808301519085015260c0808301516001600160a01b039081169186019190915260e0808401519091169085015261010080830151151590850152610120918201519184018190526105618185018361043b565b978c0197958c0195935050506001016104b1565b509b9a5050505050505050505050565b6000806040838503121561059857600080fd5b823567ffffffffffffffff808211156105b057600080fd5b9084019061014082870312156105c557600080fd5b909250602084013590808211156105db57600080fd5b506105e88582860161034d565b9150509250929050565b60008251610604818460208701610417565b9190910192915050565b600181811c9082168061062257607f821691505b60208210810361064257634e487b7160e01b600052602260045260246000fd5b50919050565b6000813567ffffffffffffffff8116811461066257600080fd5b92915050565b600081356001600160a01b038116811461066257600080fd5b80546001600160a01b0319166001600160a01b0392909216919091179055565b60008135801515811461066257600080fd5b6000808335601e198436030181126106ca57600080fd5b83018035915067ffffffffffffffff8211156106e557600080fd5b6020019150368190038213156106fa57600080fd5b9250929050565b601f82111561074b57600081815260208120601f850160051c810160208610156107285750805b601f850160051c820191505b8181101561074757828155600101610734565b5050505b505050565b67ffffffffffffffff83111561076857610768610337565b61077c83610776835461060e565b83610701565b6000601f8411600181146107b057600085156107985750838201355b600019600387901b1c1916600186901b17835561080a565b600083815260209020601f19861690835b828110156107e157868501358255602094850194600190920191016107c1565b50868210156107fe5760001960f88860031b161c19848701351681555b505060018560011b0183555b5050505050565b81358155602082013560018201556002810161085161083260408501610648565b825467ffffffffffffffff191667ffffffffffffffff91909116178255565b61089261086060608501610648565b82546fffffffffffffffff0000000000000000191660409190911b6fffffffffffffffff000000000000000016178255565b6108cd6108a160808501610648565b82805467ffffffffffffffff60801b191660809290921b67ffffffffffffffff60801b16919091179055565b5060a082013560038201556108f06108e760c08401610668565b60048301610681565b6005810161090961090360e08501610668565b82610681565b61093761091961010085016106a1565b82805460ff60a01b191691151560a01b60ff60a01b16919091179055565b506109466101208301836106b3565b610954818360068601610750565b5050505056fea26469706673582212206ef69b0613c9a307ff1cd5b38a193dd4a93a9fdf2e208fb9704e035f7f7e38df64736f6c63430008130033",
  "immutableReferences": {},
  "source": "// SPDX-License-Identifier: MIT\npragma solidity 0.8.19;\n\nimport \"./interfaces/IOnReviewable.sol\";\n\ncontract OnReviewableExample is IOnReviewable {\n    struct Review {\n        address reviewer;\n        string requestName;\n        Attestation attestation;\n    }\n\n    struct ReviewRequest {\n      string name;\n      Attestation[] attestations;\n    }\n\n    mapping(string => ReviewRequest) private reviewRequests;\n\n    function onReview(Attestation calldata attestation, string memory requestName) external override returns (bool) {\n        ReviewRequest storage request = reviewRequests[requestName];\n        request.attestations.push(attestation);\n        return true;\n    }\n\n    function getRequestReviews(string memory requestName) public view returns (ReviewRequest memory) {\n        ReviewRequest memory request = reviewRequests[requestName];\n        return request;\n    }\n}",
  "sourcePath": "/home/ozzlopz/chimi/deresy/deresy-v2-smart-contracts/contracts/OnRevieweableExample.sol",
  "compiler": {
    "name": "solc",
    "version": "0.8.19+commit.7dd6d404.Emscripten.clang"
  },
  "schemaVersion": "3.4.16",
  "updatedAt": "2024-04-17T15:36:21.541Z",
  "devdoc": {
    "kind": "dev",
    "methods": {},
    "version": 1
  },
  "userdoc": {
    "kind": "user",
    "methods": {},
    "version": 1
  }
}