{
  "contractName": "Semver",
  "abi": [
    {
      "inputs": [
        {
          "internalType": "uint256",
          "name": "major",
          "type": "uint256"
        },
        {
          "internalType": "uint256",
          "name": "minor",
          "type": "uint256"
        },
        {
          "internalType": "uint256",
          "name": "patch",
          "type": "uint256"
        }
      ],
      "stateMutability": "nonpayable",
      "type": "constructor"
    },
    {
      "inputs": [],
      "name": "version",
      "outputs": [
        {
          "internalType": "string",
          "name": "",
          "type": "string"
        }
      ],
      "stateMutability": "view",
      "type": "function"
    }
  ],
  "bytecode": "0x60e060405234801561001057600080fd5b506040516103f43803806103f483398101604081905261002f91610040565b60809290925260a05260c05261006e565b60008060006060848603121561005557600080fd5b8351925060208401519150604084015190509250925092565b60805160a05160c05161035a61009a600039600060a701526000607e015260006055015261035a6000f3fe608060405234801561001057600080fd5b506004361061002b5760003560e01c806354fd4d5014610030575b600080fd5b61003861004e565b6040516100459190610281565b60405180910390f35b60606100797f00000000000000000000000000000000000000000000000000000000000000006100f1565b6100a27f00000000000000000000000000000000000000000000000000000000000000006100f1565b6100cb7f00000000000000000000000000000000000000000000000000000000000000006100f1565b6040516020016100dd939291906102b4565b604051602081830303815290604052905090565b606060006100fe83610184565b600101905060008167ffffffffffffffff81111561011e5761011e61030e565b6040519080825280601f01601f191660200182016040528015610148576020820181803683370190505b5090508181016020015b600019016f181899199a1a9b1b9c1cb0b131b232b360811b600a86061a8153600a850494508461015257509392505050565b60008072184f03e93ff9f4daa797ed6e38ed64bf6a1f0160401b83106101c35772184f03e93ff9f4daa797ed6e38ed64bf6a1f0160401b830492506040015b6d04ee2d6d415b85acef810000000083106101ef576d04ee2d6d415b85acef8100000000830492506020015b662386f26fc10000831061020d57662386f26fc10000830492506010015b6305f5e1008310610225576305f5e100830492506008015b612710831061023957612710830492506004015b6064831061024b576064830492506002015b600a8310610257576001015b92915050565b60005b83811015610278578181015183820152602001610260565b50506000910152565b60208152600082518060208401526102a081604085016020870161025d565b601f01601f19169190910160400192915050565b600084516102c681846020890161025d565b8083019050601760f91b80825285516102e6816001850160208a0161025d565b6001920191820152835161030181600284016020880161025d565b0160020195945050505050565b634e487b7160e01b600052604160045260246000fdfea2646970667358221220d07aaeb9cb3a12784f6789d4fccd37b4d51d27cc641a3306020c8d00e31cd8e764736f6c63430008130033",
  "immutableReferences": {
    "411": [
      {
        "length": 32,
        "start": 85
      }
    ],
    "413": [
      {
        "length": 32,
        "start": 126
      }
    ],
    "415": [
      {
        "length": 32,
        "start": 167
      }
    ]
  },
  "source": "// SPDX-License-Identifier: MIT\n\npragma solidity ^0.8.4;\n\nimport { Strings } from \"@openzeppelin/contracts/utils/Strings.sol\";\n\n/// @title Semver\n/// @notice A simple contract for managing contract versions.\ncontract Semver {\n    // Contract's major version number.\n    uint256 private immutable _major;\n\n    // Contract's minor version number.\n    uint256 private immutable _minor;\n\n    // Contract's patch version number.\n    uint256 private immutable _path;\n\n    /// @dev Create a new Semver instance.\n    /// @param major Major version number.\n    /// @param minor Minor version number.\n    /// @param patch Patch version number.\n    constructor(uint256 major, uint256 minor, uint256 patch) {\n        _major = major;\n        _minor = minor;\n        _path = patch;\n    }\n\n    /// @notice Returns the full semver contract version.\n    /// @return Semver contract version as a string.\n    function version() external view returns (string memory) {\n        return\n            string(\n                abi.encodePacked(Strings.toString(_major), \".\", Strings.toString(_minor), \".\", Strings.toString(_path))\n            );\n    }\n}\n",
  "sourcePath": "@ethereum-attestation-service/eas-contracts/contracts/Semver.sol",
  "compiler": {
    "name": "solc",
    "version": "0.8.19+commit.7dd6d404.Emscripten.clang"
  },
  "schemaVersion": "3.4.16",
  "updatedAt": "2024-04-17T15:36:21.502Z",
  "devdoc": {
    "kind": "dev",
    "methods": {
      "constructor": {
        "details": "Create a new Semver instance.",
        "params": {
          "major": "Major version number.",
          "minor": "Minor version number.",
          "patch": "Patch version number."
        }
      },
      "version()": {
        "returns": {
          "_0": "Semver contract version as a string."
        }
      }
    },
    "title": "Semver",
    "version": 1
  },
  "userdoc": {
    "kind": "user",
    "methods": {
      "version()": {
        "notice": "Returns the full semver contract version."
      }
    },
    "notice": "A simple contract for managing contract versions.",
    "version": 1
  }
}